:100000000C9459050C9481050C9481050C94810580
:100010000C9481050C9481050C9481050C94810548
:100020000C9481050C9481050C9481050C94810538
:100030000C9481050C9481050C9481050C94810528
:100040000C9481050C9481050C9481050C94810518
:100050000C9481050C9481050C9481050C94F12776
:100060000C9481050C9481050C9481050C948105F8
:100070000C9481050C9481050C9481050C948105E8
:100080000C9481050C9481050C9481050C948105D8
:100090000C9481050C9481050C9481050C948105C8
:1000A0000C9481050C9481050C948105BA07C7074F
:1000B000CC07FC072E084108520856085A085E086B
:1000C0007A087E0884088808D708EC0818094709C8
:1000D0005F09960999090E0ACF08A709DD09EB09FE
:1000E000390CE20A390C390C3F0C390C450CE20A88
:1000F000E20AE20A4C0CE20A520C9A12B112E6121F
:100100005C13A313B013C2132614C121EB211523D2
:100110001523F721152315231222292215235322F3
:1001200015235E2215231523152315236F22EB2893
:1001300003290D29132919292A2934293B294B2957
:10014000D5F08D14A1C881CFD9F1AF2000425D2038
:10015000536176657E7175697400415D20476F203B
:100160004E657874004E65787420666C6F6F7220EF
:100170000057696E202C002D20292048616C6C20CE
:100180004F662046616D65202920202D005448458A
:1001900020414D554C4554204F462059454E444F23
:1001A000522000594F55204D414445204954204F7D
:1001B000555420574954482000202C20434F4E4787
:1001C000524154554C4154494F4E202C202000247C
:1001D000006279004B696C6C65640068656C6C66E4
:1001E000697265006C75636B006C61636B206F6690
:1001F0000046726F7A656E00537461727665005FB7
:1002000020204865726F20205F00282052455354FB
:1002100020494E2050454143452028007C007C4524
:10022000783B007C41433B007C53743B007C486737
:100230003B007C48703B007C41753B007C4C763B2E
:10024000002020202020202020202000425D20436C
:100250006F6E74696E756500415D204E657720474D
:10026000616D65004020526F677565002043002076
:1002700045002077686963687D0002030304040574
:10028000010101010102010301042020202020209E
:1002900020202020202020202000207C2064726F3D
:1002A00070202020202020207C00207C2074687278
:1002B0006F772020202020207C00207C2075736513
:1002C00020202020202020207C000A01043C020065
:1002D000830B0103410200020A01033C02002508CE
:1002E0000103320200030F0205430300030F000065
:1002F0004405000413020A460A00031901054605D5
:100300000A03150107450800031900004B15640492
:10031000200513550F0A051E030F4E141403190070
:1003200000641400031900004B27640423031250D7
:10033000321405490000505B00014B051C4B7D2128
:10034000032D02104B3700054C0514507832652AF6
:1003500004184B6E00065A042855C821036107256E
:1003600055FA190337021255041203730A32551451
:100370000A83840732641E000591083C64325A02E5
:10038000000A0F18213F5D60642A3A295B213F3D36
:100390002F2C00050A14192328323C414B555A5F73
:1003A0006400050A0F14232D37414B555A646464C9
:1003B00044616E67657260000072757374207472B8
:1003C000617000706F69736F6E2074726170007479
:1003D000656C65706F7274207472617000736C6507
:1003E000657020676173006172726F77207472614B
:1003F000700074726170646F6F72007A7A7A272766
:100400002700647261696E6564006C6576656C20B6
:10041000646F776E006275726E6564006772616307
:1004200065640068656C640072757374656400735C
:10043000746F6C656E00706F69736F6E65640066D3
:10044000726F7A656E00616C7265616420776965B0
:100450006C640045717569707065640072656D6FDC
:1004600076656400697420637572736564007975DC
:100470006D6D79006F6F7073272727006C65766547
:100480006C207570006469727D006E6F20736C6FF4
:100490007400736F6D657468696E67206865726556
:1004A000006E6F7468696E672068617070656E7346
:1004B00000492063616E6E6F740057656C636F6DE9
:1004C0006560006E6F7468696E670063616E636576
:1004D0006C006D697373696C6500736C65657000A1
:1004E00066617374006368616E676500636C656163
:1004F0007200636F6E6675736500736C6F7700745E
:10050000656C65706F727400736561726368006119
:10051000726D6F72007365650061646F726E006466
:100520006578007374726F6E670064616D616765F2
:1005300000666F6F64006C6966650074656C657059
:100540006F727400737465616C7468006D61700023
:10055000616E6765720063726561746500626C65E7
:10056000737300736361726500736C65657000740A
:10057000656C65706F7274006964656E7469667924
:100580000061726D6F7200776561706F6E00686FE9
:100590006C640070726F74656374006C6F6F6B00D5
:1005A0007370656564006C65766974617465006379
:1005B0006F6E6675736500692764657465637400A2
:1005C0006D276465746563740068616C6C750062A6
:1005D0006C696E64006C6576656C00706F69736F32
:1005E0006E0065276865616C006865616C00726506
:1005F00073746F726500706F7765720059656E6411
:100600006F72007A696E630074696E0073696C764C
:10061000657200737465656C006E69636B656C0070
:100620006C6561640069726F6E00636F70706572F3
:100630000062726F6E7A6500627261737300746F2C
:1006400070617A00736170706869726500727562BA
:100650007900706561726C006F70616C006F6E790B
:1006600078006761726E657400656D6572616C64B7
:10067000006469616D6F6E6400616D6574687973A3
:10068000740061676174650052454144204D450026
:1006900054454D4F5600464F4F42494500414E4448
:1006A0004F56410059554D2059554D00544841521F
:1006B0005200454C4249420044414959454E005878
:1006C0004958415841004E522039004A5559454435
:1006D000005A454C474F0079656C6C6F770077681E
:1006E0006974650076696F6C65740072656400708A
:1006F000696E6B006772657900677265656E006F81
:1007000072616E6765006379616E00636C6561722A
:100710000062726F776E00626C756500626C616377
:100720006B00616D62657200706C6174650062617E
:100730006E6465640073706C696E740063686169EF
:100740006E007363616C650072696E67006C656151
:1007500074686572006461676765720073687572BA
:10076000696B656E006172726F770064617274000C
:10077000626F770073776F726400617865006D61F6
:100780006365006D6F6C6400666F6F6400676F6C0B
:100790006400BA04B104A10492048A0485047C04B0
:1007A00074046E0464045C04530446043F04360479
:1007B0002F04280423041C0415040A040204FB0368
:1007C000F203E703DD03CF03C303B903B803B003A8
:1007D0008D07880783077E077A07740770076B0702
:1007E00065075C0755074D07480742073C07350773
:1007F0002E07280722071C07170711070B070607F4
:10080000FF06F906F406EF06EB06E406DE06D70659
:10081000D106CB06C606BF06B806B206AC06A406CD
:100820009D06960690068806820679067106690678
:1008300062065D06580652064D0644063E06380618
:1008400031062A0625062006190613060C06080698
:100850000306FC05F605EE05E905E205DB05D50511
:10086000CF05C905C005B705AF05A605A0059B05C1
:1008700093058E058705810578056F056905630574
:100880005D05560550054C0544053B05360531050B
:100890002A0523051F05190515050F050805FF0481
:1008A000FA04F204EC04E504E004DA04D204CB0414
:1008B000C3044B4542534849524F5A4C4351414E51
:1008C000594654575058554D56474A44020304055B
:1008D0000606070508000000000000746D74004063
:1008E00040404040552A552A55042E6B3A107F430C
:1008F0007F417F6A5767576E0060600000707A77AB
:100900000A7008105F100822085D08227E414141EC
:100910007E060929522C000808080000000040202B
:1009200002007D00023E7F417F3E00427F7F4062A9
:1009300071594F462241497F3618147E7F102F4F40
:100940004979313E7F4979300161791F07367F4906
:100950007F36064F497F3E18353E3D18003636003B
:10096000000040381800102A452A101C7F3E1C0841
:10097000085C2E170A0102641F767E7F097F7E7F46
:100980007F497F363E7F4141227F7F417F3E7F7F8F
:100990004949417F7F0909013E7F41797A7F7F087C
:1009A0007F7F00417F7F4141417F3F017F7F1C3638
:1009B000637F7F4040407F7E0C7E7F7F7E1C3F7F39
:1009C0003E7F417F3E7F7F090F063E7F613F5E7F16
:1009D0007F097F76264F49793200017F7F013F7F73
:1009E000407F3F1F3F603F1F7F3F103F7F777F0863
:1009F0007F77037F78070371794D47431F3F7B3F24
:100A00001F707A770A700041417F3E3E7F4141006E
:100A10004D3A163A4D006F6F00002074547C787F79
:100A20007F447C38387C444428387C447F7F387C41
:100A3000545C1800047E7F0518BCA4FC7C7F7F08F2
:100A4000787000447D7D408080FD7D007F7F386C24
:100A50004400417F7F407C7810787C7C7C047C78EB
:100A6000387C447C38FCFC243C18183C24FCFC7C7E
:100A70007C080404085C54742000047E7E043C7CE2
:100A8000407C7C1C3C403C1C7C3C103C7C6C7C10C6
:100A90007C6C1CBCA0FC7C4464745C4C1F3B713BB4
:100AA0001F00777777000601590F0620100804020F
:100AB000433511241FBECFEFDAE0DEBFCDBF11E01A
:100AC000A0E0B1E0E4EBFDE602C005900D92A6398E
:100AD000B107D9F729E0A6E9B1E001C01D92A93A12
:100AE000B207E1F715E0C9E5D5E004C02197FE01A2
:100AF0000E94AA36C835D107C9F70E94E42D0C948C
:100B0000D8360C940000FF920F931F93CF93DF937E
:100B1000EC01F62E08811981C8010E940336F816EF
:100B200021F06F2DC8010E940B36CE01DF91CF91CD
:100B30001F910F91FF9008952F923F924F925F92D5
:100B40006F927F928F929F92AF92BF92CF92DF92DD
:100B5000EF92FF920F931F93CF93DF93682E712C28
:100B60003324339422242A94882E912C88E0582E02
:100B700056180E94D726309276053092750520923D
:100B8000770501E0601204C082E792E00E94FB2634
:100B900061E070E0611002C060E070E080E090E031
:100BA0000E94611D8EE30E94F626072D10E0E09062
:100BB0003B01C8010896881999092E2D30E02817A5
:100BC000390714F0E52CE70C25E0729EE0011124B2
:100BD000CD56DD4F5801CC24C394D12CF12CAE144A
:100BE000BF040CF08FC081E090E0662011F080E03F
:100BF00090E0B601681B790B81E090E00E94611DD6
:100C00008C8183FD08C0E881E295EF70F0E0E85741
:100C1000FC4F849101C08BE70E94F62680E20E947F
:100C2000F6268C8187FF06C089810E94EF2680E22C
:100C30000E94F6269881692F6F70892F82958F7098
:100C4000903510F440E00FC0E82FF0E0EE0FFF1FEA
:100C5000E257FE4F40815181062E02C056954795BE
:100C60000A94E2F741700E94421F8091B501909171
:100C7000B6010E94FB268C8185FF2DC0888190EDF6
:100C8000980F903170F48EE50E94F6268A81082E26
:100C9000000C990B0E9440278CE30E94F6268B8162
:100CA00012C090EC980F903150F090E8980F90316E
:100CB00030F08057803178F48A81882361F08EE5A6
:100CC0000E94F6268A81082E000C990B0E9440276C
:100CD0008DE50E94F6268C8184FF04C08FE692E0A9
:100CE0000E94FB268C818274823421F48CE692E08F
:100CF0000E94FB263FEFA31AB30A25968FEFC81A6E
:100D0000D80A6DCF0E9446270E94F214823029F43F
:100D1000772009F42ECF7A942CCF843051F480912F
:100D20003B0190E00197081719070CF022CF73944C
:100D300020CF853009F090C6611091C6C7E0C093FE
:100D40007605C0937505C09377058AEB92E00E9403
:100D5000FB26C0937605C09375058FE080937705D9
:100D60008AEA92E00E94FB26C0937605C09375053F
:100D700087E1809377058AE992E00E94FB26C09381
:100D80007605C09375058FE1809377058AE892E038
:100D90000E94FB2683E18093760580937505C093BE
:100DA00077058EE30E94F6260E944627C0E00E9447
:100DB000F2148430C9F018F4823039F0F8CF85305D
:100DC00079F1863009F44BC6F2CFCC2381F36C2F36
:100DD00070E06F5F7F4F83E090E00E94611D80E2D2
:100DE0000E94F626C1500EC0C23008F76C2F70E08A
:100DF0006F5F7F4F83E090E00E94611D80E20E9460
:100E0000F626CF5F6C2F70E06F5F7F4F83E090E03E
:100E10000E94611D8EE30E94F6260E944627C7CFDE
:100E2000C11168C3D0914401D11161C4809FF00108
:100E3000819FF00D1124ED56FD4FC0818C2F8295BE
:100E40008F70CF70823009F05DC0818181508183C5
:100E5000811103C0872D0E94AE29C1114CC40E948C
:100E6000AC3523E030E040E050E00E941936672BBB
:100E7000682B692B09F03FC487E00E94841F809192
:100E8000570190915801A0915901B0915A010296D1
:100E9000A11DB11D8093570190935801A093590152
:100EA000B0935A01C0E060915F0170916001809140
:100EB00061019091620123E030E040E050E00E9447
:100EC000193669017A019CE2C90E91E0D91EE11C34
:100ED000F11CCC0ED11CE11CF11C0E94AC3522E3AC
:100EE00030E040E050E00E941936C60ED71EE81EE2
:100EF000F91EC0925F01D0926001E0926101F09210
:100F00006201EEC3833009F4ACC2843009F4A9C293
:100F1000853009F004C10C2F10E081E090E0A0E0E2
:100F2000B0E00C2E04C0880F991FAA1FBB1F0A94A3
:100F3000D2F72091980130919901822B932B9093B5
:100F4000990180939801818181508183811103C02F
:100F5000872D0E94AE29F801EF5FFE4FE0818E2FB2
:100F600090E08E30910508F0D6C0FC01EA5AFF4FA0
:100F70000C94AA3690913D0120913E0181E0890FA9
:100F800080933D019213C7C080933E01C4C08091FD
:100F90003E0180933D01BFC080914F01909150016F
:100FA000A0915101B09152014091530150915401CF
:100FB000609155017091560184179507A607B707F0
:100FC00021F40196A11DB11D2FC08C019D01040FBC
:100FD000151F261F371FC901B80122E030E040E08D
:100FE00050E00E94193620934F01309350014093F6
:100FF0005101509352018FC080914F019091500147
:10100000A0915101B091520140915301509154016E
:10101000609155017091560184179507A607B7078F
:10102000A1F40296A11DB11D80934F019093500130
:10103000A0935101B09352018093530190935401B6
:10104000A0935501B093560166C040934F01509351
:10105000500160935101709352015DC0D0913D01E8
:10106000D43060F00E94AC35D15023E030E040E055
:1010700050E00E941936D61BD0933D0110924201D8
:101080004AC08091630190916401A0916501B09183
:1010900066018093570190935801A0935901B09332
:1010A0005A0139C082E38093410135C082E38093C5
:1010B000420131C081E0809345012DC04DEDE42E09
:1010C00043E0F42E00E010E0F701E00FF11F808113
:1010D000882321F0602F8D2F0E94251F0F5F1F4F47
:1010E0000830110589F718E0E10EF11CDF5FD531FA
:1010F00049F711C08AE0809340010DC01092480169
:101100008EE18093470107C084E18093430103C0CF
:1011100081E08093460141E06C2F85E088C18630F4
:1011200009F088C18091410181118DC2EC2EF12C12
:1011300081E090E0A0E0B0E00C2E04C0880F991F81
:10114000AA1FBB1F0A94D2F720919A0130919B01EC
:10115000822B932B90939B0180939A0185E0809F33
:10116000F001819FF00D1124ED56FD4F81818150DA
:101170008183811103C0872D0E94AE2987010F5FF3
:101180001E4FD8011E96EC918E2F90E08C30910569
:1011900008F044C1FC01EC59FF4F0C94AA36409171
:1011A0003B0150E0E3E9F2E080E090E0C6C061E09E
:1011B00084E00E94442D882309F436C190E0019711
:1011C00025E0289FF001299FF00D1124ED56FD4FD9
:1011D00084818860848322C12091390180913A0101
:1011E00090E0B8E02B9F800D911D112440E050E06D
:1011F0004097DC01A40FB51F6EEF7FEFFB01EA0FF4
:10120000FB1FEB56FB4FE081EE2339F0F0E0E45A90
:10121000FA4F20812F71205820836F5F7F4F6330FA
:10122000710561F7485F5F4F4832510511F7FCC007
:1012300061E083E00E94442D882309F4F5C090E02A
:10124000019745E0489F9001499F300D1124F90115
:10125000ED56FD4F7F0184818F7B84830E94AC35E6
:1012600022E030E040E050E00E941936672B682B06
:10127000692B41F4D70112968C9112978F5F1296C9
:101280008C93CCC0F70183818F5F8383C7C061E0FB
:1012900084E00E94442D882309F4C6C090E00197A1
:1012A00025E0289FF001299FF00D1124ED56FD4FF8
:1012B00084818F7B848382818F5F8283AFC081E052
:1012C0000E949C05F5E08F9FC0011124FC01ED56A2
:1012D000FD4F8481826284839081292F2F70892F12
:1012E00082958F70903510F440E01CC0E82FF0E03C
:1012F000EE0FFF1FE257FE4F41E050E060E070E06C
:10130000022E04C0440F551F661F771F0A94D2F7A0
:10131000A081B1814A2B5B2B51834083905990313E
:1013200018F341E0622F0E94421F78C00E94860F8E
:1013300075C085E08093440171C0841795070CF057
:1013400073C024812F7B248301963596F6CFEDE57B
:10135000F5E081E09191911101C0482E8F5F8131BC
:10136000C9F741E060913A01809139010E94462C11
:1013700090E0009709F452C00197242D30E02150ED
:10138000310940913901415063E070E00E94963686
:10139000840FF901E35BFA4F808340913A01415099
:1013A000460FF901E35CFA4F4083682F8FEF840DFD
:1013B0000E9466140E94701D31C0EDE5F5E0808149
:1013C000882319F08F71805E8083319605E0ED36B9
:1013D000F007A9F729C0D6EDAD2ED1E0BD2ED0E0A3
:1013E000D12C7501F701808191EE980F9C3410F497
:1013F000805B80832FEFE21AF20A8081882321F03C
:101400006D2D8D2F0E94251FD39438E0D312EACF83
:10141000DF5F88E0A80EB11CD53111F7D8011E9608
:101420008C91843009F45CC141E06C2F86E00E940D
:10143000421F56C18730C9F481E090E0A0E0B0E0DF
:1014400004C0880F991FAA1FBB1FCA95D2F720910D
:101450009C0130919D01822B932B90939D01809351
:101460009C01872D0E94832D3BC1883009F038C133
:1014700081E090E0A0E0B0E00C2E04C0880F991F3E
:10148000AA1FBB1F0A94D2F720919E0130919F01A1
:10149000822B932B90939F0180939E0185E0809FE8
:1014A000F001819FF00D1124ED56FD4F8281181639
:1014B0001CF48150828302C0C09134010E94A12893
:1014C00064E10E94E32CFC0197FF02C0E150FF4F52
:1014D000FF2309F405C160E071E00E94963665E1E2
:1014E00070E00E949636262F482F6F2F8C2F0E9477
:1014F000CA28F6C0C13009F06CC090914401911126
:10150000F6C0809FF001819FF00D1124ED56FD4F34
:10151000848184FF0AC0908120ED290F203108F0DA
:101520004EC09F70943008F44AC086FF0CC0C5E0DE
:10153000C09FF001C19FF00D1124ED56FD4F908129
:1015400090539031D8F00E94A128C82F61E083E029
:101550000E94442D882309F4D3C090E0019725E030
:10156000289FF001299FF00D1124ED56FD4F808139
:101570008F70833009F0C4C064E1C5C08260848389
:1015800061E083E00E94442D882361F090E00197A0
:10159000C89FF001C99FF00D1124ED56FD4F8481C5
:1015A0008F7E848385E0809FF001819FF00D112460
:1015B000ED56FD4F84818061848389E001C08CE019
:1015C0000E94841F0E94911F0E94EB0F0E94760DC3
:1015D00046C2C23009F0EBCB90914401911187C013
:1015E000809FF001819FF00D1124ED56FD4F848105
:1015F000282F207184FD71C0408150E0EFE0F1E0C0
:101600008191873021F02F5F2C30D1F720E0C091FD
:101610003A018091390130E0205A3F4F90E0EC2EA2
:10162000F12C4217530761F5EC0133E0CC0FDD1FBD
:101630003A95E1F7FE01EA52FE4FEE0DFF1D808163
:101640008B50863010F481E049C085E0809FF00126
:10165000819FF00D1124ED56FD4F818181508183D2
:10166000811103C0872D0E94AE29CA52DE4FCE0DD4
:10167000DF1D88816AE00E947C369254988330C0D6
:1016800023E0880F991F2A95E1F783529C4FEC01C4
:10169000CE0DDF1D8881882311F083E01FC00E94DA
:1016A000E00D883211F484E019C091E0980F98831E
:1016B00095E0989FD0011124AB5EBC4F909FF00144
:1016C000919FF00D1124ED56FD4F01900D929A95CA
:1016D000E1F7872D0E94AE2903C08CE00E94841F91
:1016E0000E94760D0E94911F0E94EB0FB8C186E107
:1016F0000E94841FB4C188E00E94841FC2E3D3CB40
:1017000060913D0166958C2F0E94E32C7C0185E061
:10171000809FE001819FD00D1124CD56DD4FFE0149
:10172000A0EAB1E001900D928A95E1F781E0809303
:10173000A101898181508983811103C0872D0E9475
:10174000AE29C701F7FE02C081509F4FC92FD92F84
:10175000DD0FDD0BA92EC70160E071E00E94963617
:1017600065E170E00E949636F62E182FC1110AC06E
:10177000C090A401E090A3010091A20121E040915A
:10178000A001B8C0E091A00180ED8E0F803158F427
:10179000EF70F0E0EE0FFF1FE658FD4FE491C090B0
:1017A000A201CE0E02C0CC24C3940E94AC3524E624
:1017B00030E040E050E00E941936D62E90913F0173
:1017C000990F985DEC2CEE0CEC0CE90E61E083E0D7
:1017D0000E94442D90E0019725E0289FF001299F69
:1017E000F00D1124ED56FD4F80814091A001982FFE
:1017F00094279F7009F483C0453321F48F708330A0
:1018000009F47DC0DE1408F06DC0EE24EA94EA0C01
:101810006FE28E2D0E943B2B0091A00180ED800F86
:10182000803160F4E02FEF70F0E0EE0FFF1FE5581D
:10183000FD4F8491B090A301B80E01C0B12C80EB94
:10184000800F8031B0F561E28E2D0E943B2B902FEE
:101850009F70E92FF0E0EF5FFE4FE0818E2F90E068
:101860008D30910508F0AECEFC01E059FF4F0C948D
:10187000AA36DD27CC55DE4F8881865F18C0DD276C
:10188000CC55DE4F8881869512C0DD27C45ADA4FC9
:1018900088818F71805C0BC0DD27CC57DB4F88813E
:1018A000806205C0DD27CC57DB4F88818068888344
:1018B00089CE90E8900F903160F50E94AC3524E01D
:1018C00030E040E050E00E941936672B682B692B0E
:1018D00001F18091A0012F2D412F6A2D8F700E9460
:1018E000CA2870CEC090A401E090A3010091A2018B
:1018F0002091A1016F2D812F0E94572963CEE4E032
:10190000EE9EC001112463E070E00E949636E62E40
:1019100079CF8091A0018053803108F04AC02C2DEE
:101920000C2C000C330BAB2DBB0CBB0B0E94B03648
:101930009B01AC016C2DCC0C770B880B990B0E9492
:1019400070274B015C0190913D0180914A01890F04
:101950000E94C129880C991CAA1CBB1C282F30E0AE
:10196000C901880F991F092E000CAA0BBB0B880D0B
:10197000991DAA1DBB1D40914901042E000C550B59
:10198000660B770B840F951FA61FB71F20913F0191
:10199000820F911DA11DB11DBC01CD016F5F7F4F55
:1019A0008F4F9F4F22E030E040E050E00E94193618
:1019B0001FC090913D0180914A01890F0E94C12969
:1019C000282F30E021503109220F331F8091490127
:1019D000280F311D87FD3A9580913F01280F311D59
:1019E0002F5F3F4F37FF02C02F5F3F4F3595279541
:1019F000D22E61E083E00E94442D90E0019725E023
:101A0000289FF001299FF00D1124ED56FD4F808194
:101A10002091A001982F92279F7099F0253319F4F7
:101A20008F70833071F0DD27C45ADA4F6881629578
:101A3000669567700F2D212F4D2D8E2D0E94962BB0
:101A4000C1CDFD2D04E0F002C001112463E070E07F
:101A50000E949636D62EE7CF863009F08AC8872DA9
:101A6000DF91CF911F910F91FF90EF90DF90CF907A
:101A7000BF90AF909F908F907F906F905F904F90AE
:101A80003F902F900895CF93DF93C82F0E94AC35DD
:101A900024E630E040E050E00E94193680E09FE00C
:101AA000C99FD0011124AE56BC4F9EE0C99FA00132
:101AB00011244F5F5E4FC62FD0E0FA01E80FF11DF1
:101AC000208130E0FD01E20FF31FE4916E1748F032
:101AD000F9013196EA0FFB1FE491F0E0CE17DF0722
:101AE00014F08F5FEACFDF91CF910895EF92FF92CC
:101AF0000F931F93CF93DF9300D000D01F92CDB7E9
:101B0000DEB723E932E0F90110E08FEF9081911107
:101B100002C080831F5F359693E0E531F907B1F786
:101B200083E992E060E070E06F5F7F4FAC017B0182
:101B3000AAE1EA16F10429F405966A317105A1F7C4
:101B400026C0DC01FC91DA011596EC91EF17C8F480
:101B500005E0FC01DE01119601900D920A95E1F776
:101B600005E0FA013596DC0101900D920A95E1F746
:101B700005E0FE013196DA01159601900D920A9565
:101B8000E1F7BFEFEB1AFB0A4B5F5F4FD1CFF901D3
:101B900080818F3F09F410822B5F3F4FF3E02531A6
:101BA0003F07A9F784E1811B0F900F900F900F90D2
:101BB0000F90DF91CF911F910F91FF90EF900895BB
:101BC000E5E1F3E080E09081992321F08F5F359685
:101BD0008832C9F70895CF92DF92EF92FF920F9368
:101BE0001F93CF93DF93D62F082F10E0F801E6570D
:101BF000FD4FC080F801EA57FD4F6081062E000CB2
:101C0000770B6C197109C7FC73956F5F7F4F072EB7
:101C1000000C880B990B0E9456270C2C000CDD0839
:101C2000EE08FF08C60ED71EE81EF91EF801EE5793
:101C3000FD4FC081F801E258FD4F8081682F880F69
:101C4000770BCB018C1B9109C7FD9395BC016F5F8E
:101C50007F4F072E000C880B990B0E9456270C2FE4
:101C6000CC0F110B220B330BDC01CB01800F911F2A
:101C7000A21FB31F960143E0220F331F4A95E1F7DD
:101C80002A523E4FF901E80FF91FD083DF91CF911F
:101C90001F910F91FF90EF90DF90CF9008952F92BA
:101CA0003F924F925F926F927F928F929F92AF92EC
:101CB000BF92CF92DF92EF92FF920F931F93CF9339
:101CC000DF9300D000D000D0CDB7DEB78D8390E099
:101CD0009C0126573D4F3A832983D9010C91002E50
:101CE000000C110B01501109FC01EA57FD4F5F0177
:101CF0009C012E573D4F1901DC01A258BD4FBC83FA
:101D0000AB83BD81B753BE83E2E04E2E512C612CD4
:101D1000712CF8EC9F2EA5E18A2EDD808D0CD5016B
:101D20008C91082E000C990B0196801791070CF4EA
:101D300046C0F1018081780173E0EE0CFF1C7A95BA
:101D4000E1F79701280F311D87FD3A95D901AB5274
:101D5000BE4F6D018C91883069F40E94AC35A301AF
:101D600092010E941936882D969E800D1124F6014D
:101D7000808302C0EE81EC93AB81BC818C91F70132
:101D8000E80FF11D87FDFA959F0129523E4F790119
:101D9000D9018C91883069F40E94AC35A30192017D
:101DA0000E941936882D969E800D1124F70180839C
:101DB00003C0DE80D901DC920F5F1F4FB0CFD1018D
:101DC0000C91002E000C110BBD81BD52BE8342E070
:101DD000442E512C612C712C52EDD52E65E1C62E6E
:101DE000ED81CE0EAB81BC812C91822F022E000C96
:101DF000990B801791070CF440C0E981FA8180812A
:101E0000980148E08402200D311D1124D901A2530C
:101E1000BE4F7D018C91883069F40E94AC35A301DE
:101E200092010E9419368C2DD69E800D1124F70147
:101E3000808302C0EE81EC93D5018C91F80128E0FB
:101E40008202E00DF11D1124DF01A252BE4F7D017F
:101E50008C91883069F40E94AC35A30192010E94F4
:101E600019368C2DD69E800D1124F701808302C077
:101E7000EE81EC930F5F1F4FB5CFFD81FF5FFB83BA
:101E8000D501EC91D101BC91BD83A981BA818C911E
:101E900090E08C0133E0000F111F3A95E1F760E00C
:101EA00070E0F0E030E0E817F907BCF0BD814B2F9F
:101EB00050E07801E60EF71E2417350754F0DA01DA
:101EC000AE0DBF1DAA52BE4FDB80DC924F5F5F4F4D
:101ED000F3CF0196685F7F4FE6CF26960FB6F89452
:101EE000DEBF0FBECDBFDF91CF911F910F91FF904D
:101EF000EF90DF90CF90BF90AF909F908F907F90AA
:101F00006F905F904F903F902F9008951F93CF93C5
:101F1000DF938091D50181110CC00E94AC3522E085
:101F200030E040E050E00E941936EB01CC0FDD1F9D
:101F300002C0C0E0D0E0FE01EF52FE4F808181116F
:101F400001C02196FE01E657FD4F1081FE01EA57C0
:101F5000FD4F6081062E000C770B611B710917FD88
:101F600073956F5F7F4F072E000C880B990B0E94B3
:101F70005627610F60933901FE01EE57FD4F108126
:101F8000C258DD4F6881062E000C770B611B71096A
:101F900017FD73956F5F7F4F072E000C880B990B11
:101FA0000E945627610F60933A01E091390188E061
:101FB000E89FF0011124EB56FB4FE60FF11DA081C5
:101FC000AA2329F0B0E0A45ABA4F1C921082DF91E4
:101FD000CF911F910895CF92DF92EF92FF9280915F
:101FE0005B0190915C01A0915D01B0915E01019651
:101FF000A11DB11D80935B0190935C01A0935D01D5
:10200000B0935E0140915701509158016091590180
:1020100070915A018091630190916401A0916501D2
:10202000B0916601481759076A077B070CF456C040
:1020300080913F01853108F051C086E00E94841FE5
:1020400080913F018F5F80933F0180916301909168
:102050006401A0916501B0916601880F991FAA1FC4
:10206000BB1F8093630190936401A0936501B093BB
:1020700066010E94AC3528E030E040E050E00E946C
:10208000193683E0860F90E0A0E0B0E040914F0168
:10209000509150016091510170915201480F591FA8
:1020A0006A1F7B1F40934F01509350016093510171
:1020B0007093520140915301509154016091550128
:1020C00070915601840F951FA61FB71F809353016F
:1020D00090935401A0935501B0935601C0904F01C5
:1020E000D0905001E0905101F09052018091530145
:1020F00090915401A0915501B0915601C816D9068E
:10210000EA06FB069CF520913F0186E190E0821BE8
:10211000910963E070E00E9496369B012F5F3F4F6C
:10212000032E000C440B550B60915B0170915C0118
:1021300080915D0190915E010E941936672B682B9A
:10214000692BA1F482E00E94592D9FEFC91AD90A88
:10215000E90AF90AC80ED11CE11CF11CC0924F011A
:10216000D0925001E0925101F092520180914001D1
:10217000882319F081508093400180914101882388
:1021800019F081508093410180914201882319F018
:1021900081508093420180914301882319F081503E
:1021A0008093430180914401882319F081508093EA
:1021B000440180914701882319F0815080934701A1
:1021C00081E00E94592D882369F00E94AC352CE0F3
:1021D00030E040E050E00E941936672B682B692BF5
:1021E00009F48DC083E00E94592DC0905F01D0900A
:1021F0006001E0906101F090620191E0C91AD1089C
:10220000E108F108C80ED11CE11CF11CC0925F016D
:10221000D0926001E0926101F092620161E087E09A
:102220000E94442D882321F080915B0180FF6AC0C9
:1022300062E087E00E94442D8823A1F060915B0159
:1022400070915C0180915D0190915E0122E030E02F
:1022500040E050E00E94193661307105810591051A
:1022600009F45EC080915F0190916001A0916101CD
:10227000B0916201CC97A105B105DCF060915301EA
:1022800070915401809155019091560124E030E005
:1022900040E050E00E94193680914F01909150012A
:1022A000A0915101B0915201281739074A075B07E5
:1022B0001CF08EE10E94841F80915F01909160016B
:1022C000A0916101B0916201181619061A061B0649
:1022D0002CF01092D00182E08093CF01E12CF12C00
:1022E0008AE00E94592D90E0880F991FE816F906A0
:1022F0005CF50E94C7248FEFE81AF80AF1CF0E941C
:10230000860F70CF91E0C91AD108E108F108C09298
:102310005F01D0926001E0926101F092620188CF8A
:1023200080915F0190916001A0916101B091620183
:102330000197A109B10980935F0190936001A09377
:102340006101B09362018ECFFF90EF90DF90CF904C
:10235000089525E0829FC0011124FC01EB5EFC4F33
:102360001082118212821382148208954F925F921A
:102370006F927F928F929F92AF92BF92CF92DF9295
:10238000EF92FF920F931F93CF93DF938DEDA82EC3
:1023900083E0B82EC0E0D0E095E0892E28E0422E00
:1023A000512C612C712CCC2EC694C694C69488E016
:1023B000C89E60011124750100E010E0EC2FE77069
:1023C0009E2EF801EC0DFD1DE954FE4F808190E03A
:1023D000092C02C0959587950A94E2F780FF1AC0F0
:1023E000F70180818823B1F0B801CE010E94611D00
:1023F000809142018823C9F10E94AC35A30192016A
:102400000E9419366F5FE62FF0E0E857FC4F849189
:102410000E94F6260F5F1F4FFFEFEF1AFF0A0830EA
:10242000110579F6219688E0A80EB11CC531D105B9
:1024300009F0B9CF60913A0170E08091390190E0E4
:102440000E94611D80E4DF91CF911F910F91FF9059
:10245000EF90DF90CF90BF90AF909F908F907F9044
:102460006F905F904F900C94F626F701808190E07A
:102470000197889E9001899E300D1124F901EB5E31
:10248000FC4FE0816E2F62956F70BDCFCF92DF92CF
:10249000EF92FF920F931F93CF93DF93C42F28E007
:1024A000829FC00111248C0103521C4F060F111D85
:1024B000F80180818111E8C10E94E00D91E0980F40
:1024C000F8019083082F10E025E0829FF00111248D
:1024D000EB5EFC4F81E08183128213821482C11172
:1024E0001DC00E94AC3524E630E040E050E00E9480
:1024F000193640E0262F30E0842F90E0FC01E058B0
:10250000FC4FE4914F5F6E17B8F3FC01EF57FC4F9F
:10251000E491F0E02E173F077CF7C42F4C2F50E0DA
:10252000FA013197E830F10508F0AEC1E358FF4FEA
:102530000C94AA3685E0809FE001819FD00D112484
:10254000CB5EDC4F80E188830E94AC3524E630E02E
:1025500040E050E00E94193680913C01680F698389
:1025600093C10E94AC3525E030E040E050E00E948D
:102570001936672B682B692B51F485E0809FF00199
:10258000819FF00D1124EB5EFC4F81E209C085E0D4
:10259000809FF001819FF00D1124EB5EFC4F80E2E3
:1025A00080830E94AC3525E0209FE001219FD00D63
:1025B0001124CB5EDC4F22E030E040E050E00E948E
:1025C00019366F5F69838C8180683EC10E94AC358B
:1025D00028E030E040E050E00E94193685E0809F1E
:1025E000E001819FD00D1124CB5EDC4F80E3860F8C
:1025F0008883643018F481E089830DC00E94AC3573
:102600002DE030E040E050E00E9419366D5F6983B4
:102610008C8180688C830E94AC3526E030E040E0FD
:1026200050E00E941936611120C00E94AC3523E0B1
:1026300030E040E050E00E941936C1E0C60F6C2F38
:1026400070E06F5F7F4F072E000C880B990B0E9484
:10265000562785E0809FF001819FF00D1124EB5EED
:10266000FC4F6283C61BC3830FC1613009F00CC1EC
:102670000E94AC3523E030E040E050E00E94193683
:10268000C1E0C60F6C2F70E06F5F7F4F072E000C0C
:10269000880B990B0E94562785E0809FF001819F4F
:1026A000F00D1124EB5EFC4F862F819582836C1B0D
:1026B00063838481806445C00E94AC3527E030E0AC
:1026C00040E050E00E941936F62E85E0809FE00140
:1026D000819FD00D1124CB5EDC4F605C688381E06C
:1026E00089830E94AC3526E030E040E050E00E9453
:1026F000193661110BC00E94AC3523E030E040E098
:1027000050E00E9419366F5F6A830FC0613069F430
:102710000E94AC3523E030E040E050E00E941936E2
:1027200060956A838C8180648C83F110ADC085E0F4
:10273000809FF001819FF00D1124EB5EFC4F84819E
:1027400088608483A1C080E00E94430D95E0909F43
:10275000F001919FF00D1124EB5EFC4F805B0CC0EB
:1027600081E00E94430D95E0909FF001919FF00D54
:102770001124EB5EFC4F805A808381E08183848149
:102780008068DFCF0E94AC352BE030E040E050E0C5
:102790000E94193685E0809FE001819FD00D1124B1
:1027A000CB5EDC4F80E7860F888381E08983E62F4C
:1027B000F0E0EF5FFE4F848D843051F020F48130E3
:1027C00009F440C061C0863019F0873079F15CC0EF
:1027D0000E94AC3522E0C22ED12CE12CF12CA701B5
:1027E00096010E941936611110C00E94AC3525E097
:1027F000209FE001219FD00D1124CB5EDC4FA7016B
:1028000096010E9419366F5F3EC00E94AC3525E0EC
:10281000209FE001219FD00D1124CB5EDC4FA7014A
:1028200096010E94193660956A830CC00E94AC35EF
:1028300022E030E040E050E00E941936672B682B20
:10284000692B11F58C8180648C831EC00E94AC358D
:1028500025E0209FE001219FD00D1124CB5EDC4FAD
:102860002AE030E040E050E00E941936605868836A
:1028700081E089830E94AC3524E030E040E050E004
:102880000E9419366D5F6A83DF91CF911F910F917E
:10289000FF90EF90DF90CF90089580913A018430BF
:1028A00038F081E080937605809375058FEF06C040
:1028B00081E0809376058093750587E380937705A3
:1028C0008091B5019091B6010C94FB26BF92CF92F6
:1028D000DF92EF92FF920F931F93CF93DF93182F06
:1028E000F62EE42E60913C0123E0260F66506631FF
:1028F0000CF065E167FD60E02C310CF02AE1022E5E
:10290000000C330B440B550B062E000C770B880B79
:10291000990B0E947027B62E27E0629FC0011124F8
:10292000FC01E653FD4F6F01EF012696FE018491F5
:102930008F70833069F028F48130B1F0823019F162
:1029400025C0853099F008F1863001F503E01EC0FE
:102950000E94AC3522E030E040E050E00E941936A1
:10296000672B682B692B79F001E010C00E94AC3511
:1029700022E030E040E050E00E941936672B682BDF
:10298000692B19F0F1CF02E001C004E0812F90E043
:10299000FC01E35AFA4F20E2029FB00C1124B082EE
:1029A000F601C490FC01EB55FE4FC082FE01C491BC
:1029B000FC01EB57FB4FC07FC860C08328E0F29E4C
:1029C000F0011124EB56FB4FEE0DF11D1F5F10833C
:1029D000DF91CF911F910F91FF90EF90DF90CF90FB
:1029E000BF900895CF9380918005809381050E94C8
:1029F00040288093800580E20E94E426C82F80E86A
:102A00000E94E4268111C2E080E40E94E426811144
:102A1000C3E080E10E94E4268111C4E088E00E94C6
:102A2000E4268111C5E084E00E94E426811103C000
:102A3000CC23C9F201C0C6E08DE10E94841F8C2F17
:102A4000CF910895262F40914F01509150016091F0
:102A500051017091520190E0A0E0B0E08417950719
:102A6000A607B70734F02093D00182E08093CF010E
:102A70000895481B590B6A0B7B0B40934F015093F1
:102A80005001609351017093520108952F923F922B
:102A90004F925F926F927F928F929F92AF92BF926E
:102AA000CF92DF92EF92FF920F931F93CF93DF931A
:102AB000CDB7DEB7A6970FB6F894DEBF0FBECDBF79
:102AC00088EAE6EDF1E0DF011D928A95E9F71D8ABB
:102AD0001E8A1F8A188E198A1A8A1B8A1C8A1D86CA
:102AE0001E861F86188A19861A861B861C8688E011
:102AF000EFE6F1E0DE01119601900D928A95E1F783
:102B00001092D1011092D2011092D3011092D401EF
:102B100080913C01853068F00E94AC3524E130E0C2
:102B200040E050E00E941936672B682B692B09F4AE
:102B30006CC41092D5010E94AC3527E030E040E033
:102B400050E00E9419368B01095F1F4F0E94AC357F
:102B500022E030E040E050E00E9419366D5F7F4F88
:102B60008FEF800F8D8769876230710519F091E0D2
:102B70009093D10191E0960F9A8B8E8787E08A8798
:102B80006430710519F081E08093D20163307105E2
:102B900031F41A821982EE24E394F12C02C0E12C64
:102BA000F12C0E94AC3522E030E040E050E00E9481
:102BB00019366D5F7F4F81E0800F8F8B94E19F8787
:102BC0006B876230710519F091E09093D301888F83
:102BD00081E0860F8C8B84E1888B87E08C87643062
:102BE000710519F081E08093D4016330710529F4F7
:102BF00018861F82B2E0EB0EF11CE1EDF1E0FEA3BE
:102C0000EDA33E01F5E16F0E711C2AE832E03A8F28
:102C1000298F5E0131E1A30EB11C82E892E09E8F04
:102C20008D8FDE011D96B8A3AF8FE6E8F2E0FAA320
:102C3000E9A34E01F9E08F0E911C2EE732E03CA390
:102C40002BA381ED91E09C8F8B8F73E0272E312C8D
:102C5000412C512CAB8DBC8D8D91BC8FAB8F8130B5
:102C600039F5F301D0800E94AC35A20191010E9498
:102C70001936D3946D0DA98DBA8D6C93F5018081B1
:102C80008F5FAD8DBE8D8C93EF8DF8A1D0800E94AB
:102C9000AC35DA94A20191010E941936D61AA9A185
:102CA000BAA1DC92F40180818150ABA1BCA18C93CC
:102CB000BFEF6B1A7B0AE98DFA8D3196FA8FE98F97
:102CC000FFEFAF1ABF0A2D8D3E8D2F5F3F4F3E8F16
:102CD0002D8F8F8D98A1019698A38F8FA9A1BAA14E
:102CE0001196BAA3A9A3BFEF8B1A9B0AEBA1FCA173
:102CF0003196FCA3EBA32B8D3C8D255D314009F073
:102D0000A9CFE114F10469F40E94AC3522E030E06F
:102D100040E050E00E941936672B682B692B09F4BC
:102D200087C384E190E0801B910B95958795800F78
:102D3000CC24C394C80EA80155954795242FFA01B9
:102D400063E0EE0FFF1F6A95E1F7EA52FE4FDF01E5
:102D5000BA01D12C98E0C616D706B4F011969C9310
:102D6000119712969C93129713969C93139714960F
:102D70009C93149715969C93159716969C9316976B
:102D80006F5F7F4F1896E7CF69817A81672BB9F41F
:102D9000DF01BA01A82EB12CA616B70684F0129650
:102DA0001C92129713961C92139714961C921497C8
:102DB00015961C9215976F5F7F4F1896EDCF6B811C
:102DC0007C81672B19F561E0620F70E0DB0193E015
:102DD000AA0FBB1F9A95E1F7AA52BE4FA82EB12C9D
:102DE000A616B7069CF011961C92119712961C928B
:102DF000129713961C92139714961C92149715967B
:102E00001C9215976F5F7F4F1896EACF6D817E8178
:102E1000672B79F46FEF680F70E0641775074CF05B
:102E2000128213821482158216824F5F5F4F38968A
:102E3000F4CF4F8158852F5F452BA9F4422F50E0E6
:102E4000FA0173E0EE0FFF1F7A95E1F7EA52FE4FA9
:102E5000C416D50644F012821382148215824F5F85
:102E60005F4F3896F5CF30E0F90163E0EE0FFF1FBA
:102E70006A95E1F7EA52FE4F90E08217930744F01B
:102E800012821382148215822F5F3F4F3896F5CF3E
:102E9000D12CADA1BEA18D91BEA3ADA3813019F4FB
:102EA0008D2D0E944F0ED394B4E0DB12F2CFE3E0FD
:102EB000EE16F10461F036EDE32E31E0F32E45E03D
:102EC000442E512C612C712C54EEB52E10C023E0F1
:102ED000000F111F2A95E1F7F801EA52FE4F88E032
:102EE000818382838383848385838683E4CF870180
:102EF000C12CD12CD8018C91883059F40E94AC356A
:102F0000A30192010E941936672B682B692B09F4E3
:102F10009FC2BFEFCB1ADB0A0F5F1F4FE8E0CE1650
:102F2000D10441F7F8E0EF0EF11C2EE7E21622E0A3
:102F3000F206E9F60FE812E095E0C92ED12CE12C5B
:102F4000F12CBB24B3940E94AC35A70196010E94DA
:102F50001936672B682B692B19F4D801BC9202C073
:102F6000F80110820F5F1F4FF2E003391F0759F776
:102F70008091D501811129C011EDE12E11E0F12ED2
:102F80001FE103E0402E512C612C712C86E0882E2D
:102F9000912CA12CB12CD7018D917D01813059F458
:102FA0000E94AC35A30192010E941936672B682B51
:102FB000692B09F450C21F5F133269F78091D50164
:102FC0008823E9F080E090E025C005E010E0B6E05D
:102FD000CB2ED12CE12CF12C0E94AC35A70196010F
:102FE0000E941936660F862F880F880F680F615E62
:102FF00080E00E94EB0D0150110971F7DFCF0E94B4
:10300000AC3522E030E040E050E00E941936CB01C0
:10301000880F991FFC01EF52FE4F2081211101C042
:1030200001966BE0680F0E94EB0D0E94EB1E0E9460
:10303000860F6DE5E62E65E0F62E7DE4272E75E021
:10304000372EEDE3F5E0FC8FEB8FC12CD12CE3E0C4
:103050008E2E912CA12CB12CF2E04F2E512C612CF4
:10306000712C8091D501F7E08F9FC0011124089643
:103070008C159D050CF48AC00E94AC35A501940105
:103080000E941936672B682B692B09F06DC080915F
:10309000D50181110AC00E94AC35A30192010E94A2
:1030A00019368B01000F111F02C000E010E0F8017B
:1030B000EF52FE4F8081811102C00F5F1F4FF80158
:1030C000E657FD4F2081298FF801EA57FD4F6081B7
:1030D000062E000C770B621B710927FD73956F5F3D
:1030E0007F4F072E000C880B990B0E945627398DB5
:1030F000630FD1016C93F801EE57FD4FB081B98F8A
:10310000F801E258FD4F6081062E000C770B6B1B17
:103110007109B7FD73956F5F7F4F072E000C880B09
:10312000990B0E945627498D460FEB8DFC8D4083ED
:10313000D1016C9180913901681799F080913A0121
:10314000481779F0B8E06B9FF0011124EB56FB4F64
:10315000E40FF11D8081811104C08C2D0E94661442
:1031600005C0F701108202C0D7011C92BFEFCB1A35
:10317000DB0AEFEFEE1AFE0AFFEF2F1A3F0A2B8D44
:103180003C8D2F5F3F4F3C8F2B8F6BCF81ED91E0BC
:103190009C8F8B8F26E8622E22E0722E3AE8432E17
:1031A00032E0532EAEE7B2E0BE8FAD8F42E8242E60
:1031B00042E0342E81017D01620153019A8F898F93
:1031C000A98DBA8D8D91BA8FA98F8130E9F5812CA7
:1031D000912C8091D501B7E08B9FC00111240296FC
:1031E000881599058CF1F5012081022E000C330B16
:1031F0002F5F3F4F032E000C440B550BD6016C91F3
:10320000062E000C770B880B990B0E9470276F8F8E
:10321000F7012081022E000C330B2F5F3F4F032E4E
:10322000000C440B550BD8016C91062E000C770B4B
:10323000880B990B0E94702740E08F8D0E944612E8
:10324000BFEF8B1A9B0AC5CFEFEFAE1ABE0AFFEF96
:10325000CF1ADF0A2FEFE21AF20A0F5F1F4F85ED38
:1032600091E0A98DBA8D8A179B0709F0A9CF8091AB
:103270003C0163E00E947C369923E9F090913C0187
:1032800080910001981708F04CC0F6C0FFEF6F1A4C
:103290007F0A2FEF421A520A8D8D9E8D01969E8FC6
:1032A0008D8F9FEF291A390AA5EDB1E0EB8DFC8DCA
:1032B000AE17BF0719F3EB8DFC8D8191FC8FEB8F5F
:1032C000813021F7D3012C91022E000C330B2F5F9C
:1032D0003F4F032E000C440B550BF2016081062E6C
:1032E000000C770B880B990B0E947027162FAD8D61
:1032F000BE8D2C91022E000C330B2F5F3F4F032EFF
:10330000000C440B550BF1016081062E000C770B6D
:10331000880B990B0E94702742E0812F0E94461271
:10332000B5CF80913B0190E0019725E0289FF00107
:10333000299FF00D1124ED56FD4F8081803909F44D
:103340009BC08091D50181110AC00E94AC3522E05A
:1033500030E040E050E00E941936660F01C060E0A6
:10336000E62FF0E0EF52FE4F8081811101C06F5FC8
:10337000062F10E0F801E657FD4FF080F801EA57FC
:10338000FD4F6081062E000C770B6F197109F7FC59
:1033900073956F5F7F4F072E000C880B990B0E946F
:1033A0005627F60EF801EE57FD4FE080F801E2587F
:1033B000FD4F6081062E000C770B6E197109E7FC3A
:1033C00073956F5F7F4F072E000C880B990B0E943F
:1033D0005627E60E0E94E00D28E0F29EF00111242F
:1033E000E352FC4FEE0DF11D91E0980F908335E014
:1033F000839FF0011124EB5EFC4F80E9808381E024
:10340000818312821382148237C081E08093D501B8
:103410008093D10180938A028093820283E180931A
:10342000860286E080937E0280E00E944F0EA0CD4F
:103430000E94AC3524E030E040E050E00E941936B4
:10344000660F771FFE01E60FF71F1282118269CC0B
:10345000D801BC925ECD0E94AC35A50194010E94BA
:103460001936E12FBAE06B9FE00D11246E2F81EE2B
:10347000810F0E94EB0D9FCDA6960FB6F894DEBF8C
:103480000FBECDBFDF91CF911F910F91FF90EF90B5
:10349000DF90CF90BF90AF909F908F907F906F9074
:1034A0005F904F903F902F9008958F929F92AF9290
:1034B000BF92CF92DF92EF92FF920F931F93CF9321
:1034C000DF9390914001992351F00E94AC3524E0A4
:1034D00030E040E050E00E94193681E0860F909184
:1034E0004401911114C0082F10E0E8012297817067
:1034F0008C9FC02D1124C801019762E070E00E94EA
:10350000963603501109809FE02C112402C0E12C53
:10351000C0E010928E02809139016C2F0C2E000CAD
:10352000770B680F711D00913A012E2D0E2C000CA7
:10353000330B200F311DAB01B3E0440F551FBA957B
:10354000E1F7FA01EB56FB4FE20FF31F1081111167
:10355000ACC12830310508F043C26531710508F06F
:103560003FC24A525E4FFA01E20FF31F9081915021
:10357000983C08F035C290914801911106C0C80FDF
:10358000C09339010E0D00933A018DE10E94841F12
:1035900080914701811124C280913901C0913A0183
:1035A0000C2F10E098E0899FE0011124FE01E35206
:1035B000FC4FE00FF11F8081811104C08DE10E945A
:1035C000841FDAC090E0019725E0289FF001299F31
:1035D000F00D1124EB5EFC4F6081862F82958F7079
:1035E0006F70893028F4853030F48130B8F015C020
:1035F000893099F013C0E82FF0E0EE0FFF1FE2577B
:10360000FE4F20813181062E02C0369527950A94FF
:10361000E2F7A22FA170FA2E01C0F12C4F2D0E94CB
:10362000421FCE0183529C4F6C01C00ED11EF60189
:103630008081282F30E02150310995E0929FF001E0
:10364000939FF00D1124EB5EFC4F90819031D9F4E3
:10365000918140914B0150914C0160914D017091CD
:103660004E01490F511D611D711D40934B01509337
:103670004C0160934D0170934E0181500E94A9113D
:10368000D6011C9279C0848187FD2BC0A0913B019B
:10369000AA3109F471C0C352DC4FC00FD11F888119
:1036A00095E09A9FD0011124AD56BD4F282F30E0F0
:1036B00021503109929FF001939FF00D1124EB5E90
:1036C000FC4F01900D929A95E1F781500E94A9114B
:1036D000188280913B018F5F80933B010E94760DA1
:1036E0004BC063E9E62E62E0F62EA12CB12C40E03F
:1036F00075E0972E80913B0190E0A816B906CCF5B5
:10370000F6018081282F30E021503109929EF0018E
:10371000939EF00D1124EB5EFC4FD7012C9190810C
:10372000291320C012962C911297928129131AC046
:1037300013962C9113979381291314C014969C917E
:1037400014972481292726FD0DC011962C911197DD
:103750009181920F11969C9381500E94A911F601BC
:10376000108241E0FFEFAF1ABF0A85E0E80EF11CBE
:10377000C1CF442309F48ACF2091390180913A01C5
:1037800090E0A8E02A9F90011124F901EA52FE4F2F
:10379000E80FF91F408151EE540F5C3410F4405B88
:1037A00040832A523E4FF901E80FF91F808191E9C9
:1037B000980F9C3408F014C16AE00E947C36D82F20
:1037C0000E94AC3522E030E040E050E00E94193623
:1037D000672B682B692B09F063C08EE50E94732B61
:1037E000C5EFCD0FC23011F198F4CC23B9F0C13040
:1037F00009F056C00E94AC3523E030E040E050E0D4
:103800000E941936862F62E08F5F0E94221548C001
:10381000C430B9F098F0C530F9F042C080913C0155
:103820008F5F80933C010E9446153AC0809144010D
:10383000811136C085E08093440132C00E94860F1A
:103840002FC0C0913D01C43058F185E00E94592D30
:10385000882309F4DFC024C061E084E00E94442D85
:103860008823F1F0082F10E001501109C09FF001EA
:10387000C19FF00D1124ED56FD4F848183FD10C0D2
:1038800089E00E94592D81110BC085E0809FF001D5
:10389000819FF00D1124ED56FD4F8281815082836E
:1038A0008CE08D0F0E94841F9BC0E12FF0E0E45A52
:1038B000FA4FD0818DE10E94841F0E94AC3524E62E
:1038C00030E040E050E00E941936D62E61E083E0FF
:1038D0000E94442D882309F190E0019725E0289F5C
:1038E000D001299FB00D1124AD56BD4F2C912F70E2
:1038F00030E0F901EE0FFF1FE658FD4FE4911296FC
:10390000FC901297FE0EF901EE0FFF1FE458FD4FD9
:10391000E49113960C910E0F02C000E0F12C8091FF
:103920003F01880F885D9F2D990F9F0D890FD81635
:1039300008F056C0115060E2812F0E943B2BF09E90
:10394000F00111249F01FF0F440B550B6F2D70E008
:1039500080E090E00E9470274B015C0190913D0156
:1039600080914A01890F0E94C129282F00913A01B4
:103970000E0D80913901C80F880C991CAA1CBB1C24
:1039800030E0C901880F991F092E000CAA0BBB0B50
:10399000880D991DAA1DBB1D40914901042E000CE4
:1039A000550B660B770B840F951FA61FB71F209131
:1039B0003F01820F911DA11DB11DBC01CD016F5FA3
:1039C0007F4F8F4F9F4F22E030E040E050E00E9459
:1039D0001936422F6D2F6F712C2F812F0E94962B3D
:1039E0000E94ED290E94EB0F80914301882321F072
:1039F00080915B0180FD12C0DF91CF911F910F91EB
:103A0000FF90EF90DF90CF90BF90AF909F908F90FE
:103A10000C94911FC150C0933D0142CFDF91CF91D3
:103A20001F910F91FF90EF90DF90CF90BF90AF90DC
:103A30009F908F900895CF93DF93C82FD0E0FE0121
:103A4000EB57FB4F808186FF09C088E00E94592D0B
:103A5000811104C080914601813081F5809142013D
:103A6000C35ADA4F8823D1F088818056803260F4BF
:103A70000E94AC3529E030E040E050E00E94193669
:103A8000FB01E757FC4F15C00E94AC352AE130E03E
:103A900040E050E00E941936FB0109C0E88180EA4D
:103AA0008E0F803210F48AE205C0EF71F0E0EE5420
:103AB000F74F8491DF91CF910C94F626DF91CF914F
:103AC0000895982F990F890F880F8F5FE1E7F5E030
:103AD00085838483660F660F660F61506683089541
:103AE000CF92DF92EF92FF920F931F93CF93DF93CA
:103AF0009DE5E92E95E0F92E0DE315E0CDE4D5E046
:103B0000D12C2AE0C22EF70181917F01803208F486
:103B10005EC080914501811150C0E09139018091D2
:103B20003A0198E0E99FF0011124EA52FE4FE80FB4
:103B3000F11D2081822F6C2D0E947C36A92FE92F48
:103B4000F0E0E257FD4F808181111DC02830D9F08F
:103B5000288130E0F801408150E0F90183E0EE0F68
:103B6000FF1F8A95E1F7EA52FE4FE40FF51F8081AF
:103B70000E947C36A91307C0BA01C9010E94611DC9
:103B80008D2D0E941B1D888190E02091390130E02D
:103B9000281B390B2F5F3F4F23303105C0F4F8014C
:103BA000608170E020913A0130E0261B370B2F5FD7
:103BB0003F4F2330310558F405C0F801608170E0B3
:103BC000888190E00E94611D8D2D0E941B1D0F5F5A
:103BD0001F4F2196D394F0E1DF1295CFDF91CF9163
:103BE0001F910F91FF90EF90DF90CF9008950F936A
:103BF0001F93CF93DF9380914101882379F06091E7
:103C00003A0170E08091390190E00E94611D80E4EA
:103C1000DF91CF911F910F910C94F626C0E0D0E078
:103C200000E010E0809139019E01280F311DC9018B
:103C3000019720913A01B801620F711D615071091D
:103C4000FC0123E0EE0FFF1F2A95E1F7EA52FE4F39
:103C5000E60FF71F20813FEF320F363018F02F515B
:103C60002C3428F40E94611D8EE20E94F6260F5F1C
:103C70001F4F03301105B1F62196C330D10581F6EF
:103C8000BECFAF92BF92CF92DF92EF92FF920F938F
:103C90001F93CF93DF9306ED11E0C0E0D0E08AE000
:103CA000B82EEC2EE694E694E69488E0E89E700147
:103CB0001124C12CD12C9C2F9770A92EB601CE01B6
:103CC0000E94611DF601EE0DFF1DE954FE4F80813B
:103CD00090E00A2C02C0959587950A94E2F780FF40
:103CE0004FC0F801EC0DFD1D2081222309F448C0CE
:103CF0008FEF820F863020F081EE820F8C34F8F443
:103D0000E091390180913A0198E0E99FF001112496
:103D1000EA52FE4FE80FF11D80816B2D0E947C3628
:103D2000392FE92FF0E0E257FD4F8081811107C064
:103D3000822F0E947C36391323C08EE230C0283097
:103D400009F185EF820F8630F8F08BEE820F863016
:103D5000E8F081E9820F8C34D8F081E4820F88305A
:103D6000C8F087E3820F8630B8F08DE2820F86308C
:103D7000A8F083E2820F863078F0275E263070F05C
:103D800080E20DC083E20BC085E209C08BE207C070
:103D90008FE505C08FE303C086E201C08CE70E9477
:103DA000F6268FEFC81AD80A98E0C916D10409F090
:103DB00085CF2196085F1F4FC531D10509F071CF1E
:103DC000DF91CF911F910F91FF90EF90DF90CF90F7
:103DD000BF90AF900895CF93DF9388EAE5E9F4E0D0
:103DE000DF01482F1D924A95E9F7EDEDF3E0DF0181
:103DF0001D928A95E9F788E1E7EBF1E0DF011D927A
:103E00008A95E9F788ECE5E1F3E0DF011D928A95F8
:103E1000E9F7EDE4F5E02DE335E08DE595E0C5EA61
:103E2000D1E065E874E01192D9011D929D01DC0199
:103E30001D92CD011992DB011D92BD01B5E0ED355A
:103E4000FB0789F7DF91CF910895E82FE695E69576
:103E5000E69598E0E99FF0011124E954FE4FE60F42
:103E6000F11D282F277081E090E0A0E0B0E004C0B1
:103E7000880F991FAA1FBB1F2A95D2F72081822B7A
:103E800080830895CF93DF93CDB7DEB72D970FB61C
:103E9000F894DEBF0FBECDBF9DE0E7E7F1E0DE01A5
:103EA000119601900D929A95E1F790E070E0FE0175
:103EB000E80FF91F411105C08081FB01E80FF11DDA
:103EC00010C0258105973EE0389FF001399FF00D25
:103ED0001124EF5FFE4FE60FF71FE081F0E0E20FE5
:103EE000F11DEE0FFF1FE053F84F25913491209301
:103EF000B5013093B6012D960FB6F894DEBF0FBE14
:103F0000CDBFDF91CF910895E82FF0E0EE0FFF1FB6
:103F1000EE56F84F859194919093B6018093B50138
:103F200008952F923F924F925F926F927F928F925D
:103F30009F92AF92BF92CF92DF92EF92FF920F9338
:103F40001F93CF93DF93CDB7DEB72B970FB6F894BF
:103F5000DEBF0FBECDBF0DE515E02DE435E03A83A1
:103F600029839DE3492E95E0592E25E8622E24E011
:103F7000722E1B8235E0832E912CA12CB12CD801FE
:103F80008C9181118EC00E94AC3520E830E040E079
:103F900050E00E941936672B682B692B09F049C342
:103FA000E091390180913A01B8E0EB9FF0011124D2
:103FB000EA52FE4FE80FF11D80819091D5019111D9
:103FC0001DC090E001976AE070E00E9496369C0167
:103FD00062E070E00E949636281B390B37FF02C062
:103FE0002F5F3F4F35952795C901019662E070E03C
:103FF0000E9496366C01CC0CDD1C02C0C12CD12C69
:10400000F601EF52FE4F8081811103C0EFEFCE1A0F
:10401000DE0AF601E657FD4FE080F601EA57FD4F54
:104020006081062E000C770B6E197109E7FC739501
:104030006F5F7F4F072E000C880B990B0E9456274D
:10404000E60EA981BA81EC92F601EE57FD4FE080B1
:10405000F601E258FD4F6081062E000C770B6E19B9
:104060007109E7FC73956F5F7F4F072E000C880B7B
:10407000990B0E9456274E2D460FF2014083A981CD
:10408000BA816C91B8E06B9FF0011124EB56FB4FA5
:10409000E40FF11D80818111CCC28B810E946614D6
:1040A000C8C2F3019081892F881F8827881F8F5FDE
:1040B00092FF04C090915B0190FDBBC2212C312C7A
:1040C000282F30E03F832E834E815F8124163506F2
:1040D0000CF0AFC2D8018C9190EC980F903A08F494
:1040E00081C08F718531D1F5E091390180913A011C
:1040F000B8E0EB9FF0011124EA52FE4FE80FF11DEA
:104100002081283009F4C2C2A981BA81EC91D20180
:104110008C91B8E0EB9FF0011124EA52FE4FE80FBA
:10412000F11D8081AAE0EA2E6E2D0E947C36392F87
:10413000822F0E947C363913A9C2F301808183FF4C
:10414000A5C280E20E94732B82E10E94841FE0924C
:104150004001D3018C91877F8C9348C0893109F04D
:1041600095C2EE24E394D12C65E08E2D0E94E32CC1
:1041700097FF02C081509F4F892F990F990BFC0127
:10418000E45AFA4F80818F71893109F4D394E39412
:10419000B5E0EB12E9CFDD2009F478C20E94AC351E
:1041A00022E030E040E050E00E941936672B682B97
:1041B000692B09F06BC28AE20E94732B83E10E9493
:1041C000841F80913F0166E170E0681B7109072E32
:1041D000000C880B990B0E945627862F63E00E94E3
:1041E000221504C045E050E059874887D3018C91DF
:1041F00085FF0DC00E94AC3523E030E040E050E088
:104200000E941936672B682B692B09F4F9C228859F
:104210003985215031092430310508F006C248851E
:10422000598541705527888599850297849FF02C80
:10423000112421703327888599850397289F902D15
:104240001124E981FA818081682F70E09B012F0D94
:10425000311DF7FC3A95E0913901F0E02E173F0748
:1042600009F095C1D2015C91A92F092E000CBB0B5E
:10427000A50FB11DE0913A01F0E0AE17BF0709F0BC
:1042800086C12114310409F0D0C1D801EC91EF713D
:10429000EE2EB7E0EB9FF00111249F0126533D4F16
:1042A0006901F9013396949180913F01880F981B21
:1042B00080914901880F981B9C830E94AC3524E6AD
:1042C00030E040E050E00E9419366D8361E084E008
:1042D0000E94442D8823A9F090E0019725E0289FB3
:1042E000D001299FB00D1124AD56BD4FEC91EF7058
:1042F000F0E0E453F74FE49112968C91FE2EF80E05
:1043000001C0F12C3C814D81431708F08EC1F601AC
:10431000329624913197E49130E040E050E06E2FE6
:1043200070E080E090E00E9470279B01AC016F2D4F
:104330007DEF7603D0011124AC59BF4F0E94433664
:1043400024E630E040E050E00E941936D22E80E2B0
:104350000E94732B64E06E0D8D2DD7FC80E00E94CF
:104360002215D3018C9183FF60C18E2D90E0FC015A
:104370003597E231F10508F058C1EB57FF4F0C9427
:10438000AA360E94AC35A50194010E941936672B0C
:10439000682B692B09F049C18DE00E94841F0E949F
:1043A000AC35A50194010E9419366C5F60934401FD
:1043B0000E94AC3524E130E040E050E00E94193624
:1043C000672B682B692B09F0DEC261E080914F01F9
:1043D0000E942215D8C280913D01843008F425C185
:1043E00085E00E94592D882309F417C21EC18091CF
:1043F0004B0190914C01A0914D01B0914E01C3979A
:10440000A105B1050CF411C10E94AC352AE030E0E1
:1044100040E050E00E941936672B682B692B09F0A9
:1044200010C203C161E084E00E94442D882309F496
:10443000FCC090E0019745E0489F9001499F300DF6
:104440001124F901ED56FD4F6F01848183FF1FC2D6
:10445000ECC00E94AC3522E030E040E050E00E9429
:104460001936672B682B692B09F0DFC00E94AC3529
:1044700024E130E040E050E00E941936E62EB5E03D
:104480006B9FF0011124ED56FD4F848184FDCDC05A
:104490008FE00E94841F8E2D0E94AE29F80180813A
:1044A0008054808370C2809147018111BEC081E138
:1044B0000E94841F81E08093480165C280913F0182
:1044C000863008F4B2C00E94AC35A50194010E9468
:1044D0001936672B682B692B09F4E9C1A6C00E9425
:1044E000AC352AE030E040E050E00E9419366430FC
:1044F0007105810591050CF098C085E10E94841F2B
:104500000E94AC3523E030E040E050E00E941936D4
:10451000E62E60FF2DC080914F0190915001A09137
:104520005101B09152018A309105A105B1050CF4F9
:104530002AC20197A109B10980934F0190935001BC
:10454000A0935101B0935201809153019091540175
:10455000A0915501B09156010197A109B10980932D
:10456000530190935401A0935501B09356010BC28F
:1045700085E00E94592D90913D01882309F4FFC1E7
:10458000963008F0FCC1EE2009F4FDC1C4CFD8017B
:104590005C915F715F3009F448C02531310508F046
:1045A00044C0F201F081FC834F2F50E05B874A87C3
:1045B000FA01E90FF11D97FDFA95E830F105A8F52C
:1045C000A3E0220F331FAA95E1F7D901AB56BB4FE9
:1045D0006D01CE0EDF1ED601EC90E11026C02A52EE
:1045E0003E4FE20FF31F208121502E3BF0F423E0D9
:1045F000660F771F2A95E1F76B567B4FDA01A60FFE
:10460000B71F1C928F0DE981FA818083FC819F0F77
:10461000D2019C93B8E08B9FF0011124EB56FB4F25
:10462000E90FF11D8B818F5F8083EFEF2E1A3E0A19
:104630004BCD0F5F1F4FFB81FF5FFB8329813A81C9
:104640002F5F3F4F3A8329833FEF431A530A4FEFBF
:10465000641A740AF03109F092CC2B960FB6F894D4
:10466000DEBF0FBECDBFDF91CF911F910F91FF90A5
:10467000EF90DF90CF90BF90AF909F908F907F9002
:104680006F905F904F903F902F900895D8018C913C
:10469000805E803210F091E001C09FEFE981FA81E5
:1046A0008081F0913901FC83F81730F5692F092ECC
:1046B000000C770B282F30E0261B370BD2014C91D2
:1046C00050E0E3E0220F331FEA95E1F7F901EB56E2
:1046D000FB4FE40FF51FE081E1110EC02A523E4F5F
:1046E000F901E40FF51F208121502E3B28F4E2E070
:1046F000F0E0E61BF70B73C0D2014C9150913A01E8
:10470000541710F5A92F092E000CBB0B242F30E0F5
:104710002A1B3B0BE8E08E9FB0011124FB01EB56F6
:10472000FB4FE20FF31FE081E1110EC06A527E4F92
:10473000FB01E20FF31F208121502E3B28F423E0E0
:1047400030E02A1B3B0B59C03C81831730F5692FA1
:10475000092E000C770B798768879B01280F311D84
:10476000E42FF0E0B3E0220F331FBA95E1F7D9014F
:10477000AB56BB4FAE0FBF1F6C9161110EC02A52DA
:104780003E4FE20FF31F208121502E3B30F48885ED
:10479000998502969987888729CD451718F5A92FFD
:1047A000990FBB0BB987A8879D01240F311DB8E075
:1047B0008B9FC0011124FC01EB56FB4FE20FF31F4E
:1047C000408141110FC08A529E4FFC01E20FF31F3E
:1047D000808181508E3B30F4E885F9853396F987E6
:1047E000E88704CD0E94AC3524E030E040E050E0A2
:1047F0000E9419369B012F5F3F4F39872887F6CCDF
:104800000E94AC3524E030E040E050E00E941936D0
:10481000FB013196F987E887FACC0E94AC35A501F7
:1048200094010E941936672B682B692B09F0FDCE85
:104830008EE00E94841F80913D01815080933D0154
:10484000A2C08FE00E94841FC0904B01D0904C0109
:10485000E0904D01F0904E010E94AC3522E330E033
:1048600040E050E00E941936A7019601261B370B45
:10487000480B590B20934B0130934C0140934D0151
:1048800050934E01D8018C9180548C937CC089E068
:104890000E94592D8111C9CE80E10E94841FD6014A
:1048A00012968C911297815012968C936CC084E171
:1048B0000E94841F60916301709164018091650181
:1048C0009091660122E030E040E050E00E9419360D
:1048D0002093630130936401409365015093660116
:1048E000DA01C9010197A109B10980935701909399
:1048F0005801A0935901B0935A0180913F01815012
:1049000080933F018091530190915401A0915501F2
:10491000B09156016C017D01E3E0CE1AD108E108A7
:10492000F1080E94AC3527E030E040E050E00E9402
:104930001936A7019601261B370B480B590BDA01D4
:10494000C901209353013093540140935501509372
:10495000560140914F015091500160915101709169
:10496000520184179507A607B7076CF480934F018F
:1049700090935001A0935101B093520104C0915003
:1049800090933D0100CE80E20E94732B4ECE0F9398
:104990001F93CF93DF932091390180913A0190E0EA
:1049A00048E0249F90011124DC01A20FB31F60E0B6
:1049B00070E01997A901485051099C012F5F3F4FA2
:1049C00098E06831710561F1FD01E60FF71FEA52C9
:1049D000FE4FEA01C60FD71FCA52DE4F8F010C1BD4
:1049E0001D0B20173107CCF0808111EE180F1C34FD
:1049F00010F4805B0FC013E2180F163010F4885CBF
:104A000009C0843E11F4908306C019E1180F1630D6
:104A100010F4825D80833196E1CF685F7F4FD1CF04
:104A2000DF91CF911F910F910895CF92DF92EF9276
:104A3000FF920F931F93CF93DF936C017A018B0149
:104A4000C0E0D0E0CE15DF0581F0D8016D918D0179
:104A5000D601ED91FC910190F081E02DC601099500
:104A6000892B11F02196EECF7E01C701DF91CF9106
:104A70001F910F91FF90EF90DF90CF9008950895D0
:104A80002F923F924F925F926F927F928F929F925E
:104A9000AF92BF92CF92DF92EF92FF920F931F934C
:104AA000CF93DF9300D000D0CDB7DEB7DC016A3002
:104AB00081F415968C91159714968C9314971696ED
:104AC0009C91169719968C911997890F16968C932D
:104AD000FEC060526F3508F0F0C01496EC90149749
:104AE0004E2C0E2C000C5508E3EDF8E0F490E4EDAC
:104AF000F8E0E4910F2D10E06623E1F081E090E012
:104B00004E2F477011F480E090E04E2F4695469569
:104B10004695840F911D809F6001819FD00C909FCE
:104B2000D00C11246C9DA0016D9D500D11244B5291
:104B3000574F02C045ED58E0040D151D1016110623
:104B40000CF0BBC016968C9116978F5F682F082EBD
:104B5000000C770B6B01CE0ED11C1C141D040CF045
:104B6000ACC0603471050CF0A8C04115510509F4C2
:104B7000A4C087706B0177FF03C027E0C20ED11C71
:104B800093E0D594C7949A95E1F7FC2D77FF04C084
:104B9000882311F0FFEFFC0D57FE05C0662777272D
:104BA0006419750902C060E070E00038110524F056
:104BB00090E8992E9E1801C09F2C961A0F2F0F2E49
:104BC000000C110BFF3F1CF4E02EE09401C0E12C1F
:104BD00021E03E2F377009F420E0E695E695E69552
:104BE000922F9E0F090F111D0930110514F098E046
:104BF0009F1B8E2C8F0E01E010E0082E02C0000FCC
:104C0000111F0A94E2F7DF2CD9185B01FE9CA00C5F
:104C1000B11C11244A0D5B1DEFEFE09F7001E19F75
:104C2000F00C1124E094F0947E2C282D30E823031E
:104C3000400C511C11249201260F371F25573A4F63
:104C40009F0F692D70E0FB01ED0DF11D6F019815AF
:104C5000A1F1B9011A01B22CB41AB91440F5F1014D
:104C60006490609E5001619EB00C1124BA82A982AA
:104C7000FC82EB8287FC05C0FB01B080B720AB282B
:104C8000A082882371F0F6E0F8155CF05B01E0E8A3
:104C9000AE0EB11CF50150806C8065205A806528ED
:104CA0006082FFEF2F1A3F0A6F5F7F4FD4CF83944C
:104CB0004C0D5D1D20583F4FCACF18968C91189708
:104CC0008B5F14969C911497890F14968C9381E0B6
:104CD00090E00F900F900F900F90DF91CF911F9168
:104CE0000F91FF90EF90DF90CF90BF90AF909F908B
:104CF0008F907F906F905F904F903F902F9008958E
:104D0000089580E090E008958F929F92AF92BF92B5
:104D10000F931F93CF93DF93CDB7DEB7A1970FB655
:104D2000F894DEBF0FBECDBF19A2423008F44AE0AE
:104D30008E010F5D1F4F842E912CA12CB12CA5014B
:104D400094010E944B36E62FB901CA0101501109A6
:104D5000EA3014F4E05D01C0E95CD801EC93232B48
:104D6000242B252B61F70115110571F0F801019035
:104D70000020E9F73197AF01401B510BB80181E7E3
:104D800095E00E94152502C080E090E0A1960FB644
:104D9000F894DEBF0FBECDBFDF91CF911F910F9171
:104DA000BF90AF909F908F9008950E94D33680E07F
:104DB000EBE8F5E081118FEF0024819381938193DB
:104DC00081930394D1F7089520918105282329F434
:104DD00090918005982381E009F480E00895682F80
:104DE00070E080E090E04AE00C948426682F81E730
:104DF00095E00C9440250F931F93CF93DF938C0184
:104E0000C0E0D0E0F801EC0FFD1F6491662341F093
:104E100081E795E00E944025892B11F02196F2CF81
:104E2000CE01DF91CF911F910F910895CF92DF9224
:104E3000EF92FF92CF93DF9397FF19C06B017C0134
:104E40008DE20E94F626EC0166277727CB016C19CC
:104E50007D098E099F094AE00E9484268C0F9D1FC0
:104E6000DF91CF91FF90EF90DF90CF9008954AE0CF
:104E7000DF91CF91FF90EF90DF90CF900C9484263C
:104E8000BC01990F880B990B0C941627EBE8F5E001
:104E900080E0A0E0B8E000800EBC8111012C1197E9
:104EA000A0FDFDCF0192B9F70DB40895CF92DF9226
:104EB000EF92FF92611571058105910549F06B0133
:104EC0007C010E94AC35A70196010E94193603C0EF
:104ED00060E070E0CB01FF90EF90DF90CF900895FD
:104EE000CF92DF92EF92FF920F931F936217730797
:104EF0008407950784F489019A016B017C01C9013B
:104F0000B8016C197D098E099F090E9456276C0D06
:104F10007D1D8E1D9F1D1F910F91FF90EF90DF90C3
:104F2000CF9008953FB7F8948091870590918805B8
:104F3000A0918905B0918A0526B5A89B05C02F3F91
:104F400019F00196A11DB11D3FBFBA2FA92F982FAF
:104F50008827820F911DA11DB11DBC01CD0142E02A
:104F6000660F771F881F991F4A95D1F708958F9272
:104F70009F92AF92BF92CF92DF92EF92FF926B011E
:104F80007C010E9492274B015C01C114D104E10411
:104F9000F104F1F00E949227DC01CB0188199909F4
:104FA000AA09BB09883E9340A105B10570F321E031
:104FB000C21AD108E108F10888EE880E83E0981E35
:104FC000A11CB11CC114D104E104F10419F7DDCF17
:104FD000FF90EF90DF90CF90BF90AF909F908F9019
:104FE00008951F920F920FB60F9211242F933F93A3
:104FF0008F939F93AF93BF9380916D0590916E05B2
:10500000A0916F05B09170053091860523E0230FC4
:105010002D3720F40196A11DB11D05C026E8230FF0
:105020000296A11DB11D2093860580936D05909376
:105030006E05A0936F05B0937005809187059091E0
:105040008805A0918905B0918A050196A11DB11D21
:105050008093870590938805A0938905B0938A056E
:10506000BF91AF919F918F913F912F910F900FBE64
:105070000F901F901895BC0180E090E00C94B7272A
:105080008FB18095807F669B88601C9B84600895AB
:10509000CF92DF92EF92FF920F931F93CF93DF9304
:1050A000EB017B0125E0E20EF11C8B016C01C61ABD
:1050B000D70AC601800F911F0E940336F801819321
:1050C0008F01EE15FF05A9F7CE01DF91CF911F915A
:1050D0000F91FF90EF90DF90CF900895AF92BF9225
:1050E000CF92DF92EF92FF920F931F93CF93DF93B4
:1050F00000D0CDB7DEB78B016B0125E0C20ED11C0D
:105100007B015C01A61AB70AC5018E0D9F1DF70130
:1051100061917F019A838983CE0101960E94830564
:10512000EC14FD0489F7C8010F900F90DF91CF9127
:105130001F910F91FF90EF90DF90CF90BF90AF90B5
:1051400008950E94D72680914101811109C00E94D3
:10515000411E0E94F71D0E94B6110E94701D02C0E0
:105160000E94F71D85E00E94841F0E944D140E943A
:1051700046270E94F21490914001992351F00E9419
:10518000AC3524E030E040E050E00E94193681E088
:10519000860F0895FF920F931F93CF93DF93F82EFE
:1051A000C62F142F022FDFEFD60F6AE28D2F0E9439
:1051B0003B2BEF2DF0E0EF5FFE4FE2A58E2F90E04E
:1051C0008930910508F06DC0FC01E956FF4F6C2F46
:1051D00070E00C94AA3661507109FB01E35AFA4F52
:1051E0001082FB01E35BFA4FE081DB01A35CBA4F65
:1051F0008C9198E0E99FF0011124EB56FB4FE80FEA
:10520000F11D10824EC0FB01EC57FB4F808187FFE0
:1052100002C08F7745C0846043C0FB01EC57FB4F51
:10522000808180623DC0FB01EC57FB4F8081806430
:1052300037C0EB01C45ADA4F6881162F107E0E94E6
:10524000AC352AE130E040E050E00E941936610FB1
:10525000688327C0FB01EC57FB4F808182FF02C0AF
:105260008B7F1EC080681CC0FB01E45AFA4F80810E
:105270008F71805815C040913F01842F880F880F8F
:10528000480FFB01E45AFA4F60816F71212F8D2F77
:105290000E94962B06C0FB01EC57FB4F8081877F55
:1052A0008083DF91CF911F910F91FF900895AF926E
:1052B000BF92CF92EF92FF920F931F93CF93DF9302
:1052C000142FA82EB12CC62FD0E0F50143E0EE0F2D
:1052D000FF1F4A95E1F7E352FC4FEC0FFD1F908151
:1052E000992339F040E00E94462CF82E882361F182
:1052F00002C035E0F32E0E94E00DE82F8F2DFF0C49
:10530000990B019763E070E00E9496368A0D9B1D11
:1053100023E0880F991F2A95E1F78B529C4FC80F05
:10532000D91F6C0F7D1FEB01219781E08E0F8883C1
:1053300085E0E89FF0011124EB5EFC4F108381E0D3
:1053400081830283E382C482DF91CF911F910F9109
:10535000FF90EF90CF90BF90AF90089525E0829F8F
:10536000C0011124FC01ED56FD4F10821182128202
:1053700013821482E9E3F1E08281815082830C94EC
:10538000760D2FEF280F253018F49BEF980F23C0D0
:105390002AEF280F2930A0F021EF280F233090F0BA
:1053A000823191F02DEE280F223080F0853181F08E
:1053B0002AEE280F293070F08F3168F098E00BC08A
:1053C00091E009C093E007C094E005C095E003C0F8
:1053D00096E001C097E0892F08952F923F924F9257
:1053E0005F926F927F928F929F92AF92BF92CF9275
:1053F000DF92EF92FF920F931F93CF93DF93CDE550
:10540000D5E00DE415E08DE3282E85E0382E9AE0F6
:10541000C92ED12CE12CF12C88818054803208F0E7
:1054200041C0F801808190E020913901AC01421B1C
:10543000510957FF03C0519541955109F101208150
:1054400030E080913A01B901681B7109CB0177FF07
:1054500003C0919581959109840F951F039714F5C9
:105460000E94AC354B015C0180E00E94592D682FF1
:1054700070E06F5F7F4F84E090E00E9496362B01D2
:10548000770F66087708C501B401A70196010E944D
:105490001936641575058605970524F488818F7182
:1054A000805E888321960F5F1F4F7FEF271A370A90
:1054B00085E0CD36D80709F0AFCFDF91CF911F91AE
:1054C0000F91FF90EF90DF90CF90BF90AF909F90A3
:1054D0008F907F906F905F904F903F902F900895A6
:1054E00025E0829FC0011124DC01AD56BD4FEC9137
:1054F000EF70F0E0EF5FFE4F848D843019F086305E
:1055000059F0089512969C9180914A01699F800DEF
:10551000112480934A01089512969C91809149012B
:10552000699F800D11248093490108958F929F9265
:10553000AF92BF92CF92DF92EF92FF920F931F93A1
:10554000CF93DF9380913C01811103C08FEF809353
:105550003C0180914B0190914C01A0914D01B09183
:105560004E0140918B0950918C0960918D09709189
:105570008E09481759076A077B070CF06EC0209107
:105580003C0180938B0990938C09A0938D09B09373
:105590008E0920938F090BE819E0E80120E030E044
:1055A0002F5F3F4FCE01A9014530510539F42596B3
:1055B00025303105A9F7C4E6D0E02BC0888099805A
:1055C000AA80BB80FC01C580D680E780F084C81427
:1055D000D904EA04FB04CCF465E0FE01A4EAB9E0D6
:1055E00001900D926A95E1F765E0FC013596DE01C8
:1055F00001900D926A95E1F765E0E4EAF9E0DC01DB
:10560000159601900D926A95E1F74F5F5F4F0596F1
:10561000CBCFBE01695D764FCE010E946E282596E4
:10562000CD37D105B1F740914B0150914C016091BC
:105630004D0170914E0195E080E0F801C080D1806D
:10564000E280F380C416D506E606F70609F4892F32
:105650000B5F1F4F915089F701C080E0DF91CF9120
:105660001F910F91FF90EF90DF90CF90BF90AF9080
:105670009F908F9008951F93CF93DF93C82F162F7D
:1056800080914101811106C00E94411E0E94B61105
:105690000E94701DD0E0FE01E35CFA4F608170E073
:1056A000FE01E35BFA4F808190E00E94611D8091D2
:1056B0004101811107C0CB57DB4F888186FD02C0B5
:1056C000812F01C080E20E94F6260E9446272D9875
:1056D00064E670E080E090E00E94B7272D9ADF91A9
:1056E000CF911F910895CF93C82F809141018111CF
:1056F00006C00E94411E0E94B6110E94701D60915A
:105700003A0170E08091390190E00E94611D8C2F78
:105710000E94F6260E9446272E9864E670E080E0FC
:1057200090E00E94B7272E9ACF9108958F929F9272
:10573000AF92BF92CF92DF92EF92FF920F931F939F
:10574000CF93DF93962FE82FF0E0DF01AB55BE4FEC
:105750003C91E35AFA4F431708F483C088E0289F2E
:10576000D0011124AB56BB4FA00FB11D1C9210826B
:10577000C62FD0E0C0905701D0905801E090590159
:10578000F0905A0187E06631F0F08C9FD0018D9F38
:10579000B00D1124FD01E253FD4FA49184E6A89FB2
:1057A000F0011124AF01FF0F660B770B4C0D5D1D4F
:1057B0006E1D7F1D4093570150935801609359010E
:1057C00070935A011BC08C9FB0018D9F700D1124E6
:1057D000FB01E253FD4F649146015701860E911C77
:1057E000A11CB11C8092570190925801A0925901BE
:1057F000B0925A019F3011F410924801122FB92E25
:105800000E94AC3527E02C9FF0012D9FF00D112454
:10581000E153FD4FE491CE2ED12CE12CF12C24E666
:1058200030E040E050E00E9419366C157D058E0591
:105830009F05FCF489E0982EB91002C041E001C038
:1058400040E0602F812FDF91CF911F910F91FF904A
:10585000EF90DF90CF90BF90AF909F908F900C947F
:105860004612341B3C938081803418F08F71805E27
:105870008083DF91CF911F910F91FF90EF90DF9088
:10588000CF90BF90AF909F908F9008953F924F928E
:105890005F926F927F928F929F92AF92BF92CF92C0
:1058A000DF92EF92FF920F931F93CF93DF93682EB7
:1058B000862EF42E0E94AC3528E030E040E050E027
:1058C0000E941936C0913901E0913A01F0E088E078
:1058D000C89FE0011124DE01AB56BB4FAE0FBF1FC6
:1058E0008FEF8C9300E010E0462E512C99E0C92EEA
:1058F000D12C23E0322E712C912CC201800F911FEC
:10590000B6010E949636E82E632D0E94883691508B
:105910009301290F311D97FD3A958150A401480F3D
:10592000511D87FD5A9583E0220F331F8A95E1F7B9
:10593000D901AA52BE4FA40FB51F8C918150883C4B
:1059400020F5D901A352BC4FA40FB51F6C9170E094
:10595000A1E0B0E0FF2011F0A0E0B0E06A9F5001AC
:105960006B9FB00C7A9FB00C1124AB2871F42B56AE
:105970003B4FD901A40FB51F8C918F9DC0011124FD
:10598000892B19F481E08E0D07C00F5F1F4F09307E
:10599000110509F0B2CF80E0CB56DB4FEC0FFD1FB5
:1059A0001082DF91CF911F910F91FF90EF90DF90C8
:1059B000CF90BF90AF909F908F907F906F905F90AF
:1059C0004F903F900895CF92DF92EF92FF920F9306
:1059D0001F93CF93DF93C62FE82FF0E09F01225053
:1059E00031098170829F202D1124CF01019762E03F
:1059F00070E00E94963633978E9FD02D11243091FF
:105A0000390160913A0170E0C22E022E000CDD08CF
:105A10000D2F0D2E000C110BF801E60FF11DA60144
:105A2000430F511DA3E0440F551FAA95E1F7CA018A
:105A30008B569B4F7C01EE0EFF1ED7018C91882365
:105A400019F0320F6D0F0DC04A525E4FE40FF51F73
:105A500040814150473C28F4320F6D0F7F5F7C132B
:105A6000DBCF90E0982F8827B5E16B9F800D911DCB
:105A70001124830F911DDF91CF911F910F91FF9002
:105A8000EF90DF90CF900895382FE3E9F2E091E0B6
:105A900080E0208122952F70231306C0248124FFEB
:105AA00003C0615009F4892F35969F5F953189F7BE
:105AB00008950F931F93CF93DF93182FC0E0D0E08A
:105AC00005E0CF5F6C2F87E00E94442D811108C054
:105AD000C230B9F78D2FDF91CF911F910F910895AB
