:100000000C9439050C9461050C9461050C94610500
:100010000C9461050C9461050C9461050C946105C8
:100020000C9461050C9461050C9461050C946105B8
:100030000C9461050C9461050C9461050C946105A8
:100040000C9461050C9461050C9461050C94610598
:100050000C9461050C9461050C9461050C94D228F4
:100060000C9461050C9461050C9461050C94610578
:100070000C9461050C9461050C9461050C94610568
:100080000C9461050C9461050C9461050C94610558
:100090000C9461050C9461050C9461050C94610548
:1000A0000C9461050C9461050C94610570087D0841
:1000B0008208B208E408F70808090C0910091409B5
:1000C000300934093A093E098C09A109CD09FC0916
:1000D000140A4B0A4E0AC30A84095C0A920AA00A4F
:1000E000F00C970BF00CF00CF60CF00CFC0C970BD2
:1000F000970B970B030D970B090D7D1B941BC91BC9
:100100003F1C861C931CA51C091D7B22A522C22313
:10011000C223B122C223C223CC22D622C22300236F
:10012000C2230B23C223C223C223C2231C23CC29F4
:10013000E429EE29F429FA290B2A152A1C2A2C2A4B
:10014000D5F08D14A1C881CFD9F1AF2000425D2038
:10015000536176657E7175697400415D20476F203B
:100160004E657874004E65787420666C6F6F7220EF
:100170000057696E202C002D20292048616C6C20CE
:100180004F662046616D65202920202D005448458A
:1001900020414D554C4554204F462059454E444F23
:1001A000522000594F55204D414445204954204F7D
:1001B000555420574954482000202C20434F4E4787
:1001C000524154554C4154494F4E202C202000247C
:1001D000006279004B696C6C65640068656C6C66E4
:1001E000697265006C75636B006C61636B206F6690
:1001F0000046726F7A656E00537461727665005FB7
:1002000020204865726F20205F00282052455354FB
:1002100020494E20504541434520280045783B0069
:1002200041433B0053743B0048673B0048703B0030
:1002300041753B004C763B00425D20436F6E746914
:100240006E756500415D204E65772047616D6500E4
:100250004020526F677565002043002045002077DD
:10026000686963687D00020303040405010101015C
:100270000102010301042064726F7000207468722F
:100280006F770020757365000A01043C0200830B40
:100290000103410200020A01033C02002508010398
:1002A000320200030F0205430300030F0000440560
:1002B000000413020A460A000319010546050A0351
:1002C000150107450800031900004B1564042005BB
:1002D00013550F0A051E030F4E1414031900006472
:1002E0001400031900004B27640423031250321436
:1002F00005490000505B00014B051C4B7D21032D7F
:1003000002104B3700054C0514507832652A04184A
:100310004B6E00065A042855C8210361072555FA7B
:10032000190337021255041203730A3255140A8353
:10033000840732641E000591083C64325A02000AA8
:100340000F18213F5D60642A3A295B213F3D2F2C25
:1003500000050A14192328323C414B555A5F6400AA
:10036000050A0F14232D37414B555A6464646461A8
:100370006E676572600000727573742074726170CC
:1003800000706F69736F6E20747261700074656CB9
:1003900065706F7274207472617000736C65657043
:1003A00020676173006172726F77207472617000F0
:1003B00074726170646F6F72007A7A7A27272700EF
:1003C000647261696E6564006C6576656C20646F4B
:1003D000776E006275726E65640067726163656452
:1003E0000068656C64007275737465640073746F83
:1003F0006C656E00706F69736F6E65640066726F16
:100400007A656E00616C7265616479207769656CEC
:10041000640045717569707065640072656D6F7612
:100420006564006974206375727365640079756D25
:100430006D79006F6F7073272727006C6576656C88
:10044000207570006469727D006E6F20736C6F742C
:1004500000736F6D657468696E672068657265000A
:100460006E6F7468696E672068617070656E730086
:10047000492063616E6E6F740057656C636F6D65C4
:1004800060006E6F7468696E670063616E63656CAF
:10049000006D697373696C6500736C6565700066E7
:1004A000617374006368616E676500636C65617297
:1004B00000636F6E6675736500736C6F77007465AB
:1004C0006C65706F7274007365617263680061724D
:1004D0006D6F72007365650061646F726E006465B4
:1004E00078007374726F6E670064616D6167650098
:1004F000666F6F64006C6966650074656C65706F2B
:10050000727400737465616C7468006D6170006171
:100510006E6765720063726561746500626C657315
:100520007300736361726500736C65657000746558
:100530006C65706F7274006964656E7469667900C9
:1005400061726D6F7200776561706F6E00686F6CBD
:10055000640070726F74656374006C6F6F6B00730E
:1005600070656564006C6576697461746500636FBD
:100570006E66757365006927646574656374006DE4
:10058000276465746563740068616C6C7500626CE7
:10059000696E64006C6576656C00706F69736F6E70
:1005A0000065276865616C006865616C0072657341
:1005B000746F726500706F7765720059656E646F55
:1005C00072007A696E630074696E0073696C766597
:1005D0007200737465656C006E69636B656C006CAA
:1005E0006561640069726F6E00636F7070657200A0
:1005F00062726F6E7A6500627261737300746F70FD
:10060000617A0073617070686972650072756279F1
:1006100000706561726C006F70616C006F6E79784C
:10062000006761726E657400656D6572616C64006F
:100630006469616D6F6E6400616D6574687973746F
:100640000061676174650052454144204D45005486
:10065000454D4F5600464F4F42494500414E444F8D
:1006600056410059554D2059554D0054484152525C
:1006700000454C4249420044414959454E005849C1
:1006800058415841004E522039004A5559454400BE
:100690005A454C474F0079656C6C6F7700776869F5
:1006A00074650076696F6C657400726564007069CA
:1006B0006E6B006772657900677265656E006F72B8
:1006C000616E6765006379616E00636C65617200DD
:1006D00062726F776E00626C756500626C61636B4D
:1006E00000616D62657200706C6174650062616EBC
:1006F0006465640073706C696E7400636861696E30
:10070000007363616C650072696E67006C6561748B
:100710006865720064616767657200736875726905
:100720006B656E006172726F770064617274006253
:100730006F770073776F726400617865006D616335
:1007400065006D6F6C6400666F6F6400676F6C644A
:10075000007904700460045104490444043B0433E8
:10076000042D0423041B0412040404FD03F403ED0C
:1007700003E603E103DA03D303C803C003B903B0FC
:1007800003A5039B038D038103770376036E034C5C
:1007900007470742073D07390733072F072A072472
:1007A000071B0714070C0707070107FB06F406EDF4
:1007B00006E706E106DB06D606D006CA06C506BE73
:1007C00006B806B306AE06AA06A3069D06960690D0
:1007D000068A0685067E06770671066B0663065C4A
:1007E0000655064F064706410638063006280621FC
:1007F000061C06170611060C060306FD05F705F094
:1008000005E905E405DF05D805D205CB05C705C216
:1008100005BB05B505AD05A805A1059A0594058E8E
:100820000588057F0576056E0565055F055A055245
:10083000054D054605400537052E05280522051CF2
:100840000515050F050B050305FA04F504F004E989
:1008500004E204DE04D804D404CE04C704BE04B900
:1008600004B104AB04A4049F04990491048A048293
:10087000044B4542534849524F5A4C4351414E59FB
:100880004654575058554D56474A440203040506EE
:1008900006070508000000000000746D7400404069
:1008A000404040552A552A55042E6B3A107F437F0D
:1008B000417F6A5767576E0060600000707A770A60
:1008C0007008105F100822085D08227E4141417EB9
:1008D000060929522C0008080800000000402002E8
:1008E000007D00023E7F417F3E00427F7F4062717B
:1008F000594F462241497F3618147E7F102F4F49A9
:1009000079313E7F4979300161791F07367F497F10
:1009100036064F497F3E18353E3D180036360000FA
:100920000040381800102A452A101C7F3E1C080879
:100930005C2E170A0102641F767E7F097F7E7F7F0F
:10094000497F363E7F4141227F7F417F3E7F7F4905
:1009500049417F7F0909013E7F41797A7F7F087F86
:100960007F00417F7F4141417F3F017F7F1C366394
:100970007F7F4040407F7E0C7E7F7F7E1C3F7F3E9E
:100980007F417F3E7F7F090F063E7F613F5E7F7F15
:10099000097F76264F49793200017F7F013F7F40F2
:1009A0007F3F1F3F603F1F7F3F103F7F777F087F64
:1009B00077037F78070371794D47431F3F7B3F1FC4
:1009C000707A770A700041417F3E3E7F4141004D81
:1009D0003A163A4D006F6F00002074547C787F7F88
:1009E000447C38387C444428387C447F7F387C54AD
:1009F0005C1800047E7F0518BCA4FC7C7F7F08780F
:100A00007000447D7D408080FD7D007F7F386C4498
:100A100000417F7F407C7810787C7C7C047C783837
:100A20007C447C38FCFC243C18183C24FCFC7C7C7A
:100A3000080404085C54742000047E7E043C7C405E
:100A40007C7C1C3C403C1C7C3C103C7C6C7C107CCA
:100A50006C1CBCA0FC7C4464745C4C1F3B713B1F51
:100A600000777777000601590F062010080402006E
:100A7000FF3511241FBECFEFDAE0DEBFCDBF11E09E
:100A8000A0E0B1E0ECE2FFE602C005900D92A639CD
:100A9000B107D9F729E0A6E9B1E001C01D92A93A52
:100AA000B207E1F715E0C9E3D5E004C02197FE01E4
:100AB0000E946637C833D107C9F70E947A2E0C947A
:100AC00094370C94000025E0829FC0011124DC01C2
:100AD000A055BD4FEC91EF70F0E0EF5FFE4F848DBD
:100AE000843019F0863059F0089512969C918091C7
:100AF0004A01699F800D112480934A01089512963E
:100B00009C9180914901699F800D11248093490136
:100B10000895382FE0EBF2E091E080E0208122950B
:100B20002F70231306C0248124FF03C0615009F4F1
:100B3000892F35969F5F953189F708950F931F93FD
:100B4000CF93DF93182FC0E0D0E005E0CF5F6C2F8C
:100B500087E00E948905811108C0C230B9F78D2F46
:100B6000DF91CF911F910F91089590E00197089F19
:100B7000F001099FF00D1124E055FD4FE081EF7069
:100B8000F0E0EF5FFE4F848D8113E7CFDF5FE5CFAD
:100B9000FF920F931F93CF93DF93D82F85E0D89FB9
:100BA0008001112400551D4FF801C481C4FF11C0FC
:100BB000C6FF02C089E01EC0CF7EF801C4838AE070
:100BC0000E943E20F801808180578031E0F56FEF70
:100BD00032C0F801808182958F708330A0F185301A
:100BE00018F0873099F02FC061E00E9489058823B2
:100BF00041F08CE0DF91CF911F910F91FF900C9409
:100C00003E20C261F801C4838BE0F4CF61E087E04D
:100C10000E948905F82E62E087E00E948905F89E0F
:100C2000C0011124892B29F7C261F801C4838BE02C
:100C30000E943E2061E08D2FDF91CF911F910F9197
:100C4000FF900C946305DF91CF911F910F91FF905E
:100C50000895FF920F931F93CF93DF93EC01F62E2D
:100C600008811981C8010E94BF36F81621F06F2D46
:100C7000C8010E94C736CE01DF91CF911F910F911D
:100C8000FF9008952F923F924F925F926F927F92C2
:100C90008F929F92AF92BF92CF92DF92EF92FF928C
:100CA0000F931F93CF93DF93682E712C33243394CB
:100CB000882E912C88E0582E56180E947427309266
:100CC0009305309292050FEF0093940511E06112A5
:100CD00004C08EE592E00E94982761E070E0611008
:100CE00002C060E070E080E090E00E941B1E8EE396
:100CF0000E949327E72CF12C00913B01C701089635
:100D000088199909202F30E02817390714F0052D8C
:100D1000070D25E0729EE0011124C055DD4F5701FB
:100D2000CC24C394D12C10E0A016B1060CF08FC0D7
:100D300081E090E0662011F080E090E0B601681B51
:100D4000790B81E090E00E941B1E8C8183FD08C01E
:100D5000E881E295EF70F0E0EA5BFC4F849101C01E
:100D60008BE70E94932780E20E9493278C8187FF64
:100D700006C089810E948C2780E20E949327988177
:100D8000692F6F70892F82958F70903510F440E035
:100D90000FC0E82FF0E0EE0FFF1FE257FE4F40813B
:100DA0005181062E02C0569547950A94E2F741708C
:100DB0000E94FC1F8091D3019091D4010E9498273A
:100DC0008C8185FF2DC0888190ED980F903170F453
:100DD0008EE50E9493278A81082E000C990B0E94B1
:100DE000DD278CE30E9493278B8112C090EC980F33
:100DF000903150F090E8980F903130F0805780316A
:100E000078F48A81882361F08EE50E9493278A8195
:100E1000082E000C990B0E94DD278DE50E94932778
:100E20008C8184FF04C08BE592E00E9498278C811E
:100E30008274823421F488E592E00E9498273FEF83
:100E4000A31AB30A25968FEFC81AD80A6DCF0E944D
:100E500027280E94512B823029F4772009F42DCFC6
:100E60007A942BCF843051F480913B0190E001972C
:100E7000E816F9060CF021CF73941FCF853009F0E6
:100E8000A2C66110A3C600E023E249E363E070E07C
:100E900081E190E00E94E32701E021E247E364E082
:100EA00070E082E190E00E94E32700E02FE145E35B
:100EB00065E070E083E190E00E94E327CFE1C0931A
:100EC0009305C0939205D7E0D093940583E892E010
:100ED0000E949827C0939305C09392058FE080935A
:100EE00094058CE792E00E949827C0939305C093E5
:100EF000920587E18093940586E792E00E94982707
:100F000089E18093930580939205D09394058EE3B5
:100F10000E9493270E942728C0E00E94512B843012
:100F2000C9F018F4823039F0F8CF853079F1863085
:100F300009F44CC6F2CFCC2381F36C2F70E06F5FC5
:100F40007F4F84E090E00E941B1E80E20E94932766
:100F5000C1500EC0C23008F76C2F70E06F5F7F4F3A
:100F600084E090E00E941B1E80E20E949327CF5FE6
:100F70006C2F70E06F5F7F4F84E090E00E941B1E3B
:100F80008EE30E9493270E942728C7CFC11167C311
:100F9000D0914401D11162C48E9DF0018F9DF00D5E
:100FA0001124E055FD4FC0818C2F82958F70CF703A
:100FB000823009F05DC0818181508183811103C03D
:100FC000872D0E948F2AC1114DC40E94683623E0EC
:100FD00030E040E050E00E94D536672B682B692B4B
:100FE00009F040C487E00E943E2080915701909113
:100FF0005801A0915901B0915A010296A11DB11D4D
:101000008093570190935801A0935901B0935A01CE
:10101000C0E060915F0170916001809161019091E9
:10102000620123E030E040E050E00E94D5366901E3
:101030007A019CE2C90E91E0D91EE11CF11CCC0E94
:10104000D11CE11CF11C0E94683622E330E040E034
:1010500050E00E94D536C60ED71EE81EF91EC0927B
:101060005F01D0926001E0926101F0926201EFC3F2
:10107000833009F4ABC2843009F4A8C2853009F08A
:1010800004C10C2F10E081E090E0A0E0B0E00C2E55
:1010900004C0880F991FAA1FBB1F0A94D2F7209182
:1010A000980130919901822B932B90939901809311
:1010B0009801818181508183811103C0872D0E9415
:1010C0008F2AF801EF5FFE4FE0818E2F90E08E3087
:1010D000910508F0D6C0FC01EA5AFF4F0C94663720
:1010E00090913D0120913E0181E0890F80933D0167
:1010F0009213C7C080933E01C4C080913E0180938B
:101100003D01BFC080914F0190915001A0915101CC
:10111000B091520140915301509154016091550199
:101120007091560184179507A607B70721F4019619
:10113000A11DB11D2FC08C019D01040F151F261F7D
:10114000371FC901B80122E030E040E050E00E94C2
:10115000D53620934F013093500140935101509365
:1011600052018FC080914F0190915001A091510187
:10117000B091520140915301509154016091550139
:101180007091560184179507A607B707A1F4029638
:10119000A11DB11D80934F0190935001A093510167
:1011A000B09352018093530190935401A093550141
:1011B000B093560166C040934F0150935001609325
:1011C0005101709352015DC0D0913D01D43060F067
:1011D0000E946836D15023E030E040E050E00E94A9
:1011E000D536D61BD0933D01109242014AC0809162
:1011F000630190916401A0916501B09166018093B3
:10120000570190935801A0935901B0935A0139C0E6
:1012100082E38093410135C082E38093420131C073
:1012200081E0809345012DC04AEFE42E43E0F42E87
:1012300000E010E0F701E00FF11F8081882321F02A
:10124000602F8D2F0E94DF1F0F5F1F4F0830110589
:1012500089F718E0E10EF11CDF5FD53149F711C0C5
:101260008AE0809340010DC0109248018EE1809386
:10127000470107C084E18093430103C081E080936C
:10128000460141E06C2F85E087C1863009F087C1B7
:101290008091410181118EC20C2F10E081E090E01D
:1012A000A0E0B0E00C2E04C0880F991FAA1FBB1F3E
:1012B0000A94D2F720919A0130919B01822B932BB3
:1012C00090939B0180939A0185E08E9DF0018F9D04
:1012D000F00D1124E055FD4F8181815081838111F2
:1012E00003C0872D0E948F2A0F5F1E4FD8011E96C4
:1012F000EC918E2F90E08C30910508F044C1FC01F8
:10130000EC59FF4F0C94663740913B0150E0E0EB05
:10131000F2E080E090E0C6C061E084E00E948905D0
:10132000882309F436C190E0019725E0289FF00159
:10133000299FF00D1124E055FD4F8481886084833E
:1013400022C12091390180913A0190E0B8E02B9FB1
:10135000800D911D112440E050E04097DC01A40F66
:10136000B51F6EEF7FEFFB01EA0FFB1FEE54FB4F43
:10137000E081EE2339F0F0E0E758FA4F20812F7139
:10138000205820836F5F7F4F6330710561F7485F9E
:101390005F4F4832510511F7FCC061E083E00E94C5
:1013A0008905882309F4F5C090E0019745E0489F3E
:1013B0009001499F300D1124F901E055FD4F7F0147
:1013C00084818F7B84830E94683622E030E040E095
:1013D00050E00E94D536672B682B692B41F4D7016A
:1013E00012968C9112978F5F12968C93CCC0F70156
:1013F00083818F5F8383C7C061E084E00E94890599
:10140000882309F4C6C090E0019725E0289FF001E9
:10141000299FF00D1124E055FD4F84818F7B84833B
:1014200082818F5F8283AFC081E00E944206F5E037
:101430008F9FC0011124FC01E055FD4F8481826221
:1014400084839081292F2F70892F82958F709035FA
:1014500010F440E01CC0E82FF0E0EE0FFF1FE25751
:10146000FE4F41E050E060E070E0022E04C0440F07
:10147000551F661F771F0A94D2F7A081B1814A2BAE
:101480005B2B518340839059903118F341E0622FD8
:101490000E94FC1F78C00E94691875C085E0809387
:1014A000440171C0841795070CF073C024812F7B11
:1014B000248301963596F6CFEAE7F5E081E0919135
:1014C000911101C0482E8F5F8131C9F741E06091D1
:1014D0003A01809139010E94281590E0009709F4A3
:1014E00052C00197242D30E021503109409139013B
:1014F000415063E070E00E945237840FF901E659D1
:10150000FA4F808340913A014150460FF901E65A63
:10151000FA4F4083682F8FEF840D0E94491D0E946F
:101520002A1E31C0EAE7F5E08081882319F08F7127
:10153000805E8083319605E0EA38F007A9F729C07C
:10154000D4EFAD2ED1E0BD2ED0E0D12C7501F70146
:10155000808191EE980F9C3410F4805B80832FEF94
:10156000E21AF20A8081882321F06D2D8D2F0E94CE
:10157000DF1FD39438E0D312EACFDF5F88E0A80EF4
:10158000B11CD53111F7D8011E968C91843009F425
:101590005EC141E06C2F86E00E94FC1F58C187307D
:1015A000C9F481E090E0A0E0B0E004C0880F991F8A
:1015B000AA1FBB1FCA95D2F720919C0130919D01B3
:1015C000822B932B90939D0180939C01872D0E94E9
:1015D000C8053DC1883009F03AC181E090E0A0E043
:1015E000B0E00C2E04C0880F991FAA1FBB1F0A94DD
:1015F000D2F720919E0130919F01822B932B9093E3
:101600009F0180939E0185E08E9DF0018F9DF00DDE
:101610001124E055FD4F828118161CF481508283FD
:1016200002C0C09134010E94822964E10E94C51564
:10163000FC0197FF02C0E150FF4FFF2309F407C1EF
:1016400060E071E00E94523765E170E00E9452371D
:10165000262F482F6F2F8C2F0E94AB29F8C0C13046
:1016600009F06CC0909144019111F8C08E9DF00179
:101670008F9DF00D1124E055FD4F848184FF0AC039
:10168000908120ED290F203108F04EC09F709430DA
:1016900008F44AC086FF0CC0C5E0CE9DF001CF9D86
:1016A000F00D1124E055FD4F908190539031D8F00A
:1016B0000E948229C82F61E083E00E948905882367
:1016C00009F4D5C090E0019725E0289FF001299FFB
:1016D000F00D1124E055FD4F80818F70833009F0AB
:1016E000C6C064E1C7C08260848361E083E00E9479
:1016F0008905882361F090E00197C89FF001C99F98
:10170000F00D1124E055FD4F84818F7E848385E0A8
:101710008E9DF0018F9DF00D1124E055FD4F8481C9
:101720008061848389E001C08CE00E943E200E9499
:101730004B200E94CE180E94591648C2C23009F0B0
:10174000ECCB90914401911189C08E9DF0018F9D49
:10175000F00D1124E055FD4F9481892F807194FD87
:1017600073C0408150E0EFE0F1E09191973021F0BB
:101770008F5F8C30D1F701C0282EC0913A01809143
:101780003901222D30E0205A3F4F90E00C2F10E01D
:101790004217530761F5EC0133E0CC0FDD1F3A959A
:1017A000E1F7FE01EC50FE4FE00FF11F80818B50FE
:1017B000863010F481E049C085E08E9DF0018F9D58
:1017C000F00D1124E055FD4F8181815081838111FD
:1017D00003C0872D0E948F2ACC50DE4FC00FD11F2F
:1017E00088816AE00E9438379254988330C023E0A1
:1017F000880F991F2A95E1F786509C4FEC01C00F86
:10180000D11F8881882311F083E01FC00E94C31676
:10181000883211F484E019C091E0980F988395E024
:10182000989FD0011124AE5CBC4F9E9DF0019F9DFE
:10183000F00D1124E055FD4F01900D929A95E1F7BE
:10184000872D0E948F2A03C08CE00E943E200E94B8
:1018500059160E944B200E94CE18B8C186E10E9402
:101860003E20B4C188E00E943E20C2E3D2CB60910A
:101870003D0166958C2F0E94C5156C0185E08E9DFB
:10188000E0018F9DD00D1124C055DD4FFE01A0EA6F
:10189000B1E001900D928A95E1F781E08093A1017A
:1018A000898181508983811103C0872D0E948F2AED
:1018B000C601D7FE02C081509F4FC92FD92FDD0F1F
:1018C000DD0BA92EC60160E071E00E94523765E190
:1018D00070E00E945237F62E182FC1110AC0C09036
:1018E000A401E090A3010091A20121E04091A00198
:1018F000B8C0E091A00180ED8E0F803158F4EF70F8
:10190000F0E0EE0FFF1FEA59FD4FE491C090A201F5
:10191000CE0E02C0CC24C3940E94683624E630E088
:1019200040E050E00E94D536D62E90913F01990FAD
:10193000985DEC2CEE0CEC0CE90E61E083E00E946B
:10194000890590E0019725E0289FF001299FF00D7F
:101950001124E055FD4F80814091A001982F9427DC
:101960009F7009F483C0453321F48F70833009F4EC
:101970007DC0DE1408F06DC0EE24EA94EA0C6FE23C
:101980008E2D0E941D140091A00180ED800F8031EA
:1019900060F4E02FEF70F0E0EE0FFF1FE959FD4F0C
:1019A0008491B090A301B80E01C0B12C80EB800FE0
:1019B0008031B0F561E28E2D0E941D14902F9F7032
:1019C000E92FF0E0EF5FFE4FE0818E2F90E08D3049
:1019D000910508F0ACCEFC01E059FF4F0C9466373E
:1019E000DD27CE53DE4F8881865F18C0DD27CE53BA
:1019F000DE4F8881869512C0DD27C758DA4F88816F
:101A00008F71805C0BC0DD27CF55DB4F88818062F2
:101A100005C0DD27CF55DB4F88818068888387CE5E
:101A200090E8900F903160F50E94683624E030E035
:101A300040E050E00E94D536672B682B692B01F1FE
:101A40008091A0012F2D412F6A2D8F700E94AB290C
:101A50006ECEC090A401E090A3010091A20120915C
:101A6000A1016F2D812F0E94382A61CEE4E0EE9E05
:101A7000C001112463E070E00E945237E62E79CF56
:101A80008091A0018053803108F04AC02C2D0C2C8D
:101A9000000C330BAB2DBB0CBB0B0E946C379B01B6
:101AA000AC016C2DCC0C770B880B990B0E94512844
:101AB0004B015C0190913D0180914A01890F0E9488
:101AC000A22A880C991CAA1CBB1C282F30E0C90133
:101AD000880F991F092E000CAA0BBB0B880D991DAE
:101AE000AA1DBB1D40914901042E000C550B660B2D
:101AF000770B840F951FA61FB71F20913F01820F00
:101B0000911DA11DB11DBC01CD016F5F7F4F8F4F96
:101B10009F4F22E030E040E050E00E94D5361FC0E9
:101B200090913D0180914A01890F0E94A22A282F9D
:101B300030E021503109220F331F80914901280FD5
:101B4000311D87FD3A9580913F01280F311D2F5F90
:101B50003F4F37FF02C02F5F3F4F35952795D22E5D
:101B600061E083E00E94890590E0019725E0289FCD
:101B7000F001299FF00D1124E055FD4F8081209147
:101B8000A001982F92279F7099F0253319F48F7038
:101B9000833071F0DD27C758DA4F6881629566950A
:101BA00067700F2D212F4D2D8E2D0E947814BFCDE3
:101BB000FD2D04E0F002C001112463E070E00E94FA
:101BC0005237D62EE7CF863009F077C8872DDF91C0
:101BD000CF911F910F91FF90EF90DF90CF90BF902A
:101BE000AF909F908F907F906F905F904F903F90BD
:101BF0002F9008952F923F924F925F926F927F9213
:101C00008F929F92AF92BF92CF92DF92EF92FF920C
:101C10000F931F93CF93DF93CDB7DEB7A6970FB681
:101C2000F894DEBF0FBECDBF88EAE4EFF1E0DF013C
:101C30001D928A95E9F71D8A1E8A1F8A188E198AB5
:101C40001A8A1B8A1C8A1D861E861F86188A198678
:101C50001A861B861C8688E0EFE6F1E0DE0111960D
:101C600001900D928A95E1F71092EF011092F00128
:101C70001092F1011092F20180913C01853068F0E0
:101C80000E94683624E130E040E050E00E94D53602
:101C9000672B682B692B09F499C41092F3010E94F9
:101CA000683627E030E040E050E00E94D5366B0116
:101CB00037E0C30ED11C0E94683622E030E040E0DD
:101CC00050E00E94D5366D5F7F4F8FEF8C0D8D8772
:101CD00069876230710519F091E09093EF0191E00E
:101CE000960F9A8B8E8787E08A876430710519F08A
:101CF00081E08093F0016330710531F41A8219821A
:101D000066246394712C02C0612C712C0E94683689
:101D100022E030E040E050E00E94D5366D5F7F4F1A
:101D200081E08C0D8F8B94E19F876B87623071050A
:101D300019F091E09093F101888F81E0860F8C8BF0
:101D400084E1888B87E08C876430710519F081E02D
:101D50008093F2016330710529F418861F82B2E086
:101D60006B0E711CEFEEF1E0FEA3EDA39E012B5E66
:101D70003F4F3A8F298F68EA72E07E8F6D8F5E0148
:101D800071E1A70EB11C80EA92E098A38F8F7E01CB
:101D90009DE0E90EF11CA4EAB2E0BAA3A9A34E01AA
:101DA000B9E08B0E911CECE9F2E0FCA3EBA32FEE63
:101DB00031E03C8F2B8FB3E02B2E312C412C512C5A
:101DC000AB8DBC8D8D91BC8FAB8F813039F5E98D9A
:101DD000FA8D10810E946836A20191010E94D536C9
:101DE0001F5F610FAD8DBE8D6C93F50180818F5F9C
:101DF000AF8DB8A18C93F70110810E946836115005
:101E0000A20191010E94D536161BA9A1BAA11C936B
:101E1000F40180818150ABA1BCA18C93E98DFA8D36
:101E20003196FA8FE98F2D8D3E8D2F5F3F4F3E8F7C
:101E30002D8F3FEFA31AB30A6F8D78A16F5F7F4F8D
:101E400078A36F8F7FEFE71AF70A89A19AA101960D
:101E50009AA389A39FEF891A990AABA1BCA11196F5
:101E6000BCA3ABA3EB8DFC8DE35FF14009F0A8CFE1
:101E70006114710469F40E94683622E030E040E0A9
:101E800050E00E94D536672B682B692B09F4B1C34B
:101E900084E190E08C199D09959587951C2D180F6C
:101EA00041E0410FC60195958795F82EFC01A3E00E
:101EB000EE0FFF1FAA95E1F7EC50FE4FDF019C01EA
:101EC00050E068E042175307B4F011966C931197F5
:101ED00012966C93129713966C93139714966C93B7
:101EE000149715966C93159716966C9316972F5F0B
:101EF0003F4F1896E7CF29813A81232BB9F4DF01B0
:101F00009C01612F70E06217730784F012961C9297
:101F1000129713961C92139714961C921497159669
:101F20001C9215972F5F3F4F1896EDCF2B813C8168
:101F3000232B19F521E02F0D30E0D90173E0AA0F12
:101F4000BB1F7A95E1F7AC50BE4F612F70E062176E
:101F500073079CF011961C92119712961C9212977F
:101F600013961C92139714961C92149715961C9214
:101F700015972F5F3F4F1896EACF2D813E81232B77
:101F800071F42FEF210F30E02817390744F0128247
:101F9000138214821582168201963896F5CF2F810E
:101FA000388581E08F0D232BA9F4282F30E0F9012B
:101FB00063E0EE0FFF1F6A95E1F7EC50FE4F42170A
:101FC000530744F012821382148215822F5F3F4F11
:101FD0003896F5CF90E0FC0123E0EE0FFF1F2A9525
:101FE000E1F7EC50FE4F212F30E0281739073CF085
:101FF000128213821482158201963896F6CF6FEE04
:1020000071E07C8F6B8F00E010E085E0882E912CD2
:10201000A12CB12CAB8DBC8D8D91BC8FAB8F811160
:1020200017C00E946836A50194010E94D536672B1F
:10203000682B692B09F4EDC20BC081E08B0F28E0FF
:10204000A29FD0011124AC50BE4FA80FB11D1C920D
:102050000F5F1F4F04301105E9F610E0ADA1BEA1DE
:102060008D91BEA3ADA3813019F4812F0E94321748
:102070001F5F143099F7B3E06B16710461F0B4EF91
:10208000EB2EB1E0FB2E15E0412E512C612C712C72
:1020900004EEB02E10C0F601A3E0EE0FFF1FAA95CC
:1020A000E1F7EC50FE4F88E0818382838383848351
:1020B00085838683E4CF8701C12CD12CF8018081F0
:1020C000883059F40E946836A30192010E94D536E7
:1020D000672B682B692B09F4DEC2FFEFCF1ADF0AEA
:1020E0000F5F1F4F28E0C216D10441F738E0E30E1E
:1020F000F11C6CE9E61662E0F606E9F60CEA12E07D
:1021000075E0C72ED12CE12CF12CBB24B3940E9496
:102110006836A70196010E94D536672B682B692B7C
:1021200019F4D801BC9202C0F80110820F5F1F4F52
:10213000F2E0003B1F0759F78091F301811129C09C
:102140004FEEE42E41E0F42E1FE153E0452E512CDA
:10215000612C712C66E0862E912CA12CB12CD7011C
:102160008D917D01813059F40E946836A30192015E
:102170000E94D536672B682B692B09F48FC21F5F2D
:10218000133269F78091F3018823E9F080E090E051
:1021900025C005E010E036E0C32ED12CE12CF12C57
:1021A0000E946836A70196010E94D536660F862FD9
:1021B000880F880F680F615E80E00E94CE16015084
:1021C000110971F7DFCF0E94683622E030E040E06D
:1021D00050E00E94D536CB01880F991FFC01E151D8
:1021E000FE4F2081211101C001966BE0680F0E9413
:1021F000CE160E94A51F0E9469181AE7E12E15E06D
:10220000F12E0AE6202E05E0302EEAE5F5E0FC8FFF
:10221000EB8FC12CD12C83E0882E912CA12CB12CDA
:1022200092E0492E512C612C712C8091F301F7E042
:102230008F9FC001112408968C159D050CF48AC04F
:102240000E946836A50194010E94D536672B682B41
:10225000692B09F06DC08091F30181110AC00E94C1
:102260006836A30192010E94D5368B01000F111F21
:1022700002C000E010E0F801E151FE4F80818111C1
:1022800002C00F5F1F4FF801E855FD4F2081298FD5
:10229000F801EC55FD4F6081062E000C770B621B98
:1022A000710927FD73956F5F7F4F072E000C880B18
:1022B000990B0E943728398D630FD1016C93F80177
:1022C000E056FD4FB081B98FF801E456FD4F6081B3
:1022D000062E000C770B6B1B7109B7FD73956F5FB2
:1022E0007F4F072E000C880B990B0E943728498DD1
:1022F000460FEB8DFC8D4083D1016C9180913901AB
:10230000681799F080913A01481779F0B8E06B9F0F
:10231000F0011124EE54FB4FE40FF11D8081811177
:1023200004C08C2D0E94491D05C0F701108202C017
:10233000D7011C92BFEFCB1ADB0AEFEFEE1AFE0AB1
:10234000FFEF2F1A3F0A2B8D3C8D2F5F3F4F3C8FA5
:102350002B8F6BCF6FEE71E07A8F698FE4EA6E2E70
:10236000E2E07E2EF8EA4F2EF2E05F2E8CE992E05A
:102370009C8F8B8FA0EA2A2EA2E03A2E81017C014D
:10238000620153017E8F6D8FED8DFE8D8191FE8FE9
:10239000ED8F8130E9F5812C912C8091F301F7E0EC
:1023A0008F9FC00111240296881599058CF1D501E3
:1023B0002C91022E000C330B2F5F3F4F032E000C8D
:1023C000440B550BF6016081062E000C770B880B31
:1023D000990B0E9451286F8FD7012C91022E000C6F
:1023E000330B2F5F3F4F032E000C440B550BF801AE
:1023F0006081062E000C770B880B990B0E945128E8
:1024000040E08F8D0E94291BFFEF8F1A9F0AC5CFD6
:102410002FEFA21AB20A3FEFC31AD30A6FEFE61AE0
:10242000F60A0F5F1F4F8D8D9E8D835F914009F0DF
:10243000ABCF80913C0163E00E9438379923E1F0F3
:1024400090913C0180910001981708F04BC037C172
:10245000FFEF6F1A7F0A2FEF421A520A6B8D7C8DA5
:102460006F5F7F4F7C8F6B8F7FEF271A370A898DC5
:102470009A8D835F914021F3E98DFA8D8191FA8FD6
:10248000E98F813029F7D3012C91022E000C330BF8
:102490002F5F3F4F032E000C440B550BF201608160
:1024A000062E000C770B880B990B0E945128162FD3
:1024B000AB8DBC8D2C91022E000C330B2F5F3F4F48
:1024C000032E000C440B550BF1016081062E000C0D
:1024D000770B880B990B0E94512842E0812F0E94B4
:1024E000291BB6CF80913B0190E0019725E0289F02
:1024F000F001299FF00D1124E055FD4F80818039B6
:1025000009F4DDC08091F30181110AC00E94683690
:1025100022E030E040E050E00E94D536660F01C076
:1025200060E0E62FF0E0E151FE4F8081811101C0B3
:102530006F5F062F10E0F801E855FD4FF080F801BD
:10254000EC55FD4F6081062E000C770B6F19710959
:10255000F7FC73956F5F7F4F072E000C880B990B6C
:102560000E943728F60EF801E056FD4FE080F80192
:10257000E456FD4F6081062E000C770B6E19710931
:10258000E7FC73956F5F7F4F072E000C880B990B4C
:102590000E943728E60E0E94C316B8E0FB9EF001A9
:1025A0001124E650FC4FEE0DF11D91E0980F908341
:1025B00025E0829FF0011124EE5CFC4F80E98083CE
:1025C00081E0818312821382148279C081E080933A
:1025D000F3018093EF018093A8028093A00283E12E
:1025E0008093A40286E080939C0280E00E943217D0
:1025F000A3CD0E94683624E030E040E050E00E9425
:10260000D536660F771FFE01E60FF71F1282118283
:102610003FCCC80181709927B82FBB0FBB0FB80FF3
:1026200022E02B0FC80195958795AF2D6BE0689F31
:10263000A00D1124222423942A0E8FEF8A0F90E0FC
:102640002C0143E0440C551C4A95E1F740E050E072
:10265000312CE22FF0E0FA8FE98F281639060CF4BE
:10266000ECCC2B2F30E0B201640F751FE98DFA8D91
:10267000E217F30764F0F901E60FF71FEC50FE4F85
:102680006894EE24E3F8E0822F5F3F4FEFCF01968E
:10269000485F5F4FE2CFD801BC921FCD0E946836E1
:1026A000A50194010E94D536E12FBAE06B9FE00DA1
:1026B00011246E2F81EE810F0E94CE1660CDA6965A
:1026C0000FB6F894DEBF0FBECDBFDF91CF911F9143
:1026D0000F91FF90EF90DF90CF90BF90AF909F90C1
:1026E0008F907F906F905F904F903F902F900895C4
:1026F0008F929F92AF92BF92CF92DF92EF92FF9212
:102700000F931F93CF93DF9380913C01811103C0FE
:102710008FEF80933C0180914B0190914C01A091EF
:102720004D01B0914E014091A5015091A6016091DB
:10273000A7017091A801481759076A077B070CF099
:102740006EC020913C018093A5019093A601A093B7
:10275000A701B093A8012093A90105EA11E0E801BF
:1027600020E030E02F5F3F4FCE01A90145305105F9
:1027700039F4259625303105A9F7C4E6D0E02BC001
:1027800088809980AA80BB80FC01C580D680E780C4
:10279000F084C814D904EA04FB04CCF465E0FE011B
:1027A000AEEBB1E001900D926A95E1F765E0FC01B6
:1027B0003596DE0101900D926A95E1F765E0EEEB4A
:1027C000F1E0DC01159601900D926A95E1F74F5FFB
:1027D0005F4F0596CBCFBE016F5B7E4FCE010E944F
:1027E0004F292596CD37D105B1F740914B01509136
:1027F0004C0160914D0170914E0195E080E0F8012F
:10280000C080D180E280F380C416D506E606F706C4
:1028100009F4892F0B5F1F4F915089F701C080E0A9
:10282000DF91CF911F910F91FF90EF90DF90CF90AC
:10283000BF90AF909F908F9008951F93CF93DF9399
:10284000C82F162F80914101811106C00E94FB1EE6
:102850000E94991A0E942A1ED0E0FE01E65AFA4F01
:10286000608170E0FE01E659FA4F808190E00E949D
:102870001B1E80914101811107C0CE55DB4F88811D
:1028800086FD02C0812F01C080E20E9493270E9432
:1028900027282D9864E670E080E090E00E94982858
:1028A0002D9ADF91CF911F910895CF93C82F8091DA
:1028B0004101811106C00E94FB1E0E94991A0E94CC
:1028C0002A1E60913A0170E08091390190E00E94E7
:1028D0001B1E8C2F0E9493270E9427282E9864E6A7
:1028E00070E080E090E00E9498282E9ACF910895A1
:1028F0008F929F92AF92BF92CF92DF92EF92FF9210
:102900000F931F93CF93DF93962FE82FF0E0DF0113
:10291000AD53BE4F3C91E658FA4F431708F483C0BD
:1029200088E0289FD0011124AE54BB4FA00FB11DE9
:102930001C921082C62FD0E0C0905701D090580151
:10294000E0905901F0905A0187E06631F0F08C9FD9
:10295000D0018D9FB00D1124FD01E457FD4FA491CE
:1029600084E6A89FF0011124AF01FF0F660B770BDF
:102970004C0D5D1D6E1D7F1D4093570150935801F6
:102980006093590170935A011BC08C9FB0018D9FB9
:10299000700D1124FB01E457FD4F6491460157016E
:1029A000860E911CA11CB11C809257019092580177
:1029B000A0925901B0925A019F3011F4109248012F
:1029C000122FB92E0E94683627E02C9FF0012D9F10
:1029D000F00D1124E357FD4FE491CE2ED12CE12CC4
:1029E000F12C24E630E040E050E00E94D5366C1532
:1029F0007D058E059F05FCF489E0982EB91002C074
:102A000041E001C040E0602F812FDF91CF911F9105
:102A10000F91FF90EF90DF90CF90BF90AF909F907D
:102A20008F900C94291B341B3C938081803418F0C8
:102A30008F71805E8083DF91CF911F910F91FF9006
:102A4000EF90DF90CF90BF90AF909F908F900895C0
:102A50003F924F925F926F927F928F929F92AF922E
:102A6000BF92CF92DF92EF92FF920F931F93CF937B
:102A7000DF93682E862EF42E0E94683628E030E020
:102A800040E050E00E94D536C0913901E0913A0112
:102A9000F0E088E0C89FE0011124DE01AE54BB4F96
:102AA000AE0FBF1F8FEF8C9300E010E0462E512C2D
:102AB00099E0C92ED12C23E0322E712C912CC20129
:102AC000800F911FB6010E945237E82E632D0E949D
:102AD000443791509301290F311D97FD3A9581504C
:102AE000A401480F511D87FD5A9583E0220F331F23
:102AF0008A95E1F7D901AC50BE4FA40FB51F8C9158
:102B00008150883C20F5D901A650BC4FA40FB51FB9
:102B10006C9170E0A1E0B0E0FF2011F0A0E0B0E027
:102B20006A9F50016B9FB00C7A9FB00C1124AB28A8
:102B300071F42E543B4FD901A40FB51F8C918F9D7A
:102B4000C0011124892B19F481E08E0D07C00F5F9D
:102B50001F4F0930110509F0B2CF80E0CE54DB4F92
:102B6000EC0FFD1F1082DF91CF911F910F91FF900D
:102B7000EF90DF90CF90BF90AF909F908F907F901D
:102B80006F905F904F903F900895CF92DF92EF92B9
:102B9000FF920F931F93CF93DF93C62FE82FF0E0A0
:102BA0009F01225031098170829F202D1124CF0175
:102BB000019762E070E00E94523733978E9FD02DCC
:102BC00011243091390160913A0170E0C22E022E39
:102BD000000CDD080D2F0D2E000C110BF801E60F77
:102BE000F11DA601430F511DA3E0440F551FAA95E7
:102BF000E1F7CA018E549B4F7C01EE0EFF1ED701F8
:102C00008C91882319F0320F6D0F0DC04C505E4F20
:102C1000E40FF51F40814150473C28F4320F6D0FFF
:102C20007F5F7C13DBCF90E0982F8827B5E16B9F07
:102C3000800D911D1124830F911DDF91CF911F9164
:102C40000F91FF90EF90DF90CF900895CF93DF9397
:102C5000C82F0E94683624E630E040E050E00E9431
:102C6000D53680E09FE0C99FD0011124A05BBC4F06
:102C70009EE0C99FA00111244F5F5E4FC62FD0E098
:102C8000FA01E80FF11D208130E0FD01E20FF31F92
:102C9000E4916E1748F0F9013196EA0FFB1FE491B9
:102CA000F0E0CE17DF0714F08F5FEACFDF91CF910E
:102CB0000895EF92FF920F931F93CF93DF9300D06D
:102CC00000D01F92CDB7DEB720EB32E0F90110E063
:102CD0008FEF9081911102C080831F5F359693E042
:102CE000E233F907B1F780EB92E060E070E06F5FEC
:102CF0007F4FAC017B01AAE1EA16F10429F40596A5
:102D00006A317105A1F726C0DC01FC91DA01159644
:102D1000EC91EF17C8F405E0FC01DE01119601907B
:102D20000D920A95E1F705E0FA013596DC01019074
:102D30000D920A95E1F705E0FE013196DA0115964C
:102D400001900D920A95E1F7BFEFEB1AFB0A4B5F7A
:102D50005F4FD1CFF90180818F3F09F410822B5F43
:102D60003F4FF3E022333F07A9F784E1811B0F9027
:102D70000F900F900F900F90DF91CF911F910F91B7
:102D8000FF90EF900895E2E3F3E080E090819923D3
:102D900021F08F5F35968832C9F70895CF92DF9280
:102DA000EF92FF920F931F93CF93DF93D62F082FAD
:102DB00010E0F801E855FD4FC080F801EC55FD4FDB
:102DC0006081062E000C770B6C197109C7FC739596
:102DD0006F5F7F4F072E000C880B990B0E943728DE
:102DE0000C2C000CDD08EE08FF08C60ED71EE81EEE
:102DF000F91EF801E056FD4FC081F801E456FD4F81
:102E00008081682F880F770BCB018C1B9109C7FD40
:102E10009395BC016F5F7F4F072E000C880B990BB9
:102E20000E9437280C2FCC0F110B220B330BDC0127
:102E3000CB01800F911FA21FB31F960143E0220F09
:102E4000331F4A95E1F72C503E4FF901E80FF91F67
:102E5000D083DF91CF911F910F91FF90EF90DF9082
:102E6000CF9008952F923F924F925F926F927F92F0
:102E70008F929F92AF92BF92CF92DF92EF92FF928A
:102E80000F931F93CF93DF9300D000D000D0CDB726
:102E9000DEB78D8390E09C0128553D4F3A8329830E
:102EA000D9010C91002E000C110B01501109FC01ED
:102EB000EC55FD4F5F019C0120563D4F1901DC018F
:102EC000A456BD4FBC83AB83BD81B753BE83E2E044
:102ED0004E2E512C612C712CF8EC9F2EA5E18A2EE0
:102EE000DD808D0CD5018C91082E000C990B01967C
:102EF000801791070CF446C0F1018081780173E0DE
:102F0000EE0CFF1C7A95E1F79701280F311D87FD24
:102F10003A95D901AD50BE4F6D018C91883069F45E
:102F20000E946836A30192010E94D536882D969E94
:102F3000800D1124F601808302C0EE81EC93AB81F9
:102F4000BC818C91F701E80FF11D87FDFA959F0177
:102F50002B503E4F7901D9018C91883069F40E9441
:102F60006836A30192010E94D536882D969E800D69
:102F70001124F701808303C0DE80D901DC920F5F4A
:102F80001F4FB0CFD1010C91002E000C110BBD8151
:102F9000BD52BE8342E0442E512C612C712C52ED67
:102FA000D52E65E1C62EED81CE0EAB81BC812C9174
:102FB000822F022E000C990B801791070CF440C051
:102FC000E981FA818081980148E08402200D311D59
:102FD0001124D901A451BE4F7D018C91883069F430
:102FE0000E946836A30192010E94D5368C2DD69E90
:102FF000800D1124F701808302C0EE81EC93D5018E
:103000008C91F80128E08202E00DF11D1124DF010E
:10301000A450BE4F7D018C91883069F40E946836BF
:10302000A30192010E94D5368C2DD69E800D1124CD
:10303000F701808302C0EE81EC930F5F1F4FB5CF85
:10304000FD81FF5FFB83D501EC91D101BC91BD8374
:10305000A981BA818C9190E08C0133E0000F111F9F
:103060003A95E1F760E070E0F0E030E0E817F9074A
:10307000BCF0BD814B2F50E07801E60EF71E2417FF
:10308000350754F0DA01AE0DBF1DAC50BE4FDB80EA
:10309000DC924F5F5F4FF3CF0196685F7F4FE6CFC3
:1030A00026960FB6F894DEBF0FBECDBFDF91CF914D
:1030B0001F910F91FF90EF90DF90CF90BF90AF9056
:1030C0009F908F907F906F905F904F903F902F9048
:1030D00008951F93CF93DF938091F30181110CC06A
:1030E0000E94683622E030E040E050E00E94D53691
:1030F000EB01CC0FDD1F02C0C0E0D0E0FE01E151CA
:10310000FE4F8081811101C02196FE01E855FD4FDF
:103110001081FE01EC55FD4F6081062E000C770BEF
:10312000611B710917FD73956F5F7F4F072E000CB0
:10313000880B990B0E943728610F60933901FE01BB
:10314000E056FD4F1081C456DD4F6881062E000CFD
:10315000770B611B710917FD73956F5F7F4F072E0A
:10316000000C880B990B0E943728610F60933A017D
:10317000E091390188E0E89FF0011124EE54FB4F03
:10318000E60FF11DA081AA2329F0B0E0A758BA4F9D
:103190001C921082DF91CF911F910895CF92DF9200
:1031A000EF92FF9280915B0190915C01A0915D0193
:1031B000B0915E010196A11DB11D80935B019093BA
:1031C0005C01A0935D01B0935E0140915701509165
:1031D00058016091590170915A0180916301909159
:1031E0006401A0916501B0916601481759076A070B
:1031F0007B070CF456C080913F01853108F051C027
:1032000086E00E943E2080913F018F5F80933F01C6
:103210008091630190916401A0916501B091660174
:10322000880F991FAA1FBB1F8093630190936401AD
:10323000A0936501B09366010E94683628E030E0F3
:1032400040E050E00E94D53683E0860F90E0A0E099
:10325000B0E040914F015091500160915101709147
:103260005201480F591F6A1F7B1F40934F01509313
:10327000500160935101709352014091530150915C
:1032800054016091550170915601840F951FA61F3E
:10329000B71F8093530190935401A0935501B093AD
:1032A0005601C0904F01D0905001E0905101F09034
:1032B00052018091530190915401A0915501B09118
:1032C0005601C816D906EA06FB069CF520913F0177
:1032D00086E190E0821B910963E070E00E94523722
:1032E0009B012F5F3F4F032E000C440B550B609149
:1032F0005B0170915C0180915D0190915E010E9483
:10330000D536672B682B692BA1F482E00E949E05BD
:103310009FEFC91AD90AE90AF90AC80ED11CE11CA3
:10332000F11CC0924F01D0925001E0925101F092F5
:10333000520180914001882319F08150809340010F
:1033400080914101882319F081508093410180913F
:103350004201882319F081508093420180914301FA
:10336000882319F081508093430180914401882380
:1033700019F081508093440180914701882319F00E
:1033800081508093470181E00E949E05882369F067
:103390000E9468362CE030E040E050E00E94D536D4
:1033A000672B682B692B09F48DC083E00E949E0572
:1033B000C0905F01D0906001E0906101F0906201E7
:1033C00091E0C91AD108E108F108C80ED11CE11C2E
:1033D000F11CC0925F01D0926001E0926101F09215
:1033E000620161E087E00E948905882321F08091D5
:1033F0005B0180FF6AC062E087E00E948905882344
:10340000A1F060915B0170915C0180915D019091F0
:103410005E0122E030E040E050E00E94D5366130AD
:1034200071058105910509F45EC080915F0190915D
:103430006001A0916101B0916201CC97A105B10535
:10344000DCF060915301709154018091550190918D
:10345000560124E030E040E050E00E94D5368091F3
:103460004F0190915001A0915101B0915201281744
:1034700039074A075B071CF08EE10E943E208091CD
:103480005F0190916001A0916101B09162011816F5
:1034900019061A061B062CF01092EE0182E08093AA
:1034A000ED01E12CF12C8AE00E949E0590E0880F4E
:1034B000991FE816F9065CF50E9464258FEFE81A5B
:1034C000F80AF1CF0E94691870CF91E0C91AD108AB
:1034D000E108F108C0925F01D0926001E0926101C1
:1034E000F092620188CF80915F0190916001A0917C
:1034F0006101B09162010197A109B10980935F0157
:1035000090936001A0936101B09362018ECFFF9010
:10351000EF90DF90CF90089525E0829FC0011124A5
:10352000FC01EE5CFC4F1082118212821382148225
:1035300008954F925F926F927F928F929F92AF9277
:10354000BF92CF92DF92EF92FF920F931F93CF9390
:10355000DF938AEFA82E83E0B82EC0E0D0E095E09C
:10356000892E28E0422E512C612C712CCC2EC69431
:10357000C694C69488E0C89E60011124750100E0DD
:1035800010E0EC2FE7709E2EF801EC0DFD1DEB52C4
:10359000FE4F808190E0092C02C0959587950A9492
:1035A000E2F780FF1AC0F70180818823B1F0B801EB
:1035B000CE010E941B1E809142018823C9F10E9406
:1035C0006836A30192010E94D5366F5FE62FF0E0C6
:1035D000EA5BFC4F84910E9493270F5F1F4FFFEF20
:1035E000EF1AFF0A0830110579F6219688E0A80E37
:1035F000B11CC531D10509F0B9CF60913A0170E035
:103600008091390190E00E941B1E80E4DF91CF91F0
:103610001F910F91FF90EF90DF90CF90BF90AF90F0
:103620009F908F907F906F905F904F900C94932716
:10363000F701808190E00197889E9001899E300D6E
:103640001124F901EE5CFC4FE0816E2F62956F70E2
:10365000BDCFCF92DF92EF92FF920F931F93CF9344
:10366000DF93C42F28E0829FC00111248C010650F3
:103670001C4F060F111DF80180818111E8C10E94C5
:10368000C31691E0980FF8019083082F10E025E011
:10369000829FF0011124EE5CFC4F81E08183128255
:1036A00013821482C1111DC00E94683624E630E0E6
:1036B00040E050E00E94D53640E0262F30E0842FD5
:1036C00090E0FC01E25CFC4FE4914F5F6E17B8F3B1
:1036D000FC01E15CFC4FE491F0E02E173F077CF722
:1036E000C42F4C2F50E0FA013197E830F10508F073
:1036F000AEC1E358FF4F0C94663785E0809FE00130
:10370000819FD00D1124CE5CDC4F80E188830E9424
:10371000683624E630E040E050E00E94D5368091E3
:103720003C01680F698393C10E94683625E030E050
:1037300040E050E00E94D536672B682B692B51F48E
:1037400085E0809FF001819FF00D1124EE5CFC4F1D
:1037500081E209C085E0809FF001819FF00D112476
:10376000EE5CFC4F80E280830E94683625E0209F5B
:10377000E001219FD00D1124CE5CDC4F22E030E02F
:1037800040E050E00E94D5366F5F69838C8180688D
:103790003EC10E94683628E030E040E050E00E94E0
:1037A000D53685E0809FE001819FD00D1124CE5C4D
:1037B000DC4F80E3860F8883643018F481E08983CE
:1037C0000DC00E9468362DE030E040E050E00E94DD
:1037D000D5366D5F69838C8180688C830E946836E2
:1037E00026E030E040E050E00E94D536611120C074
:1037F0000E94683623E030E040E050E00E94D53679
:10380000C1E0C60F6C2F70E06F5F7F4F072E000C7A
:10381000880B990B0E94372885E0809FF001819FDB
:10382000F00D1124EE5CFC4F6283C61BC3830FC1F5
:10383000613009F00CC10E94683623E030E040E0BE
:1038400050E00E94D536C1E0C60F6C2F70E06F5F6C
:103850007F4F072E000C880B990B0E94372885E0BC
:10386000809FF001819FF00D1124EE5CFC4F862FAC
:10387000819582836C1B63838481806445C00E9430
:10388000683627E030E040E050E00E94D536F62E62
:1038900085E0809FE001819FD00D1124CE5CDC4F3C
:1038A000605C688381E089830E94683626E030E0AE
:1038B00040E050E00E94D53661110BC00E9468368E
:1038C00023E030E040E050E00E94D5366F5F6A832D
:1038D0000FC0613069F40E94683623E030E040E0B8
:1038E00050E00E94D53660956A838C8180648C8319
:1038F000F110ADC085E0809FF001819FF00D112493
:10390000EE5CFC4F848188608483A1C080E00E94CB
:10391000261695E0909FF001919FF00D1124EE5C2A
:10392000FC4F805B0CC081E00E94261695E0909FC2
:10393000F001919FF00D1124EE5CFC4F805A8083C2
:1039400081E0818384818068DFCF0E9468362BE02C
:1039500030E040E050E00E94D53685E0809FE001F5
:10396000819FD00D1124CE5CDC4F80E7860F8883C9
:1039700081E08983E62FF0E0EF5FFE4F848D843095
:1039800051F020F4813009F440C061C0863019F054
:10399000873079F15CC00E94683622E0C22ED12CBB
:1039A000E12CF12CA70196010E94D536611110C0BF
:1039B0000E94683625E0209FE001219FD00D112450
:1039C000CE5CDC4FA70196010E94D5366F5F3EC0EA
:1039D0000E94683625E0209FE001219FD00D112430
:1039E000CE5CDC4FA70196010E94D53660956A83B4
:1039F0000CC00E94683622E030E040E050E00E94B7
:103A0000D536672B682B692B11F58C8180648C83EC
:103A10001EC00E94683625E0209FE001219FD00D46
:103A20001124CE5CDC4F2AE030E040E050E00E9400
:103A3000D5366058688381E089830E94683624E027
:103A400030E040E050E00E94D5366D5F6A83DF9140
:103A5000CF911F910F91FF90EF90DF90CF9008953D
:103A600080913A01843038F081E08093930580930F
:103A700092058FEF06C081E08093930580939205B5
:103A800087E3809394058091D3019091D4010C94A5
:103A90009827BF92CF92DF92EF92FF920F931F93DE
:103AA000CF93DF93182FF62EE42E60913C0123E094
:103AB000260F665066310CF065E167FD60E02C3141
:103AC0000CF02AE1022E000C330B440B550B062E92
:103AD000000C770B880B990B0E945128B62E27E01B
:103AE000629FC0011124FC01E857FD4F6F01EF01F7
:103AF0002696FE0184918F70833069F028F481301E
:103B0000B1F0823019F125C0853099F008F1863086
:103B100001F503E01EC00E94683622E030E040E07C
:103B200050E00E94D536672B682B692B79F001E0B5
:103B300010C00E94683622E030E040E050E00E9471
:103B4000D536672B682B692B19F0F1CF02E001C045
:103B500004E0812F90E0FC01E658FA4F20E2029F3A
:103B6000B00C1124B082F601C490FC01ED53FE4F5D
:103B7000C082FE01C491FC01EE55FB4FC07FC860BE
:103B8000C08328E0F29EF0011124EE54FB4FEE0DAD
:103B9000F11D1F5F1083DF91CF911F910F91FF9057
:103BA000EF90DF90CF90BF900895CF93DF93C82F11
:103BB000D0E0FE01EE55FB4F808186FF09C088E012
:103BC0000E949E05811104C080914601813081F5DB
:103BD00080914201C658DA4F8823D1F088818056FF
:103BE000803260F40E94683629E030E040E050E026
:103BF0000E94D536FB01E95BFC4F15C00E94683678
:103C00002AE130E040E050E00E94D536FB0109C0D7
:103C1000E88180EA8E0F803210F48AE205C0EF71ED
:103C2000F0E0EF58F74F8491DF91CF910C949327F8
:103C3000DF91CF910895982F990F890F880F8F5F8B
:103C4000EEE8F5E085838483660F660F660F6150AA
:103C500066830895CF92DF92EF92FF920F931F93A6
:103C6000CF93DF939AE7E92E95E0F92E0AE515E068
:103C7000CAE6D5E0D12C2AE0C22EF70181917F015E
:103C8000803208F45EC080914501811150C0E091FE
:103C9000390180913A0198E0E99FF0011124EC503C
:103CA000FE4FE80FF11D2081822F6C2D0E943837C6
:103CB000A92FE92FF0E0E555FD4F808181111DC04E
:103CC0002830D9F0288130E0F801408150E0F90136
:103CD00083E0EE0FFF1F8A95E1F7EC50FE4FE40FF3
:103CE000F51F80810E943837A91307C0BA01C901A6
:103CF0000E941B1E8D2D0E94D51D888190E0209171
:103D0000390130E0281B390B2F5F3F4F233031053D
:103D1000C0F4F801608170E020913A0130E0261B88
:103D2000370B2F5F3F4F2330310558F405C0F801A2
:103D3000608170E0888190E00E941B1E8D2D0E94A2
:103D4000D51D0F5F1F4F2196D394F0E1DF1295CF61
:103D5000DF91CF911F910F91FF90EF90DF90CF9067
:103D600008950F931F93CF93DF9380914101882390
:103D700079F060913A0170E08091390190E00E9401
:103D80001B1E80E4DF91CF911F910F910C9493271C
:103D9000C0E0D0E000E010E0809139019E01280FE2
:103DA000311DC901019720913A01B801620F711DBF
:103DB00061507109FC0123E0EE0FFF1F2A95E1F726
:103DC000EC50FE4FE60FF71F20813FEF320F3630E9
:103DD00018F02F512C3428F40E941B1E8EE20E94F2
:103DE00093270F5F1F4F03301105B1F62196C330A3
:103DF000D10581F6BECFAF92BF92CF92DF92EF9204
:103E0000FF920F931F93CF93DF9304EF11E0C0E075
:103E1000D0E08AE0B82EEC2EE694E694E69488E0B2
:103E2000E89E70011124C12CD12C9C2F9770A92ED3
:103E3000B601CE010E941B1EF601EE0DFF1DEB52D6
:103E4000FE4F808190E00A2C02C0959587950A94D8
:103E5000E2F780FF4FC0F801EC0DFD1D2081222309
:103E600009F448C08FEF820F863020F081EE820F78
:103E70008C34F8F4E091390180913A0198E0E99F9F
:103E8000F0011124EC50FE4FE80FF11D80816B2DE5
:103E90000E943837392FE92FF0E0E555FD4F80813A
:103EA000811107C0822F0E943837391323C08EE258
:103EB00030C0283009F185EF820F8630F8F08BEEA4
:103EC000820F8630E8F081E9820F8C34D8F081E4EB
:103ED000820F8830C8F087E3820F8630B8F08DE219
:103EE000820F8630A8F083E2820F863078F0275E5A
:103EF000263070F080E20DC083E20BC085E209C07D
:103F00008BE207C08FE505C08FE303C086E201C0E6
:103F10008CE70E9493278FEFC81AD80A98E0C91639
:103F2000D10409F085CF2196085F1F4FC531D10517
:103F300009F071CFDF91CF911F910F91FF90EF901A
:103F4000DF90CF90BF90AF900895CF93DF9388EA32
:103F5000E2EBF4E0DF01482F1D924A95E9F7EAEF22
:103F6000F3E0DF011D928A95E9F788E1E5EDF1E0E4
:103F7000DF011D928A95E9F788ECE2E3F3E0DF01C7
:103F80001D928A95E9F7EAE6F5E02AE535E08AE749
:103F900095E0C3ECD1E062EA74E01192D9011D9280
:103FA0009D01DC011D92CD011992DB011D92BD0125
:103FB000B5E0EA37FB0789F7DF91CF910895E82F45
:103FC000E695E695E69598E0E99FF0011124EB521D
:103FD000FE4FE60FF11D282F277081E090E0A0E052
:103FE000B0E004C0880F991FAA1FBB1F2A95D2F703
:103FF0002081822B80830895CF93DF93CDB7DEB7E6
:104000002D970FB6F894DEBF0FBECDBF9DE0E7E75A
:10401000F1E0DE01119601900D929A95E1F790E0A2
:1040200070E0FE01E80FF91F411105C08081FB011E
:10403000E80FF11D10C0258105973EE0389FF00183
:10404000399FF00D1124EF5FFE4FE60FF71FE0815F
:10405000F0E0E20FF11DEE0FFF1FE157F84F259141
:1040600034912093D3013093D4012D960FB6F89458
:10407000DEBF0FBECDBFDF91CF910895E82FF0E0F6
:10408000EE0FFF1FEF5AF84F859194919093D40152
:104090008093D30108952F923F924F925F926F9237
:1040A0007F928F929F92AF92BF92CF92DF92EF92C8
:1040B000FF920F931F93CF93DF93CDB7DEB72B976C
:1040C0000FB6F894DEBF0FBECDBF0AE715E02AE6B3
:1040D00035E03A8329839AE5492E95E0592E22EA64
:1040E000622E24E0722E1B8235E0832E912CA12CAF
:1040F000B12CD8018C9181118EC00E94683620E8C5
:1041000030E040E050E00E94D536672B682B692BE9
:1041100009F03CC3E091390180913A01B8E0EB9F8E
:10412000F0011124EC50FE4FE80FF11D80819091B9
:10413000F30191111DC090E001976AE070E00E94C8
:1041400052379C0162E070E00E945237281B390B05
:1041500037FF02C02F5F3F4F35952795C901019664
:1041600062E070E00E9452376C01CC0CDD1C02C092
:10417000C12CD12CF601E151FE4F8081811103C089
:10418000EFEFCE1ADE0AF601E855FD4FE080F601AA
:10419000EC55FD4F6081062E000C770B6E197109EE
:1041A000E7FC73956F5F7F4F072E000C880B990B10
:1041B0000E943728E60EA981BA81EC92F601E056FA
:1041C000FD4FE080F601E456FD4F6081062E000CA5
:1041D000770B6E197109E7FC73956F5F7F4F072EA0
:1041E000000C880B990B0E9437284E2D460FF201C8
:1041F0004083A981BA816C91B8E06B9FF0011124D2
:10420000EE54FB4FE40FF11D80818111BFC28B8101
:104210000E94491DBBC2F3019081892F881F882706
:10422000881F8F5F92FF04C090915B0190FDAEC22A
:10423000212C312C282F30E03F832E834E815F814B
:10424000241635060CF0A2C2D8018C9190EC980F80
:10425000903A08F481C08F718531D1F5E091390130
:1042600080913A01B8E0EB9FF0011124EC50FE4F31
:10427000E80FF11D2081283009F4B5C2A981BA8167
:10428000EC91D2018C91B8E0EB9FF0011124EC503D
:10429000FE4FE80FF11D8081AAE0EA2E6E2D0E94EC
:1042A0003837392F822F0E94383739139CC2F301D7
:1042B000808183FF98C280E20E94551482E10E94AF
:1042C0003E20E0924001D3018C91877F8C9348C0BF
:1042D000893109F088C2EE24E394D12C65E08E2D5B
:1042E0000E94C51597FF02C081509F4F892F990FDB
:1042F000990BFC01E758FA4F80818F71893109F4DD
:10430000D394E394B5E0EB12E9CFDD2009F46BC25E
:104310000E94683622E030E040E050E00E94D5364E
:10432000672B682B692B09F05EC28AE20E94551444
:1043300083E10E943E2080913F0166E170E0681BAE
:104340007109072E000C880B990B0E943728862FC5
:1043500063E00E94B22B04C045E050E059874887D3
:10436000D3018C9185FF0DC00E94683623E030E0B8
:1043700040E050E00E94D536672B682B692B09F48A
:10438000ECC228853985215031092430310508F0E7
:10439000F9C14885598541705527888599850297C7
:1043A000849FF02C112421703327888599850397E9
:1043B000289F902D1124E981FA818081682F70E077
:1043C0009B012F0D311DF7FC3A95E0913901F0E08A
:1043D0002E173F0709F088C1D2015C91A92F092E41
:1043E000000CBB0BA50FB11DE0913A01F0E0AE1738
:1043F000BF0709F079C12114310409F0C3C1D80104
:10440000EC91EF71EE2EB7E0EB9FF00111249F01CC
:1044100028573D4F6901F9013396949180913F01EE
:10442000880F981B80914901880F981B9C830E94DC
:10443000683624E630E040E050E00E94D5366D83D7
:1044400061E084E00E9489058823A9F090E001974B
:1044500025E0289FD001299FB00D1124A055BD4F04
:10446000EC91EF70F0E0E557F74FE49112968C91E4
:10447000FE2EF80E01C0F12C3C814D81431708F04F
:1044800081C1F601329624913197E49130E040E009
:1044900050E06E2F70E080E090E00E9451289B0178
:1044A000AC016F2D7DEF7603D0011124AC59BF4FC5
:1044B0000E94FF3624E630E040E050E00E94D5360E
:1044C000D22E8FE20E94551464E06E0D8D2DD7FC24
:1044D00080E00E94B22BD3018C9183FF53C18E2DBB
:1044E00090E0FC013597E231F10508F04BC1EB5744
:1044F000FF4F0C9466370E946836A50194010E9414
:10450000D536672B682B692B09F03CC18DE00E94E2
:104510003E200E946836A50194010E94D5366C5F4A
:10452000609344010E94683624E130E040E050E0AE
:104530000E94D536672B682B692B09F0C1C261E058
:1045400080914F010E94B22BBBC280913D0184300B
:1045500008F418C185E00E949E05882309F40AC268
:1045600011C180914B0190914C01A0914D01B091EE
:104570004E01C397A105B1050CF404C10E94683631
:104580002AE030E040E050E00E94D536672B682BEF
:10459000692B09F003C2F6C061E084E00E9489053E
:1045A0000E94812B80E10E943E208AC20E946836D0
:1045B00022E030E040E050E00E94D536672B682BC7
:1045C000692B09F0DFC00E94683624E130E040E04A
:1045D00050E00E94D536E62EB5E06B9FF001112425
:1045E000E055FD4F848184FDCDC08FE00E943E20C8
:1045F0008E2D0E948F2AF80180818054808360C2B2
:10460000809147018111BEC081E10E943E2081E07E
:104610008093480155C280913F01863008F4B2C0B2
:104620000E946836A50194010E94D536672B682B3D
:10463000692B09F4D9C1A6C00E9468362AE030E08F
:1046400040E050E00E94D536643071058105910547
:104650000CF098C085E10E943E200E94683623E05D
:1046600030E040E050E00E94D536E62E60FF2DC0DD
:1046700080914F0190915001A0915101B091520150
:104680008A309105A105B1050CF41AC20197A10960
:10469000B10980934F0190935001A0935101B093C1
:1046A00052018091530190915401A0915501B09114
:1046B00056010197A109B1098093530190935401C8
:1046C000A0935501B0935601FBC185E00E949E0561
:1046D00090913D01882309F4EFC1963008F0ECC1B8
:1046E000EE2009F4EDC1C4CFD8015C915F715F3059
:1046F00009F448C02531310508F044C0F201F081C9
:10470000FC834F2F50E05B874A87FA01E90FF11DC8
:1047100097FDFA95E830F105A8F5A3E0220F331FC5
:10472000AA95E1F7D901AE54BB4F6D01CE0EDF1E45
:10473000D601EC90E11026C02C503E4FE20FF31F43
:10474000208121502E3BF0F423E0660F771F2A953D
:10475000E1F76E547B4FDA01A60FB71F1C928F0D45
:10476000E981FA818083FC819F0FD2019C93B8E09C
:104770008B9FF0011124EE54FB4FE90FF11D8B814B
:104780008F5F8083EFEF2E1A3E0A58CD0F5F1F4FC9
:10479000FB81FF5FFB8329813A812F5F3F4F3A8383
:1047A00029833FEF431A530A4FEF641A740AF0311A
:1047B00009F09FCC2B960FB6F894DEBF0FBECDBF8D
:1047C000DF91CF911F910F91FF90EF90DF90CF90ED
:1047D000BF90AF909F908F907F906F905F904F9021
:1047E0003F902F900895D8018C91805E803210F018
:1047F00091E001C09FEFE981FA818081F091390158
:10480000FC83F81730F5692F092E000C770B282F41
:1048100030E0261B370BD2014C9150E0E3E0220F31
:10482000331FEA95E1F7F901EE54FB4FE40FF51F52
:10483000E081E1110EC02C503E4FF901E40FF51F4D
:10484000208121502E3B28F4E2E0F0E0E61BF70B3C
:1048500073C0D2014C9150913A01541710F5A92F11
:10486000092E000CBB0B242F30E02A1B3B0BE8E089
:104870008E9FB0011124FB01EE54FB4FE20FF31F9A
:10488000E081E1110EC06C507E4FFB01E20FF31F7F
:10489000208121502E3B28F423E030E02A1B3B0BE3
:1048A00059C03C81831730F5692F092E000C770B16
:1048B000798768879B01280F311DE42FF0E0B3E072
:1048C000220F331FBA95E1F7D901AE54BB4FAE0F9B
:1048D000BF1F6C9161110EC02C503E4FE20FF31FB1
:1048E000208121502E3B30F4888599850296998746
:1048F000888736CD451718F5A92F990FBB0BB987B7
:10490000A8879D01240F311DB8E08B9FC0011124A1
:10491000FC01EE54FB4FE20FF31F408141110FC029
:104920008C509E4FFC01E20FF31F808181508E3B23
:1049300030F4E885F9853396F987E88711CD0E9430
:10494000683624E030E040E050E00E94D5369B011C
:104950002F5F3F4F3987288703CD0E94683624E0B8
:1049600030E040E050E00E94D536FB013196F987F7
:10497000E88707CD0E946836A50194010E94D536CC
:10498000672B682B692B09F0FDCE8EE00E943E203C
:1049900080913D01815080933D0192C08FE00E9443
:1049A0003E20C0904B01D0904C01E0904D01F09022
:1049B0004E010E94683622E330E040E050E00E9461
:1049C000D536A7019601261B370B480B590B2093B0
:1049D0004B0130934C0140934D0150934E01D8014F
:1049E0008C9180548C936CC084E10E943E20609135
:1049F000630170916401809165019091660122E0EC
:104A000030E040E050E00E94D536209363013093BF
:104A100064014093650150936601DA01C901019771
:104A2000A109B1098093570190935801A0935901AE
:104A3000B0935A0180913F01815080933F01809152
:104A4000530190915401A0915501B09156016C0110
:104A50007D01E3E0CE1AD108E108F1080E94683632
:104A600027E030E040E050E00E94D536A7019601F3
:104A7000261B370B480B590BDA01C9012093530150
:104A800030935401409355015093560140914F018A
:104A90005091500160915101709152018417950716
:104AA000A607B7076CF480934F0190935001A09331
:104AB0005101B093520104C0915090933D0110CE2A
:104AC00080E20E9455145ECE0F931F93CF93DF9325
:104AD0002091390180913A0190E048E0249F9001B3
:104AE0001124DC01A20FB31F60E070E01997A90147
:104AF000485051099C012F5F3F4F98E06831710584
:104B000061F1FD01E60FF71FEC50FE4FEA01C60F01
:104B1000D71FCC50DE4F8F010C1B1D0B2017310708
:104B2000CCF0808111EE180F1C3410F4805B0FC0A4
:104B300013E2180F163010F4885C09C0843E11F49B
:104B4000908306C019E1180F163010F4825D80833F
:104B50003196E1CF685F7F4FD1CFDF91CF911F9129
:104B60000F910895CF92DF92EF92FF920F931F93D0
:104B7000CF93DF936C017A018B01C0E0D0E0CE15BA
:104B8000DF0581F0D8016D918D01D601ED91FC9189
:104B90000190F081E02DC6010995892B11F0219635
:104BA000EECF7E01C701DF91CF911F910F91FF9052
:104BB000EF90DF90CF90089508952F923F924F92FB
:104BC0005F926F927F928F929F92AF92BF92CF929D
:104BD000DF92EF92FF920F931F93CF93DF9300D05A
:104BE00000D0CDB7DEB7DC016A3081F415968C9128
:104BF000159714968C93149716969C911697199660
:104C00008C911997890F16968C93FEC060526F3560
:104C100008F0F0C01496EC9014974E2C0E2C000C5B
:104C20005508E2E9F8E0F490E3E9F8E0E4910F2DAB
:104C300010E06623E1F081E090E04E2F477011F420
:104C400080E090E04E2F469546954695840F911D45
:104C5000809F6001819FD00C909FD00C11246C9D8F
:104C6000A0016D9D500D11244C56574F02C044E9D0
:104C700058E0040D151D101611060CF0BBC0169659
:104C80008C9116978F5F682F082E000C770B6B01A5
:104C9000CE0ED11C1C141D040CF0ACC06034710588
:104CA0000CF0A8C04115510509F4A4C087706B0130
:104CB00077FF03C027E0C20ED11C93E0D594C794C0
:104CC0009A95E1F7FC2D77FF04C0882311F0FFEFE0
:104CD000FC0D57FE05C0662777276419750902C0C9
:104CE00060E070E00038110524F090E8992E9E18DD
:104CF00001C09F2C961A0F2F0F2E000C110BFF3F97
:104D00001CF4E02EE09401C0E12C21E03E2F37702E
:104D100009F420E0E695E695E695922F9E0F090F9F
:104D2000111D0930110514F098E09F1B8E2C8F0E79
:104D300001E010E0082E02C0000F111F0A94E2F7F4
:104D4000DF2CD9185B01FE9CA00CB11C11244A0D6C
:104D50005B1DEFEFE09F7001E19FF00C1124E094E8
:104D6000F0947E2C282D30E82303400C511C112494
:104D70009201260F371F28553A4F9F0F692D70E07B
:104D8000FB01ED0DF11D6F019815A1F1B9011A019B
:104D9000B22CB41AB91440F5F1016490609E500130
:104DA000619EB00C1124BA82A982FC82EB8287FC3E
:104DB00005C0FB01B080B720AB28A082882371F02A
:104DC000F6E0F8155CF05B01E0E8AE0EB11CF50111
:104DD00050806C8065205A8065286082FFEF2F1A12
:104DE0003F0A6F5F7F4FD4CF83944C0D5D1D2058D9
:104DF0003F4FCACF18968C9118978B5F14969C9151
:104E00001497890F14968C9381E090E00F900F9087
:104E10000F900F90DF91CF911F910F91FF90EF9026
:104E2000DF90CF90BF90AF909F908F907F906F90CA
:104E30005F904F903F902F900895089580E090E00C
:104E400008958F929F92AF92BF920F931F93CF932B
:104E5000DF93CDB7DEB7A1970FB6F894DEBF0FBED4
:104E6000CDBF19A2423008F44AE08E010F5D1F4FFA
:104E7000842E912CA12CB12CA50194010E940737FE
:104E8000E62FB901CA0101501109EA3014F4E05DBE
:104E900001C0E95CD801EC93232B242B252B61F76F
:104EA0000115110571F0F80101900020E9F7319723
:104EB000AF01401B510BB8018EE895E00E94B2256E
:104EC00002C080E090E0A1960FB6F894DEBF0FBE5E
:104ED000CDBFDF91CF911F910F91BF90AF909F9069
:104EE0008F9008950E948F3780E0E8EAF5E0811105
:104EF0008FEF002481938193819381930394D1F761
:104F0000089520919E05282329F490919D059823CA
:104F100081E009F480E00895682F70E080E090E07F
:104F20004AE00C942127682F8EE895E00C94DD254B
:104F30000F931F93CF93DF938C01C0E0D0E0F80173
:104F4000EC0FFD1F6491662341F08EE895E00E940E
:104F5000DD25892B11F02196F2CFCE01DF91CF9183
:104F60001F910F910895CF92DF92EF92FF92CF930E
:104F7000DF9397FF19C06B017C018DE20E9493279C
:104F8000EC0166277727CB016C197D098E099F09F3
:104F90004AE00E9421278C0F9D1FDF91CF91FF9047
:104FA000EF90DF90CF9008954AE0DF91CF91FF908E
:104FB000EF90DF90CF900C942127BC01990F880BC4
:104FC000990B0C94B327EF92FF920F931F93CF93FB
:104FD000DF93EC01C40FD11DFB01E20FF11D20E1B5
:104FE000E22E01708C179D075CF59B0177FF02C0D4
:104FF00020E030E0AF01E134F10514F040E450E08E
:1050000024173507DCF480389105A8F4A90111E0D4
:1050100041FD14E040FD110F42FD1295487FE49ED2
:10502000D0011124A80FA855BA4F4C91412B011162
:1050300001C041274C932F5F3F4FDCCF0196D2CF69
:10504000DF91CF911F910F91FF90EF900895E8EAC3
:10505000F5E080E0A0E0B8E000800EBC8111012CFA
:105060001197A0FDFDCF0192B9F70DB40895CF922D
:10507000DF92EF92FF92611571058105910549F06C
:105080006B017C010E946836A70196010E94D5360B
:1050900003C060E070E0CB01FF90EF90DF90CF9015
:1050A0000895CF92DF92EF92FF920F931F936217B2
:1050B00073078407950784F489019A016B017C01C9
:1050C000C901B8016C197D098E099F090E94372812
:1050D0006C0D7D1D8E1D9F1D1F910F91FF90EF90F8
:1050E000DF90CF9008953FB7F8948091A4059091F8
:1050F000A505A091A605B091A70526B5A89B05C05A
:105100002F3F19F00196A11DB11D3FBFBA2FA92F46
:10511000982F8827820F911DA11DB11DBC01CD01C3
:1051200042E0660F771F881F991F4A95D1F70895AF
:105130008F929F92AF92BF92CF92DF92EF92FF92A7
:105140006B017C010E9473284B015C01C114D104E6
:10515000E104F104F1F00E947328DC01CB0188190D
:105160009909AA09BB09883E9340A105B10570F3CE
:1051700021E0C21AD108E108F10888EE880E83E028
:10518000981EA11CB11CC114D104E104F10419F74B
:10519000DDCFFF90EF90DF90CF90BF90AF909F90CA
:1051A0008F9008951F920F920FB60F9211242F9394
:1051B0003F938F939F93AF93BF9380918A05909174
:1051C0008B05A0918C05B0918D053091A30523E04E
:1051D000230F2D3720F40196A11DB11D05C026E82F
:1051E000230F0296A11DB11D2093A30580938A056C
:1051F00090938B05A0938C05B0938D058091A405A9
:105200009091A505A091A605B091A7050196A11DB5
:10521000B11D8093A4059093A505A093A605B09316
:10522000A705BF91AF919F918F913F912F910F90C3
:105230000FBE0F901F901895BC0180E090E00C9479
:1052400098288FB18095807F669B88601C9B8460C6
:105250000895CF92DF92EF92FF920F931F93CF9317
:10526000DF93EB017B0125E0E20EF11C8B016C0169
:10527000C61AD70AC601800F911F0E94BF36F801D7
:1052800081938F01EE15FF05A9F7CE01DF91CF9134
:105290001F910F91FF90EF90DF90CF900895AF9204
:1052A000BF92CF92DF92EF92FF920F931F93CF9313
:1052B000DF9300D0CDB7DEB78B016B0125E0C20EC6
:1052C000D11C7B015C01A61AB70AC5018E0D9F1D7A
:1052D000F70161917F019A838983CE0101960E9433
:1052E0002906EC14FD0489F7C8010F900F90DF9197
:1052F000CF911F910F91FF90EF90DF90CF90BF90D3
:10530000AF9008950E94742780914101811109C0D6
:105310000E94FB1E0E94B11E0E94991A0E942A1E22
:1053200002C00E94B11E85E00E943E200E94301DF6
:105330000E9427280E94512B90914001992351F0FF
:105340000E94683624E030E040E050E00E94D5360C
:1053500081E0860F0895FF920F931F93CF93DF9301
:10536000F82EC62F142F022FDFEFD60F6AE28D2FF3
:105370000E941D14EF2DF0E0EF5FFE4FE2A58E2F8F
:1053800090E08930910508F06DC0FC01E956FF4FAF
:105390006C2F70E00C94663761507109FB01E65880
:1053A000FA4F1082FB01E659FA4FE081DB01A65A61
:1053B000BA4F8C9198E0E99FF0011124EE54FB4F15
:1053C000E80FF11D10824EC0FB01EF55FB4F8081AD
:1053D00087FF02C08F7745C0846043C0FB01EF5553
:1053E000FB4F808180623DC0FB01EF55FB4F808108
:1053F000806437C0EB01C758DA4F6881162F107EE2
:105400000E9468362AE130E040E050E00E94D53644
:10541000610F688327C0FB01EF55FB4F808182FF3E
:1054200002C08B7F1EC080681CC0FB01E758FA4F8A
:1054300080818F71805815C040913F01842F880F63
:10544000880F480FFB01E758FA4F60816F71212FD9
:105450008D2F0E94781406C0FB01EF55FB4F808111
:10546000877F8083DF91CF911F910F91FF900895E7
:10547000AF92BF92CF92EF92FF920F931F93CF9371
:10548000DF93142FA82EB12CC62FD0E0F50143E0F6
:10549000EE0FFF1F4A95E1F7E650FC4FEC0FFD1FA2
:1054A0009081992339F040E00E942815F82E882336
:1054B00061F102C035E0F32E0E94C316E82F8F2D54
:1054C000FF0C990B019763E070E00E9452378A0D40
:1054D0009B1D23E0880F991F2A95E1F78E509C4F62
:1054E000C80FD91F6C0F7D1FEB01219781E08E0F34
:1054F000888385E0E89FF0011124EE5CFC4F108367
:1055000081E081830283E382C482DF91CF911F9186
:105510000F91FF90EF90CF90BF90AF90089525E04E
:10552000829FC0011124FC01E055FD4F10821182C1
:10553000128213821482E9E3F1E082818150828336
:105540000C9459162FEF280F253018F49BEF980F65
:1055500023C02AEF280F2930A0F021EF280F233095
:1055600090F0823191F02DEE280F223080F08531BD
:1055700081F02AEE280F293070F08F3168F098E022
:105580000BC091E009C093E007C094E005C095E02E
:1055900003C096E001C097E0892F08952F923F92B3
:1055A0004F925F926F927F928F929F92AF92BF9233
:1055B000CF92DF92EF92FF920F931F93CF93DF93DF
:1055C000CAE7D5E00AE615E08AE5282E85E0382E00
:1055D0009AE0C92ED12CE12CF12C888180548032A4
:1055E00008F041C0F801808190E020913901AC01C0
:1055F000421B510957FF03C0519541955109F101D3
:10560000208130E080913A01B901681B7109CB011A
:1056100077FF03C0919581959109840F951F03979A
:1056200014F50E9468364B015C0180E00E949E05E3
:10563000682F70E06F5F7F4F84E090E00E945237E8
:105640002B01770F66087708C501B401A701960101
:105650000E94D536641575058605970524F4888162
:105660008F71805E888321960F5F1F4F7FEF271A0F
:10567000370A85E0CA38D80709F0AFCFDF91CF915C
:105680001F910F91FF90EF90DF90CF90BF90AF9060
:105690009F908F907F906F905F904F903F902F9052
:1056A0000895CF9380919D0580939E050E942129A6
:1056B00080939D0580E20E948127C82F80E80E9488
:1056C00081278111C2E080E40E9481278111C3E01B
:1056D00080E10E9481278111C4E088E00E94812737
:1056E0008111C5E084E00E948127811103C0CC2391
:1056F000C9F201C0C6E08DE10E943E208C2FCF91FF
:105700000895CF93DF93C82F61E084E00E9489055C
:10571000882329F18C2F90E0019725E0289FE00154
:10572000299FD00D1124C055DD4F8C8183FD17C0FA
:1057300089E00E949E05811112C0E881EF70F0E0BF
:10574000E557F74FE4918A81282F082E000C330B80
:105750002E0F311D2230310514F081508A83DF91E4
:10576000CF910895262F40914F01509150016091A3
:1057700051017091520190E0A0E0B0E084179507CC
:10578000A607B70734F02093EE0182E08093ED0185
:105790000895481B590B6A0B7B0B40934F015093A4
:1057A0005001609351017093520108958F929F921E
:1057B000AF92BF92CF92DF92EF92FF920F931F931F
:1057C000CF93DF9390914001992351F00E94683666
:1057D00024E030E040E050E00E94D53681E0860FC2
:1057E00090914401911114C0082F10E0E801229714
:1057F00081708C9FC02D1124C801019762E070E078
:105800000E94523703501109809FE02C112402C0DE
:10581000E12CC0E01092A809809139016C2F0C2E68
:10582000000C770B680F711D00913A012E2D0E2C84
:10583000000C330B200F311DAB01B3E0440F551F9B
:10584000BA95E1F7FA01EE54FB4FE20FF31F108116
:1058500011118EC12830310508F025C2653171055E
:1058600008F021C24C505E4FFA01E20FF31F908105
:105870009150983C08F017C290914801911106C0D0
:10588000C80FC09339010E0D00933A018DE10E94BB
:105890003E2080914701811106C280913901C0915B
:1058A0003A010C2F10E098E0899FE0011124FE01DD
:1058B000E650FC4FE00FF11F8081811104C08DE1A3
:1058C0000E943E20DAC090E0019725E0289FF00179
:1058D000299FF00D1124EE5CFC4F6081862F82958C
:1058E0008F706F70893028F4853030F48130B8F0D3
:1058F00015C0893099F013C0E82FF0E0EE0FFF1FBC
:10590000E257FE4F20813181062E02C03695279541
:105910000A94E2F7A22FA170FA2E01C0F12C4F2DAC
:105920000E94FC1FCE0186509C4F6C01C00ED11E00
:10593000F6018081282F30E02150310995E0929FB7
:10594000F001939FF00D1124EE5CFC4F908190319B
:10595000D9F4918140914B0150914C0160914D01DE
:1059600070914E01490F511D611D711D40934B01F6
:1059700050934C0160934D0170934E0181500E94F1
:105980008C1AD6011C9279C0848187FD2BC0A0910E
:105990003B01AA3109F471C0C650DC4FC00FD11FC2
:1059A000888195E09A9FD0011124A055BD4F282FE2
:1059B00030E021503109929FF001939FF00D1124A6
:1059C000EE5CFC4F01900D929A95E1F781500E9498
:1059D0008C1A188280913B018F5F80933B010E945B
:1059E00059164BC060EBE62E62E0F62EA12CB12CCE
:1059F00040E075E0972E80913B0190E0A816B90633
:105A0000CCF5F6018081282F30E021503109929E9B
:105A1000F001939EF00D1124EE5CFC4FD7012C9108
:105A20009081291320C012962C91129792812913EC
:105A30001AC013962C9113979381291314C01496AE
:105A40009C9114972481292726FD0DC011962C9135
:105A500011979181920F11969C9381500E948C1AFC
:105A6000F601108241E0FFEFAF1ABF0A85E0E80EB1
:105A7000F11CC1CF442309F48ACF209139018091D0
:105A80003A0190E0A8E02A9F90011124F901EC501E
:105A9000FE4FE80FF91F408151EE540F5C3410F4B3
:105AA000405B40832C503E4FF901E80FF91F808185
:105AB00091E9980F9C3408F0F6C06AE00E943837EC
:105AC000D82F0E94683622E030E040E050E00E948B
:105AD000D536672B682B692B09F045C08EE50E94EF
