:100000000C9469050C9491050C9491050C94910540
:100010000C9491050C9491050C9491050C94910508
:100020000C9491050C9491050C9491050C949105F8
:100030000C9491050C9491050C9491050C949105E8
:100040000C9491050C9491050C9491050C949105D8
:100050000C9491050C9491050C9491050C94F02747
:100060000C9491050C9491050C9491050C949105B8
:100070000C9491050C9491050C9491050C949105A8
:100080000C9491050C9491050C9491050C94910598
:100090000C9491050C9491050C9491050C94910588
:1000A0000C9491050C9491050C949105AB07B8073D
:1000B000BD07ED071F083208430847084B084F08E3
:1000C0006D08710877087B08CA08DF080B093A0930
:1000D000520989098C09010AC2089A09D009DF0965
:1000E000190CD50A190C190C1F0C190C250CD50A62
:1000F000D50AD50A2C0CD50A320CAA1AC11AF61A3E
:100100006C1BB31BC01BD21B361CC121EB2115235A
:100110001523F721152315231222292215235322F3
:1001200015235E2215231523152315236F22E92895
:1001300001290B2911291729282932293929492967
:10014000D5F08D14A1C881CFD9F1AF2000425D2038
:10015000536176657E7175697400415D20476F203B
:100160004E657874004E65787420666C6F6F7220EF
:100170000057696E202C002D20292048616C6C20CE
:100180004F662046616D65202920202D005448458A
:1001900020414D554C4554204F462059454E444F23
:1001A000522000594F55204D414445204954204F7D
:1001B000555420574954482000202C20434F4E4787
:1001C000524154554C4154494F4E202C202000247C
:1001D000006279004B696C6C65640068656C6C66E4
:1001E000697265006C75636B006C61636B206F6690
:1001F0000046726F7A656E00537461727665005FB7
:1002000020204865726F20205F00282052455354FB
:1002100020494E2050454143452028007C007C4524
:10022000783B007C41433B007C53743B007C48702E
:100230003B007C41753B007C4C763B00202020201D
:10024000202020202020007C5374617475730042AC
:100250005D20436F6E74696E756500415D204E656B
:10026000772047616D65004020526F6775650020FB
:1002700043002045002077686963687D00202000E6
:10028000232323496E76656E746F727923232323AB
:1002900023230002030304040501010101010201FB
:1002A00003010420202020202020202020202020A6
:1002B000202000202064726F702020202020202029
:1002C00020200020207468726F77202020202020BA
:1002D0002020002020757365202020202020202051
:1002E000202000416374696F6E2020202020202090
:1002F000000A01043C0200830B0103410200020AD0
:1003000001033C020025080103320200030F02052D
:10031000430300030F00004405000413020A460AC9
:10032000000319010546050A0315010745080003E6
:100330001900004B156404200513550F0A051E0310
:100340000F4E141403190000641400031900004B2D
:1003500027640423031250321405490000505B0047
:10036000014B051C4B7D21032D02104B3700054C22
:100370000514507832652A04184B6E00065A04287A
:1003800055C8210361072555FA1903370212550490
:100390001203730A3255140A83840732641E00055F
:1003A00091083C64325A02000A0F18213F5D6064D4
:1003B0002A3A295B213F3D2F2C00050A14192328D6
:1003C000323C414B555A5F6400050A0F14232D3708
:1003D000414B555A64646464616E676572600000E5
:1003E00072757374207472617000706F69736F6ED0
:1003F00020747261700074656C65706F7274207423
:1004000072617000736C6565702067617300617262
:10041000726F7720747261700074726170646F6FB4
:1004200072005A5A5A27272700647261696E656400
:10043000006C6576656C20646F776E006275726E15
:100440006564006772616365640068656C6400726E
:1004500075737465640073746F6C656E00706F699A
:10046000736F6E65640066726F7A656E00616C72A0
:10047000656164207769656C6400726561647920E8
:10048000676F0072656D6F766564006974206375CF
:10049000727365640079756D6D79006F6F70732785
:1004A0002727006C6576656C207570006469727D25
:1004B000006E6F20736C6F7400736F6D6574686984
:1004C0006E672068657265006E6F2073706163658A
:1004D00000492063616E6E6F740077656C636F6DA9
:1004E0006560006E6F7468696E670063616E636556
:1004F0006C006D697373696C6500736C6565700081
:1005000066617374006368616E676500636C656142
:100510007200636F6E6675736500736C6F7700743D
:10052000656C65706F7274007365617263680061F9
:10053000726D6F72007365650061646F726E006446
:100540006578007374726F6E670064616D616765D2
:1005500000666F6F64006C6966650074656C657039
:100560006F727400737465616C7468006D61700003
:10057000616E6765720063726561746500626C65C7
:10058000737300736361726500736C6565700074EA
:10059000656C65706F7274006964656E7469667904
:1005A0000061726D6F7200776561706F6E00686FC9
:1005B0006C640070726F74656374006C6F6F6B00B5
:1005C0007370656564006C65766974617465006359
:1005D0006F6E667573650069276465746563740082
:1005E0006D276465746563740068616C6C75006286
:1005F0006C696E64006C6576656C00706F69736F12
:100600006E0065276865616C006865616C007265E5
:1006100073746F726500706F7765720059656E64F0
:100620006F72007A696E630074696E0073696C762C
:10063000657200737465656C006E69636B656C0050
:100640006C6561640069726F6E00636F70706572D3
:100650000062726F6E7A6500627261737300746F0C
:1006600070617A007361707068697265007275629A
:100670007900706561726C006F70616C006F6E79EB
:1006800078006761726E657400656D6572616C6497
:10069000006469616D6F6E6400616D657468797383
:1006A000740061676174650052454144204D450006
:1006B00054454D4F5600464F4F42494500414E4428
:1006C0004F56410059554D2059554D0054484152FF
:1006D0005200454C4249420044414959454E005858
:1006E0004958415841004E522039004A5559454415
:1006F000005A454C474F0079656C6C6F77007768FE
:100700006974650076696F6C657400726564007069
:10071000696E6B006772657900677265656E006F60
:1007200072616E6765006379616E00636C6561720A
:100730000062726F776E00626C756500626C616357
:100740006B00616D62657200706C6174650062615E
:100750006E6465640073706C696E740063686169CF
:100760006E007363616C650072696E67006C656131
:10077000746865720064616767657200736875729A
:10078000696B656E006172726F77006461727400EC
:10079000626F770073776F726400617865006D61D6
:1007A0006365006D6F6C6400666F6F6400676F6CEB
:1007B0006400DA04D104C804B904B104AC04A3048D
:1007C0009B0495048B0483047A046D0466045D0421
:1007D00056044F044A0443043C043104290422040F
:1007E00019040E040404F603EA03E003DF03D7034D
:1007F000AD07A807A3079E079A07940790078B07E2
:1008000085077C0775076D07680762075C07550752
:100810004E07480742073C07370731072B072607D3
:100820001F07190714070F070B070407FE06F70633
:10083000F106EB06E606DF06D806D206CC06C406AD
:10084000BD06B606B006A806A20699069106890658
:1008500082067D06780672066D0664065E065806F8
:1008600051064A0645064006390633062C06280678
:1008700023061C0616060E0609060206FB05F505EC
:10088000EF05E905E005D705CF05C605C005BB05A1
:10089000B305AE05A705A10598058F058905830554
:1008A0007D05760570056C0564055B0556055105EB
:1008B0004A0543053F05390535052F0528051F0560
:1008C0001A0512050C0505050005FA04F204EB04EF
:1008D000E3044B4542534849524F5A4C4351414E11
:1008E000594654575058554D56474A44020304053B
:1008F0000606070508000000000000746D74004043
:1009000040404040552A552A55042E6B3A107F43EB
:100910007F417F6A5767576E0060600000707A778A
:100920000A7008105F100822085D08227E414141CC
:100930007E060929522C000808080000000040200B
:1009400002007D00023E7F417F3E00427F7F406289
:1009500071594F462241497F3618147E7F102F4F20
:100960004979313E7F4979300161791F07367F49E6
:100970007F36064F497F3E18353E3D18003636001B
:10098000000040381800102A452A101C7F3E1C0821
:10099000085C2E170A0102641F767E7F097F7E7F26
:1009A0007F497F363E7F4141227F7F417F3E7F7F6F
:1009B0004949417F7F0909013E7F41797A7F7F085C
:1009C0007F7F00417F7F4141417F3F017F7F1C3618
:1009D000637F7F4040407F7E0C7E7F7F7E1C3F7F19
:1009E0003E7F417F3E7F7F090F063E7F613F5E7FF6
:1009F0007F097F76264F49793200017F7F013F7F53
:100A0000407F3F1F3F603F1F7F3F103F7F777F0842
:100A10007F77037F78070371794D47431F3F7B3F03
:100A20001F707A770A700041417F3E3E7F4141004E
:100A30004D3A163A4D006F6F00002074547C787F59
:100A40007F447C38387C444428387C447F7F387C21
:100A5000545C1800047E7F0518BCA4FC7C7F7F08D2
:100A6000787000447D7D408080FD7D007F7F386C04
:100A70004400417F7F407C7810787C7C7C047C78CB
:100A8000387C447C38FCFC243C18183C24FCFC7C5E
:100A90007C080404085C54742000047E7E043C7CC2
:100AA000407C7C1C3C403C1C7C3C103C7C6C7C10A6
:100AB0007C6C1CBCA0FC7C4464745C4C1F3B713B94
:100AC0001F00777777000601590F062010080402EF
:100AD000503511241FBECFEFDAE0DEBFCDBF11E0ED
:100AE000A0E0B1E0EEECFDE602C005900D92A63963
:100AF000B107D9F729E0A6E9B1E001C01D92A93AF2
:100B0000B207E1F715E0C9E6D5E004C02197FE0180
:100B10000E94B736C836D107C9F70E94CA2D0C9477
:100B2000E5360C940000FF920F931F93CF93DF9351
:100B3000EC01F62E08811981C8010E941036F816C2
:100B400021F06F2DC8010E941836CE01DF91CF91A0
:100B50001F910F91FF9008954F925F926F927F9235
:100B60008F929F92AF92BF92CF92DF92EF92FF92BD
:100B70000F931F93CF93DF93682E10E001E055246D
:100B80005A9437E0432E0E94D626009376050093B0
:100B9000750550927705611011C080E892E00E94BF
:100BA000FA2660915F0170916001809161019091DE
:100BB00062010E9415278DE792E002C085E792E06E
:100BC0000E94FA26009376050093750540927705FA
:100BD0008EE30E94F526E12EF12C80913B01A701C6
:100BE0004A5F5F4F282F30E04217530714F487E025
:100BF000810F25E0129FE0011124CD56DD4F470102
:100C0000AA24A394B12CC82ED12C8C149D040CF0D2
:100C100087C0B50181E090E00E94481D8C8183FD72
:100C200008C0E881E295EF70F0E0E155FC4F849157
:100C300001C08BE70E94F52680E20E94F5268C8198
:100C400087FF06C089810E94EE2680E20E94F52679
:100C50009881692F6F70892F82958F70903510F46D
:100C600040E00FC0E82FF0E0EE0FFF1FE257FE4F0D
:100C700040815181062E02C0569547950A94E2F7AD
:100C800041700E94451F8091B6019091B7010E946A
:100C9000FA268C8185FF2DC0888190ED980F9031C8
:100CA00070F48EE50E94F5268A81082E000C990BBF
:100CB0000E943F278CE30E94F5268B8112C090ECA6
:100CC000980F903150F090E8980F903130F08057A5
:100CD000803178F48A81882361F08EE50E94F526C0
:100CE0008A81082E000C990B0E943F278DE50E94F7
:100CF000F5268C8184FF04C082E792E00E94FA26E8
:100D00008C818274823421F48FE692E00E94FA266C
:100D10003FEF831A930A25968FEFA81AB80A75CF6A
:100D20000E9445270E94230D823029F4112309F4E3
:100D30002ACF115028CF843051F480913B0190E0AC
:100D40000197E816F9060CF01ECF1F5F1CCF853007
:100D500009F064C6611065C68DE0809376058093C6
:100D60007505C7E0C093770583EE92E00E94FA26EE
:100D7000C0937605C0937505DFE0D093770583EDCA
:100D800092E00E94FA26C0937605C093750587E12C
:100D90008093770583EC92E00E94FA26C093760553
:100DA000C09375058FE18093770583EB92E00E94F5
:100DB000FA26C0937605C093750587E28093770580
:100DC00083EA92E00E94FA26C0937605C0937505E7
:100DD000D09377058EE30E94F5260E944527C0E058
:100DE0000E94230D8430C9F018F4823039F0F8CF16
:100DF000853079F1863009F414C6F2CFCC2381F323
:100E00006C2F70E06E5F7F4F81E090E00E94481D84
:100E100080E20E94F526C1500EC0C23008F76C2F48
:100E200070E06E5F7F4F81E090E00E94481D80E29D
:100E30000E94F526CF5F6C2F70E06E5F7F4F81E0E0
:100E400090E00E94481D8EE30E94F5260E944527EF
:100E5000C7CFC11143C3D0914401D1112DC48E9D80
:100E6000F0018F9DF00D1124ED56FD4FC0818C2FA8
:100E700082958F708230B1F581818150818381119B
:100E800003C0812F0E94AC2988E00E94871F6091D7
:100E90005F0170916001809161019091620123E096
:100EA00030E040E050E00E94263669017A019EE57C
:100EB000C90E91E0D91EE11CF11C0E94B93522E354
:100EC00030E040E050E00E942636C60ED71EE81EF5
:100ED000F91EC0925F01D0926001E0926101F09230
:100EE0006201E3C3833009F4B1C2843009F4AEC2B5
:100EF000CF70853009F006C1EC2EF12C81E090E036
:100F0000A0E0B0E00C2E04C0880F991FAA1FBB1FE1
:100F10000A94D2F72091980130919901822B932B5A
:100F200090939901809398018181815081838111EF
:100F300003C0812F0E94AC29F701EF5FFE4FE081D3
:100F40008E2F90E08E30910508F0D8C0FC01EA5A4F
:100F5000FF4F0C94B73690913D0120913E0181E006
:100F6000890F80933D019213C9C080933E01C6C092
:100F700080913E0180933D01C1C080914F019091CD
:100F80005001A0915101B0915201409153015091F3
:100F90005401609155017091560184179507A60779
:100FA000B70721F40196A11DB11D2FC06C017D0171
:100FB000C40ED51EE61EF71EC701B60122E030E0C2
:100FC00040E050E00E94263620934F0130935001BC
:100FD000409351015093520191C080914F019091E3
:100FE0005001A0915101B091520140915301509193
:100FF0005401609155017091560184179507A60719
:10100000B707A1F40296A11DB11D80934F019093E3
:101010005001A0935101B0935201809353019093DA
:101020005401A0935501B093560168C040934F01FD
:101030005093500160935101709352015FC0D09161
:101040003D01D43060F00E94B935D15023E030E04A
:1010500040E050E00E942636D61BD0933D0110920E
:1010600042014CC08091630190916401A09165019F
:10107000B09166018093570190935801A093590154
:10108000B0935A013BC082E38093410137C082E3B1
:101090008093420133C081E0809345012FC08DEDE4
:1010A000C82E83E0D82EE12CF12CF601EE0DFF1DA9
:1010B0008081882321F06E2D8D2F0E94281F2FEF15
:1010C000E21AF20A38E0E316F10479F788E0C80E74
:1010D000D11CDF5FD53139F711C08AE08093400120
:1010E0000DC0109248018EE18093470107C084E152
:1010F0008093430103C081E08093460141E06C2F5F
:1011000085E088C1863009F08AC180914101811152
:1011100084C1CC2ED12C81E090E0A0E0B0E00C2E78
:1011200004C0880F991FAA1FBB1F0A94D2F72091F1
:101130009A0130919B01822B932B90939B0180937A
:101140009A0185E08E9DF0018F9DF00D1124ED56E2
:10115000FD4F818181508183811103C0812F0E94C5
:10116000AC29D601AF5FBE4F7D011E96EC918E2F4C
:1011700090E08C30910508F044C1FC01EC59FF4F20
:101180000C94B73640913B0150E0E3E9F2E080E097
:1011900090E0C6C061E084E00E942A2D882309F413
:1011A00036C190E0019725E0289FF001299FF00DBE
:1011B0001124ED56FD4F84818860848322C1809183
:1011C000390120913A01B8E08B9FC0011124820FB0
:1011D000911D40E050E04097DC01A40FB51F6EEF79
:1011E0007FEFFB01EA0FFB1FEB56FB4FE081EE2385
:1011F00039F0F0E0E45AFA4F20812F712058208313
:101200006F5F7F4F6330710561F7485F5F4F483212
:10121000510511F7FCC061E083E00E942A2D88236C
:1012200009F4F5C090E0019745E0489F9001499F7F
:10123000300D1124F901ED56FD4F6F0184818F7B34
:1012400084830E94B93522E030E040E050E00E9403
:101250002636672B682B692B41F4D60112968C91A8
:1012600012978F5F12968C93CCC0F60183818F5FAB
:101270008383C7C061E084E00E942A2D882309F49B
:10128000C6C090E0019725E0289FF001299FF00D4E
:101290001124ED56FD4F84818F7B848382818F5F83
:1012A0008283AFC081E00E94AC05F5E08F9FC00152
:1012B0001124FC01ED56FD4F84818262848390816C
:1012C000292F2F70892F82958F70903510F440E070
:1012D0001CC0E82FF0E0EE0FFF1FE257FE4F41E089
:1012E00050E060E070E0022E04C0440F551F661FFE
:1012F000771F0A94D2F7A081B1814A2B5B2B5183CF
:1013000040839059903118F341E0622F0E94451FAD
:1013100078C00E94961775C085E08093440171C023
:10132000841795070CF073C024812F7B24830196CA
:101330003596F6CFEDE5F5E081E09191911101C090
:10134000782E8F5F8131C9F741E060913A01809139
:1013500039010E942C2C90E0009709F452C00197AB
:10136000272D30E02150310940913901415063E08F
:1013700070E00E94A336840FF901E35BFA4F80838B
:1013800040913A014150460FF901E35CFA4F408326
:10139000682F8FEF870D0E94761C0E94571D31C069
:1013A000EDE5F5E02DE635E08081882319F08F71B9
:1013B000805E808331962E173F07B1F728C0D7EDA6
:1013C000AD2ED1E0BD2ED0E000E06501F6018081B8
:1013D00091EE980F9C3410F4805B80832FEFC21A3B
:1013E000D20A8081882321F0602F8D2F0E94281F30
:1013F0000F5F083059F7DF5F38E0A30EB11CD5311D
:1014000019F7D7011E968C91843009F44EC141E042
:101410006C2F86E00E94451F48C181E044C187309F
:10142000C9F481E090E0A0E0B0E004C0880F991F0B
:10143000AA1FBB1FCA95D2F720919C0130919D0134
:10144000822B932B90939D0180939C01812F0E946E
:10145000692D2BC1883009F028C181E090E0A0E01F
:10146000B0E00C2E04C0880F991FAA1FBB1F0A945E
:10147000D2F720919E0130919F01822B932B909364
:101480009F0180939E0185E08E9DF0018F9DF00D60
:101490001124ED56FD4F828118161CF48150828371
:1014A00001C0C9E00E94A02864E10E94C92CFC018F
:1014B00097FF02C0E150FF4FFF2309F4F6C060E040
:1014C00071E00E94A33665E170E00E94A336262FEA
:1014D000482F6F2F8C2F0E94C928E7C0C13009F018
:1014E0006BC0909144019111E7C08E9DF0018F9DDA
:1014F000F00D1124ED56FD4F848184FF0AC09081C8
:1015000020ED290F203108F04DC09F70943008F471
:1015100049C086FF0CC0C5E0CE9DF001CF9DF00D07
:101520001124ED56FD4F908190539031D0F00E94E0
:10153000A028C82F61E083E00E942A2D882309F4A7
:10154000BFC090E0019725E0289FF001299FF00D92
:101550001124ED56FD4F80818F70833009F0B0C0AB
:10156000B3C08260848361E083E00E942A2D8823D7
:1015700061F090E00197C89FF001C99FF00D112420
:10158000ED56FD4F84818F7E848385E08E9DF00132
:101590008F9DF00D1124ED56FD4F84818061848371
:1015A00089E001C08CE00E94871F0E94941F0E9466
:1015B000FB170E94861535C2C23009F011CC9091FC
:1015C0004401911179C08E9DF0018F9DF00D112481
:1015D000ED56FD4F9481892F807194FD63C0208169
:1015E00030E0EFE0F1E09191973021F08F5F8C30A7
:1015F000D1F780E0C0903A01C091390190E0805A63
:101600009F4FD0E0D12C2817390701F585E08E9D3A
:10161000F0018F9DF00D1124ED56FD4F8181815019
:101620008183811103C0812F0E94AC2993E0CC0FEC
:10163000DD1F9A95E1F7C952DE4FCC0DDD1D888183
:101640006AE00E948936925498832FC083E0CC0FC1
:10165000DD1F8A95E1F7C352DC4FCC0DDD1D88817B
:10166000882311F083E01FC00E94F015883211F426
:1016700084E019C091E0980F988395E0989FD0017D
:101680001124AB5EBC4F9E9DF0019F9DF00D112477
:10169000ED56FD4F01900D929A95E1F7812F0E9432
:1016A000AC2903C08CE00E94871F0E9486150E940F
:1016B000941F0E94FB17B5C186E10E94871FB1C12C
:1016C00060913D01669501C064E18C2F0E94C92C98
:1016D0006C0185E08E9DE0018F9DD00D1124CD56CB
:1016E000DD4FFE01A0EAB1E001900D928A95E1F78D
:1016F00081E08093A101898181508983811103C098
:10170000812F0E94AC29C601D7FE02C081509F4F95
:10171000C92FD92FDD0FDD0B992EC60160E071E0D6
:101720000E94A33665E170E00E94A336D62EF82E03
:10173000C1110AC0C090A401E090A3010091A201D0
:1017400021E04091A001AFC0E091A00180ED8E0F9B
:10175000803158F4EF70F0E0EE0FFF1FED56FD4FB3
:10176000E491B090A201BE0E02C0BB24B3940E94CB
:10177000B93524E630E040E050E00E942636C62E1F
:1017800090913F01990F985DEB2CEE0CEB0CE90E5C
:1017900061E083E00E942A2D90E0019725E0289FD8
:1017A000F001299FF00D1124ED56FD4F80814091ED
:1017B000A001982F94279F7009F47AC0453321F433
:1017C0008F70833009F474C0CE1408F064C0EE2426
:1017D000EA94E90C8E2D0E94392B0091A00180ED36
:1017E000800F803160F4E02FEF70F0E0EE0FFF1F0C
:1017F000EC56FD4F8491A090A301A80E01C0A12C2E
:1018000080EB800F8031A8F58E2D0E94392B902F10
:101810009F70E92FF0E0EF5FFE4FE0818E2F90E0A8
:101820008D30910508F0C1CEFC01E059FF4F0C94BA
:10183000B736DD27CB55DE4F8881865F18C0DD27A0
:10184000CB55DE4F8881869512C0DD27C45ADA4F0A
:1018500088818F71805C0BC0DD27CC57DB4F88817E
:10186000806205C0DD27CC57DB4F88818068888384
:101870009CCE90E8900F903128F50E94B93524E075
:1018800030E040E050E00E942636672B682B692B41
:1018900009F0B0C017C0C090A401E090A30100916E
:1018A000A2012091A1016D2D8F2D0E9455297DCE81
:1018B000E4E0EE9EC001112463E070E00E94A336D4
:1018C000E62E82CF8091A0018053803108F04AC07B
:1018D0002B2D0B2C000C330BAA2DAA0CBB0B0E943A
:1018E000BD369B01AC016B2DBB0C770B880B990BA4
:1018F0000E946F274B015C0190913D0180914A014C
:10190000890F0E94BF29880C991CAA1CBB1C282F78
:1019100030E0C901880F991F092E000CAA0BBB0BE0
:10192000880D991DAA1DBB1D40914901042E000C74
:10193000550B660B770B840F951FA61FB71F2091C1
:101940003F01820F911DA11DB11DBC01CD016F5F33
:101950007F4F8F4F9F4F22E030E040E050E00E94E9
:1019600026361FC090913D0180914A01890F0E9447
:10197000BF29282F30E021503109220F331F8091D9
:101980004901280F311D87FD3A9580913F01280FAD
:10199000311D2F5F3F4F37FF02C02F5F3F4F3595FF
:1019A0002795C22E61E083E00E942A2D90E00197E6
:1019B00025E0289FF001299FF00D1124ED56FD4FE1
:1019C00080812091A001982F92279F70E1F025330C
:1019D00019F48F708330B9F0DD27C45ADA4F68816B
:1019E0006295669567700D2D2F2D4C2D8E2D0E94C2
:1019F0007C2BDBCD8091A0012D2D4F2D692D8F707B
:101A00000E94C928D2CDFC2D24E0F202C00111248D
:101A100063E070E00E94A336C62EDECF863009F068
:101A2000B2C8812FDF91CF911F910F91FF90EF905E
:101A3000DF90CF90BF90AF909F908F907F906F90EE
:101A40005F904F900895CF9380918005809381059A
:101A50000E943F288093800580E20E94E326C82FE1
:101A600080E80E94E3268111C2E080E40E94E32620
:101A70008111C3E080E10E94E3268111C4E088E087
:101A80000E94E3268111C5E084E00E94E3268111D3
:101A900003C0CC23C9F201C0C6E08DE10E94871FBC
:101AA0008C2FCF910895262F40914F0150915001D6
:101AB000609151017091520190E0A0E0B0E0841774
:101AC0009507A607B70734F02093D10182E08093F1
:101AD000D0010895481B590B6A0B7B0B40934F01B3
:101AE00050935001609351017093520108952F92C9
:101AF0003F924F925F926F927F928F929F92AF929E
:101B0000BF92CF92DF92EF92FF920F931F93CF93EA
:101B1000DF93CDB7DEB7A8970FB6F894DEBF0FBE40
:101B2000CDBF27EDA22E21E0B22EC50120E030E08E
:101B3000FC01E20FF31F10822F5F3F4F2830310569
:101B4000B9F7089622E08F37920781F71D8A1E8A1F
:101B50001F8A188E198A1A8A1B8A1C8A1D861E865D
:101B60001F86188A19861A861B861C8688E0EFE66F
:101B7000F1E0DE01119601900D928A95E1F7109245
:101B8000D2011092D3011092D4011092D50180910C
:101B90003C01853008F464C20E94B93524E130E08C
:101BA00040E050E00E942636672B682B692B09F035
:101BB00057C281E08093D6018093D20180938B023B
:101BC0008093830283E18093870286E080937F0283
:101BD00080E00E945F168091D601811129C012ED2C
:101BE000E12E11E0F12E1FE103E0402E512C612C7B
:101BF000712C86E0882E912CA12CB12CF7018191BB
:101C00007F01813059F40E94B935A30192010E94ED
:101C10002636672B682B692B09F454C41F5F1332D7
:101C200069F78091D6018823E9F080E090E025C033
:101C300005E010E0B6E0CB2ED12CE12CF12C0E9477
:101C4000B935A70196010E942636660F862F880FA8
:101C5000880F680F615E80E00E94FB15015011093A
:101C600071F7DFCF0E94B93522E030E040E050E06C
:101C70000E942636CB01880F991FFC01EE52FE4FC1
:101C80002081211101C001966BE0680F0E94FB15B5
:101C90000E94D21E0E9496176DE5E62E65E0F62E94
:101CA0007DE4272E75E0372E8DE395E09C8F8B8F9A
:101CB000C12CD12CE3E08E2E912CA12CB12CF2E082
:101CC0004F2E512C612C712C8091D601E7E08E9F14
:101CD000C001112408968C159D050CF486C00E9445
:101CE000B935A50194010E942636672B682B692B14
:101CF00009F06AC08091D60181110AC00E94B935ED
:101D0000A30192010E9426368B01000F111F02C011
:101D100000E010E0F801EE52FE4F8081811102C018
:101D20000F5F1F4FF801E557FD4F2081298FF80104
:101D3000E957FD4F6081062E000C770B621B71097D
:101D400027FD73956F5F7F4F072E000C880B990B53
:101D50000E945527898D680FF1016083F801ED57C6
:101D6000FD4F2081298FF801E158FD4F6081062E3B
:101D7000000C770B621B710927FD73956F5F7F4F16
:101D8000072E000C880B990B0E945527498D460F92
:101D9000EB8DFC8D4083F1016081809139016817E2
:101DA00099F080913A01481779F028E0629FF0019C
:101DB0001124EB56FB4FE40FF11D8081811104C00B
:101DC0008C2D0E94761C02C0F7011082FFEFCF1A03
:101DD000DF0A2FEFE21AF20A8FEF281A380AEB8D8A
:101DE000FC8D3196FC8FEB8F6FCF82ED91E09C8F55
:101DF0008B8F27E8622E22E0722E3BE8432E32E0E2
:101E0000532EEFE7F2E0FA8FE98F43E8242E42E009
:101E1000342E81017F01620153019E8F8D8FED8DE4
:101E2000FE8D8191FE8FED8F8130E9F5812C912C13
:101E30008091D601F7E08F9FC0011124029688158A
:101E400099058CF1F5012081022E000C330B2F5FD8
:101E50003F4F032E000C440B550BF6016081062EFC
:101E6000000C770B880B990B0E946F276F8FF7017F
:101E70002081022E000C330B2F5F3F4F032E000CEE
:101E8000440B550BF8016081062E000C770B880B74
:101E9000990B0E946F2740E08F8D0E94561AFFEF2A
:101EA0008F1A9F0AC5CF2FEFA21AB20A8FEFC81A56
:101EB000D80A9FEFE91AF90A0F5F1F4FED8DFE8DCB
:101EC000E65DF14009F0ABCF80913C0163E00E94F8
:101ED00089369923D9F090913C018091000198179F
:101EE00008F04AC000C3FFEF6F1A7F0A2FEF421AB3
:101EF000520A898D9A8D01969A8F898F9FEF291AA0
:101F0000390AEB8DFC8DE65DF14029F3EB8DFC8DFC
:101F10008191FC8FEB8F813031F7F3012081022E0C
:101F2000000C330B2F5F3F4F032E000C440B550B5F
:101F3000F2016081062E000C770B880B990B0E9432
:101F40006F27162FE98DFA8D2081022E000C330B9E
:101F50002F5F3F4F032E000C440B550BF1016081A6
:101F6000062E000C770B880B990B0E946F2742E01E
:101F7000812F0E94561AB7CF80913B0190E00197C4
:101F800025E0289FF001299FF00D1124ED56FD4F0B
:101F90008081803909F4A7C28091D60181110AC0DD
:101FA0000E94B93522E030E040E050E00E94263641
:101FB000660F01C060E0E62FF0E0EE52FE4F808138
:101FC000811101C06F5F062F10E0F801E557FD4F4A
:101FD000F080F801E957FD4F6081062E000C770B69
:101FE0006F197109F7FC73956F5F7F4F072E000C17
:101FF000880B990B0E945527F60EF801ED57FD4FFF
:10200000E080F801E158FD4F6081062E000C770B4F
:102010006E197109E7FC73956F5F7F4F072E000CF7
:10202000880B990B0E945527E60E0E94F01598E048
:10203000F99EF0011124E352FC4FEE0DF11D91E0E9
:10204000980F908325E0829FF0011124EB5EFC4FF6
:1020500080E9808381E0818312821382148243C2EB
:102060001092D6010E94B93527E030E040E050E000
:102070000E9426368B01095F1F4F0E94B93522E06E
:1020800030E040E050E00E9426366D5F7F4F8FEFDA
:10209000800F8D8769876230710519F091E0909308
:1020A000D20191E0960F9A8B8E8787E08A87643001
:1020B000710519F081E08093D3016330710531F42B
:1020C0001A821982EE24E394F12C02C0E12CF12C47
:1020D0000E94B93522E030E040E050E00E94263610
:1020E0006D5F7F4F81E0800F8F8B94E19F876B87BF
:1020F0006230710519F091E09093D401888F81E0EE
:10210000860F8C8B84E1888B87E08C876430710527
:1021100019F081E08093D5016330710529F41886A8
:102120001F8282E0E80EF11CE2EDF1E0F8A7EFA3D8
:102130003E01F5E16F0E711C8BE892E09A8F898F5A
:10214000FE017196FE8FED8F83E892E098A38F8F4A
:102150003497FAA3E9A387E892E09CA38BA34E01EE
:1021600099E0890E911CEFE7F2E0FEA3EDA382ED6A
:1021700091E09C8F8B8F83E0282E312C412C512CA9
:10218000EB8DFC8D8191FC8FEB8F813041F5F3015C
:10219000D0800E94B935A20191010E942636D394C5
:1021A0006D0DE98DFA8D6083ED8DFE8D80818F5FE1
:1021B000EF8DF8A18083E9A1FAA1D0800E94B93502
:1021C000DA94A20191010E942636D61AEBA1FCA155
:1021D000D082F40180818150EDA1FEA18083FFEFC8
:1021E0006F1A7F0A898D9A8D01969A8F898FED8D4E
:1021F000FE8D3196FE8FED8F8F8D98A1019698A35D
:102200008F8FE9A1FAA13196FAA3E9A38BA19CA132
:1022100001969CA38BA39FEF891A990AEDA1FEA1B9
:102220003196FEA3EDA38B8D9C8D865D914009F0C8
:10223000A7CFE114F10469F40E94B93522E030E03F
:1022400040E050E00E942636672B682B692B09F48A
:1022500026C184E190E0801B910B95958795800FB6
:1022600061E0680F980135952795922FF90153E0A9
:10227000EE0FFF1F5A95E1F7E952FE4FDF01A9016A
:1022800070E06894DD24D3F864177507B4F01196F4
:10229000DC9211971296DC9212971396DC921397A8
:1022A0001496DC9214971596DC9215971696DC928C
:1022B00016974F5F5F4F1896E7CF49815A81452B9C
:1022C000B9F4DF01A901C82ED12CC416D50684F0BB
:1022D00012961C92129713961C92139714961C92A6
:1022E000149715961C9215974F5F5F4F1896EDCF78
:1022F0004B815C81452B21F541E0490F50E0DA012B
:10230000AA0FBB1FAA0FBB1FAA0FBB1FA952BE4F0C
:10231000C82ED12CC416D5069CF011961C9211978C
:1023200012961C92129713961C92139714961C9255
:10233000149715961C9215974F5F5F4F1896EACF2A
:102340004D815E81452B79F44FEF480F50E04217E5
:1023500053074CF0128213821482158216822F5F6B
:102360003F4F3896F4CF2F8138859F5F232BA9F4F8
:10237000292F30E0F901A3E0EE0FFF1FAA95E1F746
:10238000E952FE4F6217730744F0128213821482DF
:1023900015822F5F3F4F3896F5CF292F30E0F90196
:1023A00053E0EE0FFF1F5A95E1F7E952FE4F90E020
:1023B0008217930744F012821382148215822F5FD2
:1023C0003F4F3896F5CFD12CEFA1F8A58191F8A712
:1023D000EFA3813019F48D2D0E945F16D394F4E0A1
:1023E000DF12F2CF23E0E216F10441F035E0432E94
:1023F000512C612C712C44EED42E10C023E0000F20
:10240000111F2A95E1F7F801E952FE4F88E0818318
:1024100082838383848385838683E8CF8501E12C4F
:10242000F12CF8018081883059F40E94B935A3015C
:1024300092010E942636672B682B692B09F43FC056
:10244000FFEFEF1AFF0A0F5F1F4F28E0E216F104BB
:1024500041F788E0A80EB11C9FE7A91692E0B906E3
:10246000E9F60FE812E095E0C92ED12CE12CF12C11
:10247000BB24B3940E94B935A70196010E94263669
:10248000F801672B682B692B11F4B08201C0108210
:102490000F5F1F4FF2E003391F0761F79CCB0E94CB
:1024A000B93524E030E040E050E00E942636660F67
:1024B000771FFE01E60FF71F12821182CACEF801C4
:1024C000D082BECF0E94B935A50194010E94263664
:1024D000212FFAE06F9F200D1124622F81EE810FD2
:1024E0000E94FB159BCBA8960FB6F894DEBF0FBEDB
:1024F000CDBFDF91CF911F910F91FF90EF90DF90B3
:10250000CF90BF90AF909F908F907F906F905F9093
:102510004F903F902F9008958F929F92AF92BF92CD
:10252000CF92DF92EF92FF920F931F93CF93DF939F
:1025300090914001992351F00E94B93524E030E098
:1025400040E050E00E94263681E0860F90914401E1
:10255000911114C0082F10E0E801229781708C9F20
:10256000C02D1124C801019762E070E00E94A336DB
:1025700003501109809FE02C112402C0E12CC0E01F
:102580001092A501809139016C2F0C2E000C770B55
:10259000680F711D00913A012E2D0E2C000C330B8B
:1025A000200F311DAB01B3E0440F551FBA95E1F781
:1025B000FA01EB56FB4FE20FF31F10811111AEC170
:1025C0002830310508F044C26531710508F040C279
:1025D00049525E4FFA01E20FF31F90819150983CEF
:1025E00008F036C290914801911106C0C80FC093FF
:1025F00039010E0D00933A018DE10E94871F8091F1
:102600004701811125C280913901C0913A010C2FF7
:1026100010E098E0899FE0011124FE01E352FC4F95
:10262000E00FF11F8081811102C08DE1B6C090E002
:10263000019725E0289FF001299FF00D1124EB5E02
:10264000FC4F6081862F82958F706F70893028F4DF
:10265000853030F48130B8F015C0893099F013C05E
:10266000E82FF0E0EE0FFF1FE257FE4F208131818F
:10267000062E02C0369527950A94E2F7A22FA17084
:10268000FA2E01C0F12C4F2D0E94451FCE0183521E
:102690009C4F6C01C00ED11EF6018081282F30E0C6
:1026A0002150310995E0929FF001939FF00D112484
:1026B000EB5EFC4F90819031D9F4918140914B01B8
:1026C00050914C0160914D0170914E01490F511D87
:1026D000611D711D40934B0150934C0160934D015E
:1026E00070934E0181500E94B919D6011C927DC091
:1026F000848187FD07C0A0913B01AA3109F050C039
:1027000082E04BC063E9E62E62E0F62EA12CB12CEC
:1027100040E075E0972E80913B0190E0A816B90645
:10272000CCF5F6018081282F30E021503109929EAE
:10273000F001939EF00D1124EB5EFC4FD7012C911C
:102740009081291320C012962C91129792812913FF
:102750001AC013962C9113979381291314C01496C1
:102760009C9114972481292726FD0DC011962C9148
:1027700011979181920F11969C9381500E94B919E3
:10278000F601108241E0FFEFAF1ABF0A85E0E80EC4
:10279000F11CC1CF411129C0AECF0E94871F25C0B7
:1027A000C352DC4FC00FD11F888195E09A9FD001A2
:1027B0001124AD56BD4F282F30E021503109929F92
:1027C000F001939FF00D1124EB5EFC4F01900D92F0
:1027D0009A95E1F781500E94B919188280913B01C6
:1027E0008F5F80933B010E94861520913901809173
:1027F0003A0190E0A8E02A9F90011124F901E952E2
:10280000FE4FE80FF91F408151EE540F5C3410F475
:10281000405B408329523E4FF901E80FF91F808148
:1028200091E9980F9C3408F013C16AE00E94893640
:10283000D82F0E94B93522E030E040E050E00E94FD
:102840002636672B682B692B09F063C00E945F2B2B
:10285000C5EFCD0FC23011F198F4CC23B9F0C130DF
:1028600009F057C00E94B93523E030E040E050E065
:102870000E942636862F62E08F5F0E94530D49C06A
:10288000C430B9F098F0C53001F143C080913C01EB
:102890008F5F80933C010E94770D3BC08091440183
:1028A000811137C085E08093440133C00E949617A0
:1028B00030C0C0913D01C43008F0E4C085E00E9402
:1028C0003F2D882309F4DEC024C061E084E00E942B
:1028D0002A2D8823F1F0082F10E001501109C09F24
:1028E000F001C19FF00D1124ED56FD4F848183FD51
:1028F00010C089E00E943F2D81110BC085E0809FB0
:10290000F001819FF00D1124ED56FD4F8281815021
:1029100082838CE08D0F0E94871F9AC0E12FF0E028
:10292000E45AFA4FD0818DE10E94871F0E94B93589
:1029300024E630E040E050E00E942636D62E61E0EA
:1029400083E00E942A2D882309F190E0019725E079
:10295000289FD001299FB00D1124AD56BD4F2C9159
:102960002F7030E0F901EE0FFF1FED56FD4FE4919F
:102970001296FC901297FE0EF901EE0FFF1FEB5618
:10298000FD4FE49113960C910E0F02C000E0F12C64
:1029900080913F01880F885D9F2D990F9F0D890FB2
:1029A000D81608F055C01150812F0E94392BF09E87
:1029B000F00111249F01FF0F440B550B6F2D70E0A8
:1029C00080E090E00E946F274B015C0190913D01F7
:1029D00080914A01890F0E94BF29282F00913A0156
:1029E0000E0D80913901C80F880C991CAA1CBB1CC4
:1029F00030E0C901880F991F092E000CAA0BBB0BF0
:102A0000880D991DAA1DBB1D40914901042E000C83
:102A1000550B660B770B840F951FA61FB71F2091D0
:102A20003F01820F911DA11DB11DBC01CD016F5F42
:102A30007F4F8F4F9F4F22E030E040E050E00E94F8
:102A40002636422F6D2F6F712C2F812F0E947C2BE9
:102A50000E94EB290E94FB1780914301882321F0FB
:102A600080915B0180FD12C0DF91CF911F910F918A
:102A7000FF90EF90DF90CF90BF90AF909F908F909E
:102A80000C94941FC150C0933D0143CFDF91CF916F
:102A90001F910F91FF90EF90DF90CF90BF90AF907C
:102AA0009F908F900895CF93DF93C82F0E94B935E0
:102AB00024E630E040E050E00E94263680E09FE0CF
:102AC000C99FD0011124A754BC4F9EE0C99FA0010B
:102AD00011244F5F5E4FC62FD0E0FA01E80FF11DC1
:102AE000208130E0FD01E20FF31FE4916E1748F002
:102AF000F9013196EA0FFB1FE491F0E0CE17DF07F2
:102B000014F08F5FEACFDF91CF910895EF92FF929B
:102B10000F931F93CF93DF9300D000D01F92CDB7B8
:102B2000DEB723E932E0F90110E08FEF90819111D7
:102B300002C080831F5F359693E0E531F907B1F756
:102B400083E992E060E070E06F5F7F4FAC017B0152
:102B5000AAE1EA16F10429F405966A317105A1F794
:102B600026C0DC01FC91DA011596EC91EF17C8F450
:102B700005E0FC01DE01119601900D920A95E1F746
:102B800005E0FA013596DC0101900D920A95E1F716
:102B900005E0FE013196DA01159601900D920A9535
:102BA000E1F7BFEFEB1AFB0A4B5F5F4FD1CFF901A3
:102BB00080818F3F09F410822B5F3F4FF3E0253176
:102BC0003F07A9F784E1811B0F900F900F900F90A2
:102BD0000F90DF91CF911F910F91FF90EF9008958B
:102BE000E5E1F3E080E09081992321F08F5F359655
:102BF0008832C9F70895CF92DF92EF92FF920F9338
:102C00001F93CF93DF93D62F082F10E0F801E557DD
:102C1000FD4FC080F801E957FD4F6081062E000C82
:102C2000770B6C197109C7FC73956F5F7F4F072E87
:102C3000000C880B990B0E9455270C2C000CDD080A
:102C4000EE08FF08C60ED71EE81EF91EF801ED5764
:102C5000FD4FC081F801E158FD4F8081682F880F3A
:102C6000770BCB018C1B9109C7FD9395BC016F5F5E
:102C70007F4F072E000C880B990B0E9455270C2FB5
:102C8000CC0F110B220B330BDC01CB01800F911FFA
:102C9000A21FB31F960143E0220F331F4A95E1F7AD
:102CA00029523E4FF901E80FF91FD083DF91CF91F0
:102CB0001F910F91FF90EF90DF90CF9008952F928A
:102CC0003F924F925F926F927F928F929F92AF92BC
:102CD000BF92CF92DF92EF92FF920F931F93CF9309
:102CE000DF9300D000D000D0CDB7DEB78D8390E069
:102CF0009C0125573D4F3A832983D9010C91002E21
:102D0000000C110B01501109FC01E957FD4F5F0147
:102D10009C012D573D4F1901DC01A158BD4FBC83CB
:102D2000AB83BD81B753BE83E2E04E2E512C612CA4
:102D3000712CF8EC9F2EA5E18A2EDD808D0CD5013B
:102D40008C91082E000C990B0196801791070CF4BA
:102D500046C0F1018081780173E0EE0CFF1C7A958A
:102D6000E1F79701280F311D87FD3A95D901AA5245
:102D7000BE4F6D018C91883069F40E94B935A30172
:102D800092010E942636882D969E800D1124F60110
:102D9000808302C0EE81EC93AB81BC818C91F70102
:102DA000E80FF11D87FDFA959F0128523E4F7901EA
:102DB000D9018C91883069F40E94B935A301920140
:102DC0000E942636882D969E800D1124F70180835F
:102DD00003C0DE80D901DC920F5F1F4FB0CFD1015D
:102DE0000C91002E000C110BBD81BD52BE8342E040
:102DF000442E512C612C712C52EDD52E65E1C62E3E
:102E0000ED81CE0EAB81BC812C91822F022E000C65
:102E1000990B801791070CF440C0E981FA818081F9
:102E2000980148E08402200D311D1124D901A153DD
:102E3000BE4F7D018C91883069F40E94B935A301A1
:102E400092010E9426368C2DD69E800D1124F7010A
:102E5000808302C0EE81EC93D5018C91F80128E0CB
:102E60008202E00DF11D1124DF01A152BE4F7D0150
:102E70008C91883069F40E94B935A30192010E94B7
:102E800026368C2DD69E800D1124F701808302C03A
:102E9000EE81EC930F5F1F4FB5CFFD81FF5FFB838A
:102EA000D501EC91D101BC91BD83A981BA818C91EE
:102EB00090E08C0133E0000F111F3A95E1F760E0DC
:102EC00070E0F0E030E0E817F907BCF0BD814B2F6F
:102ED00050E07801E60EF71E2417350754F0DA01AA
:102EE000AE0DBF1DA952BE4FDB80DC924F5F5F4F1E
:102EF000F3CF0196685F7F4FE6CF26960FB6F89422
:102F0000DEBF0FBECDBFDF91CF911F910F91FF901C
:102F1000EF90DF90CF90BF90AF909F908F907F9079
:102F20006F905F904F903F902F9008951F93CF9395
:102F3000DF938091D60181110CC00E94B93522E047
:102F400030E040E050E00E942636EB01CC0FDD1F60
:102F500002C0C0E0D0E0FE01EE52FE4F8081811140
:102F600001C02196FE01E557FD4F1081FE01E95792
:102F7000FD4F6081062E000C770B611B710917FD58
:102F800073956F5F7F4F072E000C880B990B0E9483
:102F90005527610F60933901FE01ED57FD4F1081F8
:102FA000C158DD4F6881062E000C770B611B71093B
:102FB00017FD73956F5F7F4F072E000C880B990BE1
:102FC0000E945527610F60933A01E091390188E032
:102FD000E89FF0011124EB56FB4FE60FF11DA08195
:102FE000AA2329F0B0E0A45ABA4F1C921082DF91B4
:102FF000CF911F910895CF92DF92EF92FF9280912F
:103000005B0190915C01A0915D01B0915E01019620
:10301000A11DB11D80935B0190935C01A0935D01A4
:10302000B0935E0140915701509158016091590150
:1030300070915A018091630190916401A0916501A2
:10304000B0916601481759076A077B070CF456C010
:1030500080913F01853108F051C086E00E94871FB2
:1030600080913F018F5F80933F0180916301909138
:103070006401A0916501B0916601880F991FAA1F94
:10308000BB1F8093630190936401A0936501B0938B
:1030900066010E94B93528E030E040E050E00E942F
:1030A000263683E0860F90E0A0E0B0E040914F012B
:1030B000509150016091510170915201480F591F78
:1030C0006A1F7B1F40934F01509350016093510141
:1030D00070935201409153015091540160915501F8
:1030E00070915601840F951FA61FB71F809353013F
:1030F00090935401A0935501B0935601C0904F0195
:10310000D0905001E0905101F09052018091530114
:1031100090915401A0915501B0915601C816D9065D
:10312000EA06FB069CF520913F0186E190E0821BB8
:10313000910963E070E00E94A3369B012F5F3F4F2F
:10314000032E000C440B550B60915B0170915C01E8
:1031500080915D0190915E010E942636672B682B5D
:10316000692BA1F482E00E943F2D9FEFC91AD90A72
:10317000E90AF90AC80ED11CE11CF11CC0924F01EA
:10318000D0925001E0925101F092520180914001A1
:10319000882319F081508093400180914101882358
:1031A00019F081508093410180914201882319F0E8
:1031B00081508093420180914301882319F081500E
:1031C0008093430180914401882319F081508093BA
:1031D000440180914701882319F081508093470171
:1031E00081E00E943F2D882369F00E94B9352CE0D0
:1031F00030E040E050E00E942636672B682B692BB8
:1032000009F48DC083E00E943F2DC0905F01D090F3
:103210006001E0906101F090620191E0C91AD1086B
:10322000E108F108C80ED11CE11CF11CC0925F013D
:10323000D0926001E0926101F092620161E087E06A
:103240000E942A2D882321F080915B0180FF6AC0B3
:1032500062E087E00E942A2D8823A1F060915B0143
:1032600070915C0180915D0190915E0122E030E0FF
:1032700040E050E00E9426366130710581059105DD
:1032800009F45EC080915F0190916001A09161019D
:10329000B0916201CC97A105B105DCF060915301BA
:1032A00070915401809155019091560124E030E0D5
:1032B00040E050E00E94263680914F0190915001ED
:1032C000A0915101B0915201281739074A075B07B5
:1032D0001CF08EE10E94871F80915F019091600138
:1032E000A0916101B0916201181619061A061B0619
:1032F0002CF01092D10182E08093D001E12CF12CCE
:103300008AE00E943F2D90E0880F991FE816F90689
:103310005CF50E94C6248FEFE81AF80AF1CF0E94EC
:10332000961770CF91E0C91AD108E108F108C09250
:103330005F01D0926001E0926101F092620188CF5A
:1033400080915F0190916001A0916101B091620153
:103350000197A109B10980935F0190936001A09347
:103360006101B09362018ECFFF90EF90DF90CF901C
:10337000089525E0829FC0011124FC01EB5EFC4F03
:103380001082118212821382148208954F925F92EA
:103390006F927F928F929F92AF92BF92CF92DF9265
:1033A000EF92FF920F931F93CF93DF938DEDA82E93
:1033B00083E0B82EC0E0D0E095E0892E28E0422ED0
:1033C000512C612C712CCC2EC694C694C69488E0E6
:1033D000C89E60011124750100E010E0EC2FE77039
:1033E0009E2EF801EC0DFD1DE854FE4F808190E00B
:1033F000092C02C0959587950A94E2F780FF1AC0C0
:10340000F70180818823B1F0B801CE010E94481DE8
:10341000809142018823C9F10E94B935A30192012C
:103420000E9426366F5FE62FF0E0E155FC4F849155
:103430000E94F5260F5F1F4FFFEFEF1AFF0A0830BB
:10344000110579F6219688E0A80EB11CC531D10589
:1034500009F0B9CF60913A0170E08091390190E0B4
:103460000E94481D80E4DF91CF911F910F91FF9042
:10347000EF90DF90CF90BF90AF909F908F907F9014
:103480006F905F904F900C94F526F701808190E04B
:103490000197889E9001899E300D1124F901EB5E01
:1034A000FC4FE0816E2F62956F70BDCFCF92DF929F
:1034B000EF92FF920F931F93CF93DF93C42F28E0D7
:1034C000829FC00111248C0103521C4F060F111D55
:1034D000F80180818111E8C10E94F01591E0980FF8
:1034E000F8019083082F10E025E0829FF00111245D
:1034F000EB5EFC4F81E08183128213821482C11142
:103500001DC00E94B93524E630E040E050E00E9442
:10351000263640E0262F30E0842F90E0FC01E9556C
:10352000FC4FE4914F5F6E17B8F3FC01E855FC4F78
:10353000E491F0E02E173F077CF7C42F4C2F50E0AA
:10354000FA013197E830F10508F0AEC1E358FF4FBA
:103550000C94B73685E0809FE001819FD00D112447
:10356000CB5EDC4F80E188830E94B93524E630E0F1
:1035700040E050E00E94263680913C01680F69834C
:1035800093C10E94B93525E030E040E050E00E9450
:103590002636672B682B692B51F485E0809FF0015C
:1035A000819FF00D1124EB5EFC4F81E209C085E0A4
:1035B000809FF001819FF00D1124EB5EFC4F80E2B3
:1035C00080830E94B93525E0209FE001219FD00D26
:1035D0001124CB5EDC4F22E030E040E050E00E945E
:1035E00026366F5F69838C8180683EC10E94B93541
:1035F00028E030E040E050E00E94263685E0809FE1
:10360000E001819FD00D1124CB5EDC4F80E3860F5B
:103610008883643018F481E089830DC00E94B93535
:103620002DE030E040E050E00E9426366D5F698377
:103630008C8180688C830E94B93526E030E040E0C0
:1036400050E00E942636611120C00E94B93523E067
:1036500030E040E050E00E942636C1E0C60F6C2FFB
:1036600070E06F5F7F4F072E000C880B990B0E9454
:10367000552785E0809FF001819FF00D1124EB5EBE
:10368000FC4F6283C61BC3830FC1613009F00CC1BC
:103690000E94B93523E030E040E050E00E94263639
:1036A000C1E0C60F6C2F70E06F5F7F4F072E000CDC
:1036B000880B990B0E94552785E0809FF001819F20
:1036C000F00D1124EB5EFC4F862F819582836C1BDD
:1036D00063838481806445C00E94B93527E030E06F
:1036E00040E050E00E942636F62E85E0809FE00103
:1036F000819FD00D1124CB5EDC4F605C688381E03C
:1037000089830E94B93526E030E040E050E00E9415
:10371000263661110BC00E94B93523E030E040E04D
:1037200050E00E9426366F5F6A830FC0613069F4F3
:103730000E94B93523E030E040E050E00E94263698
:1037400060956A838C8180648C83F110ADC085E0C4
:10375000809FF001819FF00D1124EB5EFC4F84816E
:1037600088608483A1C080E00E94531595E0909FFB
:10377000F001919FF00D1124EB5EFC4F805B0CC0BB
:1037800081E00E94531595E0909FF001919FF00D0C
:103790001124EB5EFC4F805A808381E08183848119
:1037A0008068DFCF0E94B9352BE030E040E050E088
:1037B0000E94263685E0809FE001819FD00D112474
:1037C000CB5EDC4F80E7860F888381E08983E62F1C
:1037D000F0E0EF5FFE4F848D843051F020F48130B3
:1037E00009F440C061C0863019F0873079F15CC0BF
:1037F0000E94B93522E0C22ED12CE12CF12CA70178
:1038000096010E942636611110C00E94B93525E04C
:10381000209FE001219FD00D1124CB5EDC4FA7013A
:1038200096010E9426366F5F3EC00E94B93525E0A2
:10383000209FE001219FD00D1124CB5EDC4FA7011A
:1038400096010E94263660956A830CC00E94B935A5
:1038500022E030E040E050E00E942636672B682BE3
:10386000692B11F58C8180648C831EC00E94B93550
:1038700025E0209FE001219FD00D1124CB5EDC4F7D
:103880002AE030E040E050E00E942636605868832D
:1038900081E089830E94B93524E030E040E050E0C7
:1038A0000E9426366D5F6A83DF91CF911F910F9141
:1038B000FF90EF90DF90CF90089580913A0184308F
:1038C00038F081E080937605809375058FEF06C010
:1038D00081E0809376058093750587E38093770573
:1038E0008091B6019091B7010C94FA26BF92CF92C5
:1038F000DF92EF92FF920F931F93CF93DF93182FD6
:10390000F62EE42E60913C0123E0260F66506631CE
:103910000CF065E167FD60E02C310CF02AE1022E2D
:10392000000C330B440B550B062E000C770B880B49
:10393000990B0E946F27B62E27E0629FC0011124C9
:10394000FC01EF50FD4F6F01EF012696FE018491BF
:103950008F70833069F028F48130B1F0823019F132
:1039600025C0853099F008F1863001F503E01EC0CE
:103970000E94B93522E030E040E050E00E94263657
:10398000672B682B692B79F001E010C00E94B935D4
:1039900022E030E040E050E00E942636672B682BA2
:1039A000692B19F0F1CF02E001C004E0812F90E013
:1039B000FC01E35AFA4F20E2029FB00C1124B082BE
:1039C000F601C490FC01EA55FE4FC082FE01C4918D
:1039D000FC01EB57FB4FC07FC860C08328E0F29E1C
:1039E000F0011124EB56FB4FEE0DF11D1F5F10830C
:1039F000DF91CF911F910F91FF90EF90DF90CF90CB
:103A0000BF900895CF93DF93C82FD0E0FE01EB570E
:103A1000FB4F808186FF09C088E00E943F2D811105
:103A200004C080914601813081F580914201C35AE2
:103A3000DA4F8823D1F088818056803260F40E946A
:103A4000B93529E030E040E050E00E942636FB0125
:103A5000E055FC4F15C00E94B9352AE130E040E046
:103A600050E00E942636FB0109C0E88180EA8E0FF3
:103A7000803210F48AE205C0EF71F0E0EE52F74FA9
:103A80008491DF91CF910C94F526DF91CF91089529
:103A9000982F990F890F880F8F5FE1E7F5E08583F5
:103AA0008483660F660F660F615066830895CF9218
:103AB000DF92EF92FF920F931F93CF93DF939DE5D9
:103AC000E92E95E0F92E0DE315E0CDE4D5E0D12CFB
:103AD0002AE0C22EF70181917F01803208F45EC096
:103AE00080914501811150C0E091390180913A01E6
:103AF00098E0E99FF0011124E952FE4FE80FF11D13
:103B00002081822F6C2D0E948936A92FE92FF0E0A9
:103B1000E257FD4F808181111DC02830D9F02881E6
:103B200030E0F801408150E0F90183E0EE0FFF1F23
:103B30008A95E1F7E952FE4FE40FF51F80810E945C
:103B40008936A91307C0BA01C9010E94481D8D2DED
:103B50000E94021D888190E02091390130E0281BED
:103B6000390B2F5F3F4F23303105C0F4F8016081DE
:103B700070E020913A0130E0261B370B2F5F3F4F5A
:103B80002330310558F405C0F801608170E0888168
:103B900090E00E94481D8D2D0E94021D0F5F1F4F57
:103BA0002196D394F0E1DF1295CFDF91CF911F9151
:103BB0000F91FF90EF90DF90CF9008950F931F9398
:103BC000CF93DF9380914101882379F060913A018E
:103BD00070E08091390190E00E94481D80E4DF91FF
:103BE000CF911F910F910C94F526C0E0D0E000E03A
:103BF00010E0809139019E01280F311DC901019704
:103C000020913A01B801620F711D61507109FC01E8
:103C100023E0EE0FFF1F2A95E1F7E952FE4FE60F72
:103C2000F71F20813FEF320F363018F02F512C3420
:103C300028F40E94481D8EE20E94F5260F5F1F4F58
:103C400003301105B1F62196C330D10581F6BECF00
:103C5000AF92BF92CF92DF92EF92FF920F931F939A
:103C6000CF93DF9307ED11E0C0E0D0E08AE0B82EFB
:103C7000EC2EE694E694E69488E0E89E7001112428
:103C8000C12CD12C9C2F9770A92EB601CE010E9479
:103C9000481DF601EE0DFF1DE854FE4F808190E0B7
:103CA0000A2C02C0959587950A94E2F780FF4FC0D1
:103CB000F801EC0DFD1D2081222309F448C08FEF8F
:103CC000820F863020F081EE820F8C34F8F4E09180
:103CD000390180913A0198E0E99FF0011124E952FD
:103CE000FE4FE80FF11D80816B2D0E948936392F20
:103CF000E92FF0E0E257FD4F8081811107C0822F4C
:103D00000E948936391323C08EE230C0283009F171
:103D100085EF820F8630F8F08BEE820F8630E8F068
:103D200081E9820F8C34D8F081E4820F8830C8F0AA
:103D300087E3820F8630B8F08DE2820F8630A8F0DC
:103D400083E2820F863078F0275E263070F080E2C2
:103D50000DC083E20BC085E209C08BE207C08FE58E
:103D600005C08FE303C086E201C08CE70E94F52600
:103D70008FEFC81AD80A98E0C916D10409F085CF88
:103D80002196085F1F4FC531D10509F071CFDF9132
:103D9000CF911F910F91FF90EF90DF90CF90BF9048
:103DA000AF900895CF93DF9325E934E04DED53E0D4
:103DB00080E090E0F901E80FF91F1082FA01E80FA6
:103DC000F91F1082019688309105A1F7285F3F4FB7
:103DD000485F5F4F85E02D33380751F788EB91E05E
:103DE00020E030E0FC01E20FF31F10822F5F3F4F15
:103DF00028303105B9F70896A1E0803D9A0781F790
:103E0000E5E1F3E01082118212821382148235966A
:103E1000B3E0ED3DFB07B1F7EDE4F5E02DE335E070
:103E20008DE595E0C6EAD1E065E874E01192D9012C
:103E30001D929D01DC011D92CD011992DB011D92A5
:103E4000BD01B5E0ED35FB0789F7DF91CF9108950E
:103E5000E82FE695E695E69598E0E99FF0011124B4
:103E6000E854FE4FE60FF11D282F277081E090E007
:103E7000A0E0B0E004C0880F991FAA1FBB1F2A95BD
:103E8000D2F72081822B80830895CF93DF93CDB723
:103E9000DEB72D970FB6F894DEBF0FBECDBF9DE005
:103EA000E7E7F1E0DE01119601900D929A95E1F7B6
:103EB00090E070E0FE01E80FF91F411105C080811C
:103EC000FB01E80FF11D10C0258105973EE0389FEA
:103ED000F001399FF00D1124EF5FFE4FE60FF71F41
:103EE000E081F0E0E20FF11DEE0FFF1FE051F84F0F
:103EF000259134912093B6013093B7012D960FB6DA
:103F0000F894DEBF0FBECDBFDF91CF910895E82FAB
:103F1000F0E0EE0FFF1FEE54F84F859194919093CF
:103F2000B7018093B60108952F923F924F925F920E
:103F30006F927F928F929F92AF92BF92CF92DF92B9
:103F4000EF92FF920F931F93CF93DF93CDB7DEB71E
:103F50002B970FB6F894DEBF0FBECDBF0DE515E071
:103F60002DE435E03A8329839DE3492E95E0592ECF
:103F700025E8622E24E0722E1B8235E0832E912CE0
:103F8000A12CB12CD8018C9181118EC00E94B93521
:103F900020E830E040E050E00E942636672B682B96
:103FA000692B09F046C3E091390180913A01B8E0EC
:103FB000EB9FF0011124E952FE4FE80FF11D8081C3
:103FC0009091D60191111DC090E001976AE070E0D8
:103FD0000E94A3369C0162E070E00E94A336281B79
:103FE000390B37FF02C02F5F3F4F35952795C90129
:103FF000019662E070E00E94A3366C01CC0CDD1CDF
:1040000002C0C12CD12CF601EE52FE4F80818111ED
:1040100003C0EFEFCE1ADE0AF601E557FD4FE08050
:10402000F601E957FD4F6081062E000C770B6E19E3
:104030007109E7FC73956F5F7F4F072E000C880BAB
:10404000990B0E945527E60EA981BA81EC92F601E0
:10405000ED57FD4FE080F601E158FD4F6081062EDF
:10406000000C770B6E197109E7FC73956F5F7F4F3A
:10407000072E000C880B990B0E9455274E2D460FDA
:10408000F2014083A981BA816C91B8E06B9FF00185
:104090001124EB56FB4FE40FF11D80818111C9C241
:1040A0008B810E94761CC5C2F3019081892F881FE5
:1040B0008827881F8F5F92FF04C090915B0190FD5D
:1040C000B8C2212C312C282F30E03F832E834E8123
:1040D0005F81241635060CF0ACC2D8018C9190ECAF
:1040E000980F903A08F47FC08F718531C9F5E0913F
:1040F000390180913A01B8E0EB9FF0011124E952B7
:10410000FE4FE80FF11D2081283009F4BFC2A981BC
:10411000BA81EC91D2018C91B8E0EB9FF0011124AF
:10412000E952FE4FE80FF11D8081AAE0EA2E6E2DC4
:104130000E948936392F822F0E9489363913A6C2F0
:10414000F301808183FFA2C20E945F2B82E10E9463
:10415000871FE0924001D3018C91877F8C9347C0E9
:10416000893109F093C2EE24E394D12C65E08E2DC1
:104170000E94C92C97FF02C081509F4F892F990F31
:10418000990BFC01E45AFA4F80818F71893109F44F
:10419000D394E394B5E0EB12E9CFDD2009F476C2C5
:1041A0000E94B93522E030E040E050E00E9426361F
:1041B000672B682B692B09F069C20E945F2B83E192
:1041C0000E94871F80913F0166E170E0681B7109C2
:1041D000072E000C880B990B0E945527862F63E051
:1041E0000E94530D04C045E050E059874887D30131
:1041F0008C9185FF0DC00E94B93523E030E040E08E
:1042000050E00E942636672B682B692B09F4F8C210
:1042100028853985215031092430310508F005C23F
:104220004885598541705527888599850297849FCF
:10423000F02C112421703327888599850397289FB6
:10424000902D1124E981FA818081682F70E09B0113
:104250002F0D311DF7FC3A95E0913901F0E02E1752
:104260003F0709F094C1D2015C91A92F092E000CDF
:10427000BB0BA50FB11DE0913A01F0E0AE17BF07EF
:1042800009F085C12114310409F0CFC1D801EC91A6
:10429000EF71EE2EB7E0EB9FF00111249F012F503C
:1042A0003D4F6901F9013396949180913F01880F48
:1042B000981B80914901880F981B9C830E94B935F7
:1042C00024E630E040E050E00E9426366D8361E055
:1042D00084E00E942A2D8823A9F090E0019725E030
:1042E000289FD001299FB00D1124AD56BD4FEC91F0
:1042F000EF70F0E0E451F74FE49112968C91FE2EAE
:10430000F80E01C0F12C3C814D81431708F08DC19E
:10431000F601329624913197E49130E040E050E08C
:104320006E2F70E080E090E00E946F279B01AC014F
:104330006F2D7DEF7603D0011124AC59BF4F0E9441
:10434000503624E630E040E050E00E942636D22E7F
:104350000E945F2B64E06E0D8D2DD7FC80E00E94E3
:10436000530DD3018C9183FF60C18E2D90E0FC0131
:104370003597E231F10508F058C1EB57FF4F0C9427
:10438000B7360E94B935A50194010E942636672BE5
:10439000682B692B09F049C18DE00E94871F0E949C
:1043A000B935A50194010E9426366C5F60934401E3
:1043B0000E94B93524E130E040E050E00E9426360A
:1043C000672B682B692B09F0DEC261E080914F01F9
:1043D0000E94530DD8C280913D01843008F01DC267
:1043E00085E00E943F2D882309F417C21EC18091E9
:1043F0004B0190914C01A0914D01B0914E01C3979A
:10440000A105B1050CF411C10E94B9352AE030E0D4
:1044100040E050E00E942636672B682B692B09F09C
:1044200010C203C161E084E00E942A2D882309F4B0
:10443000FCC090E0019745E0489F9001499F300DF6
:104440001124F901ED56FD4F6F01848183FF1FC2D6
:10445000ECC00E94B93522E030E040E050E00E941C
:104460002636672B682B692B09F0DFC00E94B9350F
:1044700024E130E040E050E00E942636E62EB5E030
:104480006B9FF0011124ED56FD4F848184FDCDC05A
:104490008FE00E94871F8E2D0E94AC29F801808139
:1044A0008054808370C2809147018111BEC081E138
:1044B0000E94871F81E08093480165C280913F017F
:1044C000863008F4B2C00E94B935A50194010E945B
:1044D0002636672B682B692B09F4E9C1A6C00E9418
:1044E000B9352AE030E040E050E00E9426366430E2
:1044F0007105810591050CF098C085E10E94871F28
:104500000E94B93523E030E040E050E00E942636BA
:10451000E62E60FF2DC080914F0190915001A09137
:104520005101B09152018A309105A105B1050CF4F9
:104530002AC20197A109B10980934F0190935001BC
:10454000A0935101B0935201809153019091540175
:10455000A0915501B09156010197A109B10980932D
:10456000530190935401A0935501B09356010BC28F
:1045700085E00E943F2D90913D01882309F4FFC101
:10458000963008F0FCC1EE2009F4FDC1C4CFD8017B
:104590005C915F715F3009F448C02531310508F046
:1045A00044C0F201F081FC834F2F50E05B874A87C3
:1045B000FA01E90FF11D97FDFA95E830F105A8F52C
:1045C000A3E0220F331FAA95E1F7D901AB56BB4FE9
:1045D0006D01CE0EDF1ED601EC90E11026C02952EF
:1045E0003E4FE20FF31F208121502E3BF0F423E0D9
:1045F000660F771F2A95E1F76B567B4FDA01A60FFE
:10460000B71F1C928F0DE981FA818083FC819F0F77
:10461000D2019C93B8E08B9FF0011124EB56FB4F25
:10462000E90FF11D8B818F5F8083EFEF2E1A3E0A19
:104630004ECD0F5F1F4FFB81FF5FFB8329813A81C6
:104640002F5F3F4F3A8329833FEF431A530A4FEFBF
:10465000641A740AF03109F095CC2B960FB6F894D1
:10466000DEBF0FBECDBFDF91CF911F910F91FF90A5
:10467000EF90DF90CF90BF90AF909F908F907F9002
:104680006F905F904F903F902F900895D8018C913C
:10469000805E803210F091E001C09FEFE981FA81E5
:1046A0008081F0913901FC83F81730F5692F092ECC
:1046B000000C770B282F30E0261B370BD2014C91D2
:1046C00050E0E3E0220F331FEA95E1F7F901EB56E2
:1046D000FB4FE40FF51FE081E1110EC029523E4F60
:1046E000F901E40FF51F208121502E3B28F4E2E070
:1046F000F0E0E61BF70B73C0D2014C9150913A01E8
:10470000541710F5A92F092E000CBB0B242F30E0F5
:104710002A1B3B0BE8E08E9FB0011124FB01EB56F6
:10472000FB4FE20FF31FE081E1110EC069527E4F93
:10473000FB01E20FF31F208121502E3B28F423E0E0
:1047400030E02A1B3B0B59C03C81831730F5692FA1
:10475000092E000C770B798768879B01280F311D84
:10476000E42FF0E0B3E0220F331FBA95E1F7D9014F
:10477000AB56BB4FAE0FBF1F6C9161110EC02952DB
:104780003E4FE20FF31F208121502E3B30F48885ED
:1047900099850296998788872ACD451718F5A92FFC
:1047A000990FBB0BB987A8879D01240F311DB8E075
:1047B0008B9FC0011124FC01EB56FB4FE20FF31F4E
:1047C000408141110FC089529E4FFC01E20FF31F3F
:1047D000808181508E3B30F4E885F9853396F987E6
:1047E000E88705CD0E94B93524E030E040E050E094
:1047F0000E9426369B012F5F3F4F39872887F7CCD1
:104800000E94B93524E030E040E050E00E942636B6
:10481000FB013196F987E887FBCC0E94B935A501E9
:1048200094010E942636672B682B692B09F0FDCE78
:104830008EE00E94871F80913D01815080933D0151
:10484000A2C08FE00E94871FC0904B01D0904C0106
:10485000E0904D01F0904E010E94B93522E330E026
:1048600040E050E00E942636A7019601261B370B38
:10487000480B590B20934B0130934C0140934D0151
:1048800050934E01D8018C9180548C937CC089E068
:104890000E943F2D8111C9CE80E10E94871FD60161
:1048A00012968C911297815012968C936CC084E171
:1048B0000E94871F6091630170916401809165017E
:1048C0009091660122E030E040E050E00E94263600
:1048D0002093630130936401409365015093660116
:1048E000DA01C9010197A109B10980935701909399
:1048F0005801A0935901B0935A0180913F01815012
:1049000080933F018091530190915401A0915501F2
:10491000B09156016C017D01E3E0CE1AD108E108A7
:10492000F1080E94B93527E030E040E050E00E94F5
:104930002636A7019601261B370B480B590BDA01C7
:10494000C901209353013093540140935501509372
:10495000560140914F015091500160915101709169
:10496000520184179507A607B7076CF480934F018F
:1049700090935001A0935101B093520104C0915003
:1049800090933D0100CE0E945F2B4FCE0F931F935B
:10499000CF93DF932091390180913A0190E048E074
:1049A000249F90011124DC01A20FB31F60E070E08E
:1049B0001997A901485051099C012F5F3F4F98E07A
:1049C0006831710561F1FD01E60FF71FE952FE4FF5
:1049D000EA01C60FD71FC952DE4F8F010C1B1D0BFA
:1049E00020173107CCF0808111EE180F1C3410F421
:1049F000805B0FC013E2180F163010F4885C09C0FA
:104A0000843E11F4908306C019E1180F163010F49B
:104A1000825D80833196E1CF685F7F4FD1CFDF9198
:104A2000CF911F910F910895CF92DF92EF92FF9255
:104A30000F931F93CF93DF936C017A018B01C0E03A
:104A4000D0E0CE15DF0581F0D8016D918D01D60142
:104A5000ED91FC910190F081E02DC6010995892B23
:104A600011F02196EECF7E01C701DF91CF911F910A
:104A70000F91FF90EF90DF90CF90089508952F92BF
:104A80003F924F925F926F927F928F929F92AF92DE
:104A9000BF92CF92DF92EF92FF920F931F93CF932B
:104AA000DF9300D000D0CDB7DEB7DC016A3081F4EF
:104AB00015968C91159714968C93149716969C9135
:104AC000169719968C911997890F16968C93FEC09C
:104AD00060526F3508F0F0C01496EC9014974E2C8D
:104AE0000E2C000C5508E3EFF8E0F490E4EFF8E04A
:104AF000E4910F2D10E06623E1F081E090E04E2F6D
:104B0000477011F480E090E04E2F4695469546950B
:104B1000840F911D809F6001819FD00C909FD00CCD
:104B200011246C9DA0016D9D500D11244B50574FC9
:104B300002C045EF58E0040D151D101611060CF0CB
:104B4000BBC016968C9116978F5F682F082E000CAD
:104B5000770B6B01CE0ED11C1C141D040CF0ACC0E5
:104B6000603471050CF0A8C04115510509F4A4C0CA
:104B700087706B0177FF03C027E0C20ED11C93E062
:104B8000D594C7949A95E1F7FC2D77FF04C088234C
:104B900011F0FFEFFC0D57FE05C06627772764195B
:104BA000750902C060E070E00038110524F090E85B
:104BB000992E9E1801C09F2C961A0F2F0F2E000CB5
:104BC000110BFF3F1CF4E02EE09401C0E12C21E02A
:104BD0003E2F377009F420E0E695E695E695922F92
:104BE0009E0F090F111D0930110514F098E09F1B4D
:104BF0008E2C8F0E01E010E0082E02C0000F111F56
:104C00000A94E2F7DF2CD9185B01FE9CA00CB11CC2
:104C100011244A0D5B1DEFEFE09F7001E19FF00C46
:104C20001124E094F0947E2C282D30E82303400CCE
:104C3000511C11249201260F371F25573A4F9F0F01
:104C4000692D70E0FB01ED0DF11D6F019815A1F1CB
:104C5000B9011A01B22CB41AB91440F5F1016490EB
:104C6000609E5001619EB00C1124BA82A982FC8220
:104C7000EB8287FC05C0FB01B080B720AB28A08287
:104C8000882371F0F6E0F8155CF05B01E0E8AE0E09
:104C9000B11CF50150806C8065205A8065286082C7
:104CA000FFEF2F1A3F0A6F5F7F4FD4CF83944C0DD5
:104CB0005D1D20583F4FCACF18968C9118978B5F77
:104CC00014969C911497890F14968C9381E090E030
:104CD0000F900F900F900F90DF91CF911F910F9138
:104CE000FF90EF90DF90CF90BF90AF909F908F900C
:104CF0007F906F905F904F903F902F900895089510
:104D000080E090E008958F929F92AF92BF920F93B0
:104D10001F93CF93DF93CDB7DEB7A1970FB6F8946B
:104D2000DEBF0FBECDBF19A2423008F44AE08E01AB
:104D30000F5D1F4F842E912CA12CB12CA501940145
:104D40000E945836E62FB901CA0101501109EA3014
:104D500014F4E05D01C0E95CD801EC93232B242B13
:104D6000252B61F70115110571F0F8010190002064
:104D7000E9F73197AF01401B510BB80181E795E08E
:104D80000E94142502C080E090E0A1960FB6F8942E
:104D9000DEBF0FBECDBFDF91CF911F910F91BF90AE
:104DA000AF909F908F9008950E94E03680E0EBE8EE
:104DB000F5E081118FEF002481938193819381939A
:104DC0000394D1F7089520918105282329F4909127
:104DD0008005982381E009F480E00895682F70E051
:104DE00080E090E04AE00C948326682F81E795E00C
:104DF0000C943F250F931F93CF93DF938C01C0E05A
:104E0000D0E0F801EC0FFD1F6491662341F081E7CB
:104E100095E00E943F25892B11F02196F2CFCE011B
:104E2000DF91CF911F910F910895CF92DF92EF9272
:104E3000FF92CF93DF9397FF19C06B017C018DE246
:104E40000E94F526EC0166277727CB016C197D09B6
:104E50008E099F094AE00E9483268C0F9D1FDF91D7
:104E6000CF91FF90EF90DF90CF9008954AE0DF91CF
:104E7000CF91FF90EF90DF90CF900C948326BC01F0
:104E8000990F880B990B0C941527EBE8F5E080E05F
:104E9000A0E0B8E000800EBC8111012C1197A0FDAC
:104EA000FDCF0192B9F70DB40895CF92DF92EF9242
:104EB000FF92611571058105910549F06B017C0137
:104EC0000E94B935A70196010E94263603C060E012
:104ED00070E0CB01FF90EF90DF90CF900895CF92DC
:104EE000DF92EF92FF920F931F936217730784076D
:104EF000950784F489019A016B017C01C901B8010D
:104F00006C197D098E099F090E9455276C0D7D1D26
:104F10008E1D9F1D1F910F91FF90EF90DF90CF90FE
:104F200008953FB7F8948091870590918805A091E6
:104F30008905B0918A0526B5A89B05C02F3F19F0B9
:104F40000196A11DB11D3FBFBA2FA92F982F882709
:104F5000820F911DA11DB11DBC01CD0142E0660F64
:104F6000771F881F991F4A95D1F708958F929F92B6
:104F7000AF92BF92CF92DF92EF92FF926B017C01D2
:104F80000E9491274B015C01C114D104E104F1049A
:104F9000F1F00E949127DC01CB0188199909AA0937
:104FA000BB09883E9340A105B10570F321E0C21A08
:104FB000D108E108F10888EE880E83E0981EA11C54
:104FC000B11CC114D104E104F10419F7DDCFFF9045
:104FD000EF90DF90CF90BF90AF909F908F9008950B
:104FE0001F920F920FB60F9211242F933F938F931E
:104FF0009F93AF93BF9380916D0590916E05A091A3
:105000006F05B09170053091860523E0230F2D3791
:1050100020F40196A11DB11D05C026E8230F0296BC
:10502000A11DB11D2093860580936D0590936E059B
:10503000A0936F05B09370058091870590918805C6
:10504000A0918905B0918A050196A11DB11D80939B
:10505000870590938805A0938905B0938A05BF9131
:10506000AF919F918F913F912F910F900FBE0F9015
:105070001F901895BC0180E090E00C94B6278FB18A
:105080008095807F669B88601C9B84600895CF928A
:10509000DF92EF92FF920F931F93CF93DF93EB0179
:1050A0007B0125E0E20EF11C8B016C01C61AD70AC8
:1050B000C601800F911F0E941036F80181938F0165
:1050C000EE15FF05A9F7CE01DF91CF911F910F914A
:1050D000FF90EF90DF90CF900895AF92BF92CF9264
:1050E000DF92EF92FF920F931F93CF93DF9300D045
:1050F000CDB7DEB78B016B0125E0C20ED11C7B0161
:105100005C01A61AB70AC5018E0D9F1DF7016191BA
:105110007F019A838983CE0101960E949305EC1446
:10512000FD0489F7C8010F900F90DF91CF911F9177
:105130000F91FF90EF90DF90CF90BF90AF900895C8
:105140000E94D62680914101811109C00E94281E2B
:105150000E94DE1D0E94C6190E94571D02C00E94B7
:10516000DE1D85E00E94871F0E945D1C0E9445276E
:105170000E94230D90914001992351F00E94B9356E
:1051800024E030E040E050E00E94263681E0860FC7
:105190000895FF920F931F93CF93DF93F82EC62F9E
:1051A000142F022FDFEFD60F8D2F0E94392BEF2DFA
:1051B000F0E0EF5FFE4FE2A58E2F90E08930910581
:1051C00008F06DC0FC01E956FF4F6C2F70E00C94A5
:1051D000B73661507109FB01E35AFA4F1082FB01A7
:1051E000E35BFA4FE081DB01A35CBA4F8C9198E05E
:1051F000E99FF0011124EB56FB4FE80FF11D1082DF
:105200004EC0FB01EC57FB4F808187FF02C08F77B8
:1052100045C0846043C0FB01EC57FB4F8081806236
:105220003DC0FB01EC57FB4F8081806437C0EB0130
:10523000C45ADA4F6881162F107E0E94B9352AE1D0
:1052400030E040E050E00E942636610F688327C0BE
:10525000FB01EC57FB4F808182FF02C08B7F1EC099
:1052600080681CC0FB01E45AFA4F80818F7180581E
:1052700015C040913F01842F880F880F480FFB0114
:10528000E45AFA4F60816F71212F8D2F0E947C2B81
:1052900006C0FB01EC57FB4F8081877F8083DF9145
:1052A000CF911F910F91FF900895AF92BF92CF922F
:1052B000EF92FF920F931F93CF93DF93142FA82E9B
:1052C000B12CC62FD0E0F50143E0EE0FFF1F4A9549
:1052D000E1F7E352FC4FEC0FFD1F9081992339F069
:1052E00040E00E942C2CF82E882361F102C035E0AA
:1052F000F32E0E94F015E82F8F2DFF0C990B0197CC
:1053000063E070E00E94A3368A0D9B1D23E0880FA6
:10531000991F2A95E1F78B529C4FC80FD91F6C0F2C
:105320007D1FEB01219781E08E0F888385E0E89F48
:10533000F0011124EB5EFC4F108381E08183028336
:10534000E382C482DF91CF911F910F91FF90EF9084
:10535000CF90BF90AF90089525E0829FC0011124A7
:10536000FC01ED56FD4F10821182128213821482CD
:10537000E9E3F1E08281815082830C9486152FEF5E
:10538000280F253018F49BEF980F23C02AEF280F21
:105390002930A0F021EF280F233090F0823191F0D6
:1053A0002DEE280F223080F0853181F02AEE280F73
:1053B000293070F08F3168F098E00BC091E009C09F
:1053C00093E007C094E005C095E003C096E001C0FB
:1053D00097E0892F08952F923F924F925F926F929C
:1053E0007F928F929F92AF92BF92CF92DF92EF9275
:1053F000FF920F931F93CF93DF93CDE5D5E00DE49C
:1054000015E08DE3282E85E0382E9AE0C92ED12CA8
:10541000E12CF12C88818054803208F041C0F801E1
:10542000808190E020913901AC01421B510957FF66
:1054300003C0519541955109F101208130E08091DF
:105440003A01B901681B7109CB0177FF03C091953F
:1054500081959109840F951F039714F50E94B93522
:105460004B015C0180E00E943F2D682F70E06F5F70
:105470007F4F84E090E00E94A3362B01770F6608EF
:105480007708C501B401A70196010E94263664156C
:1054900075058605970524F488818F71805E888361
:1054A00021960F5F1F4F7FEF271A370A85E0CD3611
:1054B000D80709F0AFCFDF91CF911F910F91FF90E7
:1054C000EF90DF90CF90BF90AF909F908F907F90A4
:1054D0006F905F904F903F902F90089525E0829FAE
:1054E000C0011124DC01AD56BD4FEC91EF70F0E02E
:1054F000EF5FFE4F848D843019F0863059F00895A7
:1055000012969C9180914A01699F800D112480938D
:105510004A01089512969C9180914901699F800DDE
:1055200011248093490108958F929F92AF92BF9268
:10553000CF92DF92EF92FF920F931F93CF93DF935F
:1055400080913C01811103C08FEF80933C018091D9
:105550004B0190914C01A0914D01B0914E014091B1
:105560008B0950918C0960918D0970918E094817B3
:1055700059076A077B070CF06EC020913C018093AD
:105580008B0990938C09A0938D09B0938E09209379
:105590008F090BE819E0E80120E030E02F5F3F4F72
:1055A000CE01A9014530510539F425962530310544
:1055B000A9F7C4E6D0E02BC088809980AA80BB8080
:1055C000FC01C580D680E780F084C814D904EA04C1
:1055D000FB04CCF465E0FE01A4EAB9E001900D9271
:1055E0006A95E1F765E0FC013596DE0101900D92C8
:1055F0006A95E1F765E0E4EAF9E0DC0115960190CF
:105600000D926A95E1F74F5F5F4F0596CBCFBE01D4
:10561000695D764FCE010E946D282596CD37D10564
:10562000B1F740914B0150914C0160914D01709147
:105630004E0195E080E0F801C080D180E280F380E7
:10564000C416D506E606F70609F4892F0B5F1F4F2F
:10565000915089F701C080E0DF91CF911F910F91A8
:10566000FF90EF90DF90CF90BF90AF909F908F9082
:105670000895CF93C82F80914101811106C00E94E7
:10568000281E0E94C6190E94571D8C2F90E0FC0115
:10569000E35CFA4F608170E0FC01E35BFA4F8081CC
:1056A00090E00E94481D80E20E94F5260E94452756
:1056B00064E670E080E090E0CF910C94B627809192
:1056C0004101811106C00E94281E0E94C6190E9435
:1056D000571D60913A0170E08091390190E00E947D
:1056E000481D80E20E94F5260E94452764E670E08E
:1056F00080E090E00C94B6278F929F92AF92BF9279
:10570000CF92DF92EF92FF920F931F93CF93DF938D
:10571000962FE82FF0E0DF01AA55BE4F3C91E35AE7
:10572000FA4F431708F483C088E0289FD001112462
:10573000AB56BB4FA00FB11D1C921082C62FD0E0FC
:10574000C0905701D0905801E0905901F0905A0153
:1057500087E06631F0F08C9FD0018D9FB00D112451
:10576000FD01EB50FD4FA49184E6A89FF0011124A8
:10577000AF01FF0F660B770B4C0D5D1D6E1D7F1D7E
:1057800040935701509358016093590170935A0107
:105790001BC08C9FB0018D9F700D1124FB01EB503D
:1057A000FD4F649146015701860E911CA11CB11C4E
:1057B0008092570190925801A0925901B0925A01DB
:1057C0009F3011F410924801122FB92E0E94B93562
:1057D00027E02C9FF0012D9FF00D1124EA50FD4F82
:1057E000E491CE2ED12CE12CF12C24E630E040E0E7
:1057F00050E00E9426366C157D058E059F05FCF451
:1058000089E0982EB91002C041E001C040E0602F4D
:10581000812FDF91CF911F910F91FF90EF90DF903B
:10582000CF90BF90AF909F908F900C94561A341BDE
:105830003C938081803418F08F71805E8083DF918B
:10584000CF911F910F91FF90EF90DF90CF90BF907D
:10585000AF909F908F9008953F924F925F926F927A
:105860007F928F929F92AF92BF92CF92DF92EF92F0
:10587000FF920F931F93CF93DF93682E862EF42E03
:105880000E94B93528E030E040E050E00E94263622
:10589000C0913901E0913A01F0E088E0C89FE00151
:1058A0001124DE01AB56BB4FAE0FBF1F8FEF8C93A1
:1058B00000E010E0462E512C99E0C92ED12C23E0B7
:1058C000322E712C912CC201800F911FB6010E94C3
:1058D000A336E82E632D0E94953691509301290F2F
:1058E000311D97FD3A958150A401480F511D87FD48
:1058F0005A9583E0220F331F8A95E1F7D901A95207
:10590000BE4FA40FB51F8C918150883C20F5D90162
:10591000A352BC4FA40FB51F6C9170E0A1E0B0E0A2
:10592000FF2011F0A0E0B0E06A9F50016B9FB00C27
:105930007A9FB00C1124AB2871F42B563B4FD90140
:10594000A40FB51F8C918F9DC0011124892B19F4D0
:1059500081E08E0D07C00F5F1F4F0930110509F060
:10596000B2CF80E0CB56DB4FEC0FFD1F1082DF91F2
:10597000CF911F910F91FF90EF90DF90CF90BF904C
:10598000AF909F908F907F906F905F904F903F90DF
:105990000895CF92DF92EF92FF920F931F93CF93D0
:1059A000DF93C62FE82FF0E09F012250310981706C
:1059B000829F202D1124CF01019762E070E00E94A8
:1059C000A33633978E9FD02D1124309139016091E9
:1059D0003A0170E0C22E022E000CDD080D2F0D2EB4
:1059E000000C110BF801E60FF11DA601430F511D2C
:1059F000A3E0440F551FAA95E1F7CA018B569B4FB0
:105A00007C01EE0EFF1ED7018C91882319F0320F16
:105A10006D0F0DC049525E4FE40FF51F408141509C
:105A2000473C28F4320F6D0F7F5F7C13DBCF90E093
:105A3000982F8827B5E16B9F800D911D1124830F4E
:105A4000911DDF91CF911F910F91FF90EF90DF900B
:105A5000CF900895382FE3E9F2E091E080E02081D3
:105A600022952F70231306C0248124FF03C06150A8
:105A700009F4892F35969F5F953189F708950F9323
:105A80001F93CF93DF93182FC0E0D0E005E0CF5FE6
:105A90006C2F87E00E942A2D811108C0C230B9F70F
:105AA0008D2FDF91CF911F910F91089590E0019775
:105AB000089FF001099FF00D1124ED56FD4FE08184
:105AC000EF70F0E0EF5FFE4F848D8113E7CFDF5F73
:105AD000E5CFFF920F931F93CF93DF93D82F85E0ED
