:100000000C9419050C9441050C9441050C94410580
:100010000C9441050C9441050C9441050C94410548
:100020000C9441050C9441050C9441050C94410538
:100030000C9441050C9441050C9441050C94410528
:100040000C9441050C9441050C9441050C94410518
:100050000C9441050C9441050C9441050C948C279B
:100060000C9441050C9441050C9441050C944105F8
:100070000C9441050C9441050C9441050C944105E8
:100080000C9441050C9441050C9441050C944105D8
:100090000C9441050C9441050C9441050C944105C8
:1000A0000C9441050C9441050C9441058D079A0769
:1000B0009F07CF0701081408250829082D083108D3
:1000C000520856085C086008AB08B908E70814092C
:1000D0002A0965096809E209A5087709AB09B90980
:1000E000FF0BA50AFF0BFF0B0A0CFF0B150CA50A53
:1000F000A50AA50A210CA50A2C0C2B1A551A771B48
:10010000771B611A771B771B7C1A8F1A771BB71A1C
:10011000771BC21A771B771B771B771BD31A931E8B
:10012000AB1EB51EBB1EC11ED21EDC1EE31EF31E7F
:100130002A2A3A2A592ABB2AF52AFA2A042B522BB0
:10014000D5F08D14A1C881CFD9F1AF200057696EC9
:10015000202C002D20292048616C6C204F66204601
:10016000616D65202920202D0054484520414D55C2
:100170004C4554204F462059454E444F522000597B
:100180004F55204D414445204954204F5554205748
:100190004954482000202C20434F4E47524154558B
:1001A0004C4154494F4E202C2020002400627900FD
:1001B0004B696C6C65640068656C6C66697265009F
:1001C0006C75636B006C61636B206F660046726FC9
:1001D0007A656E00537461727665005F2020486511
:1001E000726F20205F0028205245535420494E2032
:1001F000504541434520280045783B0041433B00A2
:1002000053743B0048703B0041753B004C763B000B
:10021000202020202020202020200053746174758D
:100220007300415D204E65772047616D6500402079
:10023000526F67756500204300204500207768698C
:1002400063687D0020200020496E76656E746F72B1
:10025000792020202020000203030404050101016D
:100260000101020103010420202020202020202061
:1002700020202020202000202064726F7020202069
:100280002020202020200020207468726F772020FA
:100290002020202020200020207573652020202091
:1002A00020202020202000416374696F6E00646F5D
:1002B0006F72000000006172726F77000000736C53
:1002C00065657000000074656C706F727400706F0B
:1002D00069736F6E00007275737400000000676FC1
:1002E0006C6400000000666F6F64000000006D6FBA
:1002F0006C64000000006D616365000000006178BF
:1003000065000000000073776F7264000000626F88
:1003100077000000000064617274000000006172E8
:10032000726F77000000736872696B656E006461BC
:100330006767657200006C65617468657200726958
:100340006E67000000007363616C65000000636805
:1003500061696E00000073706C696E740000626108
:100360006E6465640000706C617465000000616D0E
:10037000626572000000626C61636B000000626C79
:1003800075650000000062726F776E000000636C9C
:100390006561720000006379616E000000006F7299
:1003A000616E67650000677265656E0000006772C8
:1003B00061790000000070696E6B000000007265DA
:1003C00064000000000076696F6C65740000776857
:1003D00069746500000079656C6C6F7700005A45A0
:1003E0004C474F0000004A555945440000004E520A
:1003F000203900000000584958415841000044414C
:100400004959454E0000454C4249420000005448BD
:1004100041525200000059554D2059554D00414E52
:10042000444F56410000464F4F4249450000544555
:100430004D4F5600000052454144204D4500616734
:10044000617465000000616D74687973740064699B
:10045000616D6F6E6400656D6572616C64006761EB
:10046000726E657400006F6E6978000000006F7036
:10047000616C00000000706561726C0000007275B4
:100480006279000000007361706869726500746FC2
:1004900070617A0000006272617373000000627222
:1004A0006F6E7A650000636F70706572000069722C
:1004B0006F6E000000006C656164000000006E69F2
:1004C000636B656C0000737465656C000000736994
:1004D0006C766572000074696E00000000007A6935
:1004E0006E630000000059656E646F720000706FEB
:1004F000776572000000726573746F7265006865DD
:10050000616C0000000065276865616C0000706F19
:1005100069736F6E00006C6576656C000000626C3C
:10052000696E6400000068616C6C750000006D27E6
:100530006474656374006927647465637400636F31
:100540006E66757365006C657674617465007370B2
:100550006565640000006C6F6F6B000000007072D6
:100560006F7465637400686F6C64000000007765E9
:1005700061706F6E000061726D6F720000006964DF
:100580006E746966790074656C706F727400736C58
:100590006565700000007363617265000000626C45
:1005A0006573730000006372656174650000616EBD
:1005B0006765720000006D617000000000007374D8
:1005C00065616C74680074656C65706F72746C69D9
:1005D000666500000000666F6F64000000006461E3
:1005E0006D61676500007374726F6E67000064650B
:1005F0007800000000006172646F726E0000736525
:1006000065000000000061726D6F7200000073658C
:1006100061726368000074656C706F727400736C53
:100620006F7700000000636F6E6675736500636C22
:100630006561720000006368616E67650000666155
:10064000737400000000736C6565700000006D69D4
:100650007373696C650063616E63656C00006E6F37
:100660007468696E670077656C636F6D6560000024
:10067000492063616E6E6F7400006E6F207370614D
:10068000636500006F626A656374206865726E6FEF
:1006900020736C6F740000006469727D00000000BC
:1006A00000006C6576656C20757000006F6F70736C
:1006B00027272700000079756D6D79000000000084
:1006C0006974206973206375727372656D6F7665E6
:1006D0006400000065717569707065640000776979
:1006E000656C64656400000066726F7A656E000078
:1006F0000000706F69736F6E6564000073746F6CD7
:10070000656E00000000727573746564000000007F
:1007100068656C64000000000000677261636564D6
:10072000000000006275726E6564000000006C6578
:1007300076656C20646F776E647261696E656400C3
:1007400000005A5A5A272727000000004B45425301
:100750004849524F5A4C4351414E594654575058AC
:10076000554D56474A44020304050606072A3A290E
:100770005B213F3D2F2C00050A14192328323C41F0
:100780004B555A5F6400050A0F14232D37414B5512
:100790005A6464640508000000000000746D740071
:1007A0004040404040552A552A55042E6B3A107F50
:1007B000437F417F6A5767576E0060600000707A20
:1007C000770A7008105F100822085D08227E4141F8
:1007D000417E060929522C0008080800000000404C
:1007E0002002007D00023E7F417F3E00427F7F402D
:1007F0006271594F462241497F3618147E7F102F6F
:100800004F4979313E7F4979300161791F07367F41
:10081000497F36064F497F3E18353E3D1800363633
:1008200000000040381800102A452A101C7F3E1C8A
:1008300008085C2E170A0102641F767E7F097F7EFE
:100840007F7F497F363E7F4141227F7F417F3E7FD0
:100850007F4949417F7F0909013E7F41797A7F7F46
:10086000087F7F00417F7F4141417F3F017F7F1CA7
:1008700036637F7F4040407F7E0C7E7F7F7E1C3FC3
:100880007F3E7F417F3E7F7F090F063E7F613F5E57
:100890007F7F097F76264F49793200017F7F013FB4
:1008A0007F407F3F1F3F603F1F7F3F103F7F777F2D
:1008B000087F77037F78070371794D47431F3F7B9C
:1008C0003F1F707A770A700041417F3E3E7F414171
:1008D000004D3A163A4D006F6F00002074547C783A
:1008E0007F7F447C38387C444428387C447F7F3880
:1008F0007C545C1800047E7F0518BCA4FC7C7F7FC0
:1009000008787000447D7D408080FD7D007F7F38C9
:100910006C4400417F7F407C7810787C7C7C047C38
:1009200078387C447C38FCFC243C18183C24FCFCC3
:100930007C7C080404085C54742000047E7E043C23
:100940007C407C7C1C3C403C1C7C3C103C7C6C7C9B
:10095000107C6C1CBCA0FC7C4464745C4C1F3B7120
:100960003B1F00777777000601590F062010080417
:10097000020A01043C0200830B0103410200020A47
:1009800001033C020025080103320200030F0205A7
:10099000430300030F00004405000413020A460A43
:1009A000000319010546050A031501074508000360
:1009B0001900004B156404200513550F0A051E038A
:1009C0000F4E141403190000641400031900004BA7
:1009D00027640423031250321405490000505B00C1
:1009E000014B051C4B7D21032D02104B3700054C9C
:1009F0000514507832652A04184B6E00065A0428F4
:100A000055C8210361072555FA1903370212550409
:100A10001203730A3255140A83840732641E0005D8
:100A200091083C64325A02000A0F18213F5D60644D
:100A3000173611241FBECFEFDAE0DEBFCDBF11E0C5
:100A4000A0E0B1E0ECE5FFE602C005900D92A4380D
:100A5000B107D9F729E0A4E8B1E001C01D92AB3C91
:100A6000B207E1F715E0C9E1D5E004C02197FE0126
:100A70000E947E37C831D107C9F70E94E32F0C943A
:100A8000AC370C9400002F923F924F925F926F927E
:100A90007F928F929F92AF92BF92CF92DF92EF920E
:100AA000FF920F931F93CF93DF9300D000D0CDB769
:100AB000DEB7382E512C442443940E94E525409201
:100AC0007205409271050FEF0093730531101AC043
:100AD00040E860E070E080E090E00E94A72610927D
:100AE000740587E492E00E940226609103017091F0
:100AF000040180910501909106010E94702684E412
:100B000092E002C08CE392E00E94022640927205BD
:100B10004092710517E010937305409274058EE3BF
:100B20000E94FD25052D10E01C830B83809113018D
:100B3000A8014A5F5F4F282F30E04217530714F493
:100B400087E0850D0B811C8103571D4F2B813C8154
:100B50002F533D4F7901AB81BC81AB50BD4F6D012F
:100B6000AB80BC8088248394912C682E712CA614B1
:100B7000B7040CF0A0C0B40181E090E00E94D81549
:100B80001A830983F801808183FD09C0D601EC91A5
:100B9000E295EF70F0E0E459F84F849101C08BE7E3
:100BA0000E94FD2580E20E94FD25F801808187FFDB
:100BB00009C0F501E552FD4F80810E949A2680E22E
:100BC0000E94FD25D6019C91692F6F70892F829517
:100BD0008F70903510F440E00FC0E82FF0E0EE0F7A
:100BE000FF1FE558FE4F40815181062E02C05695E9
:100BF00047950A94E2F741700E94211D84E991E033
:100C00000E941D26F801808185FF34C0D6018C9199
:100C100090ED980F903190F48EE50E94FD25F7013C
:100C20008081082E000C990B0E94A1268CE30E9463
:100C3000FD25F501E955FD4F808114C090EC980F1A
:100C4000903158F090E8980F903138F0805780310B
:100C500088F4F7018081882369F08EE50E94FD25E4
:100C6000D7018C91082E000C990B0E94A1268DE5CE
:100C70000E94FD25F801808184FF04C089E392E091
:100C80000E9402260F5F1F4FA981BA818C91827446
:100C9000823421F486E392E00E940226BFEFAB1A71
:100CA000BB0AEFEFEE1AFE0AFFEFCF1ADF0A2FEFB3
:100CB000821A920A5CCF0E94E1260E94220D8230A5
:100CC00029F4552009F4F9CE5A94F7CE843061F412
:100CD0008091130190E001970B811C81081719077F
:100CE0000CF0EBCE5394E9CE853009F090C631106C
:100CF00091C64BE468E070E086E090E00E94A72691
:100D0000109274058DE0809372058093710517E051
:100D10001093730587EA92E00E94022681E0809397
:100D2000740510937205109371050FE0009373051D
:100D300087E992E00E9402261093720510937105D4
:100D400087E18093730587E892E00E940226109362
:100D50007205109371058FE18093730587E792E028
:100D60000E940226109372051093710587E280930A
:100D7000730587E692E00E94022610937205109395
:100D80007105009373058EE30E94FD250E94E12604
:100D900010E00E94220D8430C9F018F4823039F03E
:100DA000F8CF853079F1863009F434C6F2CF1123BB
:100DB00081F3612F70E06E5F7F4F81E090E00E94D1
:100DC000D81580E20E94FD2511500EC0123008F7A0
:100DD000612F70E06E5F7F4F81E090E00E94D81538
:100DE00080E20E94FD251F5F612F70E06E5F7F4FE4
:100DF00081E090E00E94D8158EE30E94FD250E94BC
:100E0000E126C7CF11114FC31091C301111141C485
:100E1000EB81FC81EB50FD4F9081892F82958F7083
:100E20008230E9F50B811C8105521D4F1A8309831D
:100E3000D8018C9181508C93811103C0852D0E9423
:100E4000712088E00E94E61760910301709104010F
:100E5000809105019091060123E030E040E050E0F0
:100E60000E94ED3669017A01BEE5CB0EB1E0DB1ED2
:100E7000E11CF11C0E94803622E330E040E050E0AB
:100E80000E94ED36C60ED71EE81EF91EC092030161
:100E9000D0920401E0920501F0920601F3C3833081
:100EA00009F4B9C2843009F4B6C29F70F92E8530B6
:100EB00009F00DC1C92ED12C81E090E0A0E0B0E096
:100EC0000F2C04C0880F991FAA1FBB1F0A94D2F7CA
:100ED0002091850130918601822B932B909386017E
:100EE00080938501EB81FC81E552FD4F808181502B
:100EF0008083811103C0852D0E947120F601EB5E75
:100F0000FE4FE0818E2F90E08E30910508F0DBC01F
:100F1000FC01EA5AFF4F0C947E3790910201209118
:100F2000000181E0890F809302019213CCC080936D
:100F30000001C9C08091000180930201C4C080916A
:100F40000B0190910C01A0910D01B0910E01409107
:100F50000701509108016091090170910A018417FD
:100F60009507A607B70721F40196A11DB11D2FC053
:100F70008C019D01040F151F261F371FC901B801E1
:100F800022E030E040E050E00E94ED3620930B017B
:100F900030930C0140930D0150930E0194C0809149
:100FA0000B0190910C01A0910D01B0910E014091A7
:100FB0000701509108016091090170910A0184179D
:100FC0009507A607B707A1F40296A11DB11D80934E
:100FD0000B0190930C01A0930D01B0930E0180932F
:100FE000070190930801A0930901B0930A016BC017
:100FF00040930B0150930C0160930D0170930E010F
:1010000062C010910201143060F00E9480361150CD
:1010100023E030E040E050E00E94ED36161B1093D4
:1010200002011092C5014FC080910F0190911001F3
:10103000A0911101B09112018093C6019093C70154
:10104000A093C801B093C9013EC082E380936805B4
:101050003AC082E38093C50136C081E08093A0014D
:1010600032C047EDC42E43E0D42E1A821982E981A2
:10107000FA81EC0DFD1D8081882321F06981812F8B
:101080000E94C11729813A812F5F3F4F3A832983FC
:101090002830310561F738E0C30ED11C1F5F1531D0
:1010A00021F711C08AE0809367050DC01092A2015C
:1010B0008EE18093C20107C084E18093C40103C024
:1010C00081E08093A10141E06F2D85E084C18630ED
:1010D00009F08AC180916805811184C1092F10E04F
:1010E00081E090E0A0E0B0E00F2C04C0880F991FD1
:1010F000AA1FBB1F0A94D2F7209187013091880163
:10110000822B932B90938801809387018B819C8104
:1011100085529D4F9A838983DC018C9181508C93F9
:10112000811103C0852D0E9471200B5E1E4FD801D6
:101130001E96EC918E2F90E08C30910508F042C104
:10114000FC01EC59FF4F0C947E372091130130E0E5
:10115000EDE8F2E0C1C061E084E00E94402F882306
:1011600009F436C1E82FF0E0E457FD4F8081886034
:101170006FC080918C0220918B02B8E08B9FC001E0
:101180001124820F911D40E050E09C012051310953
:10119000D901A40FB51F6EEF7FEFFB01EA0FFB1F14
:1011A000E157FB4FE081EE2339F0F0E0EA5AFA4FC5
:1011B00080818F71805880836F5F7F4F63307105AE
:1011C00061F7485F5F4F4832510511F701C161E097
:1011D00083E00E94402F882309F4FAC0E82FF0E052
:1011E0003197FA83E983E357FD4F80818F7B8083BA
:1011F0000E94803622E030E040E050E00E94ED3670
:10120000672B682B692B59F429813A812F533D4F65
:101210003A832983D9019C919F5F9C93D3C0E98134
:10122000FA81E955FD4F12C061E084E00E94402F31
:10123000882309F4CDC0E82FF0E03197DF01A357F0
:10124000BD4F8C918F7B8C93EF53FD4F80818F5FCF
:101250008083B8C081E00E94430590E0FC01E35721
:10126000FD4F208122622083FC01EB50FD4F9081D5
:10127000292F2F70892F82958F70903510F440E0C0
:101280001CC0E82FF0E0EE0FFF1FE558FE4F41E0D5
:1012900050E060E070E0022E04C0440F551F661F4E
:1012A000771F0A94D2F7A081B1814A2B5B2B51831F
:1012B00040839059903118F341E0622F0E94211D24
:1012C00084E991E00E94831D7DC00E94C9227AC0FA
:1012D00085E08093C30176C0CF018D58924082177C
:1012E00093070CF075C080818F7B8193F5CFE7E584
:1012F000F5E081E09191911101C0282E8F5F81313D
:10130000C9F741E060918B0280918C020E94422ECD
:1013100090E0009709F456C00197E22DF0E0319774
:1013200020918C02215063E070E00E946A37820FA6
:10133000DF01A95BBA4F8C9340918B024150460F5D
:10134000E95CFA4F4083682F8FEF820D0E948F2B4C
:101350000E94E71537C0E7E5F5E08081882319F0A2
:101360008F71805E8083319605E0E736F007A9F73C
:101370002FC083EDA82E81E0B82EE12CD12CBA82AB
:10138000A982E981FA81808191EE980F9C3410F452
:10139000805B808329813A812F5F3F4F3A83298385
:1013A0008081882321F06D2D8E2D0E94C117D3944A
:1013B00038E0D312E6CFE39488E0A80EB11C95E1A3
:1013C000E912DCCFD8011E968C91843009F45AC101
:1013D00041E06F2D86E00E94211D84E991E00E948A
:1013E000831D50C181E04CC18730C9F481E090E099
:1013F000A0E0B0E004C0880F991FAA1FBB1FFA9499
:10140000D2F72091890130918A01822B932B9093FE
:101410008A0180938901852D0E94792F33C18830FC
:1014200009F030C181E090E0A0E0B0E00F2C04C0F2
:10143000880F991FAA1FBB1F0A94D2F720918B0116
:1014400030918C01822B932B90938C0180938B0194
:101450000B811C810F531D4F1A830983D8018C9176
:1014600018161CF481508C9302C019E0F12E0E94D2
:101470008F2564E10E94DF2EFC0197FF02C0E1503E
:10148000FF4FFF2309F4FEC060E071E00E946A375D
:1014900065E170E00E946A37262F482F6F2F8F2D4D
:1014A0000E94731EEFC0113009F056C08091C30135
:1014B0008111EFC00B811C8103571D4F5801D801CA
:1014C0008C910B811C810B501D4F84FF09C0F801CA
:1014D000908120ED290F2031A8F59F70943090F174
:1014E00086FF05C0D8019C9190539031A8F00E94CE
:1014F0008F25F82E61E083E00E94402F882309F4B5
:10150000CCC0E82FF0E0EC50FD4F80818F7083302D
:1015100009F0C3C064E1C4C08260D5018C9361E06E
:1015200083E00E94402F882339F0E82FF0E0E45751
:10153000FD4F80818F7E8083F50180818061808373
:1015400089E001C08CE00E94E6170E9400180E940A
:101550002E230E94AE1F5EC2123009F01ACC809179
:10156000C301811196C0EB81FC81E357FD4FD08010
:101570008D2D8071D4FC83C0EB81FC81EB50FD4F3D
:10158000C0802C2D30E0E3E2F1E09191973021F022
:101590008F5F8C30D1F780E0E0908B0200918C025D
:1015A00090E0805A9F4F10E0F12C2817390701F581
:1015B0002B813C8125523D4F3A832983D9018C915F
:1015C00081508C93811103C0852D0E947120F801F8
:1015D00093E0EE0FFF1F9A95E1F7ED52FE4FEE0DEF
:1015E000FF1D80816AE00E945037925490834AC068
:1015F00083E0000F111F8A95E1F709521C4F0E0D71
:101600001F1DF8018081882311F083E039C00E94FA
:101610008D20883211F484E033C091E0980FD80116
:101620009C93E82FF0E0DF01A155BC4FCC929F01C5
:1016300029573C4F8B819C8185529D4FDC018C91B9
:10164000D9018C939F01215A3C4F8B819C818F53F0
:101650009D4FDC018C91D9018C939F01295C3C4FFB
:101660004B815C8149555D4FDA018C91D9018C9396
:10167000E15FFC4FD082852D0E94712003C08CE079
:101680000E94E6170E94AE1F0E9400180E942E239F
:10169000C1C186E10E94E617BDC160910201669555
:1016A0008F2D0E94DF2E4C01F801D080D092920144
:1016B00081E080939101EB81FC81EF53FD4F00812C
:1016C00000939001EB81FC81E955FD4FE080E092B1
:1016D0008F01D501CC90C0928E01EB81FC81E55247
:1016E000FD4F808181508083811103C0852D0E9430
:1016F0007120C40197FE02C081509F4F9983F92F3A
:10170000FF0FFF0BFA83B92EC40160E071E00E9465
:101710006A3765E170E00E946A37F62E182FB11023
:1017200003C021E04D2DC5C080ED8D0D803150F4FA
:10173000ED2DEF70F0E0EE0FFF1FE95AFD4FE49141
:101740000E0F01C001E00E94803624E630E040E048
:1017500050E00E94ED36E62E90911401990F985DAD
:10176000D02EDD0CD00ED90E61E083E00E94402F18
:10177000E82FF0E0EC50FD4F208140919201822F44
:1017800084278F7009F49AC0453321F42F702330D9
:1017900009F494C0ED1408F084C0EE24EA94EB0C34
:1017A0008E2D0E94042DD090920180ED8D0D803100
:1017B00060F4ED2DEF70F0E0EE0FFF1FE85AFD4FE3
:1017C000E491C0908F01CE0E01C0C12C80EB8D0D35
:1017D000803108F04DC08E2D0E94042DED2DEF704C
:1017E000F0E0EB5EFE4FE0818E2F90E08D309105B2
:1017F00008F0ABCEFC01E059FF4F0C947E37098115
:101800001A8111270A57164F1A830983D8018C9120
:10181000865F2CC009811A8111270A57164F1A8337
:101820000983D8018C91869521C009811A811127DD
:101830000A5A1A4F1A830983D8018C918F71805CE0
:1018400015C009811A81112702581B4F1A83098379
:10185000D8018C9180620AC009811A81112702582F
:101860001B4F1A830983D8018C9180688C936DCEAD
:1018700080E88D0D803160F50E94803624E030E0F4
:1018800040E050E00E94ED36672B682B692B01F198
:10189000809192012F2D412F6B2D8F700E94731E0E
:1018A00054CEC0908E01E0908F0100919001209164
:1018B00091016F2D812F0E94992047CEB4E0DB9ECD
:1018C000C001112463E070E00E946A37D62E62CF17
:1018D000809192018053803108F04AC0202F002E61
:1018E000000C330BAC2DCC0CBB0B0E9484379B013E
:1018F000AC01602F000F770B880B990B0E940B2710
:101900004B015C019091020180918D01890F0E9431
:10191000FF1E880C991CAA1CBB1C282F30E0C90193
:10192000880F991F092E000CAA0BBB0B880D991D5F
:10193000AA1DBB1D4091A701042E000C550B660B80
:10194000770B840F951FA61FB71F20911401820FDC
:10195000911DA11DB11DBC01CD016F5F7F4F8F4F48
:101960009F4F22E030E040E050E00E94ED361FC083
:101970009091020180918D01890F0E94FF1E282FF6
:1019800030E021503109220F331F8091A701280F29
:10199000311D87FD3A9580911401280F311D2F5F6D
:1019A0003F4F37FF02C02F5F3F4F35952795D22E0F
:1019B00061E083E00E94402FE82FF0E0EC50FD4F03
:1019C000808120919201982F92279F70A9F0253352
:1019D00019F48F70833081F0E981FA81FF27EA5A88
:1019E000FA4F60816295669567700F2D212F4D2DFE
:1019F0008E2D0E94922DA9CDED2DF4E0EF02C001B5
:101A0000112463E070E00E946A37D62EE5CF86305D
:101A100009F053C8852D0F900F900F900F90DF9114
:101A2000CF911F910F91FF90EF90DF90CF90BF90DB
:101A3000AF909F908F907F906F905F904F903F906E
:101A40002F900895CF9380917C0580937D050E940F
:101A5000BE2980937C0580E20E94F225C82F80E891
:101A60000E94F2258111C2E080E40E94F2258111DA
:101A7000C3E080E10E94F2258111C4E088E00E9469
:101A8000F2258111C5E084E00E94F225811103C096
:101A9000CC23C9F201C0C6E00E94DE178C2FCF9183
:101AA0000895262F90E0A0E0B0E040910B01509106
:101AB0000C0160910D0170910E0184179507A60726
:101AC000B70734F02093C10182E08093C0010895EC
:101AD000481B590B6A0B7B0B40930B0150930C0175
:101AE00060930D0170930E0108952F923F924F92D3
:101AF0005F926F927F928F929F92AF92BF92CF929E
:101B0000DF92EF92FF920F931F93CF93DF93CDB7A6
:101B1000DEB7A8970FB6F894DEBF0FBECDBF23ED9A
:101B2000A22E21E0B22EC50120E030E0FC01E20F40
:101B3000F31F10822F5F3F4F28303105B9F7089609
:101B400022E08B37920781F71D8A1E8A1F8A188E22
:101B5000198A1A8A1B8A1C8A1D861E861F86188A65
:101B600019861A861B861C8688E0E6E5F1E0DE0110
:101B7000119601900D928A95E1F71092CE01109284
:101B8000CF011092D0011092D10180914D0185308A
:101B900008F467C20E94803624E130E040E050E063
:101BA0000E94ED36672B682B692B09F05AC281E041
:101BB0008093D2018093CE018093870280937F022D
:101BC00083E18093830286E080937B0280E00E9421
:101BD00092218091D201811129C01EECE12E11E0E9
:101BE000F12E1FE103E0402E512C612C712C86E078
:101BF000882E912CA12CB12CF70181917F0181308D
:101C000059F40E948036A30192010E94ED36672BA1
:101C1000682B692B09F45AC41F5F133269F780914E
:101C2000D2018823E9F080E090E025C010E0B6E022
:101C3000CB2ED12CE12CF12C0E948036A7019601ED
:101C40000E94ED368FE1810FFAE06F9F800D112425
:101C5000682F812F0E942E211F5F153069F7DFCF7B
:101C60000E94803622E030E040E050E00E94ED36F5
:101C7000CB01880F991FFC01E253FE4F20812111F7
:101C800001C001966BE0680F0E942E210E945E1732
:101C90000E94C92267E5E62E65E0F62E77E4272E3E
:101CA00075E0372E87E395E09C8F8B8FC12CD12C6C
:101CB000E3E08E2E912CA12CB12CF2E04F2E512C72
:101CC000612C712C8091D201E7E08E9FC00111241C
:101CD00008968C159D050CF486C00E948036A501DF
:101CE00094010E94ED36672B682B692B09F06AC0BE
:101CF0008091D20181110AC00E948036A301920115
:101D00000E94ED368B01000F111F02C000E010E0B1
:101D1000F801E253FE4F8081811102C00F5F1F4F17
:101D2000F801E957FD4F2081298FF801ED57FD4F4C
:101D30006081062E000C770B621B710927FD7395DD
:101D40006F5F7F4F072E000C880B990B0E94F126C6
:101D5000898D680FF1016083F801E158FD4F208102
:101D6000298FF801E558FD4F6081062E000C770B96
:101D7000621B710927FD73956F5F7F4F072E000C63
:101D8000880B990B0E94F126498D460FEB8DFC8D37
:101D90004083F101608180918C02681799F08091F5
:101DA0008B02481779F028E0629FF0011124E15777
:101DB000FB4FE40FF11D8081811104C08C2D0E9426
:101DC0008F2B02C0F7011082FFEFCF1ADF0A2FEF2F
:101DD000E21AF20A8FEF281A380AEB8DFC8D319641
:101DE000FC8FEB8F6FCF8EEC91E09C8F8B8F23E875
:101DF000622E22E0722E37E8432E32E0532EEBE7BC
:101E0000F2E0FA8FE98F4FE7242E42E0342E810171
:101E10007F01620153019E8F8D8FED8DFE8D81912B
:101E2000FE8FED8F8130E9F5812C912C8091D201CC
:101E3000F7E08F9FC00111240296881599058CF157
:101E4000F5012081022E000C330B2F5F3F4F032E34
:101E5000000C440B550BF6016081062E000C770B2D
:101E6000880B990B0E940B276F8FF7012081022EA0
:101E7000000C330B2F5F3F4F032E000C440B550B10
:101E8000F8016081062E000C770B880B990B0E94DD
:101E90000B2740E08F8D0E94C629FFEF8F1A9F0A03
:101EA000C5CF2FEFA21AB20A8FEFC81AD80A9FEF38
:101EB000E91AF90A0F5F1F4FED8DFE8DE25DF140CB
:101EC00009F0ABCF80914D0163E00E945037992318
:101ED000D9F090914D0180910101981708F04AC006
:101EE00006C3FFEF6F1A7F0A2FEF421A520A898D3D
:101EF0009A8D01969A8F898F9FEF291A390AEB8D57
:101F0000FC8DE25DF14029F3EB8DFC8D8191FC8F1E
:101F1000EB8F813031F7F3012081022E000C330B5F
:101F20002F5F3F4F032E000C440B550BF2016081D5
:101F3000062E000C770B880B990B0E940B27162F8F
:101F4000E98DFA8D2081022E000C330B2F5F3F4F5D
:101F5000032E000C440B550BF1016081062E000C82
:101F6000770B880B990B0E940B2742E0812F0E9470
:101F7000C629B7CFE0911301F0E0EC50FD4F80810E
:101F8000803909F4B4C28091D20181110AC00E9443
:101F9000803622E030E040E050E00E94ED36660FEF
:101FA00001C060E0E62FF0E0E253FE4F8081811136
:101FB00001C06F5F062F10E0F801E957FD4FF08078
:101FC000F801ED57FD4F6081062E000C770B6F195D
:101FD0007109F7FC73956F5F7F4F072E000C880B1C
:101FE000990B0E94F126F60EF801E158FD4FE080B2
:101FF000F801E558FD4F6081062E000C770B6E1935
:102000007109E7FC73956F5F7F4F072E000C880BFB
:10201000990B0E94F126E60E0E948D2098E0F99E11
:10202000F0011124E952FC4FEE0DF11D91E0980FE3
:10203000908390E0FC01E155FC4F20E92083FC01F6
:10204000E957FC4F21E02083FC01E15AFC4F10824C
:10205000FC01E95CFC4F1082FC01E15FFC4F108247
:1020600046C21092D2010E94803627E030E040E064
:1020700050E00E94ED368B01095F1F4F0E948036B1
:1020800022E030E040E050E00E94ED366D5F7F4F8F
:102090008FEF800F8D8769876230710519F091E0AD
:1020A0009093CE0191E0960F9A8B8E8787E08A8776
:1020B0006430710519F081E08093CF0163307105C0
:1020C00031F41A821982EE24E394F12C02C0E12C3F
:1020D000F12C0E94803622E030E040E050E00E9487
:1020E000ED366D5F7F4F81E0800F8F8B94E19F878E
:1020F0006B876230710519F091E09093D001888F61
:1021000081E0860F8C8B84E1888B87E08C8764303C
:10211000710519F081E08093D1016330710529F4D4
:1021200018861F8282E0E80EF11CEEECF1E0F8A7C1
:10213000EFA33E01F5E16F0E711C87E892E09A8FE4
:10214000898FFE017196FE8FED8F8FE792E098A345
:102150008F8F3497FAA3E9A383E892E09CA38BA323
:102160004E0199E0890E911CEBE7F2E0FEA3EDA38E
:102170008EEC91E09C8F8B8F83E0282E312C412CAC
:10218000512CEB8DFC8D8191FC8FEB8F813041F5D3
:10219000F301D0800E948036A20191010E94ED36A9
:1021A000D3946D0DE98DFA8D6083ED8DFE8D808168
:1021B0008F5FEF8DF8A18083E9A1FAA1D0800E9402
:1021C0008036DA94A20191010E94ED36D61AEBA175
:1021D000FCA1D082F40180818150EDA1FEA1808319
:1021E000FFEF6F1A7F0A898D9A8D01969A8F898FDA
:1021F000ED8DFE8D3196FE8FED8F8F8D98A101961E
:1022000098A38F8FE9A1FAA13196FAA3E9A38BA134
:102210009CA101969CA38BA39FEF891A990AEDA11B
:10222000FEA13196FEA3EDA38B8D9C8D825D914026
:1022300009F0A7CFE114F10469F40E94803622E08E
:1022400030E040E050E00E94ED36672B682B692BB0
:1022500009F429C184E190E0801B910B9595879545
:10226000800F61E0680F980135952795922FF9014D
:1022700053E0EE0FFF1F5A95E1F7ED52FE4FDF01DD
:10228000A90170E06894DD24D3F864177507B4F0F1
:102290001196DC9211971296DC9212971396DC92AB
:1022A00013971496DC9214971596DC921597169650
:1022B000DC9216974F5F5F4F1896E7CF49815A819E
:1022C000452BB9F4DF01A901C82ED12CC416D506BF
:1022D00084F012961C92129713961C9213971496E0
:1022E0001C92149715961C9215974F5F5F4F189686
:1022F000EDCF4B815C81452B21F541E0490F50E04A
:10230000DA01AA0FBB1FAA0FBB1FAA0FBB1FAD523A
:10231000BE4FC82ED12CC416D5069CF011961C9227
:10232000119712961C92129713961C92139714965B
:102330001C92149715961C9215974F5F5F4F189635
:10234000EACF4D815E81452B79F44FEF480F50E085
:10235000421753074CF012821382148215821682A0
:102360002F5F3F4F3896F4CF2F8138859F5F232B07
:10237000A9F4292F30E0F901A3E0EE0FFF1FAA9581
:10238000E1F7ED52FE4F6217730744F01282138299
:10239000148215822F5F3F4F3896F5CF292F30E0FA
:1023A000F90163E0EE0FFF1F6A95E1F7ED52FE4F72
:1023B00090E08217930744F01282138214821582F0
:1023C0002F5F3F4F3896F5CFD12CEFA1F8A5819123
:1023D000F8A7EFA3813019F48D2D0E949221D39498
:1023E000F4E0DF12F2CF23E0E216F10441F045E021
:1023F000442E512C612C712C54EED52E10C033E09C
:10240000000F111F3A95E1F7F801ED52FE4F88E0F9
:10241000818382838383848385838683E8CF850158
:10242000E12CF12CF8018081883059F40E9480362B
:10243000A30192010E94ED36672B682B692B09F4EA
:1024400042C0FFEFEF1AFF0A0F5F1F4F28E0E216AE
:10245000F10441F788E0A80EB11C9BE7A91692E0B1
:10246000B906E9F60CE911E090EAE92E91E0F92EBF
:1024700025E0822E912CA12CB12CDD24D3940E9436
:102480008036A50194010E94ED36F801672B682B78
:10249000692B11F4D08201C010820F5F1F4FE0162C
:1024A000F10669F796CB0E94803624E030E040E0E8
:1024B00050E00E94ED36660F771FFE01E60FF71F12
:1024C00012821182C7CEF801D082BBCF0E94803623
:1024D000A50194010E94ED36212FFAE06F9F200D97
:1024E0001124622F81EE810F0E942E2195CBA89698
:1024F0000FB6F894DEBF0FBECDBFDF91CF911F9115
:102500000F91FF90EF90DF90CF90BF90AF909F9092
:102510008F907F906F905F904F903F902F90089595
:102520004F925F926F927F928F929F92AF92BF92E3
:10253000CF92DF92EF92FF920F931F93CF93DF938F
:1025400090916705992351F00E94803624E030E095
:1025500040E050E00E94ED3681E0860F9091C3018B
:10256000911114C0282F30E0E901229781708C9FCF
:10257000C02D1124C901019762E070E00E946A3702
:1025800023503109829FD02C112402C0D12CC0E0ED
:102590001092930180918C026C2F0C2E000C770B03
:1025A000680F711D00918B022D2D0D2C000C330B2B
:1025B000200F311DAB01B3E0440F551FBA95E1F771
:1025C000FA01E157FB4FE20FF31FD081D111D2C1C5
:1025D0002830310508F068C26531710508F064C221
:1025E0004D525E4FFA01E20FF31F90819150983CDB
:1025F00008F05AC29091A201911106C0C80FC09371
:102600008C020D0D00938B020E94DE178091C20197
:1026100081114AC260908C0240908B02512C88E05C
:10262000689E30011124F301E952FC4FE40DF51DC1
:10263000E081E11103C00E94DE1705C1F0E0E25520
:10264000FC4F6081862F82958F706F70893028F4DF
:10265000853030F48130B0F014C0893091F012C070
:10266000E82FF0E0EE0FFF1FE558FE4F208131818B
:10267000062E02C0369527950A94E2F7122F1170A4
:1026800001C010E0412F0E94211D84E991E00E94C9
:10269000831DE301C952DC4FC40DD51D8881282F4D
:1026A00030E021503109F901E155FC4F9081F901E9
:1026B0009031E1F4E957FC4F90814091A301509192
:1026C000A4016091A5017091A601490F511D611DE2
:1026D000711D4093A3015093A4016093A5017093D1
:1026E000A60181500E94F9241882ADC0E15FFC4F21
:1026F000808187FD09C0209113012A3109F064C04F
:1027000082E00E94E6179FC061ECA62E62E0B62E22
:1027100077EAC72E72E0D72EEDE8EE2EE2E0FE2E2D
:102720000BED12E0F5EF8F2EF2E09F2E50E080913E
:10273000130190E09401255F3240281739070CF00F
:1027400040C0D4013D914D014881842F90E0019714
:10275000FC01E155FC4F2081321327C0F501308187
:10276000FC01E15AFC4F208132131FC0D6013C917D
:10277000FC01E95CFC4F2081321317C0F701608136
:10278000FC01E15FFC4F2081262726FD0EC0FC01E5
:10279000E957FC4FD8012C918081820F8C938FEFE9
:1027A000840F0E94F924188251E0BFEFAB1ABB0AD4
:1027B000EFEFCE1ADE0AFFEFEF1AFF0A0F5F1F4F8F
:1027C000B6CF511140C097CF30E0C30189529C4F22
:1027D000EC01C40DD51D8881482F50E041505109AE
:1027E000F901EB50FD4FDA01A155BC4F9C9190834C
:1027F000F901E552FD4FDA01A957BC4F9C91908336
:10280000F901EF53FD4FDA01A15ABC4F9C9190831F
:10281000F901E955FD4FDA01A95CBC4F9C91908309
:10282000F901E357FD4FDA01A15FBC4F9C91908302
:1028300081500E94F9241882809113018F5F809348
:1028400013010E94AE1F20918C0280918B0290E0B8
:1028500048E0249F90011124F901ED52FE4FE80F4A
:10286000F91F408151EE540F5C3410F4405B4083FB
:102870002D523E4FF901E80FF91F808191E9980F21
:102880009C3408F011C16AE00E94503715EF180F10
:102890000E94803622E030E040E050E00E94ED36B9
:1028A000672B682B692BB9F40E945F2D123051F110
:1028B00028F4112349F01130B9F00DC0143069F13A
:1028C00048F11530B1F107C090914D019F5F909391
:1028D0004D010E94750DA7E9B9E0E8E01E9FC00117
:1028E000112420E030E035C00E94803623E030E043
:1028F00040E050E00E94ED36862F62E08F5F0E943C
:10290000510DE9CF8091C3018111E5CF85E080931E
:10291000C301E1CF0E94C922DECFC0910201C430C1
:1029200008F0E0C085E00E94572F882309F4DAC040
:10293000D2CF61E084E00E94402F882361F2C82F4B
:10294000D0E02197FE01E357FD4F808183FFCEC089
:10295000C2CFF901E80FF91FE255FD4FE491ED9365
:102960002F5F3F4F28303105A1F78DE791E00E949E
:10297000831D9AC0ED2FF0E0EA5AFA4F10810E94B1
:10298000DE170E94803624E630E040E050E00E94EE
:10299000ED36062F61E083E00E94402F882301F18D
:1029A00090E00197FC01EB50FD4F20812F7030E04B
:1029B000F901EE0FFF1FE95AFD4FE491DC01AF531F
:1029C000BD4FEC90EE0EF901EE0FFF1FE75AFD4FE1
:1029D000E491DC01A955BD4F9C91FE2EF90E02C079
:1029E000F12CE12C80911401880F885D9E2D990FA8
:1029F0009E0D890F081708F057C0D1508D2F0E94E7
:102A0000042DEF9CF00111249F01FF0F440B550B87
:102A10006E2D70E080E090E00E940B274B015C017E
:102A20009091020180918D01890F0E94FF1E282F35
:102A300000918B020D0D80918C02C80FB501A4018D
:102A4000440F551F661F771F30E0C901880F991F7B
:102A5000092E000CAA0BBB0B840F951FA61FB71FD6
:102A60004091A701042E000C550B660B770B840FC9
:102A7000951FA61FB71F20911401820F911DA11D44
:102A8000B11DBC01CD016F5F7F4F8F4F9F4F22E083
:102A900030E040E050E00E94ED36422F612F6F7130
:102AA0002C2F8D2F0E94922D0E942B1F0E942E23CF
:102AB0008091C401882321F08091CA0180FD21C04A
:102AC000DF91CF911F910F91FF90EF90DF90CF900A
:102AD000BF90AF909F908F907F906F905F904F903E
:102AE0000C940018C150C0930201F5CE89E00E94F9
:102AF000572F8111F0CECF53DD4F9881915098839D
:102B0000EACEDF91CF911F910F91FF90EF90DF9070
:102B1000CF90BF90AF909F908F907F906F905F907D
:102B20004F900895CF93DF93C82FD0E0FE01E15876
:102B3000FB4F808186FF09C088E00E94572F8111DA
:102B400004C08091A101813081F58091C501C95AED
:102B5000DA4F8823D1F088818056803260F40E9459
:102B6000803629E030E040E050E00E94ED36FB0185
:102B7000E359F84F15C00E9480362AE130E040E06A
:102B800050E00E94ED36FB0109C0E88180EA8E0F1B
:102B9000803210F48AE205C0EF71F0E0E45BF84F98
:102BA0008491DF91CF910C94FD25DF91CF91089511
:102BB000982F990F890F880F8F5FEDE6F5E08583D9
:102BC0008483660F660F660F615066830895CF9207
:102BD000DF92EF92FF920F931F93CF93DF9397E5CE
:102BE000E92E95E0F92E07E315E0C7E4D5E0D12CF6
:102BF0002AE0C22EF70181917F01803208F45EC085
:102C00008091A001811150C0E0918C0280918B02D3
:102C100098E0E99FF0011124ED52FE4FE80FF11DFD
:102C20002081822F6C2D0E945037A92FE92FF0E0D0
:102C3000E556FE4F808181111DC02830D9F02881D2
:102C400030E0F801408150E0F90183E0EE0FFF1F12
:102C50008A95E1F7ED52FE4FE40FF51F80810E9447
:102C60005037A91307C0BA01C9010E94D8158D2D8C
:102C70000E949215888190E020918C0230E0281B00
:102C8000390B2F5F3F4F23303105C0F4F8016081CD
:102C900070E020918B0230E0261B370B2F5F3F4FF7
:102CA0002330310558F405C0F801608170E0888157
:102CB00090E00E94D8158D2D0E9492150F5F1F4F36
:102CC0002196D394F0E1DF1295CFDF91CF911F9140
:102CD0000F91FF90EF90DF90CF9008950F931F9387
:102CE000CF93DF9380916805882379F060918B0200
:102CF00070E080918C0290E00E94D81580E4DF9112
:102D0000CF911F910F910C94FD25C0E0D0E000E021
:102D100010E080918C029E01280F311DC90101979E
:102D200020918B02B801620F711D61507109FC0185
:102D300023E0EE0FFF1F2A95E1F7ED52FE4FE60F5D
:102D4000F71F20812150263028F40E94D8158EE2EA
:102D50000E94FD250F5F1F4F03301105D1F621960C
:102D6000C330D105A1F6C2CFAF92BF92CF92DF920E
:102D7000EF92FF920F931F93CF93DF9303ED11E038
:102D8000C0E0D0E08AE0B82EEC2EE694E694E6941B
:102D900088E0E89E70011124C12CD12C9C2F9770E3
:102DA000A92EB601CE010E94D815F601EE0DFF1D29
:102DB000E855FE4F808190E00A2C02C095958795DA
:102DC0000A94E2F780FF4FC0F801EC0DFD1D208151
:102DD000222309F448C08FEF820F863020F081EE65
:102DE000820F8C34F8F4E0918C0280918B0298E091
:102DF000E99FF0011124ED52FE4FE80FF11D808193
:102E00006B2D0E945037392FE92FF0E0E556FE4F29
:102E10008081811107C0822F0E945037391323C04F
:102E20008EE230C0283009F185EF820F8630F8F04D
:102E30008BEE820F8630E8F081E9820F8C34D8F077
:102E400081E4820F8830C8F087E3820F8630B8F0C3
:102E50008DE2820F8630A8F083E2820F863078F010
:102E6000275E263070F080E20DC083E20BC085E261
:102E700009C08BE207C08FE505C08FE303C086E27F
:102E800001C08CE70E94FD258FEFC81AD80A98E090
:102E9000C916D10409F085CF2196085F1F4FC531AF
:102EA000D10509F071CFDF91CF911F910F91FF9064
:102EB000EF90DF90CF90BF90AF900895CF93DF93C6
:102EC0002FE834E047ED53E080E090E0F901E80FAF
:102ED000F91F1082FA01E80FF91F1082019688305D
:102EE0009105A1F7285F3F4F485F5F4F85E027338B
:102EF000380751F788EA91E020E030E0FC01E20F6A
:102F0000F31F10822F5F3F4F28303105B9F7089625
:102F1000A1E0803C9A0781F7EFEAF3E027E833E08D
:102F20008FE593E0C7E3D3E06FE073E01192D9013E
:102F30001D929D01DC011D92CD011992DB011D92B4
:102F4000BD01B3E0E73DFB0789F7E7E4F5E027E3E0
:102F500035E087E595E0C7E8D9E06FE774E01192C6
:102F6000D9011D929D01DC011D92CD011992DB0159
:102F70001D92BD01B5E0E735FB0789F7DF91CF91E1
:102F80000895E82FE695E695E69598E0E99FF0012B
:102F90001124E855FE4FE60FF11D282F277081E020
:102FA00090E0A0E0B0E004C0880F991FAA1FBB1FEB
:102FB0002A95D2F72081822B80830895E7E9F9E0F2
:102FC000119289E0ED3AF807D9F70895CF93C82F09
:102FD0000E94DE17A7E9B9E02AE0C29FC0011124D0
:102FE00020E030E0F901E80FF91FEA59F94FE491C8
:102FF000ED932F5F3F4F2A303105A1F7CF91089510
:103000002F923F924F925F926F927F928F929F92F8
:10301000AF92BF92CF92DF92EF92FF920F931F93E6
:10302000CF93DF93CDB7DEB72B970FB6F894DEBF03
:103030000FBECDBF07E515E027E435E03E832D83C5
:1030400047E355E05A8349838FE794E09C838B8361
:10305000D12C95E0892E912CA12CB12CD8018C91EA
:1030600081118FC00E94803620E830E040E050E0BF
:103070000E94ED36672B682B692B09F03CC3E09169
:103080008C0280918B02B8E0EB9FF0011124ED528D
:10309000FE4FE80FF11D80819091D20191111DC06A
:1030A00090E001976AE070E00E946A379C0162E05C
:1030B00070E00E946A37281B390B37FF02C02F5F70
:1030C0003F4F35952795C901019662E070E00E9457
:1030D0006A377C01EE0CFF1C02C0E12CF12CF701D9
:1030E000E253FE4F8081811103C0EFEFEE1AFE0A1A
:1030F000F701E957FD4FC080F701ED57FD4F6081A3
:10310000062E000C770B6C197109C7FC73956F5F65
:103110007F4F072E000C880B990B0E94F126C60EDC
:10312000AD81BE81CC92F701E158FD4FC080F7011F
:10313000E558FD4F6081062E000C770B6C19710964
:10314000C7FC73956F5F7F4F072E000C880B990BA0
:103150000E94F1264C2D460FE981FA814083AD8112
:10316000BE816C91B8E06B9FF0011124E157FB4FD9
:10317000E40FF11D80818111BEC28D2D0E948F2B25
:10318000BAC2EB81FC819081892F881F8827881F14
:103190008F5F92FF04C09091CA0190FDACC2212CB8
:1031A000312C282F30E03987288748855985241607
:1031B00035060CF0A0C2D8018C9190EC980F903A93
:1031C00008F47FC08F718531E1F5E0918C02809128
:1031D0008B02B8E0EB9FF0011124ED52FE4FE80F97
:1031E000F11D2081283009F4B6C2AD81BE81EC9179
:1031F000A981BA818C91B8E0EB9FF0011124ED52C6
:10320000FE4FE80FF11D8081AAE0FA2E6F2D0E947B
:103210005037392F822F0E94503739139CC2EB81CF
:10322000FC81808183FF97C20E945F2D82E10E9412
:10323000E617F0926705AB81BC818C91877F8C93F8
:1032400044C0893109F087C2FF24F394E12C65E082
:103250008F2D0E94DF2E97FF02C081509F4F892F34
:10326000990F990BFC01EA5AFA4F80818F718931CD
:1032700009F4E394F394B5E0FB12E9CFEE2009F4EE
:103280006AC20E94803622E030E040E050E00E94B6
:10329000ED36672B682B692B09F05DC20E945F2D0C
:1032A00083E10E94E6170E9480362AE030E040E089
:1032B00050E00E94ED36862F63E0865F0E94510D3C
:1032C00004C0E5E0F0E0FB87EA87AB81BC818C912C
:1032D00085FF0DC00E94803623E030E040E050E0E2
:1032E0000E94ED36672B682B692B09F4EEC22A8504
:1032F0003B85215031092430310508F0F8C14A8559
:103300005B85417055278A859B850297849FC02CD9
:103310001124217033278A859B850397289F902D40
:103320001124ED81FE818081682F70E09B012C0DBE
:10333000311DC7FC3A95E0918C02F0E02E173F0753
:1033400009F089C1A981BA815C91A92F092E000CCD
:10335000BB0BA50FB11DE0918B02F0E0AE17BF07CC
:1033600009F079C12114310409F0C1C1D801EC91EF
:10337000EF71CE2EB7E0EB9FF00111249F012F5883
:10338000364F7901F9013396749080911401880FBA
:10339000781A8091A701880F781A0E94803624E657
:1033A00030E040E050E00E94ED36662E61E084E0BF
:1033B0000E94402F882391F090E00197FC01EB5090
:1033C000FD4FE081EF70F0E0EA59F84FE491DC0145
:1033D000AF53BD4F8C91E80FEF8301C01F8267147C
:1033E00008F085C1F701329624913197E49130E0DD
:1033F00040E050E06E2F70E080E090E00E940B27EC
:103400002B013C010E945F2D3F814DEF4303D00112
:103410001124AC59BF4FA30192010E94173724E633
:1034200030E040E050E00E94ED36822F64E06C0D09
:103430000E94510DAB81BC818C9183FF58C18C2DB2
:1034400090E0FC013597E231F10508F050C1E358F6
:10345000FF4F0C947E370E948036A50194010E9494
:10346000ED36672B682B692B09F041C18DE00E9476
:10347000E6170E948036A50194010E94ED366C5F2C
:103480006093C3010E94803624E130E040E050E0C8
:103490000E94ED36672B682B692B09F0CFC261E0E3
:1034A00080910B010E94510DC9C2809102018430AC
:1034B00008F018C285E00E94572F882309F412C231
:1034C00016C18091A3019091A401A091A501B09192
:1034D000A601C397A105B1050CF409C10E9480366D
:1034E0002AE030E040E050E00E94ED36672B682B88
:1034F000692B09F00BC2FBC061E084E00E94402F01
:10350000882309F4F4C0E82EF12CB1E0EB1AF1089D
:10351000F701E357FD4F808183FF1CC2E8C00E9482
:10352000803622E030E040E050E00E94ED36672B2C
:10353000682B692B09F0DBC00E94803624E130E063
:1035400040E050E00E94ED36F62EE62FF0E0E35723
:10355000FD4F808184FDCBC08FE00E94E6178F2D48
:103560000E947120F80180818054808367C280911D
:10357000C2018111BCC081E10E94E61781E0809305
:10358000A2015CC280911401863008F4B0C00E9490
:103590008036A50194010E94ED36672B682B692BBC
:1035A00009F4E6C1A4C00E9480362AE030E040E081
:1035B00050E00E94ED3664307105810591050CF0F4
:1035C00096C085E10E94E6170E94803623E030E035
:1035D00040E050E00E94ED36F62E60FF2DC0809155
:1035E0000B0190910C01A0910D01B0910E018A3058
:1035F0009105A105B1050CF421C20197A109B109FA
:1036000080930B0190930C01A0930D01B0930E01D8
:103610008091070190910801A0910901B0910A01E0
:103620000197A109B1098093070190930801A09324
:103630000901B0930A0102C285E00E94572F9091C0
:103640000201882309F4F6C1963008F0F3C1FF2087
:1036500009F4F4C1C4CFD8015C915F715F3009F403
:1036600046C02531310508F042C0E981FA817080F9
:10367000472C512CF201E90FF11D97FDFA95E83026
:10368000F105A8F543E0220F331F4A95E1F7A901A0
:1036900041575B4F7A01EE0EFF1ED701FC90F110EF
:1036A00026C02D523E4FE20FF31F208121502E3BAA
:1036B000F0F423E0660F771F2A95E1F761577B4FFF
:1036C000D201A60FB71F1C928C0DED81FE81808365
:1036D000970DA981BA819C93B8E08B9FF0011124CA
:1036E000E157FB4FE90FF11D81E08D0D8083EFEF76
:1036F0002E1A3E0A5ACD0F5F1F4FD3942D813E8163
:103700002F5F3F4F3E832D8349815A814F5F5F4F2B
:103710005A8349838B819C8101969C838B8390E1A2
:10372000D9129CCC2B960FB6F894DEBF0FBECDBF3E
:10373000DF91CF911F910F91FF90EF90DF90CF908D
:10374000BF90AF909F908F907F906F905F904F90C1
:103750003F902F900895D8018C91805E803210F0B8
:1037600091E001C09FEFED81FE818081F0918C029C
:10377000FF83F81738F5692F092E000C770B282FD7
:1037800030E0261B370BA981BA814C9150E0E3E071
:10379000220F331FEA95E1F7F901E157FB4FE40FE0
:1037A000F51FE081E1110EC02D523E4FF901E40FEB
:1037B000F51F208121502E3B28F4E2E0F0E0E61BCB
:1037C000F70B81CDA981BA814C9150918B0254178E
:1037D00020F5A92F092E000CBB0B242F30E02A1B4B
:1037E0003B0BE8E08E9FB0011124FB01E157FB4F3A
:1037F000E20FF31FE081E11110C06D527E4FFB011B
:10380000E20FF31F208121502E3B38F423E030E0FB
:103810002A1B3B0B3B872A8758CD3F81831720F516
:10382000A92F092E000CBB0BBB87AA879D01280F6F
:10383000311DE42FF0E063E0220F331F6A95E1F7BA
:10384000D901A157BB4FAE0FBF1F6C9161110CC0C6
:103850002D523E4FE20FF31F208121502E3B20F4CA
:10386000EA85FB8532962FCD451710F5292F990F44
:10387000330B3B872A87240F311D48E0849FC0010A
:103880001124FC01E157FB4FE20FF31F408141116E
:103890000FC08D529E4FFC01E20FF31F80818150BB
:1038A0008E3B30F48A859B8503969B878A870DCD56
:1038B0000E94803624E030E040E050E00E94ED3687
:1038C000DB011196BB87AA8700CD0E94803624E0D9
:1038D00030E040E050E00E94ED36FB013196FB877E
:1038E000EA8705CD0E948036A50194010E94ED363D
:1038F000672B682B692B09F0FACE8EE00E94E61741
:103900008091020181508093020198C08FE00E9453
:10391000E6174090A3015090A4016090A50170901B
:10392000A6010E94803622E330E040E050E00E9491
:10393000ED36461A570A680A790A4092A301509256
:10394000A4016092A5017092A601D8018C918054C7
:103950008C9374C089E00E94572F8111C8CE80E1FA
:103960000E94E617F701EF53FD4F80818150FDCD96
:1039700084E10E94E61760910F017091100180911F
:1039800011019091120122E030E040E050E00E94ED
:10399000ED3620930F0130931001409311015093A5
:1039A0001201DA01C9010197A109B1098093C60189
:1039B0009093C701A093C801B093C90180911401ED
:1039C000815080931401409007015090080160904D
:1039D000090170900A01B3E04B1A5108610871089F
:1039E0000E94803627E030E040E050E00E94ED3653
:1039F000461A570A680A790A40920701509208014C
:103A00006092090170920A0180910B0190910C0162
:103A1000A0910D01B0910E01481659066A067B0669
:103A20006CF440920B0150920C0160920D01709267
:103A30000E0104C091509093020109CE0E945F2DA7
:103A400056CECF93DF93CDB7DEB72D970FB6F89450
:103A5000DEBF0FBECDBF9DE0EEE5F1E0DE011196C9
:103A600001900D929A95E1F790E070E0FE01E80F69
:103A7000F91F411118C08081680F711D33E0660F76
:103A8000771F3A95E1F762527D4FA4E9B1E080E0FB
:103A900090E0FB01E80FF91FE491ED930196883067
:103AA0009105B9F727C0458105975EE0589F9001C1
:103AB000599F300D1124C9018B5E9E4FFC01E60F0A
:103AC000F71F808190E0840F911D23E0880F991FDC
:103AD0002A95E1F782529D4FA4E9B1E020E030E061
:103AE000FC01E20FF31FE491ED932F5F3F4F28306D
:103AF0003105B1F72D960FB6F894DEBF0FBECDBFDE
:103B0000DF91CF910895DC0190E0692F70E0FB0117
:103B1000E956F64F8081882349F09F5FF6CF9631B2
:103B200078F4F901E956F64F40839F5F292F30E082
:103B3000F901E61BF70BEA0FFB1F40814111EFCFA4
:103B40001092AC0908950F931F93CF93DF932091A8
:103B50008C0280918B0290E048E0249F9001112418
:103B6000DC01A20FB31F60E070E01997A901485073
:103B700051099C012F5F3F4F98E06831710561F159
:103B8000FD01E60FF71FED52FE4FEA01C60FD71FEA
:103B9000CD52DE4F8F010C1B1D0B20173107CCF0CF
:103BA000808111EE180F1C3410F4805B0FC013E2FB
:103BB000180F163010F4885C09C0843E11F490830D
:103BC00006C019E1180F163010F4825D808331961B
:103BD000E1CF685F7F4FD1CFDF91CF911F910F91E0
:103BE0000895089580E090E00895CF92EF920F93AA
:103BF000CF93DF93FC0186816A3031F49581948301
:103C00006185860F868367C0962FEF0161E0680F9C
:103C100090529F3508F05AC0A4812781062E000CCF
:103C2000770B0A2E000CBB0BE4E9F7E0213029F5F5
:103C30000491E5E9F7E0E4909923D1F021E030E048
:103C40008E2D877011F420E030E08E2D86958695BC
:103C50008695280F311D029FF001039FF00D11245E
:103C60009E9FA0019F9F500D11244A56584F02C09D
:103C700046E957E092E0C92E24C00491E5E9F7E057
:103C8000E4909923D1F021E030E08E2D877011F47B
:103C900020E030E08E2D869586958695280F311D83
:103CA000029FF001039FF00D11249E9FA0019F9F92
:103CB000500D11244A56584F02C046E957E08BEF89
:103CC000C82E20E030E0CD010E94D62788858B5F8A
:103CD0009C81890F8C8381E090E0DF91CF910F91DF
:103CE000EF90CF900895FF920F931F93CF93DF93A0
:103CF000F82EC62F142F022FDFEFD60F8D2F0E9424
:103D0000042DEF2DF0E0EB5EFE4FE2A58E2F90E04C
:103D10008930910508F06DC0FC01E157FF4F6C2F11
:103D200070E00C947E3761507109FB01E95AFA4F3B
:103D30001082FB01E95BFA4FE081DB01A95CBA4F1D
:103D40008C9198E0E99FF0011124E157FB4FE80FB7
:103D5000F11D10824EC0FB01E258FB4F808187FFAE
:103D600002C08F7745C0846043C0FB01E258FB4F1F
:103D7000808180623DC0FB01E258FB4F80818064FE
:103D800037C0EB01CA5ADA4F6881162F107E0E94A5
:103D900080362AE130E040E050E00E94ED36610FCD
:103DA000688327C0FB01E258FB4F808182FF02C07D
:103DB0008B7F1EC080681CC0FB01EA5AFA4F8081CD
:103DC0008F71805815C040911401842F880F880F7F
:103DD000480FFB01EA5AFA4F60816F71212F8D2F36
:103DE0000E94922D06C0FB01E258FB4F8081877F25
:103DF0008083DF91CF911F910F91FF9008952FEF56
:103E0000280F253018F49BEF980F23C02AEF280FB6
:103E10002930A0F021EF280F233090F0823191F06B
:103E20002DEE280F223080F0853181F02AEE280F08
:103E3000293070F08F3168F098E00BC091E009C034
:103E400093E007C094E005C095E003C096E001C090
:103E500097E0892F08952F923F924F925F926F9231
:103E60007F928F929F92AF92BF92CF92DF92EF920A
:103E7000FF920F931F93CF93DF93C7E5D5E007E43D
:103E800015E087E3282E85E0382E9AE0C92ED12C44
:103E9000E12CF12C88818054803208F041C0F80177
:103EA000808190E020918C02AC01421B510957FFA8
:103EB00003C0519541955109F101208130E0809175
:103EC0008B02B901681B7109CB0177FF03C0919583
:103ED00081959109840F951F039714F50E948036F0
:103EE0004B015C0180E00E94572F682F70E06F5FEC
:103EF0007F4F84E090E00E946A372B01770F6608BD
:103F00007708C501B401A70196010E94ED3664153A
:103F100075058605970524F488818F71805E8883F6
:103F200021960F5F1F4F7FEF271A370A85E0C736AC
:103F3000D80709F0AFCFDF91CF911F910F91FF907C
:103F4000EF90DF90CF90BF90AF909F908F907F9039
:103F50006F905F904F903F902F9008952F923F92D7
:103F60004F925F926F927F928F929F92AF92BF9289
:103F7000CF92DF92EF92FF920F931F93CF93DF9335
:103F8000CDB7DEB727970FB6F894DEBF0FBECDBF13
:103F900005EF12E01F830E838FE093E0D801712CB0
:103FA0002FEF3C91311102C02C93739411968A1714
:103FB0009B07B9F72BED32E041EC52E067EA72E083
:103FC0008DE892E0A5EFB2E0BB83AA831C011FEF4E
:103FD000211A310AD1014B015A013D832C83EA8019
:103FE000FB80FD01ED58F2406F01FAE1CF16D104DC
:103FF00094F0EA81FB813196FB83EA832F5F3F4F88
:104000004F5F5F4F6F5F7F4FC10107EA12E00215FC
:104010001305E1F63DC0EA81FB81D080F701C18044
:10402000CD1428F5F9010081FA014080FB01508090
:10403000FC016080EA81FB81C082EC81FD81C1804E
:10404000F901C082F501C180FA01C082F401C1808A
:10405000FB01C082CC90FC01C082F701D182EC81CF
:10406000FD810183F5014182F40151826C92FFEFE1
:10407000EF1AFF0A0C811D810F5F1F4F1D830C83F8
:104080001FEFA11AB10AEFEF8E1A9E0A1196A9CF5F
:10409000AE81BF818C918F3F09F41C92EE81FF812C
:1040A0003196FF83EE83EF50F34091F784E1871957
:1040B00027960FB6F894DEBF0FBECDBFDF91CF912C
:1040C0001F910F91FF90EF90DF90CF90BF90AF9036
:1040D0009F908F907F906F905F904F903F902F9028
:1040E000089590E0FC01EB50FD4F1082FC01E55279
:1040F000FD4F1082FC01EF53FD4F1082FC01E9558A
:10410000FD4F1082FC01E357FD4F10828091130197
:104110008150809313010C94AE1F80E0E82FF0E0F3
:10412000E155FC4F9081992319F08F5F8832B1F7E8
:104130000895AF92BF92CF92EF92FF920F931F9389
:10414000CF93DF93142FA82EB12CC62FD0E0F5010A
:1041500053E0EE0FFF1F5A95E1F7E952FC4FEC0FC9
:10416000FD1F9081992339F040E00E94422EF82EE5
:104170008823B9F102C045E0F42E0E948D20282F3B
:104180008F2DFF0C990B019763E070E00E946A3756
:104190008A0D9B1D33E0880F991F3A95E1F78153F3
:1041A0009C4FC80FD91F6C0F7D1FEB01219781E039
:1041B000820F8883822F90E0FC01E155FC4F108331
:1041C000FC01E957FC4F21E02083FC01E15AFC4F40
:1041D0000083FC01E95CFC4FE082FC01E15FFC4FE5
:1041E000C082DF91CF911F910F91FF90EF90CF9000
:1041F000BF90AF900895CF93DF93C82F0E94803671
:1042000024E630E040E050E00E94ED3680E09FE0A0
:10421000C99FD0011124AA58B84F9EE0C99FA001A0
:1042200011244B5E5E4FC62FD0E0FA01E80FF11D5E
:10423000208130E0FD01E20FF31FE4916E1748F09A
:10424000F9013196EA0FFB1FE491F0E0CE17DF078A
:1042500014F08F5FEACFDF91CF910895CF92DF9274
:10426000EF92FF920F931F93CF93DF93D62F082FD8
:1042700010E0F801E957FD4FC080F801ED57FD4F00
:104280006081062E000C770B6C197109C7FC7395C1
:104290006F5F7F4F072E000C880B990B0E94F12651
:1042A0000C2C000CDD08EE08FF08C60ED71EE81E19
:1042B000F91EF801E158FD4FC081F801E558FD4FA6
:1042C0008081682F880F770BCB018C1B9109C7FD6C
:1042D0009395BC016F5F7F4F072E000C880B990BE5
:1042E0000E94F1260C2FCC0F110B220B330BDC019B
:1042F000CB01800F911FA21FB31F960143E0220F35
:10430000331F4A95E1F72D523E4FF901E80FF91F8F
:10431000D083DF91CF911F910F91FF90EF90DF90AD
:10432000CF9008952F923F924F925F926F927F921B
:104330008F929F92AF92BF92CF92DF92EF92FF92B5
:104340000F931F93CF93DF9300D000D000D0CDB751
:10435000DEB78D8390E09C0129573D4F3A83298336
:10436000D9010C91002E000C110B01501109FC0118
:10437000ED57FD4F5F019C0121583D4F1901DC01B4
:10438000A558BD4FBC83AB83BD81B753BE83E2E06C
:104390004E2E512C612C712CF8EC9F2EA5E18A2E0B
:1043A000DD808D0CD5018C91082E000C990B0196A7
:1043B000801791070CF446C0F1018081780173E009
:1043C000EE0CFF1C7A95E1F79701280F311D87FD50
:1043D0003A95D901AE52BE4F6D018C91883069F487
:1043E0000E948036A30192010E94ED36882D969E90
:1043F000800D1124F601808302C0EE81EC93AB8125
:10440000BC818C91F701E80FF11D87FDFA959F01A2
:104410002C523E4F7901D9018C91883069F40E9469
:104420008036A30192010E94ED36882D969E800D64
:104430001124F701808303C0DE80D901DC920F5F75
:104440001F4FB0CFD1010C91002E000C110BBD817C
:10445000BD52BE8342E0442E512C612C712C52ED92
:10446000D52E65E1C62EED81CE0EAB81BC812C919F
:10447000822F022E000C990B801791070CF440C07C
:10448000E981FA818081980148E08402200D311D84
:104490001124D901A553BE4F7D018C91883069F458
:1044A0000E948036A30192010E94ED368C2DD69E8B
:1044B000800D1124F701808302C0EE81EC93D501B9
:1044C0008C91F80128E08202E00DF11D1124DF013A
:1044D000A552BE4F7D018C91883069F40E948036D0
:1044E000A30192010E94ED368C2DD69E800D1124E1
:1044F000F701808302C0EE81EC930F5F1F4FB5CFB1
:10450000FD81FF5FFB83D501EC91D101BC91BD839F
:10451000A981BA818C9190E08C0133E0000F111FCA
:104520003A95E1F760E070E0F0E030E0E817F90775
:10453000BCF0BD814B2F50E07801E60EF71E24172A
:10454000350754F0DA01AE0DBF1DAD52BE4FDB8012
:10455000DC924F5F5F4FF3CF0196685F7F4FE6CFEE
:1045600026960FB6F894DEBF0FBECDBFDF91CF9178
:104570001F910F91FF90EF90DF90CF90BF90AF9081
:104580009F908F907F906F905F904F903F902F9073
:1045900008951F93CF93DF938091D20181110CC0B6
:1045A0000E94803622E030E040E050E00E94ED368C
:1045B000EB01CC0FDD1F02C0C0E0D0E0FE01E253F2
:1045C000FE4F8081811101C02196FE01E957FD4F08
:1045D0001081FE01ED57FD4F6081062E000C770B18
:1045E000611B710917FD73956F5F7F4F072E000CDC
:1045F000880B990B0E94F126610F60938C02FE01DB
:10460000E158FD4F1081C558DD4F6881062E000C22
:10461000770B611B710917FD73956F5F7F4F072E35
:10462000000C880B990B0E94F126610F60938B029E
:10463000E0918C0288E0E89FF0011124E157FB4FE4
:10464000E60FF11DA081AA2329F0B0E0AA5ABA4FC3
:104650001C921082DF91CF911F910895CF92DF922B
:10466000EF92FF92CF938091CA019091CB01A091DC
:10467000CC01B091CD010196A11DB11D8093CA015D
:104680009093CB01A093CC01B093CD01C0900F01CA
:10469000D0901001E0901101F09012018091C601BC
:1046A0009091C701A091C801B091C9018C159D05D9
:1046B000AE05BF050CF44CC0C0911401C53108F023
:1046C00047C086E00E94E617CF5FC0931401CC0C70
:1046D000DD1CEE1CFF1CC0920F01D0921001E09275
:1046E0001101F09212010E94803628E030E040E093
:1046F00050E00E94ED3683E0860F90E0A0E0B0E04D
:1047000040910B0150910C0160910D0170910E01CF
:10471000480F591F6A1F7B1F40930B0150930C01D8
:1047200060930D0170930E014091070150910801B3
:104730006091090170910A01840F951FA61FB71F90
:104740008093070190930801A0930901B0930A0197
:10475000C0900B01D0900C01E0900D01F0900E0183
:104760008091070190910801A0910901B0910A017F
:10477000C816D906EA06FB069CF52091140186E1CD
:1047800090E0821B910963E070E00E946A379B0110
:104790002F5F3F4F032E000C440B550B6091CA0155
:1047A0007091CB018091CC019091CD010E94ED36AA
:1047B000672B682B692BA1F482E00E94572F9FEF93
:1047C000C91AD90AE90AF90AC80ED11CE11CF11C60
:1047D000C0920B01D0920C01E0920D01F0920E01FB
:1047E00080916705882319F0815080936705809137
:1047F0006805882319F08150809368058091C50170
:10480000882319F081508093C5018091C4018823C9
:1048100019F081508093C4018091C301882319F05D
:1048200081508093C3018091C201882319F0815087
:104830008093C20181E00E94572F882369F00E9473
:1048400080362CE030E040E050E00E94ED36672BEF
:10485000682B692B09F4A2C083E00E94572FC090F7
:104860000301D0900401E0900501F090060191E071
:10487000C91AD108E108F108C80ED11CE11CF11CCD
:10488000C0920301D0920401E0920501F09206016A
:1048900061E087E00E94402F882321F08091CA01C7
:1048A00080FF7FC062E087E00E94402F8823A1F054
:1048B0006091CA017091CB018091CC019091CD01A2
:1048C00022E030E040E050E00E94ED3661307105BA
:1048D0008105910509F473C0809103019091040151
:1048E000A0910501B0910601CC97A105B105DCF0BE
:1048F00060910701709108018091090190910A016E
:1049000024E030E040E050E00E94ED3680910B0161
:1049100090910C01A0910D01B0910E01281739075B
:104920004A075B076CF083E884BD8FEF87BD81EF9A
:10493000809380001092880082E380938A000BC0ED
:1049400083E884BD8FEF87BD81EF80938000109254
:10495000880010928A008091030190910401A09137
:104960000501B0910601181619061A061B062CF04F
:104970001092C10182E08093C001E12CF12C8AE009
:104980000E94572F90E0880F991FE816F9065CF5F2
:104990000E94A31D8FEFE81AF80AF1CF0E94C922E6
:1049A0005BCF91E0C91AD108E108F108C092030178
:1049B000D0920401E0920501F092060173CF80913C
:1049C000030190910401A0910501B09106010197A6
:1049D000A109B1098093030190930401A0930501FB
:1049E000B093060179CFCF91FF90EF90DF90CF90F9
:1049F000089590E0FC01E155FC4F1082FC01E9575D
:104A0000FC4F1082FC01E15AFC4F1082FC01E95C72
:104A1000FC4F1082FC01E15FFC4F108208956F9201
:104A20007F928F929F92AF92BF92CF92DF92EF923E
:104A3000FF920F931F93CF93DF9387EDC82E83E0F0
:104A4000D82E00E010E098E0892E912CA12CB12CFA
:104A5000E02EE694E694E69488E0E89E7001112446
:104A6000C0E0D0E0802F8770782EFE01EE0DFF1D94
:104A7000E855FE4F808190E0072C02C09595879500
:104A80000A94E2F780FF1CC0F601EC0FFD1F608066
:104A90006620B1F0BE01C8010E94D8158091C50101
:104AA0008823A1F10E948036A50194010E94ED3671
:104AB0006F5FE62FF0E0E459F84F84910E94FD25E6
:104AC0002196C830D10589F60F5F1F4F88E0C80EC8
:104AD000D11C0531110509F0BBCF60918B0270E04C
:104AE00080918C0290E00E94D81580E4DF91CF91F4
:104AF0001F910F91FF90EF90DF90CF90BF90AF90FC
:104B00009F908F907F906F900C94FD25E62DF0E0A4
:104B1000E255FC4FE0816E2F62956F70CACF0E9404
:104B2000E52580916805811109C00E94B4160E9494
:104B30006E160E940F250E94E71502C00E946E1695
:104B400085E00E94E6170E94782B0E94E1260E94D1
:104B5000220D90916705992351F00E94803624E040
:104B600030E040E050E00E94ED3681E0860F08958D
:104B7000CF92DF92EF92FF920F931F93CF93DF9329
:104B80006C017A018B01C0E0D0E0CE15DF0581F029
:104B9000D8016D918D01D601ED91FC910190F081CC
:104BA000E02DC6010995892B11F02196EECF7E01EB
:104BB000C701DF91CF911F910F91FF90EF90DF9090
:104BC000CF90089508950E94A73780E0E7E8F5E0C8
:104BD00081118FEF002481938193819381930394BA
:104BE000D1F7089520917D05282329F490917C0523
:104BF000982381E009F480E00895682F8DE695E020
:104C00000C94F51D0F931F93CF93DF938C01C0E09D
:104C1000D0E0F801EC0FFD1F6491662341F08DE6B2
:104C200095E00E94F51D892B11F02196F2CFCE015F
:104C3000DF91CF911F910F910895009769F0FC01CA
:104C400001900020E9F73197AF01481B590BBC01D7
:104C50008DE695E00C94B82580E090E008958F9261
:104C60009F92AF92BF920F931F93CF93DF93CDB7D5
:104C7000DEB7A1970FB6F894DEBF0FBECDBF19A265
:104C8000423008F44AE08E010F5D1F4F842E912CB4
:104C9000A12CB12CA50194010E941F37E62FB90168
:104CA000CA0101501109EA3014F4E05D01C0E95C69
:104CB000D801EC93232B242B252B61F7C8010E94EC
:104CC0001D26A1960FB6F894DEBF0FBECDBFDF91B3
:104CD000CF911F910F91BF90AF909F908F900895AB
:104CE000CF92DF92EF92FF92CF93DF9397FF19C09D
:104CF0006B017C018DE20E94FD25EC016627772780
:104D0000CB016C197D098E099F094AE00E942F266C
:104D10008C0F9D1FDF91CF91FF90EF90DF90CF9090
:104D200008954AE0DF91CF91FF90EF90DF90CF9010
:104D30000C942F26682F70E080E090E04AE00C94FD
:104D40002F26BC01990F880B990B0C9470260F939A
:104D50001F93CF93DF938C01040F111DEB01289655
:104D6000E0E18017910744F59B0177FF02C020E046
:104D700030E0AE01C134D10514F040E450E0241716
:104D80003507C4F48038910590F4A901F1E041FDA4
:104D9000F4E040FDFF0F42FDF295487FE49FD00113
:104DA0001124A80FA957BA4F4C91F42BFC932F5FF5
:104DB0003F4FDFCF0196D5CFDF91CF911F910F915C
:104DC0000895E7E8F5E080E0A0E0B8E000800EBCE0
:104DD0008111012C1197A0FDFDCF0192B9F70DB4FF
:104DE0000895CF92DF92EF92FF92611571058105D0
:104DF000910549F06B017C010E948036A701960164
:104E00000E94ED3603C060E070E0CB01FF90EF90B0
:104E1000DF90CF900895CF92DF92EF92FF920F93A1
:104E20001F93621773078407950784F489019A0119
:104E30006B017C01C901B8016C197D098E099F09BC
:104E40000E94F1266C0D7D1D8E1D9F1D1F910F91DF
:104E5000FF90EF90DF90CF9008953FB7F894809146
:104E6000830590918405A0918505B091860526B5AE
:104E7000A89B05C02F3F19F00196A11DB11D3FBF92
:104E8000BA2FA92F982F8827820F911DA11DB11D20
:104E9000BC01CD0142E0660F771F881F991F4A951C
:104EA000D1F708958F929F92AF92BF92CF92DF92E7
:104EB000EF92FF926B017C010E942D274B015C0158
:104EC000C114D104E104F104F1F00E942D27DC01AA
:104ED000CB0188199909AA09BB09883E9340A1050D
:104EE000B10570F321E0C21AD108E108F10888EE9B
:104EF000880E83E0981EA11CB11CC114D104E104EA
:104F0000F10419F7DDCFFF90EF90DF90CF90BF90C5
:104F1000AF909F908F9008951F920F920FB60F92AF
:104F200011242F933F938F939F93AF93BF938091BF
:104F3000690590916A05A0916B05B0916C0530915F
:104F4000820523E0230F2D3720F40196A11DB11D0A
:104F500005C026E8230F0296A11DB11D20938205EE
:104F60008093690590936A05A0936B05B0936C05D7
:104F70008091830590918405A0918505B091860567
:104F80000196A11DB11D8093830590938405A09384
:104F90008505B0938605BF91AF919F918F913F9109
:104FA0002F910F900FBE0F901F9018954F925F9208
:104FB0006F927F928F929F92AF92BF92CF92DF9229
:104FC000EF92FF920F931F93CF93DF9300D000D007
:104FD000CDB7DEB7DC0139012C2DA02EB12CC501D7
:104FE0008A0F9B1F181619060CF0AEC1A038B10528
:104FF0000CF0AAC1FB01EE0DF11D1E161F060CF0F0
:10500000A3C1603471050CF09FC14115510509F42D
:105010009BC1362F3770F32EFB0177FD379633E0B7
:10502000F595E7953A95E1F73E2F77FF04C0FF200D
:1050300011F03FEF3E0FB7FF05C0EE27FF27EA1B39
:10504000FB0B02C0E0E0F0E0803891051CF090E836
:105050009A1B01C0902F9E1B632F032E000C770B11
:105060003F3F1CF4162F109501C010E0DD24D394AF
:105070008E2D877009F4D12CE694E694E694ED0C1D
:105080006E0D711D693071051CF088E0E82EE31A81
:10509000E11A310F60E83603A00DB11D1124AE0FE7
:1050A000BF1F019FE00DF11D11244E0F5F1F61E036
:1050B00070E04B010F2C02C0880C991C0A94E2F797
:1050C000233009F4FFC0B8F4213009F4B3C0223012
:1050D00009F03AC18FEF889D8001899D100D112440
:1050E000009510951A8309832A81FD01E957FA4F2B
:1050F0002F01E30E29C02A3FD1F12B3F09F024C133
:10510000FD01E957FA4F6F01E30E82C08491889D3B
:105110006001899DD00C1124DC82CB8237FD05C053
:10512000DB018C918023C82ACC92F11013C03196F8
:105130006F5F7F4F8E2F841B891740F33F5F4A0DAF
:105140005B1DB0E84B0E511C3E1509F4FDC0B201C9
:10515000FA01F0CF37305CF76B01B0E8CB0ED11C11
:10516000D6018C9182237C8087298C93E0CFFD012E
:10517000E957FA4F6F01E30E3E1509F4E5C08601C9
:10518000FA018E2F841B8917F0F48491889DB00159
:10519000899D700D11247C836B8337FD04C0D80179
:1051A0008C91682B6C93FF2051F0373044F4B80198
:1051B00060587F4FDB012C918C81822B8C93319630
:1051C0000F5F1F4FDECF3F5F4A0D5B1DB0E8CB0E78
:1051D000D11CD2CF8491889D8001899D100D11240E
:1051E0001C830B8337FD05C00095DB018C910823E0
:1051F0000C93F11013C031966F5F7F4F8E2F841B7D
:10520000891740F33F5F4A0D5B1DB0E8CB0ED11C00
:105210003E1509F499C0B601FA01F0CF37305CF7BA
:105220008B0100581F4F8C818095D8012C918223CF
:105230008C93E1CFB3016E0F7F1FA957BA4FE30ED6
:105240003E1509F481C08D01C12CD12CC91690F5F1
:10525000FB01EC0DFD1DE491E89D3001E99D700C12
:105260001124609470947A826982FA01EC0DFD1D1C
:10527000E491E89D2001E99D500C11245C824B8251
:1052800037FD05C0F8018081682246284082FF2052
:1052900059F037304CF4F801E058FF4F20818A81F3
:1052A00082232C81822B8083FFEFCF1ADF0A0F5FCE
:1052B0001F4FCCCF3F5F4A0D5B1D6A0D7B1DA05871
:1052C000BF4FBECFC92ED12CE40FF51FA957BA4F3F
:1052D00000E810E00C191D09AC18BD08A501440F29
:1052E000551F792F2E2D792ECF93DF93ED01EF9659
:1052F000EF962296A590C590FF2059F0A89C5001EA
:10530000C89C600137302CF4E880D094ED20EB2865
:10531000E99233233AF0EC90C094EC20EA28ED9225
:105320000C94932911967A9529F72A9551F0772DA7
:1053300033951124E40FF11DA00FB11DC00FD11D35
:10534000D9CFDF91CF9111240F900F900F900F9034
:10535000DF91CF911F910F91FF90EF90DF90CF9051
:10536000BF90AF909F908F907F906F905F904F9085
:105370000895BC0180E090E00C9452278FB1809595
:10538000807F669B88601C9B846008958F929F92AB
:10539000AF92BF92CF92DF92EF92FF920F931F9343
:1053A000CF93DF93942E28E0829FC0011124EC015B
:1053B000C952DC4FC60FD11D888181118CC10E945A
:1053C0008D2091E0980F9883082F10E0C80189572D
:1053D0009C4F7C0181E0F7018083C801815A9C4F7A
:1053E0006C01FC011082C801895C9C4F5C01FC01CE
:1053F0001082E801C15FDC4F188291101DC00E942D
:10540000803624E630E040E050E00E94ED3640E097
:10541000262F30E0842F90E0FC01E95DF54FE49108
:105420004F5F6E17B8F3FC01E85DF54FE491F0E0D3
:105430002E173F077CF7942E492D50E0FA01319743
:10544000E830F10508F047C1E856FF4F01551C4F01
:105450000C947E3780E1F80180830E94803624E638
:1054600030E040E050E00E94ED3680914D01680F41
:10547000F70130C10E94803625E030E040E050E086
:105480000E94ED36672B682B692B11F481E201C075
:1054900080E2F80180830E94803622E030E040E024
:1054A00050E00E94ED366F5FF7016083888180686D
:1054B000F7C00E94803628E030E040E050E00E94D3
:1054C000ED3680E3860FF8018083643020F481E0BC
:1054D000F70180830EC00E9480362DE030E040E06E
:1054E00050E00E94ED366D5FF7016083888180682F
:1054F00088830E94803626E030E040E050E00E9441
:10550000ED3661111AC00E94803623E030E040E0A1
:1055100050E00E94ED36C1E0C60F6C2F70E06F5F67
:105520007F4F072E000C880B990B0E94F126F60185
:105530006083C61BF501C083CEC0613009F0CBC0CB
:105540000E94803623E030E040E050E00E94ED36DB
:1055500011E0160F612F70E06F5F7F4F072E000C78
:10556000880B990B0E94F126862F8195F601808386
:10557000611BF50185C00E94803627E030E040E0E5
:1055800050E00E94ED36B62E605CF801608381E049
:10559000F70180830E94803626E030E040E050E052
:1055A0000E94ED3661110CC00E94803623E030E08D
:1055B00040E050E00E94ED366F5FF601608310C05E
:1055C000613071F40E94803623E030E040E050E02A
:1055D0000E94ED366095F60160838881806488833F
:1055E000B11079C0888188605BC080E00E94FB2098
:1055F000805B04C081E00E94FB20805AF801808318
:1056000081E0F701808352CF0E9480362BE030E0AA
:1056100040E050E00E94ED3680E7860FF80180837D
:1056200081E0F7018083E62FF0E0EB5EFE4F848D92
:10563000843049F018F4813089F14DC0863019F07A
:10564000873001F148C00E94803622E0822E912CE2
:10565000A12CB12CA50194010E94ED36611108C066
:105660000E948036A50194010E94ED366F5F31C023
:105670000E948036A50194010E94ED366095F601E6
:1056800060830CC00E94803622E030E040E050E0B1
:105690000E94ED36672B682B692BE9F488818064C2
:1056A000888319C00E9480362AE030E040E050E054
:1056B0000E94ED366058F801608381E0F701808335
:1056C0000E94803624E030E040E050E00E94ED3659
:1056D0006D5FF6016083DF91CF911F910F91FF9075
:1056E000EF90DF90CF90BF90AF909F908F900895F4
:1056F00080918B02843038F081E080937205809332
:1057000071058FEF06C081E080937205809371056B
:1057100087E38093730587E999E00C941D26BF9277
:10572000CF92DF92EF92FF920F931F93CF93DF936D
:10573000182FF62EE42E60914D0123E0260F6650BF
:1057400066310CF065E167FD60E02B310CF029E17A
:10575000022E000C330B440B550B062E000C770B5E
:10576000880B990B0E940B27B62E27E0629FC00181
:105770001124FC01EF58F64F6F01EF012696FE0150
:1057800084918F70833069F028F48130B1F08230D9
:1057900019F125C0853099F008F1863001F503E054
:1057A0001EC00E94803625E030E040E050E00E94BC
:1057B000ED36672B682B692B79F001E010C00E9451
:1057C000803625E030E040E050E00E94ED36672B67
:1057D000682B692B19F0F1CF02E001C004E0812FA2
:1057E00090E0FC01E95AFA4F20E2029FB00C11242C
:1057F000B082F601C490FC01E957F64FC082FE0169
:10580000C491FC01E158FB4FC07FC860C08328E011
:10581000F29EF0011124E157FB4FEE0DF11D1F5FC9
:105820001083DF91CF911F910F91FF90EF90DF9048
:10583000CF90BF90089590E0FC01EB50FD4FE081C8
:10584000EF70F0E0EB5EFE4F248D243019F026302F
:1058500069F00895FC01EF53FD4F908180918D0117
:10586000699F800D112480938D010895FC01EF53F1
:10587000FD4F90818091A701699F800D1124809335
:10588000A70108954F925F926F927F928F929F929D
:10589000AF92BF92CF92DF92EF92FF920F931F933E
:1058A000CF93DF9380914D01811103C08FEF8093DF
:1058B0004D018091A3019091A401A091A501B09107
:1058C000A6014091AD095091AE096091AF09709168
:1058D000B009481759076A077B070CF083C020916D
:1058E0004D018093AD099093AE09A093AF09B09399
:1058F000B0092093B1098DEAE82E89E0F82EE7017E
:1059000020E030E02F5F3F4FCE01A9014530510527
:1059100039F4259625303105A9F709E610E02BC0AA
:10592000488059806A807B80FC0185809680A780B2
:10593000B08484149504A604B704CCF465E0FE0199
:10594000A6ECB9E001900D926A95E1F765E0FC01E3
:105950003596DE0101900D926A95E1F765E0E6EC7F
:10596000F9E0DC01159601900D926A95E1F74F5F21
:105970005F4F0596CBCFE8012597C8018C5B964F0A
:105980006C01F601B1906F01CE010E94D736B816B6
:1059900021F06B2DCE010E94DF362196C017D10772
:1059A00081F78E010B5F1F4F0238110521F74091DF
:1059B000A3015091A4016091A5017091A60195E009
:1059C00080E0F701008111812281338104171507DE
:1059D0002607370709F4892FF5E0EF0EF11C9150E7
:1059E00081F701C080E0DF91CF911F910F91FF906F
:1059F000EF90DF90CF90BF90AF909F908F907F906F
:105A00006F905F904F900895EF92FF920F931F93C6
:105A1000CF93DF93C82F80916805811106C00E9443
:105A2000B4160E940F250E94E715D0E0CE01895CD4
:105A30009A4F7C01FC0160818E01095B1A4FF801CD
:105A40008081F8E06F9FB001112426E0829FC001A1
:105A5000112446E001960E94A72610927405F701D2
:105A6000608170E0F801808190E00E94D8158091FB
:105A7000680581110FC0FE01E158FB4F808186FD52
:105A800009C0C95ADA4FE881EF71F0E0E45BF84FE2
:105A9000849101C080E20E94FD250E94E12664E617
:105AA00070E080E090E00E94522781E080937405CE
:105AB000DF91CF911F910F91FF90EF90089580910A
:105AC0006805811106C00E94B4160E940F250E942D
:105AD000E71560918B0280918C0228E0629FB001F3
