:100000000C9418050C9440050C9440050C94400584
:100010000C9440050C9440050C9440050C9440054C
:100020000C9440050C9440050C9440050C9440053C
:100030000C9440050C9440050C9440050C9440052C
:100040000C9440050C9440050C9440050C9440051C
:100050000C9440050C9440050C9440050C94532BD3
:100060000C9440050C9440050C9440050C944005FC
:100070000C9440050C9440050C9440050C944005EC
:100080000C9440050C9440050C9440050C944005DC
:100090000C9440050C9440050C9440050C944005CC
:1000A0000C9440050C9440050C944005540B610BD6
:1000B000660B960BC80BDB0BEC0BF00BF40BF80B81
:1000C000190C1D0C230C270C720C800CAE0CDB0CD5
:1000D000F10C2C0D2F0DA90D6C0C3E0D720D800D29
:1000E000C60F6C0EC60FC60FD10FC60FDC0F6C0EFD
:1000F0006C0E6C0EE80F6C0EF30FF21D1C1E3E1FF3
:100100003E1F281E3E1F3E1F431E561E3E1F7E1EC4
:100110003E1F891E3E1F3E1F3E1F3E1F9A1E5A2233
:1001200072227C22822288229922A322AA22BA2227
:10013000F12D012E202E822EBC2EC12ECB2E192F5A
:10014000D5F08D14A1C881CFD9F1AF200057696EC9
:10015000202C0048616C6C204F662046616D650064
:1001600020202020414D554C4554204F46205945D4
:100170004E444F522020202000594F55204D4144DD
:1001800045204954204F555420574954482054483D
:1001900045002020202C20434F4E47524154554CBF
:1001A0004154494F4E202C20202000240062790029
:1001B0004B696C6C65640068656C6C66697265009F
:1001C0006C75636B006C61636B206F660046726FC9
:1001D0007A656E00537461727665005F2020204856
:1001E00065726F202020205F0028202052204920A7
:1001F000502020280045783B0041433B0053743B8E
:100200000048703B0041753B004C763B00202020AD
:100210002020202020202000537461747573004139
:100220005D204E65772047616D65004020526F6705
:100230007565002043002045002077686963687D6C
:100240000020200020496E76656E746F7279202040
:100250002020200002030304040501010101010222
:100260000103010420202020202020202020202005
:1002700020202000202064726F7020202020202069
:100280002020200020207468726F772020202020FA
:100290002020200020207573652020202020202091
:1002A00020202000416374696F6E00646F6F7200DC
:1002B0000000006172726F77000000736C656570FA
:1002C00000000074656C706F727400706F69736FFA
:1002D0006E00007275737400000000676F6C64003C
:1002E000000000666F6F64000000006D6F6C6400BA
:1002F0000000006D6163650000000061786500002A
:1003000000000073776F7264000000626F77000076
:1003100000000064617274000000006172726F7707
:10032000000000736872696B656E006461676765E1
:100330007200006C6561746865720072696E6700B6
:100340000000007363616C65000000636861696EA2
:1003500000000073706C696E74000062616E646509
:10036000640000706C617465000000616D6265720C
:10037000000000626C61636B000000626C756500D8
:1003800000000062726F776E000000636C6561723E
:100390000000006379616E000000006F72616E679B
:1003A000650000677265656E000000677261790024
:1003B00000000070696E6B00000000726564000050
:1003C00000000076696F6C65740000776869746579
:1003D00000000079656C6C6F7700005A454C474F00
:1003E0000000004A555945440000004E5220390093
:1003F00000000058495841584100004441495945BE
:100400004E0000454C4249420000005448415252BF
:1004100000000059554D2059554D00414E444F564E
:10042000410000464F4F424945000054454D4F564C
:1004300000000052454144204D45006167617465EC
:10044000000000616D7468797374006469616D6F98
:100450006E6400656D6572616C64006761726E65E3
:100460007400006F6E6978000000006F70616C00AE
:10047000000000706561726C0000007275627900A6
:100480000000007361706869726500746F70617A52
:10049000000000627261737300000062726F6E7A16
:1004A000650000636F70706572000069726F6E00A6
:1004B0000000006C656164000000006E69636B659C
:1004C0006C0000737465656C00000073696C766580
:1004D00072000074696E00000000007A696E6300AB
:1004E00000000059656E646F720000706F7765726E
:1004F000000000726573746F7265006865616C005E
:1005000000000065276865616C0000706F69736F9B
:100510006E00006C6576656C000000626C696E644C
:1005200000000068616C6C750000006D27647465E4
:100530006374006927647465637400636F6E667525
:100540007365006C657674617465007370656564CD
:100550000000006C6F6F6B0000000070726F7465BC
:10056000637400686F6C6400000000776561706FF1
:100570006E000061726D6F7200000069646E7469D4
:1005800066790074656C706F727400736C65657069
:100590000000007363617265000000626C65737334
:1005A0000000006372656174650000616E676572CA
:1005B0000000006D61700000000000737465616CE4
:1005C00074680074656C65706F72746C6966650040
:1005D000000000666F6F640000000064616D616779
:1005E0006500007374726F6E6700006465780000C8
:1005F0000000006172646F726E0000736565000038
:1006000000000061726D6F720000007365617263BB
:1006100068000074656C706F727400736C6F7700A3
:10062000000000636F6E6675736500636C656172D0
:100630000000006368616E676500006661737400A6
:10064000000000736C6565700000006D697373696C
:100650006C650063616E63656C00006E6F74686941
:100660006E670077656C636F6D656000004920639D
:10067000616E6E6F7400006E6F2073706163650051
:10068000006F626A656374206865726E6F20736CB8
:100690006F740000006469727D0000000000006C4F
:1006A0006576656C20757000006F6F707327272763
:1006B00000000079756D6D790000000000697420FC
:1006C0006973206375727372656D6F76656400007F
:1006D00000657175697070656400007769656C64A8
:1006E000656400000066726F7A656E00000000703D
:1006F0006F69736F6E6564000073746F6C656E0074
:100700000000007275737465640000000068656C19
:10071000640000000000006772616365640000000F
:10072000006275726E6564000000006C6576656C31
:1007300020646F776E647261696E65640000005AB0
:100740005A5A272727000000004B45425348495278
:100750004F5A4C4351414E594654575058554D5697
:10076000474A44020304050606072A3A295B213F4B
:100770003D2F2C00050A14192328323C414B555AB1
:100780005F6400050A0F14232D37414B555A6464EA
:10079000640508000000000000746D7400404040D3
:1007A0004040552A552A55042E6B3A107F437F410D
:1007B0007F6A5767576E0060600000707A770A7032
:1007C00008105F100822085D08227E4141417E0624
:1007D0000929522C000808080000000040200200EF
:1007E0007D00023E7F417F3E00427F7F4062715923
:1007F0004F462241497F3618147E7F102F4F49798A
:10080000313E7F4979300161791F07367F497F3654
:10081000064F497F3E18353E3D1800363600000031
:1008200040381800102A452A101C7F3E1C08085C1E
:100830002E170A0102641F767E7F097F7E7F7F4923
:100840007F363E7F4141227F7F417F3E7F7F494906
:10085000417F7F0909013E7F41797A7F7F087F7F51
:1008600000417F7F4141417F3F017F7F1C36637F95
:100870007F4040407F7E0C7E7F7F7E1C3F7F3E7F9F
:10088000417F3E7F7F090F063E7F613F5E7F7F098C
:100890007F76264F49793200017F7F013F7F407F7D
:1008A0003F1F3F603F1F7F3F103F7F777F087F776D
:1008B000037F78070371794D47431F3F7B3F1F70CC
:1008C0007A770A700041417F3E3E7F4141004D3AB8
:1008D000163A4D006F6F00002074547C787F7F447F
:1008E0007C38387C444428387C447F7F387C545C96
:1008F0001800047E7F0518BCA4FC7C7F7F087870FC
:1009000000447D7D408080FD7D007F7F386C440009
:10091000417F7F407C7810787C7C7C047C78387CBC
:10092000447C38FCFC243C18183C24FCFC7C7C08EF
:100930000404085C54742000047E7E043C7C407CEB
:100940007C1C3C403C1C7C3C103C7C6C7C107C6CDB
:100950001CBCA0FC7C4464745C4C1F3B713B1F00BE
:10096000777777000601590F0620100804020A0164
:10097000043C0200830B0103410200020A01033C14
:10098000020025080103320200030F0205430300A1
:10099000030F00004405000413020A460A0003196D
:1009A000010546050A031501074508000319000063
:1009B0004B156404200513550F0A051E030F4E1432
:1009C0001403190000641400031900004B27640489
:1009D00023031250321405490000505B00014B05FF
:1009E0001C4B7D21032D02104B3700054C05145084
:1009F0007832652A04184B6E00065A042855C8211F
:100A00000361072555FA19033702125504120373BF
:100A10000A3255140A83840732641E000591083C8B
:100A200064325A02000A0F18213F5D6064000F36DD
:100A300011241FBECFEFDAE0DEBFCDBF11E0A0E092
:100A4000B1E0ECE4FFE602C005900D92A438B107D6
:100A5000D9F729E0A4E8B1E001C01D92AB3CB20790
:100A6000E1F715E0C8E1D5E004C02197FE010E943E
:100A70007637C731D107C9F70E94E22F0C94A4370B
:100A80000C94000090E0FC01ED5EFC4FE081EF7003
:100A9000F0E0EB5EFE4F248D243019F0263069F033
:100AA0000895FC01E152FD4F90818091AB01699F57
:100AB000800D11248093AB010895FC01E152FD4F9C
:100AC00090818091C501699F800D11248093C5019B
:100AD00008954F925F926F927F928F929F92AF9202
:100AE000BF92CF92DF92EF92FF920F931F93CF931B
:100AF000DF9380914D01811103C08FEF80934D01F1
:100B00008091C1019091C201A091C301B091C40133
:100B100040918A0150918B0160918C0170918D01FF
:100B2000481759076A077B070CF083C020914D01D5
:100B300080938A0190938B01A0938C01B0938D01D7
:100B400020938E018AE8E82E81E0F82EE70120E06C
:100B500030E02F5F3F4FCE01A9014530510539F4F8
:100B6000259625303105A9F709E610E02BC048800D
:100B700059806A807B80FC0185809680A780B08444
:100B800084149504A604B704CCF465E0FE01A5E83E
:100B9000B1E001900D926A95E1F765E0FC013596B0
:100BA000DE0101900D926A95E1F765E0E5E8F1E07C
:100BB000DC01159601900D926A95E1F74F5F5F4F4A
:100BC0000596CBCFE8012597C8018F5D9E4F6C013C
:100BD000F601B1906F01CE010E94CF36B81621F018
:100BE0006B2DCE010E94D7362196C017D10781F711
:100BF0008E010B5F1F4F0238110521F74091C10193
:100C00005091C2016091C3017091C40195E080E0F0
:100C1000F70100811181228133810417150726070E
:100C2000370709F4892FF5E0EF0EF11C915081F799
:100C300001C080E0DF91CF911F910F91FF90EF9065
:100C4000DF90CF90BF90AF909F908F907F906F90EC
:100C50005F904F900895EF92FF920F931F93CF9361
:100C6000DF93C82F80918605811106C00E947B1AF0
:100C70000E94D6280E94AE19D0E0CE018B5A9A4F1E
:100C80007C01FC0160818E010B591A4FF8018081B3
:100C9000F8E06F9FB001112426E0829FC00111246B
:100CA00046E001960E946E2A10929205F70160813B
:100CB00070E0F801808190E00E949F198091860584
:100CC00081110FC0FE01E356FB4F808186FD09C0F4
:100CD000CB58DA4FE881EF71F0E0E75BF84F849191
:100CE00001C080E20E94C4290E94A82A64E670E044
:100CF00080E090E00E94192B81E080939205DF91C3
:100D0000CF911F910F91FF90EF90089580918605EC
:100D1000811106C00E947B1A0E94D6280E94AE193B
:100D20006091A9028091AA0228E0629FB00111247B
:100D300026E0829FC001112446E001960E946E2A9F
:100D4000109292056091A90270E08091AA0290E051
:100D50000E949F1980E40E94C4290E94A82A64E688
:100D600070E080E090E00E94192B81E08093920572
:100D700008958F929F92AF92BF92CF92DF92EF929F
:100D8000FF920F931F93CF93DF93962FE82FF0E0FE
:100D9000DF01AB55B64F3C91EB58FA4F431708F4BF
:100DA00083C088E0289FD0011124A355BB4FA00F1A
:100DB000B11D1C921082C62FD0E0C090E401D090EB
:100DC000E501E090E601F090E70187E06631F0F0A0
:100DD0008C9FD0018D9FB00D1124FD01EE58F64F70
:100DE000A49184E6A89FF0011124AF01FF0F660BC8
:100DF000770B4C0D5D1D6E1D7F1D4093E4015093DC
:100E0000E5016093E6017093E7011BC08C9FB00180
:100E10008D9F700D1124FB01EE58F64F6491460131
:100E20005701860E911CA11CB11C8092E401909286
:100E3000E501A092E601B092E7019F3011F4109213
:100E4000C001122FB92E0E94783627E02C9FF001A6
:100E50002D9FF00D1124ED58F64FE491CE2ED12C9C
:100E6000E12CF12C24E630E040E050E00E94E53631
:100E70006C157D058E059F05FCF489E0982EB91050
:100E800002C041E001C040E0602F812FDF91CF918F
:100E90001F910F91FF90EF90DF90CF90BF90AF9098
:100EA0009F908F900C948D2D341B3C9380818034C7
:100EB00018F08F71805E8083DF91CF911F910F9129
:100EC000FF90EF90DF90CF90BF90AF909F908F906A
:100ED00008953F924F925F926F927F928F929F926E
:100EE000AF92BF92CF92DF92EF92FF920F931F9338
:100EF000CF93DF93682E862EF42E0E94783628E05A
:100F000030E040E050E00E94E536C091AA02E09156
:100F1000A902F0E088E0C89FE0011124DE01A3559A
:100F2000BB4FAE0FBF1F8FEF8C9300E010E0462E3B
:100F3000512C99E0C92ED12C23E0322E712C912C0A
:100F4000C201800F911FB6010E946237E82E632D07
:100F50000E94543791509301290F311D97FD3A9506
:100F60008150A401480F511D87FD5A9583E0220F3F
:100F7000331F8A95E1F7D901AF50BE4FA40FB51FBB
:100F80008C918150883C20F5D901AB50BC4FA40F07
:100F9000B51F6C9170E0A1E0B0E0FF2011F0A0E07F
:100FA000B0E06A9F50016B9FB00C7A9FB00C112487
:100FB000AB2871F423553B4FD901A40FB51F8C9179
:100FC0008F9DC0011124892B19F481E08E0D07C07B
:100FD0000F5F1F4F0930110509F0B2CF80E0C355F4
:100FE000DB4FEC0FFD1F1082DF91CF911F910F910E
:100FF000FF90EF90DF90CF90BF90AF909F908F9039
:101000007F906F905F904F903F900895CF92DF92C6
:10101000EF92FF920F931F93CF93DF93C62FE82F8A
:10102000F0E09F01225031098170829F202D112410
:10103000CF01019762E070E00E94623733978E9F84
:10104000D02D11243091AA026091A90270E0C22E25
:10105000022E000CDD080D2F0D2E000C110BF801D7
:10106000E60FF11DA601430F511DA3E0440F551FCC
:10107000AA95E1F7CA0183559B4F7C01EE0EFF1E36
:10108000D7018C91882319F0320F6D0F0DC04F508E
:101090005E4FE40FF51F40814150473C28F4320F6A
:1010A0006D0F7F5F7C13DBCF90E0982F8827B5E131
:1010B0006B9F800D911D1124830F911DDF91CF91A6
:1010C0001F910F91FF90EF90DF90CF900895382FF0
:1010D000A3E1B3E0EBEAF2E091E080E02D9122950C
:1010E0002F70231306C0208124FF03C0615009F430
:1010F000892F31969F5F953189F708951F93CF937C
:10110000DF93182FC0E0D0E0CF5F6C2F87E00E9404
:101110006708811107C0C230B9F78D2FDF91CF91D9
:101120001F910895E82FF0E0EE5EFC4FE081EF7034
:10113000F0E0EB5EFE4F848D8113EDCFDF5FEBCFF0
:10114000EF92FF920F931F93CF93DF93D82F082F27
:1011500010E0C80185559D4F7C01FC01C081C4FF92
:1011600014C0C6FF02C089E023C0CF7EFC01C0834B
:101170008AE00E94AD1BF801ED5EFC4F8081805734
:10118000803108F040C06FEF35C0F801ED5EFC4FD4
:10119000808182958F708330B0F1853018F0873070
:1011A000A1F031C061E00E946708882349F08CE01B
:1011B000DF91CF911F910F91FF90EF900C94AD1B99
:1011C000C261F701C0838BE0F3CF61E087E00E944A
:1011D0006708182F62E087E00E946708189FC00127
:1011E0001124892B21F7C261F701C0838BE00E9493
:1011F000AD1B61E08D2FDF91CF911F910F91FF907B
:10120000EF900C944205DF91CF911F910F91FF90C9
:10121000EF9008952F923F924F925F926F927F923C
:101220008F929F92AF92BF92CF92DF92EF92FF92F6
:101230000F931F93CF93DF9300D000D0CDB7DEB7CD
:10124000382E512C442443940E94AC29409290059E
:1012500040928F050FEF0093910531101AC040E8BE
:1012600060E070E080E090E00E946E2A10929205AB
:1012700084E492E00E94C929609103017091040105
:1012800080910501909106010E94372A81E492E045
:1012900002C089E392E00E94C929409290054092E1
:1012A0008F0517E010939105409292058EE30E94FE
:1012B000C429052D10E01C830B8380911301A80124
:1012C0004A5F5F4F282F30E04217530714F487E03E
:1012D000850D0B811C8105551D4F2B813C812152B1
:1012E0003D4F7901AB81BC81AD5EBC4F6D01AB80E0
:1012F000BC8088248394912C682E712CA614B7048A
:101300000CF0A0C0B40181E090E00E949F191A8304
:101310000983F801808183FD09C0D601EC91E29533
:10132000EF70F0E0E759F84F849101C08BE70E941D
:10133000C42980E20E94C429F801808187FF09C086
:10134000F501E750FD4F80810E94612A80E20E94F2
:10135000C429D6019C91692F6F70892F82958F7057
:10136000903510F440E00FC0E82FF0E0EE0FFF1FC3
:10137000E756FE4F40815181062E02C05695479593
:101380000A94E2F741700E94E82082EB91E00E940B
:10139000E429F801808185FF34C0D6018C9190ED5D
:1013A000980F903190F48EE50E94C429F701808156
:1013B000082E000C990B0E94682A8CE30E94C42915
:1013C000F501EB53FD4F808114C090EC980F9031E4
:1013D00058F090E8980F903138F08057803188F4B9
:1013E000F7018081882369F08EE50E94C429D70126
:1013F0008C91082E000C990B0E94682A8DE50E94A2
:10140000C429F801808184FF04C086E392E00E9431
:10141000C9290F5F1F4FA981BA818C9182748234D0
:1014200021F483E392E00E94C929BFEFAB1ABB0A03
:10143000EFEFEE1AFE0AFFEFCF1ADF0A2FEF821A44
:10144000920A5CCF0E94A82A0E94E910823029F4F7
:10145000552009F4F9CE5A94F7CE843061F4809186
:10146000130190E001970B811C81081719070CF0FC
:10147000EBCE5394E9CE853009F090C6311091C679
:101480004BE468E070E086E090E00E946E2A1092E3
:1014900092058DE08093900580938F0517E010935F
:1014A000910584EA92E00E94C92981E08093920527
:1014B0001093900510938F050FE00093910584E938
:1014C00092E00E94C9291093900510938F0587E13F
:1014D0008093910584E892E00E94C92910939005B9
:1014E00010938F058FE18093910584E792E00E942D
:1014F000C9291093900510938F0587E28093910579
:1015000084E692E00E94C9291093900510938F05FC
:10151000009391058EE30E94C4290E94A82A10E03E
:101520000E94E9108430C9F018F4823039F0F8CF05
:10153000853079F1863009F434C6F2CF112381F376
:10154000612F70E06E5F7F4F81E090E00E949F19F5
:1015500080E20E94C42911500EC0123008F7612F9A
:1015600070E06E5F7F4F81E090E00E949F1980E203
:101570000E94C4291F5F612F70E06E5F7F4F81E082
:1015800090E00E949F198EE30E94C4290E94A82A1D
:10159000C7CF11114FC31091E101111141C4EB816B
:1015A000FC81ED5EFC4F9081892F82958F70823097
:1015B000E9F50B811C8107501D4F1A830983D8015F
:1015C0008C9181508C93811103C0852D0E94382409
:1015D00088E00E94AD1B609103017091040180912D
:1015E00005019091060123E030E040E050E00E94C8
:1015F000E53669017A01BEE5CB0EB1E0DB1EE11CE8
:10160000F11C0E94783622E330E040E050E00E9476
:10161000E536C60ED71EE81EF91EC0920301D09211
:101620000401E0920501F0920601F3C3833009F44E
:10163000B9C2843009F4B6C29F70F92E853009F022
:101640000DC1C92ED12C81E090E0A0E0B0E00F2CBC
:1016500004C0880F991FAA1FBB1F0A94D2F72091BC
:10166000A3013091A401822B932B9093A40180932A
:10167000A301EB81FC81E750FD4F80818150808385
:10168000811103C0852D0E943824F601EB5EFE4FC8
:10169000E0818E2F90E08E30910508F0DBC0FC01D8
:1016A000EA5AFF4F0C947637909102012091000185
:1016B00081E0890F809302019213CCC080930001D6
:1016C000C9C08091000180930201C4C080910B01C8
:1016D00090910C01A0910D01B0910E014091070174
:1016E000509108016091090170910A0184179507D2
:1016F000A607B70721F40196A11DB11D2FC08C01CB
:101700009D01040F151F261F371FC901B80122E0D4
:1017100030E040E050E00E94E53620930B0130932A
:101720000C0140930D0150930E0194C080910B0168
:1017300090910C01A0910D01B0910E014091070113
:10174000509108016091090170910A018417950771
:10175000A607B707A1F40296A11DB11D80930B0146
:1017600090930C01A0930D01B0930E01809307019B
:1017700090930801A0930901B0930A016BC04093B4
:101780000B0150930C0160930D0170930E0162C028
:1017900010910201143060F00E947836115023E05D
:1017A00030E040E050E00E94E536161B1093020145
:1017B0001092E3014FC080910F0190911001A09110
:1017C0001101B09112018093E4019093E501A0937F
:1017D000E601B093E7013EC082E3809386053AC0FC
:1017E00082E38093E30136C081E08093BE0132C082
:1017F00045EFC42E43E0D42E1A821982E981FA8182
:10180000EC0DFD1D8081882321F06981812F0E94CC
:10181000881B29813A812F5F3F4F3A8329832830E3
:10182000310561F738E0C30ED11C1F5F153121F778
:1018300011C08AE0809385050DC01092C0018EE131
:101840008093E00107C084E18093E20103C081E05E
:101850008093BF0141E06F2D85E084C1863009F09F
:101860008AC180918605811184C1092F10E081E031
:1018700090E0A0E0B0E00F2C04C0880F991FAA1FD1
:10188000BB1F0A94D2F72091A5013091A601822BAB
:10189000932B9093A6018093A5018B819C81875007
:1018A0009D4F9A838983DC018C9181508C938111A7
:1018B00003C0852D0E9438240B5E1E4FD8011E9652
:1018C000EC918E2F90E08C30910508F042C1FC0124
:1018D000EC59FF4F0C9476372091130130E0EBEA7E
:1018E000F2E0C1C061E084E00E946708882309F447
:1018F00036C1E82FF0E0E655FD4F808188606FC06B
:101900008091AA022091A902B8E08B9FC001112406
:10191000820F911D40E050E09C0120513109D90116
:10192000A40FB51F6EEF7FEFFB01EA0FFB1FE3551E
:10193000FB4FE081EE2339F0F0E0EC58FA4F808164
:101940008F71805880836F5F7F4F6330710561F7BF
:10195000485F5F4F4832510511F701C161E083E0F4
:101960000E946708882309F4FAC0E82FF0E0319755
:10197000FA83E983E555FD4F80818F7B80830E9448
:10198000783622E030E040E050E00E94E536672BF8
:10199000682B692B59F429813A8121523D4F3A83B2
:1019A0002983D9019C919F5F9C93D3C0E981FA81DF
:1019B000EB53FD4F12C061E084E00E94670888236A
:1019C00009F4CDC0E82FF0E03197DF01A555BD4FF8
:1019D0008C918F7B8C93E152FD4F80818F5F808350
:1019E000B8C081E00E940A0990E0FC01E555FD4F76
:1019F000208122622083FC01ED5EFC4F9081292F23
:101A00002F70892F82958F70903510F440E01CC0A4
:101A1000E82FF0E0EE0FFF1FE756FE4F41E050E0E9
:101A200060E070E0022E04C0440F551F661F771F50
:101A30000A94D2F7A081B1814A2B5B2B518340835A
:101A40009059903118F341E0622F0E94E82082EB18
:101A500091E00E944A217DC00E9490267AC085E0D4
:101A60008093E10176C0CF018B5A92408217930791
:101A70000CF075C080818F7B8193F5CFE5E7F5E0B1
:101A800081E09191911101C0282E8F5F8131C9F7BA
:101A900041E06091A9028091AA020E94690790E04A
:101AA000009709F456C00197E22DF0E0319720919C
:101AB000AA02215063E070E00E946237820FDF01CA
:101AC000AB59BA4F8C934091A9024150460FEB5A43
:101AD000FA4F4083682F8FEF820D0E94562F0E948D
:101AE000AE1937C0E5E7F5E08081882319F08F71E2
:101AF000805E8083319605E0E538F007A9F72FC0B6
:101B000081EFA82E81E0B82EE12CD12CBA82A982D7
:101B1000E981FA81808191EE980F9C3410F4805B0A
:101B2000808329813A812F5F3F4F3A8329838081C7
:101B3000882321F06D2D8E2D0E94881BD39438E0D0
:101B4000D312E6CFE39488E0A80EB11C95E1E91228
:101B5000DCCFD8011E968C91843009F45AC141E043
:101B60006F2D86E00E94E82082EB91E00E944A21DE
:101B700050C181E04CC18730C9F481E090E0A0E021
:101B8000B0E004C0880F991FAA1FBB1FFA94D2F7B8
:101B90002091A7013091A801822B932B9093A8014B
:101BA0008093A701852D0E94A00833C1883009F0D9
:101BB00030C181E090E0A0E0B0E00F2C04C0880FBD
:101BC000991FAA1FBB1F0A94D2F72091A901309137
:101BD000AA01822B932B9093AA018093A9010B81D8
:101BE0001C8101521D4F1A830983D8018C9118164C
:101BF0001CF481508C9302C019E0F12E0E945629EA
:101C000064E10E940608FC0197FF02C0E150FF4F0B
:101C1000FF2309F4FEC060E071E00E94623765E1D5
:101C200070E00E946237262F482F6F2F8F2D0E9461
:101C30003A22EFC0113009F056C08091E1018111C4
:101C4000EFC00B811C8105551D4F5801D8018C91A7
:101C50000B811C810D5E1C4F84FF09C0F80190812F
:101C600020ED290F2031A8F59F70943090F186FF68
:101C700005C0D8019C9190539031A8F00E9456293C
:101C8000F82E61E083E00E946708882309F4CCC045
:101C9000E82FF0E0EE5EFC4F80818F70833009F01A
:101CA000C3C064E1C4C08260D5018C9361E083E06D
:101CB0000E946708882339F0E82FF0E0E655FD4FD1
:101CC00080818F7E8083F50180818061808389E0BF
:101CD00001C08CE00E94AD1B0E94C71B0E94F5262C
:101CE0000E9475235EC2123009F01ACC8091E10186
:101CF000811196C0EB81FC81E555FD4FD0808D2D83
:101D00008071D4FC83C0EB81FC81ED5EFC4FC08010
:101D10002C2D30E0E3E2F1E09191973021F08F5FDC
:101D20008C30D1F780E0E090A9020091AA0290E007
:101D3000805A9F4F10E0F12C2817390701F52B81AD
:101D40003C8127503D4F3A832983D9018C918150A2
:101D50008C93811103C0852D0E943824F80193E0F3
:101D6000EE0FFF1F9A95E1F7EF50FE4FEE0DFF1DAE
:101D700080816AE00E944837925490834AC083E091
:101D8000000F111F8A95E1F70B501C4F0E0D1F1D00
:101D9000F8018081882311F083E039C00E94542427
:101DA000883211F484E033C091E0980FD8019C93FD
:101DB000E82FF0E0DF01A353BC4FCC929F012B55DD
:101DC0003C4F8B819C8187509D4FDC018C91D901C8
:101DD0008C939F0123583C4F8B819C8181529D4F56
:101DE000DC018C91D9018C939F012B5A3C4F4B8184
:101DF0005C814B535D4FDA018C91D9018C93E35D8B
:101E0000FC4FD082852D0E94382403C08CE00E94B4
:101E1000AD1B0E9475230E94C71B0E94F526C1C1FD
:101E200086E10E94AD1BBDC16091020166958F2DB8
:101E30000E9406084C01F801D080D092B00181E0E8
:101E40008093AF01EB81FC81E152FD4F0081009353
:101E5000AE01EB81FC81EB53FD4FE080E092AD01E0
:101E6000D501CC90C092AC01EB81FC81E750FD4FD5
:101E7000808181508083811103C0852D0E94382488
:101E8000C40197FE02C081509F4F9983F92FFF0F25
:101E9000FF0BFA83B92EC40160E071E00E94623743
:101EA00065E170E00E946237F62E182FB11003C072
:101EB00021E04D2DC5C080ED8D0D803150F4ED2D0C
:101EC000EF70F0E0EE0FFF1FEC5AFD4FE4910E0FA4
:101ED00001C001E00E94783624E630E040E050E0A6
:101EE0000E94E536E62E90911401990F985DD02E50
:101EF000DD0CD00ED90E61E083E00E946708E82F68
:101F0000F0E0EE5EFC4F20814091B001822F8427EB
:101F10008F7009F49AC0453321F42F70233009F4EF
:101F200094C0ED1408F084C0EE24EA94EB0C8E2DDE
:101F30000E942B06D090B00180ED8D0D803160F4B1
:101F4000ED2DEF70F0E0EE0FFF1FEB5AFD4FE49127
:101F5000C090AD01CE0E01C0C12C80EB8D0D803143
:101F600008F04DC08E2D0E942B06ED2DEF70F0E095
:101F7000EB5EFE4FE0818E2F90E08D30910508F0F2
:101F8000ABCEFC01E059FF4F0C94763709811A81E2
:101F900011270C55164F1A830983D8018C91865F3F
:101FA0002CC009811A8111270C55164F1A830983F9
:101FB000D8018C91869521C009811A8111270C586E
:101FC0001A4F1A830983D8018C918F71805C15C0D8
:101FD00009811A81112704561B4F1A830983D801DE
:101FE0008C9180620AC009811A81112704561B4F07
:101FF0001A830983D8018C9180688C936DCE80E818
:102000008D0D803160F50E94783624E030E040E0AC
:1020100050E00E94E536672B682B692B01F1809117
:10202000B0012F2D412F6B2D8F700E943A2254CE7C
:10203000C090AC01E090AD010091AE012091AF01E4
:102040006F2D812F0E94602447CEB4E0DB9EC0013B
:10205000112463E070E00E946237D62E62CF809137
:10206000B0018053803108F04AC0202F002E000CB0
:10207000330BAC2DCC0CBB0B0E947C379B01AC010D
:10208000602F000F770B880B990B0E94D22A4B010F
:102090005C01909102018091AB01890F0E94C622E0
:1020A000880C991CAA1CBB1C282F30E0C901880F82
:1020B000991F092E000CAA0BBB0B880D991DAA1D98
:1020C000BB1D4091C501042E000C550B660B770B10
:1020D000840F951FA61FB71F20911401820F911D19
:1020E000A11DB11DBC01CD016F5F7F4F8F4F9F4F71
:1020F00022E030E040E050E00E94E5361FC09091C1
:1021000002018091AB01890F0E94C622282F30E086
:1021100021503109220F331F8091C501280F311D35
:1021200087FD3A9580911401280F311D2F5F3F4F95
:1021300037FF02C02F5F3F4F35952795D22E61E0C4
:1021400083E00E946708E82FF0E0EE5EFC4F80819C
:102150002091B001982F92279F70A9F0253319F490
:102160008F70833081F0E981FA81FF27EC58FA4FB4
:1021700060816295669567700F2D212F4D2D8E2DF4
:102180000E94B906A9CDED2DF4E0EF02C0011124A3
:1021900063E070E00E946237D62EE5CF863009F00A
:1021A00053C8852D0F900F900F900F90DF91CF9116
:1021B0001F910F91FF90EF90DF90CF90BF90AF9065
:1021C0009F908F907F906F905F904F903F902F9057
:1021D0000895CF9380919A0580939B050E94852D49
:1021E00080939A0580E20E94B929C82F80E80E9456
:1021F000B9298111C2E080E40E94B9298111C3E0AC
:1022000080E10E94B9298111C4E088E00E94B929C7
:102210008111C5E084E00E94B929811103C0CC235B
:10222000C9F201C0C6E00E94A51B8C2FCF91089572
:10223000262F90E0A0E0B0E040910B0150910C01FE
:1022400060910D0170910E0184179507A607B707DD
:1022500034F02093DF0182E08093DE010895481B73
:10226000590B6A0B7B0B40930B0150930C0160934D
:102270000D0170930E0108952F923F924F925F923D
:102280006F927F928F929F92AF92BF92CF92DF9286
:10229000EF92FF920F931F93CF93DF93CDB7DEB7EB
:1022A000A8970FB6F894DEBF0FBECDBF21EFA22EC8
:1022B00021E0B22EC50120E030E0FC01E20FF31F67
:1022C00010822F5F3F4F28303105B9F7089622E082
:1022D0008939920781F71D8A1E8A1F8A188E198AEA
:1022E0001A8A1B8A1C8A1D861E861F86188A1986D2
:1022F0001A861B861C8688E0E6E5F1E0DE01119671
:1023000001900D928A95E1F71092EC011092ED0187
:102310001092EE011092EF0180914D01853008F48A
:1023200067C20E94783624E130E040E050E00E942D
:10233000E536672B682B692B09F05AC281E0809340
:10234000F0018093EC018093A50280939D0283E1CC
:102350008093A10286E08093990280E00E94592533
:102360008091F001811129C01CEEE12E11E0F12EC7
:102370001FE103E0402E512C612C712C86E0882E49
:10238000912CA12CB12CF70181917F01813059F45E
:102390000E947836A30192010E94E536672B682BD4
:1023A000692B09F45AC41F5F133269F78091F00159
:1023B0008823E9F080E090E025C010E0B6E0CB2E65
:1023C000D12CE12CF12C0E947836A70196010E94B5
:1023D000E5368FE1810FFAE06F9F800D1124682FA1
:1023E000812F0E94F5241F5F153069F7DFCF0E940F
:1023F000783622E030E040E050E00E94E536CB0144
:10240000880F991FFC01E451FE4F2081211101C06A
:1024100001966BE0680F0E94F5240E94251B0E9424
:10242000902665E7E62E65E0F62E75E6272E75E028
:10243000372E85E595E09C8F8B8FC12CD12CE3E066
:102440008E2E912CA12CB12CF2E04F2E512C612C10
:10245000712C8091F001E7E08E9FC0011124089655
:102460008C159D050CF486C00E947836A501940158
:102470000E94E536672B682B692B09F06AC08091B2
:10248000F00181110AC00E947836A30192010E94D6
:10249000E5368B01000F111F02C000E010E0F801CB
:1024A000E451FE4F8081811102C00F5F1F4FF80180
:1024B000EB55FD4F2081298FF801EF55FD4F6081CD
:1024C000062E000C770B621B710927FD73956F5F59
:1024D0007F4F072E000C880B990B0E94B82A898D1C
:1024E000680FF1016083F801E356FD4F2081298FC9
:1024F000F801E756FD4F6081062E000C770B621B3A
:10250000710927FD73956F5F7F4F072E000C880BB5
:10251000990B0E94B82A498D460FEB8DFC8D4083A4
:10252000F10160818091AA02681799F08091A90257
:10253000481779F028E0629FF0011124E355FB4F22
:10254000E40FF11D8081811104C08C2D0E94562F53
:1025500002C0F7011082FFEFCF1ADF0A2FEFE21A55
:10256000F20A8FEF281A380AEB8DFC8D3196FC8F1A
:10257000EB8F6FCF8CEE91E09C8F8B8F21EA622ED8
:1025800022E0722E35EA432E32E0532EE9E9F2E0E2
:10259000FA8FE98F4DE9242E42E0342E81017F012C
:1025A000620153019E8F8D8FED8DFE8D8191FE8F87
:1025B000ED8F8130E9F5812C912C8091F001F7E0CD
:1025C0008F9FC00111240296881599058CF1F501A1
:1025D0002081022E000C330B2F5F3F4F032E000C87
:1025E000440B550BF6016081062E000C770B880B0F
:1025F000990B0E94D22A6F8FF7012081022E000CC6
:10260000330B2F5F3F4F032E000C440B550BF8018B
:102610006081062E000C770B880B990B0E94D22A42
:1026200040E08F8D0E948D2DFFEF8F1A9F0AC5CF3E
:102630002FEFA21AB20A8FEFC81AD80A9FEFE91A31
:10264000F90A0F5F1F4FED8DFE8DE05FF14009F03D
:10265000ABCF80914D0163E00E9448379923D9F0B8
:1026600090914D0180910101981708F04AC006C36E
:10267000FFEF6F1A7F0A2FEF421A520A898D9A8D47
:1026800001969A8F898F9FEF291A390AEB8DFC8D5D
:10269000E05FF14029F3EB8DFC8D8191FC8FEB8F96
:1026A000813031F7F3012081022E000C330B2F5FB4
:1026B0003F4F032E000C440B550BF2016081062E98
:1026C000000C770B880B990B0E94D22A162FE98DEC
:1026D000FA8D2081022E000C330B2F5F3F4F032E0B
:1026E000000C440B550BF1016081062E000C770B9A
:1026F000880B990B0E94D22A42E0812F0E948D2DD7
:10270000B7CFE0911301F0E0EE5EFC4F808180399D
:1027100009F4B4C28091F00181110AC00E94783698
:1027200022E030E040E050E00E94E536660F01C054
:1027300060E0E62FF0E0E451FE4F8081811101C09E
:102740006F5F062F10E0F801EB55FD4FF080F801A8
:10275000EF55FD4F6081062E000C770B6F19710944
:10276000F7FC73956F5F7F4F072E000C880B990B5A
:102770000E94B82AF60EF801E356FD4FE080F801FA
:10278000E756FD4F6081062E000C770B6E1971091C
:10279000E7FC73956F5F7F4F072E000C880B990B3A
:1027A0000E94B82AE60E0E94542498E0F99EF00197
:1027B0001124EB50FC4FEE0DF11D91E0980F90832A
:1027C00090E0FC01E353FC4F20E92083FC01EB5532
:1027D000FC4F21E02083FC01E358FC4F1082FC01F8
:1027E000EB5AFC4F1082FC01E35DFC4F108246C2A5
:1027F0001092F0010E94783627E030E040E050E08F
:102800000E94E5368B01095F1F4F0E94783622E057
:1028100030E040E050E00E94E5366D5F7F4F8FEF83
:10282000800F8D8769876230710519F091E0909370
:10283000EC0191E0960F9A8B8E8787E08A8764304F
:10284000710519F081E08093ED016330710531F479
:102850001A821982EE24E394F12C02C0E12CF12CAF
:102860000E94783622E030E040E050E00E94E536F9
:102870006D5F7F4F81E0800F8F8B94E19F876B8727
:102880006230710519F091E09093EE01888F81E03C
:10289000860F8C8B84E1888B87E08C876430710590
:1028A00019F081E08093EF016330710529F41886F7
:1028B0001F8282E0E80EF11CECEEF1E0F8A7EFA336
:1028C0003E01F5E16F0E711C85EA92E09A8F898FC7
:1028D000FE017196FE8FED8F8DE992E098A38F8FA8
:1028E0003497FAA3E9A381EA92E09CA38BA34E015B
:1028F00099E0890E911CE9E9F2E0FEA3EDA38CEECC
:1029000091E09C8F8B8F83E0282E312C412C512C11
:10291000EB8DFC8D8191FC8FEB8F813041F5F301C4
:10292000D0800E947836A20191010E94E536D394AE
:102930006D0DE98DFA8D6083ED8DFE8D80818F5F49
:10294000EF8DF8A18083E9A1FAA1D0800E947836AA
:10295000DA94A20191010E94E536D61AEBA1FCA1FE
:10296000D082F40180818150EDA1FEA18083FFEF30
:102970006F1A7F0A898D9A8D01969A8F898FED8DB6
:10298000FE8D3196FE8FED8F8F8D98A1019698A3C5
:102990008F8FE9A1FAA13196FAA3E9A38BA19CA19B
:1029A00001969CA38BA39FEF891A990AEDA1FEA122
:1029B0003196FEA3EDA38B8D9C8D805F914009F035
:1029C000A7CFE114F10469F40E94783622E030E0E8
:1029D00040E050E00E94E536672B682B692B09F434
:1029E00029C184E190E0801B910B95958795800F1C
:1029F00061E0680F980135952795922FF90153E012
:102A0000EE0FFF1F5A95E1F7EF50FE4FDF01A901CE
:102A100070E06894DD24D3F864177507B4F011965C
:102A2000DC9211971296DC9212971396DC92139710
:102A30001496DC9214971596DC9215971696DC92F4
:102A400016974F5F5F4F1896E7CF49815A81452B04
:102A5000B9F4DF01A901C82ED12CC416D50684F023
:102A600012961C92129713961C92139714961C920E
:102A7000149715961C9215974F5F5F4F1896EDCFE0
:102A80004B815C81452B21F541E0490F50E0DA0193
:102A9000AA0FBB1FAA0FBB1FAA0FBB1FAF50BE4F71
:102AA000C82ED12CC416D5069CF011961C921197F5
:102AB00012961C92129713961C92139714961C92BE
:102AC000149715961C9215974F5F5F4F1896EACF93
:102AD0004D815E81452B79F44FEF480F50E042174E
:102AE00053074CF0128213821482158216822F5FD4
:102AF0003F4F3896F4CF2F8138859F5F232BA9F461
:102B0000292F30E0F901A3E0EE0FFF1FAA95E1F7AE
:102B1000EF50FE4F6217730744F012821382148243
:102B200015822F5F3F4F3896F5CF292F30E0F901FE
:102B300063E0EE0FFF1F6A95E1F7EF50FE4F90E064
:102B40008217930744F012821382148215822F5F3A
:102B50003F4F3896F5CFD12CEFA1F8A58191F8A77A
:102B6000EFA3813019F48D2D0E945925D394F4E000
:102B7000DF12F2CF23E0E216F10441F045E0442EEB
:102B8000512C612C712C54EED52E10C033E0000F67
:102B9000111F3A95E1F7F801EF50FE4F88E081836D
:102BA00082838383848385838683E8CF8501E12CB8
:102BB000F12CF8018081883059F40E947836A30105
:102BC00092010E94E536672B682B692B09F442C0FD
:102BD000FFEFEF1AFF0A0F5F1F4F28E0E216F10424
:102BE00041F788E0A80EB11C99E9A91692E0B90650
:102BF000E9F60AEB11E09EEBE92E91E0F92E25E0D3
:102C0000822E912CA12CB12CDD24D3940E947836F5
:102C1000A50194010E94E536F801672B682B692B0A
:102C200011F4D08201C010820F5F1F4FE016F10631
:102C300069F796CB0E94783624E030E040E050E01F
:102C40000E94E536660F771FFE01E60FF71F12821E
:102C50001182C7CEF801D082BBCF0E947836A50181
:102C600094010E94E536212FFAE06F9F200D112478
:102C7000622F81EE810F0E94F52495CBA8960FB6A6
:102C8000F894DEBF0FBECDBFDF91CF911F910F91A2
:102C9000FF90EF90DF90CF90BF90AF909F908F907C
:102CA0007F906F905F904F903F902F9008954F923C
:102CB0005F926F927F928F929F92AF92BF92CF92CC
:102CC000DF92EF92FF920F931F93CF93DF93909138
:102CD0008505992351F00E94783624E030E040E0E9
:102CE00050E00E94E53681E0860F9091E10191115C
:102CF00014C0282F30E0E901229781708C9FC02DED
:102D00001124C901019762E070E00E9462372350EC
:102D10003109829FD02C112402C0D12CC0E0109226
:102D2000B1018091AA026C2F0C2E000C770B680F5A
:102D3000711D0091A9022D2D0D2C000C330B200FBD
:102D4000311DAB01B3E0440F551FBA95E1F7FA010D
:102D5000E355FB4FE20FF31FD081D111D2C12830D0
:102D6000310508F068C26531710508F064C24F5042
:102D70005E4FFA01E20FF31F90819150983C08F0EA
:102D80005AC29091C001911106C0C80FC093AA0207
:102D90000D0D0093A9020E94A51B8091E0018111F5
:102DA0004AC26090AA024090A902512C88E0689E15
:102DB00030011124F301EB50FC4FE40DF51DE081CF
:102DC000E11103C00E94A51B05C1F0E0E453FC4FD4
:102DD0006081862F82958F706F70893028F48530DE
:102DE00030F48130B0F014C0893091F012C0E82F77
:102DF000F0E0EE0FFF1FE756FE4F20813181062ED7
:102E000002C0369527950A94E2F7122F117001C07F
:102E100010E0412F0E94E82082EB91E00E944A21BD
:102E2000E301CB50DC4FC40DD51D8881282F30E045
:102E300021503109F901E353FC4F9081F9019031A0
:102E4000E1F4EB55FC4F90814091C1015091C201DA
:102E50006091C3017091C401490F511D611D711D25
:102E60004093C1015093C2016093C3017093C401A8
:102E700081500E94C0281882ADC0E35DFC4F808164
:102E800087FD09C0209113012A3109F064C082E056
:102E90000E94AD1B9FC06FEDA62E62E0B62E75ECB2
:102EA000C72E72E0D72EEBEAEE2EE2E0FE2E09EFFF
:102EB00012E0F3E18F2EF3E09F2E50E0809113019A
:102EC00090E0940123513340281739070CF040C09B
:102ED000D4013D914D014881842F90E00197FC0180
:102EE000E353FC4F2081321327C0F5013081FC01F0
:102EF000E358FC4F208132131FC0D6013C91FC01E6
:102F0000EB5AFC4F2081321317C0F7016081FC019E
:102F1000E35DFC4F2081262726FD0EC0FC01EB550A
:102F2000FC4FD8012C918081820F8C938FEF840FFE
:102F30000E94C028188251E0BFEFAB1ABB0AEFEF26
:102F4000CE1ADE0AFFEFEF1AFF0A0F5F1F4FB6CF50
:102F5000511140C097CF30E0C3018B509C4FEC0122
:102F6000C40DD51D8881482F50E041505109F90109
:102F7000ED5EFC4FDA01A353BC4F9C919083F901A5
:102F8000E750FD4FDA01AB55BC4F9C919083F9019E
:102F9000E152FD4FDA01A358BC4F9C919083F90197
:102FA000EB53FD4FDA01AB5ABC4F9C919083F90172
:102FB000E555FD4FDA01A35DBC4F9C919083815094
:102FC0000E94C0281882809113018F5F80931301A3
:102FD0000E9475232091AA028091A90290E048E006
:102FE000249F90011124F901EF50FE4FE80FF91FC3
:102FF000408151EE540F5C3410F4405B40832F50FD
:103000003E4FF901E80FF91F808191E9980F9C3438
:1030100008F011C16AE00E94483715EF180F0E94AE
:10302000783622E030E040E050E00E94E536672B41
:10303000682B692BB9F40E948606123051F128F4EE
:10304000112349F01130B9F00DC0143069F148F185
:103050001530B1F107C090914D019F5F90934D01E4
:103060000E943C11A5EBB9E0E8E01E9FC0011124CD
:1030700020E030E035C00E94783623E030E040E0C8
:1030800050E00E94E536862F62E08F5F0E941811A3
:10309000E9CF8091E1018111E5CF85E08093E101E5
:1030A000E1CF0E949026DECFC0910201C43008F02B
:1030B000E0C085E00E947E08882309F4DAC0D2CF00
:1030C00061E084E00E946708882361F2C82FD0E0A5
:1030D0002197FE01E555FD4F808183FFCEC0C2CF11
:1030E000F901E80FF91FE555FD4FE491ED932F5FCE
:1030F0003F4F28303105A1F78DE791E00E944A212A
:103100009AC0ED2FF0E0EC58FA4F10810E94A51BF9
:103110000E94783624E630E040E050E00E94E53638
:10312000062F61E083E00E946708882301F190E0A8
:103130000197FC01ED5EFC4F20812F7030E0F9011A
:10314000EE0FFF1FEC5AFD4FE491DC01A152BD4F81
:10315000EC90EE0EF901EE0FFF1FEA5AFD4FE491DD
:10316000DC01AB53BD4F9C91FE2EF90E02C0F12C39
:10317000E12C80911401880F885D9E2D990F9E0D82
:10318000890F081708F057C0D1508D2F0E942B06C9
:10319000EF9CF00111249F01FF0F440B550B6E2D86
:1031A00070E080E090E00E94D22A4B015C01909197
:1031B00002018091AB01890F0E94C622282F009145
:1031C000A9020D0D8091AA02C80FB501A401440FF8
:1031D000551F661F771F30E0C901880F991F092E00
:1031E000000CAA0BBB0B840F951FA61FB71F4091A5
:1031F000C501042E000C550B660B770B840F951F31
:10320000A61FB71F20911401820F911DA11DB11D92
:10321000BC01CD016F5F7F4F8F4F9F4F22E030E0A9
:1032200040E050E00E94E536422F612F6F712C2F55
:103230008D2F0E94B9060E94F2220E94F5268091ED
:10324000E201882321F08091E80180FD21C0DF9117
:10325000CF911F910F91FF90EF90DF90CF90BF9093
:10326000AF909F908F907F906F905F904F900C9455
:10327000C71BC150C0930201F5CE89E00E947E08B1
:103280008111F0CEC152DD4F988191509883EACEE2
:10329000DF91CF911F910F91FF90EF90DF90CF9032
:1032A000BF90AF909F908F907F906F905F904F9066
:1032B0000895CF93DF93C82FD0E0FE01E356FB4F74
:1032C000808186FF09C088E00E947E08811104C0C9
:1032D0008091BF01813081F58091E301CB58DA4FB5
:1032E0008823D1F088818056803260F40E9478363D
:1032F00029E030E040E050E00E94E536FB01E6596D
:10330000F84F15C00E9478362AE130E040E050E0E6
:103310000E94E536FB0109C0E88180EA8E0F803209
:1033200010F48AE205C0EF71F0E0E75BF84F84919A
:10333000DF91CF910C94C429DF91CF910895982FFC
:10334000990F890F880F8F5FEBE8F5E08583848301
:10335000660F660F660F615066830895CF92DF9205
:10336000EF92FF920F931F93CF93DF9395E7E92E90
:1033700095E0F92E05E515E0C5E6D5E0D12C2AE06B
:10338000C22EF70181917F01803208F45EC08091E6
:10339000BE01811150C0E091AA028091A90298E07B
:1033A000E99FF0011124EF50FE4FE80FF11D20813D
:1033B000822F6C2D0E944837A92FE92FF0E0E754A7
:1033C000FE4F808181111DC02830D9F0288130E066
:1033D000F801408150E0F90183E0EE0FFF1F8A956C
:1033E000E1F7EF50FE4FE40FF51F80810E94483750
:1033F000A91307C0BA01C9010E949F198D2D0E940F
:103400005919888190E02091AA0230E0281B390BDD
:103410002F5F3F4F23303105C0F4F801608170E029
:103420002091A90230E0261B370B2F5F3F4F23303E
:10343000310558F405C0F801608170E0888190E0A2
:103440000E949F198D2D0E9459190F5F1F4F2196C1
:10345000D394F0E1DF1295CFDF91CF911F910F91BF
:10346000FF90EF90DF90CF9008950F931F93CF932D
:10347000DF9380918605882379F06091A90270E03E
:103480008091AA0290E00E949F1980E4DF91CF9181
:103490001F910F910C94C429C0E0D0E000E010E02F
:1034A0008091AA029E01280F311DC9010197209128
:1034B000A902B801620F711D61507109FC0123E07E
:1034C000EE0FFF1F2A95E1F7EF50FE4FE60FF71FB3
:1034D00020812150263028F40E949F198EE20E94FC
:1034E000C4290F5F1F4F03301105D1F62196C33059
:1034F000D105A1F6C2CFAF92BF92CF92DF92EF92E9
:10350000FF920F931F93CF93DF9301EF11E0C0E081
:10351000D0E08AE0B82EEC2EE694E694E69488E0BB
:10352000E89E70011124C12CD12C9C2F9770A92EDC
:10353000B601CE010E949F19F601EE0DFF1DEA5360
:10354000FE4F808190E00A2C02C0959587950A94E1
:10355000E2F780FF4FC0F801EC0DFD1D2081222312
:1035600009F448C08FEF820F863020F081EE820F81
:103570008C34F8F4E091AA028091A90298E0E99FC6
:10358000F0011124EF50FE4FE80FF11D80816B2DEB
:103590000E944837392FE92FF0E0E754FE4F808131
:1035A000811107C0822F0E944837391323C08EE251
:1035B00030C0283009F185EF820F8630F8F08BEEAD
:1035C000820F8630E8F081E9820F8C34D8F081E4F4
:1035D000820F8830C8F087E3820F8630B8F08DE222
:1035E000820F8630A8F083E2820F863078F0275E63
:1035F000263070F080E20DC083E20BC085E209C086
:103600008BE207C08FE505C08FE303C086E201C0EF
:103610008CE70E94C4298FEFC81AD80A98E0C9160F
:10362000D10409F085CF2196085F1F4FC531D10520
:1036300009F071CFDF91CF911F910F91FF90EF9023
:10364000DF90CF90BF90AF900895CF93DF932DEA96
:1036500034E045EF53E080E090E0F901E80FF91F16
:103660001082FA01E80FF91F108201968830910547
:10367000A1F7285F3F4F485F5F4F85E0253538074A
:1036800051F786EC91E020E030E0FC01E20FF31FFF
:1036900010822F5F3F4F28303105B9F70896A1E01F
:1036A0008E3D9A0781F7EDECF3E025EA33E08DE7F4
:1036B00093E0C5E5D3E06DE273E01192D9011D926C
:1036C0009D01DC011D92CD011992DB011D92BD010E
:1036D000B3E0E53FFB0789F7E5E6F5E025E535E0F2
:1036E00085E795E0C5EAD9E06DE974E01192D9016A
:1036F0001D929D01DC011D92CD011992DB011D92ED
:10370000BD01B5E0E537FB0789F7DF91CF9108955B
:10371000E82FE695E695E69598E0E99FF0011124FB
:10372000EA53FE4FE60FF11D282F277081E090E04D
:10373000A0E0B0E004C0880F991FAA1FBB1F2A9504
:10374000D2F72081822B80830895E5EBF9E0119276
:1037500089E0EB3CF807D9F70895CF93C82F0E9472
:10376000A51BA5EBB9E02AE0C29FC001112420E00F
:1037700030E0F901E80FF91FED59F94FE491ED93AD
:103780002F5F3F4F2A303105A1F7CF9108952F9237
:103790003F924F925F926F927F928F929F92AF92E1
:1037A000BF92CF92DF92EF92FF920F931F93CF932E
:1037B000DF93CDB7DEB72B970FB6F894DEBF0FBE01
:1037C000CDBF05E715E025E635E03E832D8345E5D1
:1037D00055E05A8349838DE994E09C838B83D12CF7
:1037E00095E0892E912CA12CB12CD8018C918111BE
:1037F0008FC00E94783620E830E040E050E00E9420
:10380000E536672B682B692B09F03CC3E091AA02CF
:103810008091A902B8E0EB9FF0011124EF50FE4F18
:10382000E80FF11D80819091F00191111DC090E091
:1038300001976AE070E00E9462379C0162E070E0EC
:103840000E946237281B390B37FF02C02F5F3F4FA2
:1038500035952795C901019662E070E00E946237B4
:103860007C01EE0CFF1C02C0E12CF12CF701E451AD
:10387000FE4F8081811103C0EFEFEE1AFE0AF701BF
:10388000EB55FD4FC080F701EF55FD4F6081062ECF
:10389000000C770B6C197109C7FC73956F5F7F4F34
:1038A000072E000C880B990B0E94B82AC60EAD811A
:1038B000BE81CC92F701E356FD4FC080F701E75679
:1038C000FD4F6081062E000C770B6C197109C7FC47
:1038D00073956F5F7F4F072E000C880B990B0E942A
:1038E000B82A4C2D460FE981FA814083AD81BE8113
:1038F0006C91B8E06B9FF0011124E355FB4FE40F8E
:10390000F11D80818111BEC28D2D0E94562FBAC239
:10391000EB81FC819081892F881F8827881F8F5F0A
:1039200092FF04C09091E80190FDACC2212C312C93
:10393000282F30E039872887488559852416350691
:103940000CF0A0C2D8018C9190EC980F903A08F43A
:103950007FC08F718531E1F5E091AA028091A902C3
:10396000B8E0EB9FF0011124EF50FE4FE80FF11D7E
:103970002081283009F4B6C2AD81BE81EC91A981C5
:10398000BA818C91B8E0EB9FF0011124EF50FE4F0B
:10399000E80FF11D8081AAE0FA2E6F2D0E944837B2
:1039A000392F822F0E94483739139CC2EB81FC814A
:1039B000808183FF97C20E94860682E10E94AD1B30
:1039C000F0928505AB81BC818C91877F8C9344C03C
:1039D000893109F087C2FF24F394E12C65E08F2D33
:1039E0000E94060897FF02C081509F4F892F990FB0
:1039F000990BFC01EC58FA4F80818F71893109F4E1
:103A0000E394F394B5E0FB12E9CFEE2009F46AC227
:103A10000E94783622E030E040E050E00E94E53637
:103A2000672B682B692B09F05DC20E94860683E133
:103A30000E94AD1B0E9478362AE030E040E050E062
:103A40000E94E536862F63E0865F0E94181104C04D
:103A5000E5E0F0E0FB87EA87AB81BC818C9185FFD4
:103A60000DC00E94783623E030E040E050E00E9434
:103A7000E536672B682B692B09F4EEC22A853B8556
:103A8000215031092430310508F0F8C14A855B85A1
:103A9000417055278A859B850297849FC02C1124ED
:103AA000217033278A859B850397289F902D1124A9
:103AB000ED81FE818081682F70E09B012C0D311D0E
:103AC000C7FC3A95E091AA02F0E02E173F0709F0F3
:103AD00089C1A981BA815C91A92F092E000CBB0B69
:103AE000A50FB11DE091A902F0E0AE17BF0709F0E4
:103AF00079C12114310409F0C1C1D801EC91EF71F1
:103B0000CE2EB7E0EB9FF00111249F012259364FD2
:103B10007901F9013396749080911401880F781A15
:103B20008091C501880F781A0E94783624E630E02B
:103B300040E050E00E94E536662E61E084E00E949D
:103B40006708882391F090E00197FC01ED5EFC4F3F
:103B5000E081EF70F0E0ED59F84FE491DC01A15203
:103B6000BD4F8C91E80FEF8301C01F82671408F0EE
:103B700085C1F701329624913197E49130E040E01D
:103B800050E06E2F70E080E090E00E94D22A2B017E
:103B90003C010E9486063F814DEF4303D001112472
:103BA000AC59BF4FA30192010E940F3724E630E0C9
:103BB00040E050E00E94E536822F64E06C0D0E94E8
:103BC0001811AB81BC818C9183FF58C18C2D90E082
:103BD000FC013597E231F10508F050C1E358FF4F81
:103BE0000C9476370E947836A50194010E94E53640
:103BF000672B682B692B09F041C18DE00E94AD1B3A
:103C00000E947836A50194010E94E5366C5F6093AE
:103C1000E1010E94783624E130E040E050E00E946B
:103C2000E536672B682B692B09F0CFC261E08091E4
:103C30000B010E941811C9C280910201843008F062
:103C400018C285E00E947E08882309F412C216C1BA
:103C50008091C1019091C201A091C301B091C401B2
:103C6000C397A105B1050CF409C10E9478362AE07A
:103C700030E040E050E00E94E536672B682B692B6E
:103C800009F00BC2FBC061E084E00E946708882352
:103C900009F4F4C0E82EF12CB1E0EB1AF108F701B9
:103CA000E555FD4F808183FF1CC2E8C00E94783635
:103CB00022E030E040E050E00E94E536672B682BC0
:103CC000692B09F0DBC00E94783624E130E040E047
:103CD00050E00E94E536F62EE62FF0E0E555FD4F68
:103CE000808184FDCBC08FE00E94AD1B8F2D0E9490
:103CF0003824F80180818054808367C28091E0017C
:103D00008111BCC081E10E94AD1B81E08093C001A4
:103D10005CC280911401863008F4B0C00E947836ED
:103D2000A50194010E94E536672B682B692B09F4E5
:103D3000E6C1A4C00E9478362AE030E040E050E0BE
:103D40000E94E53664307105810591050CF096C03E
:103D500085E10E94AD1B0E94783623E030E040E010
:103D600050E00E94E536F62E60FF2DC080910B01D9
:103D700090910C01A0910D01B0910E018A30910536
:103D8000A105B1050CF421C20197A109B1098093E5
:103D90000B0190930C01A0930D01B0930E01809143
:103DA000070190910801A0910901B0910A010197C2
:103DB000A109B1098093070190930801A09309011B
:103DC000B0930A0102C285E00E947E089091020130
:103DD000882309F4F6C1963008F0F3C1FF2009F4F6
:103DE000F4C1C4CFD8015C915F715F3009F446C063
:103DF0002531310508F042C0E981FA817080472CF5
:103E0000512CF201E90FF11D97FDFA95E830F1050B
:103E1000A8F543E0220F331F4A95E1F7A901435566
:103E20005B4F7A01EE0EFF1ED701FC90F11026C009
:103E30002F503E4FE20FF31F208121502E3BF0F414
:103E400023E0660F771F2A95E1F763557B4FD20178
:103E5000A60FB71F1C928C0DED81FE818083970DFC
:103E6000A981BA819C93B8E08B9FF0011124E3559E
:103E7000FB4FE90FF11D81E08D0D8083EFEF2E1ACE
:103E80003E0A5ACD0F5F1F4FD3942D813E812F5F85
:103E90003F4F3E832D8349815A814F5F5F4F5A8345
:103EA00049838B819C8101969C838B8390E1D912FD
:103EB0009CCC2B960FB6F894DEBF0FBECDBFDF9122
:103EC000CF911F910F91FF90EF90DF90CF90BF9017
:103ED000AF909F908F907F906F905F904F903F90AA
:103EE0002F900895D8018C91805E803210F091E07F
:103EF00001C09FEFED81FE818081F091AA02FF83D6
:103F0000F81738F5692F092E000C770B282F30E0B1
:103F1000261B370BA981BA814C9150E0E3E0220FB8
:103F2000331FEA95E1F7F901E355FB4FE40FF51F65
:103F3000E081E1110EC02F503E4FF901E40FF51F53
:103F4000208121502E3B28F4E2E0F0E0E61BF70B45
:103F500081CDA981BA814C915091A902541720F5C5
:103F6000A92F092E000CBB0B242F30E02A1B3B0B82
:103F7000E8E08E9FB0011124FB01E355FB4FE20FF7
:103F8000F31FE081E11110C06F507E4FFB01E20F83
:103F9000F31F208121502E3B38F423E030E02A1B10
:103FA0003B0B3B872A8758CD3F81831720F5A92FEC
:103FB000092E000CBB0BBB87AA879D01280F311D62
:103FC000E42FF0E063E0220F331F6A95E1F7D90197
:103FD000A355BB4FAE0FBF1F6C9161110CC02F508A
:103FE0003E4FE20FF31F208121502E3B20F4EA8543
:103FF000FB8532962FCD451710F5292F990F330BDE
:104000003B872A87240F311D48E0849FC00111247B
:10401000FC01E355FB4FE20FF31F408141110FC03C
:104020008F509E4FFC01E20FF31F808181508E3B29
:1040300030F48A859B8503969B878A870DCD0E94E5
:10404000783624E030E040E050E00E94E536DB01C5
:104050001196BB87AA8700CD0E94783624E030E015
:1040600040E050E00E94E536FB013196FB87EA878D
:1040700005CD0E947836A50194010E94E536672B94
:10408000682B692B09F0FACE8EE00E94AD1B80915F
:10409000020181508093020198C08FE00E94AD1B05
:1040A0004090C1015090C2016090C3017090C40162
:1040B0000E94783622E330E040E050E00E94E5368E
:1040C000461A570A680A790A4092C1015092C20101
:1040D0006092C3017092C401D8018C9180548C937A
:1040E00074C089E00E947E088111C8CE80E10E94E0
:1040F000AD1BF701E152FD4F80818150FDCD84E180
:104100000E94AD1B60910F0170911001809111010F
:104110009091120122E030E040E050E00E94E5364C
:1041200020930F013093100140931101509312011D
:10413000DA01C9010197A109B1098093E4019093C3
:10414000E501A093E601B093E7018091140181504D
:10415000809314014090070150900801609009017C
:1041600070900A01B3E04B1A5108610871080E946F
:10417000783627E030E040E050E00E94E536461A0D
:10418000570A680A790A4092070150920801609222
:10419000090170920A0180910B0190910C01A0918C
:1041A0000D01B0910E01481659066A067B066CF4A3
:1041B00040920B0150920C0160920D0170920E0121
:1041C00004C091509093020109CE0E94860656CEFB
:1041D000CF93DF93CDB7DEB72D970FB6F894DEBF40
:1041E0000FBECDBF9DE0EEE5F1E0DE01119601903E
:1041F0000D929A95E1F790E070E0FE01E80FF91F4B
:10420000411118C08081680F711D33E0660F771F60
:104210003A95E1F765527D4FA2EBB1E080E090E086
:10422000FB01E80FF91FE491ED93019688309105A9
:10423000B9F727C0458105975EE0589F9001599FC7
:10424000300D1124C9018B5E9E4FFC01E60FF71F54
:10425000808190E0840F911D23E0880F991F2A959B
:10426000E1F785529D4FA2EBB1E020E030E0FC0188
:10427000E20FF31FE491ED932F5F3F4F283031059C
:10428000B1F72D960FB6F894DEBF0FBECDBFDF910C
:10429000CF910895DC0190E0692F70E0FB01EB54B1
:1042A000F64F8081882349F09F5FF6CF963178F4EE
:1042B000F901EB54F64F40839F5F292F30E0F9015D
:1042C000E61BF70BEA0FFB1F40814111EFCF109265
:1042D000CA0908950F931F93CF93DF932091AA02E9
:1042E0008091A90290E048E0249F90011124DC0114
:1042F000A20FB31F60E070E01997A901485051095F
:104300009C012F5F3F4F98E06831710561F1FD011D
:10431000E60FF71FEF50FE4FEA01C60FD71FCF5031
:10432000DE4F8F010C1B1D0B20173107CCF0808155
:1043300011EE180F1C3410F4805B0FC013E2180F3D
:10434000163010F4885C09C0843E11F4908306C0D6
:1043500019E1180F163010F4825D80833196E1CF99
:10436000685F7F4FD1CFDF91CF911F910F9108955B
:10437000089580E090E00895CF92EF920F93CF934D
:10438000DF93FC0186816A3031F4958194836185E5
:10439000860F868367C0962FEF0161E0680F905209
:1043A0009F3508F05AC0A4812781062E000C770B98
:1043B0000A2E000CBB0BE1E9F7E0213029F504914E
:1043C000E2E9F7E0E4909923D1F021E030E08E2D8E
:1043D000877011F420E030E08E2D869586958695C5
:1043E000280F311D029FF001039FF00D11249E9FA5
:1043F000A0019F9F500D11244D56584F02C043E914
:1044000057E092E0C92E24C00491E2E9F7E0E4907D
:104410009923D1F021E030E08E2D877011F420E057
:1044200030E08E2D869586958695280F311D029F4A
:10443000F001039FF00D11249E9FA0019F9F500D3E
:1044400011244D56584F02C043E957E08BEFC82E58
:1044500020E030E0CD010E949D2B88858B5F9C8100
:10446000890F8C8381E090E0DF91CF910F91EF90E5
:10447000CF900895FF920F931F93CF93DF93F82E61
:10448000C62F142F022FDFEFD60F8D2F0E942B0681
:10449000EF2DF0E0EB5EFE4FE2A58E2F90E089302D
:1044A000910508F06DC0FC01E157FF4F6C2F70E0E3
:1044B0000C94763761507109FB01EB58FA4F10826A
:1044C000FB01EB59FA4FE081DB01AB5ABA4F8C91FB
:1044D00098E0E99FF0011124E355FB4FE80FF11D2F
:1044E00010824EC0FB01E456FB4F808187FF02C063
:1044F0008F7745C0846043C0FB01E456FB4F808149
:1045000080623DC0FB01E456FB4F8081806437C070
:10451000EB01CC58DA4F6881162F107E0E94783656
:104520002AE130E040E050E00E94E536610F688308
:1045300027C0FB01E456FB4F808182FF02C08B7FC6
:104540001EC080681CC0FB01EC58FA4F80818F713F
:10455000805815C040911401842F880F880F480F90
:10456000FB01EC58FA4F60816F71212F8D2F0E9453
:10457000B90606C0FB01E456FB4F8081877F80832C
:10458000DF91CF911F910F91FF9008952FEF280F8A
:10459000253018F49BEF980F23C02AEF280F2930FD
:1045A000A0F021EF280F233090F0823191F02DEE12
:1045B000280F223080F0853181F02AEE280F293033
:1045C00070F08F3168F098E00BC091E009C093E083
:1045D00007C094E005C095E003C096E001C097E0F5
:1045E000892F08952F923F924F925F926F927F9200
:1045F0008F929F92AF92BF92CF92DF92EF92FF92F3
:104600000F931F93CF93DF93C5E7D5E005E615E041
:1046100085E5282E85E0382E9AE0C92ED12CE12C94
:10462000F12C88818054803208F041C0F8018081EB
:1046300090E02091AA02AC01421B510957FF03C030
:10464000519541955109F101208130E08091A902F5
:10465000B901681B7109CB0177FF03C09195819562
:104660009109840F951F039714F50E9478364B012A
:104670005C0180E00E947E08682F70E06F5F7F4FD2
:1046800084E090E00E9462372B01770F660877087C
:10469000C501B401A70196010E94E53664157505B0
:1046A0008605970524F488818F71805E8883219622
:1046B0000F5F1F4F7FEF271A370A85E0C538D807ED
:1046C00009F0AFCFDF91CF911F910F91FF90EF9045
:1046D000DF90CF90BF90AF909F908F907F906F9022
:1046E0005F904F903F902F9008952F923F924F925E
:1046F0005F926F927F928F929F92AF92BF92CF9272
:10470000DF92EF92FF920F931F93CF93DF93CDB77A
:10471000DEB727970FB6F894DEBF0FBECDBF03E11B
:1047200013E01F830E838DE293E0D801712C2FEFED
:104730003C91311102C02C93739411968A179B07F8
:10474000B9F729EF32E04FED52E065EC72E08BEA09
:1047500092E0A3E1B3E0BB83AA831C011FEF211AFF
:10476000310AD1014B015A013D832C83EA80FB8041
:10477000FD01EB5AF2406F01FAE1CF16D10494F03B
:10478000EA81FB813196FB83EA832F5F3F4F4F5FC6
:104790005F4F6F5F7F4FC10105EC12E002151305FB
:1047A000E1F63DC0EA81FB81D080F701C180CD14E4
:1047B00028F5F9010081FA014080FB015080FC01DD
:1047C0006080EA81FB81C082EC81FD81C180F901BA
:1047D000C082F501C180FA01C082F401C180FB01F1
:1047E000C082CC90FC01C082F701D182EC81FD81B6
:1047F0000183F5014182F40151826C92FFEFEF1ABF
:10480000FF0A0C811D810F5F1F4F1D830C831FEF5B
:10481000A11AB10AEFEF8E1A9E0A1196A9CFAE81A6
:10482000BF818C918F3F09F41C92EE81FF813196FC
:10483000FF83EE83ED52F34091F784E187192796C9
:104840000FB6F894DEBF0FBECDBFDF91CF911F91A1
:104850000F91FF90EF90DF90CF90BF90AF909F901F
:104860008F907F906F905F904F903F902F90089522
:1048700090E0FC01ED5EFC4F1082FC01E750FD4F23
:104880001082FC01E152FD4F1082FC01EB53FD4F01
:104890001082FC01E555FD4F10828091130181507B
:1048A000809313010C94752380E0E82FF0E0E3532C
:1048B000FC4F9081992319F08F5F8832B1F70895EA
:1048C000AF92BF92CF92EF92FF920F931F93CF932D
:1048D000DF93142FA82EB12CC62FD0E0F50153E0A2
:1048E000EE0FFF1F5A95E1F7EB50FC4FEC0FFD1F49
:1048F0009081992339F040E00E946907F82E8823BF
:10490000B9F102C045E0F42E0E945424282F8F2DC7
:10491000FF0C990B019763E070E00E9462378A0DEB
:104920009B1D33E0880F991F3A95E1F783519C4F07
:10493000C80FD91F6C0F7D1FEB01219781E0820FFB
:104940008883822F90E0FC01E353FC4F1083FC012D
:10495000EB55FC4F21E02083FC01E358FC4F008322
:10496000FC01EB5AFC4FE082FC01E35DFC4FC0828E
:10497000DF91CF911F910F91FF90EF90CF90BF905B
:10498000AF900895CF93DF93C82F0E94783624E626
:1049900030E040E050E00E94E53680E09FE0C99FB3
:1049A000D0011124AD58B84F9EE0C99FA001112439
:1049B0004B5E5E4FC62FD0E0FA01E80FF11D20815B
:1049C00030E0FD01E20FF31FE4916E1748F0F901AA
:1049D0003196EA0FFB1FE491F0E0CE17DF0714F0E9
:1049E0008F5FEACFDF91CF910895CF92DF92EF9260
:1049F000FF920F931F93CF93DF93D62F082F10E0D2
:104A0000F801EB55FD4FC080F801EF55FD4F608177
:104A1000062E000C770B6C197109C7FC73956F5F3C
:104A20007F4F072E000C880B990B0E94B82A0C2C84
:104A3000000CDD08EE08FF08C60ED71EE81EF91EA2
:104A4000F801E356FD4FC081F801E756FD4F808124
:104A5000682F880F770BCB018C1B9109C7FD9395AD
:104A6000BC016F5F7F4F072E000C880B990B0E94D3
:104A7000B82A0C2FCC0F110B220B330BDC01CB010E
:104A8000800F911FA21FB31F960143E0220F331F17
:104A90004A95E1F72F503E4FF901E80FF91FD083F7
:104AA000DF91CF911F910F91FF90EF90DF90CF900A
:104AB00008952F923F924F925F926F927F928F92C2
:104AC0009F92AF92BF92CF92DF92EF92FF920F939D
:104AD0001F93CF93DF9300D000D000D0CDB7DEB7C7
:104AE0008D8390E09C012B553D4F3A832983D9015A
:104AF0000C91002E000C110B01501109FC01EF5517
:104B0000FD4F5F019C0123563D4F1901DC01A75663
:104B1000BD4FBC83AB83BD81B753BE83E2E04E2E55
:104B2000512C612C712CF8EC9F2EA5E18A2EDD8092
:104B30008D0CD5018C91082E000C990B01968017D5
:104B400091070CF446C0F1018081780173E0EE0C0E
:104B5000FF1C7A95E1F79701280F311D87FD3A95E3
:104B6000D901A051BE4F6D018C91883069F40E942B
:104B70007836A30192010E94E536882D969E800D1D
:104B80001124F601808302C0EE81EC93AB81BC81DD
:104B90008C91F701E80FF11D87FDFA959F012E50CA
:104BA0003E4F7901D9018C91883069F40E947836A2
:104BB000A30192010E94E536882D969E800D112456
:104BC000F701808303C0DE80D901DC920F5F1F4FA5
:104BD000B0CFD1010C91002E000C110BBD81BD5244
:104BE000BE8342E0442E512C612C712C52EDD52E07
:104BF00065E1C62EED81CE0EAB81BC812C91822F5A
:104C0000022E000C990B801791070CF440C0E9812B
:104C1000FA818081980148E08402200D311D112421
:104C2000D901A751BE4F7D018C91883069F40E9453
:104C30007836A30192010E94E5368C2DD69E800D18
:104C40001124F701808302C0EE81EC93D5018C9191
:104C5000F80128E08202E00DF11D1124DF01A750C8
:104C6000BE4F7D018C91883069F40E947836A30193
:104C700092010E94E5368C2DD69E800D1124F701FD
:104C8000808302C0EE81EC930F5F1F4FB5CFFD8193
:104C9000FF5FFB83D501EC91D101BC91BD83A9815C
:104CA000BA818C9190E08C0133E0000F111F3A958E
:104CB000E1F760E070E0F0E030E0E817F907BCF001
:104CC000BD814B2F50E07801E60EF71E2417350703
:104CD00054F0DA01AE0DBF1DAF50BE4FDB80DC9249
:104CE0004F5F5F4FF3CF0196685F7F4FE6CF269609
:104CF0000FB6F894DEBF0FBECDBFDF91CF911F91ED
:104D00000F91FF90EF90DF90CF90BF90AF909F906A
:104D10008F907F906F905F904F903F902F9008956D
:104D20001F93CF93DF938091F00181110CC00E94FB
:104D3000783622E030E040E050E00E94E536EB01BA
:104D4000CC0FDD1F02C0C0E0D0E0FE01E451FE4FF9
:104D50008081811101C02196FE01EB55FD4F10812C
:104D6000FE01EF55FD4F6081062E000C770B611B95
:104D7000710917FD73956F5F7F4F072E000C880B2D
:104D8000990B0E94B82A610F6093AA02FE01E356B4
:104D9000FD4F1081C756DD4F6881062E000C770B42
:104DA000611B710917FD73956F5F7F4F072E000C14
:104DB000880B990B0E94B82A610F6093A902E091B9
:104DC000AA0288E0E89FF0011124E355FB4FE60FAB
:104DD000F11DA081AA2329F0B0E0AC58BA4F1C9273
:104DE0001082DF91CF911F910895CF92DF92EF92C1
:104DF000FF92CF938091E8019091E901A091EA019F
:104E0000B091EB010196A11DB11D8093E801909333
:104E1000E901A093EA01B093EB01C0900F01D0909B
:104E20001001E0901101F09012018091E401909145
:104E3000E501A091E601B091E7018C159D05AE0555
:104E4000BF050CF44CC0C0911401C53108F047C037
:104E500086E00E94AD1BCF5FC0931401CC0CDD1C1B
:104E6000EE1CFF1CC0920F01D0921001E0921101C4
:104E7000F09212010E94783628E030E040E050E0E5
:104E80000E94E53683E0860F90E0A0E0B0E040911C
:104E90000B0150910C0160910D0170910E01480FB2
:104EA000591F6A1F7B1F40930B0150930C016093A5
:104EB0000D0170930E01409107015091080160911E
:104EC000090170910A01840F951FA61FB71F8093D7
:104ED000070190930801A0930901B0930A01C090C3
:104EE0000B01D0900C01E0900D01F0900E0180912B
:104EF000070190910801A0910901B0910A01C8161B
:104F0000D906EA06FB069CF52091140186E190E0A3
:104F1000821B910963E070E00E9462379B012F5F62
:104F20003F4F032E000C440B550B6091E80170912C
:104F3000E9018091EA019091EB010E94E536672B2F
:104F4000682B692BA1F482E00E947E089FEFC91AAA
:104F5000D90AE90AF90AC80ED11CE11CF11CC09259
:104F60000B01D0920C01E0920D01F0920E018091A4
:104F70008505882319F081508093850580918605E9
:104F8000882319F08150809386058091E30188235E
:104F900019F081508093E3018091E201882319F098
:104FA00081508093E2018091E101882319F08150C2
:104FB0008093E1018091E001882319F08150809372
:104FC000E00181E00E947E08882369F00E94783623
:104FD0002CE030E040E050E00E94E536672B682B83
:104FE000692B09F4A2C083E00E947E08C0900301EF
:104FF000D0900401E0900501F090060191E0C91AFB
:10500000D108E108F108C80ED11CE11CF11CC092C6
:105010000301D0920401E0920501F092060161E0E3
:1050200087E00E946708882321F08091E80180FFD3
:105030007FC062E087E00E9467088823A1F060914A
:10504000E8017091E9018091EA019091EB0122E081
:1050500030E040E050E00E94E536613071058105A6
:10506000910509F473C08091030190910401A0910E
:105070000501B0910601CC97A105B105DCF0609166
:105080000701709108018091090190910A0124E0C3
:1050900030E040E050E00E94E53680910B019091B5
:1050A0000C01A0910D01B0910E01281739074A0794
:1050B0005B076CF083E884BD8FEF87BD81EF809341
:1050C00080001092880082E380938A000BC083E8FE
:1050D00084BD8FEF87BD81EF8093800010928800A0
:1050E00010928A008091030190910401A091050122
:1050F000B0910601181619061A061B062CF010921C
:10510000DF0182E08093DE01E12CF12C8AE00E9435
:105110007E0890E0880F991FE816F9065CF50E945A
:105120006A218FEFE81AF80AF1CF0E9490265BCF30
:1051300091E0C91AD108E108F108C0920301D092A8
:105140000401E0920501F092060173CF8091030102
:1051500090910401A0910501B09106010197A10968
:10516000B1098093030190930401A0930501B093CA
:10517000060179CFCF91FF90EF90DF90CF90089507
:1051800090E0FC01E353FC4F1082FC01EB55FC4F17
:105190001082FC01E358FC4F1082FC01EB5AFC4FDB
:1051A0001082FC01E35DFC4F108208956F927F92A4
:1051B0008F929F92AF92BF92CF92DF92EF92FF9227
:1051C0000F931F93CF93DF9385EFC82E83E0D82EE4
:1051D00000E010E098E0892E912CA12CB12CE02E5B
:1051E000E694E694E69488E0E89E70011124C0E01D
:1051F000D0E0802F8770782EFE01EE0DFF1DEA5360
:10520000FE4F808190E0072C02C0959587950A9407
:10521000E2F780FF1CC0F601EC0FFD1F60806620E6
:10522000B1F0BE01C8010E949F198091E30188235B
:10523000A1F10E947836A50194010E94E5366F5FC6
:10524000E62FF0E0E759F84F84910E94C429219697
:10525000C830D10589F60F5F1F4F88E0C80ED11CFA
:105260000531110509F0BBCF6091A90270E0809172
:10527000AA0290E00E949F1980E4DF91CF911F91D4
:105280000F91FF90EF90DF90CF90BF90AF909F90E5
:105290008F907F906F900C94C429E62DF0E0E4533A
:1052A000FC4FE0816E2F62956F70CACF0E94AC29CF
:1052B00080918605811109C00E947B1A0E94351ACF
:1052C0000E94D6280E94AE1902C00E94351A85E0BD
:1052D0000E94AD1B0E943F2F0E94A82A0E94E91045
:1052E00090918505992351F00E94783624E030E0B2
:1052F00040E050E00E94E53681E0860F0895CF92AD
:10530000DF92EF92FF920F931F93CF93DF936C0185
:105310007A018B01C0E0D0E0CE15DF0581F0D80125
:105320006D918D01D601ED91FC910190F081E02D00
:10533000C6010995892B11F02196EECF7E01C70198
:10534000DF91CF911F910F91FF90EF90DF90CF9061
:10535000089508950E949F3780E0E5EAF5E0811105
:105360008FEF002481938193819381930394D1F7EC
:10537000089520919B05282329F490919A0598235C
:1053800081E009F480E00895682F8BE895E00C94A3
:10539000BC210F931F93CF93DF938C01C0E0D0E02B
:1053A000F801EC0FFD1F6491662341F08BE895E056
:1053B0000E94BC21892B11F02196F2CFCE01DF9102
:1053C000CF911F910F910895009769F0FC01019012
:1053D0000020E9F73197AF01481B590BBC018BE85E
:1053E00095E00C947F2980E090E008958F929F9241
:1053F000AF92BF920F931F93CF93DF93CDB7DEB7DA
:10540000A1970FB6F894DEBF0FBECDBF19A24230F0
:1054100008F44AE08E010F5D1F4F842E912CA12CC1
:10542000B12CA50194010E941737E62FB901CA01DA
:1054300001501109EA3014F4E05D01C0E95CD801C3
:10544000EC93232B242B252B61F7C8010E94E42920
:10545000A1960FB6F894DEBF0FBECDBFDF91CF91FE
:105460001F910F91BF90AF909F908F900895CF9212
:10547000DF92EF92FF92CF93DF9397FF19C06B01FA
:105480007C018DE20E94C429EC0166277727CB01BD
:105490006C197D098E099F094AE00E94F6298C0F3C
:1054A0009D1FDF91CF91FF90EF90DF90CF900895F7
:1054B0004AE0DF91CF91FF90EF90DF90CF900C9476
:1054C000F629682F70E080E090E04AE00C94F6291D
:1054D000BC01990F880B990B0C94372A0F931F93DB
:1054E000CF93DF938C01040F111DEB012896E0E1AF
:1054F0008017910744F59B0177FF02C020E030E060
:10550000AE01C134D10514F040E450E02417350752
:10551000C4F48038910590F4A901F1E041FDF4E074
:1055200040FDFF0F42FDF295487FE49FD00111241A
:10553000A80FAB55BA4F4C91F42BFC932F5F3F4F04
:10554000DFCF0196D5CFDF91CF911F910F910895B5
:10555000E5EAF5E080E0A0E0B8E000800EBC811153
:10556000012C1197A0FDFDCF0192B9F70DB408955C
:10557000CF92DF92EF92FF9261157105810591053F
:1055800049F06B017C010E947836A70196010E94C8
:10559000E53603C060E070E0CB01FF90EF90DF9054
:1055A000CF900895CF92DF92EF92FF920F931F93C7
:1055B000621773078407950784F489019A016B01C8
:1055C0007C01C901B8016C197D098E099F090E94EF
:1055D000B82A6C0D7D1D8E1D9F1D1F910F91FF9090
:1055E000EF90DF90CF9008953FB7F8948091A10598
:1055F0009091A205A091A305B091A40526B5A89B02
:1056000005C02F3F19F00196A11DB11D3FBFBA2F54
:10561000A92F982F8827820F911DA11DB11DBC01B4
:10562000CD0142E0660F771F881F991F4A95D1F779
:1056300008958F929F92AF92BF92CF92DF92EF9296
:10564000FF926B017C010E94F42A4B015C01C114A2
:10565000D104E104F104F1F00E94F42ADC01CB0151
:1056600088199909AA09BB09883E9340A105B1058B
:1056700070F321E0C21AD108E108F10888EE880E23
:1056800083E0981EA11CB11CC114D104E104F104F3
:1056900019F7DDCFFF90EF90DF90CF90BF90AF90E4
:1056A0009F908F9008951F920F920FB60F92112422
:1056B0002F933F938F939F93AF93BF9380918705D1
:1056C00090918805A0918905B0918A053091A00537
:1056D00023E0230F2D3720F40196A11DB11D05C035
:1056E00026E8230F0296A11DB11D2093A0058093EB
:1056F000870590938805A0938905B0938A058091CA
:10570000A1059091A205A091A305B091A4050196D1
:10571000A11DB11D8093A1059093A205A093A3059F
:10572000B093A405BF91AF919F918F913F912F911D
:105730000F900FBE0F901F9018954F925F926F922F
:105740007F928F929F92AF92BF92CF92DF92EF9211
:10575000FF920F931F93CF93DF9300D000D0CDB76C
:10576000DEB7DC0139012C2DA02EB12CC5018A0F2A
:105770009B1F181619060CF0AEC1A038B1050CF02D
:10578000AAC1FB01EE0DF11D1E161F060CF0A3C1F0
:10579000603471050CF09FC14115510509F49BC19E
:1057A000362F3770F32EFB0177FD379633E0F595F2
:1057B000E7953A95E1F73E2F77FF04C0FF2011F0FF
:1057C0003FEF3E0FB7FF05C0EE27FF27EA1BFB0B9D
:1057D00002C0E0E0F0E0803891051CF090E89A1BF0
:1057E00001C0902F9E1B632F032E000C770B3F3FB1
:1057F0001CF4162F109501C010E0DD24D3948E2DDB
:10580000877009F4D12CE694E694E694ED0C6E0DC5
:10581000711D693071051CF088E0E82EE31AE11A69
:10582000310F60E83603A00DB11D1124AE0FBF1F6C
:10583000019FE00DF11D11244E0F5F1F61E070E02C
:105840004B010F2C02C0880C991C0A94E2F72330FC
:1058500009F4FFC0B8F4213009F4B3C0223009F0D4
:105860003AC18FEF889D8001899D100D112400950C
:1058700010951A8309832A81FD01EB55FA4F2F01F8
:10588000E30E29C02A3FD1F12B3F09F024C1FD01CD
:10589000EB55FA4F6F01E30E82C08491889D600141
:1058A000899DD00C1124DC82CB8237FD05C0DB0141
:1058B0008C918023C82ACC92F11013C031966F5F6F
:1058C0007F4F8E2F841B891740F33F5F4A0D5B1D6E
:1058D000B0E84B0E511C3E1509F4FDC0B201FA01AF
:1058E000F0CF37305CF76B01B0E8CB0ED11CD6019E
:1058F0008C9182237C8087298C93E0CFFD01EB552E
:10590000FA4F6F01E30E3E1509F4E5C08601FA0176
:105910008E2F841B8917F0F48491889DB001899D96
:10592000700D11247C836B8337FD04C0D8018C91EA
:10593000682B6C93FF2051F0373044F4B801605865
:105940007F4FDB012C918C81822B8C9331960F5FE2
:105950001F4FDECF3F5F4A0D5B1DB0E8CB0ED11C61
:10596000D2CF8491889D8001899D100D11241C83C4
:105970000B8337FD05C00095DB018C9108230C9348
:10598000F11013C031966F5F7F4F8E2F841B8917E4
:1059900040F33F5F4A0D5B1DB0E8CB0ED11C3E15B6
:1059A00009F499C0B601FA01F0CF37305CF78B01EA
:1059B00000581F4F8C818095D8012C9182238C93A5
:1059C000E1CFB3016E0F7F1FAB55BA4FE30E3E150B
:1059D00009F481C08D01C12CD12CC91690F5FB01B1
:1059E000EC0DFD1DE491E89D3001E99D700C112442
:1059F000609470947A826982FA01EC0DFD1DE49145
:105A0000E89D2001E99D500C11245C824B8237FDFA
:105A100005C0F8018081682246284082FF2059F0A5
:105A200037304CF4F801E058FF4F20818A818223FF
:105A30002C81822B8083FFEFCF1ADF0A0F5F1F4F6D
:105A4000CCCF3F5F4A0D5B1D6A0D7B1DA058BF4F39
:105A5000BECFC92ED12CE40FF51FAB55BA4F00E8CD
:105A600010E00C191D09AC18BD08A501440F551F05
:105A7000792F2E2D792ECF93DF93ED01EF96EF96B0
:105A80002296A590C590FF2059F0A89C5001C89C73
:105A9000600137302CF4E880D094ED20EB28E992B7
:105AA00033233AF0EC90C094EC20EA28ED920C9469
:105AB0005A2D11967A9529F72A9551F0772D33951D
:105AC0001124E40FF11DA00FB11DC00FD11DD9CFBE
:105AD000DF91CF9111240F900F900F900F90DF91D5
