:100000000C94F7040C941F050C941F050C941F0509
:100010000C941F050C941F050C941F050C941F05D0
:100020000C941F050C941F050C941F050C941F05C0
:100030000C941F050C941F050C941F050C941F05B0
:100040000C941F050C941F050C941F050C941F05A0
:100050000C941F050C941F050C941F050C94FF1A9B
:100060000C941F050C941F050C941F050C941F0580
:100070000C941F050C941F050C941F050C941F0570
:100080000C941F050C941F050C941F050C941F0560
:100090000C941F050C941F050C941F050C941F0550
:1000A0000C941F050C941F050C941F05E407F10721
:1000B000F607260858086B087C0880088408DF07C4
:1000C000A208A608AC08B0080C09FE083A096209A3
:1000D0007809B109B4091F0AF308C309F709F90837
:1000E0002A0CD90A2A0C2A0C320C2A0C3A0CD90AEE
:1000F000D90AD90A430CD90A4B0C9C13CC13E81427
:10010000E814D813E814E814F3130614E8142F14B1
:10011000E8143A14E814E814E814E8144B149F1B8C
:10012000B71BC11BC71BCD1BE01BEA1BF11BF71B39
:10013000FF1F0F202F209120CD20D220DC202B214B
:10014000D5F08D14A1C881CFD9F1AF200057696EC9
:10015000202C00425D436C6561720048616C6C202C
:100160004F662046616D6500200024006279004BD7
:10017000696C6C65640046726F7A656E00537461D9
:1001800072766500285F5F5F285F5F5F5F5F5F5F1C
:100190005F5F5F285F5F5F5F285F5F5F002A2020EF
:1001A000204865726F202020202A00202020202057
:1001B00020202020202020200028202052204920FC
:1001C0005020202800202020202020202020004512
:1001D000783B0041433B0053743B0048703B004177
:1001E000753B004C763B0020202020202020202042
:1001F000200053746174757300425D20436F6E7408
:10020000696E756500415D204E65772047616D65BB
:10021000004020526F677565002043002045002094
:1002200077686963687D0020200020496E76656EDE
:10023000746F72792020202020000203030404053B
:1002400001010101010201030104202020202020DE
:1002500020202020202020202000202064726F7089
:100260002020202020202020200020207468726F71
:10027000772020202020202020002020757365205A
:1002800020202020202020202000416374696F6EF0
:1002900000676F6C6400000000666F6F6400000010
:1002A000006D6F6C64000000006D6163650000000C
:1002B00000617865000000000073776F72640000D1
:1002C00000626F770000000000646172740000003B
:1002D000006172726F77000000736872696B656EFF
:1002E0000064616767657200006C656174686572BF
:1002F0000072696E67000000007363616C65000046
:1003000000636861696E00000073706C696E740050
:100310000062616E6465640000706C617465000069
:1003200000616D626572000000626C61636B0000C9
:1003300000626C75650000000062726F776E0000ED
:1003400000636C6561720000006379616E000000FB
:10035000006F72616E67650000677265656E000010
:1003600000677261790000000070696E6B00000028
:1003700000726564000000000076696F6C657400AF
:1003800000776869746500000079656C6C6F7700B0
:10039000005A454C474F0000004A5559454400005B
:1003A000004E522039000000005849584158410081
:1003B0000044414959454E0000454C424942000025
:1003C00000544841525200000059554D2059554D96
:1003D00000414E444F56410000464F4F42494500B0
:1003E0000054454D4F5600000052454144204D45B4
:1003F000006167617465000000616D7468797374F1
:10040000006469616D6F6E6400656D6572616C6436
:10041000006761726E657400006F6E69780000009D
:10042000006F70616C00000000706561726C00000C
:10043000007275627900000000736170686972650E
:1004400000746F70617A0000006272617373000063
:100450000062726F6E7A650000636F707065720083
:100460000069726F6E000000006C6561640000003E
:10047000006E69636B656C0000737465656C0000E9
:100480000073696C766572000074696E000000008C
:10049000007A696E630000000059656E646F720037
:1004A00000706F776572000000726573746F72651B
:1004B000006865616C00000000652E6865616C0075
:1004C00000706F69736F6E00006C6576656C00007C
:1004D00000626C696E6400000068616C6C750000FD
:1004E000006D2764746563740069276474656374C0
:1004F00000636F6E66757365006C65767461746514
:100500000073706565640000006C6F6F6B00000025
:100510000070726F7465637400686F6C6400000033
:1005200000776561706F6E000061726D6F72000020
:100530000069646E746966790074656C706F7274BA
:1005400000736C6565700000007363617265000084
:1005500000626C657373000000637265617465000E
:1005600000616E6765720000006D61700000000040
:1005700000737465616C74680074656C65706F728B
:10058000746C69666500000000666F6F64000000AF
:100590000064616D61676500007374726F6E67005F
:1005A0000064657800000000006172646F726E0084
:1005B00000736565000000000061726D6F720000DD
:1005C00000736561726368000074656C706F7274AB
:1005D00000736C6F7700000000636F6E6675736563
:1005E00000636C6561720000006368616E6765009E
:1005F000006661737400000000736C656570000034
:10060000006D697373696C650063616E63656C008E
:10061000006E6F7468696E670077656C636F6D65F7
:10062000600000492063616E6E6F7400006E6F2081
:10063000737061636500006F626A6563742068654A
:10064000726E6F20736C6F740000006469727D00BD
:1006500000000000006C6576656C20757000006F0E
:100660006F707327272700000079756D6D79000082
:100670000000006974206973206375727372656D80
:100680006F7665640000006571756970706564005F
:10069000007769656C64656400000066726F7A6556
:1006A0006E00000000706F69736F6E656400007308
:1006B000746F6C656E000000007275737465640081
:1006C00000000068656C6400000000000067726153
:1006D000636564000000006275726E65640000006E
:1006E000006C6576656C20646F776E647261696E0C
:1006F00065640000005A5A5A272727000000004B63
:100700004542534849524F5A4C4351414E59465421
:10071000575058554D56474A4402030405060607EC
:100720000508000000000000746D74000007000759
:1007300000552A552A55042E6B3A107F437F417F7E
:100740006A5767576E0060600000707A770A700819
:10075000105F100822085D08227E4141417E060993
:1007600029522C0008080800000000402002007DEB
:1007700000023E7F417F3E00427F7F406271594FC1
:10078000462241497F3618147E7F102F4F49793118
:100790003E7F4979300161791F07367F497F3606F0
:1007A0004F497F3E18353E3D180036360000004068
:1007B000381800102A452A101C7F3E1C08085C2EA1
:1007C000170A0102641F767E7F097F7E7F7F497F43
:1007D000363E7F4141227F7F417F3E7F7F494941B5
:1007E0007F7F0909013E7F41797A7F7F087F7F0003
:1007F000417F7F4141417F3F017F7F1C36637F7F87
:100800004040407F7E0C7E7F7F7E1C3F7F3E7F414D
:100810007F3E7F7F090F063E7F613F5E7F7F097FBE
:1008200076264F49793200017F7F013F7F407F3F2D
:100830001F3F603F1F7F3F103F7F777F087F770319
:100840007F78070371794D47431F3F7B3F1F707AC5
:10085000770A700041417F3E3E7F41410040404069
:100860004040006F6F00002074547C787F7F447C90
:1008700038387C444428387C447F7F387C545C186A
:1008800000047E7F0518BCA4FC7C7F7F0878700084
:10089000447D7D408080FD7D007F7F386C44004139
:1008A0007F7F407C7810787C7C7C047C78387C442A
:1008B0007C38FCFC243C18183C24FCFC7C7C0804A0
:1008C00004085C54742000047E7E043C7C407C7CE4
:1008D0001C3C403C1C7C3C103C7C6C7C107C6C1CAC
:1008E000BCA0FC7C4464745C4C1F3B713B1F0077D4
:1008F0007777000601590F06201008040201020450
:1009000008102040800A01043C0200830B010341CF
:100910000200020A01033C02002508010332020022
:10092000030F0205430300030F00004405000413F6
:10093000020A460A000319010546050A03150107C4
:10094000450800031900004B156404200513550FDA
:100950000A051E030F4E141403190000641400034B
:100960001900004B27640423031250321405490078
:1009700000505B00014B051C4B7D21032D02104BE9
:100980003700054C0514507832652A04184B6E0068
:10099000065A042855C8210361072555FA1903375B
:1009A000021255FF1203730A3255FF0A838407327D
:1009B00064FF000591083C64FF5A02000A0F1821E9
:1009C0003F5D60642A3A295B213F3D2F2C00050AD8
:1009D00014192328323C414B555A5F6400050A0F15
:1009E00014232D37414B555A64646400613511243A
:1009F0001FBECFEFDAE0DEBFCDBF11E0A0E0B1E077
:100A0000E4E6FDE602C005900D92A239B107D9F7E0
:100A100029E0A2E9B1E001C01D92AB3EB207E1F7C7
:100A200014E0C7EFD4E004C02197FE010E94823693
:100A3000C63FD107C9F70E94962E0C94B0360C948D
:100A40000000EF92FF920F931F93CF93DF93D82F65
:100A5000082F10E0C80183549E4F7C01FC01C08127
:100A6000C4FF14C0C6FF02C089E024C0CF7EFC01D1
:100A7000C0838AE00E946110F801EB5DFD4F808128
:100A80008057803108F041C06FEF36C0F801EB5D50
:100A9000FD4F9081892F82958F708330B0F1853022
:100AA00018F08730A1F031C061E00E944126882310
:100AB00049F08CE0DF91CF911F910F91FF90EF9063
:100AC0000C946110C261F701C0838BE0F3CF61E049
:100AD00087E00E944126182F62E087E00E944126AD
:100AE000189FC0011124892B21F7C261F701C0832F
:100AF0008BE00E94611061E08D2FDF91CF911F91FB
:100B00000F91FF90EF900C94C228DF91CF911F912D
:100B10000F91FF90EF9008952F923F924F925F9226
:100B20006F927F928F929F92AF92BF92CF92DF92FD
:100B3000EF92FF920F931F93CF93DF9300D000D0DB
:100B40001F92CDB7DEB7382E512C442443940E9417
:100B50005B194092D0044092CF04CC24CA94C09236
:100B6000D10431101AC040E860E070E080E090E00D
:100B70000E94F4191092D2048AE292E00E94A9190C
:100B800060913C0170913D0180913E0190913F0147
:100B90000E94CA1987E292E002C08FE192E00E94AF
:100BA000A9194092D0044092CF0447E0D42ED092AD
:100BB000D1044092D2048EE30E945019E52CF12C0E
:100BC000FD82EC8280910201A7014A5F5F4F282FCE
:100BD00030E04217530714F487E0850D0C811D8126
:100BE00003541E4F2C813D812F503E4F79012C81A3
:100BF0003D812B5D3D4F5901CC80DD80882483945D
:100C0000912C682E712CC614D7040CF0A8C0B40126
:100C100081E090E00E94410E1A830983D8018C91F3
:100C200083FD09C0D501EC91E295EF70F0E0ED5342
:100C3000F64F849101C08BE70E94501980E20E9418
:100C40005019F801808187FF0DC0F601E55FFD4F67
:100C5000608170E080E090E04AE00E94681980E2E4
:100C60000E945019D5019C91692F6F70892F829530
:100C70008F70903510F440E00FC0E82FF0E0EE0FD9
:100C8000FF1FE557FE4F40815181062E02C0569549
:100C900047950A94E2F741700E94D7158DEA94E0D7
:100CA0000E943E19F801808185FF38C0D5018C91E2
:100CB00090ED980F9031A0F48EE50E945019F70145
:100CC0006081062E000C770B880B990B0E94CA19C5
:100CD0008CE30E945019F601E952FE4F608114C066
:100CE00090EC980F903158F090E8980F903138F0D0
:100CF0008057803198F4F7018081882379F08EE560
:100D00000E945019D7016C91062E000C770B880BAE
:100D1000990B0E94CA198DE50E945019F801808133
:100D200084FF04C08CE192E00E94A9190F5F1F4F5D
:100D3000A981BA818C918274823421F489E192E094
:100D40000E94A919BFEFCB1ADB0AEFEFEE1AFE0AD9
:100D5000FFEFAF1ABF0A2FEF821A920A54CF0E94F8
:100D60002E190E943D23823029F4552009F4EFCE3C
:100D70005A94EDCE843061F48091020190E00197A5
:100D8000CC80DD80C816D9060CF0E1CE5394DFCEBE
:100D9000853009F056C6311057C64BE468E070E064
:100DA00086E090E00E94F4191092D2048DE08093C6
:100DB000D0048093CF0417E01093D1048AE892E026
:100DC0000E94A91981E08093D2041093D00410935B
:100DD000CF040FE00093D1048AE792E00E94A919A2
:100DE0001093D0041093CF0487E18093D1048AE656
:100DF00092E00E94A9191093D0041093CF048FE1C0
:100E00008093D1048AE592E00E94A9191093D0043E
:100E10001093CF0487E28093D1048AE492E00E9489
:100E2000A9191093D0041093CF040093D1048EE33A
:100E30000E9450190E942E1910E00E943D23843018
:100E4000C9F018F4823039F0F8CF853079F1863066
:100E500009F4FAC5F2CF112381F3612F70E06E5FC0
:100E60007F4F81E090E00E94410E80E20E94501985
:100E700011500EC0123008F7612F70E06E5F7F4F87
:100E800081E090E00E94410E80E20E9450191F5FB5
:100E9000612F70E06E5F7F4F81E090E00E94410E15
:100EA0008EE30E9450190E942E19C7CF11112BC337
:100EB0000091000901112EC3EC81FD81EB5DFD4F16
:100EC0001081912F92959F709230E1F5EC81FD8118
:100ED000E55FFD4F808181508083811103C0852DA6
:100EE0000E94641C88E00E94611060913C01709136
:100EF0003D0180913E0190913F0123E030E040E0D0
:100F000050E00E94F13569017A018EE5C80E81E05A
:100F1000D81EE11CF11C0E94CD3522E330E040E0F8
:100F200050E00E94F135DC01CB018C0D9D1DAE1D02
:100F3000BF1D80933C0190933D01A0933E01B0936F
:100F40003F01DAC2933009F4A1C2943009F49EC281
:100F50001F70953009F00BC1E12EF12C81E090E07B
:100F6000A0E0B0E0012E04C0880F991FAA1FBB1F8C
:100F70000A94D2F72091950130919601822B932B00
:100F80009093960180939501EC81FD81E55FFD4F83
:100F9000808181508083811103C0852D0E94641C53
:100FA000F701ED5FFE4FE0814E2F50E04E305105CE
:100FB00008F0D9C0FA01EA5AFF4F0C94823697E044
:100FC000E92E93E0F92EBBC0909101012091000120
:100FD00081E0890F809301019213C5C080930001C5
:100FE000C2C08091000180930101BDC08091440185
:100FF00090914501A0914601B09147014091400177
:10100000509141016091420170914301841795070D
:10101000A607B70721F40196A11DB11D2FC06A01D3
:101020007B01C80ED91EEA1EFB1EC701B60122E0D5
:1010300030E040E050E00E94F135209344013093CD
:10104000450140934601509347018DC08091440172
:1010500090914501A0914601B09147014091400116
:1010600050914101609142017091430184179507AD
:10107000A607B707A1F40296A11DB11D80934401F4
:1010800090934501A0934601B0934701809340019E
:1010900090934101A0934201B093430164C04093F7
:1010A00044015093450160934601709347015BC032
:1010B00000910101043060F00E94CD35015023E021
:1010C00030E040E050E00E94F135061B0093010142
:1010D0001092020948C08091490190914A01A09163
:1010E0004B01B0914C018093030990930409A093A4
:1010F0000509B093060937C082E38093A80433C082
:1011000082E3809302092FC081E08093A3012BC06A
:10111000F701EC0DFD1D8081882321F06C2D802FBF
:101120000E943C102FEFC21AD20A38E0C316D10435
:1011300079F788E0E80EF11C0F5F0531A1F0C12CB2
:10114000D12CE6CF8AE08093A7040DC01092A501B0
:101150008EE18093FF0807C084E18093010903C0FA
:1011600081E08093A40141E0612F85E071C1963058
:1011700009F075C10091A80401116FC1E12EF12C95
:1011800081E090E0A0E0B0E0012E04C0880F991F3C
:10119000AA1FBB1F0A94D2F72091970130919801A2
:1011A000822B932B9093980180939701EC81FD8182
:1011B000E55FFD4F808181508083811103C0852DC3
:1011C0000E94641CD701AD5FBE4F7D011E96EC915D
:1011D0004E2F50E04C30510508F031C1FA01EC5966
:1011E000FF4F0C9482368091020190E0EDEBF1E02C
:1011F000BFC08EE2C82E89E0D82E1EC12091BC014E
:101200008091BB0190E0B8E02B9F800D911D1124CF
:1012100060E070E0409728C061E084E00E944126D1
:10122000882309F40CC1E82FF0E0E454FE4F8081DC
:1012300088605CC0FA01EA0FFB1FE153FC4FE081BC
:10124000EE2339F0F0E0EA56FB4F20812F71205851
:1012500020834F5F5F4F4330510561F7685F7F4FD9
:101260006832710509F4EBC0DC01A60FB71F4EEF21
:101270005FEFE0CF61E083E00E944126882309F41C
:10128000DEC0C82ED12CE1E0CE1AD108F601E3541D
:10129000FE4F80818F7B80830E94CD3522E030E03D
:1012A00040E050E00E94F135F601672B682B692B76
:1012B00031F4EF50FE4F90819F5F9083C0C0E952A0
:1012C000FE4F12C061E084E00E944126882309F4A9
:1012D000B6C0E82FF0E03197DF01A354BE4F8C91E8
:1012E0008F7B8C93EF50FE4F80818F5F8083A7C0F0
:1012F00081E00E948C0590E0FC01E354FE4F2081C8
:1013000022622083FC01EB5DFD4F9081292F2F701D
:10131000892F82958F70903510F440E01CC0E82F23
:10132000F0E0EE0FFF1FE557FE4F41E050E060E0B8
:1013300070E0022E04C0440F551F661F771F0A94E9
:10134000D2F7A081B1814A2B5B2B51834083905906
:10135000903118F341E0622F0E94D7150E943B1A8A
:101360006EC00E94202B6BC085E08093000967C08F
:101370009F012D5B3140281739070CF060C0208198
:101380002F7B2193F5CFE7E9F4E081E09191911172
:1013900001C0282E8F5F8131C9F741E06091BB0108
:1013A0008091BC010E943F2590E0009709F447C05E
:1013B0000197E22DF0E031972091BC01215063E0CC
:1013C00070E00E946E36820FDF01A957BB4F8C93ED
:1013D0004091BB014150460FE958FB4F4083682FB5
:1013E0008FEF820D0E94B1220E94500E28C0E7E9C3
:1013F000F4E08081882319F08F71805E80833196BC
:1014000024E0E73AF207A9F71AC0F601EA0DFB1D3E
:101410008081882321F06A2D802F0E943C103FEFAD
:10142000A31AB30A88E0A816B10479F798E0C90EA8
:10143000D11C0F5F053119F0A12CB12CE6CFD701DB
:101440001E968C91843009F457C041E0612F86E0EC
:101450000E94D7150E943B1A4FC081E00AC1973005
:10146000C9F481E090E0A0E0B0E004C0880F991FCB
:10147000AA1FBB1F1A95D2F72091990130919A01AA
:10148000822B932B90939A0180939901852D0E9432
:10149000210532C0983081F581E090E0A0E0B0E015
:1014A000012E04C0880F991FAA1FBB1F0A94D2F7F0
:1014B00020919B0130919C01822B932B90939C0156
:1014C00080939B01EC81FD81EF50FE4F80811816C7
:1014D0001CF48150808301C019E00E94561B64E116
:1014E0000E94ED2597FF02C081509F4F992321F064
:1014F000692F812F0E947F1B0E941F2A0E94821049
:101500000E942E1DA1C2113009F05AC0809100091D
:10151000882321F086E10E94611096C22C813D81D2
:1015200023543E4F6901D9018C910C811D810B5DC3
:101530001D4F84FF09C0F801908120ED290F203153
:10154000A8F59F70943090F186FF05C0D8019C915A
:1015500090539031A8F00E94561BF82E61E083E072
:101560000E944126882309F4C1C0E82FF0E0EC5D19
:10157000FD4F90819F70933009F0B8C064E1B9C00D
:101580008260D6018C9361E083E00E94412688232B
:1015900039F0E82FF0E0E454FE4F80818F7E8083A5
:1015A000F60180818061808389E001C08CE00E9427
:1015B00061100E9482100E942E1D0E941F2A44C2A8
:1015C000123009F03ACC809100098111A3CF00912B
:1015D000BB01E091BC01AC81BD81A354BE4FDC9046
:1015E0008D2D8071D4FC80C0AC81BD81AB5DBD4FC1
:1015F000CC902C2D30E0A1E1B1E09D91973021F00D
:101600008F5F8C30D1F780E090E0805A9F4FEE2EB4
:10161000F12C10E028173907E9F4EC81FD81E55F32
:10162000FD4F908191509083911103C0852D0E94B0
:10163000641CF70133E0EE0FFF1F3A95E1F7E00F6E
:10164000F11FE25DF64F80816AE00E945436925E9F
:10165000908352CFC70123E0880F991F2A95E1F7A5
:10166000080F191F095F1C4FD8018C91882321F0A6
:1016700083E00E94611040CF0E94E12A883211F479
:1016800084E0F7CF91E0980FF8019083E82FF0E025
:10169000DF01A152BD4FCC929F0129543D4F8C8157
:1016A0009D81855F9D4FDC018C91D9018C939F01B9
:1016B00021573D4F8C819D818F509E4FDC018C9135
:1016C000D9018C939F0129593D4F8C819D8189526D
:1016D0009E4FDC018C91D9018C93E15CFD4FD0824F
:1016E000852D0E94641C08CF8CE0C3CF609101015E
:1016F00066958F2D0E94ED255C01F8014081409395
:10170000A20181E08093A101EC81FD81EF50FE4FA9
:1017100000810093A001EC81FD81E952FE4FE08041
:10172000E0929F01D601CC90C0929E01EC81FD8198
:10173000E55FFD4F808181508083811105C0852D3B
:101740004B830E94641C4B81C501B7FE02C08150CF
:101750009F4F692E792E770C7708D92EC50160E04E
:1017600071E00E946E3665E170E00E946E36F62EE2
:10177000182F611002C021E0B5C080ED840F8031C8
:1017800058F44F70E42FF0E0EE0FFF1FE65CFD4FC2
:10179000E491CE2EC00E02C0CC24C3940E94CD355D
:1017A00024E630E040E050E00E94F135E62E8091E2
:1017B0004801880F885D9C2D990F9C0D082F090FFB
:1017C00061E083E00E944126E82FF0E0EC5DFD4FF0
:1017D00080814091A201982F94279F7009F487C0BF
:1017E000453321F48F70833009F481C0E01608F08E
:1017F00071C0EE24EA94ED0C8E2D0E9439240091E4
:10180000A20180ED800F803160F4E02FEF70F0E0F6
:10181000EE0FFF1FE55CFD4FE491B0909F01BE0EFF
:1018200001C0B12C80EB800F8031F0F58E2D0E942D
:1018300039240F70E02FF0E0ED5FFE4FE0818E2F36
:1018400090E08D30910508F0B4CEFC01E059FF4FD7
:101850000C948236C3019927FC01E255FC4F80812C
:10186000865F20C0C3019927FC01E255FC4F8081AF
:10187000869518C0C3019927FC01EA56FB4F808169
:101880008F71805C0FC0C3019927FC01E254FC4FAB
:101890008081806207C0C3019927FC01E254FC4F9C
:1018A00080818068808385CE0058003150F50E9489
:1018B000CD3524E030E040E050E00E94F135672B68
:1018C000682B692BF1F08091A2016D2D8F700E9421
:1018D0007F1B6FCEC0909E01E0909F010091A00100
:1018E0002091A1016F2D812F0E94041C62CEB4E0D3
:1018F0000B9FC001112463E070E00E946E36062F3A
:1019000075CF8091A2018053803108F04BC02C2DFF
:101910000C2C000C330BAB2DBB0CBB0B0E94883680
:101920009B01AC016C2DCC0C770B880B990B0E94A2
:101930007E1A4B015C0190919D0180910101890FFC
:101940000E94801C880C991CAA1CBB1C282F30E00C
:10195000C901880F991F092E000CAA0BBB0B880D1B
:10196000991DAA1DBB1D4091AA01042E000C550B08
:10197000660B770B840F951FA61FB71F2091480198
:10198000820F911DA11DB11DBC01CD016F5F7F4F65
:101990008F4F9F4F22E030E040E050E00E94F13551
:1019A000422F1FC090919D0180910101890F0E94DB
:1019B000801C482F50E041505109440F551F809121
:1019C000AA01480F511D87FD5A9580914801480F83
:1019D000511D4F5F5F4F57FF02C04F5F5F4F5595DF
:1019E000479561E083E04B830E944126E82FF0E0B9
:1019F000EC5DFD4F80812091A201982F92279F706E
:101A00004B819923A1F0253319F48F70833079F03D
:101A1000C30199278A569B4FFC01608162956695A8
:101A200067700F2D212F8E2D0E94C524C2CDE4E0BA
:101A30004E02C001112463E070E00E946E36462F12
:101A4000E7CF863009F083C8852D0F900F900F9057
:101A50000F900F90DF91CF911F910F91FF90EF901A
:101A6000DF90CF90BF90AF909F908F907F906F90BE
:101A70005F904F903F902F900895CF93DF93C82FA2
:101A8000D0E0FE01E154FC4F808186FF09C088E070
:101A90000E949F28811104C08091A401813081F5AA
:101AA00080910209C956DB4F8823D1F08881805686
:101AB000803260F40E94CD3529E030E040E050E013
:101AC0000E94F135FB01EC53F64F15C00E94CD3555
:101AD0002AE130E040E050E00E94F135FB0109C00E
:101AE000E88180EA8E0F803210F48AE205C0EF713F
:101AF000F0E0E150F94F8491DF91CF910C945019AF
:101B0000DF91CF9108953F924F925F926F927F92B3
:101B10008F929F92AF92BF92CF92DF92EF92FF92FD
:101B20000F931F93CF93DF9397E9C92E94E0D92E9B
:101B300027E8E22E24E0F22E00E010E033E0432E0E
:101B4000512C612C712C42E0842E912CA12CB12CB3
:101B50008091E609E7E08E9FC00111240896801766
:101B600091070CF47CC00E94CD35A30192010E9424
:101B7000F135672B682B692B09F066C08091E60967
:101B800081110AC00E94CD35A50194010E94F13552
:101B9000EB01CC0FDD1F02C0C0E0D0E0FE01E95137
:101BA000F64F8081811101C02196FE01EE51F64F62
:101BB0003080FE01E652F64F6081062E000C770B56
:101BC0006319710937FC73956F5F7F4F072E000C07
:101BD000880B990B0E945A1A360EF7013082FE01CB
:101BE000E252F64F3080CA52D64F6881062E000C62
:101BF000770B6319710937FC73956F5F7F4F072E61
:101C0000000C880B990B0E945A1A432D460FF801BD
:101C1000E958FB4F4083F70160818091BC01681750
:101C200099F08091BB01481779F028E0629FF0019C
:101C30001124E40FF11DE153FC4F8081811104C098
:101C4000802F0E94B12202C0F60110820F5F1F4F49
:101C5000FFEFCF1ADF0A2FEFE21AF20A79CFDF91F6
:101C6000CF911F910F91FF90EF90DF90CF90BF9099
:101C7000AF909F908F907F906F905F904F903F902C
:101C80000895982F990F890F880F8F5FEBECF4E080
:101C900085838483660F660F660F6150668308959F
:101CA000CF92DF92EF92FF920F931F93CF93DF9328
:101CB00087E9E82E84E0F82E07E714E0C7E8D4E0CF
:101CC000D12C9AE0C92EF70181917F01803208F46E
:101CD0005DC08091A30181114FC08091BB01E09153
:101CE000BC0198E0E99FF0011124E80FF11DE25DCD
:101CF000F64F2081822F6C2D0E945436492FE92FF8
:101D0000F0E0E75DF64F808181111CC02830D1F0F2
:101D10008881F801208130E0A82FB0E0F90198E037
:101D2000899FE00DF11D1124E25DF64F80810E9434
:101D30005436491307C0B901CD010E94410E8D2DC3
:101D40000E943D0D888190E02091BC0130E0281B6D
:101D5000390B2F5F3F4F23303105C0F4F80160810C
:101D600070E02091BB0130E0261B370B2F5F3F4F07
:101D70002330310558F405C0F801608170E0888196
:101D800090E00E94410E8D2D0E943D0D0F5F1F4F70
:101D90002196D394F0E1DF1296CFDF91CF911F917E
:101DA0000F91FF90EF90DF90CF9008950F931F93C6
:101DB000CF93DF938091A80481112EC000E010E042
:101DC000C0E0D0E08091BC019801280F311DC9010D
:101DD00001972091BB01BE01620F711D6150710915
:101DE000FC0123E0EE0FFF1F2A95E1F7E60FF71F36
:101DF000E25DF64F20812150263028F40E94410EEA
:101E00008EE20E9450192196C330D105D9F60F5F9A
:101E10001F4F03301105A1F66091BB0170E0809166
:101E2000BC0190E00E94410E80E4DF91CF911F91B0
:101E30000F910C945019AF92BF92CF92DF92EF9214
:101E4000FF920F931F93CF93DF938EE2E82E89E0EA
:101E5000F82EC0E0D0E09AE0B92E0C2F069506953A
:101E6000069598E0099F80011124C12CD12C8C2F5C
:101E70008770A82EB601CE010E94410EF601E00F38
:101E8000F11FEB51F74F808190E00A2C02C095952D
:101E900087950A94E2F780FF54C0F701EC0DFD1D11
:101EA0002081222309F44DC08FEF820F8630F8F491
:101EB0008091BB01E091BC0198E0E99FF001112401
:101EC000E80FF11DE25DF64F80816B2D0E945436C4
:101ED000392FE92FF0E0E75DF64F8081811109C0CD
:101EE000822F0E94543693132CC08EE22BC02830D0
:101EF000E1F085EF820F8630D0F08BEE820F8630D6
:101F0000C0F081EE820F8830B0F087ED820F86300E
:101F1000B0F08DEC820F863080F083EC820F86303B
:101F200070F02754263048F00CC083E20BC085E2E5
:101F300009C08BE207C08FE305C08CE703C086E2CF
:101F400001C080E20E9450198FEFC81AD80A98E0A9
:101F5000C916D10409F08ECF219688E0E80EF11C55
:101F6000C531D10509F079CFDF91CF911F910F9144
:101F7000FF90EF90DF90CF90BF90AF9008952EE24A
:101F800039E080E090E0F901E80FF91F1082019636
:101F900088309105C1F7285F3F4F89E0263D38071B
:101FA00081F708950F931F93CF93DF9320E030E0E4
:101FB00080E090E0AC01420F531FFA01E153FC4F67
:101FC0001082FA01E95FFC4F10820196883091057A
:101FD00089F7285F3F4F283A310551F725EE38E061
:101FE00080E090E0F901E80FF91F10820196883037
:101FF0009105C1F7285F3F4F48E02D3F340781F737
:10200000EFEDF2E027EB32E08FE892E0C7E6D2E0B6
:102010006FE372E01192D9011D929D01DC011D92C6
:10202000CD011992DB011D92BD01B3E0E730FB0742
:1020300089F7E7E8F4E047E754E027E934E08FEA7E
:1020400093E0CFEBD3E00BEA11E01192DA011D929D
:10205000AD01D9011D929D01DC011D92CD011992A6
:10206000D8011D928D01B4E0E739FB0771F7DF91CC
:10207000CF911F910F910895E82FE695E695E6958B
:1020800098E0E99FF0011124E60FF11DEB51F74FA5
:10209000282F277081E090E0A0E0B0E004C0880F16
:1020A000991FAA1FBB1F2A95D2F72081822B8083FC
:1020B0000895E5EBF4E0119284E0EB3CF807D9F7E2
:1020C0000895CF93DF931F92CDB7DEB789830E9427
:1020D0005910A5EBB4E089812AE0829FC001112448
:1020E00020E030E0F901E80FF91FE75EF94FE491D5
:1020F000ED932F5F3F4F2F303105A1F70F90DF9108
:10210000CF9108952F923F924F925F926F927F925C
:102110008F929F92AF92BF92CF92DF92EF92FF92F7
:102120000F931F93CF93DF93CDB7DEB72C970FB6E6
:10213000F894DEBF0FBECDBF27E834E03A83298391
:1021400017E7C12E14E0D12E0FEB202E03E0302E26
:1021500007E914E031E03E8385E0882E912CA12C24
:10216000B12CD8018C91811194C00E94CD3520E80A
:1021700030E040E050E00E94F135672B682B692B7E
:1021800009F02DC48091BB01E091BC01B8E0EB9F48
:10219000F0011124E80FF11DE25DF64F808190916E
:1021A000E60991111DC090E001976AE070E00E947D
:1021B0006E369C0162E070E00E946E36281B390B7F
:1021C00037FF02C02F5F3F4F35952795C901019614
:1021D00062E070E00E946E369C01220F331F02C045
:1021E00020E030E0F901E951F64F8081811102C011
:1021F0002F5F3F4FF901EE51F64FF080F901E652A3
:10220000F64F6081062E000C770B6F197109F7FCF1
:1022100073956F5F7F4F072E000C880B990B2A87F1
:1022200039870E945A1AF60EE981FA81F0822A85CE
:102230003985F901E252F64FF080F901EA52F64F82
:102240006081062E000C770B6F197109F7FC7395EE
:102250006F5F7F4F072E000C880B990B0E945A1A54
:102260004F2D460FD6014C93E981FA81608128E019
:10227000629FF0011124E40FF11DE153FC4F8081B6
:102280008111ADC3802FA7E9B4E08A1B0E94B1225F
:10229000A6C3F1019081892F881F8827881F8F5F2F
:1022A00092FF04C09091070990FD99C31D821C8282
:1022B000282F30E038872F838C819D81AF81B885AE
:1022C0008A179B070CF08BC3D8018C9190EC980F68
:1022D000903A08F443C18F718531C9F58091BB01F3
:1022E000E091BC01B8E0EB9FF0011124E80FF11D73
:1022F000E25DF64F2081283009F48BC0F601808121
:10230000A981BA81EC91B8E0EB9FF0011124E80FAC
:10231000F11DE25DF64F8081FAE0FF2E6F2D0E94E5
:102320005436392F822F0E945436391372C0F1016E
:10233000808183FF6EC00E94932482E10E9461101D
:10234000F092A704D1018C91877F8C930BC18931C6
:1023500009F05FC021E0F12C65E0822F2A870E94FE
:10236000ED252A8597FF02C081509F4F892F990F35
:10237000990BFC01EA56FB4F80818F71893109F47A
:10238000F3942F5F253041F7FF2009F442C00E94EB
:10239000CD3522E030E040E050E00E94F135672B7F
:1023A000682B692BB1F50E94CD352AE030E040E082
:1023B00050E00E94F1358AE0860F482E512C612CA6
:1023C000712C8091440190914501A0914601B091FA
:1023D0004701481659066A067B060CF0C3C00E94E6
:1023E000932483E10E946110809144019091450102
:1023F000A0914601B091470184199509A609B70932
:102400008093440190934501A0934601B093470106
:10241000A9C0F8018081805E803210F42FEF01C0E6
:1024200021E0A981BA813C91A091BC01A31718F5C4
:10243000422F022E000C550B832F90E0841B950B2E
:10244000F601608173E0880F991F7A95E1F7860F96
:10245000911DFC01E153FC4F608161110CC0FC0136
:10246000E25DF64F808181508A3128F422E030E02D
:10247000241B350B24C0F60140815091BB01541739
:1024800008F5622F022E000C770B842F90E0861B3C
:10249000970BF8E03F9F800D911D1124FC01E15343
:1024A000FC4FE081E1110EC0FC01E25DF64F80813E
:1024B00081508A3138F423E030E0261B370B3C870B
:1024C0002B8750C03A17F8F4A22F022E000CBB0B3A
:1024D000CD01830F911D63E0880F991F6A95E1F785
:1024E000840F911DFC01E153FC4F608161110BC011
:1024F000FC01E25DF64F808181508A3120F4BD01FC
:102500006E5F7F4F2DC04517E8F4622F220F770BC7
:10251000CB01840F911DA8E03A9F800D911D1124DD
:10252000FC01E153FC4F208121110CC0FC01E25D54
:10253000F64F808181508A3128F4FB013396FC8765
:10254000EB8710C00E94CD3524E030E040E050E041
:102550000E94F1359B012F5F3F4FB1CF65E070E0E6
:102560007C876B87D1018C9185FF0DC00E94CD3592
:1025700023E030E040E050E00E94F135672B682B0B
:10258000692B09F458C22B853C8521503109243030
:10259000310508F01DC2AB85BC85A170BB278B85BA
:1025A0009C8502978A9FA02D1124217033278B854B
:1025B0009C850397289F902D1124E981FA818081C1
:1025C000682F70E0AB014A0F511DA7FD5A9520916D
:1025D000BC0130E04217530709F0B4C1F601208175
:1025E000E92F092E000CFF0BE20FF11D2091BB011A
:1025F00030E0E217F30709F0A5C12C813D81232BC0
:1026000009F0E6C1D801EC91EF71EB83B7E0EB9FE5
:10261000F00111249F012B5F364F7901F9013396A8
:1026200064909091AA0180914801890F880F681ADF
:102630000E94CD3524E630E040E050E00E94F135C4
:10264000562E61E084E00E944126882389F090E0C4
:102650000197FC01EB5DFD4FE081EF70F0E0E75E7C
:10266000F84FE491DC01AF50BE4F4C904E0E01C0CC
:10267000412C561408F0ACC1F701329624913197E1
:10268000649130E040E050E070E080E090E00E9433
:102690007E1A9B01AC01642D7DEF7603D0011124DD
:1026A000AC59BF4F0E941B3624E630E040E050E0BA
:1026B0000E94F13529013A0155246624772480913E
:1026C000440190914501A0914601B09147014816FF
:1026D00059066A067B064CF07B8073947394709263
:1026E000FE0882E08093FD0873C10E9493248091CC
:1026F000440190914501A0914601B0914701841990
:102700009509A609B7098093440190934501A093C8
:102710004601B0934701D1018C9183FF59C1EB81F0
:102720008E2F90E0FC013597E231F10508F050C1A1
:10273000E358FF4F0C9482360E94CD35A5019401D9
:102740000E94F135672B682B692B09F041C18DE0A0
:102750000E9461100E94CD35A50194010E94F135BF
:102760006C5F609300090E94CD3524E130E040E0C9
:1027700050E00E94F135672B682B692B09F014C2D9
:1027800010924401109245011092460110924701A7
:1027900081E08093FE0808C280910101843008F036
:1027A00057C185E00E949F28882309F451C110C1B8
:1027B0008091A6019091A701A091A801B091A901D3
:1027C000C397A105B1050CF403C10E94CD352AE0E1
:1027D00030E040E050E00E94F135672B682B692B18
:1027E00009F04AC1F5C061E084E00E9441268823D7
:1027F00009F4EEC0E82EF12CF1E0EF1AF108F70130
:10280000E354FE4F808183FF5BC1E2C00E94CD355F
:1028100022E030E040E050E00E94F135672B682B69
:10282000692B09F0D5C00E94CD3524E130E040E0AD
:1028300050E00E94F135E62FF0E0E354FE4F808136
:1028400084FDC6C08FE069870E9461106985862F6C
:102850000E94641CD8018C9180548C93A5C18091F6
:10286000FF088111B5C081E10E94611081E0809371
:10287000A5019AC180914801863008F4A9C00E9440
:10288000CD35A50194010E94F135672B682B692B8A
:1028900009F424C19DC00E94CD352AE030E040E01B
:1028A00050E00E94F13564307105810591050CF00E
:1028B0008FC085E10E9461100E94CD3523E030E099
:1028C00040E050E00E94F135F62E60FF2DC080916F
:1028D000440190914501A0914601B09147018A3091
:1028E0009105A105B1050CF45FC10197A109B109DA
:1028F0008093440190934501A0934601B093470112
:102900008091400190914101A0914201B091430119
:102910000197A109B1098093400190934101A093CF
:102920004201B093430140C185E00E949F289091ED
:102930000101882309F434C1963008F031C1F11047
:10294000C6CF32C1F80120812F712F3009F440C069
:1029500045315105E8F5F601B0812B2F30E0F90142
:10296000E90FF11D97FDFA95E830F10588F5440F60
:10297000551F440F551F440F551F4E0F5F1FFA017F
:10298000E153FC4FE081E11123C0FA01E25DF64F13
:10299000408141504A31E0F443E0660F771F4A9589
:1029A000E1F7620F731FFB01E153FC4F1082A80F88
:1029B000E981FA81A0839B0FF6019083F8E0AF9F35
:1029C000D0011124A90FB11DA153BC4F2E812C930E
:1029D0006C817D816F5F7F4F7D836C836DCC0F5FDA
:1029E0001F4FE981FA813196FA83E983FFEFCF1A0D
:1029F000DF0A2E812F5F2E833FEF231A330A213106
:102A000009F0AFCB2C960FB6F894DEBF0FBECDBF4A
:102A1000DF91CF911F910F91FF90EF90DF90CF90BA
:102A2000BF90AF909F908F907F906F905F904F90EE
:102A30003F902F9008950E94CD3524E030E040E093
:102A400050E00E94F135DB011196BC87AB879BCD2E
:102A50000E94CD35A50194010E94F135672B682BAA
:102A6000692B09F0B5CF8EE00E94611080910101C1
:102A700081508093010198C08FE00E9461104090C6
:102A8000A6015090A7016090A8017090A9010E9432
:102A9000CD3522E330E040E050E00E94F135461AA7
:102AA000570A680A790A4092A6015092A7016092DB
:102AB000A8017092A901F80180818054808374C0BC
:102AC00089E00E949F28811183CF80E10E946110DC
:102AD000F701EF50FE4F80818150F0CF84E10E94DA
:102AE00061106091490170914A0180914B01909170
:102AF0004C0122E030E040E050E00E94F1352093AC
:102B0000490130934A0140934B0150934C01DA0143
:102B1000C9010197A109B1098093030990930409A0
:102B2000A0930509B09306098091480181508093D4
:102B300048014090400150904101609042017090E6
:102B40004301F3E04F1A5108610871080E94CD3526
:102B500027E030E040E050E00E94F135461A570A85
:102B6000680A790A40924001509241016092420104
:102B7000709243018091440190914501A0914601DA
:102B8000B0914701481659066A067B066CF44092DC
:102B9000440150924501609246017092470104C081
:102BA000915090930101CBCE0E94932411CFCF93EB
:102BB000DF93CDB7DEB72D970FB6F894DEBF0FBE0B
:102BC000CDBF9DE0EAE6F1E0DE01119601900D92A5
:102BD0009A95E1F790E070E0FE01E80FF91F4111CE
:102BE00018C08081680F711D33E0660F771F3A951A
:102BF000E1F76F567D4FADEAB4E080E090E0FB0175
:102C0000E80FF91FE491ED93019688309105B9F72B
:102C100026C0258105973EE0389FF001399FF00DD1
:102C200011246E0F7F1FFB01ED5FFE4F808190E04E
:102C3000820F911D23E0880F991F2A95E1F78F5687
:102C40009D4FADEAB4E020E030E0FC01E20FF31F5D
:102C5000E491ED932F5F3F4F28303105B1F72D966A
:102C60000FB6F894DEBF0FBECDBFDF91CF910895B0
:102C70000F931F93CF93DF932091BC018091BB01F1
:102C800090E048E0249F90011124D901A80FB91FBA
:102C900060E070E01997A901485051099C012F5F2D
:102CA0003F4F98E06831710531F1FD01E60FF71FE4
:102CB000E25DF64FEA01C60FD71FC25DD64F8F0106
:102CC0000C1B1D0B201731079CF0808113EC180F93
:102CD000163010F4885209C0843411F4908306C071
:102CE00019EB180F163010F4825380833196E7CF1A
:102CF000685F7F4FD7CFDF91CF911F910F910895DC
:102D0000CF92DF92EF92FF920F931F93CF93DF93B7
:102D10006C017A018B01C0E0D0E0CE15DF0589F0AF
:102D2000D8016D918D01D601ED91FC910190F0815A
:102D3000E02DC6010995892B11F47E0102C0219670
:102D4000ECCFC701DF91CF911F910F91FF90EF90D2
:102D5000DF90CF9008954F925F927F928F929F92D3
:102D6000AF92BF92CF92DF92EF92FF920F931F9399
:102D7000CF93DF9300D000D0CDB7DEB729011C2D53
:102D8000A02EB12C9C012A0D3B1D121613060CF02F
:102D9000B3C1803891050CF0AFC1FB01EE0DF11D00
:102DA0001E161F060CF0A8C1603471050CF0A4C1FA
:102DB0004115510509F4A0C1E62FE770FE2EFB0175
:102DC00077FD3796A3E0F595E795AA95E1F7AE2F45
:102DD00077FF04C0FF2011F0AFEFAE0F97FF05C0E3
:102DE000EE27FF27E81BF90B02C0E0E0F0E02038F7
:102DF000310524F020E8722E781A01C0702E7E1A58
:102E00006A2F0A2E000C770BAF3F1CF4D62ED094FD
:102E100001C0D12C21E03E2D377009F420E0E6946A
:102E2000E694E694E20E6E0D711D693071051CF09A
:102E300028E0E22EEA1AED183D2D3A0FDC0120E8D9
:102E40003203A00DB11D1124AE0FBF1FD09EE00DA7
:102E5000F11D11244E0F5F1F81E090E04C010F2CFB
:102E600002C0880C991C0A94E2F7133009F403C1DC
:102E7000A0F4113009F4B5C0123009F03DC18FEF54
:102E8000889DB001899D700D1124609570957C839B
:102E90006B835C802E2D230F2BC01A3F31F01B3F1C
:102EA00009F02AC12E2D230F88C02E2D230F51C0CB
:102EB000FA01E00FF11FE491E89D6001E99DD00C5B
:102EC0001124DA82C98237FD07C0FC01E080EE2DB3
:102ED000E623CE2AFC01C082F11013C00F5F1F4F02
:102EE0000196071528F33F5F4A0D5B1DA058BF4FA1
:102EF000321709F401C1CD018B519B4F00E010E066
:102F0000F0CF37305CF7FC01E058FF4FD080D52080
:102F1000CA80DC28D082E2CFFA01E60FF71FE491E5
:102F2000E89D8001E99D100D11241A83098337FD66
:102F300004C0FC011081012B0083F11013C06F5FEE
:102F40007F4F0196671540F33F5F4A0D5B1DA05808
:102F5000BF4F321709F4D0C0CD018B519B4F60E0B9
:102F600070E0F0CF37305CF78C0100581F4FF8014C
:102F7000E080EA81EE2AF801E082E1CFFA01E00F79
:102F8000F11FE491E89DC001E99D900D11249A8301
:102F9000898337FD05C08095FB019081892380835B
:102FA000F11014C00F5F1F4F6F5F7F4F071530F395
:102FB0003F5F4A0D5B1DA058BF4F321709F49CC0FC
:102FC000BD016B517B4F00E010E0F0CF373054F77C
:102FD000FB01E058FF4F8A8180959081892380838F
:102FE000E1CFC2018E0F9F1F2E2D230F321709F440
:102FF00083C0BD016B517B4F6B0100E010E00715F2
:1030000090F5FC01E00FF11FE491E89DB001E99D0E
:10301000700D1124609570957C836B83FA01E00F2D
:10302000F11FE491E89D2001E99D500C11245A8282
:10303000498237FD05C0F60170816723462A408228
:10304000FF2059F037304CF4F601E058FF4F708103
:103050006C8167237A81672B60830F5F1F4FFFEFBF
:10306000CF1ADF0ACCCF3F5F4A0D5B1D8A0D9B1D37
:10307000A058BF4FBBCFC72CD12CE40FF51FAB51CD
:10308000BB4F60E870E06C197D09AC18BD08850184
:10309000000F111F572D2E2DCF93DF93ED01EF96CB
:1030A000EF962296A590C590FF2059F0A89C50015C
:1030B000C89C600137302CF4E880D094ED20EB28D8
:1030C000E99233233AF0EC90C094EC20EA28ED9298
:1030D0000C946B1811965A9529F72A9551F0572D93
:1030E00033951124E00FF11DA60FB11DC60FD11DA0
:1030F000D9CFDF91CF9111240F900F900F900F90A7
:10310000DF91CF911F910F91FF90EF90DF90CF90C3
:10311000BF90AF909F908F907F905F904F90089559
:103120000895CF92DF92EF920F93CF93DF93FC013C
:1031300026816A3031F4858184836185260F268358
:1031400073C0EC01A48190EE960F9F3508F067C024
:1031500061E0620F2781062E000C770B0A2E000C0F
:10316000BB0BE0E2F7E0213059F50491E1E2F7E032
:10317000E490992301F1E02FF0E02E2D269526957D
:103180002695422F50E021E030E08E2D877011F41B
:1031900020E030E0240F351FE29F6001E39FD00C58
:1031A000F29FD00C11249C9DA0019D9D500D1124D7
:1031B0004E5D584F02C042E257E092E0C92E2AC04D
:1031C0000491E1E2F7E0E490992301F1E02FF0E0CF
:1031D0002E2D269526952695422F50E021E030E0B1
:1031E0008E2D877011F420E030E0240F351FE29F10
:1031F0006001E39FD00CF29FD00C11249C9DA00194
:103200009D9D500D11244E5D584F02C042E257E083
:103210008BEFC82E20E030E0CD010E94AB168885F0
:103220008B5F9C81890F8C8381E090E0DF91CF914F
:103230000F91EF90DF90CF900895089580E090E097
:1032400008950E94AB362091DB04282329F4909145
:10325000DA04982381E009F480E00895E5EEF4E0D3
:1032600080E0A0E0B8E000800EBC8111012C119735
:10327000A0FDFDCF0192B9F70DB40895009769F054
:10328000FC0101900020E9F73197AF01481B590B71
:10329000BC018BEC94E00C94801680E090E00895E3
:1032A000E091CB04F091CC040190F081E02D682FE7
:1032B0008BEC94E0099480E0E5EEF4E081118FEF6F
:1032C000002481938193819381930394D1F708958E
:1032D0008F929F92AF92BF920F931F93CF93DF93E2
:1032E000CDB7DEB7A1970FB6F894DEBF0FBECDBF46
:1032F00019A2423008F44AE08E010F5D1F4F842E60
:10330000912CA12CB12CA50194010E942336E62F0B
:10331000B901CA0101501109EA3014F4E05D01C09D
:10332000E95CD801EC93232B242B252B61F7C801F2
:103330000E943E19A1960FB6F894DEBF0FBECDBF16
:10334000DF91CF911F910F91BF90AF909F908F9081
:1033500008950F931F93CF93DF938C01C0E0D0E0CB
:10336000F801EC0FFD1F6491662371F0E091CB042E
:10337000F091CC040190F081E02D8BEC94E0099564
:10338000892B11F02196ECCFCE01DF91CF911F91C7
:103390000F910895CF92DF92EF92FF92CF93DF9338
:1033A00097FF19C06B017C018DE20E945019EC015E
:1033B00066277727CB016C197D098E099F094AE0A2
:1033C0000E9468198C0F9D1FDF91CF91FF90EF90A5
:1033D000DF90CF9008954AE0DF91CF91FF90EF907A
:1033E000DF90CF900C946819CF92DF92EF92FF920A
:1033F0000F931F93CF93DF93EB017C01E40EF11C3D
:103400008B01085F1F4F70E12DEFC22E28E0D22EF6
:103410008E159F053CF59E01D7FF1BC020E030E0D4
:1034200018C024173507E4F48038910580F4A90109
:10343000F601749FD001A0781124A80F4770E40F03
:10344000F11D6491AB51BB4F4C91642B6C932F5F7A
:103450003F4FA8010134110524F340E450E0E1CFCF
:103460000196D6CFDF91CF911F910F91FF90EF90F2
:10347000DF90CF90089580E0482F50E0FA01EB54A0
:10348000FB4F9081992349F08F5FF6CF863178F416
:10349000F901EB54FB4F90838F5F282F30E0F90147
:1034A000E41BF50BE355FB4F90819111EFCF109288
:1034B000CA040895CF93DF9300D000D0CDB7DEB714
:1034C000611571058105910579F09B01AC01698356
:1034D0003A834B835C830E94CD3529813A814B81AD
:1034E0005C810E94F13503C060E070E0CB010F9079
:1034F0000F900F900F90DF91CF910895CF92DF92B0
:10350000EF92FF920F931F9362177307840795073B
:1035100084F489019A016B017C01C901B8016C191D
:103520007D098E099F090E945A1A6C0D7D1D8E1D02
:103530009F1D1F910F91FF90EF90DF90CF90089506
:103540003FB7F8948091E1049091E204A091E304E4
:10355000B091E40426B5A89B05C02F3F19F0019651
:10356000A11DB11D3FBFBA2FA92F982F8827820F09
:10357000911DA11DB11DBC01CD0142E0660F771F59
:10358000881F991F4A95D1F708958F929F92AF9205
:10359000BF92CF92DF92EF92FF926B017C010E946B
:1035A000A01A4B015C01C114D104E104F104F1F053
:1035B0000E94A01ADC01CB0188199909AA09BB094C
:1035C000883E9340A105B10570F321E0C21AD108ED
:1035D000E108F10888EE880E83E0981EA11CB11C5A
:1035E000C114D104E104F10419F7DDCFFF90EF908D
:1035F000DF90CF90BF90AF909F908F9008951F92D3
:103600000F920FB60F9211242F933F938F939F9396
:10361000AF93BF938091A9049091AA04A091AB04A9
:10362000B091AC043091E00423E0230F2D3720F457
:103630000196A11DB11D05C026E8230F0296A11D0C
:10364000B11D2093E0048093A9049093AA04A09351
:10365000AB04B093AC048091E1049091E204A0919A
:10366000E304B091E4040196A11DB11D8093E1042F
:103670009093E204A093E304B093E404BF91AF916C
:103680009F918F913F912F910F900FBE0F901F90A0
:103690001895BC0180E090E00C94C51A8FB180951C
:1036A000807F669B88601C9B846008950E945B19E4
:1036B0008091A804811109C00E941B0F0E94D60EA0
:1036C0000E940F1F0E94500E02C00E94D60E85E07D
:1036D0000E9461100E949A220E942E190E943D238E
:1036E0009091A704992351F00E94CD3524E030E059
:1036F00040E050E00E94F13581E0860F0895EF929E
:10370000FF921F93CF93DF931F92CDB7DEB7182F91
:103710008FEF860F69830E943924E12FF0E0ED5F7F
:10372000FE4FE2A58E2F90E069818930910508F067
:1037300064C0FC01E157FF4F70E00C948236615089
:103740007109FB01E956FB4F1082FB01E958FB4F61
:103750008081FB01E957FB4FE08198E0E99FF00190
:103760001124E80FF11DE153FC4F108246C0FB010C
:10377000E254FC4F808187FF02C08F773DC0846098
:103780003BC0FB01E254FC4F8081806235C0FB01ED
:10379000E254FC4F808180642FC0FB01EA56FB4F4E
:1037A0007F016081162F107E0E94CD352AE130E026
:1037B00040E050E00E94F135610FF70160831DC0C9
:1037C000FB01E254FC4F808182FF02C08B7F14C05A
:1037D000806812C0FB01EA56FB4F80818F718058D0
:1037E0000BC0FB01E255FC4F8081869505C0FB01B3
:1037F000E254FC4F8081877F80830F90DF91CF91CF
:103800001F91FF90EF900895AF92BF92CF92EF92E9
:10381000FF920F931F93CF93DF93142FC62FD0E007
:10382000A82EB12CFE0198E0899FE00DF11D112416
:10383000E95FFC4F9081992339F040E00E943F25D9
:10384000F82E8823B9F102C045E0F42E0E94E12A47
:10385000282F8F2DFF0C990B019763E070E00E94D9
:103860006E368A0D9B1D33E0880F991F3A95E1F75C
:1038700081509D4FC80FD91F6C0F7D1FEB01219701
:1038800081E0820F8883822F90E0FC01E152FD4F9E
:103890001083FC01E954FD4F21E02083FC01E15736
:1038A000FD4F0083FC01E959FD4FE082FC01E15C22
:1038B000FD4FC082DF91CF911F910F91FF90EF904C
:1038C000CF90BF90AF90089590E0FC01EB5DFD4F6D
:1038D0001082FC01E55FFD4F1082FC01EF50FE4FAE
:1038E0001082FC01E952FE4F1082FC01E354FE4FAE
:1038F0001082809102018150809302010C941F2A52
:103900002FEF280F253018F49BEF980F23C02AEFD4
:10391000280F2930A0F021EF280F233090F08231BA
:1039200091F02DEE280F223080F0853181F02AEEC3
:10393000280F293070F08F3168F098E00BC091E0CB
:1039400009C093E007C094E005C095E003C096E08D
:1039500001C097E0892F08954F925F926F927F92F6
:103960008F929F92AF92BF92DF92EF92FF920F934E
:103970001F93CF93DF9307E914E0C0E0D0E08AE023
:10398000882E912CA12CB12C94E0E92EF12CF80179
:1039900080818054803208F04AC0FE01E957FB4F15
:1039A000408150E08091BC019A01281B310937FF0A
:1039B00003C0319521953109FE01E958FB4F808103
:1039C00090E04091BB01BC01641B7109AB0177FF22
:1039D00003C0519541955109420F531F4330510582
:1039E00034F50E94CD352B013C0180E00E949F28D8
:1039F000D82EC301B201A50194010E94F1352B011B
:103A00003C012D2D30E0B9016F5F7F4FC7010E944F
:103A10006E36CB01770FAA0BBB0B481659066A0608
:103A20007B062CF4F80180818F71805E8083219663
:103A30000F5F1F4FC031D10509F0A9CFDF91CF91A2
:103A40001F910F91FF90EF90DF90BF90AF909F90EC
:103A50008F907F906F905F904F900895CF92DF92FC
:103A6000EF92FF92CF938091070990910809A0915E
:103A70000909B0910A090196A11DB11D809307099A
:103A800090930809A0930909B0930A09C0904901CD
:103A9000D0904A01E0904B01F0904C0180910309D5
:103AA00090910409A0910509B09106098C159D0516
:103AB000AE05BF050CF44CC0C0914801C53108F0FB
:103AC00047C086E00E946110CF5FC0934801CC0CD4
:103AD000DD1CEE1CFF1CC0924901D0924A01E0920D
:103AE0004B01F0924C010E94CD3528E030E040E0DF
:103AF00050E00E94F13583E0860F90E0A0E0B0E056
:103B000040914401509145016091460170914701F7
:103B1000480F591F6A1F7B1F409344015093450172
:103B200060934601709347014091400150914101DB
:103B30006091420170914301840F951FA61FB71F2A
:103B40008093400190934101A0934201B0934301BF
:103B5000C0904401D0904501E0904601F0904701AB
:103B60008091400190914101A0914201B0914301A7
:103B7000C816D906EA06FB069CF52091480186E1A5
:103B800090E0821B910963E070E00E946E369B0119
:103B90002F5F3F4F032E000C440B550B609107091C
:103BA000709108098091090990910A090E94F135E4
:103BB000672B682B692BA1F482E00E949F289FEF5E
:103BC000C91AD90AE90AF90AC80ED11CE11CF11C6C
:103BD000C0924401D0924501E0924601F092470123
:103BE0008091A704882319F081508093A7048091C5
:103BF000A804882319F081508093A80480910209B9
:103C0000882319F08150809302098091010988234B
:103C100019F081508093010980910009882319F0DF
:103C20008150809300098091FF08882319F081500A
:103C30008093FF0881E00E949F28882369F00E94FA
:103C4000CD352CE030E040E050E00E94F135672BAC
:103C5000682B692B09F4A2C083E00E949F28C090C2
:103C60003C01D0903D01E0903E01F0903F0191E099
:103C7000C91AD108E108F108C80ED11CE11CF11CD9
:103C8000C0923C01D0923D01E0923E01F0923F0192
:103C900061E087E00E944126882321F08091070996
:103CA00080FF7FC062E087E00E9441268823A1F068
:103CB00060910709709108098091090990910A099A
:103CC00022E030E040E050E00E94F13561307105C3
:103CD0008105910509F473C080913C0190913D01EB
:103CE000A0913E01B0913F01CC97A105B105DCF058
:103CF0006091400170914101809142019091430196
:103D000024E030E040E050E00E94F1358091440131
:103D100090914501A0914601B091470128173907BC
:103D20004A075B076CF083E884BD8FEF87BD81EFA6
:103D3000809380001092880082E380938A000BC0F9
:103D400083E884BD8FEF87BD81EF80938000109260
:103D5000880010928A0080913C0190913D01A091D1
:103D60003E01B0913F01181619061A061B062CF0E9
:103D70001092FE0882E08093FD08E12CF12C8AE08D
:103D80000E949F2890E0880F991FE816F9065CF5BD
:103D90000E9438168FEFE81AF80AF1CF0E94202B04
:103DA0005BCF91E0C91AD108E108F108C0923C014B
:103DB000D0923D01E0923E01F0923F0173CF80919D
:103DC0003C0190913D01A0913E01B0913F010197CE
:103DD000A109B10980933C0190933D01A0933E015C
:103DE000B0933F0179CFCF91FF90EF90DF90CF90CC
:103DF000089590E0FC01E152FD4F1082FC01E9546E
:103E0000FD4F1082FC01E157FD4F1082FC01E95982
:103E1000FD4F1082FC01E15CFD4F108208954F922E
:103E20005F926F927F929F92AF92BF92CF92DF92FA
:103E3000EF92FF920F931F93CF93DF9387E0C82EEB
:103E400083E0D82E00E010E098E0492E512C612C40
:103E5000712CE02EE694E694E694E8E0EE9E700184
:103E60001124C0E0D0E0F02FF7709F2EFE01EE0D80
:103E7000FF1DEB51F74F808190E0092C02C0959512
:103E800087950A94E2F780FF23C05601AC0EBD1E51
:103E9000D5018C918823E1F0BE01C8010E94410E3A
:103EA000D501EC91F0E0E252FD4FE08180910209F2
:103EB0008823A9F10E94CD35A30192010E94F1351A
:103EC0006F5FE62FF0E0ED53F64F84910E9450199A
:103ED0002196C830D10551F60F5F1F4FB8E0CB0EC9
:103EE000D11C0531110509F0B4CF6091BB0170E020
:103EF0008091BC0190E00E94410E80E4DF91CF915F
:103F00001F910F91FF90EF90DF90CF90BF90AF90F7
:103F10009F907F906F905F904F900C9450196E2FF0
:103F200062956F70CECF6F927F928F929F92AF9279
:103F3000BF92CF92DF92EF92FF920F931F93CF9396
:103F4000DF931F92CDB7DEB728E0829FC001112416
:103F5000860F911D8C01095F1C4FF8018081811132
:103F600093C149830E94E12A91E0980FF801908360
:103F7000082F10E0C80189549D4F7C0181E0F701B2
:103F80008083C80181579D4F6C01FC011082C801DC
:103F900089599D4F5C01FC011082C801815C9D4FD5
:103FA0003C01FC011082498141111CC00E94CD35A9
:103FB00024E630E040E050E00E94F13540E0262F5A
:103FC00030E0842F90E0FC01E554F64FE4914F5F20
:103FD0006E17B8F3FC01E454F64FE491F0E02E17AD
:103FE0003F077CF750E0FA013197E830F10508F01F
:103FF0004BC1E856FF4F01521D4F0C94823680E1B1
:10400000F80180830E94CD3524E630E040E050E0A6
:104010000E94F13580914D01680FF70134C10E9473
:10402000CD3525E030E040E050E00E94F135672BCF
:10403000682B692B11F481E201C080E2F8018083D2
:104040000E94CD3522E030E040E050E00E94F135A2
:104050006F5FF7016083F30180818068FAC00E947E
:10406000CD3528E030E040E050E00E94F13580E3BB
:10407000860FF8018083643018F481E0F7010EC0E8
:104080000E94CD352DE030E040E050E00E94F13557
:104090006D5FF7016083F3018081806880830E94F7
:1040A000CD3526E030E040E050E00E94F13561116E
:1040B0001AC00E94CD3523E030E040E050E00E947D
:1040C000F13511E0160F612F70E06F5F7F4F072E03
:1040D000000C880B990B0E945A1AF6016083161B7C
:1040E000F5011083D1C0613009F0CEC00E94CD35FA
:1040F00023E030E040E050E00E94F13511E0160F7F
:10410000612F70E06F5F7F4F072E000C880B990BBB
:104110000E945A1A862F8195F6018083611BF50152
:1041200087C00E94CD3527E030E040E050E00E949B
:10413000F135B62E605CF801608381E0F701808381
:104140000E94CD3526E030E040E050E00E94F1359D
:1041500061110CC00E94CD3523E030E040E050E01A
:104160000E94F1356F5FF601608311C0613079F410
:104170000E94CD3523E030E040E050E00E94F13570
:104180006095F6016083F301808180648083B110C3
:104190007BC0F301808188605CC080E00E94ED2AD2
:1041A000805B04C081E00E94ED2A805AF801808380
:1041B00081E0F70180834FCF0E94CD352BE030E0C6
:1041C00040E050E00E94F13580E7860FF8018083DF
:1041D00081E0F7018083E62FF0E0ED5FFE4F848DF4
:1041E000843049F018F4813089F14EC0863019F0DE
:1041F000873001F149C00E94CD3522E0822E912CFA
:10420000A12CB12CA50194010E94F135611108C0C7
:104210000E94CD35A50194010E94F1356F5F32C037
:104220000E94CD35A50194010E94F1356095F601FB
:1042300060830CC00E94CD3522E030E040E050E0C9
:104240000E94F135672B682B692BF1F4F301808113
:104250008064808319C00E94CD352AE030E040E0C0
:1042600050E00E94F1356058F801608381E0F70169
:1042700080830E94CD3524E030E040E050E00E9491
:10428000F1356D5FF60160830F90DF91CF911F9143
:104290000F91FF90EF90DF90CF90BF90AF909F90E5
:1042A0008F907F906F9008953F924F925F926F92A0
:1042B0007F928F929F92AF92BF92CF92DF92EF92B6
:1042C000FF920F931F93CF93DF9387EEE82E89E041
:1042D000F82E6701C0E0D0E0F60181916F018130D6
:1042E00029F02196C430D105B9F74CC000E010E0A8
:1042F000CE018652964F2C01FE01EE51F64F3F0142
:10430000CE018A52964F5C01FE01E252F64F4F01F8
:104310008091E609F7E08F9FC00111240296801773
:104320009107FCF2F2012081022E000C330B2F5F6B
:104330003F4F032E000C440B550BF3016081062EFA
:10434000000C770B880B990B0E947E1A362EF50114
:104350002081022E000C330B2F5F3F4F032E000CE9
:10436000440B550BF4016081062E000C770B880B73
:10437000990B0E947E1A40E0832D0E94931F0F5FCD
:104380001F4FC6CF80914D0163E00E9454369923A0
:1043900041F090914D0180913B01981708F042C087
:1043A000B7C0C0E0D0E0F70181917F018130A9F56D
:1043B000FE01E652F64F2081022E000C330B2F5FD8
:1043C0003F4F032E000C440B550BFE01EE51F64FF0
:1043D0006081062E000C770B880B990B0E947E1AC9
:1043E000162FFE01EA52F64F2081022E000C330BED
:1043F0002F5F3F4F032E000C440B550BFE01E25282
:10440000F64F6081062E000C770B880B990B0E94EB
:104410007E1A42E0812F0E94931F2196C430D1055D
:1044200011F6B7CFE0910201F0E0EC5DFD4F808125
:10443000803909F46DC08091E60981110AC00E949B
:10444000CD3522E030E040E050E00E94F135660FCB
:1044500001C060E0E62FF0E0E951F64F8081811164
:1044600001C06F5FC62FD0E0FE01EE51F64F108104
:10447000FE01E652F64F6081062E000C770B611BA1
:10448000710917FD73956F5F7F4F072E000C880B26
:10449000990B0E945A1A160FFE01E252F64F008144
:1044A000CA52D64F6881062E000C770B601B71092B
:1044B00007FD73956F5F7F4F072E000C880B990BDC
:1044C0000E945A1AC02FC60F0E94E12A28E0129FAC
:1044D000F0011124EC0FF11DE95FFC4F91E0980F02
:1044E000908390E0FC01E152FD4F20E92083FC0124
:1044F000E954FD4F21E02083FC01E157FD4F10827C
:10450000FC01E959FD4F1082FC01E15CFD4F108276
:10451000DF91CF911F910F91FF90EF90DF90CF909F
:10452000BF90AF909F908F907F906F905F904F90D3
:104530003F9008958091BB01843038F081E08093F2
:10454000D0048093CF048FEF06C081E08093D00425
:104550008093CF0487E38093D10485EB94E00C949F
:104560003E19BF92CF92DF92EF92FF920F931F936B
:10457000CF93DF93182FF62EE42E60914D0123E0A8
:10458000260F665066310CF065E167FD60E02B3167
:104590000CF029E1022E000C330B440B550B062EB8
:1045A000000C770B880B990B0E947E1AB62E27E021
:1045B000629FC0011124FC01EB5FF64F6F01EF0118
:1045C0002696FE0194919F70933069F028F4913003
:1045D000B1F0923019F125C0953099F008F196307C
:1045E00001F503E01EC00E94CD3525E030E040E03B
:1045F00050E00E94F135672B682B692B79F001E0C0
:1046000010C00E94CD3525E030E040E050E00E942F
:10461000F135672B682B692B19F0F1CF02E001C04F
:1046200004E0812F90E0FC01E956FB4F20E2029F5D
:10463000B00C1124B082F601C490FC01E155FC4F8E
:10464000C082FE01C491FC01E154FC4FC07FC860F0
:10465000C08328E0F29EF0011124EE0DF11DE1531C
:10466000FC4F1F5F1083DF91CF911F910F91FF903F
:10467000EF90DF90CF90BF900895CF938091DA04B0
:104680008093DB040E944E1B8093DA0480E20E9438
:104690002319C82F80E80E9423198111C2E080E409
:1046A0000E9423198111C3E080E10E942319811126
:1046B000C4E088E00E9423198111C5E084E00E94D3
:1046C0002319811103C0CC23C9F201C0C6E00E94A6
:1046D00059108C2FCF9108954F925F926F927F92D5
:1046E0008F929F92AF92BF92CF92DF92EF92FF9202
:1046F0000F931F93CF93DF931F92CDB7DEB78091B7
:104700004D01811103C08FEF80934D018091A6016F
:104710009091A701A091A801B091A90140910B0926
:1047200050910C0960910D0970910E0948175907B5
:104730006A077B070CF08AC020914D0180930B091A
:1047400090930C09A0930D09B0930E0920930F09C3
:104750008BE0E82E89E0F82E670120E030E045E0AC
:104760002F5F3F4F86010B5F1F4FC801B9016530B6
:10477000710551F1F6014080518062807380FC0127
:1047800080809180A280B38084149504A604B7042D
:10479000BCF4F601A5E2B9E0542F01900D925A95B0
:1047A000E1F7FC01D601542F01900D925A95E1F7E3
:1047B000E5E2F9E0DC01542F01900D925A95E1F702
:1047C0006F5F7F4F0596D3CF68012530310541F6E5
:1047D00009E610E05801F5E0AF1AB108C8018E559E
:1047E000974F6C01F60161916F01C50169830E94C9
:1047F000DB356981681719F0C5010E94E335FFEFC9
:10480000AF1ABF0AA016B10669F785010B5F1F4FEB
:1048100002381105F9F64091A6015091A701609167
:10482000A8017091A90195E080E0F7010081118154
:1048300022813381041715072607370709F4892FCA
:10484000F5E0EF0EF11C915081F701C080E00F9070
:10485000DF91CF911F910F91FF90EF90DF90CF905C
:10486000BF90AF909F908F907F906F905F904F9090
:104870000895EF92FF920F931F93CF93DF93C82F6A
:104880008091A804811106C00E941B0F0E940F1F77
:104890000E94500ED0E0CE0189589B4F7C01FC0154
:1048A00060818E0109571B4FF8018081F8E06F9FEE
:1048B000B001112446E026E0829FC00111240E942D
:1048C000F4191092D204F701608170E0F801808140
:1048D00090E00E94410E8091A80481110FC0FE015A
:1048E000E154FC4F808186FD09C0C956DB4FE88149
:1048F000EF71F0E0E150F94F849101C080E20E9435
:1049000050190E942E1964E670E080E090E00E9449
:10491000C51A81E08093D204DF91CF911F910F914E
:10492000FF90EF9008958091A804811106C00E9425
:104930001B0F0E940F1F0E94500E6091BB018091BF
:10494000BC0128E0629FB001112446E026E0829F6E
:10495000C00111240E94F4191092D2046091BB018D
:1049600070E08091BC0190E00E94410E80E40E94C2
:1049700050190E942E1964E670E080E090E00E94D9
:10498000C51A81E08093D20408958F929F92AF92CE
:10499000BF92FF920F931F93CF93DF93E82FF0E026
:1049A000DF01A155BC4F9C91E956FB4F491708F414
:1049B00054C088E0289FD0011124A00FB11DA1533D
:1049C000BC4F1C92108287E0689FE0011124CB5FEE
:1049D000D64FFE013496E491809103099091040929
:1049E000A0910509B09106098E0F911DA11DB11D61
:1049F0008093030990930409A0930509B0930609D5
:104A00006F3011F41092A501122FF62E0E94CD35B1
:104A1000FE013596C49124E630E040E050E00E946B
:104A2000F1358C2E912CA12CB12C681579058A05B5
:104A30009B05DCF489E0F81202C041E001C040E0CF
:104A4000602F812FDF91CF911F910F91FF90BF9029
:104A5000AF909F908F900C94931F941B9C93808198
:104A6000803418F08F71805E8083DF91CF911F9129
:104A70000F91FF90BF90AF909F908F9008953F92BD
:104A80004F925F926F927F928F929F92AF92BF925E
:104A9000CF92DF92EF92FF920F931F93CF93DF930A
:104AA00000D000D0CDB7DEB7682E862ED42E0E945F
:104AB000CD3528E030E040E050E00E94F1359091A3
:104AC000BC012091BB0130E088E0989FA001112437
:104AD0005C834B83FA01E20FF31FE153FC4F8FEF2E
:104AE000808300E010E0462E512C99E0A92EB12CD5
:104AF000712C43E0342E912CC801840D951DB50115
:104B00000E946E36C82E632D0E9460369150D301EC
:104B1000A90FB11D97FDBA958150F401E80FF11D61
:104B200087FDFA95FA83E98383E0AA0FBB1F8A9574
:104B3000E1F7CF018A0F9B1FAC01425D564FFA018E
:104B400040814150443220F5895F9C4FFC01E08058
:104B5000F12C41E050E0DD2011F040E050E0E49E17
:104B6000B001E59E700DF49E700D1124672B81F449
:104B700049815A81A40FB51FFD01E153FC4F80818B
:104B80008D9DC0011124892B19F481E08C0D07C083
:104B90000F5F1F4F0930110509F0AECF80E0EB81A8
:104BA000FC812E0F3F1F21533C4FF90110820F90C3
:104BB0000F900F900F90DF91CF911F910F91FF9069
:104BC000EF90DF90CF90BF90AF909F908F907F90AD
:104BD0006F905F904F903F9008951F93CF93DF9316
:104BE000162FE82FF0E09F01225031098170829F3B
:104BF000202D1124CF01019762E070E00E946E36F3
:104C000033978E9F902D11243091BC017091BB0180
:104C100060E0A22F022E000CBB0BC92F092E000C46
:104C2000DD0BAD01430F511DE3E0440F551FEA9525
:104C3000E1F7FE01E70FF11D4E0F5F1FFA01E1538F
:104C4000FC4F8081882319F0320F790F0CC0FA01D4
:104C5000E25DF64F40814150483228F4320F790F1F
:104C60006F5F6113DECF90E0982F882725E1729F58
:104C7000800D911D1124830F911DDF91CF911F9104
:104C80000895482FE5E2F2E021E030E080E09191E4
:104C900092959F70941309C0D901A454BE4F9C9162
:104CA00094FF03C0615009F4822F2F5F3F4F2531DD
:104CB000310569F708958F929F92AF92BF92CF927C
:104CC000DF92EF92FF920F931F93CF93DF93909118
:104CD000A704992351F00E94CD3524E030E040E054
:104CE00050E00E94F13581E0860F9091000991110A
:104CF00014C0082F10E0E801229781708C9FC02D0E
:104D00001124C801019762E070E00E946E360350E2
:104D10001109809FE02C112402C0E12CC0E0109208
:104D200024098091BC014C2F0C2E000C550B480F10
:104D3000511D0091BB016E2D0E2C000C770B600FE6
:104D4000711D9A01B3E0220F331FBA95E1F7260FC8
:104D5000371FF901E153FC4FD081D11130C16830C8
:104D6000710508F0C5C14531510508F0C1C1F9010F
:104D7000E25DF64F90819150963208F0B9C1909162
:104D8000A501911106C0C80FC093BC010E0D009380
:104D9000BB010E9459108091FF088111A9C10091A7
:104DA000BC01C091BB01D0E038E0039F8001112419
:104DB000F801EC0FFD1FE95FFC4FE081E11103C03A
:104DC0000E94591095C1F0E0E252FD4F6081862F9C
:104DD00082958F706F70893028F4853030F481307F
:104DE000B8F015C0893099F013C0E82FF0E0EE0F4D
:104DF000FF1FE557FE4F20813181062E02C03695F8
:104E000027950A94E2F7922F9170F92E01C0F12CA8
:104E10004F2D0E94D7150E943B1AC8018C0F9D1F71
:104E2000DC01A95FBC4F7D018C91282F30E021501F
:104E30003109F901E152FD4F9081F9019031E9F416
:104E4000E954FD4F90814091A6015091A7016091D6
:104E5000A8017091A901490F511D611D711D409359
:104E6000A6015093A7016093A8017093A9018150F6
:104E70000E94F91EF70110823BC1E15CFD4F808169
:104E800087FD09C0209102012A3109F05AC082E051
:104E90000E9461102DC165E2862E62E0962E7BE0B5
:104EA000A72E72E0B72EC12CD12C40E080910201D8
:104EB00090E0C816D9060CF041C0D4012D914D01E7
:104EC000F7018081E82FF0E03197DF01A152BD4F5B
:104ED0009C9129132CC0D601AF50BE4F2C91DF01FD
:104EE000A157BD4F9C91291322C0D601A952BE4F94
:104EF0002C91DF01A959BD4F9C91291318C0D601EF
:104F0000A354BE4F9C91DF01A15CBD4F2C9129277A
:104F100026FD0DC0E954FD4FD5012C919081920FD3
:104F20009C9381500E94F91EF701108241E0FFEF2F
:104F3000CF1ADF0A2FEFA21AB20AB8CF4111D8C098
:104F4000A1CF30E0C00FD11FC95FDC4F8881482F4F
:104F500050E041505109F901EB5DFD4FDA01A152DA
:104F6000BD4F9C919083F901E55FFD4FDA01A95493
:104F7000BD4F9C919083F901EF50FE4FDA01A1578C
:104F8000BD4F9C919083F901E952FE4FDA01A95976
:104F9000BD4F9C919083F901E354FE4FDA01A15C6F
:104FA000BD4F9C91908381500E94F91E1882809180
:104FB00002018F5F809302010E941F2A99C0ED2F8A
:104FC000F0E0EA56FB4F10810E9459100E94CD3547
:104FD00024E630E040E050E00E94F135062F61E029
:104FE00083E00E944126882309F190E00197FC01AB
:104FF000EB5DFD4F20812F7030E0F901EE0FFF1FB8
:10500000E65CFD4FE491DC01AF50BE4F6C91DE2EAB
:10501000D60EF901EE0FFF1FE45CFD4FE491DC01B9
:10502000A952BE4F9C91FE2EF90E02C0F12CD12C3C
:1050300080914801880F885D9D2D990F9D0D890FE6
:10504000081708F055C0D1508D2F0E943924DF9CDD
:10505000F00111249F01FF0F440B550B6D2D70E0E3
:1050600080E090E00E947E1A4B015C0190919D01CE
:1050700080910101890F0E94801C282F0091BB01A3
:105080000E0D8091BC01C80F880C991CAA1CBB1C7A
:1050900030E0C901880F991F092E000CAA0BBB0B29
:1050A000880D991DAA1DBB1D4091AA01042E000C5C
:1050B000550B660B770B840F951FA61FB71F20910A
:1050C0004801820F911DA11DB11DBC01CD016F5F73
:1050D0007F4F8F4F9F4F22E030E040E050E00E9432
:1050E000F135422F612F6F712C2F8D2F0E94C52417
:1050F0000E94AC1C0E942E1D80910109882321F082
:105100008091070980FD0EC0DF91CF911F910F9113
:10511000FF90EF90DF90CF90BF90AF909F908F90D7
:105120000C948210DF91CF911F910F91FF90EF901F
:10513000DF90CF90BF90AF909F908F9008951F9376
:10514000CF93DF93182F90E0C0E0D1E0D90F6D2FFF
:1051500087E00E944126882369F0E82FF0E0EC5DAB
:10516000FD4FE081EF70F0E0ED5FFE4F848D811325
:1051700001C0CF5F91E0D23041F78C2FDF91CF910A
:105180001F91089590E0FC01EB5DFD4FE081EF7011
:10519000F0E0ED5FFE4F248D243019F0263069F0E9
:1051A0000895FC01EF50FE4F908180919D01699F11
:1051B000800D112480939D010895FC01EF50FE4F56
:1051C00090818091AA01699F800D11248093AA018A
:1051D00008952F923F924F925F926F927F928F929B
:1051E0009F92AF92BF92CF92DF92EF92FF920F9376
:1051F0001F93CF93DF9300D000D000D0CDB7DEB7A0
:105200008D8390E09C012E51364F3A832983D9013A
:105210000C91002E000C110B01501109FC01E652FB
:10522000F64F5F019C012252364F1901DC01AA5250
:10523000B64FBC83AB83BD81B75DBE83E5E19E2ED7
:10524000ED819E0EF2E04F2E512C612C712CA8E2C4
:105250008A2ED5018C91082E000C990B019680178F
:1052600091070CF448C0D1018C91780173E0EE0CE9
:10527000FF1C7A95E1F7F701E80FF11D87FDFA951C
:105280009F01235D364F6901D9018C91883069F403
:105290000E94CD35A30192010E94F135892D869E91
:1052A000800D1124F601808303C0EE81D901EC93B7
:1052B000AB81BC818C91F701E80FF11D87FDFA9558
:1052C0009F01215D364F7901D9018C91883069F4B5
:1052D0000E94CD35A30192010E94F135892D869E51
:1052E000800D1124F701808303C0EE81D901EC9376
:1052F0000F5F1F4FAECFF1010081002E000C110B8C
:105300009D80F3E39F0E45E1D42E2D81D20E52E015
:10531000452E512C612C712C62E3C62EEB81FC8151
:105320002081822F022E000C990B801791070CF41C
:105330003EC0A981BA818C91F80128E08202E00D7B
:10534000F11D1124DF01AA5DB64F7D018C918830DB
:1053500069F40E94CD35A30192010E94F1358D2D93
:10536000C69E800D1124F701808301C09C92F50137
:105370008081980148E08402200D311D1124D9015B
:10538000AA5CB64F7D018C91883069F40E94CD35BE
:10539000A30192010E94F1358D2DC69E800D11242E
:1053A000F701808301C09C920F5F1F4FB7CFDD8054
:1053B000D394D5016C91F101A081E981FA818081BA
:1053C00090E08C0133E0000F111F3A95E1F7E0E027
:1053D000F0E070E08A2E912C622E712C681779070C
:1053E000ACF0A4017F01E00EF11E641675065CF0BE
:1053F0005A01AE0CBF1C9501225D364FD901DC92DB
:105400004F5F5F4FF2CF01963896E8CF26960FB6E2
:10541000F894DEBF0FBECDBFDF91CF911F910F91EA
:10542000FF90EF90DF90CF90BF90AF909F908F90C4
:105430007F906F905F904F903F902F9008952F92A4
:105440003F924F925F926F927F928F929F92AF9214
:10545000BF92CF92DF92EF92FF920F931F93CF9361
:10546000DF93CDB7DEB729970FB6F894DEBF0FBE36
:10547000CDBFE5E2F2E0DF01912C8FEF9C9191111D
:1054800002C08C939394119622E0AF33B207B1F728
:105490006BE072E041EF51E027ED31E03F832E8376
:1054A0008DEB91E09987888705E212E01D821C82CE
:1054B0008C819D8101969D838C838A31910509F4AD
:1054C00046C0D8018C909C012B5D3D4F6901D901EC
:1054D000FC90F814D0F5DB014C90DA015C90AE81C1
:1054E000BF816C90A885B9857C90D801FC929C0105
:1054F000255F3D4F5901D901FC90DB01FC929C01D5
:105500002F503E4F3A832983D901FC90DA01FC9257
:105510009C0129523E4F1901D901FC90AE81BF81F7
:10552000FC929C0123543E4F7901D9013C91A885FE
:10553000B9853C93D6018C92D5014C92A981BA8150
:105540005C92D1016C92D7017C920196B6CF0F5F2D
:105550001F4F6F5F7F4F4F5F5F4FAE81BF811196CF
:10556000BF83AE83288539852F5F3F4F39872887D2
:105570008C819D814A9709F09BCF80818F3F09F4F0
:105580001082319692E0EF33F907B9F784E1891977
:1055900029960FB6F894DEBF0FBECDBFDF91CF9135
:1055A0001F910F91FF90EF90DF90CF90BF90AF9041
:1055B0009F908F907F906F905F904F903F902F9033
:1055C000089580E0E82FF0E0E152FD4F90819923AB
:1055D00019F08F5F8832B1F70895CF93DF93C82F0A
:1055E0000E94CD3524E630E040E050E00E94F135E5
:1055F00080E09FE0C99FA00111244353564F9EE0D5
:10560000C99FD0011124C62FD0E0FD01E80FF11D84
:10561000ED5FFE4F208130E0FA01E20FF31FE491CD
:105620006E1748F0F9013196E40FF51FE491F0E0B0
:10563000CE17DF0714F08F5FE8CFDF91CF91089589
:105640001F93CF93DF938091E609811106C062E03A
:1056500070E080E090E00E945A1AC1E0D0E08091B2
:10566000E709882311F0C0E0D0E0FE01EE51F64FCB
:105670001081FE01E652F64F6081062E000C770B7A
:10568000611B710917FD73956F5F7F4F072E000C2B
:10569000880B990B0E945A1A610F6093BC01FE019E
:1056A000E252F64F1081CA52D64F6881062E000C86
:1056B000770B611B710917FD73956F5F7F4F072E85
:1056C000000C880B990B0E945A1A610F6093BB0162
:1056D000E091BC0188E0E89FF0011124E60FF11D84
:1056E000E153FC4FA081AA2329F0B0E0AA56BB4F9A
:1056F0001C921082DF91CF911F9108952F923F92BB
:105700004F925F926F927F928F929F92AF92BF92D1
:10571000CF92DF92EF92FF920F931F93CF93DF937D
:10572000CDB7DEB76A970FB6F894DEBF0FBECDBF18
:105730001D8A1E8A1F8A188E198A1A8A1B8A1C8A39
:105740001D861E861F86188A19861A861B861C8649
:1057500088E0E9E8F1E0DE01119601900D928A956A
:10576000E1F71092E7091092E8091092E909109206
:10577000EA0980914D01853068F00E94CD3524E121
:1057800030E040E050E00E94F135672B682B692B38
:1057900009F4A3C21092E6090E94CD3527E030E05B
:1057A00040E050E00E94F1358B01095F1F4F0E94DD
:1057B000CD3522E030E040E050E00E94F1356D5FF1
:1057C0007F4F8FEF800F8D8769876230710519F0E9
:1057D00091E09093E70991E0960F9A8B8E8787E08E
:1057E0008A876430710519F081E08093E80963309D
:1057F000710531F41A821982CC24C394D12C02C0D1
:10580000C12CD12C0E94CD3522E030E040E050E0A8
:105810000E94F1356D5F7F4F81E0800F8F8B94E1A7
:105820009F876B876230710519F091E09093E909C9
:10583000888F81E0860F8C8B84E1888B87E08C8752
:105840006430710519F081E08093EA0963307105D5
:1058500029F418861F8242E0C40ED11C77EE272E51
:1058600079E0372E4101E12CF12CE3E04E2E512C52
:10587000612C712CF40181914F01813009F04AC0F3
:10588000E5E1F0E0EC0FFD1FEE0DFF1D20812A8FFA
:105890000E94CD35A7014E51564F5A012A8D2F5FD8
:1058A000298FA30192010E94F135598D650FF501F1
:1058B0006083F701E252F64FA1E1B0E0AC0FBD1FEB
:1058C000AE0DBF1D8C918F5F8083EDE0F0E0EC0F9B
:1058D000FD1FEE0DFF1D20812A8F0E94CD35A701EF
:1058E0004652564F5A012A8D2150298FA301920109
:1058F0000E94F135898D861BF5018083F701EA52FC
:10590000F64FA9E0B0E0AC0FBD1FAE0DBF1D8C91EE
:1059100081508083FFEFEF1AFF0A44E0E416F104A0
:1059200009F0A8CFC114D10469F40E94CD3522E05A
:1059300030E040E050E00E94F135672B682B692B86
:1059400009F4DEC184E190E0801B910B9595879569
:10595000902E980E21E0290DC80195958795882EE7
:105960007C0143E0EE0CFF1C4A95E1F7F701EC5C8B
:10597000F64F3F01DF01AC0130E068E0B62E24179E
:105980003507D4F0BD0165507109FB01B0826F5F2E
:105990007F4FFB01B0826F5F7F4FFB01B0826F5F73
:1059A0007F4FFB01B0826F5F7F4FFB01B082BC92E3
:1059B0004F5F5F4F1896E3CF49815A81452BE9F439
:1059C000BC0140E050E0A92CB12CA616B706ACF003
:1059D000DA01AE0DBF1DA25DB64F12961C92129752
:1059E00013961C92139714961C92149715961C925A
:1059F0006F5F7F4F485F5F4FE8CF4B815C81452BE6
:105A000041F541E0480D50E05A01A3E0AA0CBB1C4F
:105A1000AA95E1F760E070E0E92CF12CE416F506B8
:105A2000C4F0DB01AA0DBB1DA25DB64F11961C92FE
:105A3000119712961C92129713961C921397149614
:105A40001C92149715961C924F5F5F4F685F7F4FB3
:105A5000E5CF4D815E81452BB1F44FEF490D50E00C
:105A60004817590784F0D30114971C9211961C9281
:105A700011961C9211961C92F30110820196F8E087
:105A80006F0E711CEDCF8F8198858394892BD1F493
:105A9000882D90E0BC01F3E0660F771FFA95E1F7DF
:105AA00040E050E0281739076CF0FA01E60FF71FC5
:105AB000E25DF64F12821382148215820196485FCE
:105AC0005F4FF0CF882D90E0BC01E3E0660F771FB9
:105AD000EA95E1F740E050E0292D30E0281739073A
