:100000000C945D050C9485050C9485050C94850570
:100010000C9485050C9485050C9485050C94850538
:100020000C9485050C9485050C9485050C94850528
:100030000C9485050C9485050C9485050C94850518
:100040000C9485050C9485050C9485050C94850508
:100050000C9485050C9485050C9485050C94F52766
:100060000C9485050C9485050C9485050C948505E8
:100070000C9485050C9485050C9485050C948505D8
:100080000C9485050C9485050C9485050C948505C8
:100090000C9485050C9485050C9485050C948505B8
:1000A0000C9485050C9485050C948505BE07CB073B
:1000B000D00700083208450856085A085E0862084A
:1000C0007E08820888088C08DB08F0081C094B09A8
:1000D00063099A099D09120AD308AB09E109EF09DE
:1000E0003D0CE60A3D0C3D0C430C3D0C490CE60A68
:1000F000E60AE60A500CE60A560C9E12B512EA12FF
:100100006013A713B413C6132A14C521EF211923B2
:100110001923FB211923192316222D2219235722D3
:100120001923622219231923192319237322EF2873
:100130000729112917291D292E2938293F294F2937
:10014000D5F08D14A1C881CFD9F1AF2000425D2038
:10015000536176657E7175697400415D20476F203B
:100160004E657874004E65787420666C6F6F7220EF
:100170000057696E202C002D20292048616C6C20CE
:100180004F662046616D65202920202D005448458A
:1001900020414D554C4554204F462059454E444F23
:1001A000522000594F55204D414445204954204F7D
:1001B000555420574954482000202C20434F4E4787
:1001C000524154554C4154494F4E202C202000247C
:1001D000006279004B696C6C65640068656C6C66E4
:1001E000697265006C75636B006C61636B206F6690
:1001F0000046726F7A656E00537461727665005FB7
:1002000020204865726F20205F00282052455354FB
:1002100020494E2050454143452028007C007C2049
:1002200045783B007C2041433B007C2053743B00DD
:100230007C2048673B007C2048703B007C20417557
:100240003B007C204C763B002020202020202020DA
:10025000202000425D20436F6E74696E7565004119
:100260005D204E65772047616D65004020526F67C5
:100270007565002043002045002077686963687D2C
:10028000000203030404050101010101020103014D
:10029000042020202020202020202020202020207A
:1002A00000207C2064726F70202020202020207C81
:1002B00000207C207468726F772020202020207C12
:1002C00000207C2075736520202020202020207CA9
:1002D000000A01043C0200830B0103410200020AF0
:1002E00001033C020025080103320200030F02054E
:1002F000430300030F00004405000413020A460AEA
:10030000000319010546050A031501074508000306
:100310001900004B156404200513550F0A051E0330
:100320000F4E141403190000641400031900004B4D
:1003300027640423031250321405490000505B0067
:10034000014B051C4B7D21032D02104B3700054C42
:100350000514507832652A04184B6E00065A04289A
:1003600055C8210361072555FA19033702125504B0
:100370001203730A3255140A83840732641E00057F
:1003800091083C64325A02000A0F18213F5D6064F4
:100390002A3A295B213F3D2F2C00050A14192328F6
:1003A000323C414B555A5F6400050A0F14232D3728
:1003B000414B555A64646444616E67657260000025
:1003C00072757374207472617000706F69736F6EF0
:1003D00020747261700074656C65706F7274207443
:1003E00072617000736C6565702067617300617283
:1003F000726F7720747261700074726170646F6FD5
:1004000072007A7A7A27272700647261696E6564C0
:10041000006C6576656C20646F776E006275726E35
:100420006564006772616365640068656C6400728E
:1004300075737465640073746F6C656E00706F69BA
:10044000736F6E65640066726F7A656E00616C72C0
:10045000656164207769656C6400457175697070C9
:1004600065640072656D6F766564006974206375FC
:10047000727365640079756D6D79006F6F707327A5
:100480002727006C6576656C207570006469727D45
:10049000006E6F20736C6F7400736F6D65746869A4
:1004A0006E672068657265006E6F7468696E67209C
:1004B00068617070656E7300492063616E6E6F7461
:1004C0000057656C636F6D6560006E6F7468696E70
:1004D000670063616E63656C006D697373696C6559
:1004E00000736C6565700066617374006368616EAB
:1004F000676500636C65617200636F6E6675736536
:1005000000736C6F770074656C65706F7274007344
:1005100065617263680061726D6F7200736565007A
:1005200061646F726E00646578007374726F6E67D9
:100530000064616D61676500666F6F64006C696679
:10054000650074656C65706F727400737465616CBE
:100550007468006D617000616E676572006372653A
:1005600061746500626C657373007363617265002A
:10057000736C6565700074656C65706F727400698A
:1005800064656E746966790061726D6F720077657B
:1005900061706F6E00686F6C640070726F74656379
:1005A00074006C6F6F6B007370656564006C6576CA
:1005B000697461746500636F6E66757365006927A1
:1005C000646574656374006D2764657465637400A5
:1005D00068616C6C7500626C696E64006C65766550
:1005E0006C00706F69736F6E0065276865616C00E1
:1005F0006865616C00726573746F726500706F7707
:1006000065720059656E646F72007A696E6300747A
:10061000696E0073696C76657200737465656C0051
:100620006E69636B656C006C6561640069726F6E06
:1006300000636F707065720062726F6E7A6500623F
:100640007261737300746F70617A007361707068A7
:10065000697265007275627900706561726C006F15
:1006600070616C006F6E7978006761726E657400FE
:10067000656D6572616C64006469616D6F6E6400C4
:10068000616D6574687973740061676174650052A7
:10069000454144204D450054454D4F5600464F4F6F
:1006A00042494500414E444F56410059554D20594D
:1006B000554D00544841525200454C424942004475
:1006C000414959454E00584958415841004E522021
:1006D00039004A55594544005A454C474F00796501
:1006E0006C6C6F770077686974650076696F6C650C
:1006F00074007265640070696E6B006772657900E2
:10070000677265656E006F72616E6765006379611F
:100710006E00636C6561720062726F776E00626C6E
:10072000756500626C61636B00616D62657200707B
:100730006C6174650062616E6465640073706C69FD
:100740006E7400636861696E007363616C6500724A
:10075000696E67006C6561746865720064616767E3
:1007600065720073687572696B656E006172726F95
:1007700077006461727400626F770073776F7264E0
:1007800000617865006D616365006D6F6C64006683
:100790006F6F6400676F6C6400C104B804A80499AB
:1007A0000491048C0483047B0475046B0463045A71
:1007B000044D0446043D0436042F042A0423041C7B
:1007C00004110409040204F903EE03E403D603CA86
:1007D00003C003BF03B70394078F078A0785078108
:1007E000077B07770772076C0763075C0754074F9F
:1007F00007490743073C0735072F07290723071E2B
:1008000007180712070D0706070007FB06F606F292
:1008100006EB06E506DE06D806D206CD06C606BFFE
:1008200006B906B306AB06A4069D0697068F068991
:1008300006800678067006690664065F0659065447
:10084000064B0645063F06380631062C06270620CD
:10085000061A0613060F060A060306FD05F505F03F
:1008600005E905E205DC05D605D005C705BE05B6D8
:1008700005AD05A705A2059A0595058E0588057F96
:1008800005760570056A0564055D05570553054B3A
:100890000542053D05380531052A05260520051CBC
:1008A0000516050F0506050105F904F304EC04E738
:1008B00004E104D904D204CA044B454253484952C6
:1008C0004F5A4C4351414E594654575058554D5626
:1008D000474A440203040506060705080000000015
:1008E0000000746D74004040404040552A552A5520
:1008F000042E6B3A107F437F417F6A5767576E0023
:1009000060600000707A770A7008105F1008220893
:100910005D08227E4141417E060929522C000808CB
:100920000800000000402002007D00023E7F417F61
:100930003E00427F7F406271594F462241497F36D7
:1009400018147E7F102F4F4979313E7F497930014D
:1009500061791F07367F497F36064F497F3E18353C
:100960003E3D1800363600000040381800102A4579
:100970002A101C7F3E1C08085C2E170A0102641F07
:10098000767E7F097F7E7F7F497F363E7F41412291
:100990007F7F417F3E7F7F4949417F7F0909013E3B
:1009A0007F41797A7F7F087F7F00417F7F4141418E
:1009B0007F3F017F7F1C36637F7F4040407F7E0CFE
:1009C0007E7F7F7E1C3F7F3E7F417F3E7F7F090F82
:1009D000063E7F613F5E7F7F097F76264F497932F1
:1009E00000017F7F013F7F407F3F1F3F603F1F7FB0
:1009F0003F103F7F777F087F77037F780703717908
:100A00004D47431F3F7B3F1F707A770A700041417B
:100A10007F3E3E7F4141004D3A163A4D006F6F00D8
:100A2000002074547C787F7F447C38387C44442890
:100A3000387C447F7F387C545C1800047E7F051826
:100A4000BCA4FC7C7F7F08787000447D7D40808062
:100A5000FD7D007F7F386C4400417F7F407C7810B3
:100A6000787C7C7C047C78387C447C38FCFC243C9E
:100A700018183C24FCFC7C7C080404085C5474209A
:100A800000047E7E043C7C407C7C1C3C403C1C7C06
:100A90003C103C7C6C7C107C6C1CBCA0FC7C4464DA
:100AA000745C4C1F3B713B1F007777770006015940
:100AB0000F06201008040200473511241FBECFEF97
:100AC000DAE0DEBFCDBF11E0A0E0B1E0ECEBFDE687
:100AD00002C005900D92A639B107D9F729E0A6E921
:100AE000B1E001C01D92A93AB207E1F715E0CDE5EA
:100AF000D5E004C02197FE010E94AE36CC35D10767
:100B0000C9F70E94E82D0C94DC360C940000FF928B
:100B10000F931F93CF93DF93EC01F62E0881198179
:100B2000C8010E940736F81621F06F2DC8010E94F7
:100B30000F36CE01DF91CF911F910F91FF90089555
:100B40002F923F924F925F926F927F928F929F92DD
:100B5000AF92BF92CF92DF92EF92FF920F931F93CB
:100B6000CF93DF93682E712C3324339422242A945C
:100B7000882E912C88E0582E56180E94DB26309241
:100B80007605309275052092770501E0601204C069
:100B900089E792E00E94FF2661E070E0611002C0E8
:100BA00060E070E080E090E00E94651D8EE30E94AE
:100BB000FA26072D10E0E0903B01C801089688193D
:100BC00099092E2D30E02817390714F0E52CE70C91
:100BD00025E0729EE0011124CD56DD4F5801CC2452
:100BE000C394D12CF12CAE14BF040CF08FC081E063
:100BF00090E0662011F080E090E0B601681B790B70
:100C000081E090E00E94651D8C8183FD08C0E88131
:100C1000E295EF70F0E0E157FC4F849101C08BE763
:100C20000E94FA2680E20E94FA268C8187FF06C085
:100C300089810E94F32680E20E94FA269881692F1A
:100C40006F70892F82958F70903510F440E00FC03F
:100C5000E82FF0E0EE0FFF1FE257FE4F4081518179
:100C6000062E02C0569547950A94E2F741700E94FD
:100C7000461F8091B5019091B6010E94FF268C819C
:100C800085FF2DC0888190ED980F903170F48EE52E
:100C90000E94FA268A81082E000C990B0E94442794
:100CA0008CE30E94FA268B8112C090EC980F903151
:100CB00050F090E8980F903130F08057803178F400
:100CC0008A81882361F08EE50E94FA268A81082EA7
:100CD000000C990B0E9444278DE50E94FA268C8116
:100CE00084FF04C086E792E00E94FF268C81827414
:100CF000823421F483E792E00E94FF263FEFA31A9B
:100D0000B30A25968FEFC81AD80A6DCF0E944A27DA
:100D10000E94F614823029F4772009F42ECF7A94B9
:100D20002CCF843051F480913B0190E0019708175B
:100D300019070CF022CF739420CF853009F090C6AC
:100D4000611091C6C7E0C0937605C0937505C09346
:100D5000770581EC92E00E94FF26C0937605C09350
:100D600075058FE08093770581EB92E00E94FF2666
:100D7000C0937605C093750587E18093770581EA76
:100D800092E00E94FF26C0937605C09375058FE11F
:100D90008093770581E992E00E94FF2683E18093AA
:100DA000760580937505C09377058EE30E94FA2639
:100DB0000E944A27C0E00E94F6148430C9F018F45B
:100DC000823039F0F8CF853079F1863009F44BC69E
:100DD000F2CFCC2381F36C2F70E06F5F7F4F83E005
:100DE00090E00E94651D80E20E94FA26C1500EC06C
:100DF000C23008F76C2F70E06F5F7F4F83E090E0A8
:100E00000E94651D80E20E94FA26CF5F6C2F70E081
:100E10006F5F7F4F83E090E00E94651D8EE30E942C
:100E2000FA260E944A27C7CFC11168C3D091440156
:100E3000D11161C4809FF001819FF00D1124ED5606
:100E4000FD4FC0818C2F82958F70CF70823009F05A
:100E50005DC0818181508183811103C0872D0E94F3
:100E6000B229C1114CC40E94B03523E030E040E00B
:100E700050E00E941D36672B682B692B09F03FC498
:100E800087E00E94881F8091570190915801A0919E
:100E90005901B0915A010296A11DB11D80935701CD
:100EA00090935801A0935901B0935A01C0E060910A
:100EB0005F0170916001809161019091620123E076
:100EC00030E040E050E00E941D3669017A019CE26A
:100ED000C90E91E0D91EE11CF11CCC0ED11CE11C05
:100EE000F11C0E94B03522E330E040E050E00E9467
:100EF0001D36C60ED71EE81EF91EC0925F01D092A5
:100F00006001E0926101F0926201EEC3833009F466
:100F1000ACC2843009F4A9C2853009F004C10C2F99
:100F200010E081E090E0A0E0B0E00C2E04C0880F5B
:100F3000991FAA1FBB1F0A94D2F7209198013091E4
:100F40009901822B932B9093990180939801818131
:100F500081508183811103C0872D0E94B229F8013D
:100F6000EF5FFE4FE0818E2F90E08E30910508F00C
:100F7000D6C0FC01EA5AFF4F0C94AE3690913D0169
:100F800020913E0181E0890F80933D019213C7C0FB
:100F900080933E01C4C080913E0180933D01BFC05B
:100FA00080914F0190915001A0915101B091520157
:100FB0004091530150915401609155017091560137
:100FC00084179507A607B70721F40196A11DB11D47
:100FD0002FC08C019D01040F151F261F371FC9014B
:100FE000B80122E030E040E050E00E941D3620933E
:100FF0004F013093500140935101509352018FC0E3
:1010000080914F0190915001A0915101B0915201F6
:1010100040915301509154016091550170915601D6
:1010200084179507A607B707A1F40296A11DB11D65
:1010300080934F0190935001A0935101B0935201BE
:101040008093530190935401A0935501B09356019E
:1010500066C040934F0150935001609351017093CB
:1010600052015DC0D0913D01D43060F00E94B03596
:10107000D15023E030E040E050E00E941D36D61B06
:10108000D0933D01109242014AC08091630190913A
:101090006401A0916501B09166018093570190931E
:1010A0005801A0935901B0935A0139C082E380934B
:1010B000410135C082E38093420131C081E08093D9
:1010C00045012DC04DEDE42E43E0F42E00E010E08C
:1010D000F701E00FF11F8081882321F0602F8D2F11
:1010E0000E94291F0F5F1F4F0830110589F718E074
:1010F000E10EF11CDF5FD53149F711C08AE0809322
:1011000040010DC0109248018EE18093470107C055
:1011100084E18093430103C081E08093460141E074
:101120006C2F85E088C1863009F088C1809141012B
:1011300081118DC2EC2EF12C81E090E0A0E0B0E0B6
:101140000C2E04C0880F991FAA1FBB1F0A94D2F748
:1011500020919A0130919B01822B932B90939B01BC
:1011600080939A0185E0809FF001819FF00D11240A
:10117000ED56FD4F818181508183811103C0872D00
:101180000E94B22987010F5F1E4FD8011E96EC9175
:101190008E2F90E08C30910508F044C1FC01EC5991
:1011A000FF4F0C94AE3640913B0150E0E3E9F2E092
:1011B00080E090E0C6C061E084E00E94482D882372
:1011C00009F436C190E0019725E0289FF001299F9E
:1011D000F00D1124ED56FD4F84818860848322C177
:1011E0002091390180913A0190E0B8E02B9F800D69
:1011F000911D112440E050E04097DC01A40FB51F81
:101200006EEF7FEFFB01EA0FFB1FEB56FB4FE08118
:10121000EE2339F0F0E0E45AFA4F20812F71205884
:1012200020836F5F7F4F6330710561F7485F5F4FC9
:101230004832510511F7FCC061E083E00E94482D5F
:10124000882309F4F5C090E0019745E0489F90019C
:10125000499F300D1124F901ED56FD4F7F01848126
:101260008F7B84830E94B03522E030E040E050E084
:101270000E941D36672B682B692B41F4D70112960B
:101280008C9112978F5F12968C93CCC0F70183815B
:101290008F5F8383C7C061E084E00E94482D88236C
:1012A00009F4C6C090E0019725E0289FF001299F2E
:1012B000F00D1124ED56FD4F84818F7B8483828154
:1012C0008F5F8283AFC081E00E94A005F5E08F9F11
:1012D000C0011124FC01ED56FD4F8481826284839C
:1012E0009081292F2F70892F82958F70903510F45F
:1012F00040E01CC0E82FF0E0EE0FFF1FE257FE4F6A
:1013000041E050E060E070E0022E04C0440F551F41
:10131000661F771F0A94D2F7A081B1814A2B5B2BFD
:10132000518340839059903118F341E0622F0E941D
:10133000461F78C00E948A0F75C085E080934401E3
:1013400071C0841795070CF073C024812F7B248310
:1013500001963596F6CFEDE5F5E081E0919191119A
:1013600001C0482E8F5F8131C9F741E060913A0199
:10137000809139010E944A2C90E0009709F452C0F4
:101380000197242D30E0215031094091390141501D
:1013900063E070E00E949A36840FF901E35BFA4F34
:1013A000808340913A014150460FF901E35CFA4FC6
:1013B0004083682F8FEF840D0E946A140E94741D71
:1013C00031C0EDE5F5E08081882319F08F71805EF2
:1013D0008083319605E0ED36F007A9F729C0D6EDF8
:1013E000AD2ED1E0BD2ED0E0D12C7501F70180816A
:1013F00091EE980F9C3410F4805B80832FEFE21AFB
:10140000F20A8081882321F06D2D8D2F0E94291FE3
:10141000D39438E0D312EACFDF5F88E0A80EB11C86
:10142000D53111F7D8011E968C91843009F45CC136
:1014300041E06C2F86E00E94461F56C18730C9F4F8
:1014400081E090E0A0E0B0E004C0880F991FAA1FDF
:10145000BB1FCA95D2F720919C0130919D01822B30
:10146000932B90939D0180939C01872D0E94872D43
:101470003BC1883009F038C181E090E0A0E0B0E0E5
:101480000C2E04C0880F991FAA1FBB1F0A94D2F705
:1014900020919E0130919F01822B932B90939F016D
:1014A00080939E0185E0809FF001819FF00D1124C3
:1014B000ED56FD4F828118161CF48150828302C0C4
:1014C000C09134010E94A52864E10E94E72CFC0130
:1014D00097FF02C0E150FF4FFF2309F405C160E010
:1014E00071E00E949A3665E170E00E949A36262FDC
:1014F000482F6F2F8C2F0E94CE28F6C0C13009F0E4
:101500006CC0909144019111F6C0809FF001819FC1
:10151000F00D1124ED56FD4F848184FF0AC09081A7
:1015200020ED290F203108F04EC09F70943008F450
:101530004AC086FF0CC0C5E0C09FF001C19FF00DFE
:101540001124ED56FD4F908190539031D8F00E94B8
:10155000A528C82F61E083E00E94482D882309F464
:10156000D3C090E0019725E0289FF001299FF00D5E
:101570001124ED56FD4F80818F70833009F0C4C077
:1015800064E1C5C08260848361E083E00E94482DED
:10159000882361F090E00197C89FF001C99FF00D8A
:1015A0001124ED56FD4F84818F7E848385E0809FDA
:1015B000F001819FF00D1124ED56FD4F8481806173
:1015C000848389E001C08CE00E94881F0E94951FDF
:1015D0000E94EF0F0E947A0D46C2C23009F0EBCB99
:1015E00090914401911187C0809FF001819FF00D7F
:1015F0001124ED56FD4F8481282F207184FD71C088
:10160000408150E0EFE0F1E08191873021F02F5FE1
:101610002C30D1F720E0C0913A018091390130E0BF
:10162000205A3F4F90E0EC2EF12C4217530761F502
:10163000EC0133E0CC0FDD1F3A95E1F7FE01EA52F1
:10164000FE4FEE0DFF1D80818B50863010F481E03F
:1016500049C085E0809FF001819FF00D1124ED5677
:10166000FD4F818181508183811103C0872D0E94AC
:10167000B229CA52DE4FCE0DDF1D88816AE00E947A
:1016800080369254988330C023E0880F991F2A95A2
:10169000E1F783529C4FEC01CE0DDF1D888188233A
:1016A00011F083E01FC00E94E40D883211F484E041
:1016B00019C091E0980F988395E0989FD00111246C
:1016C000AB5EBC4F909FF001919FF00D1124ED5641
:1016D000FD4F01900D929A95E1F7872D0E94B22956
:1016E00003C08CE00E94881F0E947A0D0E94951F03
:1016F0000E94EF0FB8C186E10E94881FB4C188E044
:101700000E94881FC2E3D3CB60913D0166958C2F68
:101710000E94E72C7C0185E0809FE001819FD00D35
:101720001124CD56DD4FFE01A0EAB1E001900D92EB
:101730008A95E1F781E08093A101898181508983B5
:10174000811103C0872D0E94B229C701F7FE02C094
:1017500081509F4FC92FD92FDD0FDD0BA92EC70157
:1017600060E071E00E949A3665E170E00E949A366E
:10177000F62E182FC1110AC0C090A401E090A30159
:101780000091A20121E04091A001B8C0E091A00128
:1017900080ED8E0F803158F4EF70F0E0EE0FFF1FF8
:1017A000EF57FD4FE491C090A201CE0E02C0CC24B1
:1017B000C3940E94B03524E630E040E050E00E943F
:1017C0001D36D62E90913F01990F985DEC2CEE0CB2
:1017D000EC0CE90E61E083E00E94482D90E0019757
:1017E00025E0289FF001299FF00D1124ED56FD4FB3
:1017F00080814091A001982F94279F7009F483C0A5
:10180000453321F48F70833009F47DC0DE1408F075
:101810006DC0EE24EA94EA0C6FE28E2D0E943F2BFD
:101820000091A00180ED800F803160F4E02FEF7017
:10183000F0E0EE0FFF1FEE57FD4F8491B090A30133
:10184000B80E01C0B12C80EB800F8031B0F561E2A1
:101850008E2D0E943F2B902F9F70E92FF0E0EF5FBD
:10186000FE4FE0818E2F90E08D30910508F0AECED6
:10187000FC01E059FF4F0C94AE36DD27CC55DE4F0E
:101880008881865F18C0DD27CC55DE4F888186951C
:1018900012C0DD27C45ADA4F88818F71805C0BC07B
:1018A000DD27CC57DB4F8881806205C0DD27CC5710
:1018B000DB4F88818068888389CE90E8900F9031D3
:1018C00060F50E94B03524E030E040E050E00E9436
:1018D0001D36672B682B692B01F18091A0012F2DFC
:1018E000412F6A2D8F700E94CE2870CEC090A40127
:1018F000E090A3010091A2012091A1016F2D812F01
:101900000E945B2963CEE4E0EE9EC001112463E0F7
:1019100070E00E949A36E62E79CF8091A001805324
:10192000803108F04AC02C2D0C2C000C330BAB2D51
:10193000BB0CBB0B0E94B4369B01AC016C2DCC0CD4
:10194000770B880B990B0E9474274B015C019091D7
:101950003D0180914A01890F0E94C529880C991C7C
:10196000AA1CBB1C282F30E0C901880F991F092E23
:10197000000CAA0BBB0B880D991DAA1DBB1D409125
:101980004901042E000C550B660B770B840F951F35
:10199000A61FB71F20913F01820F911DA11DB11DF0
:1019A000BC01CD016F5F7F4F8F4F9F4F22E030E032
:1019B00040E050E00E941D361FC090913D01809193
:1019C0004A01890F0E94C529282F30E02150310992
:1019D000220F331F80914901280F311D87FD3A9551
:1019E00080913F01280F311D2F5F3F4F37FF02C00D
:1019F0002F5F3F4F35952795D22E61E083E00E94FF
:101A0000482D90E0019725E0289FF001299FF00DD7
:101A10001124ED56FD4F80812091A001982F92272F
:101A20009F7099F0253319F48F70833071F0DD27A2
:101A3000C45ADA4F68816295669567700F2D212F21
:101A40004D2D8E2D0E949A2BC1CDFD2D04E0F0026C
:101A5000C001112463E070E00E949A36D62EE7CFD1
:101A6000863009F08AC8872DDF91CF911F910F91A1
:101A7000FF90EF90DF90CF90BF90AF909F908F90AE
:101A80007F906F905F904F903F902F900895CF93ED
:101A9000DF93C82F0E94B03524E630E040E050E0EC
:101AA0000E941D3680E09FE0C99FD0011124A756F7
:101AB000BC4F9EE0C99FA00111244F5F5E4FC62F0F
:101AC000D0E0FA01E80FF11D208130E0FD01E20FC6
:101AD000F31FE4916E1748F0F9013196EA0FFB1FEE
:101AE000E491F0E0CE17DF0714F08F5FEACFDF91CB
:101AF000CF910895EF92FF920F931F93CF93DF93AF
:101B000000D000D01F92CDB7DEB723E932E0F90153
:101B100010E08FEF9081911102C080831F5F359696
:101B200093E0E531F907B1F783E992E060E070E016
:101B30006F5F7F4FAC017B01AAE1EA16F10429F443
:101B400005966A317105A1F726C0DC01FC91DA0126
:101B50001596EC91EF17C8F405E0FC01DE01119633
:101B600001900D920A95E1F705E0FA013596DC0146
:101B700001900D920A95E1F705E0FE013196DA0138
:101B8000159601900D920A95E1F7BFEFEB1AFB0A4B
:101B90004B5F5F4FD1CFF90180818F3F09F41082F5
:101BA0002B5F3F4FF3E025313F07A9F784E1811B0D
:101BB0000F900F900F900F900F90DF91CF911F918A
:101BC0000F91FF90EF900895E5E1F3E080E09081C0
:101BD000992321F08F5F35968832C9F70895CF9207
:101BE000DF92EF92FF920F931F93CF93DF93D62F45
:101BF000082F10E0F801E657FD4FC080F801EA57C2
:101C0000FD4F6081062E000C770B6C197109C7FC23
:101C100073956F5F7F4F072E000C880B990B0E9406
:101C20005A270C2C000CDD08EE08FF08C60ED71E44
:101C3000E81EF91EF801EE57FD4FC081F801E25889
:101C4000FD4F8081682F880F770BCB018C1B91098A
:101C5000C7FD9395BC016F5F7F4F072E000C880B6B
:101C6000990B0E945A270C2FCC0F110B220B330B10
:101C7000DC01CB01800F911FA21FB31F960143E02F
:101C8000220F331F4A95E1F72A523E4FF901E80F20
:101C9000F91FD083DF91CF911F910F91FF90EF90AB
:101CA000DF90CF9008952F923F924F925F926F9264
:101CB0007F928F929F92AF92BF92CF92DF92EF92DC
:101CC000FF920F931F93CF93DF9300D000D000D0EB
:101CD000CDB7DEB78D8390E09C0126573D4F3A8308
:101CE0002983D9010C91002E000C110B0150110910
:101CF000FC01EA57FD4F5F019C012E573D4F190132
:101D0000DC01A258BD4FBC83AB83BD81B753BE83FA
:101D1000E2E04E2E512C612C712CF8EC9F2EA5E1A7
:101D20008A2EDD808D0CD5018C91082E000C990B2C
:101D30000196801791070CF446C0F101808178016B
:101D400073E0EE0CFF1C7A95E1F79701280F311D27
:101D500087FD3A95D901AB52BE4F6D018C91883009
:101D600069F40E94B035A30192010E941D36882DAE
:101D7000969E800D1124F601808302C0EE81EC93C3
:101D8000AB81BC818C91F701E80FF11D87FDFA95BD
:101D90009F0129523E4F7901D9018C91883069F415
:101DA0000E94B035A30192010E941D36882D969E97
:101DB000800D1124F701808303C0DE80D901DC92FD
:101DC0000F5F1F4FB0CFD1010C91002E000C110BF3
:101DD000BD81BD52BE8342E0442E512C612C712C3A
:101DE00052EDD52E65E1C62EED81CE0EAB81BC81C4
:101DF0002C91822F022E000C990B801791070CF466
:101E000040C0E981FA818081980148E08402200D78
:101E1000311D1124D901A253BE4F7D018C91883010
:101E200069F40E94B035A30192010E941D368C2DE9
:101E3000D69E800D1124F701808302C0EE81EC93C1
:101E4000D5018C91F80128E08202E00DF11D1124EA
:101E5000DF01A252BE4F7D018C91883069F40E944F
:101E6000B035A30192010E941D368C2DD69E800DA7
:101E70001124F701808302C0EE81EC930F5F1F4FA6
:101E8000B5CFFD81FF5FFB83D501EC91D101BC9102
:101E9000BD83A981BA818C9190E08C0133E0000F61
:101EA000111F3A95E1F760E070E0F0E030E0E817EC
:101EB000F907BCF0BD814B2F50E07801E60EF71E0C
:101EC0002417350754F0DA01AE0DBF1DAA52BE4FDC
:101ED000DB80DC924F5F5F4FF3CF0196685F7F4FEF
:101EE000E6CF26960FB6F894DEBF0FBECDBFDF91CA
:101EF000CF911F910F91FF90EF90DF90CF90BF9007
:101F0000AF909F908F907F906F905F904F903F9099
:101F10002F9008951F93CF93DF938091D501811166
:101F20000CC00E94B03522E030E040E050E00E945A
:101F30001D36EB01CC0FDD1F02C0C0E0D0E0FE017A
:101F4000EF52FE4F8081811101C02196FE01E657BC
:101F5000FD4F1081FE01EA57FD4F6081062E000CF7
:101F6000770B611B710917FD73956F5F7F4F072E0C
:101F7000000C880B990B0E945A27610F609339015E
:101F8000FE01EE57FD4F1081C258DD4F6881062ECD
:101F9000000C770B611B710917FD73956F5F7F4F05
:101FA000072E000C880B990B0E945A27610F609333
:101FB0003A01E091390188E0E89FF0011124EB56E5
:101FC000FB4FE60FF11DA081AA2329F0B0E0A45A2F
:101FD000BA4F1C921082DF91CF911F910895CF923A
:101FE000DF92EF92FF9280915B0190915C01A09152
:101FF0005D01B0915E010196A11DB11D80935B0151
:1020000090935C01A0935D01B0935E0140915701F4
:10201000509158016091590170915A01809163016A
:1020200090916401A0916501B0916601481759072C
:102030006A077B070CF456C080913F01853108F098
:1020400051C086E00E94881F80913F018F5F80937E
:102050003F018091630190916401A0916501B0916D
:102060006601880F991FAA1FBB1F8093630190937D
:102070006401A0936501B09366010E94B03528E029
:1020800030E040E050E00E941D3683E0860F90E093
:10209000A0E0B0E040914F0150915001609151019A
:1020A00070915201480F591F6A1F7B1F40934F01C7
:1020B000509350016093510170935201409153012C
:1020C000509154016091550170915601840F951FF4
:1020D000A61FB71F8093530190935401A0935501FD
:1020E000B0935601C0904F01D0905001E090510143
:1020F000F09052018091530190915401A0915501AB
:10210000B0915601C816D906EA06FB069CF5209147
:102110003F0186E190E0821B910963E070E00E943C
:102120009A369B012F5F3F4F032E000C440B550B3B
:1021300060915B0170915C0180915D0190915E0105
:102140000E941D36672B682B692BA1F482E00E9448
:102150005D2D9FEFC91AD90AE90AF90AC80ED11CE8
:10216000E11CF11CC0924F01D0925001E09251014C
:10217000F092520180914001882319F081508093A0
:10218000400180914101882319F0815080934101E1
:1021900080914201882319F08150809342018091FF
:1021A0004301882319F081508093430180914401B9
:1021B000882319F08150809344018091470188233E
:1021C00019F081508093470181E00E945D2D8823A2
:1021D00069F00E94B0352CE030E040E050E00E9411
:1021E0001D36672B682B692B09F48DC083E00E9494
:1021F0005D2DC0905F01D0906001E0906101F09092
:10220000620191E0C91AD108E108F108C80ED11C99
:10221000E11CF11CC0925F01D0926001E09261016B
:10222000F092620161E087E00E94482D882321F04E
:1022300080915B0180FF6AC062E087E00E94482DC8
:102240008823A1F060915B0170915C0180915D0138
:1022500090915E0122E030E040E050E00E941D36A7
:10226000613071058105910509F45EC080915F01BF
:1022700090916001A0916101B0916201CC97A1059C
:10228000B105DCF0609153017091540180915501CA
:102290009091560124E030E040E050E00E941D366D
:1022A00080914F0190915001A0915101B091520144
:1022B000281739074A075B071CF08EE10E94881F28
:1022C00080915F0190916001A0916101B0916201E4
:1022D000181619061A061B062CF01092D00182E07F
:1022E0008093CF01E12CF12C8AE00E945D2D90E0DB
:1022F000880F991FE816F9065CF50E94CB248FEF32
:10230000E81AF80AF1CF0E948A0F70CF91E0C91A3B
:10231000D108E108F108C0925F01D0926001E0921B
:102320006101F092620188CF80915F01909160011C
:10233000A0916101B09162010197A109B109809357
:102340005F0190936001A0936101B09362018ECF11
:10235000FF90EF90DF90CF90089525E0829FC0011D
:102360001124FC01EB5EFC4F108211821282138259
:10237000148208954F925F926F927F928F929F92F4
:10238000AF92BF92CF92DF92EF92FF920F931F9383
:10239000CF93DF938DEDA82E83E0B82EC0E0D0E080
:1023A00095E0892E28E0422E512C612C712CCC2EE8
:1023B000C694C694C69488E0C89E60011124750135
:1023C00000E010E0EC2FE7709E2EF801EC0DFD1DF3
:1023D000E954FE4F808190E0092C02C095958795C5
:1023E0000A94E2F780FF1AC0F70180818823B1F0D8
:1023F000B801CE010E94651D809142018823C9F178
:102400000E94B035A30192010E941D366F5FE62F36
:10241000F0E0E157FC4F84910E94FA260F5F1F4FB6
:10242000FFEFEF1AFF0A0830110579F6219688E0D0
:10243000A80EB11CC531D10509F0B9CF60913A01A0
:1024400070E08091390190E00E94651D80E4DF9189
:10245000CF911F910F91FF90EF90DF90CF90BF90A1
:10246000AF909F908F907F906F905F904F900C9463
:10247000FA26F701808190E00197889E9001899E5D
:10248000300D1124F901EB5EFC4FE0816E2F629557
:102490006F70BDCFCF92DF92EF92FF920F931F9399
:1024A000CF93DF93C42F28E0829FC00111248C01B9
:1024B00003521C4F060F111DF80180818111E8C1E4
:1024C0000E94E40D91E0980FF8019083082F10E02E
:1024D00025E0829FF0011124EB5EFC4F81E08183B7
:1024E000128213821482C1111DC00E94B03524E6ED
:1024F00030E040E050E00E941D3640E0262F30E002
:10250000842F90E0FC01E957FC4FE4914F5F6E1778
:10251000B8F3FC01E857FC4FE491F0E02E173F07B9
:102520007CF7C42F4C2F50E0FA013197E830F105C9
:1025300008F0AEC1E358FF4F0C94AE3685E0809FA3
:10254000E001819FD00D1124CB5EDC4F80E18883B8
:102550000E94B03524E630E040E050E00E941D3695
:1025600080913C01680F698393C10E94B03525E0DA
:1025700030E040E050E00E941D36672B682B692B4D
:1025800051F485E0809FF001819FF00D1124EB5EF6
:10259000FC4F81E209C085E0809FF001819FF00D32
:1025A0001124EB5EFC4F80E280830E94B03525E071
:1025B000209FE001219FD00D1124CB5EDC4F22E053
:1025C00030E040E050E00E941D366F5F69838C81EF
:1025D00080683EC10E94B03528E030E040E050E025
:1025E0000E941D3685E0809FE001819FD00D11245F
:1025F000CB5EDC4F80E3860F8883643018F481E083
:1026000089830DC00E94B0352DE030E040E050E0FD
:102610000E941D366D5F69838C8180688C830E9467
:10262000B03526E030E040E050E00E941D366111F8
:1026300020C00E94B03523E030E040E050E00E942E
:102640001D36C1E0C60F6C2F70E06F5F7F4F072E05
:10265000000C880B990B0E945A2785E0809FF0019F
:10266000819FF00D1124EB5EFC4F6283C61BC38378
:102670000FC1613009F00CC10E94B03523E030E099
:1026800040E050E00E941D36C1E0C60F6C2F70E0A4
:102690006F5F7F4F072E000C880B990B0E945A2703
:1026A00085E0809FF001819FF00D1124EB5EFC4FCF
:1026B000862F819582836C1B63838481806445C0EF
:1026C0000E94B03527E030E040E050E00E941D3627
:1026D000F62E85E0809FE001819FD00D1124CB5E16
:1026E000DC4F605C688381E089830E94B03526E01E
:1026F00030E040E050E00E941D3661110BC00E94A6
:10270000B03523E030E040E050E00E941D366F5FBE
:102710006A830FC0613069F40E94B03523E030E075
:1027200040E050E00E941D3660956A838C81806491
:102730008C83F110ADC085E0809FF001819FF00D8A
:102740001124EB5EFC4F848188608483A1C080E00B
:102750000E94470D95E0909FF001919FF00D11248C
:10276000EB5EFC4F805B0CC081E00E94470D95E062
:10277000909FF001919FF00D1124EB5EFC4F805A69
:10278000808381E0818384818068DFCF0E94B035BF
:102790002BE030E040E050E00E941D3685E0809F55
:1027A000E001819FD00D1124CB5EDC4F80E7860FC6
:1027B000888381E08983E62FF0E0EF5FFE4F848D10
:1027C000843051F020F4813009F440C061C086307B
:1027D00019F0873079F15CC00E94B03522E0C22E3A
:1027E000D12CE12CF12CA70196010E941D3661111C
:1027F00010C00E94B03525E0209FE001219FD00D40
:102800001124CB5EDC4FA70196010E941D366F5F3D
:102810003EC00E94B03525E0209FE001219FD00DF1
:102820001124CB5EDC4FA70196010E941D366095F6
:102830006A830CC00E94B03522E030E040E050E0F6
:102840000E941D36672B682B692B11F58C818064E3
:102850008C831EC00E94B03525E0209FE001219F9F
:10286000D00D1124CB5EDC4F2AE030E040E050E098
:102870000E941D366058688381E089830E94B035CC
:1028800024E030E040E050E00E941D366D5F6A8336
:10289000DF91CF911F910F91FF90EF90DF90CF903C
:1028A000089580913A01843038F081E08093760574
:1028B000809375058FEF06C081E080937605809345
:1028C000750587E3809377058091B5019091B601F6
:1028D0000C94FF26BF92CF92DF92EF92FF920F935C
:1028E0001F93CF93DF93182FF62EE42E60913C01B7
:1028F00023E0260F665066310CF065E167FD60E06D
:102900002C310CF02AE1022E000C330B440B550B3A
:10291000062E000C770B880B990B0E947427B62E9D
:1029200027E0629FC0011124FC01EF52FD4F6F01AF
:10293000EF012696FE0184918F70833069F028F4B0
:102940008130B1F0823019F125C0853099F008F15D
:10295000863001F503E01EC00E94B03522E030E071
:1029600040E050E00E941D36672B682B692B79F000
:1029700001E010C00E94B03522E030E040E050E0BD
:102980000E941D36672B682B692B19F0F1CF02E0EE
:1029900001C004E0812F90E0FC01E35AFA4F20E2ED
:1029A000029FB00C1124B082F601C490FC01EB55DB
:1029B000FE4FC082FE01C491FC01EB57FB4FC07F6C
:1029C000C860C08328E0F29EF0011124EB56FB4F53
:1029D000EE0DF11D1F5F1083DF91CF911F910F91BD
:1029E000FF90EF90DF90CF90BF900895CF938091AC
:1029F0008005809381050E9444288093800580E2B1
:102A00000E94E826C82F80E80E94E8268111C2E0D3
:102A100080E40E94E8268111C3E080E10E94E8265C
:102A20008111C4E088E00E94E8268111C5E084E0BD
:102A30000E94E826811103C0CC23C9F201C0C6E080
:102A40008DE10E94881F8C2FCF910895262F4091F1
:102A50004F0150915001609151017091520190E0ED
:102A6000A0E0B0E084179507A607B70734F02093DD
:102A7000D00182E08093CF010895481B590B6A0B67
:102A80007B0B40934F015093500160935101709321
:102A9000520108952F923F924F925F926F927F92D0
:102AA0008F929F92AF92BF92CF92DF92EF92FF925E
:102AB0000F931F93CF93DF93CDB7DEB7A6970FB6D3
:102AC000F894DEBF0FBECDBF88EAE6EDF1E0DF018E
:102AD0001D928A95E9F71D8A1E8A1F8A188E198A07
:102AE0001A8A1B8A1C8A1D861E861F86188A1986CA
:102AF0001A861B861C8688E0EFE6F1E0DE0111965F
:102B000001900D928A95E1F71092D1011092D201B5
:102B10001092D3011092D40180913C01853068F06D
:102B20000E94B03524E130E040E050E00E941D36C4
:102B3000672B682B692B09F46CC41092D5010E9495
:102B4000B03527E030E040E050E00E941D368B01B8
:102B5000095F1F4F0E94B03522E030E040E050E0B6
:102B60000E941D366D5F7F4F8FEF800F8D876987C5
:102B70006230710519F091E09093D10191E0960FC8
:102B80009A8B8E8787E08A876430710519F081E01F
:102B90008093D2016330710531F41A821982EE24D8
:102BA000E394F12C02C0E12CF12C0E94B03522E01C
:102BB00030E040E050E00E941D366D5F7F4F81E0C5
:102BC000800F8F8B94E19F876B876230710519F0BE
:102BD00091E09093D301888F81E0860F8C8B84E104
:102BE000888B87E08C876430710519F081E08093D1
:102BF000D4016330710529F418861F82B2E0EB0E10
:102C0000F11CE1EDF1E0FEA3EDA33E01F5E16F0E55
:102C1000711C2AE832E03A8F298F5E0131E1A30E60
:102C2000B11C82E892E09E8F8D8FDE011D96B8A3C5
:102C3000AF8FE6E8F2E0FAA3E9A34E01F9E08F0EC8
:102C4000911C2EE732E03CA32BA381ED91E09C8FF9
:102C50008B8F73E0272E312C412C512CAB8DBC8DEA
:102C60008D91BC8FAB8F813039F5F301D0800E94FC
:102C7000B035A20191010E941D36D3946D0DA98D2E
:102C8000BA8D6C93F50180818F5FAD8DBE8D8C9375
:102C9000EF8DF8A1D0800E94B035DA94A2019101A5
:102CA0000E941D36D61AA9A1BAA1DC92F401808136
:102CB0008150ABA1BCA18C93BFEF6B1A7B0AE98D4D
:102CC000FA8D3196FA8FE98FFFEFAF1ABF0A2D8D7B
:102CD0003E8D2F5F3F4F3E8F2D8F8F8D98A1019698
:102CE00098A38F8FA9A1BAA11196BAA3A9A3BFEFE8
:102CF0008B1A9B0AEBA1FCA13196FCA3EBA32B8DB5
:102D00003C8D255D314009F0A9CFE114F10469F44F
:102D10000E94B03522E030E040E050E00E941D36D5
:102D2000672B682B692B09F487C384E190E0801B33
:102D3000910B95958795800FCC24C394C80EA8015C
:102D400055954795242FFA0163E0EE0FFF1F6A9512
:102D5000E1F7EA52FE4FDF01BA01D12C98E0C61626
:102D6000D706B4F011969C93119712969C931297E4
:102D700013969C93139714969C93149715969C9373
:102D8000159716969C9316976F5F7F4F1896E7CF0F
:102D900069817A81672BB9F4DF01BA01A82EB12CC1
:102DA000A616B70684F012961C92129713961C92E0
:102DB000139714961C92149715961C9215976F5F93
:102DC0007F4F1896EDCF6B817C81672B19F561E001
:102DD000620F70E0DB0193E0AA0FBB1F9A95E1F749
:102DE000AA52BE4FA82EB12CA616B7069CF011967B
:102DF0001C92119712961C92129713961C9213977D
:102E000014961C92149715961C9215976F5F7F4F1E
:102E10001896EACF6D817E81672B79F46FEF680F8A
:102E200070E0641775074CF01282138214821582C9
:102E300016824F5F5F4F3896F4CF4F8158852F5FD2
:102E4000452BA9F4422F50E0FA0173E0EE0FFF1F6B
:102E50007A95E1F7EA52FE4FC416D50644F0128285
:102E60001382148215824F5F5F4F3896F5CF30E0A2
:102E7000F90163E0EE0FFF1F6A95E1F7EA52FE4F9A
:102E800090E08217930744F0128213821482158215
:102E90002F5F3F4F3896F5CFD12CADA1BEA18D91BC
:102EA000BEA3ADA3813019F48D2D0E94530ED3948F
:102EB000B4E0DB12F2CFE3E0EE16F10461F036EDA0
:102EC000E32E31E0F32E45E0442E512C612C712C81
:102ED00054EEB52E10C023E0000F111F2A95E1F724
:102EE000F801EA52FE4F88E08183828383838483E2
:102EF00085838683E4CF8701C12CD12CD8018C91A6
:102F0000883059F40E94B035A30192010E941D3609
:102F1000672B682B692B09F49FC2BFEFCB1ADB0A22
:102F20000F5F1F4FE8E0CE16D10441F7F8E0EF0E37
:102F3000F11C2EE7E21622E0F206E9F60FE812E0B5
:102F400095E0C92ED12CE12CF12CBB24B3940E9426
:102F5000B035A70196010E941D36672B682B692B9F
:102F600019F4D801BC9202C0F80110820F5F1F4F04
:102F7000F2E003391F0759F78091D501811129C06B
:102F800011EDE12E11E0F12E1FE103E0402E512C56
:102F9000612C712C86E0882E912CA12CB12CD701AC
:102FA0008D917D01813059F40E94B035A3019201C9
:102FB0000E941D36672B682B692B09F450C21F5FD6
:102FC000133269F78091D5018823E9F080E090E021
:102FD00025C005E010E0B6E0CB2ED12CE12CF12C81
:102FE0000E94B035A70196010E941D36660F862FFC
:102FF000880F880F680F615E80E00E94EF0D01501E
:10300000110971F7DFCF0E94B03522E030E040E0D7
:1030100050E00E941D36CB01880F991FFC01EF5232
:10302000FE4F2081211101C001966BE0680F0E94C4
:10303000EF0D0E94EF1E0E948A0F6DE5E62E65E0FF
:10304000F62E7DE4272E75E0372EEDE3F5E0FC8FBC
:10305000EB8FC12CD12CE3E08E2E912CA12CB12C26
:10306000F2E04F2E512C612C712C8091D501F7E0AC
:103070008F9FC001112408968C159D050CF48AC001
:103080000E94B035A50194010E941D36672B682B64
:10309000692B09F06DC08091D50181110AC00E9491
:1030A000B035A30192010E941D368B01000F111F44
:1030B00002C000E010E0F801EF52FE4F8081811164
:1030C00002C00F5F1F4FF801E657FD4F2081298F87
:1030D000F801EA57FD4F6081062E000C770B621B4A
:1030E000710927FD73956F5F7F4F072E000C880BCA
:1030F000990B0E945A27398D630FD1016C93F80107
:10310000EE57FD4FB081B98FF801E258FD4F608155
:10311000062E000C770B6B1B7109B7FD73956F5F63
:103120007F4F072E000C880B990B0E945A27498D60
:10313000460FEB8DFC8D4083D1016C91809139015C
:10314000681799F080913A01481779F0B8E06B9FC1
:10315000F0011124EB56FB4FE40FF11D808181112A
:1031600004C08C2D0E946A1405C0F701108202C0B1
:10317000D7011C92BFEFCB1ADB0AEFEFEE1AFE0A63
:10318000FFEF2F1A3F0A2B8D3C8D2F5F3F4F3C8F57
:103190002B8F6BCF81ED91E09C8F8B8F26E8622E79
:1031A00022E0722E3AE8432E32E0532EAEE7B2E030
:1031B000BE8FAD8F42E8242E42E0342E81017D0186
:1031C000620153019A8F898FA98DBA8D8D91BA8F23
:1031D000A98F8130E9F5812C912C8091D501B7E040
:1031E0008B9FC00111240296881599058CF1F50179
:1031F0002081022E000C330B2F5F3F4F032E000C5B
:10320000440B550BD6016C91062E000C770B880BE6
:10321000990B0E9474276F8FF7012081022E000CFA
:10322000330B2F5F3F4F032E000C440B550BD8017F
:103230006C91062E000C770B880B990B0E9474275B
:1032400040E08F8D0E944A12BFEF8B1A9B0AC5CFB8
:10325000EFEFAE1ABE0AFFEFCF1ADF0A2FEFE21A26
:10326000F20A0F5F1F4F85ED91E0A98DBA8D8A1785
:103270009B0709F0A9CF80913C0163E00E94803652
:103280009923E9F090913C0180910001981708F092
:103290004CC0F6C0FFEF6F1A7F0A2FEF421A520A96
:1032A0008D8D9E8D01969E8F8D8F9FEF291A390AE5
:1032B000A5EDB1E0EB8DFC8DAE17BF0719F3EB8DDB
:1032C000FC8D8191FC8FEB8F813021F7D3012C9104
:1032D000022E000C330B2F5F3F4F032E000C440BCC
:1032E000550BF2016081062E000C770B880B990BB1
:1032F0000E947427162FAD8DBE8D2C91022E000CCE
:10330000330B2F5F3F4F032E000C440B550BF10185
:103310006081062E000C770B880B990B0E94742796
:1033200042E0812F0E944A12B5CF80913B0190E08C
:10333000019725E0289FF001299FF00D1124ED56FB
:10334000FD4F8081803909F49BC08091D5018111A6
:103350000AC00E94B03522E030E040E050E00E9418
:103360001D36660F01C060E0E62FF0E0EF52FE4F21
:103370008081811101C06F5F062F10E0F801E657D0
:10338000FD4FF080F801EA57FD4F6081062E000CDA
:10339000770B6F197109F7FC73956F5F7F4F072EDD
:1033A000000C880B990B0E945A27F60EF801EE5775
:1033B000FD4FE080F801E258FD4F6081062E000CC1
:1033C000770B6E197109E7FC73956F5F7F4F072EBE
:1033D000000C880B990B0E945A27E60E0E94E40D00
:1033E00028E0F29EF0011124E352FC4FEE0DF11D96
:1033F00091E0980F908335E0839FF0011124EB5EFC
:10340000FC4F80E9808381E08183128213821482E1
:1034100037C081E08093D5018093D10180938A02E7
:103420008093820283E18093860286E080937E020D
:1034300080E00E94530EA0CD0E94B03524E030E021
:1034400040E050E00E941D36660F771FFE01E60F38
:10345000F71F1282118269CCD801BC925ECD0E9406
:10346000B035A50194010E941D36E12FBAE06B9F93
:10347000E00D11246E2F81EE810F0E94EF0D9FCD84
:10348000A6960FB6F894DEBF0FBECDBFDF91CF91E9
:103490001F910F91FF90EF90DF90CF90BF90AF9072
:1034A0009F908F907F906F905F904F903F902F9064
:1034B00008958F929F92AF92BF92CF92DF92EF9238
:1034C000FF920F931F93CF93DF9390914001992325
:1034D00051F00E94B03524E030E040E050E00E941E
:1034E0001D3681E0860F90914401911114C0082F80
:1034F00010E0E801229781708C9FC02D1124C80133
:10350000019762E070E00E949A3603501109809F93
:10351000E02C112402C0E12CC0E010928E028091B8
:1035200039016C2F0C2E000C770B680F711D009168
:103530003A012E2D0E2C000C330B200F311DAB0148
:10354000B3E0440F551FBA95E1F7FA01EB56FB4F74
:10355000E20FF31F10811111ACC12830310508F0C2
:1035600043C26531710508F03FC24A525E4FFA010D
:10357000E20FF31F90819150983C08F035C2909172
:103580004801911106C0C80FC09339010E0D009378
:103590003A018DE10E94881F80914701811124C268
:1035A00080913901C0913A010C2F10E098E0899F79
:1035B000E0011124FE01E352FC4FE00FF11F808176
:1035C000811104C08DE10E94881FDAC090E001974C
:1035D00025E0289FF001299FF00D1124EB5EFC4FA0
:1035E0006081862F82958F706F70893028F48530C6
:1035F00030F48130B8F015C0893099F013C0E82F4D
:10360000F0E0EE0FFF1FE257FE4F20813181062EC2
:1036100002C0369527950A94E2F7A22FA170FA2EE0
:1036200001C0F12C4F2D0E94461FCE0183529C4FAA
:103630006C01C00ED11EF6018081282F30E0215090
:10364000310995E0929FF001939FF00D1124EB5EFC
:10365000FC4F90819031D9F4918140914B01509170
:103660004C0160914D0170914E01490F511D611D3A
:10367000711D40934B0150934C0160934D01709329
:103680004E0181500E94AD11D6011C9279C08481F7
:1036900087FD2BC0A0913B01AA3109F471C0C35230
:1036A000DC4FC00FD11F888195E09A9FD001112473
:1036B000AD56BD4F282F30E021503109929FF001C7
:1036C000939FF00D1124EB5EFC4F01900D929A95A3
:1036D000E1F781500E94AD11188280913B018F5F0C
:1036E00080933B010E947A0D4BC063E9E62E62E0B5
:1036F000F62EA12CB12C40E075E0972E80913B0175
:1037000090E0A816B906CCF5F6018081282F30E0AC
:1037100021503109929EF001939EF00D1124EB5E31
:10372000FC4FD7012C919081291320C012962C9127
:103730001297928129131AC013962C911397938193
:10374000291314C014969C9114972481292726FDCF
:103750000DC011962C9111979181920F11969C9307
:1037600081500E94AD11F601108241E0FFEFAF1AC7
:10377000BF0A85E0E80EF11CC1CF442309F48ACFCB
:103780002091390180913A0190E0A8E02A9F9001B0
:103790001124F901EA52FE4FE80FF91F408151EE62
:1037A000540F5C3410F4405B40832A523E4FF901C1
:1037B000E80FF91F808191E9980F9C3408F014C13B
:1037C0006AE00E948036D82F0E94B03522E030E0B7
:1037D00040E050E00E941D36672B682B692B09F0F2
:1037E00063C08EE50E94772BC5EFCD0FC23011F17B
:1037F00098F4CC23B9F0C13009F056C00E94B0351E
:1038000023E030E040E050E00E941D36862F62E069
:103810008F5F0E94261548C0C430B9F098F0C530BB
:10382000F9F042C080913C018F5F80933C010E947F
:103830004A153AC080914401811136C085E08093D9
:10384000440132C00E948A0F2FC0C0913D01C43094
:1038500058F185E00E945D2D882309F4DFC024C063
:1038600061E084E00E94482D8823F1F0082F10E0E9
:1038700001501109C09FF001C19FF00D1124ED56B8
:10388000FD4F848183FD10C089E00E945D2D811170
:103890000BC085E0809FF001819FF00D1124ED5653
:1038A000FD4F8281815082838CE08D0F0E94881FA2
:1038B0009BC0E12FF0E0E45AFA4FD0818DE10E94E5
:1038C000881F0E94B03524E630E040E050E00E94BE
:1038D0001D36D62E61E083E00E94482D882309F131
:1038E00090E0019725E0289FD001299FB00D112479
:1038F000AD56BD4F2C912F7030E0F901EE0FFF1F38
:10390000EF57FD4FE4911296FC901297FE0EF901CD
:10391000EE0FFF1FED57FD4FE49113960C910E0F24
:1039200002C000E0F12C80913F01880F885D9F2D3F
:10393000990F9F0D890FD81608F056C0115060E2FC
:10394000812F0E943F2BF09EF00111249F01FF0F59
:10395000440B550B6F2D70E080E090E00E947427BF
:103960004B015C0190913D0180914A01890F0E94B9
:10397000C529282F00913A010E0D80913901C80FF9
:10398000880C991CAA1CBB1C30E0C901880F991F28
:10399000092E000CAA0BBB0B880D991DAA1DBB1D7F
:1039A00040914901042E000C550B660B770B840FD8
:1039B000951FA61FB71F20913F01820F911DA11DCA
:1039C000B11DBC01CD016F5F7F4F8F4F9F4F22E034
:1039D00030E040E050E00E941D36422F6D2F6F71A5
:1039E0002C2F812F0E949A2B0E94F1290E94EF0F09
:1039F00080914301882321F080915B0180FD12C0FA
:103A0000DF91CF911F910F91FF90EF90DF90CF90BA
:103A1000BF90AF909F908F900C94951FC150C09312
:103A20003D0142CFDF91CF911F910F91FF90EF9019
:103A3000DF90CF90BF90AF909F908F900895CF93DD
:103A4000DF93C82FD0E0FE01EB57FB4F808186FF4C
:103A500009C088E00E945D2D811104C0809146015B
:103A6000813081F580914201C35ADA4F8823D1F029
:103A700088818056803260F40E94B03529E030E0C1
:103A800040E050E00E941D36FB01E057FC4F15C09E
:103A90000E94B0352AE130E040E050E00E941D363F
:103AA000FB0109C0E88180EA8E0F803210F48AE2BF
:103AB00005C0EF71F0E0E754F74F8491DF91CF91AB
:103AC0000C94FA26DF91CF910895982F990F890FC2
:103AD000880F8F5FE1E7F5E085838483660F660FCB
:103AE000660F615066830895CF92DF92EF92FF9246
:103AF0000F931F93CF93DF939DE5E92E95E0F92E69
:103B00000DE315E0CDE4D5E0D12C2AE0C22EF7017B
:103B100081917F01803208F45EC08091450181115E
:103B200050C0E091390180913A0198E0E99FF0019D
:103B30001124EA52FE4FE80FF11D2081822F6C2DD7
:103B40000E948036A92FE92FF0E0E257FD4F8081D7
:103B500081111DC02830D9F0288130E0F801408162
:103B600050E0F90183E0EE0FFF1F8A95E1F7EA527A
:103B7000FE4FE40FF51F80810E948036A91307C015
:103B8000BA01C9010E94651D8D2D0E941F1D8881EB
:103B900090E02091390130E0281B390B2F5F3F4F17
:103BA00023303105C0F4F801608170E020913A01C2
:103BB00030E0261B370B2F5F3F4F2330310558F481
:103BC00005C0F801608170E0888190E00E94651D69
:103BD0008D2D0E941F1D0F5F1F4F2196D394F0E182
:103BE000DF1295CFDF91CF911F910F91FF90EF9052
:103BF000DF90CF9008950F931F93CF93DF93809121
:103C00004101882379F060913A0170E08091390197
:103C100090E00E94651D80E4DF91CF911F910F918C
:103C20000C94FA26C0E0D0E000E010E08091390169
:103C30009E01280F311DC901019720913A01B80159
:103C4000620F711D61507109FC0123E0EE0FFF1F2F
:103C50002A95E1F7EA52FE4FE60FF71F20813FEF6A
:103C6000320F363018F02F512C3428F40E94651D85
:103C70008EE20E94FA260F5F1F4F03301105B1F646
:103C80002196C330D10581F6BECFAF92BF92CF92BD
:103C9000DF92EF92FF920F931F93CF93DF9306ED86
:103CA00011E0C0E0D0E08AE0B82EEC2EE694E69475
:103CB000E69488E0E89E70011124C12CD12C9C2F41
:103CC0009770A92EB601CE010E94651DF601EE0D7A
:103CD000FF1DE954FE4F808190E00A2C02C09595AB
:103CE00087950A94E2F780FF4FC0F801EC0DFD1DA7
:103CF0002081222309F448C08FEF820F863020F004
:103D000081EE820F8C34F8F4E091390180913A0110
:103D100098E0E99FF0011124EA52FE4FE80FF11DEF
:103D200080816B2D0E948036392FE92FF0E0E25719
:103D3000FD4F8081811107C0822F0E948036391388
:103D400023C08EE230C0283009F185EF820F863023
:103D5000F8F08BEE820F8630E8F081E9820F8C3428
:103D6000D8F081E4820F8830C8F087E3820F863074
:103D7000B8F08DE2820F8630A8F083E2820F8630A1
:103D800078F0275E263070F080E20DC083E20BC031
:103D900085E209C08BE207C08FE505C08FE303C051
:103DA00086E201C08CE70E94FA268FEFC81AD80A73
:103DB00098E0C916D10409F085CF2196085F1F4FFE
:103DC000C531D10509F071CFDF91CF911F910F91CE
:103DD000FF90EF90DF90CF90BF90AF900895CF937A
:103DE000DF9388EAE5E9F4E0DF01482F1D924A9568
:103DF000E9F7EDEDF3E0DF011D928A95E9F788E13F
:103E0000E7EBF1E0DF011D928A95E9F788ECE5E147
:103E1000F3E0DF011D928A95E9F7EDE4F5E02DE38B
:103E200035E08DE595E0C5EAD1E065E874E01192F2
:103E3000D9011D929D01DC011D92CD011992DB017A
:103E40001D92BD01B5E0ED35FB0789F7DF91CF91FC
:103E50000895E82FE695E695E69598E0E99FF0014C
:103E60001124E954FE4FE60FF11D282F277081E041
:103E700090E0A0E0B0E004C0880F991FAA1FBB1F0C
:103E80002A95D2F72081822B80830895CF93DF93E8
:103E9000CDB7DEB72D970FB6F894DEBF0FBECDBFFE
:103EA0009DE0E7E7F1E0DE01119601900D929A9511
:103EB000E1F790E070E0FE01E80FF91F411105C045
:103EC0008081FB01E80FF11D10C0258105973EE0C0
:103ED000389FF001399FF00D1124EF5FFE4FE60F80
:103EE000F71FE081F0E0E20FF11DEE0FFF1FE95236
:103EF000F84F259134912093B5013093B6012D965A
:103F00000FB6F894DEBF0FBECDBFDF91CF910895FD
:103F1000E82FF0E0EE0FFF1FE756F84F85919491E0
:103F20009093B6018093B50108952F923F924F92DE
:103F30005F926F927F928F929F92AF92BF92CF9239
:103F4000DF92EF92FF920F931F93CF93DF93CDB742
:103F5000DEB72B970FB6F894DEBF0FBECDBF0DE5D1
:103F600015E02DE435E03A8329839DE3492E95E061
:103F7000592E25E8622E24E0722E1B8235E0832E16
:103F8000912CA12CB12CD8018C9181118EC00E9452
:103F9000B03520E830E040E050E00E941D36672B4D
:103FA000682B692B09F049C3E091390180913A01EE
:103FB000B8E0EB9FF0011124EA52FE4FE80FF11D2B
:103FC00080819091D50191111DC090E001976AE028
:103FD00070E00E949A369C0162E070E00E949A367E
:103FE000281B390B37FF02C02F5F3F4F35952795B0
:103FF000C901019662E070E00E949A366C01CC0C17
:10400000DD1C02C0C12CD12CF601EF52FE4F808185
:10401000811103C0EFEFCE1ADE0AF601E657FD4F1D
:10402000E080F601EA57FD4F6081062E000C770B09
:104030006E197109E7FC73956F5F7F4F072E000CB7
:10404000880B990B0E945A27E60EA981BA81EC923F
:10405000F601EE57FD4FE080F601E258FD4F60811A
:10406000062E000C770B6E197109E7FC73956F5FD4
:104070007F4F072E000C880B990B0E945A274E2D5C
:10408000460FF2014083A981BA816C91B8E06B9F21
:10409000F0011124EB56FB4FE40FF11D80818111DB
:1040A000CCC28B810E946A14C8C2F3019081892F0F
:1040B000881F8827881F8F5F92FF04C090915B0143
:1040C00090FDBBC2212C312C282F30E03F832E8362
:1040D0004E815F81241635060CF0AFC2D8018C9159
:1040E00090EC980F903A08F481C08F718531D1F52A
:1040F000E091390180913A01B8E0EB9FF001112481
:10410000EA52FE4FE80FF11D2081283009F4C2C2A7
:10411000A981BA81EC91D2018C91B8E0EB9FF001BA
:104120001124EA52FE4FE80FF11D8081AAE0EA2E29
:104130006E2D0E948036392F822F0E9480363913CF
:10414000A9C2F301808183FFA5C280E20E94772B80
:1041500082E10E94881FE0924001D3018C91877F09
:104160008C9348C0893109F095C2EE24E394D12C98
:1041700065E08E2D0E94E72C97FF02C081509F4F73
:10418000892F990F990BFC01E45AFA4F80818F71A6
:10419000893109F4D394E394B5E0EB12E9CFDD2043
:1041A00009F478C20E94B03522E030E040E050E0EF
:1041B0000E941D36672B682B692B09F06BC28AE2BF
:1041C0000E94772B83E10E94881F80913F0166E166
:1041D00070E0681B7109072E000C880B990B0E9478
:1041E0005A27862F63E00E94261504C045E050E060
:1041F00059874887D3018C9185FF0DC00E94B03547
:1042000023E030E040E050E00E941D36672B682B31
:10421000692B09F4F9C228853985215031092430E8
:10422000310508F006C248855985417055278885B3
:1042300099850297849FF02C11242170332788855B
:1042400099850397289F902D1124E981FA81808117
:10425000682F70E09B012F0D311DF7FC3A95E0911E
:104260003901F0E02E173F0709F095C1D2015C91AA
:10427000A92F092E000CBB0BA50FB11DE0913A012F
:10428000F0E0AE17BF0709F086C12114310409F030
:10429000D0C1D801EC91EF71EE2EB7E0EB9FF001A9
:1042A00011249F012F523D4F6901F90133969491DA
:1042B00080913F01880F981B80914901880F981BBE
:1042C0009C830E94B03524E630E040E050E00E943C
:1042D0001D366D8361E084E00E94482D8823A9F09B
:1042E00090E0019725E0289FD001299FB00D11246F
:1042F000AD56BD4FEC91EF70F0E0ED52F74FE49109
:1043000012968C91FE2EF80E01C0F12C3C814D814D
:10431000431708F08EC1F601329624913197E4914B
:1043200030E040E050E06E2F70E080E090E00E94CE
:1043300074279B01AC016F2D7DEF7603D001112412
:10434000AC59BF4F0E94473624E630E040E050E0D1
:104350000E941D36D22E80E20E94772B64E06E0D03
:104360008D2DD7FC80E00E942615D3018C9183FF10
:1043700060C18E2D90E0FC013597E231F10508F027
:1043800058C1EB57FF4F0C94AE360E94B035A501D3
:1043900094010E941D36672B682B692B09F049C1D7
:1043A0008DE00E94881F0E94B035A50194010E94F3
:1043B0001D366C5F609344010E94B03524E130E00B
:1043C00040E050E00E941D36672B682B692B09F0F6
:1043D000DEC261E080914F010E942615D8C2809113
:1043E0003D01843008F425C185E00E945D2D8823BD
:1043F00009F417C21EC180914B0190914C01A0910C
:104400004D01B0914E01C397A105B1050CF411C146
:104410000E94B0352AE030E040E050E00E941D36B6
:10442000672B682B692B09F010C203C161E084E09F
:104430000E94482D882309F4FCC090E0019745E0D4
:10444000489F9001499F300D1124F901ED56FD4F11
:104450006F01848183FF1FC2ECC00E94B03522E04F
:1044600030E040E050E00E941D36672B682B692B3E
:1044700009F0DFC00E94B03524E130E040E050E0B8
:104480000E941D36E62EB5E06B9FF0011124ED561B
:10449000FD4F848184FDCDC08FE00E94881F8E2D4A
:1044A0000E94B229F80180818054808370C280917B
:1044B00047018111BEC081E10E94881F81E0809385
:1044C000480165C280913F01863008F4B2C00E9465
:1044D000B035A50194010E941D36672B682B692B0E
:1044E00009F4E9C1A6C00E94B0352AE030E040E0FE
:1044F00050E00E941D3664307105810591050CF075
:1045000098C085E10E94881F0E94B03523E030E00A
:1045100040E050E00E941D36E62E60FF2DC08091E5
:104520004F0190915001A0915101B09152018A30F8
:104530009105A105B1050CF42AC20197A109B109A1
:1045400080934F0190935001A0935101B093520179
:104550008091530190915401A0915501B091560161
:104560000197A109B1098093530190935401A0933D
:104570005501B09356010BC285E00E945D2D9091CC
:104580003D01882309F4FFC1963008F0FCC1EE20FC
:1045900009F4FDC1C4CFD8015C915F715F3009F4AB
:1045A00048C02531310508F044C0F201F081FC8398
:1045B0004F2F50E05B874A87FA01E90FF11D97FD05
:1045C000FA95E830F105A8F5A3E0220F331FAA956C
:1045D000E1F7D901AB56BB4F6D01CE0EDF1ED60100
:1045E000EC90E11026C02A523E4FE20FF31F2081CB
:1045F00021502E3BF0F423E0660F771F2A95E1F758
:104600006B567B4FDA01A60FB71F1C928F0DE98105
:10461000FA818083FC819F0FD2019C93B8E08B9F2D
:10462000F0011124EB56FB4FE90FF11D8B818F5FD9
:104630008083EFEF2E1A3E0A4BCD0F5F1F4FFB8199
:10464000FF5FFB8329813A812F5F3F4F3A832983A4
:104650003FEF431A530A4FEF641A740AF03109F01E
:1046600092CC2B960FB6F894DEBF0FBECDBFDF9174
:10467000CF911F910F91FF90EF90DF90CF90BF905F
:10468000AF909F908F907F906F905F904F903F90F2
:104690002F900895D8018C91805E803210F091E0C7
:1046A00001C09FEFE981FA818081F0913901FC839B
:1046B000F81730F5692F092E000C770B282F30E002
:1046C000261B370BD2014C9150E0E3E0220F331F41
:1046D000EA95E1F7F901EB56FB4FE40FF51FE08196
:1046E000E1110EC02A523E4FF901E40FF51F20815F
:1046F00021502E3B28F4E2E0F0E0E61BF70B73C0FC
:10470000D2014C9150913A01541710F5A92F092E5E
:10471000000CBB0B242F30E02A1B3B0BE8E08E9FE4
:10472000B0011124FB01EB56FB4FE20FF31FE081B8
:10473000E1110EC06A527E4FFB01E20FF31F208190
:1047400021502E3B28F423E030E02A1B3B0B59C0BC
:104750003C81831730F5692F092E000C770B798780
:1047600068879B01280F311DE42FF0E0B3E0220F92
:10477000331FBA95E1F7D901AB56BB4FAE0FBF1F40
:104780006C9161110EC02A523E4FE20FF31F20813F
:1047900021502E3B30F48885998502969987888729
:1047A00029CD451718F5A92F990FBB0BB987A887F5
:1047B0009D01240F311DB8E08B9FC0011124FC0125
:1047C000EB56FB4FE20FF31F408141110FC08A529D
:1047D0009E4FFC01E20FF31F808181508E3B30F42D
:1047E000E885F9853396F987E88704CD0E94B035CE
:1047F00024E030E040E050E00E941D369B012F5F36
:104800003F4F39872887F6CC0E94B03524E030E04E
:1048100040E050E00E941D36FB013196F987E887A1
:10482000FACC0E94B035A50194010E941D36672B79
:10483000682B692B09F0FDCE8EE00E94881F8091C5
:104840003D01815080933D01A2C08FE00E94881FEE
:10485000C0904B01D0904C01E0904D01F0904E0182
:104860000E94B03522E330E040E050E00E941D3667
:10487000A7019601261B370B480B590B20934B01C0
:1048800030934C0140934D0150934E01D8018C91CF
:1048900080548C937CC089E00E945D2D8111C9CE2B
:1048A00080E10E94881FD60112968C911297815048
:1048B00012968C936CC084E10E94881F6091630102
:1048C00070916401809165019091660122E030E071
:1048D00040E050E00E941D36209363013093640154
:1048E0004093650150936601DA01C9010197A1095E
:1048F000B1098093570190935801A0935901B09347
:104900005A0180913F01815080933F018091530172
:1049100090915401A0915501B09156016C017D0117
:10492000E3E0CE1AD108E108F1080E94B03527E093
:1049300030E040E050E00E941D36A7019601261BA2
:10494000370B480B590BDA01C901209353013093FF
:104950005401409355015093560140914F0150919D
:104960005001609151017091520184179507A6077B
:10497000B7076CF480934F0190935001A0935101BD
:10498000B093520104C0915090933D0100CE80E25B
:104990000E94772B4ECE0F931F93CF93DF932091DE
:1049A000390180913A0190E048E0249F9001112460
:1049B000DC01A20FB31F60E070E01997A901485015
:1049C00051099C012F5F3F4F98E06831710561F1FB
:1049D000FD01E60FF71FEA52FE4FEA01C60FD71F8F
:1049E000CA52DE4F8F010C1B1D0B20173107CCF074
:1049F000808111EE180F1C3410F4805B0FC013E29D
:104A0000180F163010F4885C09C0843E11F49083AE
:104A100006C019E1180F163010F4825D80833196BC
:104A2000E1CF685F7F4FD1CFDF91CF911F910F9181
:104A30000895CF92DF92EF92FF920F931F93CF933F
:104A4000DF936C017A018B01C0E0D0E0CE15DF0569
:104A500081F0D8016D918D01D601ED91FC9101900D
:104A6000F081E02DC6010995892B11F02196EECF3A
:104A70007E01C701DF91CF911F910F91FF90EF90C1
:104A8000DF90CF90089508952F923F924F925F92BA
:104A90006F927F928F929F92AF92BF92CF92DF924E
:104AA000EF92FF920F931F93CF93DF9300D000D02C
:104AB000CDB7DEB7DC016A3081F415968C9115977D
:104AC00014968C93149716969C91169719968C9120
:104AD0001997890F16968C93FEC060526F3508F0B7
:104AE000F0C01496EC9014974E2C0E2C000C550828
:104AF000EAEDF8E0F490EBEDF8E0E4910F2D10E032
:104B00006623E1F081E090E04E2F477011F480E0E1
:104B100090E04E2F469546954695840F911D809FB7
:104B20006001819FD00C909FD00C11246C9DA0013E
:104B30006D9D500D11244452574F02C04CED58E06A
:104B4000040D151D101611060CF0BBC016968C91A5
:104B500016978F5F682F082E000C770B6B01CE0E17
:104B6000D11C1C141D040CF0ACC0603471050CF099
:104B7000A8C04115510509F4A4C087706B0177FFE7
:104B800003C027E0C20ED11C93E0D594C7949A9538
:104B9000E1F7FC2D77FF04C0882311F0FFEFFC0D37
:104BA00057FE05C0662777276419750902C060E0C3
:104BB00070E00038110524F090E8992E9E1801C08D
:104BC0009F2C961A0F2F0F2E000C110BFF3F1CF479
:104BD000E02EE09401C0E12C21E03E2F377009F473
:104BE00020E0E695E695E695922F9E0F090F111DA0
:104BF0000930110514F098E09F1B8E2C8F0E01E0F8
:104C000010E0082E02C0000F111F0A94E2F7DF2CFB
:104C1000D9185B01FE9CA00CB11C11244A0D5B1D30
:104C2000EFEFE09F7001E19FF00C1124E094F0940D
:104C30007E2C282D30E82303400C511C11249201B6
:104C4000260F371F25573A4F9F0F692D70E0FB0144
:104C5000ED0DF11D6F019815A1F1B9011A01B22CEA
:104C6000B41AB91440F5F1016490609E5001619E40
:104C7000B00C1124BA82A982FC82EB8287FC05C0A9
:104C8000FB01B080B720AB28A082882371F0F6E04A
:104C9000F8155CF05B01E0E8AE0EB11CF501508048
:104CA0006C8065205A8065286082FFEF2F1A3F0ACA
:104CB0006F5F7F4FD4CF83944C0D5D1D20583F4FC5
:104CC000CACF18968C9118978B5F14969C91149765
:104CD000890F14968C9381E090E00F900F900F90C5
:104CE0000F90DF91CF911F910F91FF90EF90DF9088
:104CF000CF90BF90AF909F908F907F906F905F907C
:104D00004F903F902F900895089580E090E008958F
:104D10008F929F92AF92BF920F931F93CF93DF9387
:104D2000CDB7DEB7A1970FB6F894DEBF0FBECDBFEB
:104D300019A2423008F44AE08E010F5D1F4F842E05
:104D4000912CA12CB12CA50194010E944F36E62F85
:104D5000B901CA0101501109EA3014F4E05D01C043
:104D6000E95CD801EC93232B242B252B61F701154B
:104D7000110571F0F80101900020E9F73197AF01BA
:104D8000401B510BB80181E795E00E94192502C034
:104D900080E090E0A1960FB6F894DEBF0FBECDBFC5
:104DA000DF91CF911F910F91BF90AF909F908F9007
:104DB00008950E94D73680E0EBE8F5E081118FEF8F
:104DC000002481938193819381930394D1F7089573
:104DD00020918105282329F490918005982381E072
:104DE00009F480E00895682F70E080E090E04AE0E8
:104DF0000C948826682F81E795E00C9444250F9346
:104E00001F93CF93DF938C01C0E0D0E0F801EC0F4B
:104E1000FD1F6491662341F081E795E00E944425DF
:104E2000892B11F02196F2CFCE01DF91CF911F9106
:104E30000F910895CF92DF92EF92FF92CF93DF937D
:104E400097FF19C06B017C018DE20E94FA26EC01EC
:104E500066277727CB016C197D098E099F094AE0E7
:104E60000E9488268C0F9D1FDF91CF91FF90EF90BD
:104E7000DF90CF9008954AE0DF91CF91FF90EF90BF
:104E8000DF90CF900C948826BC01990F880B990B6A
:104E90000C941A27EBE8F5E080E0A0E0B8E0008091
:104EA0000EBC8111012C1197A0FDFDCF0192B9F725
:104EB0000DB40895CF92DF92EF92FF9261157105C4
:104EC0008105910549F06B017C010E94B035A70175
:104ED00096010E941D3603C060E070E0CB01FF9098
:104EE000EF90DF90CF900895CF92DF92EF92FF92F4
:104EF0000F931F93621773078407950784F4890142
:104F00009A016B017C01C901B8016C197D098E09F8
:104F10009F090E945A276C0D7D1D8E1D9F1D1F919C
:104F20000F91FF90EF90DF90CF9008953FB7F894E6
:104F30008091870590918805A0918905B0918A0597
:104F400026B5A89B05C02F3F19F00196A11DB11DE4
:104F50003FBFBA2FA92F982F8827820F911DA11D1F
:104F6000B11DBC01CD0142E0660F771F881F991F5C
:104F70004A95D1F708958F929F92AF92BF92CF92A8
:104F8000DF92EF92FF926B017C010E9496274B010A
:104F90005C01C114D104E104F104F1F00E949627F0
:104FA000DC01CB0188199909AA09BB09883E934005
:104FB000A105B10570F321E0C21AD108E108F1089A
:104FC00088EE880E83E0981EA11CB11CC114D10488
:104FD000E104F10419F7DDCFFF90EF90DF90CF905F
:104FE000BF90AF909F908F9008951F920F920FB631
:104FF0000F9211242F933F938F939F93AF93BF935F
:1050000080916D0590916E05A0916F05B09170052E
:105010003091860523E0230F2D3720F40196A11D42
:10502000B11D05C026E8230F0296A11DB11D2093D6
:10503000860580936D0590936E05A0936F05B093E0
:1050400070058091870590918805A0918905B091A0
:105050008A050196A11DB11D80938705909388054F
:10506000A0938905B0938A05BF91AF919F918F91CD
:105070003F912F910F900FBE0F901F901895BC017C
:1050800080E090E00C94BB278FB18095807F669B79
:1050900088601C9B84600895CF92DF92EF92FF920C
:1050A0000F931F93CF93DF93EB017B0125E0E20E7B
:1050B000F11C8B016C01C61AD70AC601800F911F23
:1050C0000E940736F80181938F01EE15FF05A9F7BD
:1050D000CE01DF91CF911F910F91FF90EF90DF9064
:1050E000CF900895AF92BF92CF92DF92EF92FF924E
:1050F0000F931F93CF93DF9300D0CDB7DEB78B0113
:105100006B0125E0C20ED11C7B015C01A61AB70A17
:10511000C5018E0D9F1DF70161917F019A838983DF
:10512000CE0101960E948705EC14FD0489F7C801A1
:105130000F900F90DF91CF911F910F91FF90EF9003
:10514000DF90CF90BF90AF9008950E94DB268091B2
:105150004101811109C00E94451E0E94FB1D0E9451
:10516000BA110E94741D02C00E94FB1D85E00E94BE
:10517000881F0E9451140E944A270E94F6149091A1
:105180004001992351F00E94B03524E030E040E026
:1051900050E00E941D3681E0860F0895FF920F9324
:1051A0001F93CF93DF93F82EC62F142F022FDFEF1C
:1051B000D60F6AE28D2F0E943F2BEF2DF0E0EF5FBC
:1051C000FE4FE2A58E2F90E08930910508F06DC06A
:1051D000FC01E956FF4F6C2F70E00C94AE36615025
:1051E0007109FB01E35AFA4F1082FB01E35BFA4FAE
:1051F000E081DB01A35CBA4F8C9198E0E99FF0015C
:105200001124EB56FB4FE80FF11D10824EC0FB013D
:10521000EC57FB4F808187FF02C08F7745C08460C9
:1052200043C0FB01EC57FB4F808180623DC0FB0116
:10523000EC57FB4F8081806437C0EB01C45ADA4FD2
:105240006881162F107E0E94B0352AE130E040E0E0
:1052500050E00E941D36610F688327C0FB01EC57A8
:10526000FB4F808182FF02C08B7F1EC080681CC004
:10527000FB01E45AFA4F80818F71805815C040912C
:105280003F01842F880F880F480FFB01E45AFA4F23
:1052900060816F71212F8D2F0E949A2B06C0FB0118
:1052A000EC57FB4F8081877F8083DF91CF911F91E7
:1052B0000F91FF900895AF92BF92CF92EF92FF921D
:1052C0000F931F93CF93DF93142FA82EB12CC62FCB
:1052D000D0E0F50143E0EE0FFF1F4A95E1F7E352FE
:1052E000FC4FEC0FFD1F9081992339F040E00E94A4
:1052F0004A2CF82E882361F102C035E0F32E0E947B
:10530000E40DE82F8F2DFF0C990B019763E070E0FF
:105310000E949A368A0D9B1D23E0880F991F2A95BB
:10532000E1F78B529C4FC80FD91F6C0F7D1FEB010B
:10533000219781E08E0F888385E0E89FF00111249A
:10534000EB5EFC4F108381E081830283E382C482A1
:10535000DF91CF911F910F91FF90EF90CF90BF9071
:10536000AF90089525E0829FC0011124FC01ED5605
:10537000FD4F10821182128213821482E9E3F1E060
:105380008281815082830C947A0D2FEF280F253073
:1053900018F49BEF980F23C02AEF280F2930A0F0B4
:1053A00021EF280F233090F0823191F02DEE280F5D
:1053B000223080F0853181F02AEE280F293070F0FC
:1053C0008F3168F098E00BC091E009C093E007C00E
:1053D00094E005C095E003C096E001C097E0892FF6
:1053E00008952F923F924F925F926F927F928F9289
:1053F0009F92AF92BF92CF92DF92EF92FF920F9364
:105400001F93CF93DF93CDE5D5E00DE415E08DE359
:10541000282E85E0382E9AE0C92ED12CE12CF12CD3
:1054200088818054803208F041C0F801808190E08A
:1054300020913901AC01421B510957FF03C051951E
:1054400041955109F101208130E080913A01B90183
:10545000681B7109CB0177FF03C091958195910974
:10546000840F951F039714F50E94B0354B015C0122
:1054700080E00E945D2D682F70E06F5F7F4F84E0B9
:1054800090E00E949A362B01770F66087708C501D5
:10549000B401A70196010E941D36641575058605A5
:1054A000970524F488818F71805E888321960F5F31
:1054B0001F4F7FEF271A370A85E0CD36D80709F04E
:1054C000AFCFDF91CF911F910F91FF90EF90DF90C1
:1054D000CF90BF90AF909F908F907F906F905F9094
:1054E0004F903F902F90089525E0829FC001112496
:1054F000DC01AD56BD4FEC91EF70F0E0EF5FFE4F79
:10550000848D843019F0863059F0089512969C915C
:1055100080914A01699F800D112480934A0108956A
:1055200012969C9180914901699F800D112480936E
:10553000490108958F929F92AF92BF92CF92DF92CE
:10554000EF92FF920F931F93CF93DF9380913C01D3
:10555000811103C08FEF80933C0180914B019091AA
:105560004C01A0914D01B0914E0140918B09509199
:105570008C0960918D0970918E09481759076A0747
:105580007B070CF06EC020913C0180938B099093B7
:105590008C09A0938D09B0938E0920938F090BE895
:1055A00019E0E80120E030E02F5F3F4FCE01A90174
:1055B0004530510539F4259625303105A9F7C4E663
:1055C000D0E02BC088809980AA80BB80FC01C58078
:1055D000D680E780F084C814D904EA04FB04CCF434
:1055E00065E0FE01A4EAB9E001900D926A95E1F749
:1055F00065E0FC013596DE0101900D926A95E1F7B8
:1056000065E0E4EAF9E0DC01159601900D926A95F7
:10561000E1F74F5F5F4F0596CBCFBE01695D764FD7
:10562000CE010E9472282596CD37D105B1F7409161
:105630004B0150914C0160914D0170914E0195E0EC
:1056400080E0F801C080D180E280F380C416D506E6
:10565000E606F70609F4892F0B5F1F4F915089F773
:1056600001C080E0DF91CF911F910F91FF90EF90EB
:10567000DF90CF90BF90AF909F908F9008951F9331
:10568000CF93DF93C82F162F80914101811106C05F
:105690000E94451E0E94BA110E94741DD0E0FE01B6
:1056A000E35CFA4F608170E0FE01E35BFA4F8081BA
:1056B00090E00E94651D80914101811107C0CB5788
:1056C000DB4F888186FD02C0812F01C080E20E94ED
:1056D000FA260E944A272D9864E670E080E090E068
:1056E0000E94BB272D9ADF91CF911F910895CF93F0
:1056F000C82F80914101811106C00E94451E0E9461
:10570000BA110E94741D60913A0170E080913901D4
:1057100090E00E94651D8C2F0E94FA260E944A2765
:105720002E9864E670E080E090E00E94BB272E9AFD
:10573000CF9108958F929F92AF92BF92CF92DF92B6
:10574000EF92FF920F931F93CF93DF93962FE82F43
:10575000F0E0DF01AB55BE4F3C91E35AFA4F4317DF
:1057600008F483C088E0289FD0011124AB56BB4FBA
:10577000A00FB11D1C921082C62FD0E0C09057011F
:10578000D0905801E0905901F0905A0187E06631BD
:10579000F0F08C9FD0018D9FB00D1124FD01EB52D4
:1057A000FD4FA49184E6A89FF0011124AF01FF0FE3
:1057B000660B770B4C0D5D1D6E1D7F1D40935701D1
:1057C000509358016093590170935A011BC08C9FEC
:1057D000B0018D9F700D1124FB01EB52FD4F6491C0
:1057E00046015701860E911CA11CB11C80925701E5
:1057F00090925801A0925901B0925A019F3011F431
:1058000010924801122FB92E0E94B03527E02C9F2C
:10581000F0012D9FF00D1124EA52FD4FE491CE2EA0
:10582000D12CE12CF12C24E630E040E050E00E9445
:105830001D366C157D058E059F05FCF489E0982EBC
:10584000B91002C041E001C040E0602F812FDF911C
:10585000CF911F910F91FF90EF90DF90CF90BF906D
:10586000AF909F908F900C944A12341B3C93808190
:10587000803418F08F71805E8083DF91CF911F910B
:105880000F91FF90EF90DF90CF90BF90AF909F90DF
:105890008F9008953F924F925F926F927F928F9276
:1058A0009F92AF92BF92CF92DF92EF92FF920F93AF
:1058B0001F93CF93DF93682E862EF42E0E94B0356F
:1058C00028E030E040E050E00E941D36C0913901F0
:1058D000E0913A01F0E088E0C89FE0011124DE0188
:1058E000AB56BB4FAE0FBF1F8FEF8C9300E010E0A5
:1058F000462E512C99E0C92ED12C23E0322E712C4A
:10590000912CC201800F911FB6010E949A36E82E99
:10591000632D0E948C3691509301290F311D97FD04
:105920003A958150A401480F511D87FD5A9583E097
:10593000220F331F8A95E1F7D901AA52BE4FA40F57
:10594000B51F8C918150883C20F5D901A352BC4FE2
:10595000A40FB51F6C9170E0A1E0B0E0FF2011F042
:10596000A0E0B0E06A9F50016B9FB00C7A9FB00C32
:105970001124AB2871F42B563B4FD901A40FB51F4E
:105980008C918F9DC0011124892B19F481E08E0D1B
:1059900007C00F5F1F4F0930110509F0B2CF80E03B
:1059A000CB56DB4FEC0FFD1F1082DF91CF911F9183
:1059B0000F91FF90EF90DF90CF90BF90AF909F90AE
:1059C0008F907F906F905F904F903F900895CF920F
:1059D000DF92EF92FF920F931F93CF93DF93C62F27
:1059E000E82FF0E09F01225031098170829F202D25
:1059F0001124CF01019762E070E00E949A3633973C
:105A00008E9FD02D11243091390160913A0170E0C0
:105A1000C22E022E000CDD080D2F0D2E000C110BD6
:105A2000F801E60FF11DA601430F511DA3E0440F3D
:105A3000551FAA95E1F7CA018B569B4F7C01EE0ECC
:105A4000FF1ED7018C91882319F0320F6D0F0DC006
:105A50004A525E4FE40FF51F40814150473C28F405
:105A6000320F6D0F7F5F7C13DBCF90E0982F88277C
:105A7000B5E16B9F800D911D1124830F911DDF9166
:105A8000CF911F910F91FF90EF90DF90CF900895ED
:105A9000382FE3E9F2E091E080E0208122952F7039
:105AA000231306C0248124FF03C0615009F4892F09
:105AB00035969F5F953189F708950F931F93CF9384
:105AC000DF93182FC0E0D0E005E0CF5F6C2F87E0B8
:105AD0000E94482D811108C0C230B9F78D2FDF9187
