:100000000C9453050C947B050C947B050C947B0598
:100010000C947B050C947B050C947B050C947B0560
:100020000C947B050C947B050C947B050C947B0550
:100030000C947B050C947B050C947B050C947B0540
:100040000C947B050C947B050C947B050C947B0530
:100050000C947B050C947B050C947B050C94BF17CA
:100060000C947B050C947B050C947B050C947B0510
:100070000C947B050C947B050C947B050C947B0500
:100080000C947B050C947B050C947B050C947B05F0
:100090000C947B050C947B050C947B050C947B05E0
:1000A0000C947B050C947B050C947B05D007DD0735
:1000B000E20712084408570868086C087008CB0764
:1000C0008D08910897089B08FF08F1083409620918
:1000D0007A09B109B409260AE308C309F909EB084A
:1000E000550C400B550C550C5C0C550C630C400B1F
:1000F000400B400B6B0C400B720C60187818821888
:1001000088188E189F18A918B018C018CD1DF71D93
:10011000171F171F031E171F171F1E1E341E171F22
:100120005F1E171F6A1E171F171F171F171F7B1E23
:10013000BA20D4200B218121CA21D721E7215022C6
:10014000D5F08D14A1C881CFD9F1AF2000425D2038
:10015000536176657E7175697400415D20476F203B
:100160004E657874004E65787420666C6F6F7220EF
:100170000057696E202C002D20292048616C6C20CE
:100180004F662046616D65202920202D005448458A
:1001900020414D554C4554204F462059454E444F23
:1001A000522000594F55204D414445204954204F7D
:1001B000555420574954482000202C20434F4E4787
:1001C000524154554C4154494F4E202C202000247C
:1001D000006279004B696C6C65640068656C6C66E4
:1001E000697265006C75636B006C61636B206F6690
:1001F0000046726F7A656E00537461727665005FB7
:1002000020204865726F20205F00282052455354FB
:1002100020494E20504541434520280045783B0069
:1002200041433B0053743B0048673B0048703B0030
:1002300041753B004C763B002020202020202020D0
:10024000202000425D20436F6E74696E7565004129
:100250005D204E65772047616D65004020526F67D5
:100260007565002043002045002077686963687D3C
:10027000000203030404050101010101020103015D
:10028000042020202020202020202020202020208A
:1002900000202064726F7020202020202020202049
:1002A0000020207468726F772020202020202020DA
:1002B0000020207573652020202020202020202071
:1002C0000000050A14192328323C414B555A5F643B
:1002D00000050A0F14232D37414B555A64646405F9
:1002E00008000000000000746D7400404040404071
:1002F000552A552A55042E6B3A107F437F417F6A59
:100300005767576E0060600000707A770A700810B7
:100310005F100822085D08227E4141417E060929BE
:10032000522C0008080800000000402002007D0058
:10033000023E7F417F3E00427F7F406271594F46BF
:100340002241497F3618147E7F102F4F4979313E64
:100350007F4979300161791F07367F497F36064F23
:10036000497F3E18353E3D180036360000004038C3
:100370001800102A452A101C7F3E1C08085C2E1706
:100380000A0102641F767E7F097F7E7F7F497F3668
:100390003E7F4141227F7F417F3E7F7F4949417FB0
:1003A0007F0909013E7F41797A7F7F087F7F004185
:1003B0007F7F4141417F3F017F7F1C36637F7F40CC
:1003C00040407F7E0C7E7F7F7E1C3F7F3E7F417F53
:1003D0003E7F7F090F063E7F613F5E7F7F097F760C
:1003E000264F49793200017F7F013F7F407F3F1FC9
:1003F0003F603F1F7F3F103F7F777F087F77037FFE
:1004000078070371794D47431F3F7B3F1F707A7711
:100410000A700041417F3E3E7F4141004D3A163A0D
:100420004D006F6F00002074547C787F7F447C38CF
:10043000387C444428387C447F7F387C545C1800E6
:10044000047E7F0518BCA4FC7C7F7F087870004484
:100450007D7D408080FD7D007F7F386C4400417F42
:100460007F407C7810787C7C7C047C78387C447C71
:1004700038FCFC243C18183C24FCFC7C7C0804045C
:10048000085C54742000047E7E043C7C407C7C1C10
:100490003C403C1C7C3C103C7C6C7C107C6C1CBC50
:1004A000A0FC7C4464745C4C1F3B713B1F0077775D
:1004B00077000601590F0620100804024B454253ED
:1004C0004849524F5A4C4351414E5946545750583F
:1004D000554D56474A44020304050606070A01041F
:1004E0003C0200830B0103410200020A01033C02AB
:1004F0000025080103320200030F02054303000335
:100500000F00004405000413020A460A0003190103
:100510000546050A03150107450800031900004BAD
:10052000156404200513550F0A051E030F4E1414FD
:1005300003190000641400031900004B276404230E
:10054000031250321405490000505B00014B051C9A
:100550004B7D21032D02104B3700054C05145078BC
:1005600032652A04184B6E00065A042855C8210328
:1005700061072555FA190337021255041203730A4D
:100580003255140A83840732641E000591083C64C6
:10059000325A02000A0F18213F5D60642A3A295B33
:1005A000213F3D2F2C64616E67657260000072759B
:1005B0007374207472617000706F69736F6E207451
:1005C0007261700074656C65706F72742074726112
:1005D0007000736C65657020676173006172726F83
:1005E0007720747261700074726170646F6F720052
:1005F0007A7A7A27272700647261696E6564006CD5
:100600006576656C20646F776E006275726E6564E6
:10061000006772616365640068656C64007275737D
:100620007465640073746F6C656E00706F69736FCE
:100630006E65640066726F7A656E00616C726561EA
:100640006479207769656C6400657175697070659F
:10065000640072656D6F766564006974206973204B
:100660006375727365640079756D6D79006F6F7075
:1006700073272727006C6576656C207570006469A8
:10068000727D006E6F20736C6F7400736F6D657494
:1006900068696E672068657265006E6F20737061AF
:1006A000636500492063616E6E6F740077656C63EB
:1006B0006F6D6560006E6F7468696E670063616E70
:1006C00063656C006D697373696C6500736C656557
:1006D000700066617374006368616E676500636CC7
:1006E00065617200636F6E6675736500736C6F771A
:1006F0000074656C65706F72740073656172636815
:100700000061726D6F72007365650061646F726E77
:1007100000646578007374726F6E670064616D6168
:10072000676500666F6F64006C6966650074656C70
:1007300065706F727400737465616C7468006D61CC
:100740007000616E67657200637265617465006256
:100750006C65737300736361726500736C656570BB
:100760000074656C65706F7274006964656E74699D
:1007700066790061726D6F7200776561706F6E00EF
:10078000686F6C640070726F74656374006C6F6F77
:100790006B007370656564006C657669746174657F
:1007A00000636F6E667573650069276465746563C1
:1007B00074006D276465746563740068616C6C75A2
:1007C00000626C696E64006C6576656C00706F69C0
:1007D000736F6E0065276865616C006865616C0009
:1007E000726573746F726500706F7765720059651A
:1007F0006E646F72007A696E630074696E0073696B
:100800006C76657200737465656C006E69636B6508
:100810006C006C6561640069726F6E00636F70706C
:1008200065720062726F6E7A650062726173730046
:10083000746F70617A0073617070686972650072BC
:1008400075627900706561726C006F70616C006F29
:100850006E7978006761726E657400656D657261AE
:100860006C64006469616D6F6E6400616D657468CD
:100870007973740061676174650052454144204D8D
:10088000450054454D4F5600464F4F4249450041A3
:100890004E444F56410059554D2059554D0054482E
:1008A00041525200454C4249420044414959454E4B
:1008B00000584958415841004E522039004A555974
:1008C0004544005A454C474F0079656C6C6F770082
:1008D00077686974650076696F6C65740072656429
:1008E0000070696E6B006772657900677265656E8E
:1008F000006F72616E6765006379616E00636C659D
:1009000061720062726F776E00626C756500626C76
:1009100061636B00616D62657200706C617465008B
:1009200062616E6465640073706C696E7400636804
:1009300061696E007363616C650072696E67006C5B
:1009400065617468657200646167676572007368E9
:100950007572696B656E006172726F7700646172A7
:100960007400626F770073776F726400617865005E
:100970006D616365006D6F6C6400666F6F64006726
:100980006F6C6400AC06A3069A068B0683067E068F
:1009900075066D0667065A06520649063B0634067A
:1009A0002B0624061D06180611060A06FF05F70584
:1009B000F005E705DC05D205C405B805AE05AD05B3
:1009C000A5057F097A09750970096C09660962092C
:1009D0005D0957094E0947093F093A0934092E09AB
:1009E000270920091A0914090E0909090309FD0834
:1009F000F808F108EB08E608E108DD08D608D00899
:100A0000C908C308BD08B808B108AA08A4089E0808
:100A100096088F08880882087A0874086B086308AB
:100A20005B0854084F084A0844083F083608300855
:100A30002A0823081C08170812080B080508FE07D7
:100A4000FA07F507EE07E807E007DB07D407CD074D
:100A5000C707C107BB07B207A907A10798079207F5
:100A60008D0785078007790773076A0761075B07AA
:100A700055074F07480742073E0736072D07280747
:100A800023071C07150711070B0707070107FA06BD
:100A9000F106EC06E406DE06D706D206CC06C4064E
:100AA000BD06B5069A3511241FBECFEFDAE0DEBFD2
:100AB000CDBF11E0A0E0B1E0E6EDFDE602C005909B
:100AC0000D92A239B107D9F729E0A2E9B1E001C03E
:100AD0001D92A53BB207E1F715E0C3E5D5E004C0E0
:100AE0002197FE010E94BB36C235D107C9F70E948B
:100AF000F42D0C94E9360C9400002F923F924F9203
:100B00005F926F927F928F929F92AF92BF92CF929D
:100B1000DF92EF92FF920F931F93CF93DF9300D05A
:100B200000D0CDB7DEB78C831B8222242394482EBD
:100B3000512C88E00C81801B89830E9492162092A0
:100B40005A05209259051FEF10935B052C81213027
:100B500021F489E692E00E94661661E070E03C8133
:100B6000311102C060E070E080E090E00E942C2A29
:100B70008EE30E9487161B81E12EF12CC0903B0171
:100B8000C7010896841995092C2D30E028173907DC
:100B900014F0C980C10E3B8125E0329F80011124F1
:100BA00005581D4F570188248394912CD12CAC14E7
:100BB000BD040CF0B4C081E090E02C81222311F040
:100BC00080E090E0B401681B790B81E090E00E9426
:100BD0002C2AD8018C91F80134973F0183FD08C07D
:100BE000E081E295EF70F0E0E556FA4F849101C0A4
:100BF0008BE70E94871680E20E948716D8018C91AD
:100C000087FF0CC0F8013397608170E080E090E0CE
:100C10004AE00E949F1680E20E948716F3019081AD
:100C2000692F6F70892F82958F70903510F440E096
:100C30000FC0E82FF0E0EE0FFF1FE657FE4F408198
:100C40005181062E02C0569547950A94E2F74170ED
:100C50000E94182C80917F09909180090E9466164D
:100C6000D8018C9185FF41C0F301808190ED980FF0
:100C7000903198F48EE50E948716F80132976081D2
:100C8000062E000C770B880B990B0E94F0168CE354
:100C90000E948716F80131971DC090EC980F903193
:100CA00020F090E8980F903130F48EE50E9487167E
:100CB000F80132970FC080578031B8F43801F2E064
:100CC0006F1A7108D3018C91882379F08EE50E9408
:100CD0008716F3016081062E000C770B880B990BA9
:100CE0000E94F0168DE50E948716D8018C9184FF32
:100CF00004C086E692E00E946616F8018081827444
:100D0000823421F483E692E00E946616FFEFAF1A68
:100D1000BF0A0B5F1F4F2FEF821A920A48CF0E9423
:100D200056160E942223823031F41B81112309F4CC
:100D300004CF11500CC0843061F480913B0190E0ED
:100D40000197E816F9060CF0F8CE1B811F5F1B8394
:100D5000F4CE853009F09FC62C8121119FC617E083
:100D600010935A051093590510935B0581EB92E09F
:100D70000E94661610935A05109359058FE08093D0
:100D80005B0581EA92E00E94661610935A05109363
:100D9000590587E180935B0581E992E00E94661620
:100DA00010935A05109359058FE180935B0581E8F4
:100DB00092E00E94661610935A05109359051093FD
:100DC0005B058EE30E9487160E94561610E00E9473
:100DD00022238430C9F018F4823039F0F8CF8530FE
:100DE00079F1863009F45AC6F2CF112381F3612FCD
:100DF00070E06F5F7F4F81E090E00E942C2A80E2DC
:100E00000E94871611500EC0123008F7612F70E053
:100E10006F5F7F4F81E090E00E942C2A80E20E9469
:100E200087161F5F612F70E06F5F7F4F81E090E05A
:100E30000E942C2A8EE30E9487160E945616C7CF66
:100E4000111110C3D0904401D110B3C38E9DF00195
:100E50008F9DF00D1124E958FD4F8081982F9295B8
:100E60009F708F70982E923009F05DC08181815003
:100E70008183811103C08B810E94EA19911056C4AD
:100E80000E94063623E030E040E050E00E942A361F
:100E9000672B682B692B09F049C487E00E945B2C03
:100EA0008091570190915801A0915901B0915A0138
:100EB0000296A11DB11D8093570190935801A093F4
:100EC0005901B0935A0110E060915F017091600187
:100ED000809161019091620123E030E040E050E0B8
:100EE0000E942A3669017A018CE2C80E81E0D81E80
:100EF000E11CF11CC10ED11CE11CF11C0E94063644
:100F000022E330E040E050E00E942A36C60ED71EB1
:100F1000E81EF91EC0925F01D0926001E09261016B
:100F2000F09262013BC3933009F4F1C2943009F4AA
:100F3000EEC2953009F006C1082F10E081E090E084
:100F4000A0E0B0E0092C04C0880F991FAA1FBB1FA6
:100F50000A94D2F72091940130919501822B932B22
:100F600090939501809394018181815081838111B7
:100F700003C08B810E94EA19F801EF5FFE4FE08108
:100F80004E2F50E04E30510508F0D8C0FA01EA5A11
:100F9000FF4F0C94BB3691ECE92E93E0F92EBAC0CA
:100FA00090913D0120913E0181E0890F80933D01A8
:100FB0009213C4C080933E01C1C080913E018093D2
:100FC0003D01BCC080914F0190915001A091510111
:100FD000B0915201409153015091540160915501DB
:100FE0007091560184179507A607B70721F401965B
:100FF000A11DB11D2FC08A019B01080F191F2A1FB7
:101000003B1FC901B80122E030E040E050E00E94FF
:101010002A3620934F013093500140935101509351
:1010200052018CC080914F0190915001A0915101CB
:10103000B09152014091530150915401609155017A
:101040007091560184179507A607B707A1F4029679
:10105000A11DB11D80934F0190935001A0935101A8
:10106000B09352018093530190935401A093550182
:10107000B093560163C040934F0150935001609369
:101080005101709352015AC010913D01143060F02B
:101090000E940636115023E030E040E050E00E940C
:1010A0002A36161B10933D011092420147C08091D1
:1010B000630190916401A0916501B09166018093F4
:1010C000570190935801A0935901B0935A0136C02B
:1010D00082E38093410132C082E3809342012EC0BB
:1010E00081E0809345012AC0F701E00FF11F808164
:1010F000882321F0602F8D2D0E94FB2B0F5F1F4F47
:101100000830110589F718E0E10EF11CD39425E1B0
:10111000D216A1F000E010E0E7CF8AE08093400112
:101120000DC0109248018EE18093470107C084E111
:101130008093430103C081E08093460141E0692D23
:1011400085E08DC1963009F0CBC1809141018111BC
:10115000C5C1092D10E081E090E0A0E0B0E0092CCD
:1011600004C0880F991FAA1FBB1F0A94D2F72091B1
:10117000960130919701822B932B90939701809346
:10118000960185E08E9DF0018F9DF00D1124E958A8
:10119000FD4F818181508183811103C08B810E9429
:1011A000EA19C8018F5F9E4F7C01DC011E96EC910D
:1011B0008E2F90E08C30910508F048C1FC01EC596D
:1011C000FF4F0C94BB3680913B0190E0EBE7F2E0DF
:1011D00020E030E0CDC08FEBA82E81E0B82EC12CEE
:1011E00032C12091390180913A0190E0B8E02B9F03
:1011F000800D911D112460E070E040972FC061E0E8
:1012000084E00E94302D882309F420C190E00197EA
:1012100025E0289FF001299FF00D1124E958FD4F8A
:1012200084818860848312C1FA01EA0FFB1FE758AA
:10123000FB4FE081EE2339F0F0E0E05CFA4F2081D3
:101240002F71205820834F5F5F4F4330510561F766
:10125000685F7F4F6832710509F4F8C0DC01A60FA2
:10126000B71F4EEF5FEFE0CF61E083E00E94302DCB
:10127000882309F4EBC090E0019725E0289F8001C6
:10128000299F100D112409581D4FF80184818F7B6F
:1012900084830E94063622E030E040E050E00E9465
:1012A0002A36672B682B692B41F4D80112968C9152
:1012B00012978F5F12968C93C9C0F80183818F5F5C
:1012C0008383C4C061E084E00E94302D882309F448
:1012D000BDC090E0019725E0289FF001299FF00D07
:1012E0001124E958FD4F84818F7B848382818F5F35
:1012F0008283ACC081E00E947D05F5E08F9FC00134
:101300001124FC01E958FD4F84818262848390811D
:10131000292F2F70892F82958F70903510F440E01F
:101320001CC0E82FF0E0EE0FFF1FE657FE4F41E034
:1013300050E060E070E0022E04C0440F551F661FAD
:10134000771F0A94D2F7A081B1814A2B5B2B51837E
:1013500040839059903118F341E0622F0E94182C7D
:1013600075C00E946E2772C085E0809344016EC0F4
:10137000281739070CF06AC040814F7B40832F5FEC
:101380003F4F3596F5CFE1E4F5E081E09191911181
:1013900001C0382E8F5F8131C9F741E060913A0179
:1013A000809139010E94311490E0009709F44EC0F9
:1013B0000197232D30E021503109409139014150EE
:1013C00063E070E00E94A736840FF901EF5CFA4FEA
:1013D000808340913A014150460FF901EF5DFA4F89
:1013E0004083682F8FEF830D0E9496220E943B2A34
:1013F0002DC0E1E4F5E08081882319F08F71805ED3
:101400008083319605E0E135F007A9F71FC0F801A8
:10141000808191EE980F9C3410F4805B80830F5F85
:101420001F4F8081882321F06D2D8C2D0E94FB2B76
:10143000D39428E0D212EBCFC39438E0A30EB11CB2
:1014400085E1C81619F0D12C8501E1CFD7011E9690
:101450008C91843009F4A2C041E0692D86E00E949D
:10146000182C9CC0113009F4A0C0123009F0AFCC88
:101470009091440191119DC0C0903A0100913901B1
:101480008E9DD0018F9DB00D1124A958BD4F14968B
:101490009C911497892F807194FD46C12C9130E066
:1014A000AFE0B1E09D91973009F0F1C090E0805A33
:1014B0009F4F10E0D12C43E0000F111F4A95E1F738
:1014C0002817390709F005C1F801EC0DFD1DE1549D
:1014D000FE4F80818B50863008F0DFC081E002C172
:1014E0009730C9F481E090E0A0E0B0E004C0880F3C
:1014F000991FAA1FBB1F9A94D2F72091980130918F
:101500009901822B932B90939901809398018B8161
:101510000E94722D43C0983009F040C081E090E0F5
:10152000A0E0B0E0092C04C0880F991FAA1FBB1FC0
:101530000A94D2F720919A0130919B01822B932B30
:1015400090939B0180939A0185E08E9DF0018F9D81
:10155000F00D1124E958FD4F828118161CF48150BA
:10156000828302C019E0912E0E94161864E10E9445
:10157000DC2CFC0197FF02C0E150FF4FFF2371F00C
:1015800060E071E00E94A73665E170E00E94A73636
:10159000262F482F6F2F892D0E943F180E947A19FD
:1015A0000E94FA1A0E94D32779C29091440199238C
:1015B00021F086E10E945B2C71C28E9DF0018F9D0F
:1015C000F00D1124E958FD4F848184FF0AC09081F9
:1015D00020ED290F203108F050C09F70943008F49E
:1015E0004CC086FF0CC015E01E9DF0011F9DF00D44
:1015F0001124E958FD4F908190539031E8F00E94FA
:101600001618182F61E083E00E94302D882309F41A
:1016100092C0282F30E02150310985E0829FF001EF
:10162000839FF00D1124E958FD4F90819F709330F6
:1016300009F081C064E182C08260848361E083E05C
:101640000E94302D882361F090E00197189FF001EF
:10165000199FF00D1124E958FD4F84818F7E8483FA
:1016600085E08E9DF0018F9DF00D1124E958FD4F0E
:1016700084818061848389E001C08CE00E945B2CBE
:101680000E94FA1A0E94D3270E947A1907C28F5F1C
:101690008C3009F007CF80E009CF85E08E9DF00106
:1016A0008F9DF00D1124E958FD4F81818150818378
:1016B000811103C08B810E94EA190C0D1D1DF801D8
:1016C000E154FE4F80816AE00E948D3692549083EF
:1016D00065CF0C0D1D1D0F531C4FD8018C91882315
:1016E00021F083E00E945B2C59CF0E94FD198832C3
:1016F00011F484E0F7CF91E0980FF801908395E022
:10170000989FD0011124A750BD4F9E9DF0019F9D31
:10171000F00D1124E958FD4F01900D929A95E1F7D3
:101720008B810E94EA193ACF8CE0DCCF88E00E94DE
:101730005B2C12E3C9CB60913D016695812F0E941D
:10174000DC2C8C0185E08E9D90018F9D300D112445
:1017500029583D4FF901ACE9B1E001900D928A950D
:10176000E1F781E080939D01F9019181915091838E
:10177000911103C08B810E94EA19C80117FF02C0B2
:1017800081509F4FE92EF92EFF0CFF08C92EC8018A
:1017900060E071E00E94A73665E170E00E94A73624
:1017A000162F782EE1100AC0C090A001E0909F0192
:1017B00000919E0121E040919C01BCC0E0919C0100
:1017C00080ED8E0F803158F4EF70F0E0EE0FFF1FC8
:1017D000EF58FD4FE491B0909E01BE0E02C0BB24B5
:1017E000B3940E94063624E630E040E050E00E94C8
:1017F0002A36D62E80913F01880F885D9B2D990F48
:101800009B0D082F090F61E083E00E94302D90E0CE
:10181000019725E0289FF001299FF00D1124E95838
:10182000FD4F808140919C01942F98279F7009F46F
:1018300086C0453321F48F70833009F480C0D01600
:1018400008F070C0DD24DA94DC0C6FE28D2D0E946C
:10185000271300919C0180ED800F803160F4E02F10
:10186000EF70F0E0EE0FFF1FEE58FD4FE491A090F7
:101870009F01AE0E01C0A12C80EB800F8031D0F50E
:1018800061E28D2D0E9427130F70E02FF0E0EF5FD3
:10189000FE4FE0818E2F90E08D30910508F0F0CE64
:1018A000FC01E059FF4F0C94BB36F701FF27E259CA
:1018B000F64F8081865F1CC0F701FF27E259F64F83
:1018C0008081869515C0F701FF27E05CFA4F808183
:1018D0008F71805C0DC0F701FF27E859FB4F8081B5
:1018E000806206C0F701FF27E859FB4F80818068BE
:1018F0008083C6CE0058003160F50E94063624E091
:1019000030E040E050E00E942A36672B682B692BBC
:1019100001F180919C01212F472D6C2D8F700E9429
:101920003F18AECEC090A001E0909F0100919E01B3
:1019300020919D01612F872D0E94081AA1CEF4E00D
:101940000F9FC001112463E070E00E94A736062FAC
:1019500076CF80919C018053803108F04BC02B2DB5
:101960000B2C000C330BAA2DAA0CBB0B0E94C1360A
:101970009B01AC016B2DBB0C770B880B990B0E9464
:101980003E174B015C0190914A0180913D01890F06
:101990000E94CC18880C991CAA1CBB1C282F30E074
:1019A000C901880F991F092E000CAA0BBB0B880DCB
:1019B000991DAA1DBB1D40914901042E000C550B19
:1019C000660B770B840F951FA61FB71F20913F0151
:1019D000820F911DA11DB11DBC01CD016F5F7F4F15
:1019E0008F4F9F4F22E030E040E050E00E942A36C7
:1019F000422F1CC090914A0180913D01890F0E94A5
:101A0000CC18E82FF0E03197EE0FFF1F80914901CD
:101A1000E80FF11D87FDFA9580913F01E80FF11D58
:101A20003196F7FD3196F595E7954E2F61E083E00D
:101A30004A830E94302D90E0019725E0289FF00115
:101A4000299FF00D1124E958FD4F808120919C01C0
:101A5000922F98279F704A81992399F0253319F482
:101A60008F70833071F0F701FF27E05CFA4F6081DF
:101A7000629566956770012F272D8D2D0E94831327
:101A8000FFCD04E04002C001112463E070E00E9439
:101A9000A736462FE8CF863009F04FC88B810F90CC
:101AA0000F900F900F90DF91CF911F910F91FF90AA
:101AB000EF90DF90CF90BF90AF909F908F907F90EE
:101AC0006F905F904F903F902F9008952F923F928C
:101AD0004F925F926F927F928F929F92AF92BF923E
:101AE000CF92DF92EF92FF920F931F93CF93DF93EA
:101AF000CDB7DEB76C970FB6F894DEBF0FBECDBF83
:101B000088EAEFEBF1E0DF011D928A95E9F71D8A83
:101B10001E8A1F8A188E198A1A8A1B8A1C8A1D8699
:101B20001E861F86188A19861A861B861C8688E0E0
:101B3000EBE6F1E0DE01119601900D928A95E1F756
:101B400010929C0910929D0910929E0910929F0973
:101B500080913C01853068F00E94063624E130E037
:101B600040E050E00E942A36672B682B692B09F46D
:101B70004FC41092A0090E94063627E030E040E0F2
:101B800050E00E942A368B01095F1F4F0E940636E3
:101B900022E030E040E050E00E942A366D5F7F4F47
:101BA0008FEF800F8D8769876230710519F091E0A2
:101BB00090939C0991E0960F9A8B8E8787E08A8795
:101BC0006430710519F081E080939D0963307105DF
:101BD00031F41A821982CC24C394D12C02C0C12CB6
:101BE000D12C0E94063622E030E040E050E00E9416
:101BF0002A366D5F7F4F81E0800F8F8B94E19F8746
:101C00006B876230710519F091E090939E09888F7F
:101C100081E0860F8C8B84E1888B87E08C87643031
:101C2000710519F081E080939F096330710529F4F3
:101C300018861F82B2E0CB0ED11C7CE9272E79E0FA
:101C4000372E4101E12CF12CE3E04E2E512C612C7A
:101C5000712CF40181914F01813009F04AC0E5E116
:101C6000F0E0EC0FFD1FEE0DFF1D20812C8F0E9478
:101C70000636A7014D585D4F5A012C8D2F5F298FD5
:101C8000A30192010E942A36598D650FD5016C93EC
:101C9000F701E559FD4FA1E1B0E0AC0FBD1FAE0D5E
:101CA000BF1D8C918F5F8083EDE0F0E0EC0FFD1F96
:101CB000EE0DFF1D20812C8F0E940636F701E159A1
:101CC000FD4F5F012C8D2150298FA30192010E94AD
:101CD0002A36898D861BD5018C93F701E959FD4F72
:101CE000A9E0B0E0AC0FBD1FAE0DBF1D8C918150BF
:101CF0008083BFEFEB1AFB0AE4E0EE16F10409F073
:101D0000A8CFC114D10469F40E94063622E030E065
:101D100040E050E00E942A36672B682B692B09F4BB
:101D20008AC384E190E0801B910B95958795902E56
:101D3000980E21E0290DC80195958795882E7C0184
:101D400043E0EE0CFF1C4A95E1F7A7014B535E4FB1
:101D50003A01DA01AC0130E068E0B62E241735070D
:101D6000D4F0BD0165507109FB01B0826F5F7F4FF8
:101D7000FB01B0826F5F7F4FFB01B0826F5F7F4FCF
:101D8000FB01B0826F5F7F4FFB01B082BC924F5F5F
:101D90005F4F1896E3CF49815A81452BE9F4BC0186
:101DA00040E050E0A92CB12CA616B706ACF0DA0141
:101DB000AE0DBF1DA154BE4F12961C9212971396E2
:101DC0001C92139714961C92149715961C926F5F91
:101DD0007F4F485F5F4FE8CF4B815C81452B41F5DA
:101DE00041E0480D50E05A01A3E0AA0CBB1CAA95A3
:101DF000E1F760E070E0E92CF12CE416F506C4F0A0
:101E0000DB01AA0DBB1DA154BE4F11961C92119768
:101E100012961C92129713961C92139714961C926A
:101E2000149715961C924F5F5F4F685F7F4FE5CF09
:101E30004D815E81452BB1F44FEF490D50E04817BD
:101E4000590784F0D30114971C9211961C92119695
:101E50001C9211961C92D3011C920196B8E06B0E55
:101E6000711CEDCF8F8198858394892BD1F4882DB7
:101E700090E0BC01F3E0660F771FFA95E1F740E0D0
:101E800050E0281739076CF0FA01E60FF71FE1540C
:101E9000FE4F12821382148215820196485F5F4FB3
:101EA000F0CF882D90E0BC01E3E0660F771FEA9544
:101EB000E1F740E050E0292D30E0281739076CF0B9
:101EC000FA01E60FF71FE154FE4F128213821482CB
:101ED00015820196485F5F4FF0CFF12CF10181919F
:101EE0001F01813019F48F2D0E943826F394F4E0FD
:101EF000FF12F4CF23E0C216D10461F04FEBE42EC1
:101F000041E0F42E55E0452E512C612C712C64EEED
:101F1000B62E10C033E0000F111F3A95E1F7F8011B
:101F2000E154FE4F88E081838283838384838583A9
:101F30008683E4CF00E010E06701C00ED11ED60119
:101F40008C91883059F40E940636A30192010E94B8
:101F50002A36672B682B692B09F480C20F5F1F4F4D
:101F60000830110549F7B8E0EB0EF11CE7E6EE1674
:101F7000E2E0FE06F9F601EA19E025E0C22ED12CD6
:101F8000E12CF12CBB24B3940E940636A7019601E4
:101F90000E942A36672B682B692B19F4D801BC9252
:101FA00002C0F80110820F5F1F4FF9E0053A1F07CA
:101FB00059F78091A00981112CC0BCE9EB2EB9E042
:101FC000FB2E00E010E083E0482E512C612C712C98
:101FD00096E0892E912CA12CB12CD7018D917D01F9
:101FE000813059F40E940636A30192010E942A36DC
:101FF000672B682B692B09F434C20F5F1F4F043025
:10200000110559F78091A0098823E9F080E090E05C
:1020100025C005E010E0A6E0CA2ED12CE12CF12C61
:102020000E940636A70196010E942A36660F862F67
:10203000880F880F680F615E80E00E94901A01503F
:10204000110971F7DFCF0E94063622E030E040E050
:1020500050E00E942A36CB01880F991FFC01E456FC
:10206000F64F2081211101C001966BE0680F0E949C
:10207000901A0E94B82B0E946E2751E4C52E55E09D
:10208000D52E61E3E62E65E0F62E00E010E073E069
:10209000872E912CA12CB12CE2E04E2E512C612CDC
:1020A000712C8091A009F7E08F9FC0011124089640
:1020B000801791070CF485C00E940636A501940193
:1020C0000E942A36672B682B692B09F06FC080911C
:1020D000A00981110AC00E940636A30192010E9444
:1020E0002A369B01220F331F02C020E030E0F901A5
:1020F000E456F64F8081811102C02F5F3F4FF901F6
:10210000ED58FD4F3080F901E159FD4F6081062EF9
:10211000000C770B6319710937FC73956F5F7F4F64
:10212000072E000C880B990B2C8F3B8F0E941A17DF
:10213000360EF70130822C8D3B8DF901E559FD4FAC
:102140003080F901E959FD4F6081062E000C770BB4
:102150006319710937FC73956F5F7F4F072E000C71
:10216000880B990B0E941A17432D460FF801EF5D5B
:10217000FA4F4083D7016C9180913901681799F02B
:1021800080913A01481779F0B8E06B9FF001112473
:10219000E40FF11DE758FB4F8081811104C0802FAF
:1021A0000E94962205C0F601108202C0D6011C9240
:1021B0000F5F1F4FBFEFCB1ADB0AEFEFEE1AFE0ADD
:1021C00070CF9CE9C92E99E0D92E560100E010E0AD
:1021D000D5018D915D01813031F00F5F1F4F0430CB
:1021E0001105B1F74FC0E12CF12CF801E159FD4F79
:1021F000FA8FE98FA8014D585D4F2A01C80189590E
:102200009D4F3C01D801A559BD4F4D018091A009BA
:10221000B7E08B9FC001112402968E159F05ECF24A
:10222000E98DFA8D2081022E000C330B2F5F3F4F7A
:10223000032E000C440B550BD2016C91062E000CA2
:10224000770B880B990B0E943E17362EF3012081E5
:10225000022E000C330B2F5F3F4F032E000C440B5C
:10226000550BD4016C91062E000C770B880B990B43
:102270000E943E1740E0832D0E946220BFEFEB1AC0
:10228000FB0AC4CF80913C0163E00E948D36992304
:1022900041F090913C0180910001981708F043C0F3
:1022A000F1C000E010E0F60181916F018130A9F5E5
:1022B000F801E159FD4F2081022E000C330B2F5FF6
:1022C0003F4F032E000C440B550BF801ED58FD4F0A
:1022D0006081062E000C770B880B990B0E943E172D
:1022E000F62EF801E959FD4F2081022E000C330B28
:1022F0002F5F3F4F032E000C440B550BF801E5599F
:10230000FD4F6081062E000C770B880B990B0E9405
:102310003E1742E08F2D0E9462200F5F1F4F043056
:10232000110509F6B6CF80913B0190E0019725E0B9
:10233000289FF001299FF00D1124E958FD4F80815D
:10234000803909F49FC08091A00981110AC00E94C0
:10235000063622E030E040E050E00E942A36660F68
:1023600001C060E0E62FF0E0E456F64F8081811175
:1023700001C06F5F062F10E0F801ED58FD4FF080AF
:10238000F801E159FD4F6081062E000C770B6F19A3
:102390007109F7FC73956F5F7F4F072E000C880B58
:1023A000990B0E941A17F60EF801E559FD4FE080CF
:1023B000F801E959FD4F6081062E000C770B6E196C
:1023C0007109E7FC73956F5F7F4F072E000C880B38
:1023D000990B0E941A171E2D160F0E94FD1928E056
:1023E000F29EF0011124E10FF11DEF53FC4F91E03B
:1023F000980F908345E0849FF0011124E750FD4F32
:1024000080E9808381E081831282138214823AC042
:1024100081E08093A00980939C098093730280934C
:102420006B0283E180936F0286E08093670280E015
:102430000E943826BECD0E94063624E030E040E0FF
:1024400050E00E942A36660F771FE1E0F0E0EC0FC3
:10245000FD1FE60FF71F1182108263CCD601BC92DC
:102460007DCD0E940636A50194010E942A368FE197
:10247000800FBAE06B9F800D1124682F802F0E947F
:10248000901ABBCD6C960FB6F894DEBF0FBECDBFD1
:10249000DF91CF911F910F91FF90EF90DF90CF9040
:1024A000BF90AF909F908F907F906F905F904F9074
:1024B0003F902F9008954F925F926F927F928F92EC
:1024C0009F92AF92BF92CF92DF92EF92FF920F93C3
:1024D0001F93CF93DF9300D0CDB7DEB780913C013F
:1024E000811103C08FEF80933C0180914B0190914B
:1024F0004C01A0914D01B0914E014091A10150912C
:10250000A2016091A3017091A401481759076A07BD
:102510007B070CF088C020913C018093A10190932F
:10252000A201A093A301B093A4012093A50181EA85
:10253000E82E81E0F82EC70140E050E065E04F5FF3
:102540005F4F6C0125E0C20ED11C96018A01053057
:10255000110559F1FC014080518062807380F901BE
:1025600080809180A280B38084149504A604B7046F
:10257000BCF4FC01AAEBB1E0762F01900D927A95A4
:10258000E1F7F901DC01762F01900D927A95E1F7E0
:10259000EAEBF1E0D901762F01900D927A95E1F7FF
:1025A0000F5F1F4F2B5F3F4FD2CFC6014530510504
:1025B00031F604E610E0C801835C9E4F6C01F8011F
:1025C000EE5BFE4F4F015801F60161916F01BA8237
:1025D000A982CE0101960E94D42DFFEFAF1ABF0A47
:1025E000C814D90489F70B5F1F4F0D37110519F770
:1025F00040914B0150914C0160914D0170914E0101
:1026000095E080E0F7010081118122813381041778
:1026100015072607370709F4892FF5E0EF0EF11C9F
:10262000915081F701C080E00F900F90DF91CF9122
:102630001F910F91FF90EF90DF90CF90BF90AF90E0
:102640009F908F907F906F905F904F9008951F9311
:10265000CF93DF93C82F162F80914101811106C0BF
:102660000E940A2B0E949E290E943B2AD0E0FE0174
:10267000EF5DFA4F2081622F70E0FE01EF5CFA4FB0
:10268000808190E00E942C2A80914101811107C035
:10269000C759DB4F888186FD02C0812F01C080E2CF
:1026A0000E9487160E9456162D9864E670E080E01E
:1026B00090E00E9485172D9ADF91CF911F91089588
:1026C000CF93C82F80914101811106C00E940A2B2F
:1026D0000E949E290E943B2A60913A0170E08091FD
:1026E000390190E00E942C2A8C2F0E9487160E94AC
:1026F00056162E9864E670E080E090E00E94851700
:102700002E9ACF9108958F929F92AF92BF92CF92BF
:10271000DF92EF92FF920F931F93CF93DF93962F49
:10272000E82FF0E0DF01A159B64F3C91EF5BFA4F83
:10273000431708F481C088E0289FD0011124A00F1E
:10274000B11DA758BB4F1C921082C62FD0E0C0907D
:102750005701D0905801E0905901F0905A0187E05C
:102760006631F0F08C9FD0018D9FB00D1124FD01DA
:10277000EF51FB4FA49184E6A89FF0011124AF0113
:10278000FF0F660B770B4C0D5D1D6E1D7F1D40937B
:102790005701509358016093590170935A011BC01F
:1027A0008C9FB0018D9F700D1124FB01EF51FB4FE9
:1027B000649146015701860E911CA11CB11C8092A8
:1027C000570190925801A0925901B0925A019F303E
:1027D00011F410924801F22E192F0E94063627E0BC
:1027E0002C9FF0012D9FF00D1124EE51FB4FC49151
:1027F00024E630E040E050E00E942A368C2E912CF6
:10280000A12CB12C681579058A059B05ECF41930CB
:1028100011F441E001C040E0602F8F2DDF91CF9196
:102820001F910F91FF90EF90DF90CF90BF90AF90EE
:102830009F908F900C946220341B3C938081803455
:1028400018F08F71805E8083DF91CF911F910F917F
:10285000FF90EF90DF90CF90BF90AF909F908F90C0
:1028600008953F924F925F926F927F928F929F92C4
:10287000AF92BF92CF92DF92EF92FF920F931F938E
:10288000CF93DF9300D000D0CDB7DEB7682E862E71
:10289000D42E0E94063628E030E040E050E00E944E
:1028A0002A369091390120913A0130E088E0989FD2
:1028B000A00111245C834B83FA01E20FF31FE75858
:1028C000FB4F8FEF808300E010E0462E512C99E003
:1028D000A92EB12C712C43E0342E912CC801840D0B
:1028E000951DB5010E94A736C82E632D0E9499360A
:1028F0009150D301A90FB11D97FDBA958150F401F4
:10290000E80FF11D87FDFA95FA83E98383E0AA0FAA
:10291000BB1F8A95E1F7CF018A0F9B1FAC01415481
:102920005E4FFA0140814150483C20F58F539C4F47
:10293000FC01E080F12C41E050E0DD2011F040E0AE
:1029400050E0E49EB001E59E700DF49E700D1124E0
:10295000672B81F449815A81A40FB51FFD01E75807
:10296000FB4F80818D9DC0011124892B19F481E0DA
:102970008C0D07C00F5F1F4F0930110509F0AECF56
:1029800080E0EB81FC812E0F3F1F27583B4FF90160
:1029900010820F900F900F900F90DF91CF911F91A9
:1029A0000F91FF90EF90DF90CF90BF90AF909F90EE
:1029B0008F907F906F905F904F903F900895CF924F
:1029C000DF92EF92FF920F931F93CF93DF936C01EF
:1029D0007A018B01C0E0D0E0CE15DF0589F0D80187
:1029E0006D918D01D601ED91FC910190F081E02D6A
:1029F000C6010995892B11F47E0102C02196ECCF06
:102A0000C701DF91CF911F910F91FF90EF90DF9061
:102A1000CF90089508954F925F926F927F928F9218
:102A20009F92AF92BF92CF92DF92EF92FF920F935D
:102A30001F93CF93DF9300D000D0CDB7DEB7DC017A
:102A400016967C9016976A3069F415968C911597B6
:102A500014968C93149719968C911997780E169654
:102A60007C92FCC01496BC90149760526F3508F0AD
:102A7000EBC0EB2C0B2C000CFF08EFEDF2E0949078
:102A8000E0EEF2E0E491C92CD12C6623F9F08E2F10
:102A9000869586958695282F30E081E090E04E2F30
:102AA000477011F480E090E0820F931FC89E900160
:102AB000C99E300DD89E300D1124629FA001639FE6
:102AC000500D11248A010F511D4F02C001EE12E07A
:102AD000B7016C0D7D1D161617060CF0B5C041E050
:102AE000470D242F042E000C330BC9018E0F911DAE
:102AF000181619060CF0A8C0203431050CF0A4C03B
:102B00000115110509F4A0C04770742EA90137FF03
:102B100002C0495F5F4F83E0559547958A95E1F77D
:102B2000842F37FF04C0772011F08FEF840FF7FE5A
:102B300005C0442755274E195F0902C040E050E008
:102B40006038710524F020E82B19622E01C0692C31
:102B5000641A682F082E000C770B8F3F1CF4862E0A
:102B6000809401C0812C91E03E2F377009F490E0F1
:102B7000E695E695E6959E0F690F711D6930710522
:102B800014F098E0981B382D380FB70120E8320375
:102B9000600D711D1124640F751FE1E0F0E07F01ED
:102BA000072C02C0EE0CFF1C0A94E2F7A62CB12CF5
:102BB00026014A185B08899C400D511D1124400FC5
:102BC000511FEFEFEE9D6001EF9DD00C1124C094DA
:102BD000D0949C2C882E890EA40CB11C3815A1F120
:102BE000CB0181599A4F00E010E0061538F5FA0143
:102BF000E00FF11FE491EE9D2001EF9D500C112498
:102C00005A824982DC82CB8237FD07C0FC012081D9
:102C1000E22FE9214E2AFC014082772059F037301B
:102C20004CF4FC01E058FF4F40805C8054204A8007
:102C3000542850820F5F1F4F0196D7CF3F5F4A0D38
:102C40005B1D60587F4FCACF18968C9118978B5F89
:102C500014969C911497890F14968C9381E090E0C0
:102C60000F900F900F900F90DF91CF911F910F91C8
:102C7000FF90EF90DF90CF90BF90AF909F908F909C
:102C80007F906F905F904F900895089580E090E05E
:102C900008950E94E43620916505282329F4909137
:102CA0006405982381E009F480E00895EFE6F5E0FB
:102CB00080E0A0E0B8E000800EBC8111012C1197EB
:102CC000A0FDFDCF0192B9F70DB408950F931F93A6
:102CD000CF93DF938C01C0E0D0E0F801EC0FFD1F33
:102CE0006491662371F0E0915505F09156050190CD
:102CF000F081E02D85E595E00995892B11F021966D
:102D0000ECCFCE01DF91CF911F910F910895E0910B
:102D10005505F09156050190F081E02D682F85E56D
:102D200095E0099480E0EFE6F5E081118FEF002453
:102D300081938193819381930394D1F708958F9226
:102D40009F92AF92BF920F931F93CF93DF93CDB714
:102D5000DEB7A1970FB6F894DEBF0FBECDBF19A2A4
:102D6000423008F44AE08E010F5D1F4F842E912CF3
:102D7000A12CB12CA50194010E945C36E62FB9016B
:102D8000CA0101501109EA3014F4E05D01C0E95CA8
:102D9000D801EC93232B242B252B61F7011511056A
:102DA00071F0F80101900020E9F73197AF01401B65
:102DB000510BB80185E595E00E94DF1402C080E068
:102DC00090E0A1960FB6F894DEBF0FBECDBFDF91A5
:102DD000CF911F910F91BF90AF909F908F900895CA
:102DE000CF92DF92EF92FF92CF93DF9397FF19C0BC
:102DF0006B017C018DE20E948716EC016627772724
:102E0000CB016C197D098E099F094AE00E949F162B
:102E10008C0F9D1FDF91CF91FF90EF90DF90CF90AF
:102E200008954AE0DF91CF91FF90EF90DF90CF902F
:102E30000C949F16CF93DF9300D000D0CDB7DEB7B0
:102E4000611571058105910579F09B01AC016983DC
:102E50003A834B835C830E94063629813A814B81F9
:102E60005C810E942A3603C060E070E0CB010F90C5
:102E70000F900F900F90DF91CF910895CF92DF9236
:102E8000EF92FF920F931F936217730784079507C2
:102E900084F489019A016B017C01C901B8016C19A4
:102EA0007D098E099F090E941A176C0D7D1D8E1DCC
:102EB0009F1D1F910F91FF90EF90DF90CF9008958D
:102EC0003FB7F89480916B0590916C05A0916D05CA
:102ED000B0916E0526B5A89B05C02F3F19F001964D
:102EE000A11DB11D3FBFBA2FA92F982F8827820F90
:102EF000911DA11DB11DBC01CD0142E0660F771FE0
:102F0000881F991F4A95D1F708958F929F92AF928B
:102F1000BF92CF92DF92EF92FF926B017C010E94F1
:102F200060174B015C01C114D104E104F104F1F01C
:102F30000E946017DC01CB0188199909AA09BB0915
:102F4000883E9340A105B10570F321E0C21AD10873
:102F5000E108F10888EE880E83E0981EA11CB11CE0
:102F6000C114D104E104F10419F7DDCFFF90EF9013
:102F7000DF90CF90BF90AF909F908F9008951F9259
:102F80000F920FB60F9211242F933F938F939F931D
:102F9000AF93BF938091510590915205A091530535
:102FA000B091540530916A0523E0230F2D3720F4AA
:102FB0000196A11DB11D05C026E8230F0296A11D93
:102FC000B11D20936A058093510590935205A093FB
:102FD0005305B093540580916B0590916C05A091B9
:102FE0006D05B0916E050196A11DB11D80936B0515
:102FF00090936C05A0936D05B0936E05BF91AF9152
:103000009F918F913F912F910F900FBE0F901F9026
:103010001895BC0180E090E00C9485178FB18095E5
:10302000807F669B88601C9B846008950E94921636
:1030300080914101811109C00E940A2B0E94C12A7E
:103040000E949E290E943B2A02C00E94C12A85E05C
:103050000E945B2C0E947D220E9456160E94222311
:1030600090914001992351F00E94063624E030E00F
:1030700040E050E00E942A3681E0860F0895BF921A
:103080000F931F93CF93DF93D82FC62FB42E022F09
:103090001FEF160F6AE2812F0E942713ED2FF0E039
:1030A000EF5FFE4FE2A58E2F90E08930910508F08A
:1030B0006DC0FC01E358FF4F6C2F70E00C94BB36E1
:1030C00061507109FB01EF5BFA4F1082FB01EF5D6C
:1030D000FA4F8081FB01EF5CFA4FE08198E0E99FB5
:1030E000F0011124E80FF11DE758FB4F10824EC08C
:1030F000FB01E859FB4F808187FF02C08F7745C0F5
:10310000846043C0FB01E859FB4F808180623DC071
:10311000FB01E859FB4F8081806437C0EB01C05C44
:10312000DA4F6881162F107E0E9406362AE130E0C1
:1031300040E050E00E942A36610F688327C0FB01FF
:10314000E859FB4F808182FF02C08B7F1EC08068E0
:103150001CC0FB01E05CFA4F80818F71805815C064
:1031600090913F01492F440F440F490FFB01E05C50
:10317000FA4F60816F712B2D812F0E94831306C03F
:10318000FB01E859FB4F8081877F8083DF91CF91DE
:103190001F910F91BF9008952FEF280F253018F43D
:1031A0009BEF980F23C02AEF280F2930A0F021EFC2
:1031B000280F233090F0823191F02DEE280F22302D
:1031C00080F0853181F02AEE280F293070F08F31A0
:1031D00068F098E00BC091E009C093E007C094E06C
:1031E00005C095E003C096E001C097E0892F0895DF
:1031F0004F925F926F927F928F929F92AF92BF9207
:10320000DF92EF92FF920F931F93CF93DF9301E42E
:1032100015E0C0E0D0E08AE0882E912CA12CB12CE2
:1032200094E0E92EF12CF80180818054803208F07E
:103230004AC0FE01EF5CFA4F408150E080913901B5
:103240009A01281B310937FF03C0319521953109B7
:10325000FE01EF5DFA4F808190E040913A01BC01A0
:10326000641B7109AB0177FF03C05195419551096A
:10327000420F531F4330510534F50E9406362B018F
:103280003C0180E00E94452DD82EC301B201A5016A
:1032900094010E942A362B013C012D2D30E0B9010A
:1032A0006F5F7F4FC7010E94A736CB01770FAA0B34
:1032B000BB0B481659066A067B062CF4F801808180
:1032C0008F71805E808321960F5F1F4FC031D105C3
:1032D00009F0A9CFDF91CF911F910F91FF90EF904F
:1032E000DF90BF90AF909F908F907F906F905F9096
:1032F0004F900895BF92CF92DF92EF92FF920F937B
:103300001F93CF93DF9300D000D01F92CDB7DEB7CD
:1033100087E792E0FC0110E02FEF3081311102C00D
:1033200020831F5F359632E0E93FF307B1F727E7C7
:1033300032E060E070E005E06F5F7F4F690145E0DB
:10334000C40ED11CA6017B01EAE1EE16F10419F1CD
:10335000D901FC91DA01EC91EF17B8F4F901DE0123
:103360001196B02E01900D92BA94E1F7FA01D901AD
:10337000B02E01900D92BA94E1F7FE013196DA0178
:10338000B02E01900D92BA94E1F7BFEFEB1AFB0A51
:103390004B5F5F4FD9CF96016A31710569F6DC0149
:1033A0002C912F3F09F41C920596B2E0893F9B07B0
:1033B000B1F784E1811B0F900F900F900F900F9049
:1033C000DF91CF911F910F91FF90EF90DF90CF9001
:1033D000BF90089525E0829FC0011124FC01E958A7
:1033E000FD4F10821182128213821482E9E3F1E010
:1033F0008281815082830C947A19E9EFF2E080E0B7
:103400009081992321F08F5F35968832C9F708950E
:10341000AF92BF92CF92EF92FF920F931F93CF93F1
:10342000DF93142FC62FD0E0A82EB12CFE0198E018
:10343000899FE00DF11D1124EF53FC4F90819923DA
:1034400039F040E00E943114F82E882361F102C067
:1034500035E0F32E0E94FD19E82F8F2DFF0C990BFC
:10346000019763E070E00E94A7368A0D9B1D23E060
:10347000880F991F2A95E1F787549C4FC80FD91FD1
:103480006C0F7D1FEB01219781E08E0F888385E013
:10349000E89FF0011124E750FD4F108381E0818304
:1034A0000283E382C482DF91CF911F910F91FF903D
:1034B000EF90CF90BF90AF900895CF93DF93C82F38
:1034C0000E94063624E630E040E050E00E942A36B2
:1034D00080E09FE0C99FA00111244F535D4F9EE003
:1034E000C99FD0011124C62FD0E0FD01E80FF11DC6
:1034F000EF5FFE4F208130E0FA01E20FF31FE4910D
:103500006E1748F0F9013196E40FF51FE491F0E0F1
:10351000CE17DF0714F08F5FE8CFDF91CF910895CA
:103520008F929F92AF92BF92CF92DF92EF92FF92D3
:103530000F931F93CF93DF93162FC82FD0E0FE0178
:10354000ED58FD4FC080FE01E159FD4F6081062E10
:10355000000C770B6C197109C7FC73956F5F7F4F77
:10356000072E000C880B990B0E941A170C2C000CCC
:10357000DD08EE08FF08C60ED71EE81EF91EFE0184
:10358000E559FD4F0081C959DD4F8881082E000C97
:10359000990B801B910907FD9395BC016F5F7F4FCD
:1035A000072E000C880B990B0E941A17802E000F13
:1035B0009908AA08BB08DC01CB01880D991DAA1D3A
:1035C000BB1D23E0CC0CDD1C2A95E1F7B601680F8A
:1035D000791FFB01E154FE4F1083DF91CF911F91C2
:1035E0000F91FF90EF90DF90CF90BF90AF909F90A2
:1035F0008F9008952F923F924F925F926F927F9299
:103600008F929F92AF92BF92CF92DF92EF92FF92F2
:103610000F931F93CF93DF93CDB7DEB72C970FB6E1
:10362000F894DEBF0FBECDBFB1E36B2EB5E07B2EAD
:1036300011E2412E15E0512E09E6202E04E0302E35
:1036400081E4E82E85E0F82E21E02F8395E0892E95
:10365000912CA12CB12CD7018C9181118EC00E948C
:10366000063620E830E040E050E00E942A36672B22
:10367000682B692B09F0E2C380913A01E09139018E
:10368000B8E0EB9FF0011124E80FF11DE154FE4F6B
:1036900080819091A00991111DC090E001976AE08E
:1036A00070E00E94A7369C0162E070E00E94A7369D
:1036B000281B390B37FF02C02F5F3F4F35952795E9
:1036C000C901019662E070E00E94A7368C01000FEC
:1036D000111F02C000E010E0F801E456F64F8081AF
:1036E000811102C00F5F1F4FF801ED58FD4FD080D0
:1036F000F801E159FD4F6081062E000C770B6D1922
:103700007109D7FC73956F5F7F4F072E000C880BF4
:10371000990B0E941A17D60EF301D082F801E559D1
:10372000FD4FD080F801E959FD4F6081062E000C55
:10373000770B6D197109D7FC73956F5F7F4F072E5B
:10374000000C880B990B0E941A174D2D460FD201C1
:103750004C93F301608128E0629FF0011124E40F93
:10376000F11DE758FB4F8081811168C38E2DA1E4C4
:10377000B5E08A1B0E94962261C3F1019081892FD6
:10378000881F8827881F8F5F92FF04C090915B017C
:1037900090FD54C31E821D82282F30E03987288770
:1037A0008D819E81A885B9858A179B070CF046C339
:1037B000D7018C9190EC980F903A08F421C18F7149
:1037C0008531C1F580913A01E0913901B8E0EB9F74
:1037D000F0011124E80FF11DE154FE4F2081283043
:1037E00009F467C0F2018081D301EC91B8E0EB9F4E
:1037F000F0011124E80FF11DE154FE4F80811AE021
:10380000612F0E948D36392F822F0E948D363913F9
:1038100050C0F101808183FF4CC08FE30E94601390
:1038200082E10E945B2C10934001D1018C91877F33
:103830008C93EAC08931E9F511E000E065E0812F61
:103840000E94DC2C97FF02C081509F4F892F990F57
:10385000990BFC01E05CFA4F80818F71893109F48A
:103860000F5F1F5F153051F7002319F10E940636D4
:1038700022E030E040E050E00E942A36672B682BBF
:10388000692BB9F48AE20E94601383E10E945B2CE9
:1038900080913F0166E170E0681B7109072E000C02
:1038A000880B990B0E941A17862F63E00E945223FF
:1038B000ABC0F7018081805E803210F42FEF01C031
:1038C00021E0D3013C91A0913901A31718F5422FB3
:1038D000022E000C550B832F90E0841B950BF201F8
:1038E000608173E0880F991F7A95E1F7860F911D2B
:1038F000FC01E758FB4F608161110CC0FC01E154F1
:10390000FE4F808181508E3B28F422E030E0241B62
:10391000350B24C0F201408150913A01541708F54B
:10392000622F022E000C770B842F90E0861B970BE2
:10393000F8E03F9F800D911D1124FC01E758FB4FDB
:10394000E081E1110EC0FC01E154FE4F8081815005
:103950008E3B38F423E030E0261B370B3C872B8767
:1039600053C03A1708F5A22F022E000CBB0BCD0155
:10397000830F911D03E0880F991F0A95E1F7840FCB
:10398000911DFC01E758FB4F608161110DC0FC01E6
:10399000E154FE4F808181508E3B30F4AD014E5F8B
:1039A0005F4F5C874B8730C04517E8F4622F220FCA
:1039B000770BCB01840F911D58E0359F800D911D31
:1039C0001124FC01E758FB4F208121110CC0FC01A0
:1039D000E154FE4F808181508E3B28F4CB01039649
:1039E0009C878B8711C00E94063624E030E040E0BF
:1039F00050E00E942A36DB011196BC87AB8704C0D9
:103A0000E5E0F0E0FC87EB87D1018C9185FF0DC0EC
:103A10000E94063623E030E040E050E00E942A3663
:103A2000672B682B692B09F434C22B853C85215008
:103A300031092430310508F0FAC1AB85BC85A1708D
:103A4000BB278B859C8502978A9FA02D112421700E
:103A500033278B859C850397289F902D1124F30194
:103A60008081682F70E0AB014A0F511DA7FD5A9568
:103A70002091390130E04217530709F094C1F20157
:103A80002081E92F092E000CFF0BE20FF11D209180
:103A90003A0130E0E217F30709F085C12D813E813C
:103AA000232B09F0C4C1D7011C911F71B7E01B9FE4
:103AB000F00111249F0123523B4F6901F901339614
:103AC00004919091490180913F01890F880F081B53
:103AD00009830E94063624E630E040E050E00E9470
:103AE0002A36362F61E084E03A870E94302D3A85ED
:103AF0008823A9F090E0019725E0289FD001299F15
:103B0000B00D1124A958BD4FEC91EF70F0E0EA52CE
:103B1000FB4FE49112968C910E2F080F01C000E02C
:103B20004981341708F083C1F60132962491319708
:103B3000649130E040E050E070E080E090E00E946E
:103B40003E179B01AC016DEF6003D0011124AC590D
:103B5000BF4F0E94543624E630E040E050E00E941F
:103B60002A3680E22A870E94601364E0610F2A856A
:103B7000822F27FD80E00E945223D1018C9183FF88
:103B800056C1812F90E0FC013597E231F10508F034
:103B90004EC1EA57FF4F0C94BB360E940636A50172
:103BA00094010E942A36672B682B692B09F03FC1CC
:103BB0008DE00E945B2C0E940636A50194010E94B4
:103BC0002A366C5F609344010E94063624E130E09F
:103BD00040E050E00E942A36672B682B692B09F0E1
:103BE00027C261E080914F010E94522321C280913F
:103BF0003D01843008F41BC185E00E94452D8823D7
:103C000009F455C114C180914B0190914C01A091D0
:103C10004D01B0914E01C397A105B1050CF407C148
:103C20000E9406362AE030E040E050E00E942A364A
:103C3000672B682B692B09F04EC1F9C061E084E065
:103C40000E94302D882309F4F2C090E0019725E00E
:103C5000289F8001299F100D112409581D4FF8013C
:103C6000848183FF64C1E3C00E94063622E030E015
:103C700040E050E00E942A36672B682B692B09F040
:103C8000D6C00E94063624E130E040E050E00E94B9
:103C90002A36B5E06B9FF0011124E958FD4F84816D
:103CA00084FDC5C08FE06A870E945B2C6A85862FE1
:103CB0000E94EA19F701808180548083B9C1809104
:103CC00047018111B4C081E10E945B2C81E08093A7
:103CD0004801AEC180913F01863008F4A8C00E941F
:103CE0000636A50194010E942A36672B682B692BA2
:103CF00009F42DC19CC00E9406362AE030E040E065
:103D000050E00E942A3664307105810591050CF05F
:103D10008EC085E10E945B2C0E94063623E030E0D5
:103D200040E050E00E942A36162F60FF2DC080919F
:103D30004F0190915001A0915101B09152018A30F0
:103D40009105A105B1050CF473C10197A109B10951
:103D500080934F0190935001A0935101B093520171
:103D60008091530190915401A0915501B091560159
:103D70000197A109B1098093530190935401A09335
:103D80005501B093560154C185E00E94452D909194
:103D90003D01882309F448C1963008F045C111233C
:103DA00009F446C1C4CFF70120812F712F3009F4E7
:103DB0003EC045315105D8F5F201B0812B2F30E0DE
:103DC000F901E90FF11D97FDFA95E830F10578F555
:103DD00013E0440F551F1A95E1F74E0F5F1FFA01CC
:103DE000E758FB4FE081E11122C0FA01E154FE4F98
:103DF000408141504E3BD8F443E0660F771F4A950F
:103E0000E1F7620F731FFB01E758FB4F1082A80F09
:103E1000F301A0839B0FF2019083F8E0AF9FD001E4
:103E20001124A90FB11DA758BB4F2F812C934D8191
:103E30005E814F5F5F4F5E834D83B2CCBFEFEB1A65
:103E4000FB0AEFEF6E1A7E0AFFEF4F1A5F0A2F810F
:103E50002F5F2F833FEF231A330A213109F0FBCB69
:103E60002C960FB6F894DEBF0FBECDBFDF91CF9179
:103E70001F910F91FF90EF90DF90CF90BF90AF9088
:103E80009F908F907F906F905F904F903F902F907A
:103E900008950E94063624E030E040E050E00E94A1
:103EA0002A36AB014F5F5F4F5C874B87BECD0E94C8
:103EB0000636A50194010E942A36672B682B692BD0
:103EC00009F0B5CF8EE00E945B2C80913D018150BE
:103ED00080933D01ADC08FE00E945B2C80914B012F
:103EE00090914C01A0914D01B0914E0189839A832C
:103EF000AB83BC830E94063622E330E040E050E012
:103F00000E942A3629813A814B815C81261B370B1E
:103F1000480B590B20934B0130934C0140934D01BA
:103F200050934E01D7018C9180548C9381C089E0CD
:103F30000E94452D81117BCF80E10E945B2CD8012E
:103F400012968C911297815012968C9371C084E1D5
:103F50000E945B2C60916301709164018091650106
:103F60009091660122E030E040E050E00E942A3665
:103F7000209363013093640140936501509366017F
:103F8000DA01C9010197A109B10980935701909302
:103F90005801A0935901B0935A0180913F0181507B
:103FA00080933F018091530190915401A09155015C
:103FB000B09156019C01AD012350310941095109CD
:103FC00029833A834B835C830E94063627E030E0E6
:103FD00040E050E00E942A3629813A814B815C8181
:103FE000261B370B480B590BDA01C90120935301EB
:103FF00030935401409355015093560140914F0125
:1040000050915001609151017091520184179507B0
:10401000A607B7076CF480934F0190935001A093CB
:104020005101B093520104C0915090933D01B7CE1D
:1040300080E20E946013FBCECF93DF93C82FD0E0C5
:10404000FE01E759FB4F808186FF09C088E00E948E
:10405000452D811104C080914601813081F5809108
:104060004201CF5BDA4F8823D1F0888180568032BD
:1040700060F40E94063629E030E040E050E00E9403
:104080002A36FB01E456FA4F15C00E9406362AE193
:1040900030E040E050E00E942A36FB0109C0E88190
:1040A00080EA8E0F803210F48AE205C0EF71F0E0F2
:1040B000E454FB4F8491DF91CF910C948716DF91EC
:1040C000CF910895AF92BF92CF92DF92EF92FF927D
:1040D0000F931F93CF93DF931F92CDB7DEB728E0E6
:1040E000829FC0011124860F911D8C010F531C4F1C
:1040F000F80180818111F5C149830E94FD1991E089
:10410000980FF8019083A82EB12C25E0829FF00132
:104110001124E750FD4F81E08183128213821482C3
:10412000498141111CC00E94063624E630E040E07F
:1041300050E00E942A3640E0262F30E0842F90E0A5
:10414000FC01ED56FA4FE4914F5F6E17B8F3FC0196
:10415000EC56FA4FE491F0E02E173F077CF750E061
:10416000FA013197E830F10508F0BBC1E856FF4F7E
:104170000C94BB3625E02A9DC0012B9D900D112487
:104180008C0107501D4F80E1F80180830E940636A4
:1041900024E630E040E050E00E942A3680913C0165
:1041A000680FF80161839DC10E94063625E030E06A
:1041B00040E050E00E942A36672B682B692B51F4AF
:1041C00085E08A9DF0018B9DF00D1124E750FD4F95
:1041D00081E209C085E08A9DF0018B9DF00D1124DC
:1041E000E750FD4F80E280830E94063625E02A9D3D
:1041F000A0012B9D500D11248A0107501D4F22E074
:1042000030E040E050E00E942A366F5FF8016183A1
:104210008481806843C10E94063628E030E040E097
:1042200050E00E942A3685E08A9D80018B9D100D0A
:10423000112407501D4F80E3860FF80180836430FE
:1042400018F481E081830EC00E9406362DE030E034
:1042500040E050E00E942A366D5FF801618384815E
:10426000806884830E94063626E030E040E050E01B
:104270000E942A36611120C00E94063623E030E0F9
:1042800040E050E00E942A3611E0160F612F70E0E6
:104290006F5F7F4F072E000C880B990B0E941A1737
:1042A00085E08A9DF0018B9DF00D1124E750FD4FB4
:1042B0006283161B138315C1613009F012C10E947D
:1042C000063623E030E040E050E00E942A3611E05C
:1042D000160F612F70E06F5F7F4F072E000C880B69
:1042E000990B0E941A1785E08A9DF0018B9DF00DB5
:1042F0001124E750FD4F862F81958283611B6383D4
:10430000CBC00E94063627E030E040E050E00E943B
:104310002A36F62E85E08A9D80018B9D100D112492
:1043200007501D4F605CF801608381E081830E942B
:10433000063626E030E040E050E00E942A36611167
:104340000CC00E94063623E030E040E050E00E94BE
:104350002A366F5FF801628310C0613071F40E94E9
:10436000063623E030E040E050E00E942A366095B7
:10437000F8016283848180648483F110B2C085E097
:104380008A9DF0018B9DF00D1124E750FD4F848133
:10439000886084C080E00E945D1A95E09A9DF001DB
:1043A0009B9DF00D1124E750FD4F805B0CC081E018
:1043B0000E945D1A95E09A9DF0019B9DF00D1124DD
:1043C000E750FD4F805A808381E0818321CF0E9496
:1043D00006362BE030E040E050E00E942A3685E0CF
:1043E0008A9D80018B9D100D112407501D4F80E781
:1043F000860FF801808381E08183E62FF0E0EF5F94
:10440000FE4F848D843051F020F4813009F443C094
:1044100068C0863019F0873091F163C00E9406367B
:1044200022E0C22ED12CE12CF12CA70196010E9492
:104430002A36611111C00E94063645E04A9D90015E
:104440004B9D300D1124890107501D4FA701960186
:104450000E942A366F5F43C00E94063645E04A9D9F
:1044600090014B9D300D1124890107501D4FA7016C
:1044700096010E942A366095F80162830DC00E9461
:10448000063622E030E040E050E00E942A36672BFA
:10449000682B692B31F5F80184818064848321C005
:1044A0000E94063645E04A9D90014B9D300D112437
:1044B000890107501D4F2AE030E040E050E00E94A3
:1044C0002A366058F801608381E081830E940636B5
:1044D00024E030E040E050E00E942A366D5FF801B1
:1044E00062830F90DF91CF911F910F91FF90EF901A
:1044F000DF90CF90BF90AF90089580913A018430C3
:1045000038F081E080935A05809359058FEF06C0FB
:1045100081E080935A058093590587E380935B057A
:1045200080917F09909180090C946616BF92CF927A
:10453000DF92EF92FF920F931F93CF93DF93182F89
:10454000F62EE42E60913C0123E0260F6650663182
:104550000CF065E167FD60E02C310CF02AE1022EE1
:10456000000C330B440B550B062E000C770B880BFD
:10457000990B0E943E17B62E27E0629FC0011124BE
:10458000FC01E352FB4F6F01EF012696FE0194916F
:104590009F70933069F028F49130B1F0923019F1A6
:1045A00025C0953099F008F1963001F503E01EC062
:1045B0000E94063622E030E040E050E00E942A36B9
:1045C000672B682B692B79F001E010C00E9406363A
:1045D00022E030E040E050E00E942A36672B682B52
:1045E000692B19F0F1CF02E001C004E0812F90E0C7
:1045F000FC01EF5BFA4F20E2029FB00C1124B08265
:10460000F601C490FC01E159F64FC082FE01C4914D
:10461000FC01E759FB4FC07FC860C08328E0F29ED1
:10462000F0011124EE0DF11DE758FB4F1F5F1083C1
:10463000DF91CF911F910F91FF90EF90DF90CF907E
:10464000BF900895CF9380916405809365050E9483
:104650000E188093640580E20E944B16C82F80E8F4
:104660000E944B168111C2E080E40E944B1681111A
:10467000C3E080E10E944B168111C4E088E00E94F3
:104680004B168111C5E084E00E944B16811103C0D6
:10469000CC23C9F201C0C6E08DE10E945B2C8C2FB7
:1046A000CF910895262F40914F0150915001609174
:1046B00051017091520190E0A0E0B0E0841795079D
:1046C000A607B70734F020939B0982E080939A09EC
:1046D0000895481B590B6A0B7B0B40934F01509375
:1046E0005001609351017093520108958F929F92EF
:1046F000AF92BF92CF92DF92EF92FF920F931F93F0
:10470000CF93DF9390914001992351F00E94063698
:1047100024E030E040E050E00E942A3681E0860F3D
:1047200090914401911114C0082F10E0E8012297E4
:1047300081708C9FC02D1124C801019762E070E048
:104740000E94A73603501109809FF02C112402C04B
:10475000F12CC0E010928109809139014C2F0C2E70
:10476000000C550B480F511D00913A016F2D0F2C75
:10477000000C770B600F711D9A01B3E0220F331FFD
:10478000BA95E1F7260F371FF901E758FB4F108163
:104790001111A6C16830710508F03FC245315105BD
:1047A00008F03BC2F901E154FE4F90819150983CD2
:1047B00008F033C290914801911106C0C80FC09310
:1047C00039010F0D00933A018DE10E945B2C80911D
:1047D0004701811122C200913901C0913A01D0E014
:1047E00038E0039F80011124F801EC0FFD1FEF5307
:1047F000FC4F8081811104C08DE10E945B2CD7C0E9
:1048000090E0019725E0289FF001299FF00D1124E9
:10481000E750FD4F6081862F82958F706F708930D1
:1048200028F4853030F48130C0F016C08930A1F012
:1048300014C0E82FF0E0EE0FFF1FE657FE4FE080B8
:10484000F1809701062E02C0369527950A94E2F76B
:10485000922F9170E92E01C0E12C4E2D0E94182C50
:10486000C8018C0F9D1FDC01AF53BC4F7D018C91A3
:10487000282F30E02150310995E0929FF001939F5D
:10488000F00D1124E750FD4F90819031D9F49181C2
:1048900040914B0150914C0160914D0170914E013E
:1048A000490F511D611D711D40934B0150934C01E7
:1048B00060934D0170934E0181500E949129F70140
:1048C000108275C0848187FD2BC0A0913B01AA3165
:1048D00009F46DC0C00FD11FCF53DC4F888195E024
:1048E0009A9FD0011124A958BD4F282F30E02150A4
:1048F0003109929FF001939FF00D1124E750FD4F75
:1049000001900D929A95E1F781500E9491291882A9
:1049100080913B018F5F80933B010E947A1947C0D1
:104920006BE7C62E62E0D62EA12CB12C40E075E0DC
:10493000972E80913B0190E0A816B906ACF5D701FF
:104940008C91282F30E021503109929EF001939EE6
:10495000F00D1124E750FD4FD60114972C91908152
:1049600029131BC012962C919281291316C01196FF
:104970002C919381291311C0D6019C912481292760
:1049800026FD0BC013972C919181920F9C9381501F
:104990000E949129F701108241E0FFEFAF1ABF0A90
:1049A00025E0C20ED11CC5CF442309F48ECFE0917F
:1049B000390180913A0190E038E0E39FF001112441
:1049C000DF01A80FB91FA154BE4F2C9131EE320F59
:1049D0003C3410F4205B2C938E0F9F1FFC01E1549C
:1049E000FE4F808191E9980F9C3408F016C16AE06F
:1049F0000E948D36D82F0E94063622E030E040E03B
:104A000050E00E942A36672B682B692B09F063C09F
:104A10008EE50E946013C5EFCD0FC23011F198F4FE
:104A2000CC23B9F0C13009F056C00E94063623E00D
:104A300030E040E050E00E942A36862F62E08F5F2F
:104A40000E94522348C0C430B9F098F0C530F9F044
:104A500042C080913C018F5F80933C010E94660DB3
:104A60003AC080914401811136C085E080934401B1
:104A700032C00E946E272FC0C0913D01C43058F152
:104A800085E00E94452D882309F4E1C024C061E03F
:104A900084E00E94302D8823F1F0082F10E00150AF
:104AA0001109C09FF001C19FF00D1124E958FD4F7D
:104AB000848183FD10C089E00E94452D81110BC0C7
:104AC00085E0809FF001819FF00D1124E958FD4F92
:104AD0009281915092838CE08D0F0E945B2C9DC03F
:104AE000E12FF0E0E05CFA4FD0818DE10E945B2C79
:104AF0000E94063624E630E040E050E00E942A366C
:104B0000D62E61E083E00E94302D882319F190E0D9
:104B1000019725E0289FD001299FB00D1124A958A5
:104B2000BD4F2C912F7030E0F901EE0FFF1FEF58B1
:104B3000FD4FE49112966C911297EE2EE60E220F25
:104B4000331FF901ED58FD4F24911396EC91022F7C
:104B50000E0F02C000E0E12C80913F01880F885DBC
:104B60009E2D990F9E0D890FD81608F056C0115032
:104B700060E2812F0E942713E09EF00111249F0123
:104B8000FF0F440B550B6E2D70E080E090E00E940B
:104B90003E174B015C0190914A0180913D01890FC4
:104BA0000E94CC18282F00913A010F0D80913901F5
:104BB000C80F880C991CAA1CBB1C30E0C901880FC7
:104BC000991F092E000CAA0BBB0B880D991DAA1D5D
:104BD000BB1D40914901042E000C550B660B770B51
:104BE000840F951FA61FB71F20913F01820F911DB3
:104BF000A11DB11DBC01CD016F5F7F4F8F4F9F4F36
:104C000022E030E040E050E00E942A36422F6D2F33
:104C10006F712C2F812F0E9483130E94F8180E941D
:104C2000D32780914301882321F080915B0180FD8F
:104C300012C0DF91CF911F910F91FF90EF90DF9005
:104C4000CF90BF90AF909F908F900C94FA1AC15064
:104C5000C0933D0140CFDF91CF911F910F91FF9005
:104C6000EF90DF90CF90BF90AF909F908F9008957E
:104C70002F923F924F925F926F927F928F929F926C
:104C8000AF92BF92CF92DF92EF92FF920F931F935A
:104C9000CF93DF9300D000D000D0CDB7DEB78D83A7
:104CA00090E09C012D583D4F3A832983D9010C9106
:104CB000002E000C110B01501109FC01E159FD4FB0
:104CC0005F019C0125593D4F1901DC01A959BD4FD8
:104CD000BC83AB83BD81B753BE83E5E19E2EED81DE
:104CE0009E0EF2E04F2E512C612C712CA8EC8A2ED6
:104CF000D5018C91082E000C990B01968017910715
:104D00000CF448C0D1018C91780173E0EE0CFF1CCB
:104D10007A95E1F7F701E80FF11D87FDFA959F01FC
:104D200022543E4F6901D9018C91883069F40E9468
:104D30000636A30192010E942A36892D869E800D97
:104D40001124F601808303C0EE81D901EC93AB817D
:104D5000BC818C91F701E80FF11D87FDFA959F0149
:104D600020543E4F7901D9018C91883069F40E941A
:104D70000636A30192010E942A36892D869E800D57
:104D80001124F701808303C0EE81D901EC930F5FFA
:104D90001F4FAECFF1010081002E000C110B9D8042
:104DA000F3ED9F0E45E1D42E2D81D20E52E0452E1B
:104DB000512C612C712C62EDC62EEB81FC8120817F
:104DC000822F022E000C990B801791070CF43EC025
:104DD000A981BA818C91F80128E08202E00DF11DD1
:104DE0001124DF01A954BE4F7D018C91883069F4F4
:104DF0000E940636A30192010E942A368D2DC69E7E
:104E0000800D1124F701808301C09C92F5018081FF
:104E1000980148E08402200D311D1124D901A953C5
:104E2000BE4F7D018C91883069F40E940636A30143
:104E300092010E942A368D2DC69E800D1124F70105
:104E4000808301C09C920F5F1F4FB7CFDD80D3944A
:104E5000D5016C91F101A081E981FA81808190E016
:104E60008C0133E0000F111F3A95E1F7E0E0F0E02C
:104E700070E08A2E912C622E712C68177907ACF0A5
:104E8000A4017F01E00EF11E641675065CF05A0164
:104E9000AE0CBF1C950121543E4FD901DC924F5FEF
:104EA0005F4FF2CF01963896E8CF26960FB6F8946A
:104EB000DEBF0FBECDBFDF91CF911F910F91FF904D
:104EC000EF90DF90CF90BF90AF909F908F907F90AA
:104ED0006F905F904F903F902F9008951F93CF93C6
:104EE000DF938091A00981110CC00E94063622E058
:104EF00030E040E050E00E942A36EB01CC0FDD1F8D
:104F000002C0C0E0D0E0FE01E456F64F808181117E
:104F100001C02196FE01ED58FD4F1081FE01E159BF
:104F2000FD4F6081062E000C770B611B710917FD88
:104F300073956F5F7F4F072E000C880B990B0E94B3
:104F40001A17610F60933901FE01E559FD4F108179
:104F5000C959DD4F6881062E000C770B611B710962
:104F600017FD73956F5F7F4F072E000C880B990B11
:104F70000E941A17610F60933A01E091390188E0AD
:104F8000E89FF0011124E60FF11DE758FB4FA081C7
:104F9000AA2329F0B0E0A05CBA4F1C921082DF91E6
:104FA000CF911F910895CF92DF92EF92FF9280915F
:104FB0005B0190915C01A0915D01B0915E01019651
:104FC000A11DB11D80935B0190935C01A0935D01D5
:104FD000B0935E0140915701509158016091590181
:104FE00070915A018091630190916401A0916501D3
:104FF000B0916601481759076A077B070CF456C041
:1050000080913F01853108F051C086E00E945B2C01
:1050100080913F018F5F80933F0180916301909168
:105020006401A0916501B0916601880F991FAA1FC4
:10503000BB1F8093630190936401A0936501B093BB
:1050400066010E94063628E030E040E050E00E9411
:105050002A3683E0860F90E0A0E0B0E040914F0157
:10506000509150016091510170915201480F591FA8
:105070006A1F7B1F40934F01509350016093510171
:105080007093520140915301509154016091550128
:1050900070915601840F951FA61FB71F809353016F
:1050A00090935401A0935501B0935601C0904F01C5
:1050B000D0905001E0905101F09052018091530145
:1050C00090915401A0915501B0915601C816D9068E
:1050D000EA06FB069CF520913F0186E190E0821BE9
:1050E000910963E070E00E94A7369B012F5F3F4F5C
:1050F000032E000C440B550B60915B0170915C0119
:1051000080915D0190915E010E942A36672B682B89
:10511000692BA1F482E00E94452D9FEFC91AD90A9C
:10512000E90AF90AC80ED11CE11CF11CC0924F011A
:10513000D0925001E0925101F092520180914001D1
:10514000882319F081508093400180914101882388
:1051500019F081508093410180914201882319F018
:1051600081508093420180914301882319F081503E
:105170008093430180914401882319F081508093EA
:10518000440180914701882319F0815080934701A1
:1051900081E00E94452D882369F00E9406362CE0AC
:1051A00030E040E050E00E942A36672B682B692BE4
:1051B00009F48DC083E00E94452DC0905F01D0901E
:1051C0006001E0906101F090620191E0C91AD1089C
:1051D000E108F108C80ED11CE11CF11CC0925F016E
:1051E000D0926001E0926101F092620161E087E09B
:1051F0000E94302D882321F080915B0180FF6AC0DE
:1052000062E087E00E94302D8823A1F060915B016D
:1052100070915C0180915D0190915E0122E030E02F
:1052200040E050E00E942A36613071058105910509
:1052300009F45EC080915F0190916001A0916101CD
:10524000B0916201CC97A105B105DCF060915301EA
:1052500070915401809155019091560124E030E005
:1052600040E050E00E942A3680914F019091500119
:10527000A0915101B0915201281739074A075B07E5
:105280001CF08EE10E945B2C80915F019091600187
:10529000A0916101B0916201181619061A061B0649
:1052A0002CF010929B0982E080939A09E12CF12C5A
:1052B0008AE00E94452D90E0880F991FE816F906B4
:1052C0005CF50E94682C8FEFE81AF80AF1CF0E9473
:1052D0006E2770CF91E0C91AD108E108F108C09299
:1052E0005F01D0926001E0926101F092620188CF8B
:1052F00080915F0190916001A0916101B091620184
:105300000197A109B10980935F0190936001A09377
:105310006101B09362018ECFFF90EF90DF90CF904C
:10532000089525E0829FC0011124FC01E750FD4F44
:105330001082118212821382148208954F925F921A
:105340006F927F928F929F92AF92BF92CF92DF9295
:10535000EF92FF920F931F93CF93DF9381ECC82EB0
:1053600083E0D82E00E010E095E0892E28E0422E60
:10537000512C612C712CE02EE694E694E69488E0A2
:10538000E89E70011124C0E0D0E0E02FE7709E2E6F
:10539000FE01EE0DFF1DEE57F64F808190E0092CC7
:1053A00002C0959587950A94E2F780FF29C05601BF
:1053B000AC0EBD1EF5018081882311F1BE01C8012C
:1053C0000E942C2AF501808190E00197889EF001CF
:1053D000899EF00D1124E750FD4FE081809142013C
:1053E0008823B1F10E940636A30192010E942A3659
:1053F0006F5FE62FF0E0E556FA4F84910E94871622
:105400002196C830D10521F60F5F1F4FF8E0CF0E6F
:10541000D11C0531110509F0AECF60913A0170E061
:105420008091390190E00E942C2A80E4DF91CF9195
:105430001F910F91FF90EF90DF90CF90BF90AF90B2
:105440009F908F907F906F905F904F900C948716F5
:105450006E2F62956F70CDCF982F990F890F880F9F
:105460008F5FE5E5F5E085838483660F660F660F41
:10547000615066830895CF92DF92EF92FF920F936F
:105480001F93CF93DF9381E4E82E85E0F82E01E2AD
:1054900015E0C1E3D5E0D12C9AE0C92EF701819146
:1054A0007F01803208F45DC08091450181114FC0B9
:1054B00080913A01E091390198E0E99FF0011124CF
:1054C000E80FF11DE154FE4F2081822F6C2D0E94C8
:1054D0008D36492FE92FF0E0E056F64F808181119B
:1054E0001CC02830D1F08881F801208130E0A82F3D
:1054F000B0E0F90198E0899FE00DF11D1124E1541D
:10550000FE4F80810E948D36491307C0B901CD013D
:105510000E942C2A8D2D0E941C20888190E02091D1
:10552000390130E0281B390B2F5F3F4F2330310505
:10553000C0F4F801608170E020913A0130E0261B50
:10554000370B2F5F3F4F2330310558F405C0F8016A
:10555000608170E0888190E00E942C2A8D2D0E944D
:105560001C200F5F1F4F2196D394F0E1DF1296CFDE
:10557000DF91CF911F910F91FF90EF90DF90CF902F
:1055800008950F931F93CF93DF9380914101811171
:1055900032C000E010E0C0E0D0E080913901980115
:1055A000280F311DC901019720913A01BE01620FF8
:1055B000711D61507109FC0123E0EE0FFF1F2A9558
:1055C000E1F7E60FF71FE154FE4F20813FEF320F66
:1055D000363018F02F512C3428F40E942C2A8EE2F9
:1055E0000E9487162196C330D105B9F60F5F1F4F71
:1055F0000330110581F660913A0170E08091390124
:1056000090E00E942C2A80E4DF91CF911F910F91AE
:105610000C948716AF92BF92CF92DF92EF92FF92D7
:105620000F931F93CF93DF938FEBE82E81E0F82E3B
:10563000C0E0D0E09AE0B92E0C2F069506950695AD
:1056400098E0099F80011124C12CD12C8C2F8770E8
:10565000A82EB601CE010E942C2AF601E00FF11F00
:10566000EE57F64F808190E00A2C02C09595879501
:105670000A94E2F780FF5EC0F701EC0DFD1D20816A
:10568000222309F457C08FEF820F863020F081EE7D
:10569000820F8C34F8F480913A01E091390198E05E
:1056A000E99FF0011124E80FF11DE154FE4F8081C4
:1056B0006B2D0E948D36392FE92FF0E0E056F64F22
:1056C0008081811107C0822F0E948D36931332C0D2
:1056D0008EE231C0283001F185EF820F8630F0F084
:1056E0008BEE820F8630E0F081E9820F8C34D0F0AF
:1056F00081E4820F8830C0F087E3820F8630C0F0EB
:105700008DE2820F863090F083E2820F863080F047
:10571000275E263058F00EC083E20DC085E20BC034
:105720008BE209C08FE507C08FE305C08CE703C09B
:1057300086E201C080E20E9487168FEFC81AD80A5D
:1057400098E0C916D10409F084CF219688E0E80ECC
:10575000F11CC531D10509F06FCFDF91CF911F91B9
:105760000F91FF90EF90DF90CF90BF90AF90089592
:105770000F931F93CF93DF9388EAE9E7F4E0DF010B
:10578000682F1D926A95E9F7E1ECF3E0DF011D92C5
:105790008A95E9F788E1E2E8F9E0DF011D928A9550
:1057A000E9F788ECE9EFF2E0DF011D928A95E9F76D
:1057B000E1E3F5E041E255E021E435E08FE699E0F0
:1057C000C9E6D4E005EA19E01192DA011D92AD01B3
:1057D000D9011D929D01DC011D92CD011992D801C4
:1057E0001D928D01B5E0E134FB0771F7DF91CF9198
:1057F0001F910F910895E82FE695E695E69598E0BC
:10580000E99FF0011124E60FF11DEE57F64F282F06
:10581000277081E090E0A0E0B0E004C0880F991FFD
:10582000AA1FBB1F2A95D2F72081822B808308955F
:10583000CF93DF93CDB7DEB72D970FB6F894DEBFC9
:105840000FBECDBF9DE0E5E8F1E0DE0111960190CD
:105850000D929A95E1F790E070E0FE01E80FF91FD4
:10586000411105C08081FB01E80FF11D11C02581A8
:1058700005973EE0389FF001399FF00D11246E0F1F
:105880007F1FFB01EF5FFE4FE081F0E0E20FF11DB3
:10589000EE0FFF1FEE53F64F859194919093800980
:1058A00080937F092D960FB6F894DEBF0FBECDBF53
:1058B000DF91CF910895E82FF0E0EE0FFF1FEC5736
:1058C000F64F859194919093800980937F09089574
:1058D0000F931F93CF93DF932091390180913A0169
:1058E00090E048E0249F90011124D901A80FB91F2E
:1058F00060E070E01997A901485051099C012F5FA1
:105900003F4F98E06831710561F1FD01E60FF71F27
:10591000E154FE4FEA01C60FD71FC154DE4F8F017D
:105920000C1B1D0B20173107CCF0808111EE180FD6
:105930001C3410F4805B0FC013E2180F163010F403
:10594000885C09C0843E11F4908306C019E1180FE9
:10595000163010F4825D80833196E1CF685F7F4F0F
:10596000D1CFDF91CF911F910F91089525E0829FB4
:10597000C0011124DC01A958BD4FEC91EF70F0E09B
:10598000EF5FFE4F848D843019F0863059F0089512
:1059900012969C9180914A01699F800D11248093F9
:1059A0004A01089512969C9180914901699F800D4A
:1059B00011248093490108951F93CF93DF93162FED
:1059C000E82FF0E09F01225031098170829F202D45
:1059D0001124CF01019762E070E00E94A73633974F
:1059E0008E9F902D11243091390170913A0160E021
:1059F000A22F022E000CBB0BC92F092E000CDD0BB1
:105A0000AD01430F511DE3E0440F551FEA95E1F747
:105A1000FE01E70FF11D4E0F5F1FFA01E758FB4F24
:105A20008081882319F0320F790F0CC0FA01E154FC
:105A3000FE4F40814150473C28F4320F790F6F5F91
:105A40006113DECF90E0982F882725E1729F800DAB
:105A5000911D1124830F911DDF91CF911F91089506
:105A6000382FE7E7F2E091E080E0208122952F7067
:105A7000231306C0248124FF03C0615009F4892F39
:105A800035969F5F953189F708950F931F93CF93B4
:105A9000DF93182F90E0C0E005E0D1E0D90F6D2F23
:105AA00087E00E94302D8823A1F0282F30E021507C
:105AB0003109029FF001039FF00D1124E958FD4FB9
:105AC000E081EF70F0E0EF5FFE4F848D811301C045
:105AD000CF5F91E0D23009F78C2FDF91CF911F91EA
