:100000000C940A050C9432050C9432050C943205BC
:100010000C9432050C9432050C9432050C94320584
:100020000C9432050C9432050C9432050C94320574
:100030000C9432050C9432050C9432050C94320564
:100040000C9432050C9432050C9432050C94320554
:100050000C9432050C9432050C9432050C94121B4E
:100060000C9432050C9432050C9432050C94320534
:100070000C9432050C9432050C9432050C94320524
:100080000C9432050C9432050C9432050C94320514
:100090000C9432050C9432050C9432050C94320504
:1000A0000C9432050C9432050C943205F7070408C1
:1000B000090839086B087E088F0893089708F2072B
:1000C000B508B908BF08C3081F0911094D0975090A
:1000D0008B09C409C709320A0609D6090A0A0C099C
:1000E0003D0CEC0A3D0C3D0C450C3D0C4D0CEC0A56
:1000F000EC0AEC0A560CEC0A5E0CAF13DF13FB148F
:10010000FB14EB13FB14FB1406141914FB14421418
:10011000FB144D14FB14FB14FB14FB145E14B21BF4
:10012000CA1BD41BDA1BE01BF31BFD1B041C0A1C9F
:10013000122022204220A420E020E520EF203E21B2
:10014000D5F08D14A1C881CFD9F1AF200057696EC9
:1001500000425D436C6561720048616C6C204F66C3
:100160002046616D6500200024006279004B696CB7
:100170006C65640046726F7A656E005374617276C6
:1001800065005F5F5F295C5C2F2F2929282F2F5C7A
:10019000282F28285F5F5F002A6F20202020202042
:1001A00020202020206F2A006F20202020202020C7
:1001B000202020206F006F202020202020202020C1
:1001C00020206F006F2020204865726F20202020A3
:1001D0006F006F20202020202020202020206F0072
:1001E0006F2020522049205020206F006F6F6F6FCA
:1001F0006F6F6F6F6F0045783B0041433B00537456
:100200003B0048703B0041753B004C763B00202092
:10021000202020202020202000537461747573005A
:10022000425D20436F6E74696E756500415D204EBE
:1002300065772047616D65004020526F67756500E6
:100240002043002045002077686963683F00202034
:100250000020496E76656E746F7279202020202010
:10026000000203030404050101010101020103016D
:10027000042020202020202020202020202020209A
:1002800000202064726F7020202020202020202059
:100290000020207468726F772020202020202020EA
:1002A0000020207573652020202020202020202081
:1002B00000416374696F6E00676F6C64000000003A
:1002C000666F6F64000000006D6F6C6400000000DA
:1002D0006D6163650000000061786500000000004A
:1002E00073776F7264000000626F77000000000097
:1002F00064617274000000006172726F7700000028
:10030000736872696B656E0064616767657200008F
:100310006C6561746865720072696E670000000048
:100320007363616C65000000636861696E000000C2
:1003300073706C696E74000062616E6465640000C5
:10034000706C617465000000616D62657200000090
:10035000626C61636B000000626C756500000000F8
:1003600062726F776E000000636C6561720000005E
:100370006379616E000000006F72616E6765000056
:10038000677265656E0000006772617900000000A9
:1003900070696E6B00000000726564000000000070
:1003A00076696F6C65740000776869746500000099
:1003B00079656C6C6F7700005A454C474F00000020
:1003C0004A555945440000004E52203900000000B3
:1003D000584958415841000044414959454E000090
:1003E000454C42494200000054484152520000002E
:1003F00059554D2059554D00414E444F564100002E
:10040000464F4F424945000054454D4F56000000AD
:1004100052454144204D450061676174650000000C
:10042000616D7468797374006469616D6F6E6400E6
:10043000656D6572616C64006761726E6574000061
:100440006F6E6978000000006F70616C0000000042
:10045000706561726C0000007275627900000000C6
:100460007361706869726500746F70617A00000072
:10047000627261737300000062726F6E7A650000D1
:10048000636F70706572000069726F6E000000002B
:100490006C656164000000006E69636B656C000050
:1004A000737465656C00000073696C76657200009A
:1004B00074696E00000000007A696E63000000003D
:1004C00059656E646F720000706F7765720000008E
:1004D000726573746F7265006865616C000000007E
:1004E000652E6865616C0000706F69736F6E000047
:1004F0006C6576656C000000626C696E64000000DB
:1005000068616C6C750000006D2E64746563740026
:10051000692E647465637400636F6E66757365003D
:100520006C657674617465007370656564000000C5
:100530006C6F6F6B0000000070726F746563740005
:10054000686F6C6400000000776561706F6E00007A
:1005500061726D6F7200000069646E746966790083
:1005600074656C706F727400736C65657000000068
:100570007363617265000000626C65737300000054
:100580006372656174650000616E676572000000EA
:100590006D61700000000000737465616C74680028
:1005A00074656C65706F72746C696665000000003C
:1005B000666F6F640000000064616D616765000034
:1005C0007374726F6E67000064657800000000004D
:1005D0006172646F726E0000736565000000000058
:1005E00061726D6F72000000736561726368000074
:1005F00074656C706F727400736C6F77000000002C
:10060000636F6E6675736500636C656172000000F0
:100610006368616E676500006661737400000000C6
:10062000736C6565700000006D697373696C6500BB
:1006300063616E63656C00006E6F7468696E67005D
:1006400077656C636F6D65600000492063616E6E55
:100650006F7400006E6F20737061636500006F62DD
:100660006A656374206865726E6F20736C6F7400C6
:1006700000006469723F0000000000006C65766550
:100680006C20757000006F6F70732E2E2E000000AE
:1006900079756D6D79000000000069742069732020
:1006A0006375727372656D6F7665640000006571C5
:1006B00075697070656400007769656C64656400D5
:1006C000000066726F7A656E00000000706F6973DB
:1006D0006F6E6564000073746F6C656E00000000DF
:1006E0007275737465640000000068656C640000D6
:1006F00000000000677261636564000000006275BD
:10070000726E6564000000006C6576656C20646F35
:10071000776E647261696E65640000005A5A5A2EE1
:100720002E2E000000004B4542534849524F5A4C70
:100730004351414E594654575058554D56474A44D7
:100740000203040506060705080000000000007407
:100750006D74000007000700552A552A55042E6BBA
:100760003A107F437F417F367F49365000080703A8
:1007700000001C3E410008105F100822085D08229E
:100780007E4141417E00807030006A5767576E009D
:100790000000402002007D00023E7F417F3E00427B
:1007A0007F7F406271594F462241497F3618147E3F
:1007B0007F102F4F4979313E7F4979300161791F90
:1007C00007367F497F36064F497F3E18353E3D1834
:1007D00000363600000008142241102A452A101C59
:1007E0007F3E1C08085C2E170A0102641F767E7F7C
:1007F000097F7E7F7F497F363E7F4141227F7F4157
:100800007F3E7F7F4949417F7F0909013E7F4179D2
:100810007A7F7F087F7F00417F7F4141417F3F0199
:100820007F7F1C36637F7F4040407F7E0C7E7F7FD2
:100830007E1C3F7F3E7F417F3E7F7F090F063E7FCC
:10084000613F5E7F7F097F76264F49793200017FC5
:100850007F013F7F407F3F1F3F603F1F7F3F103F33
:100860007F777F087F77037F78070371794D474350
:100870001F3B713B1F02040810200041417F3E3E98
:100880007F4141004040404040006F6F00002074B5
:10089000547C787F7F447C38387C444428387C44BE
:1008A0007F7F387C545C1800047E7F0518BCA4FC54
:1008B0007C7F7F08787000447D7D408080FD7D00D6
:1008C0007F7F386C4400417F7F407C7810787C7C4F
:1008D0007C047C78387C447C38FCFC243C18183C34
:1008E00024FCFC7C7C080404085C54742000047E16
:1008F0007E043C7C407C7C1C3C403C1C7C3C103C92
:100900007C6C7C107C6C1CBCA0FC7C4464745C4CD7
:1009100000083E7741007777770041773E08002056
:100920001008040201020408102040800A01043C5F
:100930000200830B0103410200020A01033C020092
:1009400025080103320200030F0205430300030FD1
:1009500000004405000413020A460A0003190105B9
:1009600046050A03150107450800031900004B1549
:100970006404200513550F0A051E030F4E141403BB
:10098000190000641400031900004B2764042303BA
:100990001250321405490000505B00014B051C4BFE
:1009A0007D21032D02104B3700054C051450783281
:1009B000652A04184B6E00065A042855C8210361A5
:1009C000072555FA190337021255FF1203730A322D
:1009D00055FF0A8384073264FF000591083C64FFD9
:1009E0005A02000A0F18213F5D60642A3A295B21F0
:1009F0003F3D2F2C00050A14192328323C414B554A
:100A00005A5F6400050A0F14232D37414B555A6471
:100A10006464923511241FBECFEFDAE0DEBFCDBF94
:100A200011E0A0E0B1E0E6ECFDE602C005900D9219
:100A3000A239B107D9F729E0A2E9B1E001C01D92BE
:100A4000AB3EB207E1F715E0CAE0D5E004C021975C
:100A5000FE010E94B336C930D107C9F70E94A92E02
:100A60000C94E1360C940000EF92FF920F931F93C9
:100A7000CF93DF93D82F082F10E0C80183549E4FE7
:100A80007C01FC01C081C4FF14C0C6FF02C089E024
:100A900024C0CF7EFC01C0838AE00E947410F8015C
:100AA000EB5DFD4F80818057803108F041C06FEFD2
:100AB00036C0F801EB5DFD4F9081892F82958F70D4
:100AC0008330B0F1853018F08730A1F031C061E09B
:100AD0000E945426882349F08CE0DF91CF911F912A
:100AE0000F91FF90EF900C947410C261F701C083D6
:100AF0008BE0F3CF61E087E00E945426182F62E07C
:100B000087E00E945426189FC0011124892B21F7E9
:100B1000C261F701C0838BE00E94741061E08D2FE9
:100B2000DF91CF911F910F91FF90EF900C94D528FA
:100B3000DF91CF911F910F91FF90EF9008952F9229
:100B40003F924F925F926F927F928F929F92AF925D
:100B5000BF92CF92DF92EF92FF920F931F93CF93AA
:100B6000DF9300D000D01F92CDB7DEB7382E512CC6
:100B7000442443940E946E194092D0044092CF04C2
:100B8000CC24CA94C092D10431101AC040E860E06D
:100B900070E080E090E00E94071A1092D20481E594
:100BA00092E00E94BC1960913C0170913D018091DE
:100BB0003E0190913F010E94DD198EE492E002C057
:100BC00086E492E00E94BC194092D0044092CF0487
:100BD00047E0D42ED092D1044092D2048EE30E94FA
:100BE0006319E52CF12CFD82EC8280910201A701B2
:100BF0004A5F5F4F282F30E04217530714F487E015
:100C0000850D0C811D8103541E4F2C813D812F5079
:100C10003E4F79012C813D812B5D3D4F5901CC80A8
:100C2000DD8088248394912C682E712CC614D704FF
:100C30000CF0A8C0B40181E090E00E94540E1A8329
:100C40000983D8018C9183FD09C0D501EC91E2950F
:100C5000EF70F0E0E651F64F849101C08BE70E94FF
:100C6000631980E20E946319F801808187FF0DC03B
:100C7000F601E55FFD4F608170E080E090E04AE0C2
:100C80000E947B1980E20E946319D5019C91692F13
:100C90006F70892F82958F70903510F440E00FC0EF
:100CA000E82FF0E0EE0FFF1FE557FE4F4081518126
:100CB000062E02C0569547950A94E2F741700E94AD
:100CC000EA158DEA94E00E945119F801808185FFB0
:100CD00038C0D5018C9190ED980F9031A0F48EE53D
:100CE0000E946319F7016081062E000C770B880BB8
:100CF000990B0E94DD198CE20E946319F601E952FA
:100D0000FE4F608114C090EC980F903158F090E83D
:100D1000980F903138F08057803198F4F701808136
:100D2000882379F08EE50E946319D7016C91062E15
:100D3000000C770B880B990B0E94DD198DE50E9442
:100D40006319F801808184FF04C083E492E00E946B
:100D5000BC190F5F1F4FA981BA818C9182748234B4
:100D600021F480E492E00E94BC19BFEFCB1ADB0AA9
:100D7000EFEFEE1AFE0AFFEFAF1ABF0A2FEF821A4B
:100D8000920A54CF0E9441190E945023823029F4C4
:100D9000552009F4EFCE5A94EDCE843061F4809161
:100DA000020190E00197CC80DD80C816D9060CF0D6
:100DB000E1CE5394DFCE853009F056C6311057C6C8
:100DC0004BE468E070E086E090E00E94071A109221
:100DD000D2048DE08093D0048093CF0417E0109369
:100DE000D10481EB92E00E94BC1981E08093D2048F
:100DF0001093D0041093CF040FE00093D10481EA44
:100E000092E00E94BC191093D0041093CF0487E1A4
:100E10008093D10481E992E00E94BC191093D00420
:100E20001093CF048FE18093D10481E892E00E9477
:100E3000BC191093D0041093CF0487E28093D1049F
:100E400081E792E00E94BC191093D0041093CF0464
:100E50000093D1048EE30E9463190E94411910E0AF
:100E60000E9450238430C9F018F4823039F0F8CF52
:100E7000853079F1863009F4FAC5F2CF112381F378
:100E8000612F70E06E5F7F4F81E090E00E94540E12
:100E900080E20E94631911500EC0123008F7612FD2
:100EA00070E06E5F7F4F81E090E00E94540E80E220
:100EB0000E9463191F5F612F70E06E5F7F4F81E0BA
:100EC00090E00E94540E8EE30E9463190E94411923
:100ED000C7CF11112BC30091000901112EC3EC8162
:100EE000FD81EB5DFD4F1081912F92959F709230A7
:100EF000E1F5EC81FD81E55FFD4F808181508083CC
:100F0000811103C0852D0E94771C88E00E94741017
:100F100060913C0170913D0180913E0190913F01B3
:100F200023E030E040E050E00E94223669017A017F
:100F30008EE5C80E81E0D81EE11CF11C0E94FE3532
:100F400022E330E040E050E00E942236DC01CB0199
:100F50008C0D9D1DAE1DBF1D80933C0190933D01E6
:100F6000A0933E01B0933F01DAC2933009F4A1C2CD
:100F7000943009F49EC21F70953009F00BC1E12E28
:100F8000F12C81E090E0A0E0B0E0012E04C0880FD9
:100F9000991FAA1FBB1F0A94D2F720919501309187
:100FA0009601822B932B9093960180939501EC816F
:100FB000FD81E55FFD4F808181508083811103C0F9
:100FC000852D0E94771CF701ED5FFE4FE0814E2FCB
:100FD00050E04E30510508F0D9C0FA01EA5AFF4FEF
:100FE0000C94B33697E0E92E93E0F92EBBC09091B4
:100FF00001012091000181E0890F8093010192138A
:10100000C5C080930001C2C080910001809301019E
:10101000BDC08091440190914501A0914601B091DD
:10102000470140914001509141016091420170910E
:10103000430184179507A607B70721F40196A11D60
:10104000B11D2FC06A017B01C80ED91EEA1EFB1E0E
:10105000C701B60122E030E040E050E00E942236B5
:10106000209344013093450140934601509347013A
:101070008DC08091440190914501A0914601B091AD
:1010800047014091400150914101609142017091AE
:10109000430184179507A607B707A1F40296A11D7F
:1010A000B11D8093440190934501A0934601B093F4
:1010B00047018093400190934101A0934201B09376
:1010C000430164C04093440150934501609346013D
:1010D000709347015BC000910101043060F00E94F1
:1010E000FE35015023E030E040E050E00E9422361F
:1010F000061B009301011092020948C0809149012A
:1011000090914A01A0914B01B0914C018093030949
:1011100090930409A0930509B093060937C082E3B0
:101120008093A80433C082E3809302092FC081E03A
:101130008093A3012BC0F701EC0DFD1D8081882356
:1011400021F06C2D802F0E944F102FEFC21AD20A6F
:1011500038E0C316D10479F788E0E80EF11C0F5F80
:101160000531A1F0C12CD12CE6CF8AE08093A704F1
:101170000DC01092A5018EE18093FF0807C084E1A5
:101180008093010903C081E08093A40141E0612FB5
:1011900085E071C1963009F075C10091A804011174
:1011A0006FC1E12EF12C81E090E0A0E0B0E0012ED3
:1011B00004C0880F991FAA1FBB1F0A94D2F7209161
:1011C000970130919801822B932B909398018093F3
:1011D0009701EC81FD81E55FFD4F80818150808327
:1011E000811103C0852D0E94771CD701AD5FBE4FD2
:1011F0007D011E96EC914E2F50E04C30510508F0C9
:1012000031C1FA01EC59FF4F0C94B33680910201C1
:1012100090E0EDEBF1E0BFC08EE2C82E89E0D82E61
:101220001EC12091BC018091BB0190E0B8E02B9FD2
:10123000800D911D112460E070E0409728C061E0AE
:1012400084E00E945426882309F40CC1E82FF0E0C2
:10125000E454FE4F808188605CC0FA01EA0FFB1FF6
:10126000E153FC4FE081EE2339F0F0E0EA56FB4F0A
:1012700020812F71205820834F5F5F4F43305105ED
:1012800061F7685F7F4F6832710509F4EBC0DC01DC
:10129000A60FB71F4EEF5FEFE0CF61E083E00E9443
:1012A0005426882309F4DEC0C82ED12CE1E0CE1AE2
:1012B000D108F601E354FE4F80818F7B80830E942A
:1012C000FE3522E030E040E050E00E942236F60198
:1012D000672B682B692B31F4EF50FE4F90819F5F95
:1012E0009083C0C0E952FE4F12C061E084E00E94CA
:1012F0005426882309F4B6C0E82FF0E03197DF01C7
:10130000A354BE4F8C918F7B8C93EF50FE4F808106
:101310008F5F8083A7C081E00E949F0590E0FC0161
:10132000E354FE4F208122622083FC01EB5DFD4FE0
:101330009081292F2F70892F82958F70903510F40E
:1013400040E01CC0E82FF0E0EE0FFF1FE557FE4F16
:1013500041E050E060E070E0022E04C0440F551FF1
:10136000661F771F0A94D2F7A081B1814A2B5B2BAD
:10137000518340839059903118F341E0622F0E94CD
:10138000EA150E944E1A6EC00E94332B6BC085E096
:101390008093000967C09F012D5B314028173907F2
:1013A0000CF060C020812F7B2193F5CFE7E9F4E0BA
:1013B00081E09191911101C0282E8F5F8131C9F791
:1013C00041E06091BB018091BC010E94522590E0F8
:1013D000009709F447C00197E22DF0E03197209182
:1013E000BC01215063E070E00E949F36820FDF0154
:1013F000A957BB4F8C934091BB014150460FE95810
:10140000FB4F4083682F8FEF820D0E94C4220E9401
:10141000630E28C0E7E9F4E08081882319F08F711A
:10142000805E8083319624E0E73AF207A9F71AC07C
:10143000F601EA0DFB1D8081882321F06A2D802FA3
:101440000E944F103FEFA31AB30A88E0A816B10418
:1014500079F798E0C90ED11C0F5F053119F0A12C66
:10146000B12CE6CFD7011E968C91843009F457C079
:1014700041E0612F86E00E94EA150E944E1A4FC09B
:1014800081E00AC19730C9F481E090E0A0E0B0E0CB
:1014900004C0880F991FAA1FBB1F1A95D2F720916D
:1014A000990130919A01822B932B90939A0180930A
:1014B0009901852D0E94340532C0983081F581E074
:1014C00090E0A0E0B0E0012E04C0880F991FAA1F91
:1014D000BB1F0A94D2F720919B0130919C01822B73
:1014E000932B90939C0180939B01EC81FD81EF50A5
:1014F000FE4F808118161CF48150808301C019E0D2
:101500000E94691B64E10E94002697FF02C081507F
:101510009F4F992321F0692F812F0E94921B0E94D7
:10152000322A0E9495100E94411DA1C2113009F07B
:101530005AC080910009882321F086E10E9474102E
:1015400096C22C813D8123543E4F6901D9018C9173
:101550000C811D810B5D1D4F84FF09C0F801908136
:1015600020ED290F2031A8F59F70943090F186FF6F
:1015700005C0D8019C9190539031A8F00E94691B3E
:10158000F82E61E083E00E945426882309F4C1C04C
:10159000E82FF0E0EC5DFD4F90819F70933009F0F3
:1015A000B8C064E1B9C08260D6018C9361E083E089
:1015B0000E945426882339F0E82FF0E0E454FE4FCF
:1015C00080818F7E8083F60180818061808389E0C5
:1015D00001C08CE00E9474100E9495100E94411D71
:1015E0000E94322A44C2123009F03ACC809100099C
:1015F0008111A3CF0091BB01E091BC01AC81BD8101
:10160000A354BE4FDC908D2D8071D4FC80C0AC8182
:10161000BD81AB5DBD4FCC902C2D30E0A1E1B1E0A0
:101620009D91973021F08F5F8C30D1F780E090E072
:10163000805A9F4FEE2EF12C10E028173907E9F45D
:10164000EC81FD81E55FFD4F908191509083911178
:1016500003C0852D0E94771CF70133E0EE0FFF1FBA
:101660003A95E1F7E00FF11FE25DF64F80816AE005
:101670000E948536925E908352CFC70123E0880F87
:10168000991F2A95E1F7080F191F095F1C4FD80110
:101690008C91882321F083E00E94741040CF0E9437
:1016A000F42A883211F484E0F7CF91E0980FF80122
:1016B0009083E82FF0E0DF01A152BD4FCC929F0153
:1016C00029543D4F8C819D81855F9D4FDC018C911C
:1016D000D9018C939F0121573D4F8C819D818F5063
:1016E0009E4FDC018C91D9018C939F0129593D4F6C
:1016F0008C819D8189529E4FDC018C91D9018C9304
:10170000E15CFD4FD082852D0E94771C08CF8CE0D4
:10171000C3CF6091010166958F2D0E9400265C0168
:10172000F80140814093A20181E08093A101EC8106
:10173000FD81EF50FE4F00810093A001EC81FD81FF
:10174000E952FE4FE080E0929F01D601CC90C0921A
:101750009E01EC81FD81E55FFD4F8081815080839A
:10176000811105C0852D4B830E94771C4B81C501DB
:10177000B7FE02C081509F4F692E792E770C7708F3
:10178000D92EC50160E071E00E949F3665E170E0EE
:101790000E949F36F62E182F611002C021E0B5C0BE
:1017A00080ED840F803158F44F70E42FF0E0EE0F9D
:1017B000FF1FEF59FD4FE491CE2EC00E02C0CC2486
:1017C000C3940E94FE3524E630E040E050E00E94E1
:1017D0002236E62E80914801880F885D9C2D990F56
:1017E0009C0D082F090F61E083E00E945426E82F2A
:1017F000F0E0EC5DFD4F80814091A201982F94278D
:101800009F7009F487C0453321F48F70833009F449
:1018100081C0E01608F071C0EE24EA94ED0C8E2D24
:101820000E944C240091A20180ED800F803160F471
:10183000E02FEF70F0E0EE0FFF1FEE59FD4FE49147
:10184000B0909F01BE0E01C0B12C80EB800F8031A3
:10185000F0F58E2D0E944C240F70E02FF0E0ED5F2C
:10186000FE4FE0818E2F90E08D30910508F0B4CED0
:10187000FC01E059FF4F0C94B336C3019927FC01DA
:10188000E255FC4F8081865F20C0C3019927FC018F
:10189000E255FC4F8081869518C0C3019927FC0151
:1018A000EA56FB4F80818F71805C0FC0C30199277E
:1018B000FC01E254FC4F8081806207C0C30199277C
:1018C000FC01E254FC4F80818068808385CE005803
:1018D000003150F50E94FE3524E030E040E050E059
:1018E0000E942236672B682B692BF1F08091A201B0
:1018F0006D2D8F700E94921B6FCEC0909E01E09064
:101900009F010091A0012091A1016F2D812F0E94C4
:10191000171C62CEB4E00B9FC001112463E070E09D
:101920000E949F36062F75CF8091A201805380318F
:1019300008F04BC02C2D0C2C000C330BAB2DBB0C2A
:10194000BB0B0E94B9369B01AC016C2DCC0C770B04
:10195000880B990B0E94911A4B015C0190919D019B
:1019600080910101890F0E94931C880C991CAA1C6C
:10197000BB1C282F30E0C901880F991F092E000CCD
:10198000AA0BBB0B880D991DAA1DBB1D4091AA0176
:10199000042E000C550B660B770B840F951FA61FAA
:1019A000B71F20914801820F911DA11DB11DBC01DF
:1019B000CD016F5F7F4F8F4F9F4F22E030E040E0BF
:1019C00050E00E942236422F1FC090919D018091CD
:1019D0000101890F0E94931C482F50E0415051098A
:1019E000440F551F8091AA01480F511D87FD5A953C
:1019F00080914801480F511D4F5F5F4F57FF02C054
:101A00004F5F5F4F5595479561E083E04B830E94A0
:101A10005426E82FF0E0EC5DFD4F80812091A2017B
:101A2000982F92279F704B819923A1F0253319F4A9
:101A30008F70833079F0C30199278A569B4FFC0140
:101A400060816295669567700F2D212F8E2D0E9403
:101A5000D824C2CDE4E04E02C001112463E070E05E
:101A60000E949F36462FE7CF863009F083C8852D28
:101A70000F900F900F900F900F90DF91CF911F91CB
:101A80000F91FF90EF90DF90CF90BF90AF909F901D
:101A90008F907F906F905F904F903F902F90089520
:101AA000CF93DF93C82FD0E0FE01E154FC4F80813B
:101AB00086FF09C088E00E94B228811104C080918D
:101AC000A401813081F580910209C956DB4F88233A
:101AD000D1F088818056803260F40E94FE3529E082
:101AE00030E040E050E00E942236FB01E551F64F25
:101AF00015C00E94FE352AE130E040E050E00E942F
:101B00002236FB0109C0E88180EA8E0F803210F492
:101B10008AE205C0EF71F0E0EA5DF84F8491DF9151
:101B2000CF910C946319DF91CF9108953F924F921A
:101B30005F926F927F928F929F92AF92BF92CF925D
:101B4000DF92EF92FF920F931F93CF93DF9397E96A
:101B5000C92E94E0D92E27E8E22E24E0F22E00E0F0
:101B600010E033E0432E512C612C712C42E0842E86
:101B7000912CA12CB12C8091E609E7E08E9FC00149
:101B800011240896801791070CF47CC00E94FE3542
:101B9000A30192010E942236672B682B692B09F062
:101BA00066C08091E60981110AC00E94FE35A50138
:101BB00094010E942236EB01CC0FDD1F02C0C0E071
:101BC000D0E0FE01E951F64F8081811101C02196DC
:101BD000FE01EE51F64F3080FE01E652F64F608175
:101BE000062E000C770B6319710937FC73956F5F34
:101BF0007F4F072E000C880B990B0E946D1A360E32
:101C0000F7013082FE01E252F64F3080CA52D64FC1
:101C10006881062E000C770B6319710937FC7395E8
:101C20006F5F7F4F072E000C880B990B0E946D1A77
:101C3000432D460FF801E958FB4F4083F7016081BF
:101C40008091BC01681799F08091BB01481779F029
:101C500028E0629FF0011124E40FF11DE153FC4FD5
:101C60008081811104C0802F0E94C42202C0F6012D
:101C700010820F5F1F4FFFEFCF1ADF0A2FEFE21A1C
:101C8000F20A79CFDF91CF911F910F91FF90EF90E2
:101C9000DF90CF90BF90AF909F908F907F906F908C
:101CA0005F904F903F900895982F990F890F880F5C
:101CB0008F5FEBECF4E085838483660F660F660F1D
:101CC000615066830895CF92DF92EF92FF920F9357
:101CD0001F93CF93DF9387E9E82E84E0F82E07E780
:101CE00014E0C7E8D4E0D12C9AE0C92EF701819125
:101CF0007F01803208F45DC08091A30181114FC043
:101D00008091BB01E091BC0198E0E99FF0011124B2
:101D1000E80FF11DE25DF64F2081822F6C2D0E94AD
:101D20008536492FE92FF0E0E75DF64F808181117C
:101D30001CC02830D1F08881F801208130E0A82F24
:101D4000B0E0F90198E0899FE00DF11D1124E25DFA
:101D5000F64F80810E948536491307C0B901CD0135
:101D60000E94540E8D2D0E94500D888190E020918C
:101D7000BC0130E0281B390B2F5F3F4F233031056A
:101D8000C0F4F801608170E02091BB0130E0261BB7
:101D9000370B2F5F3F4F2330310558F405C0F80152
:101DA000608170E0888190E00E94540E8D2D0E9429
:101DB000500D0F5F1F4F2196D394F0E1DF1296CFA5
:101DC000DF91CF911F910F91FF90EF90DF90CF9017
:101DD00008950F931F93CF93DF938091A8048111EF
:101DE0002EC000E010E0C0E0D0E08091BC0198017E
:101DF000280F311DC90101972091BB01BE01620F5F
:101E0000711D61507109FC0123E0EE0FFF1F2A953F
:101E1000E1F7E60FF71FE25DF64F208121502630F3
:101E200028F40E94540E8EE20E9463192196C3305A
:101E3000D105D9F60F5F1F4F03301105A1F6609150
:101E4000BB0170E08091BC0190E00E94540E80E4E0
:101E5000DF91CF911F910F910C946319AF92BF92B4
:101E6000CF92DF92EF92FF920F931F93CF93DF9366
:101E70008EE2E82E89E0F82EC0E0D0E09AE0B92E9C
:101E80000C2F06950695069598E0099F8001112470
:101E9000C12CD12C8C2F8770A82EB601CE010E94A8
:101EA000540EF601E00FF11FEB51F74F808190E0E7
:101EB0000A2C02C0959587950A94E2F780FF54C0DA
:101EC000F701EC0DFD1D2081222309F44DC08FEF99
:101ED000820F8630F8F48091BB01E091BC0198E05C
:101EE000E99FF0011124E80FF11DE25DF64F8081BA
:101EF0006B2D0E948536392FE92FF0E0E75DF64F14
:101F00008081811109C0822F0E94853693132CC0D5
:101F10008EE22BC02830E1F085EF820F8630D0F0C2
:101F20008BEE820F8630C0F081EE820F8830B0F0E9
:101F300087ED820F8630B0F08DEC820F863080F016
:101F400083EC820F863070F02754263048F00CC0A6
:101F500083E20BC085E209C08BE207C08FE305C0B6
:101F60008CE703C08DE201C080E20E9463198FEF0D
:101F7000C81AD80A98E0C916D10409F08ECF219664
:101F800088E0E80EF11CC531D10509F079CFDF9169
:101F9000CF911F910F91FF90EF90DF90CF90BF9066
:101FA000AF9008952EE239E080E090E0F901E80F6B
:101FB000F91F1082019688309105C1F7285F3F4FC5
:101FC00089E0263D380781F708950F931F93CF933B
:101FD000DF9320E030E080E090E0AC01420F531F3F
:101FE000FA01E153FC4F1082FA01E95FFC4F1082C5
:101FF00001968830910589F7285F3F4F283A3105CF
:1020000051F725EE38E080E090E0F901E80FF91F84
:102010001082019688309105C1F7285F3F4F48E054
:102020002D3F340781F7EFEDF2E027EB32E08FE848
:1020300092E0C7E6D2E06FE372E01192D9011D92FF
:102040009D01DC011D92CD011992DB011D92BD01A4
:10205000B3E0E730FB0789F7E7E8F4E047E754E04F
:1020600027E934E08FEA93E0CFEBD3E00BEA11E00D
:102070001192DA011D92AD01D9011D929D01DC0181
:102080001D92CD011992D8011D928D01B4E0E7395E
:10209000FB0771F7DF91CF911F910F910895E82F02
:1020A000E695E695E69598E0E99FF0011124E60FA4
:1020B000F11DEB51F74F282F277081E090E0A0E051
:1020C000B0E004C0880F991FAA1FBB1F2A95D2F742
:1020D0002081822B80830895E5EBF4E0119284E067
:1020E000EB3CF807D9F70895CF93DF931F92CDB754
:1020F000DEB789830E946C10A5EBB4E089812AE0E9
:10210000829FC001112420E030E0F901E80FF91F9F
:10211000E05CF94FE491ED932F5F3F4F2F30310595
:10212000A1F70F90DF91CF9108952F923F924F9298
:102130005F926F927F928F929F92AF92BF92CF9257
:10214000DF92EF92FF920F931F93CF93DF93CDB760
:10215000DEB72C970FB6F894DEBF0FBECDBF27E8D1
:1021600034E03A83298317E7C12E14E0D12E0FEB18
:10217000202E03E0302E07E914E031E03E8385E0B5
:10218000882E912CA12CB12CD8018C91811194C056
:102190000E94FE3520E830E040E050E00E94223608
:1021A000672B682B692B09F02DC48091BB01E0914E
:1021B000BC01B8E0EB9FF0011124E80FF11DE25DD6
:1021C000F64F80819091E60991111DC090E0019732
:1021D0006AE070E00E949F369C0162E070E00E941D
:1021E0009F36281B390B37FF02C02F5F3F4F3595B5
:1021F0002795C901019662E070E00E949F369C011C
:10220000220F331F02C020E030E0F901E951F64F00
:102210008081811102C02F5F3F4FF901EE51F64FCF
:10222000F080F901E652F64F6081062E000C770B24
:102230006F197109F7FC73956F5F7F4F072E000CC4
:10224000880B990B2A8739870E946D1AF60EE9814F
:10225000FA81F0822A853985F901E252F64FF08041
:10226000F901EA52F64F6081062E000C770B6F19C8
:102270007109F7FC73956F5F7F4F072E000C880B79
:10228000990B0E946D1A4F2D460FD6014C93E98190
:10229000FA81608128E0629FF0011124E40FF11DB2
:1022A000E153FC4F80818111ADC3802FA7E9B4E0D9
:1022B0008A1B0E94C422A6C3F1019081892F881F26
:1022C0008827881F8F5F92FF04C09091070990FDB7
:1022D00099C31D821C82282F30E038872F838C8180
:1022E0009D81AF81B8858A179B070CF08BC3D801FD
:1022F0008C9190EC980F903A08F443C18F7185311E
:10230000C9F58091BB01E091BC01B8E0EB9FF00101
:102310001124E80FF11DE25DF64F2081283009F409
:102320008BC0F6018081A981BA81EC91B8E0EB9F66
:10233000F0011124E80FF11DE25DF64F8081FAE013
:10234000FF2E6F2D0E948536392F822F0E948536F1
:10235000391372C0F101808183FF6EC00E94A624F0
:1023600082E10E947410F092A704D1018C91877FC2
:102370008C930BC1893109F05FC021E0F12C65E03D
:10238000822F2A870E9400262A8597FF02C081504B
:102390009F4F892F990F990BFC01EA56FB4F8081C3
:1023A0008F71893109F4F3942F5F253041F7FF20B5
:1023B00009F442C00E94FE3522E030E040E050E0E7
:1023C0000E942236672B682B692BB1F50E94FE35DF
:1023D0002AE030E040E050E00E9422368AE0860F9A
:1023E000482E512C612C712C809144019091450113
:1023F000A0914601B0914701481659066A067B062E
:102400000CF0C3C00E94A62483E10E947410809146
:10241000440190914501A0914601B0914701841972
:102420009509A609B7098093440190934501A093AB
:102430004601B0934701A9C0F8018081805E8032D7
:1024400010F42FEF01C021E0A981BA813C91A09145
:10245000BC01A31718F5422F022E000C550B832F39
:1024600090E0841B950BF601608173E0880F991F43
:102470007A95E1F7860F911DFC01E153FC4F6081D5
:1024800061110CC0FC01E25DF64F808181508A3100
:1024900028F422E030E0241B350B24C0F6014081F3
:1024A0005091BB01541708F5622F022E000C770BD8
:1024B000842F90E0861B970BF8E03F9F800D911DC5
:1024C0001124FC01E153FC4FE081E1110EC0FC013D
:1024D000E25DF64F808181508A3138F423E030E0AC
:1024E000261B370B3C872B8750C03A17F8F4A22FD6
:1024F000022E000CBB0BCD01830F911D63E0880FF2
:10250000991F6A95E1F7840F911DFC01E153FC4F7F
:10251000608161110BC0FC01E25DF64F808181504A
:102520008A3120F4BD016E5F7F4F2DC04517E8F45E
:10253000622F220F770BCB01840F911DA8E03A9FE9
:10254000800D911D1124FC01E153FC4F20812111CC
:102550000CC0FC01E25DF64F808181508A3128F485
:10256000FB013396FC87EB8710C00E94FE3524E008
:1025700030E040E050E00E9422369B012F5F3F4F49
:10258000B1CF65E070E07C876B87D1018C9185FFCE
:102590000DC00E94FE3523E030E040E050E00E9494
:1025A0002236672B682B692B09F458C22B853C8592
:1025B000215031092430310508F01DC2AB85BC859E
:1025C000A170BB278B859C8502978A9FA02D112423
:1025D000217033278B859C850397289F902D11248C
:1025E000E981FA818081682F70E0AB014A0F511DAB
:1025F000A7FD5A952091BC0130E04217530709F01E
:10260000B4C1F6012081E92F092E000CFF0BE20F67
:10261000F11D2091BB0130E0E217F30709F0A5C1DD
:102620002C813D81232B09F0E6C1D801EC91EF719B
:10263000EB83B7E0EB9FF00111249F01245D364F3F
:102640007901F901339664909091AA018091480133
:10265000890F880F681A0E94FE3524E630E040E0BA
:1026600050E00E942236562E61E084E00E945426FB
:10267000882389F090E00197FC01EB5DFD4FE0813C
:10268000EF70F0E0E05CF84FE491DC01AF50BE4F3A
:102690004C904E0E01C0412C561408F0ACC1F7010D
:1026A000329624913197649130E040E050E070E040
:1026B00080E090E00E94911A9B01AC01642D7DEFB7
:1026C0007603D0011124AC59BF4F0E944C3624E64A
:1026D00030E040E050E00E94223629013A015524C2
:1026E000662477248091440190914501A091460190
:1026F000B0914701481659066A067B064CF07B806C
:10270000739473947092FE0882E08093FD0873C105
:102710000E94A6248091440190914501A091460118
:10272000B091470184199509A609B709809344011E
:1027300090934501A0934601B0934701D1018C913C
:1027400083FF59C1EB818E2F90E0FC013597E23178
:10275000F10508F050C1E358FF4F0C94B3360E94C6
:10276000FE35A50194010E942236672B682B692B48
:1027700009F041C18DE00E9474100E94FE35A50150
:1027800094010E9422366C5F609300090E94FE351E
:1027900024E130E040E050E00E942236672B682BB5
:1027A000692B09F014C21092440110924501109255
:1027B00046011092470181E08093FE0808C2809193
:1027C0000101843008F057C185E00E94B2288823B7
:1027D00009F451C110C18091A6019091A701A09167
:1027E000A801B091A901C397A105B1050CF403C1DB
:1027F0000E94FE352AE030E040E050E00E942236A0
:10280000672B682B692B09F04AC1F5C061E084E0B1
:102810000E945426882309F4EEC0E82EF12CF1E042
:10282000EF1AF108F701E354FE4F808183FF5BC18B
:10283000E2C00E94FE3522E030E040E050E00E941D
:102840002236672B682B692B09F0D5C00E94FE3514
:1028500024E130E040E050E00E942236E62FF0E034
:10286000E354FE4F808184FDC6C08FE069870E94DB
:1028700074106985862F0E94771CD8018C91805432
:102880008C93A5C18091FF088111B5C081E10E94A0
:10289000741081E08093A5019AC18091480186302F
:1028A00008F4A9C00E94FE35A50194010E942236B9
:1028B000672B682B692B09F424C19DC00E94FE354B
:1028C0002AE030E040E050E00E942236643071059A
:1028D000810591050CF08FC085E10E9474100E9463
:1028E000FE3523E030E040E050E00E942236F62E34
:1028F00060FF2DC08091440190914501A091460157
:10290000B09147018A309105A105B1050CF45FC172
:102910000197A109B1098093440190934501A093C7
:102920004601B09347018091400190914101A091EF
:102930004201B09143010197A109B109809340017F
:1029400090934101A0934201B093430140C185E0BF
:102950000E94B22890910101882309F434C1963075
:1029600008F031C1F110C6CF32C1F80120812F71BA
:102970002F3009F440C045315105E8F5F601B0812A
:102980002B2F30E0F901E90FF11D97FDFA95E830A2
:10299000F10588F5440F551F440F551F440F551F6F
:1029A0004E0F5F1FFA01E153FC4FE081E11123C09C
:1029B000FA01E25DF64F408141504A31E0F443E0D4
:1029C000660F771F4A95E1F7620F731FFB01E15312
:1029D000FC4F1082A80FE981FA81A0839B0FF601BA
:1029E0009083F8E0AF9FD0011124A90FB11DA1532E
:1029F000BC4F2E812C936C817D816F5F7F4F7D83D7
:102A00006C836DCC0F5F1F4FE981FA813196FA8399
:102A1000E983FFEFCF1ADF0A2E812F5F2E833FEF6E
:102A2000231A330A213109F0AFCB2C960FB6F89454
:102A3000DEBF0FBECDBFDF91CF911F910F91FF90F1
:102A4000EF90DF90CF90BF90AF909F908F907F904E
:102A50006F905F904F903F902F9008950E94FE35A9
:102A600024E030E040E050E00E942236DB01119685
:102A7000BC87AB879BCD0E94FE35A50194010E94C7
:102A80002236672B682B692B09F0B5CF8EE00E94A8
:102A900074108091010181508093010198C08FE0F2
:102AA0000E9474104090A6015090A7016090A80168
:102AB0007090A9010E94FE3522E330E040E050E032
:102AC0000E942236461A570A680A790A4092A601DD
:102AD0005092A7016092A8017092A901F80180812B
:102AE0008054808374C089E00E94B228811183CF12
:102AF00080E10E947410F701EF50FE4F80818150F9
:102B0000F0CF84E10E9474106091490170914A01F4
:102B100080914B0190914C0122E030E040E050E088
:102B20000E9422362093490130934A0140934B0181
:102B300050934C01DA01C9010197A109B1098093B1
:102B4000030990930409A0930509B09306098091A5
:102B500048018150809348014090400150904101CC
:102B60006090420170904301F3E04F1A51086108F0
:102B700071080E94FE3527E030E040E050E00E94FE
:102B80002236461A570A680A790A40924001509242
:102B90004101609242017092430180914401909101
:102BA0004501A0914601B0914701481659066A06B1
:102BB0007B066CF4409244015092450160924601BC
:102BC0007092470104C0915090930101CBCE0E94B6
:102BD000A62411CFCF93DF93CDB7DEB72D970FB6D5
:102BE000F894DEBF0FBECDBF9DE0EAE6F1E0DE0166
:102BF000119601900D929A95E1F790E070E0FE0138
:102C0000E80FF91F411118C08081680F711D33E072
:102C1000660F771F3A95E1F768547D4FADEAB4E04F
:102C200080E090E0FB01E80FF91FE491ED9301963D
:102C300088309105B9F726C0258105973EE0389F79
:102C4000F001399FF00D11246E0F7F1FFB01ED5F26
:102C5000FE4F808190E0820F911D23E0880F991F25
:102C60002A95E1F788549D4FADEAB4E020E030E0CA
:102C7000FC01E20FF31FE491ED932F5F3F4F2830EB
:102C80003105B1F72D960FB6F894DEBF0FBECDBF5C
:102C9000DF91CF9108950F931F93CF93DF932091EE
:102CA000BC018091BB0190E048E0249F9001112479
:102CB000D901A80FB91F60E070E01997A901485029
:102CC00051099C012F5F3F4F98E06831710531F148
:102CD000FD01E60FF71FE25DF64FEA01C60FD71FB1
:102CE000C25DD64F8F010C1B1D0B201731079CF0C6
:102CF000808113EC180F163010F4885209C0843408
:102D000011F4908306C019EB180F163010F482539B
:102D100080833196E7CF685F7F4FD7CFDF91CF9128
:102D20001F910F910895CF92DF92EF92FF920F9330
:102D30001F93CF93DF936C017A018B01C0E0D0E049
:102D4000CE15DF0589F0D8016D918D01D601ED9189
:102D5000FC910190F081E02DC6010995892B11F4B9
:102D60007E0102C02196ECCFC701DF91CF911F9168
:102D70000F91FF90EF90DF90CF9008954F925F9268
:102D80007F928F929F92AF92BF92CF92DF92EF92FB
:102D9000FF920F931F93CF93DF9300D000D0CDB756
:102DA000DEB729011C2DA02EB12C9C012A0D3B1D44
:102DB000121613060CF0B3C1803891050CF0AFC1A8
:102DC000FB01EE0DF11D1E161F060CF0A8C16034AC
:102DD00071050CF0A4C14115510509F4A0C1E62FFD
:102DE000E770FE2EFB0177FD3796A3E0F595E7959A
:102DF000AA95E1F7AE2F77FF04C0FF2011F0AFEFE7
:102E0000AE0F97FF05C0EE27FF27E81BF90B02C0A6
:102E1000E0E0F0E02038310524F020E8722E781A46
:102E200001C0702E7E1A6A2F0A2E000C770BAF3F5E
:102E30001CF4D62ED09401C0D12C21E03E2D377049
:102E400009F420E0E694E694E694E20E6E0D711D1E
:102E5000693071051CF028E0E22EEA1AED183D2DCC
:102E60003A0FDC0120E83203A00DB11D1124AE0F92
:102E7000BF1FD09EE00DF11D11244E0F5F1F81E09A
:102E800090E04C010F2C02C0880C991C0A94E2F7C8
:102E9000133009F403C1A0F4113009F4B5C01230A5
:102EA00009F03DC18FEF889DB001899D700D1124FF
:102EB000609570957C836B835C802E2D230F2BC0D7
:102EC0001A3F31F01B3F09F02AC12E2D230F88C075
:102ED0002E2D230F51C0FA01E00FF11FE491E89D60
:102EE0006001E99DD00C1124DA82C98237FD07C048
:102EF000FC01E080EE2DE623CE2AFC01C082F11019
:102F000013C00F5F1F4F0196071528F33F5F4A0D4F
:102F10005B1DA058BF4F321709F401C1CD018B5181
:102F20009B4F00E010E0F0CF37305CF7FC01E05839
:102F3000FF4FD080D520CA80DC28D082E2CFFA01B2
:102F4000E60FF71FE491E89D8001E99D100D112423
:102F50001A83098337FD04C0FC011081012B008313
:102F6000F11013C06F5F7F4F0196671540F33F5F0D
:102F70004A0D5B1DA058BF4F321709F4D0C0CD01D8
:102F80008B519B4F60E070E0F0CF37305CF78C01E5
:102F900000581F4FF801E080EA81EE2AF801E08234
:102FA000E1CFFA01E00FF11FE491E89DC001E99D36
:102FB000900D11249A83898337FD05C08095FB010C
:102FC000908189238083F11014C00F5F1F4F6F5FC2
:102FD0007F4F071530F33F5F4A0D5B1DA058BF4F71
:102FE000321709F49CC0BD016B517B4F00E010E02B
:102FF000F0CF373054F7FB01E058FF4F8A818095BE
:10300000908189238083E1CFC2018E0F9F1F2E2DD7
:10301000230F321709F483C0BD016B517B4F6B0145
:1030200000E010E0071590F5FC01E00FF11FE491BE
:10303000E89DB001E99D700D1124609570957C8329
:103040006B83FA01E00FF11FE491E89D2001E99DF7
:10305000500C11245A82498237FD05C0F601708157
:103060006723462A4082FF2059F037304CF4F6019E
:10307000E058FF4F70816C8167237A81672B6083F2
:103080000F5F1F4FFFEFCF1ADF0ACCCF3F5F4A0D14
:103090005B1D8A0D9B1DA058BF4FBBCFC72CD12CE9
:1030A000E40FF51FAB51BB4F60E870E06C197D0970
:1030B000AC18BD088501000F111F572D2E2DCF9381
:1030C000DF93ED01EF96EF962296A590C590FF2035
:1030D00059F0A89C5001C89C600137302CF4E8805E
:1030E000D094ED20EB28E99233233AF0EC90C09491
:1030F000EC20EA28ED920C947E1811965A9529F747
:103100002A9551F0572D33951124E00FF11DA60F8C
:10311000B11DC60FD11DD9CFDF91CF9111240F90D2
:103120000F900F900F90DF91CF911F910F91FF9013
:10313000EF90DF90CF90BF90AF909F908F907F9057
:103140005F904F9008950895CF92DF92EF920F9382
:10315000CF93DF93FC0126816A3031F4858184832B
:103160006185260F268373C0EC01A48190EE960F33
:103170009F3508F067C061E0620F2781062E000CC2
:10318000770B0A2E000CBB0BE7E4F7E0213059F572
:103190000491E8E4F7E0E490992301F1E02FF0E0F6
:1031A0002E2D269526952695422F50E021E030E0E1
:1031B0008E2D877011F420E030E0240F351FE29F40
:1031C0006001E39FD00CF29FD00C11249C9DA001C4
:1031D0009D9D500D1124475B584F02C049E457E0B4
:1031E00092E0C92E2AC00491E8E4F7E0E490992324
:1031F00001F1E02FF0E02E2D269526952695422F01
:1032000050E021E030E08E2D877011F420E030E0B6
:10321000240F351FE29F6001E39FD00CF29FD00C7A
:1032200011249C9DA0019D9D500D1124475B584F7A
:1032300002C049E457E08BEFC82E20E030E0CD011A
:103240000E94BE1688858B5F9C81890F8C8381E0EC
:1032500090E0DF91CF910F91EF90DF90CF900895A4
:10326000089580E090E008950E94DC362091DB0410
:10327000282329F49091DA04982381E009F480E06E
:103280000895E5EEF4E080E0A0E0B8E000800EBC38
:103290008111012C1197A0FDFDCF0192B9F70DB45A
:1032A0000895009769F0FC0101900020E9F731973B
:1032B000AF01481B590BBC018BEC94E00C949316A6
:1032C00080E090E00895E091CB04F091CC0401906F
:1032D000F081E02D682F8BEC94E0099480E0E5EE1E
:1032E000F4E081118FEF0024819381938193819386
:1032F0000394D1F708958F929F92AF92BF920F934C
:103300001F93CF93DF93CDB7DEB7A1970FB6F89495
:10331000DEBF0FBECDBF19A2423008F44AE08E01D5
:103320000F5D1F4F842E912CA12CB12CA50194016F
:103330000E945436E62FB901CA0101501109EA3042
:1033400014F4E05D01C0E95CD801EC93232B242B3D
:10335000252B61F7C8010E945119A1960FB6F89468
:10336000DEBF0FBECDBFDF91CF911F910F91BF90F8
:10337000AF909F908F9008950F931F93CF93DF93FB
:103380008C01C0E0D0E0F801EC0FFD1F64916623D2
:1033900071F0E091CB04F091CC040190F081E02D2C
:1033A0008BEC94E00995892B11F02196ECCFCE019E
:1033B000DF91CF911F910F910895CF92DF92EF92FD
:1033C000FF92CF93DF9397FF19C06B017C018DE2D1
:1033D0000E946319EC0166277727CB016C197D09E0
:1033E0008E099F094AE00E947B198C0F9D1FDF9177
:1033F000CF91FF90EF90DF90CF9008954AE0DF915A
:10340000CF91FF90EF90DF90CF900C947B19CF92EB
:10341000DF92EF92FF920F931F93CF93DF93EB0115
:103420007C01E40EF11C8B01085F1F4F70E124E268
:10343000C22E29E0D22E8E159F053CF59E01D7FFA6
:103440001BC020E030E018C024173507E4F48038B2
:10345000910580F4A901F601749FD001A078112490
:10346000A80F4770E40FF11D6491AB51BB4F4C9115
:10347000642B6C932F5F3F4FA8010134110524F397
:1034800040E450E0E1CF0196D6CFDF91CF911F917C
:103490000F91FF90EF90DF90CF90089580E0482F3C
:1034A00050E0FA01EB54FB4F9081992349F08F5F74
:1034B000F6CF863178F4F901EB54FB4F90838F5FA0
:1034C000282F30E0F901E41BF50BE355FB4F908109
:1034D0009111EFCF1092CA040895CF93DF9300D0DB
:1034E00000D0CDB7DEB7611571058105910579F082
:1034F0009B01AC0169833A834B835C830E94FE3558
:1035000029813A814B815C810E94223603C060E0B0
:1035100070E0CB010F900F900F900F90DF91CF9143
:103520000895CF92DF92EF92FF920F931F9362174D
:1035300073078407950784F489019A016B017C0164
:10354000C901B8016C197D098E099F090E946D1A85
:103550006C0D7D1D8E1D9F1D1F910F91FF90EF9093
:10356000DF90CF9008953FB7F8948091E104909157
:10357000E204A091E304B091E40426B5A89B05C041
:103580002F3F19F00196A11DB11D3FBFBA2FA92FE2
:10359000982F8827820F911DA11DB11DBC01CD015F
:1035A00042E0660F771F881F991F4A95D1F708954B
:1035B0008F929F92AF92BF92CF92DF92EF92FF9243
:1035C0006B017C010E94B31A4B015C01C114D10450
:1035D000E104F104F1F00E94B31ADC01CB01881977
:1035E0009909AA09BB09883E9340A105B10570F36A
:1035F00021E0C21AD108E108F10888EE880E83E0C4
:10360000981EA11CB11CC114D104E104F10419F7E6
:10361000DDCFFF90EF90DF90CF90BF90AF909F9065
:103620008F9008951F920F920FB60F9211242F932F
:103630003F938F939F93AF93BF938091A9049091F1
:10364000AA04A091AB04B091AC043091E00423E053
:10365000230F2D3720F40196A11DB11D05C026E8CA
:10366000230F0296A11DB11D2093E0048093A904AD
:103670009093AA04A093AB04B093AC048091E104AE
:103680009091E204A091E304B091E4040196A11D9D
:10369000B11D8093E1049093E204A093E304B093FE
:1036A000E404BF91AF919F918F913F912F910F9023
:1036B0000FBE0F901F901895BC0180E090E00C9415
:1036C000D81A8FB18095807F669B88601C9B846030
:1036D00008950E946E198091A804811109C00E946A
:1036E0002E0F0E94E90E0E94221F0E94630E02C04C
:1036F0000E94E90E85E00E9474100E94AD220E9493
:1037000041190E9450239091A704992351F00E94DF
:10371000FE3524E030E040E050E00E94223681E0B7
:10372000860F0895EF92FF921F93CF93DF931F921E
:10373000CDB7DEB7182F8FEF860F69830E944C2418
:10374000E12FF0E0ED5FFE4FE2A58E2F90E0698162
:103750008930910508F064C0FC01E157FF4F70E02B
:103760000C94B33661507109FB01E956FB4F10828E
:10377000FB01E958FB4F8081FB01E957FB4FE081DA
:1037800098E0E99FF0011124E80FF11DE153FC4F8F
:10379000108246C0FB01E254FC4F808187FF02C0CB
:1037A0008F773DC084603BC0FB01E254FC4F8081B9
:1037B000806235C0FB01E254FC4F808180642FC0E1
:1037C000FB01EA56FB4F7F016081162F107E0E949D
:1037D000FE352AE130E040E050E00E942236610FE1
:1037E000F70160831DC0FB01E254FC4F808182FF22
:1037F00002C08B7F14C0806812C0FB01EA56FB4FE9
:1038000080818F7180580BC0FB01E255FC4F808195
:10381000869505C0FB01E254FC4F8081877F808341
:103820000F90DF91CF911F91FF90EF900895AF928D
:10383000BF92CF92EF92FF920F931F93CF93DF939C
:10384000142FC62FD0E0A82EB12CFE0198E0899F3E
:10385000E00DF11D1124E95FFC4F9081992339F0AF
:1038600040E00E945225F82E8823B9F102C045E0BD
:10387000F42E0E94F42A282F8F2DFF0C990B01970C
:1038800063E070E00E949F368A0D9B1D33E0880F35
:10389000991F3A95E1F781509D4FC80FD91F6C0FC2
:1038A0007D1FEB01219781E0820F8883822F90E0BA
:1038B000FC01E152FD4F1083FC01E954FD4F21E072
:1038C0002083FC01E157FD4F0083FC01E959FD4FC6
:1038D000E082FC01E15CFD4FC082DF91CF911F913E
:1038E0000F91FF90EF90CF90BF90AF90089590E030
:1038F000FC01EB5DFD4F1082FC01E55FFD4F108286
:10390000FC01EF50FE4F1082FC01E952FE4F108285
:10391000FC01E354FE4F108280910201815080939C
:1039200002010C94322A2FEF280F253018F49BEF58
:10393000980F23C02AEF280F2930A0F021EF280F7D
:10394000233090F0823191F02DEE280F223080F05C
:10395000853181F02AEE280F293070F08F3168F020
:1039600098E00BC091E009C093E007C094E005C067
:1039700095E003C096E001C097E0892F08954F922B
:103980005F926F927F928F929F92AF92BF92DF92DF
:10399000EF92FF920F931F93CF93DF9307E914E009
:1039A000C0E0D0E08AE0882E912CA12CB12C94E0CC
:1039B000E92EF12CF80180818054803208F04AC051
:1039C000FE01E957FB4F408150E08091BC019A0114
:1039D000281B310937FF03C0319521953109FE01BC
:1039E000E958FB4F808190E04091BB01BC01641B12
:1039F0007109AB0177FF03C0519541955109420F01
:103A0000531F4330510534F50E94FE352B013C0114
:103A100080E00E94B228D82EC301B201A501940112
:103A20000E9422362B013C012D2D30E0B9016F5F41
:103A30007F4FC7010E949F36CB01770FAA0BBB0BAC
:103A4000481659066A067B062CF4F80180818F71AE
:103A5000805E808321960F5F1F4FC031D10509F032
:103A6000A9CFDF91CF911F910F91FF90EF90DF9041
:103A7000BF90AF909F908F907F906F905F904F908E
:103A80000895CF92DF92EF92FF92CF938091070932
:103A900090910809A0910909B0910A090196A11D08
:103AA000B11D8093070990930809A0930909B09369
:103AB0000A09C0904901D0904A01E0904B01F09072
:103AC0004C018091030990910409A0910509B091DE
:103AD00006098C159D05AE05BF050CF44CC0C091C0
:103AE0004801C53108F047C086E00E947410CF5FDE
:103AF000C0934801CC0CDD1CEE1CFF1CC092490198
:103B0000D0924A01E0924B01F0924C010E94FE35A6
:103B100028E030E040E050E00E94223683E0860F4B
:103B200090E0A0E0B0E040914401509145016091E7
:103B3000460170914701480F591F6A1F7B1F409330
:103B400044015093450160934601709347014091B1
:103B50004001509141016091420170914301840FF5
:103B6000951FA61FB71F8093400190934101A0931A
:103B70004201B0934301C0904401D0904501E090D0
:103B80004601F09047018091400190914101A09140
:103B90004201B0914301C816D906EA06FB069CF51E
:103BA0002091480186E190E0821B910963E070E07A
:103BB0000E949F369B012F5F3F4F032E000C440B4A
:103BC000550B60910709709108098091090990913E
:103BD0000A090E942236672B682B692BA1F482E028
:103BE0000E94B2289FEFC91AD90AE90AF90AC80E39
:103BF000D11CE11CF11CC0924401D0924501E0921D
:103C00004601F09247018091A704882319F0815062
:103C10008093A7048091A804882319F08150809391
:103C2000A80480910209882319F081508093020929
:103C300080910109882319F08150809301098091B6
:103C40000009882319F08150809300098091FF08B2
:103C5000882319F081508093FF0881E00E94B228E8
:103C6000882369F00E94FE352CE030E040E050E00F
:103C70000E942236672B682B692B09F4A2C083E0CF
:103C80000E94B228C0903C01D0903D01E0903E01DE
:103C9000F0903F0191E0C91AD108E108F108C80E7F
:103CA000D11CE11CF11CC0923C01D0923D01E0927C
:103CB0003E01F0923F0161E087E00E945426882394
:103CC00021F08091070980FF7FC062E087E00E94B9
:103CD00054268823A1F0609107097091080980910A
:103CE000090990910A0922E030E040E050E00E948A
:103CF0002236613071058105910509F473C0809108
:103D00003C0190913D01A0913E01B0913F01CC97C3
:103D1000A105B105DCF060914001709141018091F5
:103D200042019091430124E030E040E050E00E94E5
:103D300022368091440190914501A0914601B091B5
:103D40004701281739074A075B076CF083E884BDF1
:103D50008FEF87BD81EF809380001092880082E30F
:103D600080938A000BC083E884BD8FEF87BD81EF0D
:103D7000809380001092880010928A0080913C010C
:103D800090913D01A0913E01B0913F011816190696
:103D90001A061B062CF01092FE0882E08093FD08A4
:103DA000E12CF12C8AE00E94B22890E0880F991F44
:103DB000E816F9065CF50E944B168FEFE81AF80A30
:103DC000F1CF0E94332B5BCF91E0C91AD108E108F3
:103DD000F108C0923C01D0923D01E0923E01F09288
:103DE0003F0173CF80913C0190913D01A0913E0134
:103DF000B0913F010197A109B10980933C019093D3
:103E00003D01A0933E01B0933F0179CFCF91FF9048
:103E1000EF90DF90CF90089590E0FC01E152FD4FCC
:103E20001082FC01E954FD4F1082FC01E157FD4F67
:103E30001082FC01E959FD4F1082FC01E15CFD4F4D
:103E4000108208954F925F926F927F929F92AF92ED
:103E5000BF92CF92DF92EF92FF920F931F93CF9377
:103E6000DF9387E0C82E83E0D82E00E010E098E0D2
:103E7000492E512C612C712CE02EE694E694E694A8
:103E8000E8E0EE9E70011124C0E0D0E0F02FF77062
:103E90009F2EFE01EE0DFF1DEB51F74F808190E04C
:103EA000092C02C0959587950A94E2F780FF23C0FC
:103EB0005601AC0EBD1ED5018C918823E1F0BE01E8
:103EC000C8010E94540ED501EC91F0E0E252FD4F82
:103ED000E081809102098823A9F10E94FE35A301A7
:103EE00092010E9422366F5FE62FF0E0E651F64F16
:103EF00084910E9463192196C830D10551F60F5F55
:103F00001F4FB8E0CB0ED11C0531110509F0B4CF1D
:103F10006091BB0170E08091BC0190E00E94540E62
:103F200080E4DF91CF911F910F91FF90EF90DF9090
:103F3000CF90BF90AF909F907F906F905F904F9089
:103F40000C9463196E2F62956F70CECF6F927F9233
:103F50008F929F92AF92BF92CF92DF92EF92FF9299
:103F60000F931F93CF93DF931F92CDB7DEB728E057
:103F7000829FC0011124860F911D8C01095F1C4F87
:103F8000F8018081811193C149830E94F42A91E054
:103F9000980FF8019083082F10E0C80189549D4FB5
:103FA0007C0181E0F7018083C80181579D4F6C013E
:103FB000FC011082C80189599D4F5C01FC011082EF
:103FC000C801815C9D4F3C01FC0110824981411177
:103FD0001CC00E94FE3524E630E040E050E00E9424
:103FE000223640E0262F30E0842F90E0FC01EE5195
:103FF000F64FE4914F5F6E17B8F3FC01ED51F64FA9
:10400000E491F0E02E173F077CF750E0FA0131977A
:10401000E830F10508F04BC1E856FF4F01521D4F43
:104020000C94B33680E1F80180830E94FE3524E6CB
:1040300030E040E050E00E94223680914D01680F50
:10404000F70134C10E94FE3525E030E040E050E049
:104050000E942236672B682B692B11F481E201C084
:1040600080E2F80180830E94FE3522E030E040E0EB
:1040700050E00E9422366F5FF7016083F301808178
:104080008068FAC00E94FE3528E030E040E050E051
:104090000E94223680E3860FF8018083643018F492
:1040A00081E0F7010EC00E94FE352DE030E040E0D7
:1040B00050E00E9422366D5FF7016083F30180813A
:1040C000806880830E94FE3526E030E040E050E0CA
:1040D0000E94223661111AC00E94FE3523E030E0B2
:1040E00040E050E00E94223611E0160F612F70E090
:1040F0006F5F7F4F072E000C880B990B0E946D1A83
:10410000F6016083161BF5011083D1C0613009F000
:10411000CEC00E94FE3523E030E040E050E00E9437
:10412000223611E0160F612F70E06F5F7F4F072E70
:10413000000C880B990B0E946D1A862F8195F60151
:104140008083611BF50187C00E94FE3527E030E0C7
:1041500040E050E00E942236B62E605CF801608399
:1041600081E0F70180830E94FE3526E030E040E0E8
:1041700050E00E94223661110CC00E94FE3523E0FF
:1041800030E040E050E00E9422366F5FF60160832D
:1041900011C0613079F40E94FE3523E030E040E048
:1041A00050E00E9422366095F6016083F301808121
:1041B00080648083B1107BC0F301808188605CC023
:1041C00080E00E94002B805B04C081E00E94002BF5
:1041D000805AF801808381E0F70180834FCF0E94ED
:1041E000FE352BE030E040E050E00E94223680E7D0
:1041F000860FF801808381E0F7018083E62FF0E0ED
:10420000ED5FFE4F848D843049F018F4813089F1E0
:104210004EC0863019F0873001F149C00E94FE354A
:1042200022E0822E912CA12CB12CA50194010E9498
:104230002236611108C00E94FE35A50194010E943A
:1042400022366F5F32C00E94FE35A50194010E94A4
:1042500022366095F60160830CC00E94FE3522E094
:1042600030E040E050E00E942236672B682B692B3B
:10427000F1F4F30180818064808319C00E94FE35CF
:104280002AE030E040E050E00E9422366058F80119
:10429000608381E0F70180830E94FE3524E030E0F6
:1042A00040E050E00E9422366D5FF60160830F907F
:1042B000DF91CF911F910F91FF90EF90DF90CF9002
:1042C000BF90AF909F908F907F906F9008953F9296
:1042D0004F925F926F927F928F929F92AF92BF9216
:1042E000CF92DF92EF92FF920F931F93CF93DF93C2
:1042F00087EEE82E89E0F82E6701C0E0D0E0F601F5
:1043000081916F01813029F02196C430D105B9F730
:104310004CC000E010E0CE018652964F2C01FE0109
:10432000EE51F64F3F01CE018A52964F5C01FE01DD
:10433000E252F64F4F018091E609F7E08F9FC001EE
:104340001124029680179107FCF2F2012081022EBF
:10435000000C330B2F5F3F4F032E000C440B550B0B
:10436000F3016081062E000C770B880B990B0E94DD
:10437000911A362EF5012081022E000C330B2F5F8F
:104380003F4F032E000C440B550BF4016081062EA9
:10439000000C770B880B990B0E94911A40E0832D3B
:1043A0000E94A61F0F5F1F4FC6CF80914D0163E093
:1043B0000E948536992341F090914D0180913B01F7
:1043C000981708F042C0B7C0C0E0D0E0F701819173
:1043D0007F018130A9F5FE01E652F64F2081022EC1
:1043E000000C330B2F5F3F4F032E000C440B550B7B
:1043F000FE01EE51F64F6081062E000C770B880B04
:10440000990B0E94911A162FFE01EA52F64F208155
:10441000022E000C330B2F5F3F4F032E000C440B7A
:10442000550BFE01E252F64F6081062E000C770B11
:10443000880B990B0E94911A42E0812F0E94A61FBF
:104440002196C430D10511F6B7CFE0910201F0E01A
:10445000EC5DFD4F8081803909F46DC08091E609E3
:1044600081110AC00E94FE3522E030E040E050E0B9
:104470000E942236660F01C060E0E62FF0E0E951AD
:10448000F64F8081811101C06F5FC62FD0E0FE0121
:10449000EE51F64F1081FE01E652F64F6081062E76
:1044A000000C770B611B710917FD73956F5F7F4FD0
:1044B000072E000C880B990B0E946D1A160FFE0137
:1044C000E252F64F0081CA52D64F6881062E000C88
:1044D000770B601B710907FD73956F5F7F4F072E88
:1044E000000C880B990B0E946D1AC02FC60F0E94FA
:1044F000F42A28E0129FF0011124EC0FF11DE95F6E
:10450000FC4F91E0980F908390E0FC01E152FD4F49
:1045100020E92083FC01E954FD4F21E02083FC01C8
:10452000E157FD4F1082FC01E959FD4F1082FC015B
:10453000E15CFD4F1082DF91CF911F910F91FF90B1
:10454000EF90DF90CF90BF90AF909F908F907F9033
:104550006F905F904F903F9008958091BB018430A1
:1045600038F081E08093D0048093CF048FEF06C0B1
:1045700081E08093D0048093CF0487E38093D104BB
:1045800085EB94E00C945119BF92CF92DF92EF9299
:10459000FF920F931F93CF93DF93182FF62EE42EE5
:1045A00060914D0123E0260F665066310CF065E105
:1045B00067FD60E02B310CF029E1022E000C330B7B
:1045C000440B550B062E000C770B880B990B0E94A1
:1045D000911AB62E27E0629FC0011124FC01E45D10
:1045E000F64F6F01EF012696FE0194919F70933074
:1045F00069F028F49130B1F0923019F125C095306E
:1046000099F008F1963001F503E01EC00E94FE35D6
:1046100025E030E040E050E00E942236672B682B16
:10462000692B79F001E010C00E94FE3525E030E0F2
:1046300040E050E00E942236672B682B692B19F06E
:10464000F1CF02E001C004E0812F90E0FC01E956C7
:10465000FB4F20E2029FB00C1124B082F601C490FF
:10466000FC01E155FC4FC082FE01C491FC01E15404
:10467000FC4FC07FC860C08328E0F29EF001112487
:10468000EE0DF11DE153FC4F1F5F1083DF91CF91C1
:104690001F910F91FF90EF90DF90CF90BF90089502
:1046A000CF938091DA048093DB040E94611B809396
:1046B000DA0480E20E943619C82F80E80E94361979
:1046C0008111C2E080E40E9436198111C3E080E1CB
:1046D0000E9436198111C4E088E00E9436198111C8
:1046E000C5E084E00E943619811103C0CC23C9F2D1
:1046F00001C0C6E00E946C108C2FCF9108954F929C
:104700005F926F927F928F929F92AF92BF92CF9261
:10471000DF92EF92FF920F931F93CF93DF931F923D
:10472000CDB7DEB780914D01811103C08FEF80932B
:104730004D018091A6019091A701A091A801B0918F
:10474000A90140910B0950910C0960910D097091DC
:104750000E09481759076A077B070CF08AC0209199
:104760004D0180930B0990930C09A0930D09B09310
:104770000E0920930F098BE0E82E89E0F82E6701DF
:1047800020E030E045E02F5F3F4F86010B5F1F4F79
:10479000C801B9016530710551F1F60140805180C1
:1047A00062807380FC0180809180A280B380841439
:1047B0009504A604B704BCF4F601A5E2B9E0542FB1
:1047C00001900D925A95E1F7FC01D601542F01900A
:1047D0000D925A95E1F7E5E2F9E0DC01542F0190E2
:1047E0000D925A95E1F76F5F7F4F0596D3CF680121
:1047F0002530310541F609E610E05801F5E0AF1A21
:10480000B108C8018E55974F6C01F60161916F0197
:10481000C50169830E940C366981681719F0C501CA
:104820000E941436FFEFAF1ABF0AA016B10669F74F
:1048300085010B5F1F4F02381105F9F64091A60163
:104840005091A7016091A8017091A90195E080E0C5
:10485000F701008111812281338104171507260792
:10486000370709F4892FF5E0EF0EF11C915081F71D
:1048700001C080E00F90DF91CF911F910F91FF90C9
:10488000EF90DF90CF90BF90AF909F908F907F90F0
:104890006F905F904F900895EF92FF920F931F9348
:1048A000CF93DF93C82F8091A804811106C00E9486
:1048B0002E0F0E94221F0E94630ED0E0CE01895865
:1048C0009B4F7C01FC0160818E0109571B4FF80151
:1048D0008081F8E06F9FB001112446E026E0829FBE
:1048E000C00111240E94071A1092D204F7016081BE
:1048F00070E0F801808190E00E94540E8091A8043D
:1049000081110FC0FE01E154FC4F808186FD09C07A
:10491000C956DB4FE881EF71F0E0EA5DF84F849112
:1049200001C080E20E9463190E94411964E670E0B0
:1049300080E090E00E94D81A81E08093D204DF9159
:10494000CF911F910F91FF90EF9008958091A8044F
:10495000811106C00E942E0F0E94221F0E94630E2A
:104960006091BB018091BC0128E0629FB0011124DD
:1049700046E026E0829FC00111240E94071A10928F
:10498000D2046091BB0170E08091BC0190E00E9474
:10499000540E80E40E9463190E94411964E670E09D
:1049A00080E090E00E94D81A81E08093D2040895BC
:1049B0008F929F92AF92BF92FF920F931F93CF93CC
:1049C000DF93E82FF0E0DF01A155BC4F9C91E95641
:1049D000FB4F491708F454C088E0289FD0011124E8
:1049E000A00FB11DA153BC4F1C92108287E0689F9D
:1049F000E0011124C45DD64FFE013496E49180910C
:104A0000030990910409A0910509B09106098E0F40
:104A1000911DA11DB11D8093030990930409A093DA
:104A20000509B09306096F3011F41092A501122FF9
:104A3000F62E0E94FE35FE013596C49124E630E044
:104A400040E050E00E9422368C2E912CA12CB12CFB
:104A5000681579058A059B05DCF489E0F81202C027
:104A600041E001C040E0602F812FDF91CF911F9185
:104A70000F91FF90BF90AF909F908F900C94A61FC6
:104A8000941B9C938081803418F08F71805E8083AA
:104A9000DF91CF911F910F91FF90BF90AF909F90AA
:104AA0008F9008953F924F925F926F927F928F9274
:104AB0009F92AF92BF92CF92DF92EF92FF920F93AD
:104AC0001F93CF93DF9300D000D0CDB7DEB7682E11
:104AD000862ED42E0E94FE3528E030E040E050E0E3
:104AE0000E9422369091BC012091BB0130E088E009
:104AF000989FA00111245C834B83FA01E20FF31FFE
:104B0000E153FC4F8FEF808300E010E0462E512CE4
:104B100099E0A92EB12C712C43E0342E912CC801C0
:104B2000840D951DB5010E949F36C82E632D0E94ED
:104B300091369150D301A90FB11D97FDBA958150BF
:104B4000F401E80FF11D87FDFA95FA83E98383E00C
:104B5000AA0FBB1F8A95E1F7CF018A0F9B1FAC01FB
:104B6000425D564FFA0140814150443220F5895F41
:104B70009C4FFC01E080F12C41E050E0DD2011F081
:104B800040E050E0E49EB001E59E700DF49E700D93
:104B90001124672B81F449815A81A40FB51FFD01AF
:104BA000E153FC4F80818D9DC0011124892B19F4A4
:104BB00081E08C0D07C00F5F1F4F0930110509F010
:104BC000AECF80E0EB81FC812E0F3F1F21533C4F85
:104BD000F90110820F900F900F900F90DF91CF91FD
:104BE0001F910F91FF90EF90DF90CF90BF90AF900B
:104BF0009F908F907F906F905F904F903F9008951F
:104C00001F93CF93DF93162FE82FF0E09F012250E0
:104C100031098170829F202D1124CF01019762E01C
:104C200070E00E949F3633978E9F902D1124309113
:104C3000BC017091BB0160E0A22F022E000CBB0BE7
:104C4000C92F092E000CDD0BAD01430F511DE3E010
:104C5000440F551FEA95E1F7FE01E70FF11D4E0FD6
:104C60005F1FFA01E153FC4F8081882319F0320F56
:104C7000790F0CC0FA01E25DF64F40814150483295
:104C800028F4320F790F6F5F6113DECF90E0982F19
:104C9000882725E1729F800D911D1124830F911D9E
:104CA000DF91CF911F910895482FE5E2F2E021E0D6
:104CB00030E080E0919192959F70941309C0D901E2
:104CC000A454BE4F9C9194FF03C0615009F4822FFD
:104CD0002F5F3F4F2531310569F708958F929F92DD
:104CE000AF92BF92CF92DF92EF92FF920F931F93FA
:104CF000CF93DF939091A704992351F00E94FE3542
:104D000024E030E040E050E00E94223681E0860F4F
:104D100090910009911114C0082F10E0E80122972A
:104D200081708C9FC02D1124C801019762E070E052
:104D30000E949F3603501109809FE02C112402C06D
:104D4000E12CC0E0109224098091BC014C2F0C2E64
:104D5000000C550B480F511D0091BB016E2D0E2C00
:104D6000000C770B600F711D9A01B3E0220F331F07
:104D7000BA95E1F7260F371FF901E153FC4FD081B7
:104D8000D11130C16830710508F0C5C145315105F8
:104D900008F0C1C1F901E25DF64F90819150963261
:104DA00008F0B9C19091A501911106C0C80FC09338
:104DB000BC010E0D0093BB010E946C108091FF0896
:104DC0008111A9C10091BC01C091BB01D0E038E0C4
:104DD000039F80011124F801EC0FFD1FE95FFC4FD8
:104DE000E081E11103C00E946C1095C1F0E0E25235
:104DF000FD4F6081862F82958F706F70893028F407
:104E0000853030F48130B8F015C0893099F013C086
:104E1000E82FF0E0EE0FFF1FE557FE4F20813181B4
:104E2000062E02C0369527950A94E2F7922F9170CC
:104E3000F92E01C0F12C4F2D0E94EA150E944E1A46
:104E4000C8018C0F9D1FDC01A95FBC4F7D018C91B7
:104E5000282F30E021503109F901E152FD4F9081B6
:104E6000F9019031E9F4E954FD4F90814091A60198
:104E70005091A7016091A8017091A901490F511D9E
:104E8000611D711D4093A6015093A7016093A80175
:104E90007093A90181500E940C1FF70110823BC141
:104EA000E15CFD4F808187FD09C0209102012A311C
:104EB00009F05AC082E00E9474102DC165E2862E6E
:104EC00062E0962E7BE0A72E72E0B72EC12CD12C8B
:104ED00040E08091020190E0C816D9060CF041C074
:104EE000D4012D914D01F7018081E82FF0E0319739
:104EF000DF01A152BD4F9C9129132CC0D601AF50A8
:104F0000BE4F2C91DF01A157BD4F9C91291322C0A8
:104F1000D601A952BE4F2C91DF01A959BD4F9C91DA
:104F2000291318C0D601A354BE4F9C91DF01A15C88
:104F3000BD4F2C91292726FD0DC0E954FD4FD50109
:104F40002C919081920F9C9381500E940C1FF7012D
:104F5000108241E0FFEFCF1ADF0A2FEFA21AB20A48
:104F6000B8CF4111D8C0A1CF30E0C00FD11FC95F69
:104F7000DC4F8881482F50E041505109F901EB5D29
:104F8000FD4FDA01A152BD4F9C919083F901E55F7D
:104F9000FD4FDA01A954BD4F9C919083F901EF5068
:104FA000FE4FDA01A157BD4F9C919083F901E95260
:104FB000FE4FDA01A959BD4F9C919083F901E3544A
:104FC000FE4FDA01A15CBD4F9C91908381500E94FD
:104FD0000C1F1882809102018F5F809302010E9452
:104FE000322A99C0ED2FF0E0EA56FB4F10810E9463
:104FF0006C100E94FE3524E630E040E050E00E9454
:105000002236062F61E083E00E945426882309F1AE
:1050100090E00197FC01EB5DFD4F20812F7030E0A7
:10502000F901EE0FFF1FEF59FD4FE491DC01AF5086
:10503000BE4F6C91DE2ED60EF901EE0FFF1FED591B
:10504000FD4FE491DC01A952BE4F9C91FE2EF90E5A
:1050500002C0F12CD12C80914801880F885D9D2DD4
:10506000990F9D0D890F081708F055C0D1508D2F4D
:105070000E944C24DF9CF00111249F01FF0F440B80
:10508000550B6D2D70E080E090E00E94911A4B016D
:105090005C0190919D0180910101890F0E94931CF8
:1050A000282F0091BB010E0D8091BC01C80F880C08
:1050B000991CAA1CBB1C30E0C901880F991F092E3E
:1050C000000CAA0BBB0B880D991DAA1DBB1D40919E
:1050D000AA01042E000C550B660B770B840F951F4D
:1050E000A61FB71F20914801820F911DA11DB11D60
:1050F000BC01CD016F5F7F4F8F4F9F4F22E030E0AB
:1051000040E050E00E942236422F612F6F712C2F19
:105110008D2F0E94D8240E94BF1C0E94411D8091A7
:105120000109882321F08091070980FD0EC0DF91DD
:10513000CF911F910F91FF90EF90DF90CF90BF9094
:10514000AF909F908F900C949510DF91CF911F910D
:105150000F91FF90EF90DF90CF90BF90AF909F9016
:105160008F9008951F93CF93DF93182F90E0C0E0A6
:10517000D1E0D90F6D2F87E00E945426882369F073
:10518000E82FF0E0EC5DFD4FE081EF70F0E0ED5FC7
:10519000FE4F848D811301C0CF5F91E0D23041F783
:1051A0008C2FDF91CF911F91089590E0FC01EB5D72
:1051B000FD4FE081EF70F0E0ED5FFE4F248D243075
:1051C00019F0263069F00895FC01EF50FE4F9081F0
:1051D00080919D01699F800D112480939D01089508
:1051E000FC01EF50FE4F90818091AA01699F800DD4
:1051F00011248093AA0108952F923F924F925F92BB
:105200006F927F928F929F92AF92BF92CF92DF92D6
:10521000EF92FF920F931F93CF93DF9300D000D0B4
:1052200000D0CDB7DEB78D8390E09C012E51364F74
:105230003A832983D9010C91002E000C110B0150E7
:105240001109FC01E652F64F5F019C012252364FD4
:105250001901DC01AA52B64FBC83AB83BD81B75D97
:10526000BE83E5E19E2EED819E0EF2E04F2E512C85
:10527000612C712CA8E28A2ED5018C91082E000C8D
:10528000990B0196801791070CF448C0D1018C91BD
:10529000780173E0EE0CFF1C7A95E1F7F701E80F57
:1052A000F11D87FDFA959F01235D364F6901D901F4
:1052B0008C91883069F40E94FE35A30192010E940E
:1052C0002236892D869E800D1124F601808303C02D
:1052D000EE81D901EC93AB81BC818C91F701E80F91
:1052E000F11D87FDFA959F01215D364F7901D901A6
:1052F0008C91883069F40E94FE35A30192010E94CE
:105300002236892D869E800D1124F701808303C0EB
:10531000EE81D901EC930F5F1F4FAECFF1010081F9
:10532000002E000C110B9D80F3E39F0E45E1D42E5F
:105330002D81D20E52E0452E512C612C712C62E34E
:10534000C62EEB81FC812081822F022E000C990B4E
:10535000801791070CF43EC0A981BA818C91F801A5
:1053600028E08202E00DF11D1124DF01AA5DB64F95
:105370007D018C91883069F40E94FE35A301920171
:105380000E9422368D2DC69E800D1124F701808348
:1053900001C09C92F5018081980148E08402200DB3
:1053A000311D1124D901AA5CB64F7D018C91883042
:1053B00069F40E94FE35A30192010E9422368D2DD0
:1053C000C69E800D1124F701808301C09C920F5F5F
:1053D0001F4FB7CFDD80D394D5016C91F101A0812F
:1053E000E981FA81808190E08C0133E0000F111F88
:1053F0003A95E1F7E0E0F0E070E08A2E912C622E21
:10540000712C68177907ACF0A4017F01E00EF11E42
:10541000641675065CF05A01AE0CBF1C9501225D46
:10542000364FD901DC924F5F5F4FF2CF019638962D
:10543000E8CF26960FB6F894DEBF0FBECDBFDF9142
:10544000CF911F910F91FF90EF90DF90CF90BF9081
:10545000AF909F908F907F906F905F904F903F9014
:105460002F9008952F923F924F925F926F927F926A
:105470008F929F92AF92BF92CF92DF92EF92FF9264
:105480000F931F93CF93DF93CDB7DEB729970FB656
:10549000F894DEBF0FBECDBFE5E2F2E0DF01912C54
:1054A0008FEF9C91911102C08C939394119622E0FE
:1054B000AF33B207B1F76BE072E041EF51E027ED97
:1054C00031E03F832E838DEB91E09987888705E259
:1054D00012E01D821C828C819D8101969D838C83AC
:1054E0008A31910509F446C0D8018C909C012B5D4E
:1054F0003D4F6901D901FC90F814D0F5DB014C90C7
:10550000DA015C90AE81BF816C90A885B9857C90F2
:10551000D801FC929C01255F3D4F5901D901FC90B7
:10552000DB01FC929C012F503E4F3A832983D90125
:10553000FC90DA01FC929C0129523E4F1901D901DD
:10554000FC90AE81BF81FC929C0123543E4F7901B7
:10555000D9013C91A885B9853C93D6018C92D5019F
:105560004C92A981BA815C92D1016C92D7017C9254
:105570000196B6CF0F5F1F4F6F5F7F4F4F5F5F4F3B
:10558000AE81BF811196BF83AE83288539852F5F99
:105590003F4F398728878C819D814A9709F09BCF9F
:1055A00080818F3F09F41082319692E0EF33F90742
:1055B000B9F784E1891929960FB6F894DEBF0FBEBA
:1055C000CDBFDF91CF911F910F91FF90EF90DF90B2
:1055D000CF90BF90AF909F908F907F906F905F9093
:1055E0004F903F902F90089580E0E82FF0E0E15237
:1055F000FD4F9081992319F08F5F8832B1F708959C
:10560000CF93DF93C82F0E94FE3524E630E040E0C0
:1056100050E00E94223680E09FE0C99FA001112443
:105620004C50564F9EE0C99FD0011124C62FD0E0A8
:10563000FD01E80FF11DED5FFE4F208130E0FA0122
:10564000E20FF31FE4916E1748F0F9013196E40F71
:10565000F51FE491F0E0CE17DF0714F08F5FE8CF7D
:10566000DF91CF9108951F93CF93DF938091E60947
:10567000811106C062E070E080E090E00E946D1A47
:10568000C1E0D0E08091E709882311F0C0E0D0E0CC
:10569000FE01EE51F64F1081FE01E652F64F608199
:1056A000062E000C770B611B710917FD73956F5F58
:1056B0007F4F072E000C880B990B0E946D1A610F0B
:1056C0006093BC01FE01E252F64F1081CA52D64FE0
:1056D0006881062E000C770B611B710917FD73950D
:1056E0006F5F7F4F072E000C880B990B0E946D1A7D
:1056F000610F6093BB01E091BC0188E0E89FF0017D
:105700001124E60FF11DE153FC4FA081AA2329F0DB
:10571000B0E0AA56BB4F1C921082DF91CF911F912F
:1057200008952F923F924F925F926F927F928F9245
:105730009F92AF92BF92CF92DF92EF92FF920F9320
:105740001F93CF93DF93CDB7DEB76A970FB6F89468
:10575000DEBF0FBECDBF1D8A1E8A1F8A188E198A12
:105760001A8A1B8A1C8A1D861E861F86188A19861D
:105770001A861B861C8688E0E9E8F1E0DE011196B6
:1057800001900D928A95E1F71092E7091092E809CD
:105790001092E9091092EA0980914D01853068F074
:1057A0000E94FE3524E130E040E050E00E942236C5
:1057B000672B682B692B09F4A3C21092E6090E949B
:1057C000FE3527E030E040E050E00E9422368B01B9
:1057D000095F1F4F0E94FE3522E030E040E050E0BC
:1057E0000E9422366D5F7F4F8FEF800F8D87698714
:1057F0006230710519F091E09093E70991E0960FFE
:105800009A8B8E8787E08A876430710519F081E072
:105810008093E8096330710531F41A821982CC242F
:10582000C394D12C02C0C12CD12C0E94FE3522E0A1
:1058300030E040E050E00E9422366D5F7F4F81E013
:10584000800F8F8B94E19F876B876230710519F011
:1058500091E09093E909888F81E0860F8C8B84E139
:10586000888B87E08C876430710519F081E0809324
:10587000EA096330710529F418861F8242E0C40EDC
:10588000D11C77EE272E79E0372E4101E12CF12C47
:10589000E3E04E2E512C612C712CF40181914F01CB
:1058A000813009F04AC0E5E1F0E0EC0FFD1FEE0D9C
:1058B000FF1D20812A8F0E94FE35A7014E51564FB1
:1058C0005A012A8D2F5F298FA30192010E9422364F
:1058D000598D650FF5016083F701E252F64FA1E1A2
:1058E000B0E0AC0FBD1FAE0DBF1D8C918F5F8083EC
:1058F000EDE0F0E0EC0FFD1FEE0DFF1D20812A8F83
:105900000E94FE35A7014652564F5A012A8D21505A
:10591000298FA30192010E942236898D861BF501F1
:105920008083F701EA52F64FA9E0B0E0AC0FBD1F4B
:10593000AE0DBF1D8C9181508083FFEFEF1AFF0ADF
:1059400044E0E416F10409F0A8CFC114D10469F4CD
:105950000E94FE3522E030E040E050E00E94223616
:10596000672B682B692B09F4DEC184E190E0801B72
:10597000910B95958795902E980E21E0290DC801E1
:1059800095958795882E7C0143E0EE0CFF1C4A9587
:10599000E1F7F701EC5CF64F3F01DF01AC0130E0CD
:1059A00068E0B62E24173507D4F0BD0165507109A3
:1059B000FB01B0826F5F7F4FFB01B0826F5F7F4F53
:1059C000FB01B0826F5F7F4FFB01B0826F5F7F4F43
:1059D000FB01B082BC924F5F5F4F1896E3CF4981C5
:1059E0005A81452BE9F4BC0140E050E0A92CB12CD0
:1059F000A616B706ACF0DA01AE0DBF1DA25DB64F1C
:105A000012961C92129713961C92139714961C923E
:105A1000149715961C926F5F7F4F485F5F4FE8CFDA
:105A20004B815C81452B41F541E0480D50E05A0126
:105A3000A3E0AA0CBB1CAA95E1F760E070E0E92C9A
:105A4000F12CE416F506C4F0DB01AA0DBB1DA25D26
:105A5000B64F11961C92119712961C92129713969C
:105A60001C92139714961C92149715961C924F5FD4
:105A70005F4F685F7F4FE5CF4D815E81452BB1F46D
:105A80004FEF490D50E04817590784F0D3011497A0
:105A90001C9211961C9211961C9211961C92F30165
:105AA00010820196F8E06F0E711CEDCF8F81988502
:105AB0008394892BD1F4882D90E0BC01F3E0660F2C
:105AC000771FFA95E1F740E050E0281739076CF0AE
:105AD000FA01E60FF71FE25DF64F1282138214827D
