:100000000C943A050C9462050C9462050C946205FC
:100010000C9462050C9462050C9462050C946205C4
:100020000C9462050C9462050C9462050C946205B4
:100030000C9462050C9462050C9462050C946205A4
:100040000C9462050C9462050C9462050C94620594
:100050000C9462050C9462050C9462050C94D526F0
:100060000C9462050C9462050C9462050C94620574
:100070000C9462050C9462050C9462050C94620564
:100080000C9462050C9462050C9462050C94620554
:100090000C9462050C9462050C9462050C94620544
:1000A0000C9462050C9462050C946205AB07B807CA
:1000B000BD07ED071F083208430847084B084F08E3
:1000C0006B086F0875087908C708DC080809370944
:1000D0004F0986098909FE09BF089709CD09DB097F
:1000E0002B0CD20A2B0C2B0C310C2B0C370CD20AFC
:1000F000D20AD20A3E0CD20A440CAC19D619F31A11
:10010000F31AE219F31AF31AFD19071AF31A311A3E
:10011000F31A3C1AF31AF31AF31AF31A4D1A041DC0
:100120001C1D261D2C1D321D431D4D1D541D641DFF
:10013000E127F8272D28A328EA28F72809296D297F
:10014000D5F08D14A1C881CFD9F1AF2000425D2038
:10015000536176657E7175697400415D20476F203B
:100160004E657874004E65787420666C6F6F7220EF
:100170000057696E202C002D20292048616C6C20CE
:100180004F662046616D65202920202D005448458A
:1001900020414D554C4554204F462059454E444F23
:1001A000522000594F55204D414445204954204F7D
:1001B000555420574954482000202C20434F4E4787
:1001C000524154554C4154494F4E202C202000247C
:1001D000006279004B696C6C65640068656C6C66E4
:1001E000697265006C75636B006C61636B206F6690
:1001F0000046726F7A656E00537461727665005FB7
:1002000020204865726F20205F00282052455354FB
:1002100020494E20504541434520280045783B0069
:1002200041433B0053743B0048673B0048703B0030
:1002300041753B004C763B00425D20436F6E746914
:100240006E756500415D204E65772047616D6500E4
:100250004020526F677565002043002045002077DD
:10026000686963687D00020303040405010101015C
:100270000102010301042064726F7000207468722F
:100280006F7700207573650044616E67657260006A
:100290000072757374207472617000706F69736F8F
:1002A0006E20747261700074656C65706F7274207A
:1002B0007472617000736C656570206761730061B2
:1002C00072726F7720747261700074726170646F03
:1002D0006F72007A7A7A27272700647261696E65E7
:1002E00064006C6576656C20646F776E0062757271
:1002F0006E6564006772616365640068656C6400C4
:100300007275737465640073746F6C656E00706FE2
:1003100069736F6E65640066726F7A656E00616CFA
:100320007265616479207769656C640045717569EF
:10033000707065640072656D6F7665640069742025
:100340006973206375727365640079756D6D7900EA
:100350006F6F7073272727006C6576656C2075704A
:10036000006469727D006E6F20736C6F7400736F30
:100370006D657468696E672068657265006E6F747C
:1003800068696E672068617070656E7300492063EC
:10039000616E6E6F740057656C636F6D6560006EA3
:1003A0006F7468696E670063616E63656C006D6988
:1003B0007373696C6500736C656570006661737456
:1003C000006368616E676500636C65617200636FEE
:1003D0006E6675736500736C6F770074656C65701D
:1003E0006F7274007365617263680061726D6F7221
:1003F000007365650061646F726E006465780073F8
:1004000074726F6E670064616D61676500666F6F1F
:1004100064006C6966650074656C65706F72740069
:10042000737465616C7468006D617000616E6765FE
:10043000720063726561746500626C65737300734A
:100440006361726500736C6565700074656C6570DE
:100450006F7274006964656E746966790061726DAB
:100460006F7200776561706F6E00686F6C6400700A
:10047000726F74656374006C6F6F6B007370656589
:1004800064006C6576697461746500636F6E66758F
:100490007365006927646574656374006D2764651E
:1004A000746563740068616C6C7500626C696E647D
:1004B000006C6576656C00706F69736F6E00652700
:1004C0006865616C006865616C00726573746F7259
:1004D0006500706F7765720059656E646F72007A9F
:1004E000696E630074696E0073696C76657200737F
:1004F0007465656C006E69636B656C006C65616446
:100500000069726F6E00636F707065720062726F67
:100510006E7A6500627261737300746F70617A0045
:1005200073617070686972650072756279007065D8
:1005300061726C006F70616C006F6E79780067613A
:10054000726E657400656D6572616C6400646961EA
:100550006D6F6E6400616D657468797374006167B6
:100560006174650052454144204D450054454D4F4E
:100570005600464F4F42494500414E444F564100B8
:1005800059554D2059554D00544841525200454C43
:100590004249420044414959454E00584958415842
:1005A00041004E522039004A55594544005A454CA5
:1005B000474F0079656C6C6F7700776869746500E8
:1005C00076696F6C6574007265640070696E6B00AB
:1005D0006772657900677265656E006F72616E673C
:1005E00065006379616E00636C6561720062726FB1
:1005F000776E00626C756500626C61636B00616DA3
:1006000062657200706C6174650062616E6465643D
:100610000073706C696E7400636861696E00736367
:10062000616C650072696E67006C65617468657203
:10063000006461676765720073687572696B656EE7
:10064000006172726F77006461727400626F77008C
:1006500073776F726400617865006D616365006D2A
:100660006F6C6400666F6F6400676F6C6400960364
:100670008D037D036E0366036103580350034A0331
:100680003D0335032C031E0317030E03070300036A
:10069000FB02F402ED02E202DA02D302CA02BF0256
:1006A000B502A7029B0291029002880269066406C5
:1006B0005F065A06560650064C064706410638069F
:1006C0003106290624061E06180611060A06040627
:1006D000FE05F805F305ED05E705E205DB05D505A3
:1006E000D005CB05C705C005BA05B305AD05A705FF
:1006F000A2059B0594058E05880580057905720580
:100700006C0564055E0555054D0545053E05390535
:1007100034052E05290520051A0514050D050605C5
:100720000105FC04F504EF04E804E404DF04D80444
:10073000D204CA04C504BE04B704B104AB04A504C2
:100740009C0493048B0482047C0477046F046A0481
:1007500063045D0454044B0445043F04390432042B
:100760002C0428042004170412040D040604FF03BB
:10077000FB03F503F103EB03E403DB03D603CE0332
:10078000C803C103BC03B603AE03A7039F034B45D5
:1007900042534849524F5A4C4351414E594654577F
:1007A0005058554D56474A44020304050606072A89
:1007B0003A295B213F3D2F2C00050A1419232832CA
:1007C0003C414B555A5F6400050A0F14232D3741F5
:1007D0004B555A64646405080000000000704A73B9
:1007E0007A704040404040552A552A55042E6B3AB5
:1007F000107F437F417F6A5767576E00606000003B
:10080000707A770A7008105F100822085D08227E4F
:100810004141417E060929522C00080808000000C9
:1008200000402002007D00023E7F417F3E00427F6B
:100830007F406271594F462241497F3618147E7FAE
:10084000102F4F4979313E7F4979300161791F0777
:10085000367F497F36064F497F3E18353E3D1800AA
:10086000363600000040381800102A452A101C7F38
:100870003E1C08085C2E170A0102641F767E7F0961
:100880007F7E7F7F497F363E7F4141227F7F417F50
:100890003E7F7F4949417F7F0909013E7F41797A47
:1008A0007F7F087F7F00417F7F4141417F3F017F04
:1008B0007F1C36637F7F4040407F7E0C7E7F7F7E43
:1008C0001C3F7F3E7F417F3E7F7F090F063E7F6159
:1008D0003F5E7F7F097F76264F49793200017F7F17
:1008E000013F7F407F3F1F3F603F1F7F3F103F7FA3
:1008F000777F087F77037F78070371794D47431F20
:100900003F7B3F1F707A770A700041417F3E3E7FF8
:100910004141004D3A163A4D006F6F00002074546B
:100920007C787F7F447C38387C444428387C447F02
:100930007F387C545C1800047E7F0518BCA4FC7CC6
:100940007F7F08787000447D7D408080FD7D007F42
:100950007F386C4400417F7F407C7810787C7C7CC1
:10096000047C78387C447C38FCFC243C18183C24FB
:10097000FCFC7C7C080404085C54742000047E7E2B
:10098000043C7C407C7C1C3C403C1C7C3C103C7C03
:100990006C7C107C6C1CBCA0FC7C4464745C4C1FA4
:1009A0003B713B1F00777777000601590F06201037
:1009B0000804020A01043C0200830B010341020007
:1009C000020A01033C020025080103320200030F62
:1009D0000205430300030F00004405000413020A4C
:1009E000460A000319010546050A031501074508D3
:1009F00000031900004B156404200513550F0A0568
:100A00001E030F4E14140319000064140003190090
:100A1000004B276404230312503214054900005090
:100A20005B00014B051C4B7D21032D02104B370051
:100A3000054C0514507832652A04184B6E00065A8E
:100A4000042855C8210361072555FA1903370212F6
:100A500055041203730A3255140A83840732641E44
:100A6000000591083C64325A02000A0F18213F5DCC
:100A700060640E3611241FBECFEFDAE0DEBFCDBFBB
:100A800011E0A0E0B1E0EAE4FFE602C005900D92BB
:100A9000A639B107D9F729E0A6E9B1E001C01D9256
:100AA000A93AB207E1F715E0CAE3D5E004C02197FF
:100AB000FE010E947537C933D107C9F70E94892EFC
:100AC0000C94A3370C940000FF920F931F93CF93C5
:100AD000DF93EC01F62E08811981C8010E94CE3601
:100AE000F81621F06F2DC8010E94D636CE01DF9195
:100AF000CF911F910F91FF9008952F923F924F92A7
:100B00005F926F927F928F929F92AF92BF92CF929D
:100B1000DF92EF92FF920F931F93CF93DF93682E94
:100B2000712C33243394882E912C88E0582E56183B
:100B30000E94772530928105309280050FEF009357
:100B4000820511E0611204C08EE592E00E949B25AF
:100B500061E070E0611002C060E070E080E090E071
:100B60000E944C158EE30E949625E72CF12C0091F3
:100B70003B01C701089688199909202F30E02817F2
:100B8000390714F0052D070D25E0729EE0011124B0
:100B9000C256DD4F5701CC24C394D12C10E0A016CF
:100BA000B1060CF08FC081E090E0662011F080E08B
:100BB00090E0B601681B790B81E090E00E944C1533
:100BC0008C8183FD08C0E881E295EF70F0E0E2558A
:100BD000F84F849101C08BE70E94962580E20E9425
:100BE00096258C8187FF06C089810E948F2580E22F
:100BF0000E9496259881692F6F70892F82958F703A
:100C0000903510F440E00FC0E82FF0E0EE0FFF1F2A
:100C1000E257FE4F40815181062E02C056954795FE
:100C20000A94E2F741700E942D178091A6099091D5
:100C3000A7090E949B258C8185FF2DC0888190ED9E
:100C4000980F903170F48EE50E9496258A81082EC7
:100C5000000C990B0E94E0258CE30E9496258B8165
:100C600012C090EC980F903150F090E8980F9031AE
:100C700030F08057803178F48A81882361F08EE5E6
:100C80000E9496258A81082E000C990B0E94E0256F
:100C90008DE50E9496258C8184FF04C08BE592E04F
:100CA0000E949B258C818274823421F488E592E035
:100CB0000E949B253FEFA31AB30A25968FEFC81A0F
:100CC000D80A6DCF0E942A260E94392A823029F440
:100CD000772009F42DCF7A942BCF843051F4809172
:100CE0003B0190E00197E816F9060CF021CF7394D0
:100CF0001FCF853009F0A2C66110A3C600E023E231
:100D000049E363E070E081E190E00E94E62501E0C4
:100D100021E247E364E070E082E190E00E94E62592
:100D200000E02FE145E365E070E083E190E00E94A0
:100D3000E625CFE1C0938105C0938005D7E0D0932D
:100D4000820583E892E00E949B25C0938105C093B1
:100D500080058FE0809382058CE792E00E949B25BE
:100D6000C0938105C093800587E18093820586E763
:100D700092E00E949B2589E1809381058093800504
:100D8000D09382058EE30E9496250E942A26C0E019
:100D90000E94392A8430C9F018F4823039F0F8CF33
:100DA000853079F1863009F44CC6F2CFCC2381F33B
:100DB0006C2F70E06F5F7F4F84E090E00E944C15D5
:100DC00080E20E949625C1500EC0C23008F76C2FF9
:100DD00070E06F5F7F4F84E090E00E944C1580E2EE
:100DE0000E949625CF5F6C2F70E06F5F7F4F84E08D
:100DF00090E00E944C158EE30E9496250E942A26C0
:100E0000C7CFC11167C3D0914401D11162C48E9D77
:100E1000F0018F9DF00D1124E256FD4FC0818C2F03
:100E200082958F70CF70823009F05DC081818150D2
:100E30008183811103C0872D0E94891EC1114DC479
:100E40000E94773623E030E040E050E00E94E43634
:100E5000672B682B692B09F040C487E00E946F174D
:100E60008091570190915801A0915901B0915A0178
:100E70000296A11DB11D8093570190935801A09334
:100E80005901B0935A01C0E060915F017091600117
:100E9000809161019091620123E030E040E050E0F8
:100EA0000E94E43669017A019CE2C90E91E0D91EE4
:100EB000E11CF11CCC0ED11CE11CF11C0E94773608
:100EC00022E330E040E050E00E94E436C60ED71E38
:100ED000E81EF91EC0925F01D0926001E0926101AC
:100EE000F0926201EFC3833009F4ABC2843009F49D
:100EF000A8C2853009F004C10C2F10E081E090E019
:100F0000A0E0B0E00C2E04C0880F991FAA1FBB1FE1
:100F10000A94D2F72091980130919901822B932B5A
:100F200090939901809398018181815081838111EF
:100F300003C0872D0E94891EF801EF5FFE4FE081FC
:100F40008E2F90E08E30910508F0D6C0FC01EA5A51
:100F5000FF4F0C94753790913D0120913E0181E047
:100F6000890F80933D019213C7C080933E01C4C096
:100F700080913E0180933D01BFC080914F019091CF
:100F80005001A0915101B0915201409153015091F3
:100F90005401609155017091560184179507A60779
:100FA000B70721F40196A11DB11D2FC08C019D0131
:100FB000040F151F261F371FC901B80122E030E0BA
:100FC00040E050E00E94E43620934F0130935001FE
:100FD00040935101509352018FC080914F019091E5
:100FE0005001A0915101B091520140915301509193
:100FF0005401609155017091560184179507A60719
:10100000B707A1F40296A11DB11D80934F019093E3
:101010005001A0935101B0935201809353019093DA
:101020005401A0935501B093560166C040934F01FF
:101030005093500160935101709352015DC0D09163
:101040003D01D43060F00E947736D15023E030E08B
:1010500040E050E00E94E436D61BD0933D01109250
:1010600042014AC08091630190916401A0916501A1
:10107000B09166018093570190935801A093590154
:10108000B0935A0139C082E38093410135C082E3B5
:101090008093420131C081E0809345012DC048EE2C
:1010A000E42E43E0F42E00E010E0F701E00FF11F22
:1010B0008081882321F0602F8D2F0E9410170F5FF1
:1010C0001F4F0830110589F718E0E10EF11CDF5FB2
:1010D000D53149F711C08AE0809340010DC01092CC
:1010E00048018EE18093470107C084E1809343016A
:1010F00003C081E08093460141E06C2F85E087C109
:10110000863009F087C18091410181118EC20C2F78
:1011100010E081E090E0A0E0B0E00C2E04C0880F69
:10112000991FAA1FBB1F0A94D2F720919A013091F0
:101130009B01822B932B90939B0180939A0185E0D6
:101140008E9DF0018F9DF00D1124E256FD4F81819F
:1011500081508183811103C0872D0E94891E0F5FFA
:101160001E4FD8011E96EC918E2F90E08C30910589
:1011700008F044C1FC01EC59FF4F0C9475374091C5
:101180003B0150E0EEE9F2E080E090E0C6C061E0B3
:1011900084E00E94E92D882309F436C190E001978C
:1011A00025E0289FF001299FF00D1124E256FD4F04
:1011B00084818860848322C12091390180913A0121
:1011C00090E0B8E02B9F800D911D112440E050E08D
:1011D0004097DC01A40FB51F6EEF7FEFFB01EA0F14
:1011E000FB1FE056FB4FE081EE2339F0F0E0E959B8
:1011F000FA4F20812F71205820836F5F7F4F63301B
:10120000710561F7485F5F4F4832510511F7FCC027
:1012100061E083E00E94E92D882309F4F5C090E0A5
:10122000019745E0489F9001499F300D1124F90135
:10123000E256FD4F7F0184818F7B84830E94773645
:1012400022E030E040E050E00E94E436672B682B5B
:10125000692B41F4D70112968C9112978F5F1296E9
:101260008C93CCC0F70183818F5F8383C7C061E01B
:1012700084E00E94E92D882309F4C6C090E001971C
:1012800025E0289FF001299FF00D1124E256FD4F23
:1012900084818F7B848382818F5F8283AFC081E072
:1012A0000E947D05F5E08F9FC0011124FC01E256EC
:1012B000FD4F8481826284839081292F2F70892F32
:1012C00082958F70903510F440E01CC0E82FF0E05C
:1012D000EE0FFF1FE257FE4F41E050E060E070E08C
:1012E000022E04C0440F551F661F771F0A94D2F7C1
:1012F000A081B1814A2B5B2B51834083905990315F
:1013000018F341E0622F0E942D1778C00E94CC2074
:1013100075C085E08093440171C0841795070CF077
:1013200073C024812F7B248301963596F6CFE8E69F
:10133000F5E081E09191911101C0482E8F5F8131DC
:10134000C9F741E060913A01809139010E94691426
:1013500090E0009709F452C00197242D30E021500D
:10136000310940913901415063E070E00E946137DA
:10137000840FF901E85AFA4F808340913A014150B5
:10138000460FF901E85BFA4F4083682F8FEF840D19
:101390000E94AD290E945B1531C0E8E6F5E080812E
:1013A000882319F08F71805E8083319605E0E837DD
:1013B000F007A9F729C0D6EEAD2ED1E0BD2ED0E0C2
:1013C000D12C7501F701808191EE980F9C3410F4B7
:1013D000805B80832FEFE21AF20A8081882321F05C
:1013E0006D2D8D2F0E941017D39438E0D312EACFC1
:1013F000DF5F88E0A80EB11CD53111F7D8011E9629
:101400008C91843009F45EC141E06C2F86E00E942B
:101410002D1758C18730C9F481E090E0A0E0B0E01A
:1014200004C0880F991FAA1FBB1FCA95D2F720912D
:101430009C0130919D01822B932B90939D01809371
:101440009C01872D0E94282E3DC1883009F03AC1A9
:1014500081E090E0A0E0B0E00C2E04C0880F991F5E
:10146000AA1FBB1F0A94D2F720919E0130919F01C1
:10147000822B932B90939F0180939E0185E08E9DFC
:10148000F0018F9DF00D1124E256FD4F8281181658
:101490001CF48150828302C0C09134010E948C23CD
:1014A00064E10E94882DFC0197FF02C0E150FF4FCC
:1014B000FF2309F407C160E071E00E94613765E134
:1014C00070E00E946137262F482F6F2F8C2F0E94CB
:1014D000E31CF8C0C13009F06CC090914401911137
:1014E000F8C08E9DF0018F9DF00D1124E256FD4F46
:1014F000848184FF0AC0908120ED290F203108F0FB
:101500004EC09F70943008F44AC086FF0CC0C5E0FE
:10151000CE9DF001CF9DF00D1124E256FD4F90813C
:1015200090539031D8F00E948C23C82F61E083E063
:101530000E94E92D882309F4D5C090E0019725E0A9
:10154000289FF001299FF00D1124E256FD4F808164
:101550008F70833009F0C6C064E1C7C082608483A5
:1015600061E083E00E94E92D882361F090E001971B
:10157000C89FF001C99FF00D1124E256FD4F8481F0
:101580008F7E848385E08E9DF0018F9DF00D112468
:10159000E256FD4F84818061848389E001C08CE044
:1015A0000E946F170E947C170E9431210E941F1E0B
:1015B00048C2C23009F0ECCB90914401911189C02E
:1015C0008E9DF0018F9DF00D1124E256FD4F948108
:1015D000892F807194FD73C0408150E0EFE0F1E00D
:1015E0009191973021F08F5F8C30D1F701C0282E78
:1015F000C0913A0180913901222D30E0205A3F4FAD
:1016000090E00C2F10E04217530761F5EC0133E036
:10161000CC0FDD1F3A95E1F7FE01EA51FE4FE00FD6
:10162000F11F80818B50863010F481E049C085E045
:101630008E9DF0018F9DF00D1124E256FD4F8181AA
:1016400081508183811103C0872D0E94891ECA5158
:10165000DE4FC00FD11F88816AE00E944737925445
:10166000988330C023E0880F991F2A95E1F78851AD
:101670009C4FEC01C00FD11F8881882311F083E0BB
:101680001FC00E949C1E883211F484E019C091E0B2
:10169000980F988395E0989FD0011124A05EBC4FCD
:1016A0009E9DF0019F9DF00D1124E256FD4F01908B
:1016B0000D929A95E1F7872D0E94891E03C08CE058
:1016C0000E946F170E941F1E0E947C170E943121EA
:1016D000B8C186E10E946F17B4C188E00E946F17FD
:1016E000C2E3D2CB60913D0166958C2F0E94882D7C
:1016F0006C0185E08E9DE0018F9DD00D1124C256B6
:10170000DD4FFE01A0EAB1E001900D928A95E1F76C
:1017100081E08093A101898181508983811103C077
:10172000872D0E94891EC601D7FE02C081509F4F9F
:10173000C92FD92FDD0FDD0BA92EC60160E071E0A6
:101740000E94613765E170E00E946137F62E182F24
:10175000C1110AC0C090A401E090A3010091A201B0
:1017600021E04091A001B8C0E091A00180ED8E0F72
:10177000803158F4EF70F0E0EE0FFF1FEA59FD4F93
:10178000E491C090A201CE0E02C0CC24C3940E946A
:10179000773624E630E040E050E00E94E436D62E72
:1017A00090913F01990F985DEC2CEE0CEC0CE90E3A
:1017B00061E083E00E94E92D90E0019725E0289FF9
:1017C000F001299FF00D1124E256FD4F80814091D8
:1017D000A001982F94279F7009F483C0453321F40A
:1017E0008F70833009F47DC0DE1408F06DC0EE24E4
:1017F000EA94EA0C6FE28E2D0E9458130091A0012A
:1018000080ED800F803160F4E02FEF70F0E0EE0F9C
:10181000FF1FE959FD4F8491B090A301B80E01C09C
:10182000B12C80EB800F8031B0F561E28E2D0E94EB
:101830005813902F9F70E92FF0E0EF5FFE4FE0818B
:101840008E2F90E08D30910508F0ACCEFC01E05970
:10185000FF4F0C947537DD27CB56D64F8881865FB6
:1018600018C0DD27CB56D64F8881869512C0DD275C
:10187000C959DA4F88818F71805C0BC0DD27C15751
:10188000DB4F8881806205C0DD27C157DB4F88812F
:101890008068888387CE90E8900F903160F50E9431
:1018A000773624E030E040E050E00E94E436672BD9
:1018B000682B692B01F18091A0012F2D412F6A2DFA
:1018C0008F700E94E31C6ECEC090A401E090A30133
:1018D0000091A2012091A1016F2D812F0E94A71ECE
:1018E00061CEE4E0EE9EC001112463E070E00E944E
:1018F0006137E62E79CF8091A0018053803108F0C6
:101900004AC02C2D0C2C000C330BAB2DBB0CBB0B8D
:101910000E947B379B01AC016C2DCC0C770B880BA4
:10192000990B0E9454264B015C0190913D018091DE
:101930004A01890F0E94701D880C991CAA1CBB1CAF
:10194000282F30E0C901880F991F092E000CAA0B1F
:10195000BB0B880D991DAA1DBB1D40914901042E8A
:10196000000C550B660B770B840F951FA61FB71F36
:1019700020913F01820F911DA11DB11DBC01CD0120
:101980006F5F7F4F8F4F9F4F22E030E040E050E08D
:101990000E94E4361FC090913D0180914A01890F59
:1019A0000E94701D282F30E021503109220F331F73
:1019B00080914901280F311D87FD3A9580913F01A3
:1019C000280F311D2F5F3F4F37FF02C02F5F3F4F62
:1019D00035952795D22E61E083E00E94E92D90E0B5
:1019E000019725E0289FF001299FF00D1124E25670
:1019F000FD4F80812091A001982F92279F7099F030
:101A0000253319F48F70833071F0DD27C959DA4F0F
:101A100068816295669567700F2D212F4D2D8E2D53
:101A20000E94B913BFCDFD2D04E0F002C0011124C6
:101A300063E070E00E946137D62EE7CF863009F070
:101A400077C8872DDF91CF911F910F91FF90EF9075
:101A5000DF90CF90BF90AF909F908F907F906F90CE
:101A60005F904F903F902F9008952F923F924F920A
:101A70005F926F927F928F929F92AF92BF92CF921E
:101A8000DF92EF92FF920F931F93CF93DF93CDB727
:101A9000DEB7A6970FB6F894DEBF0FBECDBF88EABB
:101AA000E6EEF1E0DF011D928A95E9F71D8A1E8AB4
:101AB0001F8A188E198A1A8A1B8A1C8A1D861E86FE
:101AC0001F86188A19861A861B861C8688E0EFE610
:101AD000F1E0DE01119601900D928A95E1F71092E6
:101AE000E1011092E2011092E3011092E401809171
:101AF0003C01853068F00E94773624E130E040E018
:101B000050E00E94E436672B682B692B09F499C4D6
:101B10001092E5010E94773627E030E040E050E087
:101B20000E94E4366B0137E0C30ED11C0E94773669
:101B300022E030E040E050E00E94E4366D5F7F4FED
:101B40008FEF8C0D8D8769876230710519F091E0F8
:101B50009093E10191E0960F9A8B8E8787E08A87B8
:101B60006430710519F081E08093E2016330710502
:101B700031F41A82198266246394712C02C0612C9C
:101B8000712C0E94773622E030E040E050E00E9465
:101B9000E4366D5F7F4F81E08C0D8F8B94E19F87E2
:101BA0006B876230710519F091E09093E301888FA3
:101BB00081E0860F8C8B84E1888B87E08C87643092
:101BC000710519F081E08093E4016330710529F417
:101BD00018861F82B2E06B0E711CE1EEF1E0FEA3ED
:101BE000EDA39E012B5E3F4F3A8F298F6AE972E089
:101BF0007E8F6D8F5E0171E1A70EB11C82E992E0CC
:101C000098A38F8F7E019DE0E90EF11CA6E9B2E05A
:101C1000BAA3A9A34E01B9E08B0E911CEEE8F2E045
:101C2000FCA3EBA321EE31E03C8F2B8FB3E02B2EF6
:101C3000312C412C512CAB8DBC8D8D91BC8FAB8F39
:101C4000813039F5E98DFA8D10810E947736A20135
:101C500091010E94E4361F5F610FAD8DBE8D6C93C4
:101C6000F50180818F5FAF8DB8A18C93F701108152
:101C70000E9477361150A20191010E94E436161B92
:101C8000A9A1BAA11C93F40180818150ABA1BCA190
:101C90008C93E98DFA8D3196FA8FE98F2D8D3E8DDB
:101CA0002F5F3F4F3E8F2D8F3FEFA31AB30A6F8DEB
:101CB00078A16F5F7F4F78A36F8F7FEFE71AF70AE6
:101CC00089A19AA101969AA389A39FEF891A990ADB
:101CD000ABA1BCA11196BCA3ABA3EB8DFC8DE55EC3
:101CE000F14009F0A8CF6114710469F40E947736BD
:101CF00022E030E040E050E00E94E436672B682BA1
:101D0000692B09F4B1C384E190E08C199D09959584
:101D100087951C2D180F41E0410FC60195958795B9
:101D2000F82EFC01A3E0EE0FFF1FAA95E1F7EA51A0
:101D3000FE4FDF019C0150E068E042175307B4F00A
:101D400011966C93119712966C93129713966C934D
:101D5000139714966C93149715966C931597169683
:101D60006C9316972F5F3F4F1896E7CF29813A81E2
:101D7000232BB9F4DF019C01612F70E06217730718
:101D800084F012961C92129713961C921397149635
:101D90001C92149715961C9215972F5F3F4F18961B
:101DA000EDCF2B813C81232B19F521E02F0D30E065
:101DB000D90173E0AA0FBB1F7A95E1F7AA51BE4F74
:101DC000612F70E0621773079CF011961C921197B7
:101DD00012961C92129713961C92139714961C92AB
:101DE000149715961C9215972F5F3F4F1896EACFC0
:101DF0002D813E81232B71F42FEF210F30E0281726
:101E0000390744F0128213821482158216820196D9
:101E10003896F5CF2F81388581E08F0D232BA9F4DB
:101E2000282F30E0F90163E0EE0FFF1F6A95E1F71C
:101E3000EA51FE4F4217530744F012821382148274
:101E400015822F5F3F4F3896F5CF90E0FC0123E0DD
:101E5000EE0FFF1F2A95E1F7EA51FE4F212F30E0E8
:101E6000281739073CF012821382148215820196DA
:101E70003896F6CF61EE71E07C8F6B8F00E010E05A
:101E800085E0882E912CA12CB12CAB8DBC8D8D9131
:101E9000BC8FAB8F811117C00E947736A5019401CA
:101EA0000E94E436672B682B692B09F4EDC20BC046
:101EB00081E08B0F28E0A29FD0011124AA51BE4FD0
:101EC000A80FB11D1C920F5F1F4F04301105E9F6DA
:101ED00010E0ADA1BEA18D91BEA3ADA3813019F4D8
:101EE000812F0E94951F1F5F143099F7B3E06B1686
:101EF000710461F0B6EEEB2EB1E0FB2E15E0412E41
:101F0000512C612C712C04EEB02E10C0F601A3E010
:101F1000EE0FFF1FAA95E1F7EA51FE4F88E081839B
:101F200082838383848385838683E4CF8701C12C66
:101F3000D12CF8018081883059F40E947736A301B2
:101F400092010E94E436672B682B692B09F4DEC2EC
:101F5000FFEFCF1ADF0A0F5F1F4F28E0C216D10430
:101F600041F738E0E30EF11C6EE8E61662E0F60693
:101F7000E9F603EC11E075E0C72ED12CE12CF12C31
:101F8000BB24B3940E947736A70196010E94E436E1
:101F9000672B682B692B19F4D801BC9202C0F80199
:101FA00010820F5F1F4FF1E0073C1F0759F7809128
:101FB000E501811129C041EEE42E41E0F42E1FE13C
:101FC00053E0452E512C612C712C66E0862E912C0D
:101FD000A12CB12CD7018D917D01813059F40E9443
:101FE0007736A30192010E94E436672B682B692B98
:101FF00009F48FC21F5F133269F78091E5018823CE
:10200000E9F080E090E025C005E010E036E0C32E66
:10201000D12CE12CF12C0E947736A70196010E9469
:10202000E436660F862F880F880F680F615E80E0A8
:102030000E94311F0150110971F7DFCF0E947736DE
:1020400022E030E040E050E00E94E436CB01880F0F
:10205000991FFC01EF51FE4F2081211101C0019613
:102060006BE0680F0E94311F0E94D6160E94CC20A0
:1020700018E6E12E15E0F12E08E5202E05E0302EC1
:10208000E8E4F5E0FC8FEB8FC12CD12C83E0882EA7
:10209000912CA12CB12C92E0492E512C612C712C49
:1020A0008091E501F7E08F9FC001112408968C15FF
:1020B0009D050CF48AC00E947736A50194010E9408
:1020C000E436672B682B692B09F06DC08091E50120
:1020D00081110AC00E947736A30192010E94E43662
:1020E0008B01000F111F02C000E010E0F801EF515A
:1020F000FE4F8081811102C00F5F1F4FF801E6562D
:10210000FD4F2081298FF801EA56FD4F6081062E90
:10211000000C770B621B710927FD73956F5F7F4F72
:10212000072E000C880B990B0E943A26398D630FFD
:10213000D1016C93F801EE56FD4FB081B98FF801D3
:10214000E257FD4F6081062E000C770B6B1B710967
:10215000B7FD73956F5F7F4F072E000C880B990BAF
:102160000E943A26498D460FEB8DFC8D4083D101AC
:102170006C9180913901681799F080913A01481764
:1021800079F0B8E06B9FF0011124E056FB4FE40FAB
:10219000F11D8081811104C08C2D0E94AD2905C0E4
:1021A000F701108202C0D7011C92BFEFCB1ADB0AE5
:1021B000EFEFEE1AFE0AFFEF2F1A3F0A2B8D3C8D30
:1021C0002F5F3F4F3C8F2B8F6BCF61EE71E07A8F8B
:1021D000698FE6E96E2EE2E07E2EFAE94F2EF2E0FC
:1021E0005F2E8EE892E09C8F8B8FA2E92A2EA2E0D0
:1021F0003A2E81017C01620153017E8F6D8FED8D3E
:10220000FE8D8191FE8FED8F8130E9F5812C912C2F
:102210008091E501F7E08F9FC00111240296881597
:1022200099058CF1D5012C91022E000C330B2F5FF8
:102230003F4F032E000C440B550BF6016081062E18
:10224000000C770B880B990B0E9454266F8FD701D7
:102250002C91022E000C330B2F5F3F4F032E000CEE
:10226000440B550BF8016081062E000C770B880B90
:10227000990B0E94542640E08F8D0E948D27FFEF1E
:102280008F1A9F0AC5CF2FEFA21AB20A3FEFC31AC7
:10229000D30A6FEFE61AF60A0F5F1F4F8D8D9E8DE2
:1022A000855E914009F0ABCF80913C0163E00E94D4
:1022B00047379923E1F090913C01809100019817F4
:1022C00008F04BC037C1FFEF6F1A7F0A2FEF421A99
:1022D000520A6B8D7C8D6F5F7F4F7C8F6B8F7FEF92
:1022E000271A370A898D9A8D855E914021F3E98DF1
:1022F000FA8D8191FA8FE98F813029F7D3012C91E2
:10230000022E000C330B2F5F3F4F032E000C440BAB
:10231000550BF2016081062E000C770B880B990B90
:102320000E945426162FAB8DBC8D2C91022E000CD2
:10233000330B2F5F3F4F032E000C440B550BF10165
:102340006081062E000C770B880B990B0E94542697
:1023500042E0812F0E948D27B6CF80913B0190E013
:10236000019725E0289FF001299FF00D1124E256E6
:10237000FD4F8081803909F4DDC08091E501811134
:102380000AC00E94773622E030E040E050E00E9430
:10239000E436660F01C060E0E62FF0E0EF51FE4F3B
:1023A0008081811101C06F5F062F10E0F801E656B1
:1023B000FD4FF080F801EA56FD4F6081062E000CBB
:1023C000770B6F197109F7FC73956F5F7F4F072EBD
:1023D000000C880B990B0E943A26F60EF801EE5677
:1023E000FD4FE080F801E257FD4F6081062E000CA2
:1023F000770B6E197109E7FC73956F5F7F4F072E9E
:10240000000C880B990B0E943A26E60E0E949C1E37
:10241000B8E0FB9EF0011124E851FC4FEE0DF11DD8
:1024200091E0980F908325E0829FF0011124E05EF7
:10243000FC4F80E9808381E08183128213821482C1
:1024400079C081E08093E5018093E10180939A0255
:102450008093920283E18093960286E080938E02BD
:1024600080E00E94951FA3CD0E94773624E030E0E3
:1024700040E050E00E94E436660F771FFE01E60F51
:10248000F71F128211823FCCC80181709927B82FA3
:10249000BB0FBB0FB80F22E02B0FC8019595879596
:1024A000AF2D6BE0689FA00D1124222423942A0EE7
:1024B0008FEF8A0F90E02C0143E0440C551C4A95A5
:1024C000E1F740E050E0312CE22FF0E0FA8FE98FA5
:1024D000281639060CF4ECCC2B2F30E0B201640F37
:1024E000751FE98DFA8DE217F30764F0F901E60F25
:1024F000F71FEA51FE4F6894EE24E3F8E0822F5F65
:102500003F4FEFCF0196485F5F4FE2CFD801BC92BB
:102510001FCD0E947736A50194010E94E436E12F79
:10252000BAE06B9FE00D11246E2F81EE810F0E94A7
:10253000311F60CDA6960FB6F894DEBF0FBECDBF9B
:10254000DF91CF911F910F91FF90EF90DF90CF908F
:10255000BF90AF909F908F907F906F905F904F90C3
:102560003F902F9008958F929F92AF92BF92CF92FB
:10257000DF92EF92FF920F931F93CF93DF9380919F
:102580003C01811103C08FEF80933C0180914B018E
:1025900090914C01A0914D01B0914E014091A50147
:1025A0005091A6016091A7017091A80148175907A1
:1025B0006A077B070CF06EC020913C018093A50157
:1025C0009093A601A093A701B093A8012093A9011D
:1025D00005EA11E0E80120E030E02F5F3F4FCE0137
:1025E000A9014530510539F4259625303105A9F763
:1025F000C4E6D0E02BC088809980AA80BB80FC0113
:10260000C580D680E780F084C814D904EA04FB04AE
:10261000CCF465E0FE01AEEBB1E001900D926A955D
:10262000E1F765E0FC013596DE0101900D926A95B7
:10263000E1F765E0EEEBF1E0DC01159601900D921B
:102640006A95E1F74F5F5F4F0596CBCFBE016F5B99
:102650007E4FCE010E945A272596CD37D105B1F77E
:1026600040914B0150914C0160914D0170914E0190
:1026700095E080E0F801C080D180E280F380C4164C
:10268000D506E606F70609F4892F0B5F1F4F915018
:1026900089F701C080E0DF91CF911F910F91FF90EA
:1026A000EF90DF90CF90BF90AF909F908F90089564
:1026B0001F93CF93DF93C82F162F80914101811173
:1026C00006C00E942C160E94FC220E945B15D0E0DE
:1026D000FE01E85BFA4F608170E0FE01E85AFA4FB4
:1026E000808190E00E944C1580914101811107C0CA
:1026F000C057DB4F888186FD02C0812F01C080E278
:102700000E9496250E942A262D9866E470E080E0BB
:1027100090E00E949B262D9ADF91CF911F91089502
:10272000CF93C82F80914101811106C00E942C16C1
:102730000E94FC220E945B1560913A0170E080913A
:10274000390190E00E944C158C2F0E9496250E9422
:102750002A262E9887EA0E942C2766E470E080E003
:1027600090E00E949B2686EA0E942C272E9ACF9109
:1027700008958F929F92AF92BF92CF92DF92EF9285
:10278000FF920F931F93CF93DF93962FE82FF0E0E4
:10279000DF01AA56B64F3C91E859FA4F431708F4A7
:1027A00083C088E0289FD0011124A056BB4FA00F02
:1027B000B11D1C921082C62FD0E0C0905701D0905E
:1027C0005801E0905901F0905A0187E06631F0F02D
:1027D0008C9FD0018D9FB00D1124FD01E954F64F5F
:1027E000A49184E6A89FF0011124AF01FF0F660BAE
:1027F000770B4C0D5D1D6E1D7F1D4093570150934F
:1028000058016093590170935A011BC08C9FB0010D
:102810008D9F700D1124FB01E954F64F6491460120
:102820005701860E911CA11CB11C809257019092F9
:102830005801A0925901B0925A019F3011F41092A0
:102840004801122FB92E0E94773627E02C9FF00105
:102850002D9FF00D1124E854F64FE491CE2ED12C8B
:10286000E12CF12C24E630E040E050E00E94E43618
:102870006C157D058E059F05FCF489E0982EB91036
:1028800002C041E001C040E0602F812FDF91CF9175
:102890001F910F91FF90EF90DF90CF90BF90AF907E
:1028A0009F908F900C948D27341B3C9380818034B3
:1028B00018F08F71805E8083DF91CF911F910F910F
:1028C000FF90EF90DF90CF90BF90AF909F908F9050
:1028D00008953F924F925F926F927F928F929F9254
:1028E000AF92BF92CF92DF92EF92FF920F931F931E
:1028F000CF93DF93682E862EF42E0E94773628E041
:1029000030E040E050E00E94E436C0913901E091AF
:102910003A01F0E088E0C89FE0011124DE01A056F2
:10292000BB4FAE0FBF1F8FEF8C9300E010E0462E21
:10293000512C99E0C92ED12C23E0322E712C912CF0
:10294000C201800F911FB6010E946137E82E632DEE
:102950000E94533791509301290F311D97FD3A95ED
:102960008150A401480F511D87FD5A9583E0220F25
:10297000331F8A95E1F7D901AA51BE4FA40FB51FA5
:102980008C918150883C20F5D901A851BC4FA40FEF
:10299000B51F6C9170E0A1E0B0E0FF2011F0A0E065
:1029A000B0E06A9F50016B9FB00C7A9FB00C11246D
:1029B000AB2871F420563B4FD901A40FB51F8C9161
:1029C0008F9DC0011124892B19F481E08E0D07C061
:1029D0000F5F1F4F0930110509F0B2CF80E0C056DC
:1029E000DB4FEC0FFD1F1082DF91CF911F910F91F4
:1029F000FF90EF90DF90CF90BF90AF909F908F901F
:102A00007F906F905F904F903F900895CF93DF93AA
:102A1000C82FD0E0FE01E057FB4F808186FF09C040
:102A200088E00E94FE2D811104C080914601813012
:102A300081F580914201C859DA4F8823D1F088810D
:102A40008056803260F40E94773629E030E040E022
:102A500050E00E94E436FB01E155F84F15C00E949A
:102A600077362AE130E040E050E00E94E436FB0196
:102A700009C0E88180EA8E0F803210F48AE205C036
:102A8000EF71F0E0E257F84F8491DF91CF910C9411
:102A90009625DF91CF910895982F990F890F880F70
:102AA0008F5FECE7F5E085838483660F660F660F22
:102AB000615066830895CF92DF92EF92FF920F9359
:102AC0001F93CF93DF9398E6E92E95E0F92E08E463
:102AD00015E0C8E5D5E0D12C2AE0C22EF70181919E
:102AE0007F01803208F45EC080914501811150C0A1
:102AF000E091390180913A0198E0E99FF0011124B9
:102B0000EA51FE4FE80FF11D2081822F6C2D0E94AB
:102B10004737A92FE92FF0E0EE53FE4F8081811156
:102B20001DC02830D9F0288130E0F801408150E004
:102B3000F90183E0EE0FFF1F8A95E1F7EA51FE4F9E
:102B4000E40FF51F80810E944737A91307C0BA011F
:102B5000C9010E944C158D2D0E940615888190E0B8
:102B60002091390130E0281B390B2F5F3F4F233074
:102B70003105C0F4F801608170E020913A0130E045
:102B8000261B370B2F5F3F4F2330310558F405C00C
:102B9000F801608170E0888190E00E944C158D2DD5
:102BA0000E9406150F5F1F4F2196D394F0E1DF12AC
:102BB00095CFDF91CF911F910F91FF90EF90DF9014
:102BC000CF9008950F931F93CF93DF93809141018E
:102BD000882379F060913A0170E08091390190E0AA
:102BE0000E944C1580E4DF91CF911F910F910C94BE
:102BF0009625C0E0D0E000E010E0809139019E0110
:102C0000280F311DC901019720913A01B801620FC7
:102C1000711D61507109FC0123E0EE0FFF1F2A9521
:102C2000E1F7EA51FE4FE60FF71F20813FEF320F29
:102C3000363018F02F512C3428F40E944C158EE2B7
:102C40000E9496250F5F1F4F03301105B1F62196A4
:102C5000C330D10581F6BECFAF92BF92CF92DF9243
:102C6000EF92FF920F931F93CF93DF9306EE11E045
:102C7000C0E0D0E08AE0B82EEC2EE694E694E6942C
:102C800088E0E89E70011124C12CD12C9C2F9770F4
:102C9000A92EB601CE010E944C15F601EE0DFF1DC6
:102CA000E953FE4F808190E00A2C02C095958795EC
:102CB0000A94E2F780FF4FC0F801EC0DFD1D208162
:102CC000222309F448C08FEF820F863020F081EE76
:102CD000820F8C34F8F4E091390180913A0198E048
:102CE000E99FF0011124EA51FE4FE80FF11D8081A8
:102CF0006B2D0E944737392FE92FF0E0EE53FE4F3E
:102D00008081811107C0822F0E944737391323C069
:102D10008EE230C0283009F185EF820F8630F8F05E
:102D20008BEE820F8630E8F081E9820F8C34D8F088
:102D300081E4820F8830C8F087E3820F8630B8F0D4
:102D40008DE2820F8630A8F083E2820F863078F021
:102D5000275E263070F080E20DC083E20BC085E272
:102D600009C08BE207C08FE505C08FE303C086E290
:102D700001C08CE70E9496258FEFC81AD80A98E008
:102D8000C916D10409F085CF2196085F1F4FC531C0
:102D9000D10509F071CFDF91CF911F910F91FF9075
:102DA000EF90DF90CF90BF90AF900895CF93DF93D7
:102DB00088EAE0EAF4E0DF01482F1D924A95E9F73E
:102DC000E8EEF3E0DF011D928A95E9F788E1E7EC90
:102DD000F1E0DF011D928A95E9F788ECE0E2F3E08B
:102DE000DF011D928A95E9F7E8E5F5E028E435E092
:102DF00088E695E0C6E9D9E060E974E01192D9016E
:102E00001D929D01DC011D92CD011992DB011D92E5
:102E1000BD01B5E0E836FB0789F7DF91CF91089552
:102E2000E82FE695E695E69598E0E99FF0011124F4
:102E3000E953FE4FE60FF11D282F277081E090E047
:102E4000A0E0B0E004C0880F991FAA1FBB1F2A95FD
:102E5000D2F72081822B80830895CF93DF93CDB763
:102E6000DEB72D970FB6F894DEBF0FBECDBF9DE045
:102E7000E7E7F1E0DE01119601900D929A95E1F7F6
:102E800090E070E0FE01E80FF91F411105C080815C
:102E9000FB01E80FF11D10C0258105973EE0389F2A
:102EA000F001399FF00D1124EF5FFE4FE60FF71F81
:102EB000E081F0E0E20FF11DEE0FFF1FE455F94F46
:102EC000259134912093A6093093A7092D960FB62A
:102ED000F894DEBF0FBECDBFDF91CF910895E82FEC
:102EE000F0E0EE0FFF1FE259F94F85919491909316
:102EF000A7098093A60908952F923F924F925F925F
:102F00006F927F928F929F92AF92BF92CF92DF92F9
:102F1000EF92FF920F931F93CF93DF93CDB7DEB75E
:102F20002B970FB6F894DEBF0FBECDBF08E615E0B5
:102F300028E535E03A83298398E4492E95E0592E17
:102F400020E9622E24E0722E1B8235E0832E912C24
:102F5000A12CB12CD8018C9181118EC00E947736A2
:102F600020E830E040E050E00E94E436672B682B18
:102F7000692B09F03CC3E091390180913A01B8E036
:102F8000EB9FF0011124EA51FE4FE80FF11D808103
:102F90009091E50191111DC090E001976AE070E009
:102FA0000E9461379C0162E070E00E946137281B3B
:102FB000390B37FF02C02F5F3F4F35952795C90169
:102FC000019662E070E00E9461376C01CC0CDD1C60
:102FD00002C0C12CD12CF601EF51FE4F808181112E
:102FE00003C0EFEFCE1ADE0AF601E656FD4FE08091
:102FF000F601EA56FD4F6081062E000C770B6E1924
:103000007109E7FC73956F5F7F4F072E000C880BEB
:10301000990B0E943A26E60EA981BA81EC92F6013C
:10302000EE56FD4FE080F601E257FD4F6081062E1F
:10303000000C770B6E197109E7FC73956F5F7F4F7A
:10304000072E000C880B990B0E943A264E2D460F36
:10305000F2014083A981BA816C91B8E06B9FF001C5
:103060001124E056FB4FE40FF11D80818111BFC296
:103070008B810E94AD29BBC2F3019081892F881FEB
:103080008827881F8F5F92FF04C090915B0190FD9D
:10309000AEC2212C312C282F30E03F832E834E816D
:1030A0005F81241635060CF0A2C2D8018C9190ECF9
:1030B000980F903A08F481C08F718531D1F5E09175
:1030C000390180913A01B8E0EB9FF0011124EA51F7
:1030D000FE4FE80FF11D2081283009F4B5C2A98107
:1030E000BA81EC91D2018C91B8E0EB9FF0011124F0
:1030F000EA51FE4FE80FF11D8081AAE0EA2E6E2D05
:103100000E944737392F822F0E94473739139CC2BC
:10311000F301808183FF98C280E20E94901382E1D4
:103120000E946F17E0924001D3018C91877F8C93AE
:1031300048C0893109F088C2EE24E394D12C65E0BF
:103140008E2D0E94882D97FF02C081509F4F892F9E
:10315000990F990BFC01E959FA4F80818F718931E0
:1031600009F4D394E394B5E0EB12E9CFDD2009F440
:103170006BC20E94773622E030E040E050E00E94CF
:10318000E436672B682B692B09F05EC28AE20E9445
:10319000901383E10E946F1780913F0166E170E018
:1031A000681B7109072E000C880B990B0E943A26A8
:1031B000862F63E00E949A2A04C045E050E05987B8
:1031C0004887D3018C9185FF0DC00E94773623E09C
:1031D00030E040E050E00E94E436672B682B692B1A
:1031E00009F4ECC228853985215031092430310594
:1031F00008F0F9C14885598541705527888599851A
:103200000297849FF02C112421703327888599859B
:103210000397289F902D1124E981FA818081682FDE
:1032200070E09B012F0D311DF7FC3A95E0913901BB
:10323000F0E02E173F0709F088C1D2015C91A92F59
:10324000092E000CBB0BA50FB11DE0913A01F0E077
:10325000AE17BF0709F079C12114310409F0C3C1C9
:10326000D801EC91EF71EE2EB7E0EB9FF001112445
:103270009F012D54364F6901F90133969491809145
:103280003F01880F981B80914901880F981B9C83F0
:103290000E94773624E630E040E050E00E94E436B9
:1032A0006D8361E084E00E94E92D8823A9F090E01D
:1032B000019725E0289FD001299FB00D1124A25627
:1032C000BD4FEC91EF70F0E0E855F84FE4911296A5
:1032D0008C91FE2EF80E01C0F12C3C814D814317DC
:1032E00008F081C1F601329624913197E49130E0E3
:1032F00040E050E06E2F70E080E090E00E945426A5
:103300009B01AC016F2D7DEF7603D0011124AC59E8
:10331000BF4F0E940E3724E630E040E050E00E94AC
:10332000E436D22E80E20E94901364E06E0D8D2D63
:10333000D7FC80E00E949A2AD3018C9183FF53C16D
:103340008E2D90E0FC013597E231F10508F04BC17C
:10335000E358FF4F0C9475370E947736A50194010E
:103360000E94E436672B682B692B09F03CC18DE085
:103370000E946F170E947736A50194010E94E436DF
:103380006C5F609344010E94773624E130E040E0B6
:1033900050E00E94E436672B682B692B09F0C1C20C
:1033A00061E080914F010E949A2ABBC280913D0149
:1033B000843008F418C185E00E94FE2D882309F4AA
:1033C0000AC211C180914B0190914C01A0914D0115
:1033D000B0914E01C397A105B1050CF404C10E9440
:1033E00077362AE030E040E050E00E94E436672B78
:1033F000682B692B09F003C2F6C061E084E00E94EB
:10340000E92D0E94692A80E10E946F178AC20E94FA
:10341000773622E030E040E050E00E94E436672B4F
:10342000682B692B09F0DFC00E94773624E130E079
:1034300040E050E00E94E436E62EB5E06B9FF001DC
:103440001124E256FD4F848184FDCDC08FE00E949F
:103450006F178E2D0E94891EF80180818054808311
:1034600060C2809147018111BEC081E10E946F1747
:1034700081E08093480155C280913F01863008F475
:10348000B2C00E947736A50194010E94E436672BF2
:10349000682B692B09F4D9C1A6C00E9477362AE0AF
:1034A00030E040E050E00E94E43664307105810570
:1034B00091050CF098C085E10E946F170E94773645
:1034C00023E030E040E050E00E94E436E62E60FF6A
:1034D0002DC080914F0190915001A0915101B09168
:1034E00052018A309105A105B1050CF41AC2019769
:1034F000A109B10980934F0190935001A09351010C
:10350000B09352018091530190915401A0915501C3
:10351000B09156010197A109B1098093530190938D
:103520005401A0935501B0935601FBC185E00E9460
:10353000FE2D90913D01882309F4EFC1963008F0EB
:10354000ECC1EE2009F4EDC1C4CFD8015C915F71EC
:103550005F3009F448C02531310508F044C0F2015C
:10356000F081FC834F2F50E05B874A87FA01E90F17
:10357000F11D97FDFA95E830F105A8F5A3E0220FBB
:10358000331FAA95E1F7D901A056BB4F6D01CE0EAE
:10359000DF1ED601EC90E11026C02A513E4FE20F0B
:1035A000F31F208121502E3BF0F423E0660F771F9C
:1035B0002A95E1F760567B4FDA01A60FB71F1C92E0
:1035C0008F0DE981FA818083FC819F0FD2019C934A
:1035D000B8E08B9FF0011124E056FB4FE90FF11D7D
:1035E0008B818F5F8083EFEF2E1A3E0A58CD0F5FDD
:1035F0001F4FFB81FF5FFB8329813A812F5F3F4F84
:103600003A8329833FEF431A530A4FEF641A740A2F
:10361000F03109F09FCC2B960FB6F894DEBF0FBEA9
:10362000CDBFDF91CF911F910F91FF90EF90DF9071
:10363000CF90BF90AF909F908F907F906F905F9052
:103640004F903F902F900895D8018C91805E8032EA
:1036500010F091E001C09FEFE981FA818081F09143
:103660003901FC83F81730F5692F092E000C770B10
:10367000282F30E0261B370BD2014C9150E0E3E0BD
:10368000220F331FEA95E1F7F901E056FB4FE40FF3
:10369000F51FE081E1110EC02A513E4FF901E40F00
:1036A000F51F208121502E3B28F4E2E0F0E0E61BDC
:1036B000F70B73C0D2014C9150913A01541710F599
:1036C000A92F092E000CBB0B242F30E02A1B3B0B2B
:1036D000E8E08E9FB0011124FB01E056FB4FE20FA2
:1036E000F31FE081E1110EC06A517E4FFB01E20F32
:1036F000F31F208121502E3B28F423E030E02A1BC9
:103700003B0B59C03C81831730F5692F092E000C03
:10371000770B798768879B01280F311DE42FF0E034
:10372000B3E0220F331FBA95E1F7D901A056BB4F82
:10373000AE0FBF1F6C9161110EC02A513E4FE20FB8
:10374000F31F208121502E3B30F488859985029605
:103750009987888736CD451718F5A92F990FBB0B88
:10376000B987A8879D01240F311DB8E08B9FC00148
:103770001124FC01E056FB4FE20FF31F4081411181
:103780000FC08A519E4FFC01E20FF31F80818150D0
:103790008E3B30F4E885F9853396F987E88711CDBB
:1037A0000E94773624E030E040E050E00E94E436AA
:1037B0009B012F5F3F4F3987288703CD0E947736C3
:1037C00024E030E040E050E00E94E436FB01319616
:1037D000F987E88707CD0E947736A50194010E94FA
:1037E000E436672B682B692B09F0FDCE8EE00E9432
:1037F0006F1780913D01815080933D0192C08FE011
:103800000E946F17C0904B01D0904C01E0904D0189
:10381000F0904E010E94773622E330E040E050E025
:103820000E94E436A7019601261B370B480B590B63
:1038300020934B0130934C0140934D0150934E0126
:10384000D8018C9180548C936CC084E10E946F17D6
:1038500060916301709164018091650190916601AE
:1038600022E030E040E050E00E94E4362093630123
:10387000309364014093650150936601DA01C901F8
:103880000197A109B1098093570190935801A09322
:103890005901B0935A0180913F01815080933F01BB
:1038A0008091530190915401A0915501B09156011E
:1038B0006C017D01E3E0CE1AD108E108F1080E9415
:1038C000773627E030E040E050E00E94E436A70180
:1038D0009601261B370B480B590BDA01C9012093BF
:1038E0005301309354014093550150935601409138
:1038F0004F01509150016091510170915201841714
:103900009507A607B7076CF480934F019093500179
:10391000A0935101B093520104C0915090933D0186
:1039200010CE80E20E9490135ECE0F931F93CF9330
:10393000DF932091390180913A0190E048E0249F83
:1039400090011124DC01A20FB31F60E070E0199711
:10395000A901485051099C012F5F3F4F98E0683101
:10396000710561F1FD01E60FF71FEA51FE4FEA0113
:10397000C60FD71FCA51DE4F8F010C1B1D0B20171E
:103980003107CCF0808111EE180F1C3410F4805BED
:103990000FC013E2180F163010F4885C09C0843E83
:1039A00011F4908306C019E1180F163010F4825DEF
:1039B00080833196E1CF685F7F4FD1CFDF91CF9188
:1039C0001F910F910895FF920F931F93CF93DF9351
:1039D000F82EC62F142F022FDFEFD60F6AE28D2F9D
:1039E0000E945813EF2DF0E0EF5FFE4FE2A58E2FFF
:1039F00090E08930910508F06DC0FC01E157FF4F60
:103A00006C2F70E00C94753761507109FB01E85917
:103A1000FA4F1082FB01E85AFA4FE081DB01A85B04
:103A2000BA4F8C9198E0E99FF0011124E056FB4FCA
:103A3000E80FF11D10824EC0FB01E157FB4F808162
:103A400087FF02C08F7745C0846043C0FB01E15708
:103A5000FB4F808180623DC0FB01E157FB4F8081BD
:103A6000806437C0EB01C959DA4F6881162F107E88
:103A70000E9477362AE130E040E050E00E94E436D0
:103A8000610F688327C0FB01E157FB4F808182FFF4
:103A900002C08B7F1EC080681CC0FB01E959FA4F31
:103AA00080818F71805815C040913F01842F880F0D
:103AB000880F480FFB01E959FA4F60816F71212F80
:103AC0008D2F0E94B91306C0FB01E157FB4F808187
:103AD000877F8083DF91CF911F910F91FF90089591
:103AE0002FEF280F253018F49BEF980F23C02AEFF3
:103AF000280F2930A0F021EF280F233090F08231D9
:103B000091F02DEE280F223080F0853181F02AEEE1
:103B1000280F293070F08F3168F098E00BC091E0E9
:103B200009C093E007C094E005C095E003C096E0AB
:103B300001C097E0892F08952F923F924F925F9294
:103B40006F927F928F929F92AF92BF92CF92DF92AD
:103B5000EF92FF920F931F93CF93DF93C8E6D5E0C8
:103B600008E515E088E4282E85E0382E9AE0C92E75
:103B7000D12CE12CF12C88818054803208F041C096
:103B8000F801808190E020913901AC01421B51097C
:103B900057FF03C0519541955109F101208130E053
:103BA00080913A01B901681B7109CB0177FF03C00D
:103BB000919581959109840F951F039714F50E94A3
:103BC00077364B015C0180E00E94FE2D682F70E08B
:103BD0006F5F7F4F84E090E00E9461372B01770F89
:103BE00066087708C501B401A70196010E94E43672
:103BF000641575058605970524F488818F71805EAC
:103C0000888321960F5F1F4F7FEF271A370A85E0C1
:103C1000C837D80709F0AFCFDF91CF911F910F912F
:103C2000FF90EF90DF90CF90BF90AF909F908F90DC
:103C30007F906F905F904F903F902F900895EF92FC
:103C4000FF920F931F93CF93DF9300D000D01F926A
:103C5000CDB7DEB72EE932E0F90110E08FEF9081A9
:103C6000911102C080831F5F359693E0E032F9071F
:103C7000B1F78EE992E060E070E06F5F7F4FAC01DA
:103C80007B01AAE1EA16F10429F405966A3171056F
:103C9000A1F726C0DC01FC91DA011596EC91EF1733
:103CA000C8F405E0FC01DE01119601900D920A9521
:103CB000E1F705E0FA013596DC0101900D920A95D5
:103CC000E1F705E0FE013196DA01159601900D92BB
:103CD0000A95E1F7BFEFEB1AFB0A4B5F5F4FD1CFBD
:103CE000F90180818F3F09F410822B5F3F4FF3E091
:103CF00020323F07A9F784E1811B0F900F900F90AE
:103D00000F900F90DF91CF911F910F91FF90EF9047
:103D1000089525E0829FC0011124FC01E256FD4F69
:103D200010821182128213821482E9E3F1E082810F
:103D3000815082830C941F1EE0E2F3E080E09081CA
:103D4000992321F08F5F35968832C9F70895AF9295
:103D5000BF92CF92EF92FF920F931F93CF93DF9377
:103D6000142FA82EB12CC62FD0E0F50143E0EE0FA2
:103D7000FF1F4A95E1F7E851FC4FEC0FFD1F9081C2
:103D8000992339F040E00E946914F82E882361F1EC
:103D900002C035E0F32E0E949C1EE82F8F2DFF0CF1
:103DA000990B019763E070E00E9461378A0D9B1DBB
:103DB00023E0880F991F2A95E1F780529C4FC80F86
:103DC000D91F6C0F7D1FEB01219781E08E0F888337
:103DD00085E0E89FF0011124E05EFC4F108381E054
:103DE00081830283E382C482DF91CF911F910F917F
:103DF000FF90EF90CF90BF90AF900895CF93DF9357
:103E0000C82F0E94773624E630E040E050E00E9460
:103E1000E43680E09FE0C99FD0011124A854B84F38
:103E20009EE0C99FA00111244F5F5E4FC62FD0E0D6
:103E3000FA01E80FF11D208130E0FD01E20FF31FD0
:103E4000E4916E1748F0F9013196EA0FFB1FE491F7
:103E5000F0E0CE17DF0714F08F5FEACFDF91CF914C
:103E60000895CF92DF92EF92FF920F931F93CF931B
:103E7000DF93D62F082F10E0F801E656FD4FC080E3
:103E8000F801EA56FD4F6081062E000C770B6C1985
:103E90007109C7FC73956F5F7F4F072E000C880B6D
:103EA000990B0E943A260C2C000CDD08EE08FF0846
:103EB000C60ED71EE81EF91EF801EE56FD4FC08152
:103EC000F801E257FD4F8081682F880F770BCB01F7
:103ED0008C1B9109C7FD9395BC016F5F7F4F072E27
:103EE000000C880B990B0E943A260C2FCC0F110B5B
:103EF000220B330BDC01CB01800F911FA21FB31FDC
:103F0000960143E0220F331F4A95E1F72A513E4FB5
:103F1000F901E80FF91FD083DF91CF911F910F9125
:103F2000FF90EF90DF90CF9008952F923F924F92A5
:103F30005F926F927F928F929F92AF92BF92CF9239
:103F4000DF92EF92FF920F931F93CF93DF9300D0F6
:103F500000D000D0CDB7DEB78D8390E09C0126560F
:103F60003D4F3A832983D9010C91002E000C110B8F
:103F700001501109FC01EA56FD4F5F019C012E56CC
:103F80003D4F1901DC01A257BD4FBC83AB83BD81FE
:103F9000B753BE83E2E04E2E512C612C712CF8EC0D
:103FA0009F2EA5E18A2EDD808D0CD5018C91082EE7
:103FB000000C990B0196801791070CF446C0F10193
:103FC0008081780173E0EE0CFF1C7A95E1F7970190
:103FD000280F311D87FD3A95D901AB51BE4F6D01B8
:103FE0008C91883069F40E947736A30192010E9477
:103FF000E436882D969E800D1124F601808302C040
:10400000EE81EC93AB81BC818C91F701E80FF11D3F
:1040100087FDFA959F0129513E4F7901D9018C9175
:10402000883069F40E947736A30192010E94E43639
:10403000882D969E800D1124F701808303C0DE80B9
:10404000D901DC920F5F1F4FB0CFD1010C91002E30
:10405000000C110BBD81BD52BE8342E0442E512C99
:10406000612C712C52EDD52E65E1C62EED81CE0E60
:10407000AB81BC812C91822F022E000C990B8017F2
:1040800091070CF440C0E981FA818081980148E0F1
:104090008402200D311D1124D901A252BE4F7D0191
:1040A0008C91883069F40E947736A30192010E94B6
:1040B000E4368C2DD69E800D1124F701808302C03A
:1040C000EE81EC93D5018C91F80128E08202E00D9D
:1040D000F11D1124DF01A251BE4F7D018C9188306A
:1040E00069F40E947736A30192010E94E4368C2D78
:1040F000D69E800D1124F701808302C0EE81EC93DF
:104100000F5F1F4FB5CFFD81FF5FFB83D501EC91A2
:10411000D101BC91BD83A981BA818C9190E08C01C1
:1041200033E0000F111F3A95E1F760E070E0F0E036
:1041300030E0E817F907BCF0BD814B2F50E0780163
:10414000E60EF71E2417350754F0DA01AE0DBF1D39
:10415000AA51BE4FDB80DC924F5F5F4FF3CF0196D9
:10416000685F7F4FE6CF26960FB6F894DEBF0FBE8E
:10417000CDBFDF91CF911F910F91FF90EF90DF9016
:10418000CF90BF90AF909F908F907F906F905F90F7
:104190004F903F902F9008951F93CF93DF9380917E
:1041A000E50181110CC00E94773622E030E040E04A
:1041B00050E00E94E436EB01CC0FDD1F02C0C0E0EE
:1041C000D0E0FE01EF51FE4F8081811101C02196A8
:1041D000FE01E656FD4F1081FE01EA56FD4F60815B
:1041E000062E000C770B611B710917FD73956F5F2D
:1041F0007F4F072E000C880B990B0E943A26610F07
:1042000060933901FE01EE56FD4F1081C257DD4F1C
:104210006881062E000C770B611B710917FD7395E1
:104220006F5F7F4F072E000C880B990B0E943A2678
:10423000610F60933A01E091390188E0E89FF00155
:104240001124E056FB4FE60FF11DA081AA2329F0AF
:10425000B0E0A959BA4F1C921082DF91CF911F9103
:104260000895CF92DF92EF92FF9280915B0190913F
:104270005C01A0915D01B0915E010196A11DB11D8F
:1042800080935B0190935C01A0935D01B0935E010C
:1042900040915701509158016091590170915A0114
:1042A0008091630190916401A0916501B0916601D4
:1042B000481759076A077B070CF456C080913F01E5
:1042C000853108F051C086E00E946F1780913F0150
:1042D0008F5F80933F018091630190916401A09171
:1042E0006501B0916601880F991FAA1FBB1F8093BB
:1042F000630190936401A0936501B09366010E94ED
:10430000773628E030E040E050E00E94E43683E079
:10431000860F90E0A0E0B0E040914F015091500135
:104320006091510170915201480F591F6A1F7B1F04
:1043300040934F015093500160935101709352018B
:104340004091530150915401609155017091560173
:10435000840F951FA61FB71F80935301909354019C
:10436000A0935501B0935601C0904F01D0905001D9
:10437000E0905101F09052018091530190915401CD
:10438000A0915501B0915601C816D906EA06FB0660
:104390009CF520913F0186E190E0821B910963E04A
:1043A00070E00E9461379B012F5F3F4F032E000C8E
:1043B000440B550B60915B0170915C0180915D0134
:1043C00090915E010E94E436672B682B692BA1F463
:1043D00082E00E94FE2D9FEFC91AD90AE90AF90A64
:1043E000C80ED11CE11CF11CC0924F01D0925001AB
:1043F000E0925101F092520180914001882319F01E
:1044000081508093400180914101882319F08150AF
:104410008093410180914201882319F0815080935B
:10442000420180914301882319F081508093430118
:1044300080914401882319F0815080934401809138
:104440004701882319F081508093470181E00E9441
:10445000FE2D882369F00E9477362CE030E040E0A2
:1044600050E00E94E436672B682B692B09F48DC05D
:1044700083E00E94FE2DC0905F01D0906001E0902B
:104480006101F090620191E0C91AD108E108F108D8
:10449000C80ED11CE11CF11CC0925F01D0926001DA
:1044A000E0926101F092620161E087E00E94E92DF3
:1044B000882321F080915B0180FF6AC062E087E081
:1044C0000E94E92D8823A1F060915B0170915C014D
:1044D00080915D0190915E0122E030E040E050E08B
:1044E0000E94E436613071058105910509F45EC0D2
:1044F00080915F0190916001A0916101B091620192
:10450000CC97A105B105DCF0609153017091540185
:10451000809155019091560124E030E040E050E058
:104520000E94E43680914F0190915001A091510179
:10453000B0915201281739074A075B071CF08EE13A
:104540000E946F1780915F0190916001A0916101BD
:10455000B0916201181619061A061B062CF010926B
:10456000E00182E08093DF01E12CF12C8AE00E94DF
:10457000FE2D90E0880F991FE816F9065CF50E9461
:10458000951C8FEFE81AF80AF1CF0E94CC2070CF6B
:1045900091E0C91AD108E108F108C0925F01D092F8
:1045A0006001E0926101F092620188CF80915F0129
:1045B00090916001A0916101B09162010197A10900
:1045C000B10980935F0190936001A0936101B09362
:1045D00062018ECFFF90EF90DF90CF90089525E09D
:1045E000829FC0011124FC01E05EFC4F1082118209
:1045F00012821382148208954F925F926F927F927B
:104600008F929F92AF92BF92CF92DF92EF92FF92E2
:104610000F931F93CF93DF9388EEA82E83E0B82EDD
:10462000C0E0D0E095E0892E28E0422E512C612C8C
:10463000712CCC2EC694C694C69488E0C89E6001A6
:104640001124750100E010E0EC2FE7709E2EF801B8
:10465000EC0DFD1DE953FE4F808190E0092C02C056
:10466000959587950A94E2F780FF1AC0F70180813B
:104670008823B1F0B801CE010E944C15809142010F
:104680008823C9F10E947736A30192010E94E43683
:104690006F5FE62FF0E0E255F84F84910E94962577
:1046A0000F5F1F4FFFEFEF1AFF0A0830110579F671
:1046B000219688E0A80EB11CC531D10509F0B9CF0B
:1046C00060913A0170E08091390190E00E944C15B0
:1046D00080E4DF91CF911F910F91FF90EF90DF90D9
:1046E000CF90BF90AF909F908F907F906F905F9092
:1046F0004F900C949625F701808190E00197889E59
:104700009001899E300D1124F901E05EFC4FE0819B
:104710006E2F62956F70BDCF0E9477258091410109
:10472000811109C00E942C160E94E2150E94FC22F1
:104730000E945B1502C00E94E21585E00E946F177F
:104740000E9494290E942A260E94392A90914001B1
:10475000992351F00E94773624E030E040E050E0A9
:104760000E94E43681E0860F0895CF92DF92EF92A7
:10477000FF920F931F93CF93DF936C017A018B010C
:10478000C0E0D0E0CE15DF0581F0D8016D918D013C
:10479000D601ED91FC910190F081E02DC6010995C3
:1047A000892B11F02196EECF7E01C701DF91CF91C9
:1047B0001F910F91FF90EF90DF90CF900895089593
:1047C0002F923F924F925F926F927F928F929F9221
:1047D000AF92BF92CF92DF92EF92FF920F931F930F
:1047E000CF93DF9300D000D0CDB7DEB7DC016A30C5
:1047F00081F415968C91159714968C9314971696B0
:104800009C91169719968C911997890F16968C93EF
:10481000FEC060526F3508F0F0C01496EC9014970B
:104820004E2C0E2C000C5508E6EDF7E0F490E7ED69
:10483000F7E0E4910F2D10E06623E1F081E090E0D5
:104840004E2F477011F480E090E04E2F469546952C
:104850004695840F911D809F6001819FD00C909F91
:10486000D00C11246C9DA0016D9D500D1124485257
:10487000584F02C048ED57E0040D151D10161106E3
:104880000CF0BBC016968C9116978F5F682F082E80
:10489000000C770B6B01CE0ED11C1C141D040CF008
:1048A000ACC0603471050CF0A8C04115510509F485
:1048B000A4C087706B0177FF03C027E0C20ED11C34
:1048C00093E0D594C7949A95E1F7FC2D77FF04C047
:1048D000882311F0FFEFFC0D57FE05C066277727F0
:1048E0006419750902C060E070E00038110524F019
:1048F00090E8992E9E1801C09F2C961A0F2F0F2E0C
:10490000000C110BFF3F1CF4E02EE09401C0E12CE1
:1049100021E03E2F377009F420E0E695E695E69514
:10492000922F9E0F090F111D0930110514F098E008
:104930009F1B8E2C8F0E01E010E0082E02C0000F8E
:10494000111F0A94E2F7DF2CD9185B01FE9CA00C22
:10495000B11C11244A0D5B1DEFEFE09F7001E19F38
:10496000F00C1124E094F0947E2C282D30E82303E1
:10497000400C511C11249201260F371F2A563A4F22
:104980009F0F692D70E0FB01ED0DF11D6F01981572
:10499000A1F1B9011A01B22CB41AB91440F5F10110
:1049A0006490609E5001619EB00C1124BA82A9826D
:1049B000FC82EB8287FC05C0FB01B080B720AB28EE
:1049C000A082882371F0F6E0F8155CF05B01E0E866
:1049D000AE0EB11CF50150806C8065205A806528B0
:1049E0006082FFEF2F1A3F0A6F5F7F4FD4CF83940F
:1049F0004C0D5D1D20583F4FCACF18968C911897CB
:104A00008B5F14969C911497890F14968C9381E078
:104A100090E00F900F900F900F90DF91CF911F912A
:104A20000F91FF90EF90DF90CF90BF90AF909F904D
:104A30008F907F906F905F904F903F902F90089550
:104A4000089580E090E008958F929F92AF92BF9278
:104A50000F931F93CF93DF93CDB7DEB7A1970FB618
:104A6000F894DEBF0FBECDBF19A2423008F44AE071
:104A70008E010F5D1F4F842E912CA12CB12CA5010E
:104A800094010E941637E62FB901CA01015011099D
:104A9000EA3014F4E05D01C0E95CD801EC93232B0B
:104AA000242B252B61F70115110571F0F8010190F8
:104AB0000020E9F73197AF01401B510BB8018CE79B
:104AC00095E00E94B52302C080E090E0A1960FB669
:104AD000F894DEBF0FBECDBFDF91CF911F910F9134
:104AE000BF90AF909F908F9008950E949E3780E076
:104AF000E6E9F5E081118FEF0024819381938193A2
:104B000081930394D1F7089520918C05282329F4EB
:104B100090918B05982381E009F480E00895682F37
:104B200070E080E090E04AE00C942425682F8CE748
:104B300095E00C94E0230F931F93CF93DF938C01A8
:104B4000C0E0D0E0F801EC0FFD1F6491662341F056
:104B50008CE795E00E94E023892B11F02196F2CF9B
:104B6000CE01DF91CF911F910F910895CF92DF92E7
:104B7000EF92FF92CF93DF9397FF19C06B017C01F7
:104B80008DE20E949625EC0166277727CB016C19F0
:104B90007D098E099F094AE00E9424258C0F9D1FE4
:104BA000DF91CF91FF90EF90DF90CF9008954AE092
:104BB000DF91CF91FF90EF90DF90CF900C94242560
:104BC000BC01990F880B990B0C94B625EF92FF92BC
:104BD0000F931F93CF93DF93EC01C40FD11DFB0103
:104BE000E20FF11D20E1E22E01708C179D075CF5AC
:104BF0009B0177FF02C020E030E0AF01E134F10516
:104C000014F040E450E024173507DCF480389105B7
:104C1000A8F4A90111E041FD14E040FD110F42FD8F
:104C20001295487FE49ED0011124A80FAA56BA4FCE
:104C30004C91412B011101C041274C932F5F3F4FF5
:104C4000DCCF0196D2CFDF91CF911F910F91FF90D2
:104C5000EF900895E6E9F5E080E0A0E0B8E000809C
:104C60000EBC8111012C1197A0FDFDCF0192B9F767
:104C70000DB40895CF92DF92EF92FF926115710506
:104C80008105910549F06B017C010E947736A701EF
:104C900096010E94E43603C060E070E0CB01FF9013
:104CA000EF90DF90CF900895CF92DF92EF92FF9236
:104CB0000F931F93621773078407950784F4890184
:104CC0009A016B017C01C901B8016C197D098E093B
:104CD0009F090E943A266C0D7D1D8E1D9F1D1F9100
:104CE0000F91FF90EF90DF90CF9008953FB7F89429
:104CF0008091920590919305A0919405B0919505AE
:104D000026B5A89B05C02F3F19F00196A11DB11D26
:104D10003FBFBA2FA92F982F8827820F911DA11D61
:104D2000B11DBC01CD0142E0660F771F881F991F9E
:104D30004A95D1F708958F929F92AF92BF92CF92EA
:104D4000DF92EF92FF926B017C010E9476264B016D
:104D50005C01C114D104E104F104F1F00E94762653
:104D6000DC01CB0188199909AA09BB09883E934047
:104D7000A105B10570F321E0C21AD108E108F108DC
:104D800088EE880E83E0981EA11CB11CC114D104CA
:104D9000E104F10419F7DDCFFF90EF90DF90CF90A1
:104DA000BF90AF909F908F9008951F920F920FB673
:104DB0000F9211242F933F938F939F93AF93BF93A1
:104DC0008091780590917905A0917A05B0917B0545
:104DD0003091910523E0230F2D3720F40196A11D7A
:104DE000B11D05C026E8230F0296A11DB11D209319
:104DF00091058093780590937905A0937A05B093F7
:104E00007B058091920590919305A0919405B091B6
:104E100095050196A11DB11D809392059093930570
:104E2000A0939405B0939505BF91AF919F918F91F9
:104E30003F912F910F900FBE0F901F901895BC01BE
:104E400080E090E00C949B268FB18095807F669BDC
:104E500088601C9B846008955C988EBD00000DB432
:104E600007FEFDCF5C9A0895CF92DF92EF92FF92FA
:104E70000F931F93CF93DF93EB017B0125E0E20EAD
:104E8000F11C8B016C01C61AD70AC601800F911F55
:104E90000E94CE36F80181938F01EE15FF05A9F728
:104EA000CE01DF91CF911F910F91FF90EF90DF9096
:104EB000CF900895AF92BF92CF92DF92EF92FF9280
:104EC0000F931F93CF93DF9300D0CDB7DEB78B0145
:104ED0006B0125E0C20ED11C7B015C01A61AB70A4A
:104EE000C5018E0D9F1DF70161917F019A83898312
:104EF000CE0101960E946405EC14FD0489F7C801F7
:104F00000F900F90DF91CF911F910F91FF90EF9035
:104F1000DF90CF90BF90AF900895CF92DF92EF9245
:104F2000FF920F931F93CF93DF93C42F28E0829FAC
:104F3000C00111248C0108511C4F060F111DF801EE
:104F400080818111E8C10E949C1E91E0980FF801B8
:104F50009083082F10E025E0829FF0011124E05E8D
:104F6000FC4F81E08183128213821482C1111DC023
:104F70000E94773624E630E040E050E00E94E436BC
:104F800040E0262F30E0842F90E0FC01E759F54FF8
:104F9000E4914F5F6E17B8F3FC01E659F54FE491C9
:104FA000F0E02E173F077CF7C42F4C2F50E0FA019A
:104FB0003197E830F10508F0AEC1E856FF4F0C9488
:104FC000753785E0809FE001819FD00D1124C05E80
:104FD000DC4F80E188830E94773624E630E040E0B1
:104FE00050E00E94E43680913C01680F698393C1D0
:104FF0000E94773625E030E040E050E00E94E43641
:10500000672B682B692B51F485E0809FF001819F0D
:10501000F00D1124E05EFC4F81E209C085E0809F25
:10502000F001819FF00D1124E05EFC4F80E280834F
:105030000E94773625E0209FE001219FD00D1124AA
:10504000C05EDC4F22E030E040E050E00E94E436F9
:105050006F5F69838C8180683EC10E94773628E04B
:1050600030E040E050E00E94E43685E0809FE001BF
:10507000819FD00D1124C05EDC4F80E3860F8883B2
:10508000643018F481E089830DC00E9477362DE0EA
:1050900030E040E050E00E94E4366D5F69838C812F
:1050A00080688C830E94773626E030E040E050E054
:1050B0000E94E436611120C00E94773623E030E080
:1050C00040E050E00E94E436C1E0C60F6C2F70E073
:1050D0006F5F7F4F072E000C880B990B0E943A26BA
:1050E00085E0809FF001819FF00D1124E05EFC4F70
:1050F0006283C61BC3830FC1613009F00CC10E94DB
:10510000773623E030E040E050E00E94E436C1E032
:10511000C60F6C2F70E06F5F7F4F072E000C880B5F
:10512000990B0E943A2685E0809FF001819FF00D47
:105130001124E05EFC4F862F819582836C1B638374
:105140008481806445C00E94773627E030E040E0EB
:1051500050E00E94E436F62E85E0809FE001819FBA
:10516000D00D1124C05EDC4F605C688381E08983D0
:105170000E94773626E030E040E050E00E94E436BE
:1051800061110BC00E94773623E030E040E050E030
:105190000E94E4366F5F6A830FC0613069F40E9439
:1051A000773623E030E040E050E00E94E43660953E
:1051B0006A838C8180648C83F110ADC085E0809F10
:1051C000F001819FF00D1124E05EFC4F8481886026
:1051D0008483A1C080E00E94FE1E95E0909FF001B4
:1051E000919FF00D1124E05EFC4F805B0CC081E0CC
:1051F0000E94FE1E95E0909FF001919FF00D1124FA
:10520000E05EFC4F805A808381E0818384818068E6
:10521000DFCF0E9477362BE030E040E050E00E9484
:10522000E43685E0809FE001819FD00D1124C05EAF
:10523000DC4F80E7860F888381E08983E62FF0E0EA
:10524000EF5FFE4F848D843051F020F4813009F4FB
:1052500040C061C0863019F0873079F15CC00E948F
:10526000773622E0C22ED12CE12CF12CA701960139
:105270000E94E436611110C00E94773625E0209F1D
:10528000E001219FD00D1124C05EDC4FA7019601E3
:105290000E94E4366F5F3EC00E94773625E0209F73
:1052A000E001219FD00D1124C05EDC4FA7019601C3
:1052B0000E94E43660956A830CC00E94773622E033
:1052C00030E040E050E00E94E436672B682B692B09
:1052D00011F58C8180648C831EC00E94773625E096
:1052E000209FE001219FD00D1124C05EDC4F2AE0F9
:1052F00030E040E050E00E94E4366058688381E08E
:1053000089830E94773624E030E040E050E00E943C
:10531000E4366D5F6A83DF91CF911F910F91FF900B
:10532000EF90DF90CF90089580913A01843038F06B
:1053300081E080938105809380058FEF06C081E036
:10534000809381058093800587E380938205809117
:10535000A6099091A7090C949B25BF92CF92DF924A
:10536000EF92FF920F931F93CF93DF93182FF62E98
:10537000E42E60913C0123E0260F665066310CF06C
:1053800065E167FD60E02C310CF02AE1022E000C93
:10539000330B440B550B062E000C770B880B990B27
:1053A0000E945426B62E27E0629FC0011124FC0102
:1053B000ED54F64F6F01EF012696FE0184918F7038
:1053C000833069F028F48130B1F0823019F125C0C2
:1053D000853099F008F1863001F503E01EC00E9487
:1053E000773622E030E040E050E00E94E436672B60
:1053F000682B692B79F001E010C00E94773622E01B
:1054000030E040E050E00E94E436672B682B692BC7
:1054100019F0F1CF02E001C004E0812F90E0FC011F
:10542000E859FA4F20E2029FB00C1124B082F60135
:10543000C490FC01EA56F64FC082FE01C491FC0103
:10544000E057FB4FC07FC860C08328E0F29EF001A8
:105450001124E056FB4FEE0DF11D1F5F1083DF910D
:10546000CF911F910F91FF90EF90DF90CF90BF9061
:105470000895CF9380918B0580938C050E942427FB
:1054800080938B0580E20E948425C82F80E80E94CB
:1054900084258111C2E080E40E9484258111C3E04B
:1054A00080E10E9484258111C4E088E00E94842567
:1054B0008111C5E084E00E948425811103C0CC23C2
:1054C000C9F201C0C6E08DE10E946F178C2FCF9109
:1054D0000895CF93DF93C82F61E084E00E94E92D07
:1054E000882329F18C2F90E0019725E0289FE00187
:1054F000299FD00D1124C256DD4F8C8183FD17C02A
:1055000089E00E94FE2D811112C0E881EF70F0E069
:10551000E855F84FE4918A81282F082E000C330BB0
:105520002E0F311D2230310514F081508A83DF9116
:10553000CF910895262F40914F01509150016091D5
:1055400051017091520190E0A0E0B0E084179507FE
:10555000A607B70734F02093E00182E08093DF01D3
:105560000895481B590B6A0B7B0B40934F015093D6
:105570005001609351017093520108958F929F9250
:10558000AF92BF92CF92DF92EF92FF920F931F9351
:10559000CF93DF9390914001992351F00E94773689
:1055A00024E030E040E050E00E94E43681E0860FE5
:1055B00090914401911114C0082F10E0E801229746
:1055C00081708C9FC02D1124C801019762E070E0AA
:1055D0000E94613703501109809FE02C112402C002
:1055E000E12CC0E01092A809809139016C2F0C2E9B
:1055F000000C770B680F711D00913A012E2D0E2CB7
:10560000000C330B200F311DAB01B3E0440F551FCD
:10561000BA95E1F7FA01E056FB4FE20FF31F108154
:1056200011118EC12830310508F025C26531710590
:1056300008F021C24A515E4FFA01E20FF31F908138
:105640009150983C08F017C290914801911106C002
:10565000C80FC09339010E0D00933A018DE10E94ED
:105660006F1780914701811106C280913901C09165
:105670003A010C2F10E098E0899FE0011124FE010F
:10568000E851FC4FE00FF11F8081811104C08DE1D2
:105690000E946F17DAC090E0019725E0289FF00183
:1056A000299FF00D1124E05EFC4F6081862F8295CA
:1056B0008F706F70893028F4853030F48130B8F005
:1056C00015C0893099F013C0E82FF0E0EE0FFF1FEE
:1056D000E257FE4F20813181062E02C03695279574
:1056E0000A94E2F7A22FA170FA2E01C0F12C4F2DDF
:1056F0000E942D17CE0188519C4F6C01C00ED11E07
:10570000F6018081282F30E02150310995E0929FE9
:10571000F001939FF00D1124E05EFC4F90819031D9
:10572000D9F4918140914B0150914C0160914D0110
:1057300070914E01490F511D611D711D40934B0128
:1057400050934C0160934D0170934E0181500E9423
:10575000EF22D6011C9279C0848187FD2BC0A091D5
:105760003B01AA3109F471C0C851DC4FC00FD11FF1
:10577000888195E09A9FD0011124A256BD4F282F11
:1057800030E021503109929FF001939FF00D1124D8
:10579000E05EFC4F01900D929A95E1F781500E94D6
:1057A000EF22188280913B018F5F80933B010E9422
:1057B0001F1E4BC06EE9E62E62E0F62EA12CB12C26
:1057C00040E075E0972E80913B0190E0A816B90665
:1057D000CCF5F6018081282F30E021503109929ECE
:1057E000F001939EF00D1124E05EFC4FD7012C9147
:1057F0009081291320C012962C911297928129131F
:105800001AC013962C9113979381291314C01496E0
:105810009C9114972481292726FD0DC011962C9167
:1058200011979181920F11969C9381500E94EF22C3
:10583000F601108241E0FFEFAF1ABF0A85E0E80EE3
:10584000F11CC1CF442309F48ACF20913901809102
:105850003A0190E0A8E02A9F90011124F901EA5151
:10586000FE4FE80FF91F408151EE540F5C3410F4E5
:10587000405B40832A513E4FF901E80FF91F8081B8
:1058800091E9980F9C3408F0F6C06AE00E9447370F
:10589000D82F0E94773622E030E040E050E00E94AE
:1058A000E436672B682B692B09F045C08EE50E9412
:1058B000901385EF8D0F823039F190F48823E1F059
:1058C0008130C9F50E94773623E030E040E050E0B7
:1058D0000E94E436862F62E08F5F0E949A2A2BC0D6
:1058E0008430E9F0C8F0853031F561E084E00E9451
:1058F000E92D0E94692A1FC080913C018F5F80932F
:105900003C010E94350D17C080914401811113C0E4
:1059100085E0809344010FC00E94CC200CC0C09150
:105920003D01C43040F085E00E94FE2D811103C08E
:10593000C150C0933D018CE08D0F0E946F179BC03A
:10594000E12FF0E0E959FA4FD0818DE10E946F1705
:105950000E94773624E630E040E050E00E94E436D2
:10596000D62E61E083E00E94E92D882309F190E0C2
:10597000019725E0289FD001299FB00D1124A25640
:10598000BD4F2C912F7030E0F901EE0FFF1FEA5947
:10599000FD4FE4911296FC901297FE0EF901EE0F66
:1059A000FF1FE859FD4FE49113960C910E0F02C0B2
:1059B00000E0F12C80913F01880F885D9F2D990FA9
:1059C0009F0D890FD81608F056C0115060E2812F44
:1059D0000E945813F09EF00111249F01FF0F440B09
:1059E000550B6F2D70E080E090E00E9454264B0133
:1059F0005C0190913D0180914A01890F0E94701DC8
:105A0000282F00913A010E0D80913901C80F880CA2
:105A1000991CAA1CBB1C30E0C901880F991F092ED4
:105A2000000CAA0BBB0B880D991DAA1DBB1D409134
:105A30004901042E000C550B660B770B840F951F44
:105A4000A61FB71F20913F01820F911DA11DB11DFF
:105A5000BC01CD016F5F7F4F8F4F9F4F22E030E041
:105A600040E050E00E94E436422F6D2F6F712C2FE2
:105A7000812F0E94B9130E949C1D0E9431218091A8
:105A80004301882321F080915B0180FD0EC0DF91EE
:105A9000CF911F910F91FF90EF90DF90CF90BF902B
:105AA000AF909F908F900C947C17DF91CF911F91B6
:105AB0000F91FF90EF90DF90CF90BF90AF909F90AD
:105AC0008F90089525E0829FC0011124DC01A25629
:105AD000BD4FEC91EF70F0E0EF5FFE4F848D8430AE
